{
  "contractName": "FetchPrice",
  "abi": [
    {
      "constant": true,
      "inputs": [],
      "name": "price_status",
      "outputs": [
        {
          "name": "",
          "type": "uint8"
        }
      ],
      "payable": false,
      "stateMutability": "view",
      "type": "function"
    },
    {
      "constant": true,
      "inputs": [],
      "name": "last_price_update",
      "outputs": [
        {
          "name": "",
          "type": "uint256"
        }
      ],
      "payable": false,
      "stateMutability": "view",
      "type": "function"
    },
    {
      "constant": true,
      "inputs": [],
      "name": "ETH_PRICE",
      "outputs": [
        {
          "name": "",
          "type": "uint256"
        }
      ],
      "payable": false,
      "stateMutability": "view",
      "type": "function"
    },
    {
      "constant": true,
      "inputs": [],
      "name": "oraclize_fee",
      "outputs": [
        {
          "name": "",
          "type": "uint256"
        }
      ],
      "payable": false,
      "stateMutability": "view",
      "type": "function"
    },
    {
      "inputs": [],
      "payable": true,
      "stateMutability": "payable",
      "type": "constructor"
    },
    {
      "anonymous": false,
      "inputs": [
        {
          "indexed": false,
          "name": "_description",
          "type": "string"
        },
        {
          "indexed": false,
          "name": "_time",
          "type": "uint256"
        }
      ],
      "name": "OraclizeLog",
      "type": "event"
    },
    {
      "constant": true,
      "inputs": [],
      "name": "getEthereumPrice",
      "outputs": [
        {
          "name": "",
          "type": "uint256"
        }
      ],
      "payable": false,
      "stateMutability": "view",
      "type": "function"
    },
    {
      "constant": false,
      "inputs": [],
      "name": "fetchOraclizeFee",
      "outputs": [],
      "payable": true,
      "stateMutability": "payable",
      "type": "function"
    },
    {
      "constant": false,
      "inputs": [],
      "name": "fetchEthereumPrice",
      "outputs": [],
      "payable": true,
      "stateMutability": "payable",
      "type": "function"
    },
    {
      "constant": false,
      "inputs": [],
      "name": "initEthereumPrice",
      "outputs": [],
      "payable": true,
      "stateMutability": "payable",
      "type": "function"
    },
    {
      "constant": false,
      "inputs": [
        {
          "name": "myid",
          "type": "bytes32"
        },
        {
          "name": "result",
          "type": "string"
        }
      ],
      "name": "__callback",
      "outputs": [],
      "payable": false,
      "stateMutability": "nonpayable",
      "type": "function"
    },
    {
      "constant": false,
      "inputs": [
        {
          "name": "myid",
          "type": "bytes32"
        },
        {
          "name": "result",
          "type": "string"
        },
        {
          "name": "proof",
          "type": "bytes"
        }
      ],
      "name": "__callback",
      "outputs": [],
      "payable": false,
      "stateMutability": "nonpayable",
      "type": "function"
    }
  ],
  "bytecode": "0x6080604052600060055560006006556000600755611f67806100226000396000f3006080604052600436106100a4576000357c0100000000000000000000000000000000000000000000000000000000900463ffffffff168063013abe8f146100a957806327dc297e146100e257806338bbfa5014610159578063397b66cb14610216578063470a9f8414610220578063635408961461024b5780636f5097d9146102555780638832bc291461025f5780639bddd05f1461028a578063edce3c50146102b5575b600080fd5b3480156100b557600080fd5b506100be6102e0565b604051808260028111156100ce57fe5b60ff16815260200191505060405180910390f35b3480156100ee57600080fd5b506101576004803603810190808035600019169060200190929190803590602001908201803590602001908080601f01602080910402602001604051908101604052809392919081815260200183838082843782019150505050505091929192905050506102f3565b005b34801561016557600080fd5b506102146004803603810190808035600019169060200190929190803590602001908201803590602001908080601f0160208091040260200160405190810160405280939291908181526020018383808284378201915050505050509192919290803590602001908201803590602001908080601f0160208091040260200160405190810160405280939291908181526020018383808284378201915050505050509192919290505050610416565b005b61021e61041b565b005b34801561022c57600080fd5b506102356106d9565b6040518082815260200191505060405180910390f35b6102536106df565b005b61025d610725565b005b34801561026b57600080fd5b506102746109e3565b6040518082815260200191505060405180910390f35b34801561029657600080fd5b5061029f6109e9565b6040518082815260200191505060405180910390f35b3480156102c157600080fd5b506102ca6109f3565b6040518082815260200191505060405180910390f35b600860009054906101000a900460ff1681565b6102fb6109f9565b73ffffffffffffffffffffffffffffffffffffffff163373ffffffffffffffffffffffffffffffffffffffff1614151561033457600080fd5b61033d81610d57565b6005819055507f2ffd6537ffc6acf68a41f8abf5293e063e68188170dce30432363ad211d942bf81426040518080602001838152602001828103825284818151815260200191508051906020019080838360005b838110156103ac578082015181840152602081019050610391565b50505050905090810190601f1680156103d95780820380516001836020036101000a031916815260200191505b50935050505060405180910390a1426007819055506002600860006101000a81548160ff0219169083600281111561040d57fe5b02179055505050565b505050565b3073ffffffffffffffffffffffffffffffffffffffff16316104716040805190810160405280600381526020017f55524c0000000000000000000000000000000000000000000000000000000000815250610d6b565b1115610538577f2ffd6537ffc6acf68a41f8abf5293e063e68188170dce30432363ad211d942bf4260405180806020018381526020018281038252604b8152602001807f4f7261636c697a6520717565727920776173204e4f542073656e742c20706c6581526020017f6173652061646420736f6d652045544820746f20636f76657220666f7220746881526020017f65207175657279206665650000000000000000000000000000000000000000008152506060019250505060405180910390a16106d7565b7f2ffd6537ffc6acf68a41f8abf5293e063e68188170dce30432363ad211d942bf426040518080602001838152602001828103825260358152602001807f4f7261636c697a65207175657279207761732073656e742c207374616e64696e81526020017f6720627920666f722074686520616e737765722e2e00000000000000000000008152506040019250505060405180910390a161060c6040805190810160405280600381526020017f55524c0000000000000000000000000000000000000000000000000000000000815250610d6b565b6006819055506106d560006040805190810160405280600381526020017f55524c0000000000000000000000000000000000000000000000000000000000815250608060405190810160405280604981526020017f6a736f6e2868747470733a2f2f6d696e2d6170692e63727970746f636f6d706181526020017f72652e636f6d2f646174612f70726963653f6673796d3d455448267473796d7381526020017f3d555344292e555344000000000000000000000000000000000000000000000081525061113b565b505b565b60075481565b61071d6040805190810160405280600381526020017f55524c0000000000000000000000000000000000000000000000000000000000815250610d6b565b600681905550565b3073ffffffffffffffffffffffffffffffffffffffff163161077b6040805190810160405280600381526020017f55524c0000000000000000000000000000000000000000000000000000000000815250610d6b565b1115610842577f2ffd6537ffc6acf68a41f8abf5293e063e68188170dce30432363ad211d942bf4260405180806020018381526020018281038252604b8152602001807f4f7261636c697a6520717565727920776173204e4f542073656e742c20706c6581526020017f6173652061646420736f6d652045544820746f20636f76657220666f7220746881526020017f65207175657279206665650000000000000000000000000000000000000000008152506060019250505060405180910390a16109e1565b7f2ffd6537ffc6acf68a41f8abf5293e063e68188170dce30432363ad211d942bf426040518080602001838152602001828103825260358152602001807f4f7261636c697a65207175657279207761732073656e742c207374616e64696e81526020017f6720627920666f722074686520616e737765722e2e00000000000000000000008152506040019250505060405180910390a16109166040805190810160405280600381526020017f55524c0000000000000000000000000000000000000000000000000000000000815250610d6b565b6006819055506109df600f6040805190810160405280600381526020017f55524c0000000000000000000000000000000000000000000000000000000000815250608060405190810160405280604981526020017f6a736f6e2868747470733a2f2f6d696e2d6170692e63727970746f636f6d706181526020017f72652e636f6d2f646174612f70726963653f6673796d3d455448267473796d7381526020017f3d555344292e555344000000000000000000000000000000000000000000000081525061113b565b505b565b60055481565b6000600554905090565b60065481565b6000806000809054906101000a900473ffffffffffffffffffffffffffffffffffffffff1673ffffffffffffffffffffffffffffffffffffffff161480610a6957506000610a676000809054906101000a900473ffffffffffffffffffffffffffffffffffffffff166116dd565b145b15610a7a57610a7860006116e8565b505b6000809054906101000a900473ffffffffffffffffffffffffffffffffffffffff1673ffffffffffffffffffffffffffffffffffffffff166338cc48316040518163ffffffff167c0100000000000000000000000000000000000000000000000000000000028152600401602060405180830381600087803b158015610aff57600080fd5b505af1158015610b13573d6000803e3d6000fd5b505050506040513d6020811015610b2957600080fd5b810190808051906020019092919050505073ffffffffffffffffffffffffffffffffffffffff16600160009054906101000a900473ffffffffffffffffffffffffffffffffffffffff1673ffffffffffffffffffffffffffffffffffffffff16141515610c91576000809054906101000a900473ffffffffffffffffffffffffffffffffffffffff1673ffffffffffffffffffffffffffffffffffffffff166338cc48316040518163ffffffff167c0100000000000000000000000000000000000000000000000000000000028152600401602060405180830381600087803b158015610c1557600080fd5b505af1158015610c29573d6000803e3d6000fd5b505050506040513d6020811015610c3f57600080fd5b8101908080519060200190929190505050600160006101000a81548173ffffffffffffffffffffffffffffffffffffffff021916908373ffffffffffffffffffffffffffffffffffffffff1602179055505b600160009054906101000a900473ffffffffffffffffffffffffffffffffffffffff1673ffffffffffffffffffffffffffffffffffffffff1663c281d19e6040518163ffffffff167c0100000000000000000000000000000000000000000000000000000000028152600401602060405180830381600087803b158015610d1757600080fd5b505af1158015610d2b573d6000803e3d6000fd5b505050506040513d6020811015610d4157600080fd5b8101908080519060200190929190505050905090565b6000610d648260006116f9565b9050919050565b6000806000809054906101000a900473ffffffffffffffffffffffffffffffffffffffff1673ffffffffffffffffffffffffffffffffffffffff161480610ddb57506000610dd96000809054906101000a900473ffffffffffffffffffffffffffffffffffffffff166116dd565b145b15610dec57610dea60006116e8565b505b6000809054906101000a900473ffffffffffffffffffffffffffffffffffffffff1673ffffffffffffffffffffffffffffffffffffffff166338cc48316040518163ffffffff167c0100000000000000000000000000000000000000000000000000000000028152600401602060405180830381600087803b158015610e7157600080fd5b505af1158015610e85573d6000803e3d6000fd5b505050506040513d6020811015610e9b57600080fd5b810190808051906020019092919050505073ffffffffffffffffffffffffffffffffffffffff16600160009054906101000a900473ffffffffffffffffffffffffffffffffffffffff1673ffffffffffffffffffffffffffffffffffffffff16141515611003576000809054906101000a900473ffffffffffffffffffffffffffffffffffffffff1673ffffffffffffffffffffffffffffffffffffffff166338cc48316040518163ffffffff167c0100000000000000000000000000000000000000000000000000000000028152600401602060405180830381600087803b158015610f8757600080fd5b505af1158015610f9b573d6000803e3d6000fd5b505050506040513d6020811015610fb157600080fd5b8101908080519060200190929190505050600160006101000a81548173ffffffffffffffffffffffffffffffffffffffff021916908373ffffffffffffffffffffffffffffffffffffffff1602179055505b600160009054906101000a900473ffffffffffffffffffffffffffffffffffffffff1673ffffffffffffffffffffffffffffffffffffffff1663524f3889836040518263ffffffff167c01000000000000000000000000000000000000000000000000000000000281526004018080602001828103825283818151815260200191508051906020019080838360005b838110156110ad578082015181840152602081019050611092565b50505050905090810190601f1680156110da5780820380516001836020036101000a031916815260200191505b5092505050602060405180830381600087803b1580156110f957600080fd5b505af115801561110d573d6000803e3d6000fd5b505050506040513d602081101561112357600080fd5b81019080805190602001909291905050509050919050565b60008060008060009054906101000a900473ffffffffffffffffffffffffffffffffffffffff1673ffffffffffffffffffffffffffffffffffffffff1614806111ad575060006111ab6000809054906101000a900473ffffffffffffffffffffffffffffffffffffffff166116dd565b145b156111be576111bc60006116e8565b505b6000809054906101000a900473ffffffffffffffffffffffffffffffffffffffff1673ffffffffffffffffffffffffffffffffffffffff166338cc48316040518163ffffffff167c0100000000000000000000000000000000000000000000000000000000028152600401602060405180830381600087803b15801561124357600080fd5b505af1158015611257573d6000803e3d6000fd5b505050506040513d602081101561126d57600080fd5b810190808051906020019092919050505073ffffffffffffffffffffffffffffffffffffffff16600160009054906101000a900473ffffffffffffffffffffffffffffffffffffffff1673ffffffffffffffffffffffffffffffffffffffff161415156113d5576000809054906101000a900473ffffffffffffffffffffffffffffffffffffffff1673ffffffffffffffffffffffffffffffffffffffff166338cc48316040518163ffffffff167c0100000000000000000000000000000000000000000000000000000000028152600401602060405180830381600087803b15801561135957600080fd5b505af115801561136d573d6000803e3d6000fd5b505050506040513d602081101561138357600080fd5b8101908080519060200190929190505050600160006101000a81548173ffffffffffffffffffffffffffffffffffffffff021916908373ffffffffffffffffffffffffffffffffffffffff1602179055505b600160009054906101000a900473ffffffffffffffffffffffffffffffffffffffff1673ffffffffffffffffffffffffffffffffffffffff1663524f3889856040518263ffffffff167c01000000000000000000000000000000000000000000000000000000000281526004018080602001828103825283818151815260200191508051906020019080838360005b8381101561147f578082015181840152602081019050611464565b50505050905090810190601f1680156114ac5780820380516001836020036101000a031916815260200191505b5092505050602060405180830381600087803b1580156114cb57600080fd5b505af11580156114df573d6000803e3d6000fd5b505050506040513d60208110156114f557600080fd5b8101908080519060200190929190505050905062030d403a02670de0b6b3a76400000181111561152b57600060010291506116d5565b600160009054906101000a900473ffffffffffffffffffffffffffffffffffffffff1673ffffffffffffffffffffffffffffffffffffffff1663adf59f99828787876040518563ffffffff167c0100000000000000000000000000000000000000000000000000000000028152600401808481526020018060200180602001838103835285818151815260200191508051906020019080838360005b838110156115e25780820151818401526020810190506115c7565b50505050905090810190601f16801561160f5780820380516001836020036101000a031916815260200191505b50838103825284818151815260200191508051906020019080838360005b8381101561164857808201518184015260208101905061162d565b50505050905090810190601f1680156116755780820380516001836020036101000a031916815260200191505b50955050505050506020604051808303818588803b15801561169657600080fd5b505af11580156116aa573d6000803e3d6000fd5b50505050506040513d60208110156116c157600080fd5b810190808051906020019092919050505091505b509392505050565b6000813b9050919050565b60006116f26119ed565b9050919050565b6000606060008060008693506000925060009150600090505b83518110156119ce5760307f010000000000000000000000000000000000000000000000000000000000000002848281518110151561174d57fe5b9060200101517f010000000000000000000000000000000000000000000000000000000000000090047f0100000000000000000000000000000000000000000000000000000000000000027effffffffffffffffffffffffffffffffffffffffffffffffffffffffffffff191610158015611865575060397f01000000000000000000000000000000000000000000000000000000000000000284828151811015156117f557fe5b9060200101517f010000000000000000000000000000000000000000000000000000000000000090047f0100000000000000000000000000000000000000000000000000000000000000027effffffffffffffffffffffffffffffffffffffffffffffffffffffffffffff191611155b1561191657811561188857600086141561187e576119ce565b8580600190039650505b600a830292506030848281518110151561189e57fe5b9060200101517f010000000000000000000000000000000000000000000000000000000000000090047f0100000000000000000000000000000000000000000000000000000000000000027f0100000000000000000000000000000000000000000000000000000000000000900403830192506119c1565b602e7f010000000000000000000000000000000000000000000000000000000000000002848281518110151561194857fe5b9060200101517f010000000000000000000000000000000000000000000000000000000000000090047f0100000000000000000000000000000000000000000000000000000000000000027effffffffffffffffffffffffffffffffffffffffffffffffffffffffffffff191614156119c057600191505b5b8080600101915050611712565b60008611156119e05785600a0a830292505b8294505050505092915050565b600080611a0d731d3b2638a7cc9f2cb3d298a3da7a90b67e5506ed6116dd565b1115611aae57731d3b2638a7cc9f2cb3d298a3da7a90b67e5506ed6000806101000a81548173ffffffffffffffffffffffffffffffffffffffff021916908373ffffffffffffffffffffffffffffffffffffffff160217905550611aa56040805190810160405280600b81526020017f6574685f6d61696e6e6574000000000000000000000000000000000000000000815250611e7c565b60019050611e79565b6000611acd73c03a2615d5efaf5f49f60b7bb6583eaec212fdf16116dd565b1115611b6e5773c03a2615d5efaf5f49f60b7bb6583eaec212fdf16000806101000a81548173ffffffffffffffffffffffffffffffffffffffff021916908373ffffffffffffffffffffffffffffffffffffffff160217905550611b656040805190810160405280600c81526020017f6574685f726f707374656e330000000000000000000000000000000000000000815250611e7c565b60019050611e79565b6000611b8d73b7a07bcf2ba2f2703b24c0691b5278999c59ac7e6116dd565b1115611c2e5773b7a07bcf2ba2f2703b24c0691b5278999c59ac7e6000806101000a81548173ffffffffffffffffffffffffffffffffffffffff021916908373ffffffffffffffffffffffffffffffffffffffff160217905550611c256040805190810160405280600981526020017f6574685f6b6f76616e0000000000000000000000000000000000000000000000815250611e7c565b60019050611e79565b6000611c4d73146500cfd35b22e4a392fe0adc06de1a1368ed486116dd565b1115611cee5773146500cfd35b22e4a392fe0adc06de1a1368ed486000806101000a81548173ffffffffffffffffffffffffffffffffffffffff021916908373ffffffffffffffffffffffffffffffffffffffff160217905550611ce56040805190810160405280600b81526020017f6574685f72696e6b656279000000000000000000000000000000000000000000815250611e7c565b60019050611e79565b6000611d0d736f485c8bf6fc43ea212e93bbf8ce046c7f1cb4756116dd565b1115611d7057736f485c8bf6fc43ea212e93bbf8ce046c7f1cb4756000806101000a81548173ffffffffffffffffffffffffffffffffffffffff021916908373ffffffffffffffffffffffffffffffffffffffff16021790555060019050611e79565b6000611d8f7320e12a1f859b3feae5fb2a0a32c18f5a65555bbf6116dd565b1115611df2577320e12a1f859b3feae5fb2a0a32c18f5a65555bbf6000806101000a81548173ffffffffffffffffffffffffffffffffffffffff021916908373ffffffffffffffffffffffffffffffffffffffff16021790555060019050611e79565b6000611e117351efaf4c8b3c9afbd5ab9f4bbc82784ab6ef8faa6116dd565b1115611e74577351efaf4c8b3c9afbd5ab9f4bbc82784ab6ef8faa6000806101000a81548173ffffffffffffffffffffffffffffffffffffffff021916908373ffffffffffffffffffffffffffffffffffffffff16021790555060019050611e79565b600090505b90565b8060029080519060200190611e92929190611e96565b5050565b828054600181600116156101000203166002900490600052602060002090601f016020900481019282601f10611ed757805160ff1916838001178555611f05565b82800160010185558215611f05579182015b82811115611f04578251825591602001919060010190611ee9565b5b509050611f129190611f16565b5090565b611f3891905b80821115611f34576000816000905550600101611f1c565b5090565b905600a165627a7a72305820213207555bce2ddb51d4966452ad89feec884b3c9ebc3e340338378de5a681750029",
  "source": "pragma solidity ^0.4.24;\nimport \"./Oraclize.sol\";\n\ncontract FetchPrice is usingOraclize {\n    event OraclizeLog(string _description, uint256 _time);\n    uint256 public ETH_PRICE = 0;\n    uint256 public oraclize_fee = 0;\n    uint256 public last_price_update = 0;\n    PRICE_CHECKING_STATUS public price_status;\n\n    enum PRICE_CHECKING_STATUS {\n        NEEDED, PENDING, FETCHED\n    }\n\n    constructor() public payable {\n\n    }\n\n    function getEthereumPrice() public view returns (uint) {\n        return ETH_PRICE;\n    }\n\n    function fetchOraclizeFee() public payable {\n        oraclize_fee = oraclize_getPrice(\"URL\");\n    }\n\n    function fetchEthereumPrice() public payable {\n        if (oraclize_getPrice(\"URL\") > address(this).balance) {\n            emit OraclizeLog(\"Oraclize query was NOT sent, please add some ETH to cover for the query fee\", now);\n        } else {\n            emit OraclizeLog(\"Oraclize query was sent, standing by for the answer..\", now);\n            oraclize_fee = oraclize_getPrice(\"URL\");\n            oraclize_query(0, \"URL\", \"json(https://min-api.cryptocompare.com/data/price?fsym=ETH&tsyms=USD).USD\");\n        }\n    }\n\n    function initEthereumPrice() public payable {\n        if (oraclize_getPrice(\"URL\") > address(this).balance) {\n            emit OraclizeLog(\"Oraclize query was NOT sent, please add some ETH to cover for the query fee\", now);\n        } else {\n            emit OraclizeLog(\"Oraclize query was sent, standing by for the answer..\", now);\n            oraclize_fee = oraclize_getPrice(\"URL\");\n            oraclize_query(15, \"URL\", \"json(https://min-api.cryptocompare.com/data/price?fsym=ETH&tsyms=USD).USD\");\n        }\n    }\n\n    function __callback(bytes32 myid, string result) {\n        if (msg.sender != oraclize_cbAddress()) revert();\n        ETH_PRICE = parseInt(result);\n        emit OraclizeLog(result, now);\n        last_price_update = now;\n        price_status = PRICE_CHECKING_STATUS.FETCHED;\n    }\n}",
  "sourcePath": "/Users/hassanjawhar/Desktop/Workspace/rawbot/contracts/FetchPrice.sol",
  "compiler": {
    "name": "solc",
    "version": "0.4.24+commit.e67f0147.Emscripten.clang"
  },
  "schemaVersion": "2.0.0",
  "updatedAt": "2018-08-02T09:32:19.994Z"
}