{
  "contractName": "Merchant",
  "abi": [
    {
      "constant": true,
      "inputs": [],
      "name": "RECURRING_PAYMENT_STEP",
      "outputs": [
        {
          "name": "",
          "type": "uint256"
        }
      ],
      "payable": false,
      "stateMutability": "view",
      "type": "function"
    },
    {
      "constant": false,
      "inputs": [
        {
          "name": "myid",
          "type": "bytes32"
        },
        {
          "name": "result",
          "type": "string"
        }
      ],
      "name": "__callback",
      "outputs": [],
      "payable": false,
      "stateMutability": "nonpayable",
      "type": "function"
    },
    {
      "constant": false,
      "inputs": [
        {
          "name": "myid",
          "type": "bytes32"
        },
        {
          "name": "result",
          "type": "string"
        },
        {
          "name": "proof",
          "type": "bytes"
        }
      ],
      "name": "__callback",
      "outputs": [],
      "payable": false,
      "stateMutability": "nonpayable",
      "type": "function"
    },
    {
      "constant": true,
      "inputs": [],
      "name": "rawbot_address",
      "outputs": [
        {
          "name": "",
          "type": "address"
        }
      ],
      "payable": false,
      "stateMutability": "view",
      "type": "function"
    },
    {
      "constant": true,
      "inputs": [],
      "name": "hash_index",
      "outputs": [
        {
          "name": "",
          "type": "uint256"
        }
      ],
      "payable": false,
      "stateMutability": "view",
      "type": "function"
    },
    {
      "constant": true,
      "inputs": [],
      "name": "devices_amount",
      "outputs": [
        {
          "name": "",
          "type": "uint256"
        }
      ],
      "payable": false,
      "stateMutability": "view",
      "type": "function"
    },
    {
      "inputs": [
        {
          "name": "_merchant_address",
          "type": "address"
        }
      ],
      "payable": true,
      "stateMutability": "payable",
      "type": "constructor"
    },
    {
      "anonymous": false,
      "inputs": [
        {
          "indexed": false,
          "name": "",
          "type": "uint256"
        },
        {
          "indexed": false,
          "name": "",
          "type": "uint256"
        },
        {
          "indexed": false,
          "name": "",
          "type": "uint256"
        },
        {
          "indexed": false,
          "name": "",
          "type": "uint256"
        }
      ],
      "name": "Refund",
      "type": "event"
    },
    {
      "anonymous": false,
      "inputs": [
        {
          "indexed": false,
          "name": "",
          "type": "uint256"
        },
        {
          "indexed": false,
          "name": "",
          "type": "uint256"
        },
        {
          "indexed": false,
          "name": "",
          "type": "uint256"
        },
        {
          "indexed": false,
          "name": "",
          "type": "uint256"
        }
      ],
      "name": "RefundAutomatic",
      "type": "event"
    },
    {
      "anonymous": false,
      "inputs": [
        {
          "indexed": false,
          "name": "",
          "type": "string"
        }
      ],
      "name": "RecurringPaymentLog",
      "type": "event"
    },
    {
      "anonymous": false,
      "inputs": [
        {
          "indexed": false,
          "name": "",
          "type": "string"
        },
        {
          "indexed": false,
          "name": "",
          "type": "string"
        },
        {
          "indexed": false,
          "name": "",
          "type": "bool"
        }
      ],
      "name": "DeviceAdd",
      "type": "event"
    },
    {
      "anonymous": false,
      "inputs": [
        {
          "indexed": false,
          "name": "",
          "type": "string"
        },
        {
          "indexed": false,
          "name": "",
          "type": "uint256"
        },
        {
          "indexed": false,
          "name": "",
          "type": "string"
        },
        {
          "indexed": false,
          "name": "",
          "type": "uint256"
        },
        {
          "indexed": false,
          "name": "",
          "type": "uint256"
        },
        {
          "indexed": false,
          "name": "",
          "type": "bool"
        },
        {
          "indexed": false,
          "name": "",
          "type": "bool"
        }
      ],
      "name": "ActionAdd",
      "type": "event"
    },
    {
      "anonymous": false,
      "inputs": [
        {
          "indexed": false,
          "name": "",
          "type": "string"
        },
        {
          "indexed": false,
          "name": "",
          "type": "uint256"
        },
        {
          "indexed": false,
          "name": "",
          "type": "string"
        },
        {
          "indexed": false,
          "name": "",
          "type": "uint256"
        },
        {
          "indexed": false,
          "name": "",
          "type": "uint256"
        },
        {
          "indexed": false,
          "name": "",
          "type": "bool"
        }
      ],
      "name": "ActionEnable",
      "type": "event"
    },
    {
      "anonymous": false,
      "inputs": [
        {
          "indexed": false,
          "name": "",
          "type": "string"
        },
        {
          "indexed": false,
          "name": "",
          "type": "uint256"
        },
        {
          "indexed": false,
          "name": "",
          "type": "string"
        },
        {
          "indexed": false,
          "name": "",
          "type": "uint256"
        },
        {
          "indexed": false,
          "name": "",
          "type": "uint256"
        },
        {
          "indexed": false,
          "name": "",
          "type": "bool"
        }
      ],
      "name": "ActionDisable",
      "type": "event"
    },
    {
      "anonymous": false,
      "inputs": [
        {
          "indexed": false,
          "name": "",
          "type": "uint256"
        },
        {
          "indexed": false,
          "name": "",
          "type": "string"
        }
      ],
      "name": "AddIPFSHash",
      "type": "event"
    },
    {
      "constant": false,
      "inputs": [
        {
          "name": "device_serial_number",
          "type": "string"
        },
        {
          "name": "device_name",
          "type": "string"
        }
      ],
      "name": "addDevice",
      "outputs": [
        {
          "name": "",
          "type": "bool"
        }
      ],
      "payable": true,
      "stateMutability": "payable",
      "type": "function"
    },
    {
      "constant": false,
      "inputs": [
        {
          "name": "device_serial_number",
          "type": "string"
        },
        {
          "name": "action_name",
          "type": "string"
        },
        {
          "name": "action_price",
          "type": "uint256"
        },
        {
          "name": "action_duration",
          "type": "uint256"
        },
        {
          "name": "recurrent",
          "type": "bool"
        },
        {
          "name": "refundable",
          "type": "bool"
        }
      ],
      "name": "addAction",
      "outputs": [
        {
          "name": "",
          "type": "bool"
        }
      ],
      "payable": true,
      "stateMutability": "payable",
      "type": "function"
    },
    {
      "constant": false,
      "inputs": [
        {
          "name": "device_serial_number",
          "type": "string"
        },
        {
          "name": "action_id",
          "type": "uint256"
        }
      ],
      "name": "enableAction",
      "outputs": [
        {
          "name": "success",
          "type": "bool"
        }
      ],
      "payable": true,
      "stateMutability": "payable",
      "type": "function"
    },
    {
      "constant": false,
      "inputs": [
        {
          "name": "device_serial_number",
          "type": "string"
        },
        {
          "name": "action_id",
          "type": "uint256"
        }
      ],
      "name": "disableAction",
      "outputs": [
        {
          "name": "success",
          "type": "bool"
        }
      ],
      "payable": true,
      "stateMutability": "payable",
      "type": "function"
    },
    {
      "constant": false,
      "inputs": [
        {
          "name": "device_serial_number",
          "type": "string"
        },
        {
          "name": "action_id",
          "type": "uint256"
        },
        {
          "name": "_action_history_id",
          "type": "uint256"
        }
      ],
      "name": "refund",
      "outputs": [
        {
          "name": "",
          "type": "bool"
        }
      ],
      "payable": true,
      "stateMutability": "payable",
      "type": "function"
    },
    {
      "constant": false,
      "inputs": [
        {
          "name": "device_serial_number",
          "type": "string"
        },
        {
          "name": "action_id",
          "type": "uint256"
        },
        {
          "name": "_action_history_id",
          "type": "uint256"
        }
      ],
      "name": "refundAutomatic",
      "outputs": [
        {
          "name": "success",
          "type": "bool"
        }
      ],
      "payable": true,
      "stateMutability": "payable",
      "type": "function"
    },
    {
      "constant": true,
      "inputs": [
        {
          "name": "device_serial_number",
          "type": "string"
        },
        {
          "name": "action_id",
          "type": "uint256"
        }
      ],
      "name": "getActionPrice",
      "outputs": [
        {
          "name": "",
          "type": "uint256"
        }
      ],
      "payable": false,
      "stateMutability": "view",
      "type": "function"
    },
    {
      "constant": true,
      "inputs": [
        {
          "name": "device_serial_number",
          "type": "string"
        },
        {
          "name": "action_id",
          "type": "uint256"
        }
      ],
      "name": "isRefundable",
      "outputs": [
        {
          "name": "",
          "type": "bool"
        }
      ],
      "payable": false,
      "stateMutability": "view",
      "type": "function"
    },
    {
      "constant": true,
      "inputs": [],
      "name": "getMerchantAddress",
      "outputs": [
        {
          "name": "",
          "type": "address"
        }
      ],
      "payable": false,
      "stateMutability": "view",
      "type": "function"
    },
    {
      "constant": false,
      "inputs": [
        {
          "name": "device_address",
          "type": "address"
        },
        {
          "name": "value",
          "type": "uint256"
        }
      ],
      "name": "withdrawFromDevice",
      "outputs": [
        {
          "name": "success",
          "type": "bool"
        }
      ],
      "payable": true,
      "stateMutability": "payable",
      "type": "function"
    },
    {
      "constant": true,
      "inputs": [
        {
          "name": "_address",
          "type": "address"
        }
      ],
      "name": "getUserBalance",
      "outputs": [
        {
          "name": "",
          "type": "uint256"
        }
      ],
      "payable": false,
      "stateMutability": "view",
      "type": "function"
    },
    {
      "constant": false,
      "inputs": [
        {
          "name": "_hash",
          "type": "string"
        }
      ],
      "name": "addImageHash",
      "outputs": [],
      "payable": false,
      "stateMutability": "nonpayable",
      "type": "function"
    }
  ],
  "bytecode": "0x6080604052600060075560006008556000600d556040516020806146e08339810180604052810190808051906020019092919050505080600660006101000a81548173ffffffffffffffffffffffffffffffffffffffff021916908373ffffffffffffffffffffffffffffffffffffffff160217905550735238527616882251df1ae2c5353dc6cf0a515fdc600560006101000a81548173ffffffffffffffffffffffffffffffffffffffff021916908373ffffffffffffffffffffffffffffffffffffffff16021790555050614605806100db6000396000f3006080604052600436106100fb576000357c0100000000000000000000000000000000000000000000000000000000900463ffffffff168062cfb6e5146101005780630d855f6e1461012b5780631b7e72481461021157806327dc297e1461029857806338bbfa501461030f57806347734892146103cc57806347da0a981461042357806366cfce42146104a15780636ef3027b146104f85780637460a646146105615780637543db1e1461058c578063757d713f146105e4578063a1cc0e711461066c578063a3eb6e5b146106f7578063b85d82611461074e578063cc082a8914610808578063defc309814610890578063ed32de2b1461090e575b600080fd5b34801561010c57600080fd5b50610115610939565b6040518082815260200191505060405180910390f35b6101f7600480360381019080803590602001908201803590602001908080601f0160208091040260200160405190810160405280939291908181526020018383808284378201915050505050509192919290803590602001908201803590602001908080601f0160208091040260200160405190810160405280939291908181526020018383808284378201915050505050509192919290803590602001909291908035906020019092919080351515906020019092919080351515906020019092919050505061093f565b604051808215151515815260200191505060405180910390f35b34801561021d57600080fd5b50610282600480360381019080803590602001908201803590602001908080601f016020809104026020016040519081016040528093929190818152602001838380828437820191505050505050919291929080359060200190929190505050610dfa565b6040518082815260200191505060405180910390f35b3480156102a457600080fd5b5061030d6004803603810190808035600019169060200190929190803590602001908201803590602001908080601f0160208091040260200160405190810160405280939291908181526020018383808284378201915050505050509192919290505050610e91565b005b34801561031b57600080fd5b506103ca6004803603810190808035600019169060200190929190803590602001908201803590602001908080601f0160208091040260200160405190810160405280939291908181526020018383808284378201915050505050509192919290803590602001908201803590602001908080601f0160208091040260200160405190810160405280939291908181526020018383808284378201915050505050509192919290505050610ed4565b005b3480156103d857600080fd5b5061040d600480360381019080803573ffffffffffffffffffffffffffffffffffffffff169060200190929190505050610ed9565b6040518082815260200191505060405180910390f35b610487600480360381019080803590602001908201803590602001908080601f016020809104026020016040519081016040528093929190818152602001838380828437820191505050505050919291929080359060200190929190505050610fda565b604051808215151515815260200191505060405180910390f35b3480156104ad57600080fd5b506104b6611675565b604051808273ffffffffffffffffffffffffffffffffffffffff1673ffffffffffffffffffffffffffffffffffffffff16815260200191505060405180910390f35b34801561050457600080fd5b5061055f600480360381019080803590602001908201803590602001908080601f016020809104026020016040519081016040528093929190818152602001838380828437820191505050505050919291929050505061168d565b005b34801561056d57600080fd5b50610576611772565b6040518082815260200191505060405180910390f35b6105ca600480360381019080803573ffffffffffffffffffffffffffffffffffffffff16906020019092919080359060200190929190505050611778565b604051808215151515815260200191505060405180910390f35b610652600480360381019080803590602001908201803590602001908080601f01602080910402602001604051908101604052809392919081815260200183838082843782019150505050505091929192908035906020019092919080359060200190929190505050611aeb565b604051808215151515815260200191505060405180910390f35b34801561067857600080fd5b506106dd600480360381019080803590602001908201803590602001908080601f016020809104026020016040519081016040528093929190818152602001838380828437820191505050505050919291929080359060200190929190505050611f60565b604051808215151515815260200191505060405180910390f35b34801561070357600080fd5b5061070c612004565b604051808273ffffffffffffffffffffffffffffffffffffffff1673ffffffffffffffffffffffffffffffffffffffff16815260200191505060405180910390f35b6107ee600480360381019080803590602001908201803590602001908080601f0160208091040260200160405190810160405280939291908181526020018383808284378201915050505050509192919290803590602001908201803590602001908080601f016020809104026020016040519081016040528093929190818152602001838380828437820191505050505050919291929050505061202e565b604051808215151515815260200191505060405180910390f35b610876600480360381019080803590602001908201803590602001908080601f01602080910402602001604051908101604052809392919081815260200183838082843782019150505050505091929192908035906020019092919080359060200190929190505050612377565b604051808215151515815260200191505060405180910390f35b6108f4600480360381019080803590602001908201803590602001908080601f0160208091040260200160405190810160405280939291908181526020018383808284378201915050505050509192919290803590602001909291905050506128b3565b604051808215151515815260200191505060405180910390f35b34801561091a57600080fd5b50610923613677565b6040518082815260200191505060405180910390f35b600d5481565b600060011515600a886040518082805190602001908083835b60208310151561097d5780518252602082019150602081019050602083039250610958565b6001836020036101000a038019825116818451168082178552505050505050905001915050908152602001604051809103902060020160009054906101000a900460ff161515141515610a5e576040517f08c379a00000000000000000000000000000000000000000000000000000000081526004018080602001828103825260258152602001807f4465766963652073657269616c206e756d626572206973206e6f74206176616981526020017f6c61626c6500000000000000000000000000000000000000000000000000000081525060400191505060405180910390fd5b600a876040518082805190602001908083835b602083101515610a965780518252602082019150602081019050602083039250610a71565b6001836020036101000a038019825116818451168082178552505050505050905001915050908152602001604051809103902060010160e060405190810160405280600a8a6040518082805190602001908083835b602083101515610b105780518252602082019150602081019050602083039250610aeb565b6001836020036101000a0380198251168184511680821785525050505050509050019150509081526020016040518091039020600101805490508152602001888152602001878152602001868152602001851515815260200184151581526020016001151581525090806001815401808255809150509060018203906000526020600020906005020160009091929091909150600082015181600001556020820151816001019080519060200190610bc99291906144b4565b50604082015181600201556060820151816003015560808201518160040160006101000a81548160ff02191690831515021790555060a08201518160040160016101000a81548160ff02191690831515021790555060c08201518160040160026101000a81548160ff0219169083151502179055505050507fab7af84a14131a8d124961d4f462f1fb7e82b562aba899a3f28200031563b3e687600a896040518082805190602001908083835b602083101515610c9b5780518252602082019150602081019050602083039250610c76565b6001836020036101000a038019825116818451168082178552505050505050905001915050908152602001604051809103902060010180549050888888876001604051808060200188815260200180602001878152602001868152602001851515151581526020018415151515815260200183810383528a818151815260200191508051906020019080838360005b83811015610d45578082015181840152602081019050610d2a565b50505050905090810190601f168015610d725780820380516001836020036101000a031916815260200191505b50838103825288818151815260200191508051906020019080838360005b83811015610dab578082015181840152602081019050610d90565b50505050905090810190601f168015610dd85780820380516001836020036101000a031916815260200191505b50995050505050505050505060405180910390a1600190509695505050505050565b6000600a836040518082805190602001908083835b602083101515610e345780518252602082019150602081019050602083039250610e0f565b6001836020036101000a038019825116818451168082178552505050505050905001915050908152602001604051809103902060010182815481101515610e7757fe5b906000526020600020906005020160020154905092915050565b610ed0828260006040519080825280601f01601f191660200182016040528015610eca5781602001602082028038833980820191505090505b50610ed4565b5050565b505050565b6000600560009054906101000a900473ffffffffffffffffffffffffffffffffffffffff1673ffffffffffffffffffffffffffffffffffffffff1663f8b2cb4f836040518263ffffffff167c0100000000000000000000000000000000000000000000000000000000028152600401808273ffffffffffffffffffffffffffffffffffffffff1673ffffffffffffffffffffffffffffffffffffffff168152602001915050602060405180830381600087803b158015610f9857600080fd5b505af1158015610fac573d6000803e3d6000fd5b505050506040513d6020811015610fc257600080fd5b81019080805190602001909291905050509050919050565b600060011515600a846040518082805190602001908083835b6020831015156110185780518252602082019150602081019050602083039250610ff3565b6001836020036101000a038019825116818451168082178552505050505050905001915050908152602001604051809103902060020160009054906101000a900460ff1615151415156110f9576040517f08c379a00000000000000000000000000000000000000000000000000000000081526004018080602001828103825260258152602001807f4465766963652073657269616c206e756d626572206973206e6f74206176616981526020017f6c61626c6500000000000000000000000000000000000000000000000000000081525060400191505060405180910390fd5b60011515600a846040518082805190602001908083835b6020831015156111355780518252602082019150602081019050602083039250611110565b6001836020036101000a03801982511681845116808217855250505050505090500191505090815260200160405180910390206001018381548110151561117857fe5b906000526020600020906005020160040160029054906101000a900460ff161515141515611234576040517f08c379a00000000000000000000000000000000000000000000000000000000081526004018080602001828103825260218152602001807f44657669636520616374696f6e206964206973206e6f7420617661696c61626c81526020017f650000000000000000000000000000000000000000000000000000000000000081525060400191505060405180910390fd5b600b600083815260200190815260200160002060c0604051908101604052803373ffffffffffffffffffffffffffffffffffffffff168152602001848152602001428152602001600015158152602001600015158152602001600115158152509080600181540180825580915050906001820390600052602060002090600402016000909192909190915060008201518160000160006101000a81548173ffffffffffffffffffffffffffffffffffffffff021916908373ffffffffffffffffffffffffffffffffffffffff160217905550602082015181600101556040820151816002015560608201518160030160006101000a81548160ff02191690831515021790555060808201518160030160016101000a81548160ff02191690831515021790555060a08201518160030160026101000a81548160ff0219169083151502179055505050507f54376985c61133fd74ddfd5be0e7cacfebc5ee2b28b59fff7642086996680be48383600a866040518082805190602001908083835b6020831015156113d857805182526020820191506020810190506020830392506113b3565b6001836020036101000a03801982511681845116808217855250505050505090500191505090815260200160405180910390206001018581548110151561141b57fe5b9060005260206000209060050201600101600a876040518082805190602001908083835b602083101515611464578051825260208201915060208101905060208303925061143f565b6001836020036101000a0380198251168184511680821785525050505050509050019150509081526020016040518091039020600101868154811015156114a757fe5b906000526020600020906005020160020154600a886040518082805190602001908083835b6020831015156114f157805182526020820191506020810190506020830392506114cc565b6001836020036101000a03801982511681845116808217855250505050505090500191505090815260200160405180910390206001018781548110151561153457fe5b906000526020600020906005020160030154600160405180806020018781526020018060200186815260200185815260200184151515158152602001838103835289818151815260200191508051906020019080838360005b838110156115a857808201518184015260208101905061158d565b50505050905090810190601f1680156115d55780820380516001836020036101000a031916815260200191505b508381038252878181546001816001161561010002031660029004815260200191508054600181600116156101000203166002900480156116575780601f1061162c57610100808354040283529160200191611657565b820191906000526020600020905b81548152906001019060200180831161163a57829003601f168201915b50509850505050505050505060405180910390a16001905092915050565b735238527616882251df1ae2c5353dc6cf0a515fdc81565b8060096000600754815260200190815260200160002090805190602001906116b6929190614534565b507f194eca99f82bff3034def8c3fc7fab887bd83660b1f0ef3a0f4f909bf5a19ac0600754826040518083815260200180602001828103825283818151815260200191508051906020019080838360005b83811015611722578082015181840152602081019050611707565b50505050905090810190601f16801561174f5780820380516001836020036101000a031916815260200191505b50935050505060405180910390a160076000815480929190600101919050555050565b60075481565b60003373ffffffffffffffffffffffffffffffffffffffff16600660009054906101000a900473ffffffffffffffffffffffffffffffffffffffff1673ffffffffffffffffffffffffffffffffffffffff161415156117d657600080fd5b81600560009054906101000a900473ffffffffffffffffffffffffffffffffffffffff1673ffffffffffffffffffffffffffffffffffffffff1663f8b2cb4f856040518263ffffffff167c0100000000000000000000000000000000000000000000000000000000028152600401808273ffffffffffffffffffffffffffffffffffffffff1673ffffffffffffffffffffffffffffffffffffffff168152602001915050602060405180830381600087803b15801561189457600080fd5b505af11580156118a8573d6000803e3d6000fd5b505050506040513d60208110156118be57600080fd5b8101908080519060200190929190505050101515156118dc57600080fd5b600560009054906101000a900473ffffffffffffffffffffffffffffffffffffffff1673ffffffffffffffffffffffffffffffffffffffff1663250dea0684846000036040518363ffffffff167c0100000000000000000000000000000000000000000000000000000000028152600401808373ffffffffffffffffffffffffffffffffffffffff1673ffffffffffffffffffffffffffffffffffffffff16815260200182815260200192505050602060405180830381600087803b1580156119a457600080fd5b505af11580156119b8573d6000803e3d6000fd5b505050506040513d60208110156119ce57600080fd5b810190808051906020019092919050505050600560009054906101000a900473ffffffffffffffffffffffffffffffffffffffff1673ffffffffffffffffffffffffffffffffffffffff1663250dea0633846040518363ffffffff167c0100000000000000000000000000000000000000000000000000000000028152600401808373ffffffffffffffffffffffffffffffffffffffff1673ffffffffffffffffffffffffffffffffffffffff16815260200182815260200192505050602060405180830381600087803b158015611aa557600080fd5b505af1158015611ab9573d6000803e3d6000fd5b505050506040513d6020811015611acf57600080fd5b8101908080519060200190929190505050506001905092915050565b60008060011515600a866040518082805190602001908083835b602083101515611b2a5780518252602082019150602081019050602083039250611b05565b6001836020036101000a038019825116818451168082178552505050505050905001915050908152602001604051809103902060020160009054906101000a900460ff161515141515611b7c57600080fd5b60011515600a866040518082805190602001908083835b602083101515611bb85780518252602082019150602081019050602083039250611b93565b6001836020036101000a038019825116818451168082178552505050505050905001915050908152602001604051809103902060010185815481101515611bfb57fe5b906000526020600020906005020160040160029054906101000a900460ff161515141515611c2857600080fd5b60011515600a866040518082805190602001908083835b602083101515611c645780518252602082019150602081019050602083039250611c3f565b6001836020036101000a038019825116818451168082178552505050505050905001915050908152602001604051809103902060010185815481101515611ca757fe5b906000526020600020906005020160040160019054906101000a900460ff161515141515611cd457600080fd5b60011515600b600086815260200190815260200160002084815481101515611cf857fe5b906000526020600020906004020160030160029054906101000a900460ff161515141515611d2557600080fd5b83600b600086815260200190815260200160002084815481101515611d4657fe5b906000526020600020906004020160010154141515611d6457600080fd5b60001515600b600086815260200190815260200160002084815481101515611d8857fe5b906000526020600020906004020160030160019054906101000a900460ff161515141515611db557600080fd5b600a856040518082805190602001908083835b602083101515611ded5780518252602082019150602081019050602083039250611dc8565b6001836020036101000a038019825116818451168082178552505050505050905001915050908152602001604051809103902060010184815481101515611e3057fe5b906000526020600020906005020160030154600b600086815260200190815260200160002084815481101515611e6257fe5b90600052602060002090600402016002015401420390507fff0f80a21f0b8ffece1482bb76715974416021bd0b68a528dfcd29421cd67dd48484600a886040518082805190602001908083835b602083101515611ed45780518252602082019150602081019050602083039250611eaf565b6001836020036101000a038019825116818451168082178552505050505050905001915050908152602001604051809103902060010187815481101515611f1757fe5b906000526020600020906005020160020154426040518085815260200184815260200183815260200182815260200194505050505060405180910390a160019150509392505050565b6000600a836040518082805190602001908083835b602083101515611f9a5780518252602082019150602081019050602083039250611f75565b6001836020036101000a038019825116818451168082178552505050505050905001915050908152602001604051809103902060010182815481101515611fdd57fe5b906000526020600020906005020160040160019054906101000a900460ff16905092915050565b6000600660009054906101000a900473ffffffffffffffffffffffffffffffffffffffff16905090565b6000801515600a846040518082805190602001908083835b60208310151561206b5780518252602082019150602081019050602083039250612046565b6001836020036101000a038019825116818451168082178552505050505050905001915050908152602001604051809103902060020160009054906101000a900460ff1615151415156120bd57600080fd5b81600a846040518082805190602001908083835b6020831015156120f657805182526020820191506020810190506020830392506120d1565b6001836020036101000a0380198251168184511680821785525050505050509050019150509081526020016040518091039020600001908051906020019061213f929190614534565b506001600a846040518082805190602001908083835b60208310151561217a5780518252602082019150602081019050602083039250612155565b6001836020036101000a038019825116818451168082178552505050505050905001915050908152602001604051809103902060020160006101000a81548160ff021916908315150217905550600e839080600181540180825580915050906001820390600052602060002001600090919290919091509080519060200190612204929190614534565b5050600f829080600181540180825580915050906001820390600052602060002001600090919290919091509080519060200190612243929190614534565b50507f84da8c942e3478a5498fd682b4767ba146f2c826584690a6a1958d7c3e46e2098383600160405180806020018060200184151515158152602001838103835286818151815260200191508051906020019080838360005b838110156122b857808201518184015260208101905061229d565b50505050905090810190601f1680156122e55780820380516001836020036101000a031916815260200191505b50838103825285818151815260200191508051906020019080838360005b8381101561231e578082015181840152602081019050612303565b50505050905090810190601f16801561234b5780820380516001836020036101000a031916815260200191505b509550505050505060405180910390a16008600081548092919060010191905055506001905092915050565b600060011515600a856040518082805190602001908083835b6020831015156123b55780518252602082019150602081019050602083039250612390565b6001836020036101000a038019825116818451168082178552505050505050905001915050908152602001604051809103902060020160009054906101000a900460ff16151514151561240757600080fd5b60011515600a856040518082805190602001908083835b602083101515612443578051825260208201915060208101905060208303925061241e565b6001836020036101000a03801982511681845116808217855250505050505090500191505090815260200160405180910390206001018481548110151561248657fe5b906000526020600020906005020160040160029054906101000a900460ff1615151415156124b357600080fd5b60011515600a856040518082805190602001908083835b6020831015156124ef57805182526020820191506020810190506020830392506124ca565b6001836020036101000a03801982511681845116808217855250505050505090500191505090815260200160405180910390206001018481548110151561253257fe5b906000526020600020906005020160040160019054906101000a900460ff16151514151561255f57600080fd5b60011515600b60008581526020019081526020016000208381548110151561258357fe5b906000526020600020906004020160030160029054906101000a900460ff1615151415156125b057600080fd5b82600b6000858152602001908152602001600020838154811015156125d157fe5b9060005260206000209060040201600101541415156125ef57600080fd5b60001515600b60008581526020019081526020016000208381548110151561261357fe5b906000526020600020906004020160030160019054906101000a900460ff16151514151561264057600080fd5b600560009054906101000a900473ffffffffffffffffffffffffffffffffffffffff1673ffffffffffffffffffffffffffffffffffffffff1663250dea0633600a876040518082805190602001908083835b6020831015156126b75780518252602082019150602081019050602083039250612692565b6001836020036101000a0380198251168184511680821785525050505050509050019150509081526020016040518091039020600101868154811015156126fa57fe5b9060005260206000209060050201600201546040518363ffffffff167c0100000000000000000000000000000000000000000000000000000000028152600401808373ffffffffffffffffffffffffffffffffffffffff1673ffffffffffffffffffffffffffffffffffffffff16815260200182815260200192505050602060405180830381600087803b15801561279157600080fd5b505af11580156127a5573d6000803e3d6000fd5b505050506040513d60208110156127bb57600080fd5b8101908080519060200190929190505050507f08962bc8e69e48f301d776a9cbc9ea37df6c12e29b411692176848df7ced36d78383600a876040518082805190602001908083835b6020831015156128285780518252602082019150602081019050602083039250612803565b6001836020036101000a03801982511681845116808217855250505050505090500191505090815260200160405180910390206001018681548110151561286b57fe5b906000526020600020906005020160020154426040518085815260200184815260200183815260200182815260200194505050505060405180910390a1600190509392505050565b600060011515600a846040518082805190602001908083835b6020831015156128f157805182526020820191506020810190506020830392506128cc565b6001836020036101000a038019825116818451168082178552505050505050905001915050908152602001604051809103902060020160009054906101000a900460ff1615151415156129d2576040517f08c379a00000000000000000000000000000000000000000000000000000000081526004018080602001828103825260258152602001807f4465766963652073657269616c206e756d626572206973206e6f74206176616981526020017f6c61626c6500000000000000000000000000000000000000000000000000000081525060400191505060405180910390fd5b60011515600a846040518082805190602001908083835b602083101515612a0e57805182526020820191506020810190506020830392506129e9565b6001836020036101000a038019825116818451168082178552505050505050905001915050908152602001604051809103902060010183815481101515612a5157fe5b906000526020600020906005020160040160029054906101000a900460ff161515141515612b0d576040517f08c379a00000000000000000000000000000000000000000000000000000000081526004018080602001828103825260218152602001807f44657669636520616374696f6e206964206973206e6f7420617661696c61626c81526020017f650000000000000000000000000000000000000000000000000000000000000081525060400191505060405180910390fd5b600a836040518082805190602001908083835b602083101515612b455780518252602082019150602081019050602083039250612b20565b6001836020036101000a038019825116818451168082178552505050505050905001915050908152602001604051809103902060010182815481101515612b8857fe5b906000526020600020906005020160020154600560009054906101000a900473ffffffffffffffffffffffffffffffffffffffff1673ffffffffffffffffffffffffffffffffffffffff1663f8b2cb4f336040518263ffffffff167c0100000000000000000000000000000000000000000000000000000000028152600401808273ffffffffffffffffffffffffffffffffffffffff1673ffffffffffffffffffffffffffffffffffffffff168152602001915050602060405180830381600087803b158015612c5757600080fd5b505af1158015612c6b573d6000803e3d6000fd5b505050506040513d6020811015612c8157600080fd5b810190808051906020019092919050505010151515612d08576040517f08c379a00000000000000000000000000000000000000000000000000000000081526004018080602001828103825260208152602001807f5573657220646f65736e2774206861766520656e6f7567682062616c616e636581525060200191505060405180910390fd5b60011515600a846040518082805190602001908083835b602083101515612d445780518252602082019150602081019050602083039250612d1f565b6001836020036101000a038019825116818451168082178552505050505050905001915050908152602001604051809103902060010183815481101515612d8757fe5b906000526020600020906005020160040160009054906101000a900460ff1615151415612ef5573073ffffffffffffffffffffffffffffffffffffffff1631612e046040805190810160405280600381526020017f55524c000000000000000000000000000000000000000000000000000000000081525061367d565b1115612e135760009050613671565b612eef600a846040518082805190602001908083835b602083101515612e4e5780518252602082019150602081019050602083039250612e29565b6001836020036101000a038019825116818451168082178552505050505050905001915050908152602001604051809103902060010183815481101515612e9157fe5b9060005260206000209060050201600301546040805190810160405280600381526020017f55524c00000000000000000000000000000000000000000000000000000000008152506020604051908101604052806000815250613a4d565b50612ef6565b5b600b600083815260200190815260200160002060c0604051908101604052803373ffffffffffffffffffffffffffffffffffffffff168152602001848152602001428152602001600115158152602001600015158152602001600115158152509080600181540180825580915050906001820390600052602060002090600402016000909192909190915060008201518160000160006101000a81548173ffffffffffffffffffffffffffffffffffffffff021916908373ffffffffffffffffffffffffffffffffffffffff160217905550602082015181600101556040820151816002015560608201518160030160006101000a81548160ff02191690831515021790555060808201518160030160016101000a81548160ff02191690831515021790555060a08201518160030160026101000a81548160ff021916908315150217905550505050600560009054906101000a900473ffffffffffffffffffffffffffffffffffffffff1673ffffffffffffffffffffffffffffffffffffffff1663250dea0633600a866040518082805190602001908083835b6020831015156130b65780518252602082019150602081019050602083039250613091565b6001836020036101000a0380198251168184511680821785525050505050509050019150509081526020016040518091039020600101858154811015156130f957fe5b9060005260206000209060050201600201546000036040518363ffffffff167c0100000000000000000000000000000000000000000000000000000000028152600401808373ffffffffffffffffffffffffffffffffffffffff1673ffffffffffffffffffffffffffffffffffffffff16815260200182815260200192505050602060405180830381600087803b15801561319357600080fd5b505af11580156131a7573d6000803e3d6000fd5b505050506040513d60208110156131bd57600080fd5b810190808051906020019092919050505050600560009054906101000a900473ffffffffffffffffffffffffffffffffffffffff1673ffffffffffffffffffffffffffffffffffffffff1663250dea06600660009054906101000a900473ffffffffffffffffffffffffffffffffffffffff16600a866040518082805190602001908083835b6020831015156132685780518252602082019150602081019050602083039250613243565b6001836020036101000a0380198251168184511680821785525050505050509050019150509081526020016040518091039020600101858154811015156132ab57fe5b9060005260206000209060050201600201546040518363ffffffff167c0100000000000000000000000000000000000000000000000000000000028152600401808373ffffffffffffffffffffffffffffffffffffffff1673ffffffffffffffffffffffffffffffffffffffff16815260200182815260200192505050602060405180830381600087803b15801561334257600080fd5b505af1158015613356573d6000803e3d6000fd5b505050506040513d602081101561336c57600080fd5b8101908080519060200190929190505050507f875b40a67d33b0171b10d7197a7c57cc4a8a03020e69c119753e83c0779064078383600a866040518082805190602001908083835b6020831015156133d957805182526020820191506020810190506020830392506133b4565b6001836020036101000a03801982511681845116808217855250505050505090500191505090815260200160405180910390206001018581548110151561341c57fe5b9060005260206000209060050201600101600a876040518082805190602001908083835b6020831015156134655780518252602082019150602081019050602083039250613440565b6001836020036101000a0380198251168184511680821785525050505050509050019150509081526020016040518091039020600101868154811015156134a857fe5b906000526020600020906005020160020154600a886040518082805190602001908083835b6020831015156134f257805182526020820191506020810190506020830392506134cd565b6001836020036101000a03801982511681845116808217855250505050505090500191505090815260200160405180910390206001018781548110151561353557fe5b906000526020600020906005020160030154600160405180806020018781526020018060200186815260200185815260200184151515158152602001838103835289818151815260200191508051906020019080838360005b838110156135a957808201518184015260208101905061358e565b50505050905090810190601f1680156135d65780820380516001836020036101000a031916815260200191505b508381038252878181546001816001161561010002031660029004815260200191508054600181600116156101000203166002900480156136585780601f1061362d57610100808354040283529160200191613658565b820191906000526020600020905b81548152906001019060200180831161363b57829003601f168201915b50509850505050505050505060405180910390a1600190505b92915050565b60085481565b6000806000809054906101000a900473ffffffffffffffffffffffffffffffffffffffff1673ffffffffffffffffffffffffffffffffffffffff1614806136ed575060006136eb6000809054906101000a900473ffffffffffffffffffffffffffffffffffffffff16613fef565b145b156136fe576136fc6000613ffa565b505b6000809054906101000a900473ffffffffffffffffffffffffffffffffffffffff1673ffffffffffffffffffffffffffffffffffffffff166338cc48316040518163ffffffff167c0100000000000000000000000000000000000000000000000000000000028152600401602060405180830381600087803b15801561378357600080fd5b505af1158015613797573d6000803e3d6000fd5b505050506040513d60208110156137ad57600080fd5b810190808051906020019092919050505073ffffffffffffffffffffffffffffffffffffffff16600160009054906101000a900473ffffffffffffffffffffffffffffffffffffffff1673ffffffffffffffffffffffffffffffffffffffff16141515613915576000809054906101000a900473ffffffffffffffffffffffffffffffffffffffff1673ffffffffffffffffffffffffffffffffffffffff166338cc48316040518163ffffffff167c0100000000000000000000000000000000000000000000000000000000028152600401602060405180830381600087803b15801561389957600080fd5b505af11580156138ad573d6000803e3d6000fd5b505050506040513d60208110156138c357600080fd5b8101908080519060200190929190505050600160006101000a81548173ffffffffffffffffffffffffffffffffffffffff021916908373ffffffffffffffffffffffffffffffffffffffff1602179055505b600160009054906101000a900473ffffffffffffffffffffffffffffffffffffffff1673ffffffffffffffffffffffffffffffffffffffff1663524f3889836040518263ffffffff167c01000000000000000000000000000000000000000000000000000000000281526004018080602001828103825283818151815260200191508051906020019080838360005b838110156139bf5780820151818401526020810190506139a4565b50505050905090810190601f1680156139ec5780820380516001836020036101000a031916815260200191505b5092505050602060405180830381600087803b158015613a0b57600080fd5b505af1158015613a1f573d6000803e3d6000fd5b505050506040513d6020811015613a3557600080fd5b81019080805190602001909291905050509050919050565b60008060008060009054906101000a900473ffffffffffffffffffffffffffffffffffffffff1673ffffffffffffffffffffffffffffffffffffffff161480613abf57506000613abd6000809054906101000a900473ffffffffffffffffffffffffffffffffffffffff16613fef565b145b15613ad057613ace6000613ffa565b505b6000809054906101000a900473ffffffffffffffffffffffffffffffffffffffff1673ffffffffffffffffffffffffffffffffffffffff166338cc48316040518163ffffffff167c0100000000000000000000000000000000000000000000000000000000028152600401602060405180830381600087803b158015613b5557600080fd5b505af1158015613b69573d6000803e3d6000fd5b505050506040513d6020811015613b7f57600080fd5b810190808051906020019092919050505073ffffffffffffffffffffffffffffffffffffffff16600160009054906101000a900473ffffffffffffffffffffffffffffffffffffffff1673ffffffffffffffffffffffffffffffffffffffff16141515613ce7576000809054906101000a900473ffffffffffffffffffffffffffffffffffffffff1673ffffffffffffffffffffffffffffffffffffffff166338cc48316040518163ffffffff167c0100000000000000000000000000000000000000000000000000000000028152600401602060405180830381600087803b158015613c6b57600080fd5b505af1158015613c7f573d6000803e3d6000fd5b505050506040513d6020811015613c9557600080fd5b8101908080519060200190929190505050600160006101000a81548173ffffffffffffffffffffffffffffffffffffffff021916908373ffffffffffffffffffffffffffffffffffffffff1602179055505b600160009054906101000a900473ffffffffffffffffffffffffffffffffffffffff1673ffffffffffffffffffffffffffffffffffffffff1663524f3889856040518263ffffffff167c01000000000000000000000000000000000000000000000000000000000281526004018080602001828103825283818151815260200191508051906020019080838360005b83811015613d91578082015181840152602081019050613d76565b50505050905090810190601f168015613dbe5780820380516001836020036101000a031916815260200191505b5092505050602060405180830381600087803b158015613ddd57600080fd5b505af1158015613df1573d6000803e3d6000fd5b505050506040513d6020811015613e0757600080fd5b8101908080519060200190929190505050905062030d403a02670de0b6b3a764000001811115613e3d5760006001029150613fe7565b600160009054906101000a900473ffffffffffffffffffffffffffffffffffffffff1673ffffffffffffffffffffffffffffffffffffffff1663adf59f99828787876040518563ffffffff167c0100000000000000000000000000000000000000000000000000000000028152600401808481526020018060200180602001838103835285818151815260200191508051906020019080838360005b83811015613ef4578082015181840152602081019050613ed9565b50505050905090810190601f168015613f215780820380516001836020036101000a031916815260200191505b50838103825284818151815260200191508051906020019080838360005b83811015613f5a578082015181840152602081019050613f3f565b50505050905090810190601f168015613f875780820380516001836020036101000a031916815260200191505b50955050505050506020604051808303818588803b158015613fa857600080fd5b505af1158015613fbc573d6000803e3d6000fd5b50505050506040513d6020811015613fd357600080fd5b810190808051906020019092919050505091505b509392505050565b6000813b9050919050565b600061400461400b565b9050919050565b60008061402b731d3b2638a7cc9f2cb3d298a3da7a90b67e5506ed613fef565b11156140cc57731d3b2638a7cc9f2cb3d298a3da7a90b67e5506ed6000806101000a81548173ffffffffffffffffffffffffffffffffffffffff021916908373ffffffffffffffffffffffffffffffffffffffff1602179055506140c36040805190810160405280600b81526020017f6574685f6d61696e6e657400000000000000000000000000000000000000000081525061449a565b60019050614497565b60006140eb73c03a2615d5efaf5f49f60b7bb6583eaec212fdf1613fef565b111561418c5773c03a2615d5efaf5f49f60b7bb6583eaec212fdf16000806101000a81548173ffffffffffffffffffffffffffffffffffffffff021916908373ffffffffffffffffffffffffffffffffffffffff1602179055506141836040805190810160405280600c81526020017f6574685f726f707374656e33000000000000000000000000000000000000000081525061449a565b60019050614497565b60006141ab73b7a07bcf2ba2f2703b24c0691b5278999c59ac7e613fef565b111561424c5773b7a07bcf2ba2f2703b24c0691b5278999c59ac7e6000806101000a81548173ffffffffffffffffffffffffffffffffffffffff021916908373ffffffffffffffffffffffffffffffffffffffff1602179055506142436040805190810160405280600981526020017f6574685f6b6f76616e000000000000000000000000000000000000000000000081525061449a565b60019050614497565b600061426b73146500cfd35b22e4a392fe0adc06de1a1368ed48613fef565b111561430c5773146500cfd35b22e4a392fe0adc06de1a1368ed486000806101000a81548173ffffffffffffffffffffffffffffffffffffffff021916908373ffffffffffffffffffffffffffffffffffffffff1602179055506143036040805190810160405280600b81526020017f6574685f72696e6b65627900000000000000000000000000000000000000000081525061449a565b60019050614497565b600061432b736f485c8bf6fc43ea212e93bbf8ce046c7f1cb475613fef565b111561438e57736f485c8bf6fc43ea212e93bbf8ce046c7f1cb4756000806101000a81548173ffffffffffffffffffffffffffffffffffffffff021916908373ffffffffffffffffffffffffffffffffffffffff16021790555060019050614497565b60006143ad7320e12a1f859b3feae5fb2a0a32c18f5a65555bbf613fef565b1115614410577320e12a1f859b3feae5fb2a0a32c18f5a65555bbf6000806101000a81548173ffffffffffffffffffffffffffffffffffffffff021916908373ffffffffffffffffffffffffffffffffffffffff16021790555060019050614497565b600061442f7351efaf4c8b3c9afbd5ab9f4bbc82784ab6ef8faa613fef565b1115614492577351efaf4c8b3c9afbd5ab9f4bbc82784ab6ef8faa6000806101000a81548173ffffffffffffffffffffffffffffffffffffffff021916908373ffffffffffffffffffffffffffffffffffffffff16021790555060019050614497565b600090505b90565b80600290805190602001906144b0929190614534565b5050565b828054600181600116156101000203166002900490600052602060002090601f016020900481019282601f106144f557805160ff1916838001178555614523565b82800160010185558215614523579182015b82811115614522578251825591602001919060010190614507565b5b50905061453091906145b4565b5090565b828054600181600116156101000203166002900490600052602060002090601f016020900481019282601f1061457557805160ff19168380011785556145a3565b828001600101855582156145a3579182015b828111156145a2578251825591602001919060010190614587565b5b5090506145b091906145b4565b5090565b6145d691905b808211156145d25760008160009055506001016145ba565b5090565b905600a165627a7a72305820c99383532485b40fecfe63931a1ecf62b264727e2ff13235a20b176b398fe05e0029",
  "source": "pragma solidity ^0.4.24;\n\nimport \"./Rawbot.sol\";\nimport \"./Oraclize.sol\";\n\ncontract Merchant is usingOraclize {\n\n    Rawbot private rawbot;\n    address public constant rawbot_address = 0x5238527616882251df1ae2c5353dc6cf0a515fdc;\n    address private merchant_address;\n    uint public hash_index = 0;\n    uint public devices_amount = 0;\n    mapping(uint => string) ipfs_hash;\n    mapping(string => Device) private devices;\n    mapping(uint256 => ActionHistory[]) private action_history;\n    mapping(uint256 => ActionHistory[]) private recurring_action_history;\n\n    uint256 public RECURRING_PAYMENT_STEP = 0;\n    string[] private device_serial_numbers;\n    string[] private device_names;\n    RA[] recurring_action_array;\n\n    event Refund(uint, uint, uint, uint);\n    event RefundAutomatic(uint, uint, uint, uint);\n    event RecurringPaymentLog(string);\n\n    event DeviceAdd(string, string, bool);\n    event ActionAdd(string, uint, string, uint256, uint256, bool, bool);\n    event ActionEnable(string, uint, string, uint256, uint256, bool);\n    event ActionDisable(string, uint, string, uint256, uint256, bool);\n\n    event AddIPFSHash(uint, string);\n\n    constructor(address _merchant_address) payable public {\n        merchant_address = _merchant_address;\n        rawbot = Rawbot(rawbot_address);\n    }\n\n    struct RA {\n        string device_name;\n        uint256 recurring_action_id;\n        uint256 recurring_action_history_id;\n        bool available;\n    }\n\n    struct Device {\n        string device_name;\n        Action[] device_actions;\n        bool available;\n    }\n\n    struct Action {\n        uint256 id;\n        string name;\n        uint256 price;\n        uint256 duration;\n        bool recurrent;\n        bool refundable;\n        bool available;\n    }\n\n    struct ActionHistory {\n        address user;\n        uint256 id;\n        uint256 time;\n        bool enable;\n        bool refunded;\n        bool available;\n    }\n\n\n    //\"ABC\", \"Raspberry PI 3\"\n    function addDevice(string device_serial_number, string device_name) public payable returns (bool){\n        //        require(merchant_address == msg.sender, \"Only merchant can add devices.\");\n        require(devices[device_serial_number].available == false);\n        devices[device_serial_number].device_name = device_name;\n        devices[device_serial_number].available = true;\n        device_serial_numbers.push(device_serial_number);\n        device_names.push(device_name);\n        emit DeviceAdd(device_serial_number, device_name, true);\n        devices_amount++;\n        return true;\n    }\n\n    //\"ABC\", \"Open\", 20, 20, true\n    function addAction(string device_serial_number, string action_name, uint256 action_price, uint256 action_duration, bool recurrent, bool refundable) public payable returns (bool){\n        //        require(merchant_address == msg.sender);\n        require(devices[device_serial_number].available == true, \"Device serial number is not available\");\n        devices[device_serial_number].device_actions.push(Action(devices[device_serial_number].device_actions.length, action_name, action_price, action_duration, recurrent, refundable, true));\n        emit ActionAdd(device_serial_number, devices[device_serial_number].device_actions.length, action_name, action_price, action_duration, refundable, true);\n        return true;\n    }\n    //\"ABC\", 0\n    function enableAction(string device_serial_number, uint256 action_id) public payable returns (bool success) {\n        require(devices[device_serial_number].available == true, \"Device serial number is not available\");\n        require(devices[device_serial_number].device_actions[action_id].available == true, \"Device action id is not available\");\n        require(rawbot.getBalance(msg.sender) >= devices[device_serial_number].device_actions[action_id].price, \"User doesn't have enough balance\");\n\n        if (devices[device_serial_number].device_actions[action_id].recurrent == true) {\n            if (oraclize_getPrice(\"URL\") > address(this).balance) {\n                return false;\n            } else {\n                oraclize_query(devices[device_serial_number].device_actions[action_id].duration, \"URL\", \"\");\n            }\n        } else {\n\n        }\n\n\n        action_history[action_id].push(ActionHistory(msg.sender, action_id, now, true, false, true));\n\n        rawbot.modifyBalance(msg.sender, - devices[device_serial_number].device_actions[action_id].price);\n        rawbot.modifyBalance(merchant_address, devices[device_serial_number].device_actions[action_id].price);\n\n        emit ActionEnable(device_serial_number, action_id, devices[device_serial_number].device_actions[action_id].name, devices[device_serial_number].device_actions[action_id].price, devices[device_serial_number].device_actions[action_id].duration, true);\n        return true;\n    }\n\n    //\"ABC\", 0\n    //    function enableRecurringAction(string device_serial_number, uint256 action_id) public payable returns (bool success) {\n    //\n    //            //            require(rawbot.getBalance(msg.sender) >= devices[device_serial_number].device_recurring_actions[action_id].price, \"User doesn't have enough balance\");\n    //            recurring_action_history[action_id].push(ActionHistory(msg.sender, action_id, now, true, false, true));\n    //            recurring_action_array.push(RA(device_serial_number, action_id, recurring_action_history[action_id].length - 1, true));\n    //            // rawbot.modifyBalance(msg.sender, - devices[device_serial_number].device_recurring_actions[action_id].price);\n    //            // rawbot.modifyBalance(merchant_address, devices[device_serial_number].device_recurring_actions[action_id].price);\n    //            RECURRING_PAYMENT_STEP = 1;\n    //            emit ActionEnable(device_serial_number, action_id, devices[device_serial_number].device_recurring_actions[action_id].name, devices[device_serial_number].device_recurring_actions[action_id].price, devices[device_serial_number].device_recurring_actions[action_id]._days, true);\n    //            return true;\n    //        }\n    //    }\n\n    //\"ABC\", 0\n    function disableAction(string device_serial_number, uint256 action_id) public payable returns (bool success) {\n        require(devices[device_serial_number].available == true, \"Device serial number is not available\");\n        require(devices[device_serial_number].device_actions[action_id].available == true, \"Device action id is not available\");\n        action_history[action_id].push(ActionHistory(msg.sender, action_id, now, false, false, true));\n        emit ActionDisable(device_serial_number, action_id, devices[device_serial_number].device_actions[action_id].name, devices[device_serial_number].device_actions[action_id].price, devices[device_serial_number].device_actions[action_id].duration, true);\n        return true;\n    }\n\n    //\"ABC\", 0, 0\n    function refund(string device_serial_number, uint256 action_id, uint _action_history_id) payable public returns (bool) {\n        //        require(msg.sender == merchant_address);\n        require(devices[device_serial_number].available == true);\n        require(devices[device_serial_number].device_actions[action_id].available == true);\n        require(devices[device_serial_number].device_actions[action_id].refundable == true);\n        require(action_history[action_id][_action_history_id].available == true);\n        require(action_history[action_id][_action_history_id].id == action_id);\n        require(action_history[action_id][_action_history_id].refunded == false);\n        rawbot.modifyBalance(msg.sender, devices[device_serial_number].device_actions[action_id].price);\n        emit Refund(action_id, _action_history_id, devices[device_serial_number].device_actions[action_id].price, now);\n        return true;\n    }\n\n    //\"ABC\", 0, 0\n    function refundAutomatic(string device_serial_number, uint256 action_id, uint256 _action_history_id) payable public returns (bool success) {\n        require(devices[device_serial_number].available == true);\n        require(devices[device_serial_number].device_actions[action_id].available == true);\n        require(devices[device_serial_number].device_actions[action_id].refundable == true);\n        require(action_history[action_id][_action_history_id].available == true);\n        require(action_history[action_id][_action_history_id].id == action_id);\n        require(action_history[action_id][_action_history_id].refunded == false);\n        uint256 time_passed = now - (action_history[action_id][_action_history_id].time + devices[device_serial_number].device_actions[action_id].duration);\n        //        require(time_passed < 0);\n        emit RefundAutomatic(action_id, _action_history_id, devices[device_serial_number].device_actions[action_id].price, now);\n        return true;\n    }\n\n    function getActionPrice(string device_serial_number, uint256 action_id) public view returns (uint) {\n        return devices[device_serial_number].device_actions[action_id].price;\n    }\n\n    function isRefundable(string device_serial_number, uint256 action_id) public view returns (bool) {\n        return devices[device_serial_number].device_actions[action_id].refundable;\n    }\n\n    function getMerchantAddress() public view returns (address) {\n        return merchant_address;\n    }\n\n    function withdrawFromDevice(address device_address, uint256 value) public payable returns (bool success) {\n        require(merchant_address == msg.sender);\n        require(rawbot.getBalance(device_address) >= value);\n        rawbot.modifyBalance(device_address, - value);\n        rawbot.modifyBalance(msg.sender, value);\n        return true;\n    }\n\n    function getUserBalance(address _address) public view returns (uint256){\n        return rawbot.getBalance(_address);\n    }\n\n    function addImageHash(string _hash) public {\n        ipfs_hash[hash_index] = _hash;\n        emit AddIPFSHash(hash_index, _hash);\n        hash_index++;\n    }\n\n    //    function __callback(bytes32 myid, string result) {\n    //        if (msg.sender != oraclize_cbAddress()) revert();\n    //        for (uint i = 0; i < recurring_action_array.length; i++) {\n    //            require(recurring_action_history[raid][rahid].id == raid);\n    //            string device_name = recurring_action_array[i].device_name;\n    //            uint256 raid = recurring_action_array[i].recurring_action_id;\n    //            uint256 rahid = recurring_action_array[i].recurring_action_history_id;\n    //\n    //            uint _days = devices[device_name].device_recurring_actions[raid]._days * 86400;\n    //            uint _time = recurring_action_history[raid][rahid].time;\n    //            uint difference = now - (_days + _time);\n    //            if (difference > 0) {\n    //                disableRecurringAction(device_name, raid);\n    //            }\n    //            RECURRING_PAYMENT_STEP++;\n    //        }\n    //\n    //        emit RecurringPaymentLog(\"Recurring payment callback.\");\n    //    }\n}",
  "sourcePath": "/Users/hassanjawhar/Desktop/Workspace/rawbot/contracts/Merchant.sol",
  "compiler": {
    "name": "solc",
    "version": "0.4.24+commit.e67f0147.Emscripten.clang"
  },
  "schemaVersion": "2.0.0",
  "updatedAt": "2018-08-17T14:46:19.912Z"
}