{
  "contractName": "Merchant",
  "abi": [
    {
      "constant": true,
      "inputs": [
        {
          "name": "",
          "type": "uint256"
        }
      ],
      "name": "device_serial_numbers",
      "outputs": [
        {
          "name": "",
          "type": "string"
        }
      ],
      "payable": false,
      "stateMutability": "view",
      "type": "function"
    },
    {
      "constant": true,
      "inputs": [],
      "name": "merchant_address",
      "outputs": [
        {
          "name": "",
          "type": "address"
        }
      ],
      "payable": false,
      "stateMutability": "view",
      "type": "function"
    },
    {
      "constant": true,
      "inputs": [],
      "name": "rawbot_address",
      "outputs": [
        {
          "name": "",
          "type": "address"
        }
      ],
      "payable": false,
      "stateMutability": "view",
      "type": "function"
    },
    {
      "constant": true,
      "inputs": [],
      "name": "rawbot",
      "outputs": [
        {
          "name": "",
          "type": "address"
        }
      ],
      "payable": false,
      "stateMutability": "view",
      "type": "function"
    },
    {
      "inputs": [
        {
          "name": "_merchant_address",
          "type": "address"
        }
      ],
      "payable": true,
      "stateMutability": "payable",
      "type": "constructor"
    },
    {
      "anonymous": false,
      "inputs": [
        {
          "indexed": false,
          "name": "",
          "type": "string"
        }
      ],
      "name": "SendDeviceErrorMessage",
      "type": "event"
    },
    {
      "anonymous": false,
      "inputs": [
        {
          "indexed": false,
          "name": "",
          "type": "string"
        }
      ],
      "name": "Testing",
      "type": "event"
    },
    {
      "anonymous": false,
      "inputs": [
        {
          "indexed": false,
          "name": "",
          "type": "string"
        }
      ],
      "name": "SendErrorMessage",
      "type": "event"
    },
    {
      "anonymous": false,
      "inputs": [
        {
          "indexed": false,
          "name": "",
          "type": "string"
        },
        {
          "indexed": false,
          "name": "",
          "type": "uint256"
        },
        {
          "indexed": false,
          "name": "",
          "type": "string"
        },
        {
          "indexed": false,
          "name": "",
          "type": "uint256"
        },
        {
          "indexed": false,
          "name": "",
          "type": "uint256"
        },
        {
          "indexed": false,
          "name": "",
          "type": "bool"
        },
        {
          "indexed": false,
          "name": "",
          "type": "bool"
        }
      ],
      "name": "ActionAdd",
      "type": "event"
    },
    {
      "anonymous": false,
      "inputs": [
        {
          "indexed": false,
          "name": "",
          "type": "string"
        },
        {
          "indexed": false,
          "name": "",
          "type": "uint256"
        },
        {
          "indexed": false,
          "name": "",
          "type": "string"
        },
        {
          "indexed": false,
          "name": "",
          "type": "uint256"
        },
        {
          "indexed": false,
          "name": "",
          "type": "uint256"
        },
        {
          "indexed": false,
          "name": "",
          "type": "bool"
        }
      ],
      "name": "ActionEnable",
      "type": "event"
    },
    {
      "anonymous": false,
      "inputs": [
        {
          "indexed": false,
          "name": "",
          "type": "string"
        },
        {
          "indexed": false,
          "name": "",
          "type": "uint256"
        },
        {
          "indexed": false,
          "name": "",
          "type": "string"
        },
        {
          "indexed": false,
          "name": "",
          "type": "uint256"
        },
        {
          "indexed": false,
          "name": "",
          "type": "uint256"
        },
        {
          "indexed": false,
          "name": "",
          "type": "bool"
        }
      ],
      "name": "ActionDisable",
      "type": "event"
    },
    {
      "anonymous": false,
      "inputs": [
        {
          "indexed": false,
          "name": "",
          "type": "uint256"
        },
        {
          "indexed": false,
          "name": "",
          "type": "uint256"
        },
        {
          "indexed": false,
          "name": "",
          "type": "uint256"
        },
        {
          "indexed": false,
          "name": "",
          "type": "uint256"
        }
      ],
      "name": "Refund",
      "type": "event"
    },
    {
      "constant": false,
      "inputs": [
        {
          "name": "device_serial_number",
          "type": "string"
        },
        {
          "name": "device_name",
          "type": "string"
        }
      ],
      "name": "addDevice",
      "outputs": [
        {
          "name": "",
          "type": "bool"
        }
      ],
      "payable": true,
      "stateMutability": "payable",
      "type": "function"
    },
    {
      "constant": false,
      "inputs": [
        {
          "name": "device_serial_number",
          "type": "string"
        },
        {
          "name": "action_name",
          "type": "string"
        },
        {
          "name": "action_price",
          "type": "uint256"
        },
        {
          "name": "action_duration",
          "type": "uint256"
        },
        {
          "name": "refundable",
          "type": "bool"
        }
      ],
      "name": "addAction",
      "outputs": [
        {
          "name": "",
          "type": "bool"
        }
      ],
      "payable": true,
      "stateMutability": "payable",
      "type": "function"
    },
    {
      "constant": false,
      "inputs": [
        {
          "name": "device_serial_number",
          "type": "string"
        },
        {
          "name": "action_id",
          "type": "uint256"
        }
      ],
      "name": "enableAction",
      "outputs": [
        {
          "name": "success",
          "type": "bool"
        }
      ],
      "payable": true,
      "stateMutability": "payable",
      "type": "function"
    },
    {
      "constant": false,
      "inputs": [
        {
          "name": "device_serial_number",
          "type": "string"
        },
        {
          "name": "action_id",
          "type": "uint256"
        }
      ],
      "name": "disableAction",
      "outputs": [
        {
          "name": "success",
          "type": "bool"
        }
      ],
      "payable": true,
      "stateMutability": "payable",
      "type": "function"
    },
    {
      "constant": false,
      "inputs": [
        {
          "name": "device_serial_number",
          "type": "string"
        },
        {
          "name": "action_id",
          "type": "uint256"
        },
        {
          "name": "_action_history_id",
          "type": "uint256"
        }
      ],
      "name": "refund",
      "outputs": [
        {
          "name": "",
          "type": "bool"
        }
      ],
      "payable": true,
      "stateMutability": "payable",
      "type": "function"
    },
    {
      "constant": false,
      "inputs": [
        {
          "name": "device_serial_number",
          "type": "string"
        },
        {
          "name": "action_id",
          "type": "uint256"
        },
        {
          "name": "_action_history_id",
          "type": "uint256"
        }
      ],
      "name": "refundAutomatic",
      "outputs": [
        {
          "name": "success",
          "type": "bool"
        }
      ],
      "payable": true,
      "stateMutability": "payable",
      "type": "function"
    },
    {
      "constant": true,
      "inputs": [
        {
          "name": "device_serial_number",
          "type": "string"
        },
        {
          "name": "action_id",
          "type": "uint256"
        }
      ],
      "name": "getActionPrice",
      "outputs": [
        {
          "name": "",
          "type": "uint256"
        }
      ],
      "payable": false,
      "stateMutability": "view",
      "type": "function"
    },
    {
      "constant": true,
      "inputs": [
        {
          "name": "device_serial_number",
          "type": "string"
        },
        {
          "name": "action_id",
          "type": "uint256"
        }
      ],
      "name": "isRefundable",
      "outputs": [
        {
          "name": "",
          "type": "bool"
        }
      ],
      "payable": false,
      "stateMutability": "view",
      "type": "function"
    },
    {
      "constant": true,
      "inputs": [],
      "name": "getMerchantAddress",
      "outputs": [
        {
          "name": "",
          "type": "address"
        }
      ],
      "payable": false,
      "stateMutability": "view",
      "type": "function"
    },
    {
      "constant": false,
      "inputs": [
        {
          "name": "device_address",
          "type": "address"
        },
        {
          "name": "value",
          "type": "uint256"
        }
      ],
      "name": "withdrawFromDevice",
      "outputs": [
        {
          "name": "success",
          "type": "bool"
        }
      ],
      "payable": true,
      "stateMutability": "payable",
      "type": "function"
    }
  ],
  "bytecode": "0x608060405273e6fe5c7561c807b814593ca49e5d268340ba01a6600360006101000a81548173ffffffffffffffffffffffffffffffffffffffff021916908373ffffffffffffffffffffffffffffffffffffffff160217905550604051602080612cb38339810180604052810190808051906020019092919050505080600160006101000a81548173ffffffffffffffffffffffffffffffffffffffff021916908373ffffffffffffffffffffffffffffffffffffffff160217905550600360009054906101000a900473ffffffffffffffffffffffffffffffffffffffff16600460006101000a81548173ffffffffffffffffffffffffffffffffffffffff021916908373ffffffffffffffffffffffffffffffffffffffff16021790555050612b848061012f6000396000f3006080604052600436106100d0576000357c0100000000000000000000000000000000000000000000000000000000900463ffffffff1680631b7e7248146100d55780632f5da3471461015c578063328d5ca11461020257806347da0a981461025957806366cfce42146102d7578063684482481461032e5780637543db1e14610385578063757d713f146103dd578063a1cc0e7114610465578063a3eb6e5b146104f0578063b85d826114610547578063b8dd458714610601578063cc082a89146106db578063defc309814610763575b600080fd5b3480156100e157600080fd5b50610146600480360381019080803590602001908201803590602001908080601f0160208091040260200160405190810160405280939291908181526020018383808284378201915050505050509192919290803590602001909291905050506107e1565b6040518082815260200191505060405180910390f35b34801561016857600080fd5b5061018760048036038101908080359060200190929190505050610878565b6040518080602001828103825283818151815260200191508051906020019080838360005b838110156101c75780820151818401526020810190506101ac565b50505050905090810190601f1680156101f45780820380516001836020036101000a031916815260200191505b509250505060405180910390f35b34801561020e57600080fd5b50610217610933565b604051808273ffffffffffffffffffffffffffffffffffffffff1673ffffffffffffffffffffffffffffffffffffffff16815260200191505060405180910390f35b6102bd600480360381019080803590602001908201803590602001908080601f016020809104026020016040519081016040528093929190818152602001838380828437820191505050505050919291929080359060200190929190505050610959565b604051808215151515815260200191505060405180910390f35b3480156102e357600080fd5b506102ec611106565b604051808273ffffffffffffffffffffffffffffffffffffffff1673ffffffffffffffffffffffffffffffffffffffff16815260200191505060405180910390f35b34801561033a57600080fd5b5061034361112c565b604051808273ffffffffffffffffffffffffffffffffffffffff1673ffffffffffffffffffffffffffffffffffffffff16815260200191505060405180910390f35b6103c3600480360381019080803573ffffffffffffffffffffffffffffffffffffffff16906020019092919080359060200190929190505050611152565b604051808215151515815260200191505060405180910390f35b61044b600480360381019080803590602001908201803590602001908080601f016020809104026020016040519081016040528093929190818152602001838380828437820191505050505050919291929080359060200190929190803590602001909291905050506111ba565b604051808215151515815260200191505060405180910390f35b34801561047157600080fd5b506104d6600480360381019080803590602001908201803590602001908080601f01602080910402602001604051908101604052809392919081815260200183838082843782019150505050505091929192908035906020019092919050505061163d565b604051808215151515815260200191505060405180910390f35b3480156104fc57600080fd5b506105056116e1565b604051808273ffffffffffffffffffffffffffffffffffffffff1673ffffffffffffffffffffffffffffffffffffffff16815260200191505060405180910390f35b6105e7600480360381019080803590602001908201803590602001908080601f0160208091040260200160405190810160405280939291908181526020018383808284378201915050505050509192919290803590602001908201803590602001908080601f016020809104026020016040519081016040528093929190818152602001838380828437820191505050505050919291929050505061170b565b604051808215151515815260200191505060405180910390f35b6106c1600480360381019080803590602001908201803590602001908080601f0160208091040260200160405190810160405280939291908181526020018383808284378201915050505050509192919290803590602001908201803590602001908080601f0160208091040260200160405190810160405280939291908181526020018383808284378201915050505050509192919290803590602001909291908035906020019092919080351515906020019092919050505061190b565b604051808215151515815260200191505060405180910390f35b610749600480360381019080803590602001908201803590602001908080601f01602080910402602001604051908101604052809392919081815260200183838082843782019150505050505091929192908035906020019092919080359060200190929190505050611d6a565b604051808215151515815260200191505060405180910390f35b6107c7600480360381019080803590602001908201803590602001908080601f016020809104026020016040519081016040528093929190818152602001838380828437820191505050505050919291929080359060200190929190505050612286565b604051808215151515815260200191505060405180910390f35b60006002836040518082805190602001908083835b60208310151561081b57805182526020820191506020810190506020830392506107f6565b6001836020036101000a03801982511681845116808217855250505050505090500191505090815260200160405180910390206001018281548110151561085e57fe5b906000526020600020906005020160020154905092915050565b60008181548110151561088757fe5b906000526020600020016000915090508054600181600116156101000203166002900480601f01602080910402602001604051908101604052809291908181526020018280546001816001161561010002031660029004801561092b5780601f106109005761010080835404028352916020019161092b565b820191906000526020600020905b81548152906001019060200180831161090e57829003601f168201915b505050505081565b600160009054906101000a900473ffffffffffffffffffffffffffffffffffffffff1681565b6000600115156002846040518082805190602001908083835b6020831015156109975780518252602082019150602081019050602083039250610972565b6001836020036101000a038019825116818451168082178552505050505050905001915050908152602001604051809103902060030160009054906101000a900460ff1615151415156109e957600080fd5b6002836040518082805190602001908083835b602083101515610a2157805182526020820191506020810190506020830392506109fc565b6001836020036101000a0380198251168184511680821785525050505050509050019150509081526020016040518091039020600201610120604051908101604052803373ffffffffffffffffffffffffffffffffffffffff1681526020018481526020016002866040518082805190602001908083835b602083101515610abe5780518252602082019150602081019050602083039250610a99565b6001836020036101000a038019825116818451168082178552505050505050905001915050908152602001604051809103902060010185815481101515610b0157fe5b90600052602060002090600502016001018054600181600116156101000203166002900480601f016020809104026020016040519081016040528092919081815260200182805460018160011615610100020316600290048015610ba65780601f10610b7b57610100808354040283529160200191610ba6565b820191906000526020600020905b815481529060010190602001808311610b8957829003601f168201915b505050505081526020016002866040518082805190602001908083835b602083101515610be85780518252602082019150602081019050602083039250610bc3565b6001836020036101000a038019825116818451168082178552505050505050905001915050908152602001604051809103902060010185815481101515610c2b57fe5b90600052602060002090600502016002015481526020016002866040518082805190602001908083835b602083101515610c7a5780518252602082019150602081019050602083039250610c55565b6001836020036101000a038019825116818451168082178552505050505050905001915050908152602001604051809103902060010185815481101515610cbd57fe5b9060005260206000209060050201600301548152602001428152602001600115158152602001600015158152602001600115158152509080600181540180825580915050906001820390600052602060002090600702016000909192909190915060008201518160000160006101000a81548173ffffffffffffffffffffffffffffffffffffffff021916908373ffffffffffffffffffffffffffffffffffffffff160217905550602082015181600101556040820151816002019080519060200190610d8b929190612a33565b50606082015181600301556080820151816004015560a0820151816005015560c08201518160060160006101000a81548160ff02191690831515021790555060e08201518160060160016101000a81548160ff0219169083151502179055506101008201518160060160026101000a81548160ff0219169083151502179055505050507f54376985c61133fd74ddfd5be0e7cacfebc5ee2b28b59fff7642086996680be483836002866040518082805190602001908083835b602083101515610e695780518252602082019150602081019050602083039250610e44565b6001836020036101000a038019825116818451168082178552505050505050905001915050908152602001604051809103902060010185815481101515610eac57fe5b90600052602060002090600502016001016002876040518082805190602001908083835b602083101515610ef55780518252602082019150602081019050602083039250610ed0565b6001836020036101000a038019825116818451168082178552505050505050905001915050908152602001604051809103902060010186815481101515610f3857fe5b9060005260206000209060050201600201546002886040518082805190602001908083835b602083101515610f825780518252602082019150602081019050602083039250610f5d565b6001836020036101000a038019825116818451168082178552505050505050905001915050908152602001604051809103902060010187815481101515610fc557fe5b906000526020600020906005020160030154600160405180806020018781526020018060200186815260200185815260200184151515158152602001838103835289818151815260200191508051906020019080838360005b8381101561103957808201518184015260208101905061101e565b50505050905090810190601f1680156110665780820380516001836020036101000a031916815260200191505b508381038252878181546001816001161561010002031660029004815260200191508054600181600116156101000203166002900480156110e85780601f106110bd576101008083540402835291602001916110e8565b820191906000526020600020905b8154815290600101906020018083116110cb57829003601f168201915b50509850505050505050505060405180910390a16001905092915050565b600360009054906101000a900473ffffffffffffffffffffffffffffffffffffffff1681565b600460009054906101000a900473ffffffffffffffffffffffffffffffffffffffff1681565b60003373ffffffffffffffffffffffffffffffffffffffff16600160009054906101000a900473ffffffffffffffffffffffffffffffffffffffff1673ffffffffffffffffffffffffffffffffffffffff161415156111b057600080fd5b6001905092915050565b600080600115156002866040518082805190602001908083835b6020831015156111f957805182526020820191506020810190506020830392506111d4565b6001836020036101000a03801982511681845116808217855250505050505090500191505090815260200160405180910390206001018581548110151561123c57fe5b906000526020600020906005020160040160019054906101000a900460ff16151514151561126957600080fd5b600115156002866040518082805190602001908083835b6020831015156112a55780518252602082019150602081019050602083039250611280565b6001836020036101000a0380198251168184511680821785525050505050509050019150509081526020016040518091039020600101858154811015156112e857fe5b906000526020600020906005020160040160009054906101000a900460ff16151514151561131557600080fd5b600115156002866040518082805190602001908083835b602083101515611351578051825260208201915060208101905060208303925061132c565b6001836020036101000a03801982511681845116808217855250505050505090500191505090815260200160405180910390206002018481548110151561139457fe5b906000526020600020906007020160060160029054906101000a900460ff1615151415156113c157600080fd5b836002866040518082805190602001908083835b6020831015156113fa57805182526020820191506020810190506020830392506113d5565b6001836020036101000a03801982511681845116808217855250505050505090500191505090815260200160405180910390206002018481548110151561143d57fe5b90600052602060002090600702016001015414151561145b57600080fd5b600015156002866040518082805190602001908083835b6020831015156114975780518252602082019150602081019050602083039250611472565b6001836020036101000a0380198251168184511680821785525050505050509050019150509081526020016040518091039020600201848154811015156114da57fe5b906000526020600020906007020160060160019054906101000a900460ff16151514151561150757600080fd5b6002856040518082805190602001908083835b60208310151561153f578051825260208201915060208101905060208303925061151a565b6001836020036101000a03801982511681845116808217855250505050505090500191505090815260200160405180910390206002018381548110151561158257fe5b9060005260206000209060070201600401546002866040518082805190602001908083835b6020831015156115cc57805182526020820191506020810190506020830392506115a7565b6001836020036101000a03801982511681845116808217855250505050505090500191505090815260200160405180910390206002018481548110151561160f57fe5b906000526020600020906007020160050154420301905060008110151561163557600080fd5b509392505050565b60006002836040518082805190602001908083835b6020831015156116775780518252602082019150602081019050602083039250611652565b6001836020036101000a0380198251168184511680821785525050505050509050019150509081526020016040518091039020600101828154811015156116ba57fe5b906000526020600020906005020160040160009054906101000a900460ff16905092915050565b6000600160009054906101000a900473ffffffffffffffffffffffffffffffffffffffff16905090565b60003373ffffffffffffffffffffffffffffffffffffffff16600160009054906101000a900473ffffffffffffffffffffffffffffffffffffffff1673ffffffffffffffffffffffffffffffffffffffff1614151561176957600080fd5b600015156002846040518082805190602001908083835b6020831015156117a55780518252602082019150602081019050602083039250611780565b6001836020036101000a038019825116818451168082178552505050505050905001915050908152602001604051809103902060030160009054906101000a900460ff1615151415156117f757600080fd5b816002846040518082805190602001908083835b602083101515611830578051825260208201915060208101905060208303925061180b565b6001836020036101000a03801982511681845116808217855250505050505090500191505090815260200160405180910390206000019080519060200190611879929190612ab3565b5060016002846040518082805190602001908083835b6020831015156118b4578051825260208201915060208101905060208303925061188f565b6001836020036101000a038019825116818451168082178552505050505050905001915050908152602001604051809103902060030160006101000a81548160ff0219169083151502179055506001905092915050565b60003373ffffffffffffffffffffffffffffffffffffffff16600160009054906101000a900473ffffffffffffffffffffffffffffffffffffffff1673ffffffffffffffffffffffffffffffffffffffff1614151561196957600080fd5b600115156002876040518082805190602001908083835b6020831015156119a55780518252602082019150602081019050602083039250611980565b6001836020036101000a038019825116818451168082178552505050505050905001915050908152602001604051809103902060030160009054906101000a900460ff1615151415156119f757600080fd5b6002866040518082805190602001908083835b602083101515611a2f5780518252602082019150602081019050602083039250611a0a565b6001836020036101000a038019825116818451168082178552505050505050905001915050908152602001604051809103902060010160c0604051908101604052806002896040518082805190602001908083835b602083101515611aa95780518252602082019150602081019050602083039250611a84565b6001836020036101000a038019825116818451168082178552505050505050905001915050908152602001604051809103902060010180549050815260200187815260200186815260200185815260200184151581526020016001151581525090806001815401808255809150509060018203906000526020600020906005020160009091929091909150600082015181600001556020820151816001019080519060200190611b5a929190612a33565b50604082015181600201556060820151816003015560808201518160040160006101000a81548160ff02191690831515021790555060a08201518160040160016101000a81548160ff0219169083151502179055505050507fab7af84a14131a8d124961d4f462f1fb7e82b562aba899a3f28200031563b3e6866002886040518082805190602001908083835b602083101515611c0c5780518252602082019150602081019050602083039250611be7565b6001836020036101000a038019825116818451168082178552505050505050905001915050908152602001604051809103902060010180549050878787876001604051808060200188815260200180602001878152602001868152602001851515151581526020018415151515815260200183810383528a818151815260200191508051906020019080838360005b83811015611cb6578082015181840152602081019050611c9b565b50505050905090810190601f168015611ce35780820380516001836020036101000a031916815260200191505b50838103825288818151815260200191508051906020019080838360005b83811015611d1c578082015181840152602081019050611d01565b50505050905090810190601f168015611d495780820380516001836020036101000a031916815260200191505b50995050505050505050505060405180910390a16001905095945050505050565b6000600160009054906101000a900473ffffffffffffffffffffffffffffffffffffffff1673ffffffffffffffffffffffffffffffffffffffff163373ffffffffffffffffffffffffffffffffffffffff16141515611dc857600080fd5b600115156002856040518082805190602001908083835b602083101515611e045780518252602082019150602081019050602083039250611ddf565b6001836020036101000a038019825116818451168082178552505050505050905001915050908152602001604051809103902060030160009054906101000a900460ff161515141515611e5657600080fd5b600115156002856040518082805190602001908083835b602083101515611e925780518252602082019150602081019050602083039250611e6d565b6001836020036101000a038019825116818451168082178552505050505050905001915050908152602001604051809103902060010184815481101515611ed557fe5b906000526020600020906005020160040160019054906101000a900460ff161515141515611f0257600080fd5b600115156002856040518082805190602001908083835b602083101515611f3e5780518252602082019150602081019050602083039250611f19565b6001836020036101000a038019825116818451168082178552505050505050905001915050908152602001604051809103902060010184815481101515611f8157fe5b906000526020600020906005020160040160009054906101000a900460ff161515141515611fae57600080fd5b600115156002856040518082805190602001908083835b602083101515611fea5780518252602082019150602081019050602083039250611fc5565b6001836020036101000a03801982511681845116808217855250505050505090500191505090815260200160405180910390206002018381548110151561202d57fe5b906000526020600020906007020160060160029054906101000a900460ff16151514151561205a57600080fd5b826002856040518082805190602001908083835b602083101515612093578051825260208201915060208101905060208303925061206e565b6001836020036101000a0380198251168184511680821785525050505050509050019150509081526020016040518091039020600201838154811015156120d657fe5b9060005260206000209060070201600101541415156120f457600080fd5b600015156002856040518082805190602001908083835b602083101515612130578051825260208201915060208101905060208303925061210b565b6001836020036101000a03801982511681845116808217855250505050505090500191505090815260200160405180910390206002018381548110151561217357fe5b906000526020600020906007020160060160019054906101000a900460ff1615151415156121a057600080fd5b7f08962bc8e69e48f301d776a9cbc9ea37df6c12e29b411692176848df7ced36d783836002876040518082805190602001908083835b6020831015156121fb57805182526020820191506020810190506020830392506121d6565b6001836020036101000a03801982511681845116808217855250505050505090500191505090815260200160405180910390206001018681548110151561223e57fe5b906000526020600020906005020160020154426040518085815260200184815260200183815260200182815260200194505050505060405180910390a1600190509392505050565b6000600115156002846040518082805190602001908083835b6020831015156122c4578051825260208201915060208101905060208303925061229f565b6001836020036101000a038019825116818451168082178552505050505050905001915050908152602001604051809103902060030160009054906101000a900460ff16151514151561231657600080fd5b6002836040518082805190602001908083835b60208310151561234e5780518252602082019150602081019050602083039250612329565b6001836020036101000a0380198251168184511680821785525050505050509050019150509081526020016040518091039020600201610120604051908101604052803373ffffffffffffffffffffffffffffffffffffffff1681526020018481526020016002866040518082805190602001908083835b6020831015156123eb57805182526020820191506020810190506020830392506123c6565b6001836020036101000a03801982511681845116808217855250505050505090500191505090815260200160405180910390206001018581548110151561242e57fe5b90600052602060002090600502016001018054600181600116156101000203166002900480601f0160208091040260200160405190810160405280929190818152602001828054600181600116156101000203166002900480156124d35780601f106124a8576101008083540402835291602001916124d3565b820191906000526020600020905b8154815290600101906020018083116124b657829003601f168201915b505050505081526020016002866040518082805190602001908083835b60208310151561251557805182526020820191506020810190506020830392506124f0565b6001836020036101000a03801982511681845116808217855250505050505090500191505090815260200160405180910390206001018581548110151561255857fe5b90600052602060002090600502016002015481526020016002866040518082805190602001908083835b6020831015156125a75780518252602082019150602081019050602083039250612582565b6001836020036101000a0380198251168184511680821785525050505050509050019150509081526020016040518091039020600101858154811015156125ea57fe5b9060005260206000209060050201600301548152602001428152602001600115158152602001600015158152602001600115158152509080600181540180825580915050906001820390600052602060002090600702016000909192909190915060008201518160000160006101000a81548173ffffffffffffffffffffffffffffffffffffffff021916908373ffffffffffffffffffffffffffffffffffffffff1602179055506020820151816001015560408201518160020190805190602001906126b8929190612a33565b50606082015181600301556080820151816004015560a0820151816005015560c08201518160060160006101000a81548160ff02191690831515021790555060e08201518160060160016101000a81548160ff0219169083151502179055506101008201518160060160026101000a81548160ff0219169083151502179055505050507f875b40a67d33b0171b10d7197a7c57cc4a8a03020e69c119753e83c07790640783836002866040518082805190602001908083835b6020831015156127965780518252602082019150602081019050602083039250612771565b6001836020036101000a0380198251168184511680821785525050505050509050019150509081526020016040518091039020600101858154811015156127d957fe5b90600052602060002090600502016001016002876040518082805190602001908083835b60208310151561282257805182526020820191506020810190506020830392506127fd565b6001836020036101000a03801982511681845116808217855250505050505090500191505090815260200160405180910390206001018681548110151561286557fe5b9060005260206000209060050201600201546002886040518082805190602001908083835b6020831015156128af578051825260208201915060208101905060208303925061288a565b6001836020036101000a0380198251168184511680821785525050505050509050019150509081526020016040518091039020600101878154811015156128f257fe5b906000526020600020906005020160030154600160405180806020018781526020018060200186815260200185815260200184151515158152602001838103835289818151815260200191508051906020019080838360005b8381101561296657808201518184015260208101905061294b565b50505050905090810190601f1680156129935780820380516001836020036101000a031916815260200191505b50838103825287818154600181600116156101000203166002900481526020019150805460018160011615610100020316600290048015612a155780601f106129ea57610100808354040283529160200191612a15565b820191906000526020600020905b8154815290600101906020018083116129f857829003601f168201915b50509850505050505050505060405180910390a16001905092915050565b828054600181600116156101000203166002900490600052602060002090601f016020900481019282601f10612a7457805160ff1916838001178555612aa2565b82800160010185558215612aa2579182015b82811115612aa1578251825591602001919060010190612a86565b5b509050612aaf9190612b33565b5090565b828054600181600116156101000203166002900490600052602060002090601f016020900481019282601f10612af457805160ff1916838001178555612b22565b82800160010185558215612b22579182015b82811115612b21578251825591602001919060010190612b06565b5b509050612b2f9190612b33565b5090565b612b5591905b80821115612b51576000816000905550600101612b39565b5090565b905600a165627a7a7230582018cdb601a406c0f15b309b134546fc8d6203f6ad188f507e440079016082efca0029",
  "source": "pragma solidity ^0.4.24;\n\nimport \"./Rawbot.sol\";\n\ncontract Merchant {\n    string[] public device_serial_numbers;\n    address public merchant_address;\n    mapping(string => Device) devices;\n\n    event SendDeviceErrorMessage(string);\n    event Testing(string);\n    event SendErrorMessage(string);\n    event ActionAdd(string, uint, string, uint256, uint256, bool, bool);\n    event ActionEnable(string, uint, string, uint256, uint256, bool);\n    event ActionDisable(string, uint, string, uint256, uint256, bool);\n    event Refund(uint, uint, uint, uint);\n\n    address public rawbot_address = 0xe6fe5c7561c807b814593ca49e5d268340ba01a6;\n    Rawbot public rawbot;\n\n    constructor(address _merchant_address) payable public {\n        merchant_address = _merchant_address;\n        rawbot = Rawbot(rawbot_address);\n    }\n\n    struct Device {\n        string device_name;\n        Action[] device_actions;\n        ActionHistory[] device_history;\n        bool available;\n    }\n\n    struct Action {\n        uint id;\n        string name;\n        uint price;\n        uint duration;\n        bool refundable;\n        bool available;\n    }\n\n    struct ActionHistory {\n        address user;\n        uint256 id;\n        string name;\n        uint256 price;\n        uint256 duration;\n        uint256 time;\n        bool enable;\n        bool refunded;\n        bool available;\n    }\n\n    //\"ABC\", \"Raspberry PI 3\"\n    function addDevice(string device_serial_number, string device_name) public payable returns (bool){\n        require(merchant_address == msg.sender);\n        require(devices[device_serial_number].available == false);\n        devices[device_serial_number].device_name = device_name;\n        devices[device_serial_number].available = true;\n        return true;\n    }\n\n    //\"ABC\", \"Open\", 20, 20, true\n    function addAction(string device_serial_number, string action_name, uint action_price, uint action_duration, bool refundable) public payable returns (bool){\n        require(merchant_address == msg.sender);\n        require(devices[device_serial_number].available == true);\n        devices[device_serial_number].device_actions.push(Action(devices[device_serial_number].device_actions.length, action_name, action_price, action_duration, refundable, true));\n        emit ActionAdd(device_serial_number, devices[device_serial_number].device_actions.length, action_name, action_price, action_duration, refundable, true);\n        return true;\n    }\n\n    //\"ABC\", 0\n    function enableAction(string device_serial_number, uint action_id) public payable returns (bool success) {\n        require(devices[device_serial_number].available == true);\n        devices[device_serial_number].device_history.push(ActionHistory(msg.sender, action_id, devices[device_serial_number].device_actions[action_id].name, devices[device_serial_number].device_actions[action_id].price, devices[device_serial_number].device_actions[action_id].duration, now, true, false, true));\n        //        rawbot.balanceOf[msg.sender] -= devices[device_serial_number].device_actions[action_id].price;\n        //        rawbot.balanceOf[merchant_address] += devices[device_serial_number].device_actions[action_id].price;\n        emit ActionEnable(device_serial_number, action_id, devices[device_serial_number].device_actions[action_id].name, devices[device_serial_number].device_actions[action_id].price, devices[device_serial_number].device_actions[action_id].duration, true);\n        return true;\n    }\n\n    //\"ABC\", 0\n    function disableAction(string device_serial_number, uint action_id) public payable returns (bool success) {\n        require(devices[device_serial_number].available == true);\n        devices[device_serial_number].device_history.push(ActionHistory(msg.sender, action_id, devices[device_serial_number].device_actions[action_id].name, devices[device_serial_number].device_actions[action_id].price, devices[device_serial_number].device_actions[action_id].duration, now, true, false, true));\n        emit ActionDisable(device_serial_number, action_id, devices[device_serial_number].device_actions[action_id].name, devices[device_serial_number].device_actions[action_id].price, devices[device_serial_number].device_actions[action_id].duration, true);\n        return true;\n    }\n\n    //\"ABC\", 0, 0\n    function refund(string device_serial_number, uint256 action_id, uint256 _action_history_id) payable public returns (bool) {\n        require(msg.sender == merchant_address);\n        require(devices[device_serial_number].available == true);\n        require(devices[device_serial_number].device_actions[action_id].available == true);\n        require(devices[device_serial_number].device_actions[action_id].refundable == true);\n        require(devices[device_serial_number].device_history[_action_history_id].available == true);\n        require(devices[device_serial_number].device_history[_action_history_id].id == action_id);\n        require(devices[device_serial_number].device_history[_action_history_id].refunded == false);\n        emit Refund(action_id, _action_history_id, devices[device_serial_number].device_actions[action_id].price, now);\n        return true;\n    }\n\n    //\"ABC\", 0, 0\n    function refundAutomatic(string device_serial_number, uint256 action_id, uint256 _action_history_id) payable public returns (bool success) {\n        require(devices[device_serial_number].device_actions[action_id].available == true);\n        require(devices[device_serial_number].device_actions[action_id].refundable == true);\n        require(devices[device_serial_number].device_history[_action_history_id].available == true);\n        require(devices[device_serial_number].device_history[_action_history_id].id == action_id);\n        require(devices[device_serial_number].device_history[_action_history_id].refunded == false);\n        uint time_passed = now - devices[device_serial_number].device_history[_action_history_id].time + devices[device_serial_number].device_history[_action_history_id].duration;\n        require(time_passed < 0);\n    }\n\n    function getActionPrice(string device_serial_number, uint action_id) public view returns (uint) {\n        return devices[device_serial_number].device_actions[action_id].price;\n    }\n\n    function isRefundable(string device_serial_number, uint action_id) public view returns (bool) {\n        return devices[device_serial_number].device_actions[action_id].refundable;\n    }\n\n    function getMerchantAddress() public view returns (address) {\n        return merchant_address;\n    }\n\n    function withdrawFromDevice(address device_address, uint value) public payable returns (bool success) {\n        require(merchant_address == msg.sender);\n        // require(rawbot.balanceOf[device_address] >= value);\n        // rawbot.balanceOf[device_address] -= value;\n        // rawbot.balanceOf[msg.sender] += value;\n        return true;\n    }\n}",
  "sourcePath": "/Users/hassanjawhar/Desktop/Workspace/rawbot/contracts/Merchant.sol",
  "compiler": {
    "name": "solc",
    "version": "0.4.24+commit.e67f0147.Emscripten.clang"
  },
  "schemaVersion": "2.0.0",
  "updatedAt": "2018-08-06T17:54:59.554Z"
}