{
  "contractName": "MerchantManager",
  "abi": [
    {
      "constant": true,
      "inputs": [
        {
          "name": "",
          "type": "address"
        }
      ],
      "name": "merchants",
      "outputs": [
        {
          "name": "",
          "type": "address"
        }
      ],
      "payable": false,
      "stateMutability": "view",
      "type": "function"
    },
    {
      "inputs": [],
      "payable": true,
      "stateMutability": "payable",
      "type": "constructor"
    },
    {
      "anonymous": false,
      "inputs": [
        {
          "indexed": false,
          "name": "",
          "type": "address"
        },
        {
          "indexed": false,
          "name": "",
          "type": "address"
        }
      ],
      "name": "AddMerchant",
      "type": "event"
    },
    {
      "constant": false,
      "inputs": [],
      "name": "addMerchant",
      "outputs": [
        {
          "name": "",
          "type": "bool"
        }
      ],
      "payable": true,
      "stateMutability": "payable",
      "type": "function"
    },
    {
      "constant": true,
      "inputs": [],
      "name": "getMerchants",
      "outputs": [
        {
          "name": "",
          "type": "uint256"
        }
      ],
      "payable": false,
      "stateMutability": "view",
      "type": "function"
    }
  ],
  "bytecode": "0x60806040526000600155613815806100186000396000f300608060405260043610610057576000357c0100000000000000000000000000000000000000000000000000000000900463ffffffff168063e2d1800f1461005c578063ee14e93914610087578063f50ad6171461010a575b600080fd5b34801561006857600080fd5b5061007161012c565b6040518082815260200191505060405180910390f35b34801561009357600080fd5b506100c8600480360381019080803573ffffffffffffffffffffffffffffffffffffffff169060200190929190505050610136565b604051808273ffffffffffffffffffffffffffffffffffffffff1673ffffffffffffffffffffffffffffffffffffffff16815260200191505060405180910390f35b610112610169565b604051808215151515815260200191505060405180910390f35b6000600154905090565b60006020528060005260406000206000915054906101000a900473ffffffffffffffffffffffffffffffffffffffff1681565b600080336101756102f8565b808273ffffffffffffffffffffffffffffffffffffffff1673ffffffffffffffffffffffffffffffffffffffff168152602001915050604051809103906000f0801580156101c7573d6000803e3d6000fd5b509050336000808373ffffffffffffffffffffffffffffffffffffffff1673ffffffffffffffffffffffffffffffffffffffff16815260200190815260200160002060006101000a81548173ffffffffffffffffffffffffffffffffffffffff021916908373ffffffffffffffffffffffffffffffffffffffff1602179055506001600081548092919060010191905055507f13e4759998203525aacce7dc80b472adb0ae84c7e195a86a7e6875cb28458d7b3382604051808373ffffffffffffffffffffffffffffffffffffffff1673ffffffffffffffffffffffffffffffffffffffff1681526020018273ffffffffffffffffffffffffffffffffffffffff1673ffffffffffffffffffffffffffffffffffffffff1681526020019250505060405180910390a1600191505090565b6040516134e180610309833901905600608060405273d663daf4bb1dce6d40f2e9985e3fb49f718ba793600360006101000a81548173ffffffffffffffffffffffffffffffffffffffff021916908373ffffffffffffffffffffffffffffffffffffffff1602179055506040516020806134e18339810180604052810190808051906020019092919050505080600160006101000a81548173ffffffffffffffffffffffffffffffffffffffff021916908373ffffffffffffffffffffffffffffffffffffffff160217905550600360009054906101000a900473ffffffffffffffffffffffffffffffffffffffff16600460006101000a81548173ffffffffffffffffffffffffffffffffffffffff021916908373ffffffffffffffffffffffffffffffffffffffff160217905550506133b28061012f6000396000f3006080604052600436106100db576000357c0100000000000000000000000000000000000000000000000000000000900463ffffffff1680631b7e7248146100e05780632f5da34714610167578063328d5ca11461020d578063477348921461026457806347da0a98146102bb57806366cfce421461033957806368448248146103905780637543db1e146103e7578063757d713f1461043f578063a1cc0e71146104c7578063a3eb6e5b14610552578063b85d8261146105a9578063b8dd458714610663578063cc082a891461073d578063defc3098146107c5575b600080fd5b3480156100ec57600080fd5b50610151600480360381019080803590602001908201803590602001908080601f016020809104026020016040519081016040528093929190818152602001838380828437820191505050505050919291929080359060200190929190505050610843565b6040518082815260200191505060405180910390f35b34801561017357600080fd5b50610192600480360381019080803590602001909291905050506108da565b6040518080602001828103825283818151815260200191508051906020019080838360005b838110156101d25780820151818401526020810190506101b7565b50505050905090810190601f1680156101ff5780820380516001836020036101000a031916815260200191505b509250505060405180910390f35b34801561021957600080fd5b50610222610995565b604051808273ffffffffffffffffffffffffffffffffffffffff1673ffffffffffffffffffffffffffffffffffffffff16815260200191505060405180910390f35b34801561027057600080fd5b506102a5600480360381019080803573ffffffffffffffffffffffffffffffffffffffff1690602001909291905050506109bb565b6040518082815260200191505060405180910390f35b61031f600480360381019080803590602001908201803590602001908080601f016020809104026020016040519081016040528093929190818152602001838380828437820191505050505050919291929080359060200190929190505050610abc565b604051808215151515815260200191505060405180910390f35b34801561034557600080fd5b5061034e611269565b604051808273ffffffffffffffffffffffffffffffffffffffff1673ffffffffffffffffffffffffffffffffffffffff16815260200191505060405180910390f35b34801561039c57600080fd5b506103a561128f565b604051808273ffffffffffffffffffffffffffffffffffffffff1673ffffffffffffffffffffffffffffffffffffffff16815260200191505060405180910390f35b610425600480360381019080803573ffffffffffffffffffffffffffffffffffffffff169060200190929190803590602001909291905050506112b5565b604051808215151515815260200191505060405180910390f35b6104ad600480360381019080803590602001908201803590602001908080601f01602080910402602001604051908101604052809392919081815260200183838082843782019150505050505091929192908035906020019092919080359060200190929190505050611628565b604051808215151515815260200191505060405180910390f35b3480156104d357600080fd5b50610538600480360381019080803590602001908201803590602001908080601f016020809104026020016040519081016040528093929190818152602001838380828437820191505050505050919291929080359060200190929190505050611aaf565b604051808215151515815260200191505060405180910390f35b34801561055e57600080fd5b50610567611b53565b604051808273ffffffffffffffffffffffffffffffffffffffff1673ffffffffffffffffffffffffffffffffffffffff16815260200191505060405180910390f35b610649600480360381019080803590602001908201803590602001908080601f0160208091040260200160405190810160405280939291908181526020018383808284378201915050505050509192919290803590602001908201803590602001908080601f0160208091040260200160405190810160405280939291908181526020018383808284378201915050505050509192919290505050611b7d565b604051808215151515815260200191505060405180910390f35b610723600480360381019080803590602001908201803590602001908080601f0160208091040260200160405190810160405280939291908181526020018383808284378201915050505050509192919290803590602001908201803590602001908080601f01602080910402602001604051908101604052809392919081815260200183838082843782019150505050505091929192908035906020019092919080359060200190929190803515159060200190929190505050611d20565b604051808215151515815260200191505060405180910390f35b6107ab600480360381019080803590602001908201803590602001908080601f01602080910402602001604051908101604052809392919081815260200183838082843782019150505050505091929192908035906020019092919080359060200190929190505050612123565b604051808215151515815260200191505060405180910390f35b610829600480360381019080803590602001908201803590602001908080601f0160208091040260200160405190810160405280939291908181526020018383808284378201915050505050509192919290803590602001909291905050506125e3565b604051808215151515815260200191505060405180910390f35b60006002836040518082805190602001908083835b60208310151561087d5780518252602082019150602081019050602083039250610858565b6001836020036101000a0380198251168184511680821785525050505050509050019150509081526020016040518091039020600101828154811015156108c057fe5b906000526020600020906005020160020154905092915050565b6000818154811015156108e957fe5b906000526020600020016000915090508054600181600116156101000203166002900480601f01602080910402602001604051908101604052809291908181526020018280546001816001161561010002031660029004801561098d5780601f106109625761010080835404028352916020019161098d565b820191906000526020600020905b81548152906001019060200180831161097057829003601f168201915b505050505081565b600160009054906101000a900473ffffffffffffffffffffffffffffffffffffffff1681565b6000600460009054906101000a900473ffffffffffffffffffffffffffffffffffffffff1673ffffffffffffffffffffffffffffffffffffffff1663f8b2cb4f836040518263ffffffff167c0100000000000000000000000000000000000000000000000000000000028152600401808273ffffffffffffffffffffffffffffffffffffffff1673ffffffffffffffffffffffffffffffffffffffff168152602001915050602060405180830381600087803b158015610a7a57600080fd5b505af1158015610a8e573d6000803e3d6000fd5b505050506040513d6020811015610aa457600080fd5b81019080805190602001909291905050509050919050565b6000600115156002846040518082805190602001908083835b602083101515610afa5780518252602082019150602081019050602083039250610ad5565b6001836020036101000a038019825116818451168082178552505050505050905001915050908152602001604051809103902060030160009054906101000a900460ff161515141515610b4c57600080fd5b6002836040518082805190602001908083835b602083101515610b845780518252602082019150602081019050602083039250610b5f565b6001836020036101000a0380198251168184511680821785525050505050509050019150509081526020016040518091039020600201610120604051908101604052803373ffffffffffffffffffffffffffffffffffffffff1681526020018481526020016002866040518082805190602001908083835b602083101515610c215780518252602082019150602081019050602083039250610bfc565b6001836020036101000a038019825116818451168082178552505050505050905001915050908152602001604051809103902060010185815481101515610c6457fe5b90600052602060002090600502016001018054600181600116156101000203166002900480601f016020809104026020016040519081016040528092919081815260200182805460018160011615610100020316600290048015610d095780601f10610cde57610100808354040283529160200191610d09565b820191906000526020600020905b815481529060010190602001808311610cec57829003601f168201915b505050505081526020016002866040518082805190602001908083835b602083101515610d4b5780518252602082019150602081019050602083039250610d26565b6001836020036101000a038019825116818451168082178552505050505050905001915050908152602001604051809103902060010185815481101515610d8e57fe5b90600052602060002090600502016002015481526020016002866040518082805190602001908083835b602083101515610ddd5780518252602082019150602081019050602083039250610db8565b6001836020036101000a038019825116818451168082178552505050505050905001915050908152602001604051809103902060010185815481101515610e2057fe5b9060005260206000209060050201600301548152602001428152602001600115158152602001600015158152602001600115158152509080600181540180825580915050906001820390600052602060002090600702016000909192909190915060008201518160000160006101000a81548173ffffffffffffffffffffffffffffffffffffffff021916908373ffffffffffffffffffffffffffffffffffffffff160217905550602082015181600101556040820151816002019080519060200190610eee929190613261565b50606082015181600301556080820151816004015560a0820151816005015560c08201518160060160006101000a81548160ff02191690831515021790555060e08201518160060160016101000a81548160ff0219169083151502179055506101008201518160060160026101000a81548160ff0219169083151502179055505050507f54376985c61133fd74ddfd5be0e7cacfebc5ee2b28b59fff7642086996680be483836002866040518082805190602001908083835b602083101515610fcc5780518252602082019150602081019050602083039250610fa7565b6001836020036101000a03801982511681845116808217855250505050505090500191505090815260200160405180910390206001018581548110151561100f57fe5b90600052602060002090600502016001016002876040518082805190602001908083835b6020831015156110585780518252602082019150602081019050602083039250611033565b6001836020036101000a03801982511681845116808217855250505050505090500191505090815260200160405180910390206001018681548110151561109b57fe5b9060005260206000209060050201600201546002886040518082805190602001908083835b6020831015156110e557805182526020820191506020810190506020830392506110c0565b6001836020036101000a03801982511681845116808217855250505050505090500191505090815260200160405180910390206001018781548110151561112857fe5b906000526020600020906005020160030154600160405180806020018781526020018060200186815260200185815260200184151515158152602001838103835289818151815260200191508051906020019080838360005b8381101561119c578082015181840152602081019050611181565b50505050905090810190601f1680156111c95780820380516001836020036101000a031916815260200191505b5083810382528781815460018160011615610100020316600290048152602001915080546001816001161561010002031660029004801561124b5780601f106112205761010080835404028352916020019161124b565b820191906000526020600020905b81548152906001019060200180831161122e57829003601f168201915b50509850505050505050505060405180910390a16001905092915050565b600360009054906101000a900473ffffffffffffffffffffffffffffffffffffffff1681565b600460009054906101000a900473ffffffffffffffffffffffffffffffffffffffff1681565b60003373ffffffffffffffffffffffffffffffffffffffff16600160009054906101000a900473ffffffffffffffffffffffffffffffffffffffff1673ffffffffffffffffffffffffffffffffffffffff1614151561131357600080fd5b81600460009054906101000a900473ffffffffffffffffffffffffffffffffffffffff1673ffffffffffffffffffffffffffffffffffffffff1663f8b2cb4f856040518263ffffffff167c0100000000000000000000000000000000000000000000000000000000028152600401808273ffffffffffffffffffffffffffffffffffffffff1673ffffffffffffffffffffffffffffffffffffffff168152602001915050602060405180830381600087803b1580156113d157600080fd5b505af11580156113e5573d6000803e3d6000fd5b505050506040513d60208110156113fb57600080fd5b81019080805190602001909291905050501015151561141957600080fd5b600460009054906101000a900473ffffffffffffffffffffffffffffffffffffffff1673ffffffffffffffffffffffffffffffffffffffff1663250dea0684846000036040518363ffffffff167c0100000000000000000000000000000000000000000000000000000000028152600401808373ffffffffffffffffffffffffffffffffffffffff1673ffffffffffffffffffffffffffffffffffffffff16815260200182815260200192505050602060405180830381600087803b1580156114e157600080fd5b505af11580156114f5573d6000803e3d6000fd5b505050506040513d602081101561150b57600080fd5b810190808051906020019092919050505050600460009054906101000a900473ffffffffffffffffffffffffffffffffffffffff1673ffffffffffffffffffffffffffffffffffffffff1663250dea0633846040518363ffffffff167c0100000000000000000000000000000000000000000000000000000000028152600401808373ffffffffffffffffffffffffffffffffffffffff1673ffffffffffffffffffffffffffffffffffffffff16815260200182815260200192505050602060405180830381600087803b1580156115e257600080fd5b505af11580156115f6573d6000803e3d6000fd5b505050506040513d602081101561160c57600080fd5b8101908080519060200190929190505050506001905092915050565b600080600115156002866040518082805190602001908083835b6020831015156116675780518252602082019150602081019050602083039250611642565b6001836020036101000a0380198251168184511680821785525050505050509050019150509081526020016040518091039020600101858154811015156116aa57fe5b906000526020600020906005020160040160019054906101000a900460ff1615151415156116d757600080fd5b600115156002866040518082805190602001908083835b60208310151561171357805182526020820191506020810190506020830392506116ee565b6001836020036101000a03801982511681845116808217855250505050505090500191505090815260200160405180910390206001018581548110151561175657fe5b906000526020600020906005020160040160009054906101000a900460ff16151514151561178357600080fd5b600115156002866040518082805190602001908083835b6020831015156117bf578051825260208201915060208101905060208303925061179a565b6001836020036101000a03801982511681845116808217855250505050505090500191505090815260200160405180910390206002018481548110151561180257fe5b906000526020600020906007020160060160029054906101000a900460ff16151514151561182f57600080fd5b836002866040518082805190602001908083835b6020831015156118685780518252602082019150602081019050602083039250611843565b6001836020036101000a0380198251168184511680821785525050505050509050019150509081526020016040518091039020600201848154811015156118ab57fe5b9060005260206000209060070201600101541415156118c957600080fd5b600015156002866040518082805190602001908083835b60208310151561190557805182526020820191506020810190506020830392506118e0565b6001836020036101000a03801982511681845116808217855250505050505090500191505090815260200160405180910390206002018481548110151561194857fe5b906000526020600020906007020160060160019054906101000a900460ff16151514151561197557600080fd5b6002856040518082805190602001908083835b6020831015156119ad5780518252602082019150602081019050602083039250611988565b6001836020036101000a0380198251168184511680821785525050505050509050019150509081526020016040518091039020600201838154811015156119f057fe5b9060005260206000209060070201600401546002866040518082805190602001908083835b602083101515611a3a5780518252602082019150602081019050602083039250611a15565b6001836020036101000a038019825116818451168082178552505050505050905001915050908152602001604051809103902060020184815481101515611a7d57fe5b9060005260206000209060070201600501544203019050600081101515611aa357600080fd5b60019150509392505050565b60006002836040518082805190602001908083835b602083101515611ae95780518252602082019150602081019050602083039250611ac4565b6001836020036101000a038019825116818451168082178552505050505050905001915050908152602001604051809103902060010182815481101515611b2c57fe5b906000526020600020906005020160040160009054906101000a900460ff16905092915050565b6000600160009054906101000a900473ffffffffffffffffffffffffffffffffffffffff16905090565b60008015156002846040518082805190602001908083835b602083101515611bba5780518252602082019150602081019050602083039250611b95565b6001836020036101000a038019825116818451168082178552505050505050905001915050908152602001604051809103902060030160009054906101000a900460ff161515141515611c0c57600080fd5b816002846040518082805190602001908083835b602083101515611c455780518252602082019150602081019050602083039250611c20565b6001836020036101000a03801982511681845116808217855250505050505090500191505090815260200160405180910390206000019080519060200190611c8e9291906132e1565b5060016002846040518082805190602001908083835b602083101515611cc95780518252602082019150602081019050602083039250611ca4565b6001836020036101000a038019825116818451168082178552505050505050905001915050908152602001604051809103902060030160006101000a81548160ff0219169083151502179055506001905092915050565b6000600115156002876040518082805190602001908083835b602083101515611d5e5780518252602082019150602081019050602083039250611d39565b6001836020036101000a038019825116818451168082178552505050505050905001915050908152602001604051809103902060030160009054906101000a900460ff161515141515611db057600080fd5b6002866040518082805190602001908083835b602083101515611de85780518252602082019150602081019050602083039250611dc3565b6001836020036101000a038019825116818451168082178552505050505050905001915050908152602001604051809103902060010160c0604051908101604052806002896040518082805190602001908083835b602083101515611e625780518252602082019150602081019050602083039250611e3d565b6001836020036101000a038019825116818451168082178552505050505050905001915050908152602001604051809103902060010180549050815260200187815260200186815260200185815260200184151581526020016001151581525090806001815401808255809150509060018203906000526020600020906005020160009091929091909150600082015181600001556020820151816001019080519060200190611f13929190613261565b50604082015181600201556060820151816003015560808201518160040160006101000a81548160ff02191690831515021790555060a08201518160040160016101000a81548160ff0219169083151502179055505050507fab7af84a14131a8d124961d4f462f1fb7e82b562aba899a3f28200031563b3e6866002886040518082805190602001908083835b602083101515611fc55780518252602082019150602081019050602083039250611fa0565b6001836020036101000a038019825116818451168082178552505050505050905001915050908152602001604051809103902060010180549050878787876001604051808060200188815260200180602001878152602001868152602001851515151581526020018415151515815260200183810383528a818151815260200191508051906020019080838360005b8381101561206f578082015181840152602081019050612054565b50505050905090810190601f16801561209c5780820380516001836020036101000a031916815260200191505b50838103825288818151815260200191508051906020019080838360005b838110156120d55780820151818401526020810190506120ba565b50505050905090810190601f1680156121025780820380516001836020036101000a031916815260200191505b50995050505050505050505060405180910390a16001905095945050505050565b6000600115156002856040518082805190602001908083835b602083101515612161578051825260208201915060208101905060208303925061213c565b6001836020036101000a038019825116818451168082178552505050505050905001915050908152602001604051809103902060030160009054906101000a900460ff1615151415156121b357600080fd5b600115156002856040518082805190602001908083835b6020831015156121ef57805182526020820191506020810190506020830392506121ca565b6001836020036101000a03801982511681845116808217855250505050505090500191505090815260200160405180910390206001018481548110151561223257fe5b906000526020600020906005020160040160019054906101000a900460ff16151514151561225f57600080fd5b600115156002856040518082805190602001908083835b60208310151561229b5780518252602082019150602081019050602083039250612276565b6001836020036101000a0380198251168184511680821785525050505050509050019150509081526020016040518091039020600101848154811015156122de57fe5b906000526020600020906005020160040160009054906101000a900460ff16151514151561230b57600080fd5b600115156002856040518082805190602001908083835b6020831015156123475780518252602082019150602081019050602083039250612322565b6001836020036101000a03801982511681845116808217855250505050505090500191505090815260200160405180910390206002018381548110151561238a57fe5b906000526020600020906007020160060160029054906101000a900460ff1615151415156123b757600080fd5b826002856040518082805190602001908083835b6020831015156123f057805182526020820191506020810190506020830392506123cb565b6001836020036101000a03801982511681845116808217855250505050505090500191505090815260200160405180910390206002018381548110151561243357fe5b90600052602060002090600702016001015414151561245157600080fd5b600015156002856040518082805190602001908083835b60208310151561248d5780518252602082019150602081019050602083039250612468565b6001836020036101000a0380198251168184511680821785525050505050509050019150509081526020016040518091039020600201838154811015156124d057fe5b906000526020600020906007020160060160019054906101000a900460ff1615151415156124fd57600080fd5b7f08962bc8e69e48f301d776a9cbc9ea37df6c12e29b411692176848df7ced36d783836002876040518082805190602001908083835b6020831015156125585780518252602082019150602081019050602083039250612533565b6001836020036101000a03801982511681845116808217855250505050505090500191505090815260200160405180910390206001018681548110151561259b57fe5b906000526020600020906005020160020154426040518085815260200184815260200183815260200182815260200194505050505060405180910390a1600190509392505050565b6000600115156002846040518082805190602001908083835b60208310151561262157805182526020820191506020810190506020830392506125fc565b6001836020036101000a038019825116818451168082178552505050505050905001915050908152602001604051809103902060030160009054906101000a900460ff16151514151561267357600080fd5b6002836040518082805190602001908083835b6020831015156126ab5780518252602082019150602081019050602083039250612686565b6001836020036101000a0380198251168184511680821785525050505050509050019150509081526020016040518091039020600101828154811015156126ee57fe5b906000526020600020906005020160020154600460009054906101000a900473ffffffffffffffffffffffffffffffffffffffff1673ffffffffffffffffffffffffffffffffffffffff1663f8b2cb4f336040518263ffffffff167c0100000000000000000000000000000000000000000000000000000000028152600401808273ffffffffffffffffffffffffffffffffffffffff1673ffffffffffffffffffffffffffffffffffffffff168152602001915050602060405180830381600087803b1580156127bd57600080fd5b505af11580156127d1573d6000803e3d6000fd5b505050506040513d60208110156127e757600080fd5b81019080805190602001909291905050501015151561280557600080fd5b6002836040518082805190602001908083835b60208310151561283d5780518252602082019150602081019050602083039250612818565b6001836020036101000a0380198251168184511680821785525050505050509050019150509081526020016040518091039020600201610120604051908101604052803373ffffffffffffffffffffffffffffffffffffffff1681526020018481526020016002866040518082805190602001908083835b6020831015156128da57805182526020820191506020810190506020830392506128b5565b6001836020036101000a03801982511681845116808217855250505050505090500191505090815260200160405180910390206001018581548110151561291d57fe5b90600052602060002090600502016001018054600181600116156101000203166002900480601f0160208091040260200160405190810160405280929190818152602001828054600181600116156101000203166002900480156129c25780601f10612997576101008083540402835291602001916129c2565b820191906000526020600020905b8154815290600101906020018083116129a557829003601f168201915b505050505081526020016002866040518082805190602001908083835b602083101515612a0457805182526020820191506020810190506020830392506129df565b6001836020036101000a038019825116818451168082178552505050505050905001915050908152602001604051809103902060010185815481101515612a4757fe5b90600052602060002090600502016002015481526020016002866040518082805190602001908083835b602083101515612a965780518252602082019150602081019050602083039250612a71565b6001836020036101000a038019825116818451168082178552505050505050905001915050908152602001604051809103902060010185815481101515612ad957fe5b9060005260206000209060050201600301548152602001428152602001600115158152602001600015158152602001600115158152509080600181540180825580915050906001820390600052602060002090600702016000909192909190915060008201518160000160006101000a81548173ffffffffffffffffffffffffffffffffffffffff021916908373ffffffffffffffffffffffffffffffffffffffff160217905550602082015181600101556040820151816002019080519060200190612ba7929190613261565b50606082015181600301556080820151816004015560a0820151816005015560c08201518160060160006101000a81548160ff02191690831515021790555060e08201518160060160016101000a81548160ff0219169083151502179055506101008201518160060160026101000a81548160ff021916908315150217905550505050600460009054906101000a900473ffffffffffffffffffffffffffffffffffffffff1673ffffffffffffffffffffffffffffffffffffffff1663250dea06336002866040518082805190602001908083835b602083101515612ca15780518252602082019150602081019050602083039250612c7c565b6001836020036101000a038019825116818451168082178552505050505050905001915050908152602001604051809103902060010185815481101515612ce457fe5b9060005260206000209060050201600201546000036040518363ffffffff167c0100000000000000000000000000000000000000000000000000000000028152600401808373ffffffffffffffffffffffffffffffffffffffff1673ffffffffffffffffffffffffffffffffffffffff16815260200182815260200192505050602060405180830381600087803b158015612d7e57600080fd5b505af1158015612d92573d6000803e3d6000fd5b505050506040513d6020811015612da857600080fd5b810190808051906020019092919050505050600460009054906101000a900473ffffffffffffffffffffffffffffffffffffffff1673ffffffffffffffffffffffffffffffffffffffff1663250dea06600160009054906101000a900473ffffffffffffffffffffffffffffffffffffffff166002866040518082805190602001908083835b602083101515612e535780518252602082019150602081019050602083039250612e2e565b6001836020036101000a038019825116818451168082178552505050505050905001915050908152602001604051809103902060010185815481101515612e9657fe5b9060005260206000209060050201600201546040518363ffffffff167c0100000000000000000000000000000000000000000000000000000000028152600401808373ffffffffffffffffffffffffffffffffffffffff1673ffffffffffffffffffffffffffffffffffffffff16815260200182815260200192505050602060405180830381600087803b158015612f2d57600080fd5b505af1158015612f41573d6000803e3d6000fd5b505050506040513d6020811015612f5757600080fd5b8101908080519060200190929190505050507f875b40a67d33b0171b10d7197a7c57cc4a8a03020e69c119753e83c07790640783836002866040518082805190602001908083835b602083101515612fc45780518252602082019150602081019050602083039250612f9f565b6001836020036101000a03801982511681845116808217855250505050505090500191505090815260200160405180910390206001018581548110151561300757fe5b90600052602060002090600502016001016002876040518082805190602001908083835b602083101515613050578051825260208201915060208101905060208303925061302b565b6001836020036101000a03801982511681845116808217855250505050505090500191505090815260200160405180910390206001018681548110151561309357fe5b9060005260206000209060050201600201546002886040518082805190602001908083835b6020831015156130dd57805182526020820191506020810190506020830392506130b8565b6001836020036101000a03801982511681845116808217855250505050505090500191505090815260200160405180910390206001018781548110151561312057fe5b906000526020600020906005020160030154600160405180806020018781526020018060200186815260200185815260200184151515158152602001838103835289818151815260200191508051906020019080838360005b83811015613194578082015181840152602081019050613179565b50505050905090810190601f1680156131c15780820380516001836020036101000a031916815260200191505b508381038252878181546001816001161561010002031660029004815260200191508054600181600116156101000203166002900480156132435780601f1061321857610100808354040283529160200191613243565b820191906000526020600020905b81548152906001019060200180831161322657829003601f168201915b50509850505050505050505060405180910390a16001905092915050565b828054600181600116156101000203166002900490600052602060002090601f016020900481019282601f106132a257805160ff19168380011785556132d0565b828001600101855582156132d0579182015b828111156132cf5782518255916020019190600101906132b4565b5b5090506132dd9190613361565b5090565b828054600181600116156101000203166002900490600052602060002090601f016020900481019282601f1061332257805160ff1916838001178555613350565b82800160010185558215613350579182015b8281111561334f578251825591602001919060010190613334565b5b50905061335d9190613361565b5090565b61338391905b8082111561337f576000816000905550600101613367565b5090565b905600a165627a7a723058208172e896808359459add50dbec082097fd1a1d24a1110352c2a83f145ac60a770029a165627a7a72305820e981a38df12c3052937b4ae924fd51da0a244c6145a0ca0e39f0f79b46eb5eff0029",
  "source": "pragma solidity ^0.4.24;\n\nimport \"./Merchant.sol\";\n\ncontract MerchantManager {\n\n    mapping(address => address) public merchants;\n    uint  merchants_index = 0;\n\n    event AddMerchant(address, address);\n\n    constructor() public payable {\n    }\n\n    function addMerchant() public payable returns (bool) {\n        Merchant merchant = new Merchant(msg.sender);\n        merchants[merchant] = msg.sender;\n        merchants_index++;\n        emit AddMerchant(msg.sender, merchant);\n        return true;\n    }\n\n    function getMerchants() public view returns (uint){\n        return merchants_index;\n    }\n}",
  "sourcePath": "/Users/hassanjawhar/Desktop/Workspace/rawbot/contracts/MerchantManager.sol",
  "compiler": {
    "name": "solc",
    "version": "0.4.24+commit.e67f0147.Emscripten.clang"
  },
  "schemaVersion": "2.0.0",
  "updatedAt": "2018-08-07T12:03:09.928Z"
}