{
  "contractName": "Merchant",
  "abi": [
    {
      "constant": true,
      "inputs": [],
      "name": "RECURRING_PAYMENT_STEP",
      "outputs": [
        {
          "name": "",
          "type": "uint256"
        }
      ],
      "payable": false,
      "stateMutability": "view",
      "type": "function"
    },
    {
      "constant": true,
      "inputs": [],
      "name": "rawbot_address",
      "outputs": [
        {
          "name": "",
          "type": "address"
        }
      ],
      "payable": false,
      "stateMutability": "view",
      "type": "function"
    },
    {
      "inputs": [
        {
          "name": "_merchant_address",
          "type": "address"
        }
      ],
      "payable": true,
      "stateMutability": "payable",
      "type": "constructor"
    },
    {
      "anonymous": false,
      "inputs": [
        {
          "indexed": false,
          "name": "",
          "type": "uint256"
        },
        {
          "indexed": false,
          "name": "",
          "type": "uint256"
        },
        {
          "indexed": false,
          "name": "",
          "type": "uint256"
        },
        {
          "indexed": false,
          "name": "",
          "type": "uint256"
        }
      ],
      "name": "Refund",
      "type": "event"
    },
    {
      "anonymous": false,
      "inputs": [
        {
          "indexed": false,
          "name": "",
          "type": "uint256"
        },
        {
          "indexed": false,
          "name": "",
          "type": "uint256"
        },
        {
          "indexed": false,
          "name": "",
          "type": "uint256"
        },
        {
          "indexed": false,
          "name": "",
          "type": "uint256"
        }
      ],
      "name": "RefundAutomatic",
      "type": "event"
    },
    {
      "anonymous": false,
      "inputs": [
        {
          "indexed": false,
          "name": "",
          "type": "uint256"
        },
        {
          "indexed": false,
          "name": "",
          "type": "uint256"
        },
        {
          "indexed": false,
          "name": "",
          "type": "uint256"
        },
        {
          "indexed": false,
          "name": "",
          "type": "uint256"
        }
      ],
      "name": "RecurrentRefund",
      "type": "event"
    },
    {
      "anonymous": false,
      "inputs": [
        {
          "indexed": false,
          "name": "",
          "type": "uint256"
        },
        {
          "indexed": false,
          "name": "",
          "type": "uint256"
        },
        {
          "indexed": false,
          "name": "",
          "type": "uint256"
        },
        {
          "indexed": false,
          "name": "",
          "type": "uint256"
        }
      ],
      "name": "RecurrentRefundAutomatic",
      "type": "event"
    },
    {
      "anonymous": false,
      "inputs": [
        {
          "indexed": false,
          "name": "",
          "type": "string"
        }
      ],
      "name": "RecurringPaymentLog",
      "type": "event"
    },
    {
      "anonymous": false,
      "inputs": [
        {
          "indexed": false,
          "name": "",
          "type": "string"
        },
        {
          "indexed": false,
          "name": "",
          "type": "uint256"
        },
        {
          "indexed": false,
          "name": "",
          "type": "string"
        },
        {
          "indexed": false,
          "name": "",
          "type": "uint256"
        },
        {
          "indexed": false,
          "name": "",
          "type": "uint256"
        },
        {
          "indexed": false,
          "name": "",
          "type": "bool"
        },
        {
          "indexed": false,
          "name": "",
          "type": "bool"
        }
      ],
      "name": "ActionAdd",
      "type": "event"
    },
    {
      "anonymous": false,
      "inputs": [
        {
          "indexed": false,
          "name": "",
          "type": "string"
        },
        {
          "indexed": false,
          "name": "",
          "type": "uint256"
        },
        {
          "indexed": false,
          "name": "",
          "type": "string"
        },
        {
          "indexed": false,
          "name": "",
          "type": "uint256"
        },
        {
          "indexed": false,
          "name": "",
          "type": "uint256"
        },
        {
          "indexed": false,
          "name": "",
          "type": "bool"
        }
      ],
      "name": "ActionEnable",
      "type": "event"
    },
    {
      "anonymous": false,
      "inputs": [
        {
          "indexed": false,
          "name": "",
          "type": "string"
        },
        {
          "indexed": false,
          "name": "",
          "type": "uint256"
        },
        {
          "indexed": false,
          "name": "",
          "type": "string"
        },
        {
          "indexed": false,
          "name": "",
          "type": "uint256"
        },
        {
          "indexed": false,
          "name": "",
          "type": "uint256"
        },
        {
          "indexed": false,
          "name": "",
          "type": "bool"
        }
      ],
      "name": "ActionDisable",
      "type": "event"
    },
    {
      "anonymous": false,
      "inputs": [
        {
          "indexed": false,
          "name": "",
          "type": "string"
        },
        {
          "indexed": false,
          "name": "",
          "type": "uint256"
        },
        {
          "indexed": false,
          "name": "",
          "type": "string"
        },
        {
          "indexed": false,
          "name": "",
          "type": "uint256"
        },
        {
          "indexed": false,
          "name": "",
          "type": "uint256"
        },
        {
          "indexed": false,
          "name": "",
          "type": "bool"
        },
        {
          "indexed": false,
          "name": "",
          "type": "bool"
        }
      ],
      "name": "RecurringActionAdd",
      "type": "event"
    },
    {
      "anonymous": false,
      "inputs": [
        {
          "indexed": false,
          "name": "",
          "type": "string"
        },
        {
          "indexed": false,
          "name": "",
          "type": "uint256"
        },
        {
          "indexed": false,
          "name": "",
          "type": "string"
        },
        {
          "indexed": false,
          "name": "",
          "type": "uint256"
        },
        {
          "indexed": false,
          "name": "",
          "type": "uint256"
        },
        {
          "indexed": false,
          "name": "",
          "type": "bool"
        }
      ],
      "name": "RecurringActionEnable",
      "type": "event"
    },
    {
      "anonymous": false,
      "inputs": [
        {
          "indexed": false,
          "name": "",
          "type": "string"
        },
        {
          "indexed": false,
          "name": "",
          "type": "uint256"
        },
        {
          "indexed": false,
          "name": "",
          "type": "string"
        },
        {
          "indexed": false,
          "name": "",
          "type": "uint256"
        },
        {
          "indexed": false,
          "name": "",
          "type": "uint256"
        },
        {
          "indexed": false,
          "name": "",
          "type": "bool"
        }
      ],
      "name": "RecurringActionDisable",
      "type": "event"
    },
    {
      "anonymous": false,
      "inputs": [
        {
          "indexed": false,
          "name": "",
          "type": "uint256"
        },
        {
          "indexed": false,
          "name": "",
          "type": "string"
        }
      ],
      "name": "AddIPFSHash",
      "type": "event"
    },
    {
      "constant": false,
      "inputs": [
        {
          "name": "device_serial_number",
          "type": "string"
        },
        {
          "name": "device_name",
          "type": "string"
        }
      ],
      "name": "addDevice",
      "outputs": [
        {
          "name": "",
          "type": "bool"
        }
      ],
      "payable": true,
      "stateMutability": "payable",
      "type": "function"
    },
    {
      "constant": false,
      "inputs": [
        {
          "name": "device_serial_number",
          "type": "string"
        },
        {
          "name": "action_name",
          "type": "string"
        },
        {
          "name": "action_price",
          "type": "uint256"
        },
        {
          "name": "action_duration",
          "type": "uint256"
        },
        {
          "name": "refundable",
          "type": "bool"
        }
      ],
      "name": "addAction",
      "outputs": [
        {
          "name": "",
          "type": "bool"
        }
      ],
      "payable": true,
      "stateMutability": "payable",
      "type": "function"
    },
    {
      "constant": false,
      "inputs": [
        {
          "name": "device_serial_number",
          "type": "string"
        },
        {
          "name": "action_name",
          "type": "string"
        },
        {
          "name": "action_price",
          "type": "uint256"
        },
        {
          "name": "_days",
          "type": "uint256"
        },
        {
          "name": "refundable",
          "type": "bool"
        }
      ],
      "name": "addRecurringAction",
      "outputs": [
        {
          "name": "",
          "type": "bool"
        }
      ],
      "payable": true,
      "stateMutability": "payable",
      "type": "function"
    },
    {
      "constant": false,
      "inputs": [
        {
          "name": "device_serial_number",
          "type": "string"
        },
        {
          "name": "action_id",
          "type": "uint256"
        }
      ],
      "name": "enableAction",
      "outputs": [
        {
          "name": "success",
          "type": "bool"
        }
      ],
      "payable": true,
      "stateMutability": "payable",
      "type": "function"
    },
    {
      "constant": false,
      "inputs": [
        {
          "name": "device_serial_number",
          "type": "string"
        },
        {
          "name": "action_id",
          "type": "uint256"
        }
      ],
      "name": "enableRecurringAction",
      "outputs": [
        {
          "name": "success",
          "type": "bool"
        }
      ],
      "payable": true,
      "stateMutability": "payable",
      "type": "function"
    },
    {
      "constant": false,
      "inputs": [
        {
          "name": "device_serial_number",
          "type": "string"
        },
        {
          "name": "action_id",
          "type": "uint256"
        }
      ],
      "name": "disableAction",
      "outputs": [
        {
          "name": "success",
          "type": "bool"
        }
      ],
      "payable": true,
      "stateMutability": "payable",
      "type": "function"
    },
    {
      "constant": false,
      "inputs": [
        {
          "name": "device_serial_number",
          "type": "string"
        },
        {
          "name": "action_id",
          "type": "uint256"
        }
      ],
      "name": "disableRecurringAction",
      "outputs": [
        {
          "name": "success",
          "type": "bool"
        }
      ],
      "payable": true,
      "stateMutability": "payable",
      "type": "function"
    },
    {
      "constant": false,
      "inputs": [
        {
          "name": "device_serial_number",
          "type": "string"
        },
        {
          "name": "action_id",
          "type": "uint256"
        },
        {
          "name": "_action_history_id",
          "type": "uint256"
        }
      ],
      "name": "refund",
      "outputs": [
        {
          "name": "",
          "type": "bool"
        }
      ],
      "payable": true,
      "stateMutability": "payable",
      "type": "function"
    },
    {
      "constant": false,
      "inputs": [
        {
          "name": "device_serial_number",
          "type": "string"
        },
        {
          "name": "action_id",
          "type": "uint256"
        },
        {
          "name": "_action_history_id",
          "type": "uint256"
        }
      ],
      "name": "refundAutomatic",
      "outputs": [
        {
          "name": "success",
          "type": "bool"
        }
      ],
      "payable": true,
      "stateMutability": "payable",
      "type": "function"
    },
    {
      "constant": true,
      "inputs": [
        {
          "name": "device_serial_number",
          "type": "string"
        },
        {
          "name": "action_id",
          "type": "uint256"
        }
      ],
      "name": "getActionPrice",
      "outputs": [
        {
          "name": "",
          "type": "uint256"
        }
      ],
      "payable": false,
      "stateMutability": "view",
      "type": "function"
    },
    {
      "constant": true,
      "inputs": [
        {
          "name": "device_serial_number",
          "type": "string"
        },
        {
          "name": "action_id",
          "type": "uint256"
        }
      ],
      "name": "isRefundable",
      "outputs": [
        {
          "name": "",
          "type": "bool"
        }
      ],
      "payable": false,
      "stateMutability": "view",
      "type": "function"
    },
    {
      "constant": true,
      "inputs": [],
      "name": "getMerchantAddress",
      "outputs": [
        {
          "name": "",
          "type": "address"
        }
      ],
      "payable": false,
      "stateMutability": "view",
      "type": "function"
    },
    {
      "constant": false,
      "inputs": [
        {
          "name": "device_address",
          "type": "address"
        },
        {
          "name": "value",
          "type": "uint256"
        }
      ],
      "name": "withdrawFromDevice",
      "outputs": [
        {
          "name": "success",
          "type": "bool"
        }
      ],
      "payable": true,
      "stateMutability": "payable",
      "type": "function"
    },
    {
      "constant": true,
      "inputs": [
        {
          "name": "_address",
          "type": "address"
        }
      ],
      "name": "getUserBalance",
      "outputs": [
        {
          "name": "",
          "type": "uint256"
        }
      ],
      "payable": false,
      "stateMutability": "view",
      "type": "function"
    },
    {
      "constant": false,
      "inputs": [
        {
          "name": "_hash",
          "type": "string"
        }
      ],
      "name": "addImageHash",
      "outputs": [],
      "payable": false,
      "stateMutability": "nonpayable",
      "type": "function"
    },
    {
      "constant": false,
      "inputs": [
        {
          "name": "myid",
          "type": "bytes32"
        },
        {
          "name": "result",
          "type": "string"
        },
        {
          "name": "proof",
          "type": "bytes"
        }
      ],
      "name": "__callback",
      "outputs": [],
      "payable": false,
      "stateMutability": "nonpayable",
      "type": "function"
    },
    {
      "constant": false,
      "inputs": [
        {
          "name": "myid",
          "type": "bytes32"
        },
        {
          "name": "result",
          "type": "string"
        }
      ],
      "name": "__callback",
      "outputs": [],
      "payable": false,
      "stateMutability": "nonpayable",
      "type": "function"
    }
  ],
  "bytecode": "0x608060405260006007556000600c55604051602080615abb8339810180604052810190808051906020019092919050505080600660006101000a81548173ffffffffffffffffffffffffffffffffffffffff021916908373ffffffffffffffffffffffffffffffffffffffff160217905550735238527616882251df1ae2c5353dc6cf0a515fdc600560006101000a81548173ffffffffffffffffffffffffffffffffffffffff021916908373ffffffffffffffffffffffffffffffffffffffff160217905550506159e5806100d66000396000f300608060405260043610610106576000357c0100000000000000000000000000000000000000000000000000000000900463ffffffff168062cfb6e51461010b57806308489f55146101365780631b7e72481461021057806327dc297e1461029757806338bbfa501461030e57806347734892146103cb57806347da0a98146104225780635942b743146104a057806366cfce421461051e5780636ef3027b146105755780637543db1e146105de578063757d713f14610636578063a1cc0e71146106be578063a3eb6e5b14610749578063aef34f69146107a0578063b85d82611461081e578063b8dd4587146108d8578063cc082a89146109b2578063defc309814610a3a575b600080fd5b34801561011757600080fd5b50610120610ab8565b6040518082815260200191505060405180910390f35b6101f6600480360381019080803590602001908201803590602001908080601f0160208091040260200160405190810160405280939291908181526020018383808284378201915050505050509192919290803590602001908201803590602001908080601f01602080910402602001604051908101604052809392919081815260200183838082843782019150505050505091929192908035906020019092919080359060200190929190803515159060200190929190505050610abe565b604051808215151515815260200191505060405180910390f35b34801561021c57600080fd5b50610281600480360381019080803590602001908201803590602001908080601f016020809104026020016040519081016040528093929190818152602001838380828437820191505050505050919291929080359060200190929190505050610f50565b6040518082815260200191505060405180910390f35b3480156102a357600080fd5b5061030c6004803603810190808035600019169060200190929190803590602001908201803590602001908080601f0160208091040260200160405190810160405280939291908181526020018383808284378201915050505050509192919290505050610fe7565b005b34801561031a57600080fd5b506103c96004803603810190808035600019169060200190929190803590602001908201803590602001908080601f0160208091040260200160405190810160405280939291908181526020018383808284378201915050505050509192919290803590602001908201803590602001908080601f016020809104026020016040519081016040528093929190818152602001838380828437820191505050505050919291929050505061102c565b005b3480156103d757600080fd5b5061040c600480360381019080803573ffffffffffffffffffffffffffffffffffffffff169060200190929190505050611031565b6040518082815260200191505060405180910390f35b610486600480360381019080803590602001908201803590602001908080601f016020809104026020016040519081016040528093929190818152602001838380828437820191505050505050919291929080359060200190929190505050611132565b604051808215151515815260200191505060405180910390f35b610504600480360381019080803590602001908201803590602001908080601f0160208091040260200160405190810160405280939291908181526020018383808284378201915050505050509192919290803590602001909291905050506117cd565b604051808215151515815260200191505060405180910390f35b34801561052a57600080fd5b506105336125b4565b604051808273ffffffffffffffffffffffffffffffffffffffff1673ffffffffffffffffffffffffffffffffffffffff16815260200191505060405180910390f35b34801561058157600080fd5b506105dc600480360381019080803590602001908201803590602001908080601f01602080910402602001604051908101604052809392919081815260200183838082843782019150505050505091929192905050506125cc565b005b61061c600480360381019080803573ffffffffffffffffffffffffffffffffffffffff169060200190929190803590602001909291905050506126b1565b604051808215151515815260200191505060405180910390f35b6106a4600480360381019080803590602001908201803590602001908080601f01602080910402602001604051908101604052809392919081815260200183838082843782019150505050505091929192908035906020019092919080359060200190929190505050612a24565b604051808215151515815260200191505060405180910390f35b3480156106ca57600080fd5b5061072f600480360381019080803590602001908201803590602001908080601f016020809104026020016040519081016040528093929190818152602001838380828437820191505050505050919291929080359060200190929190505050612e99565b604051808215151515815260200191505060405180910390f35b34801561075557600080fd5b5061075e612f3d565b604051808273ffffffffffffffffffffffffffffffffffffffff1673ffffffffffffffffffffffffffffffffffffffff16815260200191505060405180910390f35b610804600480360381019080803590602001908201803590602001908080601f016020809104026020016040519081016040528093929190818152602001838380828437820191505050505050919291929080359060200190929190505050612f67565b604051808215151515815260200191505060405180910390f35b6108be600480360381019080803590602001908201803590602001908080601f0160208091040260200160405190810160405280939291908181526020018383808284378201915050505050509192919290803590602001908201803590602001908080601f0160208091040260200160405190810160405280939291908181526020018383808284378201915050505050509192919290505050613602565b604051808215151515815260200191505060405180910390f35b610998600480360381019080803590602001908201803590602001908080601f0160208091040260200160405190810160405280939291908181526020018383808284378201915050505050509192919290803590602001908201803590602001908080601f01602080910402602001604051908101604052809392919081815260200183838082843782019150505050505091929192908035906020019092919080359060200190929190803515159060200190929190505050613823565b604051808215151515815260200191505060405180910390f35b610a20600480360381019080803590602001908201803590602001908080601f01602080910402602001604051908101604052809392919081815260200183838082843782019150505050505091929192908035906020019092919080359060200190929190505050613cb5565b604051808215151515815260200191505060405180910390f35b610a9e600480360381019080803590602001908201803590602001908080601f016020809104026020016040519081016040528093929190818152602001838380828437820191505050505050919291929080359060200190929190505050614064565b604051808215151515815260200191505060405180910390f35b600c5481565b6000600115156009876040518082805190602001908083835b602083101515610afc5780518252602082019150602081019050602083039250610ad7565b6001836020036101000a038019825116818451168082178552505050505050905001915050908152602001604051809103902060030160009054906101000a900460ff161515141515610bdd576040517f08c379a00000000000000000000000000000000000000000000000000000000081526004018080602001828103825260258152602001807f4465766963652073657269616c206e756d626572206973206e6f74206176616981526020017f6c61626c6500000000000000000000000000000000000000000000000000000081525060400191505060405180910390fd5b6009866040518082805190602001908083835b602083101515610c155780518252602082019150602081019050602083039250610bf0565b6001836020036101000a038019825116818451168082178552505050505050905001915050908152602001604051809103902060020160c0604051908101604052806009896040518082805190602001908083835b602083101515610c8f5780518252602082019150602081019050602083039250610c6a565b6001836020036101000a038019825116818451168082178552505050505050905001915050908152602001604051809103902060020180549050815260200187815260200186815260200185815260200184151581526020016001151581525090806001815401808255809150509060018203906000526020600020906005020160009091929091909150600082015181600001556020820151816001019080519060200190610d40929190615894565b50604082015181600201556060820151816003015560808201518160040160006101000a81548160ff02191690831515021790555060a08201518160040160016101000a81548160ff0219169083151502179055505050507fab7af84a14131a8d124961d4f462f1fb7e82b562aba899a3f28200031563b3e6866009886040518082805190602001908083835b602083101515610df25780518252602082019150602081019050602083039250610dcd565b6001836020036101000a038019825116818451168082178552505050505050905001915050908152602001604051809103902060020180549050878787876001604051808060200188815260200180602001878152602001868152602001851515151581526020018415151515815260200183810383528a818151815260200191508051906020019080838360005b83811015610e9c578082015181840152602081019050610e81565b50505050905090810190601f168015610ec95780820380516001836020036101000a031916815260200191505b50838103825288818151815260200191508051906020019080838360005b83811015610f02578082015181840152602081019050610ee7565b50505050905090810190601f168015610f2f5780820380516001836020036101000a031916815260200191505b50995050505050505050505060405180910390a16001905095945050505050565b60006009836040518082805190602001908083835b602083101515610f8a5780518252602082019150602081019050602083039250610f65565b6001836020036101000a038019825116818451168082178552505050505050905001915050908152602001604051809103902060010182815481101515610fcd57fe5b906000526020600020906005020160020154905092915050565b610fef6146ff565b73ffffffffffffffffffffffffffffffffffffffff163373ffffffffffffffffffffffffffffffffffffffff1614151561102857600080fd5b5050565b505050565b6000600560009054906101000a900473ffffffffffffffffffffffffffffffffffffffff1673ffffffffffffffffffffffffffffffffffffffff1663f8b2cb4f836040518263ffffffff167c0100000000000000000000000000000000000000000000000000000000028152600401808273ffffffffffffffffffffffffffffffffffffffff1673ffffffffffffffffffffffffffffffffffffffff168152602001915050602060405180830381600087803b1580156110f057600080fd5b505af1158015611104573d6000803e3d6000fd5b505050506040513d602081101561111a57600080fd5b81019080805190602001909291905050509050919050565b6000600115156009846040518082805190602001908083835b602083101515611170578051825260208201915060208101905060208303925061114b565b6001836020036101000a038019825116818451168082178552505050505050905001915050908152602001604051809103902060030160009054906101000a900460ff161515141515611251576040517f08c379a00000000000000000000000000000000000000000000000000000000081526004018080602001828103825260258152602001807f4465766963652073657269616c206e756d626572206973206e6f74206176616981526020017f6c61626c6500000000000000000000000000000000000000000000000000000081525060400191505060405180910390fd5b600115156009846040518082805190602001908083835b60208310151561128d5780518252602082019150602081019050602083039250611268565b6001836020036101000a0380198251168184511680821785525050505050509050019150509081526020016040518091039020600101838154811015156112d057fe5b906000526020600020906005020160040160019054906101000a900460ff16151514151561138c576040517f08c379a00000000000000000000000000000000000000000000000000000000081526004018080602001828103825260218152602001807f44657669636520616374696f6e206964206973206e6f7420617661696c61626c81526020017f650000000000000000000000000000000000000000000000000000000000000081525060400191505060405180910390fd5b600a600083815260200190815260200160002060c0604051908101604052803373ffffffffffffffffffffffffffffffffffffffff168152602001848152602001428152602001600015158152602001600015158152602001600115158152509080600181540180825580915050906001820390600052602060002090600402016000909192909190915060008201518160000160006101000a81548173ffffffffffffffffffffffffffffffffffffffff021916908373ffffffffffffffffffffffffffffffffffffffff160217905550602082015181600101556040820151816002015560608201518160030160006101000a81548160ff02191690831515021790555060808201518160030160016101000a81548160ff02191690831515021790555060a08201518160030160026101000a81548160ff0219169083151502179055505050507f54376985c61133fd74ddfd5be0e7cacfebc5ee2b28b59fff7642086996680be483836009866040518082805190602001908083835b602083101515611530578051825260208201915060208101905060208303925061150b565b6001836020036101000a03801982511681845116808217855250505050505090500191505090815260200160405180910390206001018581548110151561157357fe5b90600052602060002090600502016001016009876040518082805190602001908083835b6020831015156115bc5780518252602082019150602081019050602083039250611597565b6001836020036101000a0380198251168184511680821785525050505050509050019150509081526020016040518091039020600101868154811015156115ff57fe5b9060005260206000209060050201600201546009886040518082805190602001908083835b6020831015156116495780518252602082019150602081019050602083039250611624565b6001836020036101000a03801982511681845116808217855250505050505090500191505090815260200160405180910390206001018781548110151561168c57fe5b906000526020600020906005020160030154600160405180806020018781526020018060200186815260200185815260200184151515158152602001838103835289818151815260200191508051906020019080838360005b838110156117005780820151818401526020810190506116e5565b50505050905090810190601f16801561172d5780820380516001836020036101000a031916815260200191505b508381038252878181546001816001161561010002031660029004815260200191508054600181600116156101000203166002900480156117af5780601f10611784576101008083540402835291602001916117af565b820191906000526020600020905b81548152906001019060200180831161179257829003601f168201915b50509850505050505050505060405180910390a16001905092915050565b60003073ffffffffffffffffffffffffffffffffffffffff16316118256040805190810160405280600381526020017f55524c0000000000000000000000000000000000000000000000000000000000815250614a5d565b111561183457600090506125ae565b600115156009846040518082805190602001908083835b602083101515611870578051825260208201915060208101905060208303925061184b565b6001836020036101000a038019825116818451168082178552505050505050905001915050908152602001604051809103902060030160009054906101000a900460ff161515141515611951576040517f08c379a00000000000000000000000000000000000000000000000000000000081526004018080602001828103825260258152602001807f4465766963652073657269616c206e756d626572206973206e6f74206176616981526020017f6c61626c6500000000000000000000000000000000000000000000000000000081525060400191505060405180910390fd5b600115156009846040518082805190602001908083835b60208310151561198d5780518252602082019150602081019050602083039250611968565b6001836020036101000a0380198251168184511680821785525050505050509050019150509081526020016040518091039020600201838154811015156119d057fe5b906000526020600020906005020160040160019054906101000a900460ff161515141515611a8c576040517f08c379a00000000000000000000000000000000000000000000000000000000081526004018080602001828103825260218152602001807f44657669636520616374696f6e206964206973206e6f7420617661696c61626c81526020017f650000000000000000000000000000000000000000000000000000000000000081525060400191505060405180910390fd5b6009836040518082805190602001908083835b602083101515611ac45780518252602082019150602081019050602083039250611a9f565b6001836020036101000a038019825116818451168082178552505050505050905001915050908152602001604051809103902060020182815481101515611b0757fe5b906000526020600020906005020160020154600560009054906101000a900473ffffffffffffffffffffffffffffffffffffffff1673ffffffffffffffffffffffffffffffffffffffff1663f8b2cb4f336040518263ffffffff167c0100000000000000000000000000000000000000000000000000000000028152600401808273ffffffffffffffffffffffffffffffffffffffff1673ffffffffffffffffffffffffffffffffffffffff168152602001915050602060405180830381600087803b158015611bd657600080fd5b505af1158015611bea573d6000803e3d6000fd5b505050506040513d6020811015611c0057600080fd5b810190808051906020019092919050505010151515611c87576040517f08c379a00000000000000000000000000000000000000000000000000000000081526004018080602001828103825260208152602001807f5573657220646f65736e2774206861766520656e6f7567682062616c616e636581525060200191505060405180910390fd5b600b600083815260200190815260200160002060c0604051908101604052803373ffffffffffffffffffffffffffffffffffffffff168152602001848152602001428152602001600115158152602001600015158152602001600115158152509080600181540180825580915050906001820390600052602060002090600402016000909192909190915060008201518160000160006101000a81548173ffffffffffffffffffffffffffffffffffffffff021916908373ffffffffffffffffffffffffffffffffffffffff160217905550602082015181600101556040820151816002015560608201518160030160006101000a81548160ff02191690831515021790555060808201518160030160016101000a81548160ff02191690831515021790555060a08201518160030160026101000a81548160ff021916908315150217905550505050600f6080604051908101604052808581526020018481526020016001600b60008781526020019081526020016000208054905003815260200160011515815250908060018154018082558091505090600182039060005260206000209060040201600090919290919091506000820151816000019080519060200190611e57929190615894565b50602082015181600101556040820151816002015560608201518160030160006101000a81548160ff021916908315150217905550505050600560009054906101000a900473ffffffffffffffffffffffffffffffffffffffff1673ffffffffffffffffffffffffffffffffffffffff1663250dea06336009866040518082805190602001908083835b602083101515611f065780518252602082019150602081019050602083039250611ee1565b6001836020036101000a038019825116818451168082178552505050505050905001915050908152602001604051809103902060020185815481101515611f4957fe5b9060005260206000209060050201600201546000036040518363ffffffff167c0100000000000000000000000000000000000000000000000000000000028152600401808373ffffffffffffffffffffffffffffffffffffffff1673ffffffffffffffffffffffffffffffffffffffff16815260200182815260200192505050602060405180830381600087803b158015611fe357600080fd5b505af1158015611ff7573d6000803e3d6000fd5b505050506040513d602081101561200d57600080fd5b810190808051906020019092919050505050600560009054906101000a900473ffffffffffffffffffffffffffffffffffffffff1673ffffffffffffffffffffffffffffffffffffffff1663250dea06600660009054906101000a900473ffffffffffffffffffffffffffffffffffffffff166009866040518082805190602001908083835b6020831015156120b85780518252602082019150602081019050602083039250612093565b6001836020036101000a0380198251168184511680821785525050505050509050019150509081526020016040518091039020600201858154811015156120fb57fe5b9060005260206000209060050201600201546040518363ffffffff167c0100000000000000000000000000000000000000000000000000000000028152600401808373ffffffffffffffffffffffffffffffffffffffff1673ffffffffffffffffffffffffffffffffffffffff16815260200182815260200192505050602060405180830381600087803b15801561219257600080fd5b505af11580156121a6573d6000803e3d6000fd5b505050506040513d60208110156121bc57600080fd5b8101908080519060200190929190505050506122b26018603c806009876040518082805190602001908083835b60208310151561220e57805182526020820191506020810190506020830392506121e9565b6001836020036101000a03801982511681845116808217855250505050505090500191505090815260200160405180910390206002018681548110151561225157fe5b9060005260206000209060050201600301540202026040805190810160405280600381526020017f55524c00000000000000000000000000000000000000000000000000000000008152506020604051908101604052806000815250614e2d565b506001600c819055507f875b40a67d33b0171b10d7197a7c57cc4a8a03020e69c119753e83c07790640783836009866040518082805190602001908083835b60208310151561231657805182526020820191506020810190506020830392506122f1565b6001836020036101000a03801982511681845116808217855250505050505090500191505090815260200160405180910390206002018581548110151561235957fe5b90600052602060002090600502016001016009876040518082805190602001908083835b6020831015156123a2578051825260208201915060208101905060208303925061237d565b6001836020036101000a0380198251168184511680821785525050505050509050019150509081526020016040518091039020600201868154811015156123e557fe5b9060005260206000209060050201600201546009886040518082805190602001908083835b60208310151561242f578051825260208201915060208101905060208303925061240a565b6001836020036101000a03801982511681845116808217855250505050505090500191505090815260200160405180910390206002018781548110151561247257fe5b906000526020600020906005020160030154600160405180806020018781526020018060200186815260200185815260200184151515158152602001838103835289818151815260200191508051906020019080838360005b838110156124e65780820151818401526020810190506124cb565b50505050905090810190601f1680156125135780820380516001836020036101000a031916815260200191505b508381038252878181546001816001161561010002031660029004815260200191508054600181600116156101000203166002900480156125955780601f1061256a57610100808354040283529160200191612595565b820191906000526020600020905b81548152906001019060200180831161257857829003601f168201915b50509850505050505050505060405180910390a1600190505b92915050565b735238527616882251df1ae2c5353dc6cf0a515fdc81565b8060086000600754815260200190815260200160002090805190602001906125f5929190615914565b507f194eca99f82bff3034def8c3fc7fab887bd83660b1f0ef3a0f4f909bf5a19ac0600754826040518083815260200180602001828103825283818151815260200191508051906020019080838360005b83811015612661578082015181840152602081019050612646565b50505050905090810190601f16801561268e5780820380516001836020036101000a031916815260200191505b50935050505060405180910390a160076000815480929190600101919050555050565b60003373ffffffffffffffffffffffffffffffffffffffff16600660009054906101000a900473ffffffffffffffffffffffffffffffffffffffff1673ffffffffffffffffffffffffffffffffffffffff1614151561270f57600080fd5b81600560009054906101000a900473ffffffffffffffffffffffffffffffffffffffff1673ffffffffffffffffffffffffffffffffffffffff1663f8b2cb4f856040518263ffffffff167c0100000000000000000000000000000000000000000000000000000000028152600401808273ffffffffffffffffffffffffffffffffffffffff1673ffffffffffffffffffffffffffffffffffffffff168152602001915050602060405180830381600087803b1580156127cd57600080fd5b505af11580156127e1573d6000803e3d6000fd5b505050506040513d60208110156127f757600080fd5b81019080805190602001909291905050501015151561281557600080fd5b600560009054906101000a900473ffffffffffffffffffffffffffffffffffffffff1673ffffffffffffffffffffffffffffffffffffffff1663250dea0684846000036040518363ffffffff167c0100000000000000000000000000000000000000000000000000000000028152600401808373ffffffffffffffffffffffffffffffffffffffff1673ffffffffffffffffffffffffffffffffffffffff16815260200182815260200192505050602060405180830381600087803b1580156128dd57600080fd5b505af11580156128f1573d6000803e3d6000fd5b505050506040513d602081101561290757600080fd5b810190808051906020019092919050505050600560009054906101000a900473ffffffffffffffffffffffffffffffffffffffff1673ffffffffffffffffffffffffffffffffffffffff1663250dea0633846040518363ffffffff167c0100000000000000000000000000000000000000000000000000000000028152600401808373ffffffffffffffffffffffffffffffffffffffff1673ffffffffffffffffffffffffffffffffffffffff16815260200182815260200192505050602060405180830381600087803b1580156129de57600080fd5b505af11580156129f2573d6000803e3d6000fd5b505050506040513d6020811015612a0857600080fd5b8101908080519060200190929190505050506001905092915050565b600080600115156009866040518082805190602001908083835b602083101515612a635780518252602082019150602081019050602083039250612a3e565b6001836020036101000a038019825116818451168082178552505050505050905001915050908152602001604051809103902060030160009054906101000a900460ff161515141515612ab557600080fd5b600115156009866040518082805190602001908083835b602083101515612af15780518252602082019150602081019050602083039250612acc565b6001836020036101000a038019825116818451168082178552505050505050905001915050908152602001604051809103902060010185815481101515612b3457fe5b906000526020600020906005020160040160019054906101000a900460ff161515141515612b6157600080fd5b600115156009866040518082805190602001908083835b602083101515612b9d5780518252602082019150602081019050602083039250612b78565b6001836020036101000a038019825116818451168082178552505050505050905001915050908152602001604051809103902060010185815481101515612be057fe5b906000526020600020906005020160040160009054906101000a900460ff161515141515612c0d57600080fd5b60011515600a600086815260200190815260200160002084815481101515612c3157fe5b906000526020600020906004020160030160029054906101000a900460ff161515141515612c5e57600080fd5b83600a600086815260200190815260200160002084815481101515612c7f57fe5b906000526020600020906004020160010154141515612c9d57600080fd5b60001515600a600086815260200190815260200160002084815481101515612cc157fe5b906000526020600020906004020160030160019054906101000a900460ff161515141515612cee57600080fd5b6009856040518082805190602001908083835b602083101515612d265780518252602082019150602081019050602083039250612d01565b6001836020036101000a038019825116818451168082178552505050505050905001915050908152602001604051809103902060010184815481101515612d6957fe5b906000526020600020906005020160030154600a600086815260200190815260200160002084815481101515612d9b57fe5b90600052602060002090600402016002015401420390507fff0f80a21f0b8ffece1482bb76715974416021bd0b68a528dfcd29421cd67dd484846009886040518082805190602001908083835b602083101515612e0d5780518252602082019150602081019050602083039250612de8565b6001836020036101000a038019825116818451168082178552505050505050905001915050908152602001604051809103902060010187815481101515612e5057fe5b906000526020600020906005020160020154426040518085815260200184815260200183815260200182815260200194505050505060405180910390a160019150509392505050565b60006009836040518082805190602001908083835b602083101515612ed35780518252602082019150602081019050602083039250612eae565b6001836020036101000a038019825116818451168082178552505050505050905001915050908152602001604051809103902060010182815481101515612f1657fe5b906000526020600020906005020160040160009054906101000a900460ff16905092915050565b6000600660009054906101000a900473ffffffffffffffffffffffffffffffffffffffff16905090565b6000600115156009846040518082805190602001908083835b602083101515612fa55780518252602082019150602081019050602083039250612f80565b6001836020036101000a038019825116818451168082178552505050505050905001915050908152602001604051809103902060030160009054906101000a900460ff161515141515613086576040517f08c379a00000000000000000000000000000000000000000000000000000000081526004018080602001828103825260258152602001807f4465766963652073657269616c206e756d626572206973206e6f74206176616981526020017f6c61626c6500000000000000000000000000000000000000000000000000000081525060400191505060405180910390fd5b600115156009846040518082805190602001908083835b6020831015156130c2578051825260208201915060208101905060208303925061309d565b6001836020036101000a03801982511681845116808217855250505050505090500191505090815260200160405180910390206002018381548110151561310557fe5b906000526020600020906005020160040160019054906101000a900460ff1615151415156131c1576040517f08c379a00000000000000000000000000000000000000000000000000000000081526004018080602001828103825260218152602001807f44657669636520616374696f6e206964206973206e6f7420617661696c61626c81526020017f650000000000000000000000000000000000000000000000000000000000000081525060400191505060405180910390fd5b600b600083815260200190815260200160002060c0604051908101604052803373ffffffffffffffffffffffffffffffffffffffff168152602001848152602001428152602001600015158152602001600015158152602001600115158152509080600181540180825580915050906001820390600052602060002090600402016000909192909190915060008201518160000160006101000a81548173ffffffffffffffffffffffffffffffffffffffff021916908373ffffffffffffffffffffffffffffffffffffffff160217905550602082015181600101556040820151816002015560608201518160030160006101000a81548160ff02191690831515021790555060808201518160030160016101000a81548160ff02191690831515021790555060a08201518160030160026101000a81548160ff0219169083151502179055505050507f54376985c61133fd74ddfd5be0e7cacfebc5ee2b28b59fff7642086996680be483836009866040518082805190602001908083835b6020831015156133655780518252602082019150602081019050602083039250613340565b6001836020036101000a0380198251168184511680821785525050505050509050019150509081526020016040518091039020600201858154811015156133a857fe5b90600052602060002090600502016001016009876040518082805190602001908083835b6020831015156133f157805182526020820191506020810190506020830392506133cc565b6001836020036101000a03801982511681845116808217855250505050505090500191505090815260200160405180910390206002018681548110151561343457fe5b9060005260206000209060050201600201546009886040518082805190602001908083835b60208310151561347e5780518252602082019150602081019050602083039250613459565b6001836020036101000a0380198251168184511680821785525050505050509050019150509081526020016040518091039020600201878154811015156134c157fe5b906000526020600020906005020160030154600160405180806020018781526020018060200186815260200185815260200184151515158152602001838103835289818151815260200191508051906020019080838360005b8381101561353557808201518184015260208101905061351a565b50505050905090810190601f1680156135625780820380516001836020036101000a031916815260200191505b508381038252878181546001816001161561010002031660029004815260200191508054600181600116156101000203166002900480156135e45780601f106135b9576101008083540402835291602001916135e4565b820191906000526020600020905b8154815290600101906020018083116135c757829003601f168201915b50509850505050505050505060405180910390a16001905092915050565b60008015156009846040518082805190602001908083835b60208310151561363f578051825260208201915060208101905060208303925061361a565b6001836020036101000a038019825116818451168082178552505050505050905001915050908152602001604051809103902060030160009054906101000a900460ff16151514151561369157600080fd5b816009846040518082805190602001908083835b6020831015156136ca57805182526020820191506020810190506020830392506136a5565b6001836020036101000a03801982511681845116808217855250505050505090500191505090815260200160405180910390206000019080519060200190613713929190615914565b5060016009846040518082805190602001908083835b60208310151561374e5780518252602082019150602081019050602083039250613729565b6001836020036101000a038019825116818451168082178552505050505050905001915050908152602001604051809103902060030160006101000a81548160ff021916908315150217905550600d8390806001815401808255809150509060018203906000526020600020016000909192909190915090805190602001906137d8929190615914565b5050600e829080600181540180825580915050906001820390600052602060002001600090919290919091509080519060200190613817929190615914565b50506001905092915050565b6000600115156009876040518082805190602001908083835b602083101515613861578051825260208201915060208101905060208303925061383c565b6001836020036101000a038019825116818451168082178552505050505050905001915050908152602001604051809103902060030160009054906101000a900460ff161515141515613942576040517f08c379a00000000000000000000000000000000000000000000000000000000081526004018080602001828103825260258152602001807f4465766963652073657269616c206e756d626572206973206e6f74206176616981526020017f6c61626c6500000000000000000000000000000000000000000000000000000081525060400191505060405180910390fd5b6009866040518082805190602001908083835b60208310151561397a5780518252602082019150602081019050602083039250613955565b6001836020036101000a038019825116818451168082178552505050505050905001915050908152602001604051809103902060010160c0604051908101604052806009896040518082805190602001908083835b6020831015156139f457805182526020820191506020810190506020830392506139cf565b6001836020036101000a038019825116818451168082178552505050505050905001915050908152602001604051809103902060010180549050815260200187815260200186815260200185815260200184151581526020016001151581525090806001815401808255809150509060018203906000526020600020906005020160009091929091909150600082015181600001556020820151816001019080519060200190613aa5929190615894565b50604082015181600201556060820151816003015560808201518160040160006101000a81548160ff02191690831515021790555060a08201518160040160016101000a81548160ff0219169083151502179055505050507fab7af84a14131a8d124961d4f462f1fb7e82b562aba899a3f28200031563b3e6866009886040518082805190602001908083835b602083101515613b575780518252602082019150602081019050602083039250613b32565b6001836020036101000a038019825116818451168082178552505050505050905001915050908152602001604051809103902060010180549050878787876001604051808060200188815260200180602001878152602001868152602001851515151581526020018415151515815260200183810383528a818151815260200191508051906020019080838360005b83811015613c01578082015181840152602081019050613be6565b50505050905090810190601f168015613c2e5780820380516001836020036101000a031916815260200191505b50838103825288818151815260200191508051906020019080838360005b83811015613c67578082015181840152602081019050613c4c565b50505050905090810190601f168015613c945780820380516001836020036101000a031916815260200191505b50995050505050505050505060405180910390a16001905095945050505050565b6000600115156009856040518082805190602001908083835b602083101515613cf35780518252602082019150602081019050602083039250613cce565b6001836020036101000a038019825116818451168082178552505050505050905001915050908152602001604051809103902060030160009054906101000a900460ff161515141515613d4557600080fd5b600115156009856040518082805190602001908083835b602083101515613d815780518252602082019150602081019050602083039250613d5c565b6001836020036101000a038019825116818451168082178552505050505050905001915050908152602001604051809103902060010184815481101515613dc457fe5b906000526020600020906005020160040160019054906101000a900460ff161515141515613df157600080fd5b600115156009856040518082805190602001908083835b602083101515613e2d5780518252602082019150602081019050602083039250613e08565b6001836020036101000a038019825116818451168082178552505050505050905001915050908152602001604051809103902060010184815481101515613e7057fe5b906000526020600020906005020160040160009054906101000a900460ff161515141515613e9d57600080fd5b60011515600a600085815260200190815260200160002083815481101515613ec157fe5b906000526020600020906004020160030160029054906101000a900460ff161515141515613eee57600080fd5b82600a600085815260200190815260200160002083815481101515613f0f57fe5b906000526020600020906004020160010154141515613f2d57600080fd5b60001515600a600085815260200190815260200160002083815481101515613f5157fe5b906000526020600020906004020160030160019054906101000a900460ff161515141515613f7e57600080fd5b7f08962bc8e69e48f301d776a9cbc9ea37df6c12e29b411692176848df7ced36d783836009876040518082805190602001908083835b602083101515613fd95780518252602082019150602081019050602083039250613fb4565b6001836020036101000a03801982511681845116808217855250505050505090500191505090815260200160405180910390206001018681548110151561401c57fe5b906000526020600020906005020160020154426040518085815260200184815260200183815260200182815260200194505050505060405180910390a1600190509392505050565b6000600115156009846040518082805190602001908083835b6020831015156140a2578051825260208201915060208101905060208303925061407d565b6001836020036101000a038019825116818451168082178552505050505050905001915050908152602001604051809103902060030160009054906101000a900460ff161515141515614183576040517f08c379a00000000000000000000000000000000000000000000000000000000081526004018080602001828103825260258152602001807f4465766963652073657269616c206e756d626572206973206e6f74206176616981526020017f6c61626c6500000000000000000000000000000000000000000000000000000081525060400191505060405180910390fd5b600115156009846040518082805190602001908083835b6020831015156141bf578051825260208201915060208101905060208303925061419a565b6001836020036101000a03801982511681845116808217855250505050505090500191505090815260200160405180910390206001018381548110151561420257fe5b906000526020600020906005020160040160019054906101000a900460ff1615151415156142be576040517f08c379a00000000000000000000000000000000000000000000000000000000081526004018080602001828103825260218152602001807f44657669636520616374696f6e206964206973206e6f7420617661696c61626c81526020017f650000000000000000000000000000000000000000000000000000000000000081525060400191505060405180910390fd5b600a600083815260200190815260200160002060c0604051908101604052803373ffffffffffffffffffffffffffffffffffffffff168152602001848152602001428152602001600115158152602001600015158152602001600115158152509080600181540180825580915050906001820390600052602060002090600402016000909192909190915060008201518160000160006101000a81548173ffffffffffffffffffffffffffffffffffffffff021916908373ffffffffffffffffffffffffffffffffffffffff160217905550602082015181600101556040820151816002015560608201518160030160006101000a81548160ff02191690831515021790555060808201518160030160016101000a81548160ff02191690831515021790555060a08201518160030160026101000a81548160ff0219169083151502179055505050507f875b40a67d33b0171b10d7197a7c57cc4a8a03020e69c119753e83c07790640783836009866040518082805190602001908083835b602083101515614462578051825260208201915060208101905060208303925061443d565b6001836020036101000a0380198251168184511680821785525050505050509050019150509081526020016040518091039020600101858154811015156144a557fe5b90600052602060002090600502016001016009876040518082805190602001908083835b6020831015156144ee57805182526020820191506020810190506020830392506144c9565b6001836020036101000a03801982511681845116808217855250505050505090500191505090815260200160405180910390206001018681548110151561453157fe5b9060005260206000209060050201600201546009886040518082805190602001908083835b60208310151561457b5780518252602082019150602081019050602083039250614556565b6001836020036101000a0380198251168184511680821785525050505050509050019150509081526020016040518091039020600101878154811015156145be57fe5b906000526020600020906005020160030154600160405180806020018781526020018060200186815260200185815260200184151515158152602001838103835289818151815260200191508051906020019080838360005b83811015614632578082015181840152602081019050614617565b50505050905090810190601f16801561465f5780820380516001836020036101000a031916815260200191505b508381038252878181546001816001161561010002031660029004815260200191508054600181600116156101000203166002900480156146e15780601f106146b6576101008083540402835291602001916146e1565b820191906000526020600020905b8154815290600101906020018083116146c457829003601f168201915b50509850505050505050505060405180910390a16001905092915050565b6000806000809054906101000a900473ffffffffffffffffffffffffffffffffffffffff1673ffffffffffffffffffffffffffffffffffffffff16148061476f5750600061476d6000809054906101000a900473ffffffffffffffffffffffffffffffffffffffff166153cf565b145b156147805761477e60006153da565b505b6000809054906101000a900473ffffffffffffffffffffffffffffffffffffffff1673ffffffffffffffffffffffffffffffffffffffff166338cc48316040518163ffffffff167c0100000000000000000000000000000000000000000000000000000000028152600401602060405180830381600087803b15801561480557600080fd5b505af1158015614819573d6000803e3d6000fd5b505050506040513d602081101561482f57600080fd5b810190808051906020019092919050505073ffffffffffffffffffffffffffffffffffffffff16600160009054906101000a900473ffffffffffffffffffffffffffffffffffffffff1673ffffffffffffffffffffffffffffffffffffffff16141515614997576000809054906101000a900473ffffffffffffffffffffffffffffffffffffffff1673ffffffffffffffffffffffffffffffffffffffff166338cc48316040518163ffffffff167c0100000000000000000000000000000000000000000000000000000000028152600401602060405180830381600087803b15801561491b57600080fd5b505af115801561492f573d6000803e3d6000fd5b505050506040513d602081101561494557600080fd5b8101908080519060200190929190505050600160006101000a81548173ffffffffffffffffffffffffffffffffffffffff021916908373ffffffffffffffffffffffffffffffffffffffff1602179055505b600160009054906101000a900473ffffffffffffffffffffffffffffffffffffffff1673ffffffffffffffffffffffffffffffffffffffff1663c281d19e6040518163ffffffff167c0100000000000000000000000000000000000000000000000000000000028152600401602060405180830381600087803b158015614a1d57600080fd5b505af1158015614a31573d6000803e3d6000fd5b505050506040513d6020811015614a4757600080fd5b8101908080519060200190929190505050905090565b6000806000809054906101000a900473ffffffffffffffffffffffffffffffffffffffff1673ffffffffffffffffffffffffffffffffffffffff161480614acd57506000614acb6000809054906101000a900473ffffffffffffffffffffffffffffffffffffffff166153cf565b145b15614ade57614adc60006153da565b505b6000809054906101000a900473ffffffffffffffffffffffffffffffffffffffff1673ffffffffffffffffffffffffffffffffffffffff166338cc48316040518163ffffffff167c0100000000000000000000000000000000000000000000000000000000028152600401602060405180830381600087803b158015614b6357600080fd5b505af1158015614b77573d6000803e3d6000fd5b505050506040513d6020811015614b8d57600080fd5b810190808051906020019092919050505073ffffffffffffffffffffffffffffffffffffffff16600160009054906101000a900473ffffffffffffffffffffffffffffffffffffffff1673ffffffffffffffffffffffffffffffffffffffff16141515614cf5576000809054906101000a900473ffffffffffffffffffffffffffffffffffffffff1673ffffffffffffffffffffffffffffffffffffffff166338cc48316040518163ffffffff167c0100000000000000000000000000000000000000000000000000000000028152600401602060405180830381600087803b158015614c7957600080fd5b505af1158015614c8d573d6000803e3d6000fd5b505050506040513d6020811015614ca357600080fd5b8101908080519060200190929190505050600160006101000a81548173ffffffffffffffffffffffffffffffffffffffff021916908373ffffffffffffffffffffffffffffffffffffffff1602179055505b600160009054906101000a900473ffffffffffffffffffffffffffffffffffffffff1673ffffffffffffffffffffffffffffffffffffffff1663524f3889836040518263ffffffff167c01000000000000000000000000000000000000000000000000000000000281526004018080602001828103825283818151815260200191508051906020019080838360005b83811015614d9f578082015181840152602081019050614d84565b50505050905090810190601f168015614dcc5780820380516001836020036101000a031916815260200191505b5092505050602060405180830381600087803b158015614deb57600080fd5b505af1158015614dff573d6000803e3d6000fd5b505050506040513d6020811015614e1557600080fd5b81019080805190602001909291905050509050919050565b60008060008060009054906101000a900473ffffffffffffffffffffffffffffffffffffffff1673ffffffffffffffffffffffffffffffffffffffff161480614e9f57506000614e9d6000809054906101000a900473ffffffffffffffffffffffffffffffffffffffff166153cf565b145b15614eb057614eae60006153da565b505b6000809054906101000a900473ffffffffffffffffffffffffffffffffffffffff1673ffffffffffffffffffffffffffffffffffffffff166338cc48316040518163ffffffff167c0100000000000000000000000000000000000000000000000000000000028152600401602060405180830381600087803b158015614f3557600080fd5b505af1158015614f49573d6000803e3d6000fd5b505050506040513d6020811015614f5f57600080fd5b810190808051906020019092919050505073ffffffffffffffffffffffffffffffffffffffff16600160009054906101000a900473ffffffffffffffffffffffffffffffffffffffff1673ffffffffffffffffffffffffffffffffffffffff161415156150c7576000809054906101000a900473ffffffffffffffffffffffffffffffffffffffff1673ffffffffffffffffffffffffffffffffffffffff166338cc48316040518163ffffffff167c0100000000000000000000000000000000000000000000000000000000028152600401602060405180830381600087803b15801561504b57600080fd5b505af115801561505f573d6000803e3d6000fd5b505050506040513d602081101561507557600080fd5b8101908080519060200190929190505050600160006101000a81548173ffffffffffffffffffffffffffffffffffffffff021916908373ffffffffffffffffffffffffffffffffffffffff1602179055505b600160009054906101000a900473ffffffffffffffffffffffffffffffffffffffff1673ffffffffffffffffffffffffffffffffffffffff1663524f3889856040518263ffffffff167c01000000000000000000000000000000000000000000000000000000000281526004018080602001828103825283818151815260200191508051906020019080838360005b83811015615171578082015181840152602081019050615156565b50505050905090810190601f16801561519e5780820380516001836020036101000a031916815260200191505b5092505050602060405180830381600087803b1580156151bd57600080fd5b505af11580156151d1573d6000803e3d6000fd5b505050506040513d60208110156151e757600080fd5b8101908080519060200190929190505050905062030d403a02670de0b6b3a76400000181111561521d57600060010291506153c7565b600160009054906101000a900473ffffffffffffffffffffffffffffffffffffffff1673ffffffffffffffffffffffffffffffffffffffff1663adf59f99828787876040518563ffffffff167c0100000000000000000000000000000000000000000000000000000000028152600401808481526020018060200180602001838103835285818151815260200191508051906020019080838360005b838110156152d45780820151818401526020810190506152b9565b50505050905090810190601f1680156153015780820380516001836020036101000a031916815260200191505b50838103825284818151815260200191508051906020019080838360005b8381101561533a57808201518184015260208101905061531f565b50505050905090810190601f1680156153675780820380516001836020036101000a031916815260200191505b50955050505050506020604051808303818588803b15801561538857600080fd5b505af115801561539c573d6000803e3d6000fd5b50505050506040513d60208110156153b357600080fd5b810190808051906020019092919050505091505b509392505050565b6000813b9050919050565b60006153e46153eb565b9050919050565b60008061540b731d3b2638a7cc9f2cb3d298a3da7a90b67e5506ed6153cf565b11156154ac57731d3b2638a7cc9f2cb3d298a3da7a90b67e5506ed6000806101000a81548173ffffffffffffffffffffffffffffffffffffffff021916908373ffffffffffffffffffffffffffffffffffffffff1602179055506154a36040805190810160405280600b81526020017f6574685f6d61696e6e657400000000000000000000000000000000000000000081525061587a565b60019050615877565b60006154cb73c03a2615d5efaf5f49f60b7bb6583eaec212fdf16153cf565b111561556c5773c03a2615d5efaf5f49f60b7bb6583eaec212fdf16000806101000a81548173ffffffffffffffffffffffffffffffffffffffff021916908373ffffffffffffffffffffffffffffffffffffffff1602179055506155636040805190810160405280600c81526020017f6574685f726f707374656e33000000000000000000000000000000000000000081525061587a565b60019050615877565b600061558b73b7a07bcf2ba2f2703b24c0691b5278999c59ac7e6153cf565b111561562c5773b7a07bcf2ba2f2703b24c0691b5278999c59ac7e6000806101000a81548173ffffffffffffffffffffffffffffffffffffffff021916908373ffffffffffffffffffffffffffffffffffffffff1602179055506156236040805190810160405280600981526020017f6574685f6b6f76616e000000000000000000000000000000000000000000000081525061587a565b60019050615877565b600061564b73146500cfd35b22e4a392fe0adc06de1a1368ed486153cf565b11156156ec5773146500cfd35b22e4a392fe0adc06de1a1368ed486000806101000a81548173ffffffffffffffffffffffffffffffffffffffff021916908373ffffffffffffffffffffffffffffffffffffffff1602179055506156e36040805190810160405280600b81526020017f6574685f72696e6b65627900000000000000000000000000000000000000000081525061587a565b60019050615877565b600061570b736f485c8bf6fc43ea212e93bbf8ce046c7f1cb4756153cf565b111561576e57736f485c8bf6fc43ea212e93bbf8ce046c7f1cb4756000806101000a81548173ffffffffffffffffffffffffffffffffffffffff021916908373ffffffffffffffffffffffffffffffffffffffff16021790555060019050615877565b600061578d7320e12a1f859b3feae5fb2a0a32c18f5a65555bbf6153cf565b11156157f0577320e12a1f859b3feae5fb2a0a32c18f5a65555bbf6000806101000a81548173ffffffffffffffffffffffffffffffffffffffff021916908373ffffffffffffffffffffffffffffffffffffffff16021790555060019050615877565b600061580f7351efaf4c8b3c9afbd5ab9f4bbc82784ab6ef8faa6153cf565b1115615872577351efaf4c8b3c9afbd5ab9f4bbc82784ab6ef8faa6000806101000a81548173ffffffffffffffffffffffffffffffffffffffff021916908373ffffffffffffffffffffffffffffffffffffffff16021790555060019050615877565b600090505b90565b8060029080519060200190615890929190615914565b5050565b828054600181600116156101000203166002900490600052602060002090601f016020900481019282601f106158d557805160ff1916838001178555615903565b82800160010185558215615903579182015b828111156159025782518255916020019190600101906158e7565b5b5090506159109190615994565b5090565b828054600181600116156101000203166002900490600052602060002090601f016020900481019282601f1061595557805160ff1916838001178555615983565b82800160010185558215615983579182015b82811115615982578251825591602001919060010190615967565b5b5090506159909190615994565b5090565b6159b691905b808211156159b257600081600090555060010161599a565b5090565b905600a165627a7a7230582018b93cfcc3be69c679b27e912e6f12e37c64b8dbd2fc2b8eaae668b809ff11700029",
  "source": "pragma solidity ^0.4.24;\n\nimport \"./Rawbot.sol\";\nimport \"./Oraclize.sol\";\n\ncontract Merchant is usingOraclize {\n\n    Rawbot private rawbot;\n    address public constant rawbot_address = 0x5238527616882251df1ae2c5353dc6cf0a515fdc;\n    address private merchant_address;\n    uint hash_index = 0;\n\n    mapping(uint => string) ipfs_hash;\n    mapping(string => Device) private devices;\n    mapping(uint256 => ActionHistory[]) private action_history;\n    mapping(uint256 => ActionHistory[]) private recurring_action_history;\n\n    uint256 public RECURRING_PAYMENT_STEP = 0;\n    string[] private device_serial_numbers;\n    string[] private device_names;\n    RA[] recurring_action_array;\n\n    event Refund(uint, uint, uint, uint);\n    event RefundAutomatic(uint, uint, uint, uint);\n\n    event RecurrentRefund(uint, uint, uint, uint);\n    event RecurrentRefundAutomatic(uint, uint, uint, uint);\n\n    event RecurringPaymentLog(string);\n    event ActionAdd(string, uint, string, uint256, uint256, bool, bool);\n    event ActionEnable(string, uint, string, uint256, uint256, bool);\n    event ActionDisable(string, uint, string, uint256, uint256, bool);\n\n    event RecurringActionAdd(string, uint, string, uint256, uint256, bool, bool);\n    event RecurringActionEnable(string, uint, string, uint256, uint256, bool);\n    event RecurringActionDisable(string, uint, string, uint256, uint256, bool);\n\n    event AddIPFSHash(uint, string);\n\n    constructor(address _merchant_address) payable public {\n        merchant_address = _merchant_address;\n        rawbot = Rawbot(rawbot_address);\n    }\n\n    struct RA {\n        string device_name;\n        uint256 recurring_action_id;\n        uint256 recurring_action_history_id;\n        bool available;\n    }\n\n    struct Device {\n        string device_name;\n        Action[] device_actions;\n        RecurringAction[] device_recurring_actions;\n        bool available;\n    }\n\n    struct Action {\n        uint256 id;\n        string name;\n        uint256 price;\n        uint256 duration;\n        bool refundable;\n        bool available;\n    }\n\n    struct RecurringAction {\n        uint256 id;\n        string name;\n        uint256 price;\n        uint256 _days;\n        bool refundable;\n        bool available;\n    }\n\n    struct ActionHistory {\n        address user;\n        uint256 id;\n        uint256 time;\n        bool enable;\n        bool refunded;\n        bool available;\n    }\n\n    //\"ABC\", \"Raspberry PI 3\"\n    function addDevice(string device_serial_number, string device_name) public payable returns (bool){\n        //        require(merchant_address == msg.sender, \"Only merchant can add devices.\");\n        require(devices[device_serial_number].available == false);\n        devices[device_serial_number].device_name = device_name;\n        devices[device_serial_number].available = true;\n        device_serial_numbers.push(device_serial_number);\n        device_names.push(device_name);\n        return true;\n    }\n\n    //\"ABC\", \"Open\", 20, 20, true\n    function addAction(string device_serial_number, string action_name, uint256 action_price, uint256 action_duration, bool refundable) public payable returns (bool){\n        //        require(merchant_address == msg.sender);\n        require(devices[device_serial_number].available == true, \"Device serial number is not available\");\n        devices[device_serial_number].device_actions.push(Action(devices[device_serial_number].device_actions.length, action_name, action_price, action_duration, refundable, true));\n        emit ActionAdd(device_serial_number, devices[device_serial_number].device_actions.length, action_name, action_price, action_duration, refundable, true);\n        return true;\n    }\n\n    //\"ABC\", \"Open\", 20, 20, true\n    function addRecurringAction(string device_serial_number, string action_name, uint256 action_price, uint256 _days, bool refundable) public payable returns (bool){\n        //        require(merchant_address == msg.sender);\n        require(devices[device_serial_number].available == true, \"Device serial number is not available\");\n        devices[device_serial_number].device_recurring_actions.push(RecurringAction(devices[device_serial_number].device_recurring_actions.length, action_name, action_price, _days, refundable, true));\n        emit ActionAdd(device_serial_number, devices[device_serial_number].device_recurring_actions.length, action_name, action_price, _days, refundable, true);\n        return true;\n    }\n\n    //\"ABC\", 0\n    function enableAction(string device_serial_number, uint256 action_id) public payable returns (bool success) {\n        require(devices[device_serial_number].available == true, \"Device serial number is not available\");\n        require(devices[device_serial_number].device_actions[action_id].available == true, \"Device action id is not available\");\n        //        require(rawbot.getBalance(msg.sender) >= devices[device_serial_number].device_actions[action_id].price, \"User doesn't have enough balance\");\n        action_history[action_id].push(ActionHistory(msg.sender, action_id, now, true, false, true));\n        //        rawbot.modifyBalance(msg.sender, - devices[device_serial_number].device_actions[action_id].price);\n        //        rawbot.modifyBalance(merchant_address, devices[device_serial_number].device_actions[action_id].price);\n        emit ActionEnable(device_serial_number, action_id, devices[device_serial_number].device_actions[action_id].name, devices[device_serial_number].device_actions[action_id].price, devices[device_serial_number].device_actions[action_id].duration, true);\n        return true;\n    }\n\n    //\"ABC\", 0\n    function enableRecurringAction(string device_serial_number, uint256 action_id) public payable returns (bool success) {\n        if (oraclize_getPrice(\"URL\") > address(this).balance) {\n            return false;\n        } else {\n            require(devices[device_serial_number].available == true, \"Device serial number is not available\");\n            require(devices[device_serial_number].device_recurring_actions[action_id].available == true, \"Device action id is not available\");\n            require(rawbot.getBalance(msg.sender) >= devices[device_serial_number].device_recurring_actions[action_id].price, \"User doesn't have enough balance\");\n            recurring_action_history[action_id].push(ActionHistory(msg.sender, action_id, now, true, false, true));\n            recurring_action_array.push(RA(device_serial_number, action_id, recurring_action_history[action_id].length - 1, true));\n            rawbot.modifyBalance(msg.sender, - devices[device_serial_number].device_recurring_actions[action_id].price);\n            rawbot.modifyBalance(merchant_address, devices[device_serial_number].device_recurring_actions[action_id].price);\n            oraclize_query(devices[device_serial_number].device_recurring_actions[action_id]._days * 60 * 60 * 24, \"URL\", \"\");\n            RECURRING_PAYMENT_STEP = 1;\n            emit ActionEnable(device_serial_number, action_id, devices[device_serial_number].device_recurring_actions[action_id].name, devices[device_serial_number].device_recurring_actions[action_id].price, devices[device_serial_number].device_recurring_actions[action_id]._days, true);\n            return true;\n        }\n    }\n\n    //\"ABC\", 0\n    function disableAction(string device_serial_number, uint256 action_id) public payable returns (bool success) {\n        require(devices[device_serial_number].available == true, \"Device serial number is not available\");\n        require(devices[device_serial_number].device_actions[action_id].available == true, \"Device action id is not available\");\n        action_history[action_id].push(ActionHistory(msg.sender, action_id, now, false, false, true));\n        emit ActionDisable(device_serial_number, action_id, devices[device_serial_number].device_actions[action_id].name, devices[device_serial_number].device_actions[action_id].price, devices[device_serial_number].device_actions[action_id].duration, true);\n        return true;\n    }\n\n    //\"ABC\", 0\n    function disableRecurringAction(string device_serial_number, uint256 action_id) public payable returns (bool success) {\n        require(devices[device_serial_number].available == true, \"Device serial number is not available\");\n        require(devices[device_serial_number].device_recurring_actions[action_id].available == true, \"Device action id is not available\");\n        recurring_action_history[action_id].push(ActionHistory(msg.sender, action_id, now, false, false, true));\n        emit ActionDisable(device_serial_number, action_id, devices[device_serial_number].device_recurring_actions[action_id].name, devices[device_serial_number].device_recurring_actions[action_id].price, devices[device_serial_number].device_recurring_actions[action_id]._days, true);\n        return true;\n    }\n\n    //\"ABC\", 0, 0\n    function refund(string device_serial_number, uint256 action_id, uint _action_history_id) payable public returns (bool) {\n        //        require(msg.sender == merchant_address);\n        require(devices[device_serial_number].available == true);\n        require(devices[device_serial_number].device_actions[action_id].available == true);\n        require(devices[device_serial_number].device_actions[action_id].refundable == true);\n        require(action_history[action_id][_action_history_id].available == true);\n        require(action_history[action_id][_action_history_id].id == action_id);\n        require(action_history[action_id][_action_history_id].refunded == false);\n        //        rawbot.modifyBalance(msg.sender, devices[device_serial_number].device_actions[action_id].price);\n        emit Refund(action_id, _action_history_id, devices[device_serial_number].device_actions[action_id].price, now);\n        return true;\n    }\n\n    //\"ABC\", 0, 0\n    function refundAutomatic(string device_serial_number, uint256 action_id, uint256 _action_history_id) payable public returns (bool success) {\n        require(devices[device_serial_number].available == true);\n        require(devices[device_serial_number].device_actions[action_id].available == true);\n        require(devices[device_serial_number].device_actions[action_id].refundable == true);\n        require(action_history[action_id][_action_history_id].available == true);\n        require(action_history[action_id][_action_history_id].id == action_id);\n        require(action_history[action_id][_action_history_id].refunded == false);\n        uint256 time_passed = now - (action_history[action_id][_action_history_id].time + devices[device_serial_number].device_actions[action_id].duration);\n        //        require(time_passed < 0);\n        emit RefundAutomatic(action_id, _action_history_id, devices[device_serial_number].device_actions[action_id].price, now);\n        return true;\n    }\n\n    function getActionPrice(string device_serial_number, uint256 action_id) public view returns (uint) {\n        return devices[device_serial_number].device_actions[action_id].price;\n    }\n\n    function isRefundable(string device_serial_number, uint256 action_id) public view returns (bool) {\n        return devices[device_serial_number].device_actions[action_id].refundable;\n    }\n\n    function getMerchantAddress() public view returns (address) {\n        return merchant_address;\n    }\n\n    function withdrawFromDevice(address device_address, uint256 value) public payable returns (bool success) {\n        require(merchant_address == msg.sender);\n        require(rawbot.getBalance(device_address) >= value);\n        rawbot.modifyBalance(device_address, - value);\n        rawbot.modifyBalance(msg.sender, value);\n        return true;\n    }\n\n    function getUserBalance(address _address) public view returns (uint256){\n        return rawbot.getBalance(_address);\n    }\n\n    function addImageHash(string _hash) public {\n        ipfs_hash[hash_index] = _hash;\n        emit AddIPFSHash(hash_index, _hash);\n        hash_index++;\n    }\n\n    function __callback(bytes32 myid, string result) {\n        if (msg.sender != oraclize_cbAddress()) revert();\n        //        for (uint i = 0; i < recurring_action_array.length; i++) {\n        //            require(recurring_action_history[raid][rahid].id == raid);\n        //            string device_name = recurring_action_array[i].device_name;\n        //            uint256 raid = recurring_action_array[i].recurring_action_id;\n        //            uint256 rahid = recurring_action_array[i].recurring_action_history_id;\n        //\n        //            uint _days = devices[device_name].device_recurring_actions[raid]._days * 86400;\n        //            uint _time = recurring_action_history[raid][rahid].time;\n        //            uint difference = now - (_days + _time);\n        //            if (difference > 0) {\n        //                disableRecurringAction(device_name, raid);\n        //            }\n        //            RECURRING_PAYMENT_STEP++;\n        //        }\n\n        //        emit RecurringPaymentLog(\"Recurring payment callback.\");\n    }\n}",
  "sourcePath": "/Users/hassanjawhar/Desktop/Workspace/rawbot/contracts/Merchant.sol",
  "compiler": {
    "name": "solc",
    "version": "0.4.24+commit.e67f0147.Emscripten.clang"
  },
  "schemaVersion": "2.0.0",
  "updatedAt": "2018-08-13T11:42:29.157Z"
}