{
  "contractName": "Merchant",
  "abi": [
    {
      "constant": true,
      "inputs": [],
      "name": "RECURRING_PAYMENT_STEP",
      "outputs": [
        {
          "name": "",
          "type": "uint256"
        }
      ],
      "payable": false,
      "stateMutability": "view",
      "type": "function"
    },
    {
      "constant": true,
      "inputs": [],
      "name": "rawbot_address",
      "outputs": [
        {
          "name": "",
          "type": "address"
        }
      ],
      "payable": false,
      "stateMutability": "view",
      "type": "function"
    },
    {
      "constant": true,
      "inputs": [],
      "name": "hash_index",
      "outputs": [
        {
          "name": "",
          "type": "uint256"
        }
      ],
      "payable": false,
      "stateMutability": "view",
      "type": "function"
    },
    {
      "constant": true,
      "inputs": [],
      "name": "devices_amount",
      "outputs": [
        {
          "name": "",
          "type": "uint256"
        }
      ],
      "payable": false,
      "stateMutability": "view",
      "type": "function"
    },
    {
      "inputs": [
        {
          "name": "_merchant_address",
          "type": "address"
        }
      ],
      "payable": true,
      "stateMutability": "payable",
      "type": "constructor"
    },
    {
      "anonymous": false,
      "inputs": [
        {
          "indexed": false,
          "name": "",
          "type": "uint256"
        },
        {
          "indexed": false,
          "name": "",
          "type": "uint256"
        },
        {
          "indexed": false,
          "name": "",
          "type": "uint256"
        },
        {
          "indexed": false,
          "name": "",
          "type": "uint256"
        }
      ],
      "name": "Refund",
      "type": "event"
    },
    {
      "anonymous": false,
      "inputs": [
        {
          "indexed": false,
          "name": "",
          "type": "uint256"
        },
        {
          "indexed": false,
          "name": "",
          "type": "uint256"
        },
        {
          "indexed": false,
          "name": "",
          "type": "uint256"
        },
        {
          "indexed": false,
          "name": "",
          "type": "uint256"
        }
      ],
      "name": "RefundAutomatic",
      "type": "event"
    },
    {
      "anonymous": false,
      "inputs": [
        {
          "indexed": false,
          "name": "",
          "type": "uint256"
        },
        {
          "indexed": false,
          "name": "",
          "type": "uint256"
        },
        {
          "indexed": false,
          "name": "",
          "type": "uint256"
        },
        {
          "indexed": false,
          "name": "",
          "type": "uint256"
        }
      ],
      "name": "RecurrentRefund",
      "type": "event"
    },
    {
      "anonymous": false,
      "inputs": [
        {
          "indexed": false,
          "name": "",
          "type": "uint256"
        },
        {
          "indexed": false,
          "name": "",
          "type": "uint256"
        },
        {
          "indexed": false,
          "name": "",
          "type": "uint256"
        },
        {
          "indexed": false,
          "name": "",
          "type": "uint256"
        }
      ],
      "name": "RecurrentRefundAutomatic",
      "type": "event"
    },
    {
      "anonymous": false,
      "inputs": [
        {
          "indexed": false,
          "name": "",
          "type": "string"
        }
      ],
      "name": "RecurringPaymentLog",
      "type": "event"
    },
    {
      "anonymous": false,
      "inputs": [
        {
          "indexed": false,
          "name": "",
          "type": "string"
        },
        {
          "indexed": false,
          "name": "",
          "type": "string"
        },
        {
          "indexed": false,
          "name": "",
          "type": "bool"
        }
      ],
      "name": "DeviceAdd",
      "type": "event"
    },
    {
      "anonymous": false,
      "inputs": [
        {
          "indexed": false,
          "name": "",
          "type": "string"
        },
        {
          "indexed": false,
          "name": "",
          "type": "uint256"
        },
        {
          "indexed": false,
          "name": "",
          "type": "string"
        },
        {
          "indexed": false,
          "name": "",
          "type": "uint256"
        },
        {
          "indexed": false,
          "name": "",
          "type": "uint256"
        },
        {
          "indexed": false,
          "name": "",
          "type": "bool"
        },
        {
          "indexed": false,
          "name": "",
          "type": "bool"
        }
      ],
      "name": "ActionAdd",
      "type": "event"
    },
    {
      "anonymous": false,
      "inputs": [
        {
          "indexed": false,
          "name": "",
          "type": "string"
        },
        {
          "indexed": false,
          "name": "",
          "type": "uint256"
        },
        {
          "indexed": false,
          "name": "",
          "type": "string"
        },
        {
          "indexed": false,
          "name": "",
          "type": "uint256"
        },
        {
          "indexed": false,
          "name": "",
          "type": "uint256"
        },
        {
          "indexed": false,
          "name": "",
          "type": "bool"
        }
      ],
      "name": "ActionEnable",
      "type": "event"
    },
    {
      "anonymous": false,
      "inputs": [
        {
          "indexed": false,
          "name": "",
          "type": "string"
        },
        {
          "indexed": false,
          "name": "",
          "type": "uint256"
        },
        {
          "indexed": false,
          "name": "",
          "type": "string"
        },
        {
          "indexed": false,
          "name": "",
          "type": "uint256"
        },
        {
          "indexed": false,
          "name": "",
          "type": "uint256"
        },
        {
          "indexed": false,
          "name": "",
          "type": "bool"
        }
      ],
      "name": "ActionDisable",
      "type": "event"
    },
    {
      "anonymous": false,
      "inputs": [
        {
          "indexed": false,
          "name": "",
          "type": "string"
        },
        {
          "indexed": false,
          "name": "",
          "type": "uint256"
        },
        {
          "indexed": false,
          "name": "",
          "type": "string"
        },
        {
          "indexed": false,
          "name": "",
          "type": "uint256"
        },
        {
          "indexed": false,
          "name": "",
          "type": "uint256"
        },
        {
          "indexed": false,
          "name": "",
          "type": "bool"
        },
        {
          "indexed": false,
          "name": "",
          "type": "bool"
        }
      ],
      "name": "RecurringActionAdd",
      "type": "event"
    },
    {
      "anonymous": false,
      "inputs": [
        {
          "indexed": false,
          "name": "",
          "type": "string"
        },
        {
          "indexed": false,
          "name": "",
          "type": "uint256"
        },
        {
          "indexed": false,
          "name": "",
          "type": "string"
        },
        {
          "indexed": false,
          "name": "",
          "type": "uint256"
        },
        {
          "indexed": false,
          "name": "",
          "type": "uint256"
        },
        {
          "indexed": false,
          "name": "",
          "type": "bool"
        }
      ],
      "name": "RecurringActionEnable",
      "type": "event"
    },
    {
      "anonymous": false,
      "inputs": [
        {
          "indexed": false,
          "name": "",
          "type": "string"
        },
        {
          "indexed": false,
          "name": "",
          "type": "uint256"
        },
        {
          "indexed": false,
          "name": "",
          "type": "string"
        },
        {
          "indexed": false,
          "name": "",
          "type": "uint256"
        },
        {
          "indexed": false,
          "name": "",
          "type": "uint256"
        },
        {
          "indexed": false,
          "name": "",
          "type": "bool"
        }
      ],
      "name": "RecurringActionDisable",
      "type": "event"
    },
    {
      "anonymous": false,
      "inputs": [
        {
          "indexed": false,
          "name": "",
          "type": "uint256"
        },
        {
          "indexed": false,
          "name": "",
          "type": "string"
        }
      ],
      "name": "AddIPFSHash",
      "type": "event"
    },
    {
      "constant": false,
      "inputs": [
        {
          "name": "device_serial_number",
          "type": "string"
        },
        {
          "name": "device_name",
          "type": "string"
        }
      ],
      "name": "addDevice",
      "outputs": [
        {
          "name": "",
          "type": "bool"
        }
      ],
      "payable": true,
      "stateMutability": "payable",
      "type": "function"
    },
    {
      "constant": false,
      "inputs": [
        {
          "name": "device_serial_number",
          "type": "string"
        },
        {
          "name": "action_name",
          "type": "string"
        },
        {
          "name": "action_price",
          "type": "uint256"
        },
        {
          "name": "action_duration",
          "type": "uint256"
        },
        {
          "name": "refundable",
          "type": "bool"
        }
      ],
      "name": "addAction",
      "outputs": [
        {
          "name": "",
          "type": "bool"
        }
      ],
      "payable": true,
      "stateMutability": "payable",
      "type": "function"
    },
    {
      "constant": false,
      "inputs": [
        {
          "name": "device_serial_number",
          "type": "string"
        },
        {
          "name": "action_name",
          "type": "string"
        },
        {
          "name": "action_price",
          "type": "uint256"
        },
        {
          "name": "_days",
          "type": "uint256"
        },
        {
          "name": "refundable",
          "type": "bool"
        }
      ],
      "name": "addRecurringAction",
      "outputs": [
        {
          "name": "",
          "type": "bool"
        }
      ],
      "payable": true,
      "stateMutability": "payable",
      "type": "function"
    },
    {
      "constant": false,
      "inputs": [
        {
          "name": "device_serial_number",
          "type": "string"
        },
        {
          "name": "action_id",
          "type": "uint256"
        }
      ],
      "name": "enableAction",
      "outputs": [
        {
          "name": "success",
          "type": "bool"
        }
      ],
      "payable": true,
      "stateMutability": "payable",
      "type": "function"
    },
    {
      "constant": false,
      "inputs": [
        {
          "name": "device_serial_number",
          "type": "string"
        },
        {
          "name": "action_id",
          "type": "uint256"
        }
      ],
      "name": "enableRecurringAction",
      "outputs": [
        {
          "name": "success",
          "type": "bool"
        }
      ],
      "payable": true,
      "stateMutability": "payable",
      "type": "function"
    },
    {
      "constant": false,
      "inputs": [
        {
          "name": "device_serial_number",
          "type": "string"
        },
        {
          "name": "action_id",
          "type": "uint256"
        }
      ],
      "name": "disableAction",
      "outputs": [
        {
          "name": "success",
          "type": "bool"
        }
      ],
      "payable": true,
      "stateMutability": "payable",
      "type": "function"
    },
    {
      "constant": false,
      "inputs": [
        {
          "name": "device_serial_number",
          "type": "string"
        },
        {
          "name": "action_id",
          "type": "uint256"
        }
      ],
      "name": "disableRecurringAction",
      "outputs": [
        {
          "name": "success",
          "type": "bool"
        }
      ],
      "payable": true,
      "stateMutability": "payable",
      "type": "function"
    },
    {
      "constant": false,
      "inputs": [
        {
          "name": "device_serial_number",
          "type": "string"
        },
        {
          "name": "action_id",
          "type": "uint256"
        },
        {
          "name": "_action_history_id",
          "type": "uint256"
        }
      ],
      "name": "refund",
      "outputs": [
        {
          "name": "",
          "type": "bool"
        }
      ],
      "payable": true,
      "stateMutability": "payable",
      "type": "function"
    },
    {
      "constant": false,
      "inputs": [
        {
          "name": "device_serial_number",
          "type": "string"
        },
        {
          "name": "action_id",
          "type": "uint256"
        },
        {
          "name": "_action_history_id",
          "type": "uint256"
        }
      ],
      "name": "refundAutomatic",
      "outputs": [
        {
          "name": "success",
          "type": "bool"
        }
      ],
      "payable": true,
      "stateMutability": "payable",
      "type": "function"
    },
    {
      "constant": true,
      "inputs": [
        {
          "name": "device_serial_number",
          "type": "string"
        },
        {
          "name": "action_id",
          "type": "uint256"
        }
      ],
      "name": "getActionPrice",
      "outputs": [
        {
          "name": "",
          "type": "uint256"
        }
      ],
      "payable": false,
      "stateMutability": "view",
      "type": "function"
    },
    {
      "constant": true,
      "inputs": [
        {
          "name": "device_serial_number",
          "type": "string"
        },
        {
          "name": "action_id",
          "type": "uint256"
        }
      ],
      "name": "isRefundable",
      "outputs": [
        {
          "name": "",
          "type": "bool"
        }
      ],
      "payable": false,
      "stateMutability": "view",
      "type": "function"
    },
    {
      "constant": true,
      "inputs": [],
      "name": "getMerchantAddress",
      "outputs": [
        {
          "name": "",
          "type": "address"
        }
      ],
      "payable": false,
      "stateMutability": "view",
      "type": "function"
    },
    {
      "constant": false,
      "inputs": [
        {
          "name": "device_address",
          "type": "address"
        },
        {
          "name": "value",
          "type": "uint256"
        }
      ],
      "name": "withdrawFromDevice",
      "outputs": [
        {
          "name": "success",
          "type": "bool"
        }
      ],
      "payable": true,
      "stateMutability": "payable",
      "type": "function"
    },
    {
      "constant": true,
      "inputs": [
        {
          "name": "_address",
          "type": "address"
        }
      ],
      "name": "getUserBalance",
      "outputs": [
        {
          "name": "",
          "type": "uint256"
        }
      ],
      "payable": false,
      "stateMutability": "view",
      "type": "function"
    },
    {
      "constant": false,
      "inputs": [
        {
          "name": "_hash",
          "type": "string"
        }
      ],
      "name": "addImageHash",
      "outputs": [],
      "payable": false,
      "stateMutability": "nonpayable",
      "type": "function"
    },
    {
      "constant": false,
      "inputs": [
        {
          "name": "myid",
          "type": "bytes32"
        },
        {
          "name": "result",
          "type": "string"
        },
        {
          "name": "proof",
          "type": "bytes"
        }
      ],
      "name": "__callback",
      "outputs": [],
      "payable": false,
      "stateMutability": "nonpayable",
      "type": "function"
    },
    {
      "constant": false,
      "inputs": [
        {
          "name": "myid",
          "type": "bytes32"
        },
        {
          "name": "result",
          "type": "string"
        }
      ],
      "name": "__callback",
      "outputs": [],
      "payable": false,
      "stateMutability": "nonpayable",
      "type": "function"
    }
  ],
  "bytecode": "0x6080604052600060075560006008556000600d5560405160208061554e8339810180604052810190808051906020019092919050505080600660006101000a81548173ffffffffffffffffffffffffffffffffffffffff021916908373ffffffffffffffffffffffffffffffffffffffff160217905550735238527616882251df1ae2c5353dc6cf0a515fdc600560006101000a81548173ffffffffffffffffffffffffffffffffffffffff021916908373ffffffffffffffffffffffffffffffffffffffff16021790555050615473806100db6000396000f30060806040526004361061011c576000357c0100000000000000000000000000000000000000000000000000000000900463ffffffff168062cfb6e51461012157806308489f551461014c5780631b7e72481461022657806327dc297e146102ad57806338bbfa501461032457806347734892146103e157806347da0a98146104385780635942b743146104b657806366cfce42146105345780636ef3027b1461058b5780637460a646146105f45780637543db1e1461061f578063757d713f14610677578063a1cc0e71146106ff578063a3eb6e5b1461078a578063aef34f69146107e1578063b85d82611461085f578063b8dd458714610919578063cc082a89146109f3578063defc309814610a7b578063ed32de2b14610af9575b600080fd5b34801561012d57600080fd5b50610136610b24565b6040518082815260200191505060405180910390f35b61020c600480360381019080803590602001908201803590602001908080601f0160208091040260200160405190810160405280939291908181526020018383808284378201915050505050509192919290803590602001908201803590602001908080601f01602080910402602001604051908101604052809392919081815260200183838082843782019150505050505091929192908035906020019092919080359060200190929190803515159060200190929190505050610b2a565b604051808215151515815260200191505060405180910390f35b34801561023257600080fd5b50610297600480360381019080803590602001908201803590602001908080601f016020809104026020016040519081016040528093929190818152602001838380828437820191505050505050919291929080359060200190929190505050611018565b6040518082815260200191505060405180910390f35b3480156102b957600080fd5b506103226004803603810190808035600019169060200190929190803590602001908201803590602001908080601f01602080910402602001604051908101604052809392919081815260200183838082843782019150505050505091929192905050506110af565b005b34801561033057600080fd5b506103df6004803603810190808035600019169060200190929190803590602001908201803590602001908080601f0160208091040260200160405190810160405280939291908181526020018383808284378201915050505050509192919290803590602001908201803590602001908080601f01602080910402602001604051908101604052809392919081815260200183838082843782019150505050505091929192905050506113c9565b005b3480156103ed57600080fd5b50610422600480360381019080803573ffffffffffffffffffffffffffffffffffffffff1690602001909291905050506113ce565b6040518082815260200191505060405180910390f35b61049c600480360381019080803590602001908201803590602001908080601f0160208091040260200160405190810160405280939291908181526020018383808284378201915050505050509192919290803590602001909291905050506114cf565b604051808215151515815260200191505060405180910390f35b61051a600480360381019080803590602001908201803590602001908080601f016020809104026020016040519081016040528093929190818152602001838380828437820191505050505050919291929080359060200190929190505050611b6a565b604051808215151515815260200191505060405180910390f35b34801561054057600080fd5b50610549612332565b604051808273ffffffffffffffffffffffffffffffffffffffff1673ffffffffffffffffffffffffffffffffffffffff16815260200191505060405180910390f35b34801561059757600080fd5b506105f2600480360381019080803590602001908201803590602001908080601f016020809104026020016040519081016040528093929190818152602001838380828437820191505050505050919291929050505061234a565b005b34801561060057600080fd5b5061060961242f565b6040518082815260200191505060405180910390f35b61065d600480360381019080803573ffffffffffffffffffffffffffffffffffffffff16906020019092919080359060200190929190505050612435565b604051808215151515815260200191505060405180910390f35b6106e5600480360381019080803590602001908201803590602001908080601f016020809104026020016040519081016040528093929190818152602001838380828437820191505050505050919291929080359060200190929190803590602001909291905050506127a8565b604051808215151515815260200191505060405180910390f35b34801561070b57600080fd5b50610770600480360381019080803590602001908201803590602001908080601f016020809104026020016040519081016040528093929190818152602001838380828437820191505050505050919291929080359060200190929190505050612c1d565b604051808215151515815260200191505060405180910390f35b34801561079657600080fd5b5061079f612cc1565b604051808273ffffffffffffffffffffffffffffffffffffffff1673ffffffffffffffffffffffffffffffffffffffff16815260200191505060405180910390f35b610845600480360381019080803590602001908201803590602001908080601f016020809104026020016040519081016040528093929190818152602001838380828437820191505050505050919291929080359060200190929190505050612ceb565b604051808215151515815260200191505060405180910390f35b6108ff600480360381019080803590602001908201803590602001908080601f0160208091040260200160405190810160405280939291908181526020018383808284378201915050505050509192919290803590602001908201803590602001908080601f0160208091040260200160405190810160405280939291908181526020018383808284378201915050505050509192919290505050613386565b604051808215151515815260200191505060405180910390f35b6109d9600480360381019080803590602001908201803590602001908080601f0160208091040260200160405190810160405280939291908181526020018383808284378201915050505050509192919290803590602001908201803590602001908080601f01602080910402602001604051908101604052809392919081815260200183838082843782019150505050505091929192908035906020019092919080359060200190929190803515159060200190929190505050613795565b604051808215151515815260200191505060405180910390f35b610a61600480360381019080803590602001908201803590602001908080601f01602080910402602001604051908101604052809392919081815260200183838082843782019150505050505091929192908035906020019092919080359060200190929190505050613c83565b604051808215151515815260200191505060405180910390f35b610adf600480360381019080803590602001908201803590602001908080601f01602080910402602001604051908101604052809392919081815260200183838082843782019150505050505091929192908035906020019092919050505061408e565b604051808215151515815260200191505060405180910390f35b348015610b0557600080fd5b50610b0e614729565b6040518082815260200191505060405180910390f35b600d5481565b60003373ffffffffffffffffffffffffffffffffffffffff16600660009054906101000a900473ffffffffffffffffffffffffffffffffffffffff1673ffffffffffffffffffffffffffffffffffffffff16141515610b8857600080fd5b60011515600a876040518082805190602001908083835b602083101515610bc45780518252602082019150602081019050602083039250610b9f565b6001836020036101000a038019825116818451168082178552505050505050905001915050908152602001604051809103902060030160009054906101000a900460ff161515141515610ca5576040517f08c379a00000000000000000000000000000000000000000000000000000000081526004018080602001828103825260258152602001807f4465766963652073657269616c206e756d626572206973206e6f74206176616981526020017f6c61626c6500000000000000000000000000000000000000000000000000000081525060400191505060405180910390fd5b600a866040518082805190602001908083835b602083101515610cdd5780518252602082019150602081019050602083039250610cb8565b6001836020036101000a038019825116818451168082178552505050505050905001915050908152602001604051809103902060020160c060405190810160405280600a896040518082805190602001908083835b602083101515610d575780518252602082019150602081019050602083039250610d32565b6001836020036101000a038019825116818451168082178552505050505050905001915050908152602001604051809103902060020180549050815260200187815260200186815260200185815260200184151581526020016001151581525090806001815401808255809150509060018203906000526020600020906005020160009091929091909150600082015181600001556020820151816001019080519060200190610e08929190615322565b50604082015181600201556060820151816003015560808201518160040160006101000a81548160ff02191690831515021790555060a08201518160040160016101000a81548160ff0219169083151502179055505050507fab7af84a14131a8d124961d4f462f1fb7e82b562aba899a3f28200031563b3e686600a886040518082805190602001908083835b602083101515610eba5780518252602082019150602081019050602083039250610e95565b6001836020036101000a038019825116818451168082178552505050505050905001915050908152602001604051809103902060020180549050878787876001604051808060200188815260200180602001878152602001868152602001851515151581526020018415151515815260200183810383528a818151815260200191508051906020019080838360005b83811015610f64578082015181840152602081019050610f49565b50505050905090810190601f168015610f915780820380516001836020036101000a031916815260200191505b50838103825288818151815260200191508051906020019080838360005b83811015610fca578082015181840152602081019050610faf565b50505050905090810190601f168015610ff75780820380516001836020036101000a031916815260200191505b50995050505050505050505060405180910390a16001905095945050505050565b6000600a836040518082805190602001908083835b602083101515611052578051825260208201915060208101905060208303925061102d565b6001836020036101000a03801982511681845116808217855250505050505090500191505090815260200160405180910390206001018281548110151561109557fe5b906000526020600020906005020160020154905092915050565b60008060008060008060006110c261472f565b73ffffffffffffffffffffffffffffffffffffffff163373ffffffffffffffffffffffffffffffffffffffff161415156110fb57600080fd5b600096505b6010805490508710156113565784600c60008781526020019081526020016000208581548110151561112e57fe5b90600052602060002090600402016001015414151561114c57600080fd5b60108781548110151561115b57fe5b9060005260206000209060040201600001955060108781548110151561117d57fe5b90600052602060002090600402016001015494506010878154811015156111a057fe5b906000526020600020906004020160020154935062015180600a8760405180828054600181600116156101000203166002900480156112165780601f106111f4576101008083540402835291820191611216565b820191906000526020600020905b815481529060010190602001808311611202575b505091505090815260200160405180910390206002018681548110151561123957fe5b906000526020600020906005020160030154029250600c60008681526020019081526020016000208481548110151561126e57fe5b906000526020600020906004020160020154915081830142039050600081111561133757611335868054600181600116156101000203166002900480601f01602080910402602001604051908101604052809291908181526020018280546001816001161561010002031660029004801561132a5780601f106112ff5761010080835404028352916020019161132a565b820191906000526020600020905b81548152906001019060200180831161130d57829003601f168201915b505050505086612ceb565b505b600d600081548092919060010191905055508680600101975050611100565b7f181a05991468e765ed7498115dc58006bfc3b4c624e024406470557a0857f6e560405180806020018281038252601b8152602001807f526563757272696e67207061796d656e742063616c6c6261636b2e000000000081525060200191505060405180910390a1505050505050505050565b505050565b6000600560009054906101000a900473ffffffffffffffffffffffffffffffffffffffff1673ffffffffffffffffffffffffffffffffffffffff1663f8b2cb4f836040518263ffffffff167c0100000000000000000000000000000000000000000000000000000000028152600401808273ffffffffffffffffffffffffffffffffffffffff1673ffffffffffffffffffffffffffffffffffffffff168152602001915050602060405180830381600087803b15801561148d57600080fd5b505af11580156114a1573d6000803e3d6000fd5b505050506040513d60208110156114b757600080fd5b81019080805190602001909291905050509050919050565b600060011515600a846040518082805190602001908083835b60208310151561150d57805182526020820191506020810190506020830392506114e8565b6001836020036101000a038019825116818451168082178552505050505050905001915050908152602001604051809103902060030160009054906101000a900460ff1615151415156115ee576040517f08c379a00000000000000000000000000000000000000000000000000000000081526004018080602001828103825260258152602001807f4465766963652073657269616c206e756d626572206973206e6f74206176616981526020017f6c61626c6500000000000000000000000000000000000000000000000000000081525060400191505060405180910390fd5b60011515600a846040518082805190602001908083835b60208310151561162a5780518252602082019150602081019050602083039250611605565b6001836020036101000a03801982511681845116808217855250505050505090500191505090815260200160405180910390206001018381548110151561166d57fe5b906000526020600020906005020160040160019054906101000a900460ff161515141515611729576040517f08c379a00000000000000000000000000000000000000000000000000000000081526004018080602001828103825260218152602001807f44657669636520616374696f6e206964206973206e6f7420617661696c61626c81526020017f650000000000000000000000000000000000000000000000000000000000000081525060400191505060405180910390fd5b600b600083815260200190815260200160002060c0604051908101604052803373ffffffffffffffffffffffffffffffffffffffff168152602001848152602001428152602001600015158152602001600015158152602001600115158152509080600181540180825580915050906001820390600052602060002090600402016000909192909190915060008201518160000160006101000a81548173ffffffffffffffffffffffffffffffffffffffff021916908373ffffffffffffffffffffffffffffffffffffffff160217905550602082015181600101556040820151816002015560608201518160030160006101000a81548160ff02191690831515021790555060808201518160030160016101000a81548160ff02191690831515021790555060a08201518160030160026101000a81548160ff0219169083151502179055505050507f54376985c61133fd74ddfd5be0e7cacfebc5ee2b28b59fff7642086996680be48383600a866040518082805190602001908083835b6020831015156118cd57805182526020820191506020810190506020830392506118a8565b6001836020036101000a03801982511681845116808217855250505050505090500191505090815260200160405180910390206001018581548110151561191057fe5b9060005260206000209060050201600101600a876040518082805190602001908083835b6020831015156119595780518252602082019150602081019050602083039250611934565b6001836020036101000a03801982511681845116808217855250505050505090500191505090815260200160405180910390206001018681548110151561199c57fe5b906000526020600020906005020160020154600a886040518082805190602001908083835b6020831015156119e657805182526020820191506020810190506020830392506119c1565b6001836020036101000a038019825116818451168082178552505050505050905001915050908152602001604051809103902060010187815481101515611a2957fe5b906000526020600020906005020160030154600160405180806020018781526020018060200186815260200185815260200184151515158152602001838103835289818151815260200191508051906020019080838360005b83811015611a9d578082015181840152602081019050611a82565b50505050905090810190601f168015611aca5780820380516001836020036101000a031916815260200191505b50838103825287818154600181600116156101000203166002900481526020019150805460018160011615610100020316600290048015611b4c5780601f10611b2157610100808354040283529160200191611b4c565b820191906000526020600020905b815481529060010190602001808311611b2f57829003601f168201915b50509850505050505050505060405180910390a16001905092915050565b60003073ffffffffffffffffffffffffffffffffffffffff1631611bc26040805190810160405280600381526020017f55524c0000000000000000000000000000000000000000000000000000000000815250614a8d565b1115611bd1576000905061232c565b60011515600a846040518082805190602001908083835b602083101515611c0d5780518252602082019150602081019050602083039250611be8565b6001836020036101000a038019825116818451168082178552505050505050905001915050908152602001604051809103902060030160009054906101000a900460ff161515141515611cee576040517f08c379a00000000000000000000000000000000000000000000000000000000081526004018080602001828103825260258152602001807f4465766963652073657269616c206e756d626572206973206e6f74206176616981526020017f6c61626c6500000000000000000000000000000000000000000000000000000081525060400191505060405180910390fd5b60011515600a846040518082805190602001908083835b602083101515611d2a5780518252602082019150602081019050602083039250611d05565b6001836020036101000a038019825116818451168082178552505050505050905001915050908152602001604051809103902060020183815481101515611d6d57fe5b906000526020600020906005020160040160019054906101000a900460ff161515141515611e29576040517f08c379a00000000000000000000000000000000000000000000000000000000081526004018080602001828103825260218152602001807f44657669636520616374696f6e206964206973206e6f7420617661696c61626c81526020017f650000000000000000000000000000000000000000000000000000000000000081525060400191505060405180910390fd5b600c600083815260200190815260200160002060c0604051908101604052803373ffffffffffffffffffffffffffffffffffffffff168152602001848152602001428152602001600115158152602001600015158152602001600115158152509080600181540180825580915050906001820390600052602060002090600402016000909192909190915060008201518160000160006101000a81548173ffffffffffffffffffffffffffffffffffffffff021916908373ffffffffffffffffffffffffffffffffffffffff160217905550602082015181600101556040820151816002015560608201518160030160006101000a81548160ff02191690831515021790555060808201518160030160016101000a81548160ff02191690831515021790555060a08201518160030160026101000a81548160ff02191690831515021790555050505060106080604051908101604052808581526020018481526020016001600c60008781526020019081526020016000208054905003815260200160011515815250908060018154018082558091505090600182039060005260206000209060040201600090919290919091506000820151816000019080519060200190611ff9929190615322565b50602082015181600101556040820151816002015560608201518160030160006101000a81548160ff0219169083151502179055505050506001600d819055507f875b40a67d33b0171b10d7197a7c57cc4a8a03020e69c119753e83c0779064078383600a866040518082805190602001908083835b602083101515612094578051825260208201915060208101905060208303925061206f565b6001836020036101000a0380198251168184511680821785525050505050509050019150509081526020016040518091039020600201858154811015156120d757fe5b9060005260206000209060050201600101600a876040518082805190602001908083835b60208310151561212057805182526020820191506020810190506020830392506120fb565b6001836020036101000a03801982511681845116808217855250505050505090500191505090815260200160405180910390206002018681548110151561216357fe5b906000526020600020906005020160020154600a886040518082805190602001908083835b6020831015156121ad5780518252602082019150602081019050602083039250612188565b6001836020036101000a0380198251168184511680821785525050505050509050019150509081526020016040518091039020600201878154811015156121f057fe5b906000526020600020906005020160030154600160405180806020018781526020018060200186815260200185815260200184151515158152602001838103835289818151815260200191508051906020019080838360005b83811015612264578082015181840152602081019050612249565b50505050905090810190601f1680156122915780820380516001836020036101000a031916815260200191505b508381038252878181546001816001161561010002031660029004815260200191508054600181600116156101000203166002900480156123135780601f106122e857610100808354040283529160200191612313565b820191906000526020600020905b8154815290600101906020018083116122f657829003601f168201915b50509850505050505050505060405180910390a1600190505b92915050565b735238527616882251df1ae2c5353dc6cf0a515fdc81565b8060096000600754815260200190815260200160002090805190602001906123739291906153a2565b507f194eca99f82bff3034def8c3fc7fab887bd83660b1f0ef3a0f4f909bf5a19ac0600754826040518083815260200180602001828103825283818151815260200191508051906020019080838360005b838110156123df5780820151818401526020810190506123c4565b50505050905090810190601f16801561240c5780820380516001836020036101000a031916815260200191505b50935050505060405180910390a160076000815480929190600101919050555050565b60075481565b60003373ffffffffffffffffffffffffffffffffffffffff16600660009054906101000a900473ffffffffffffffffffffffffffffffffffffffff1673ffffffffffffffffffffffffffffffffffffffff1614151561249357600080fd5b81600560009054906101000a900473ffffffffffffffffffffffffffffffffffffffff1673ffffffffffffffffffffffffffffffffffffffff1663f8b2cb4f856040518263ffffffff167c0100000000000000000000000000000000000000000000000000000000028152600401808273ffffffffffffffffffffffffffffffffffffffff1673ffffffffffffffffffffffffffffffffffffffff168152602001915050602060405180830381600087803b15801561255157600080fd5b505af1158015612565573d6000803e3d6000fd5b505050506040513d602081101561257b57600080fd5b81019080805190602001909291905050501015151561259957600080fd5b600560009054906101000a900473ffffffffffffffffffffffffffffffffffffffff1673ffffffffffffffffffffffffffffffffffffffff1663250dea0684846000036040518363ffffffff167c0100000000000000000000000000000000000000000000000000000000028152600401808373ffffffffffffffffffffffffffffffffffffffff1673ffffffffffffffffffffffffffffffffffffffff16815260200182815260200192505050602060405180830381600087803b15801561266157600080fd5b505af1158015612675573d6000803e3d6000fd5b505050506040513d602081101561268b57600080fd5b810190808051906020019092919050505050600560009054906101000a900473ffffffffffffffffffffffffffffffffffffffff1673ffffffffffffffffffffffffffffffffffffffff1663250dea0633846040518363ffffffff167c0100000000000000000000000000000000000000000000000000000000028152600401808373ffffffffffffffffffffffffffffffffffffffff1673ffffffffffffffffffffffffffffffffffffffff16815260200182815260200192505050602060405180830381600087803b15801561276257600080fd5b505af1158015612776573d6000803e3d6000fd5b505050506040513d602081101561278c57600080fd5b8101908080519060200190929190505050506001905092915050565b60008060011515600a866040518082805190602001908083835b6020831015156127e757805182526020820191506020810190506020830392506127c2565b6001836020036101000a038019825116818451168082178552505050505050905001915050908152602001604051809103902060030160009054906101000a900460ff16151514151561283957600080fd5b60011515600a866040518082805190602001908083835b6020831015156128755780518252602082019150602081019050602083039250612850565b6001836020036101000a0380198251168184511680821785525050505050509050019150509081526020016040518091039020600101858154811015156128b857fe5b906000526020600020906005020160040160019054906101000a900460ff1615151415156128e557600080fd5b60011515600a866040518082805190602001908083835b60208310151561292157805182526020820191506020810190506020830392506128fc565b6001836020036101000a03801982511681845116808217855250505050505090500191505090815260200160405180910390206001018581548110151561296457fe5b906000526020600020906005020160040160009054906101000a900460ff16151514151561299157600080fd5b60011515600b6000868152602001908152602001600020848154811015156129b557fe5b906000526020600020906004020160030160029054906101000a900460ff1615151415156129e257600080fd5b83600b600086815260200190815260200160002084815481101515612a0357fe5b906000526020600020906004020160010154141515612a2157600080fd5b60001515600b600086815260200190815260200160002084815481101515612a4557fe5b906000526020600020906004020160030160019054906101000a900460ff161515141515612a7257600080fd5b600a856040518082805190602001908083835b602083101515612aaa5780518252602082019150602081019050602083039250612a85565b6001836020036101000a038019825116818451168082178552505050505050905001915050908152602001604051809103902060010184815481101515612aed57fe5b906000526020600020906005020160030154600b600086815260200190815260200160002084815481101515612b1f57fe5b90600052602060002090600402016002015401420390507fff0f80a21f0b8ffece1482bb76715974416021bd0b68a528dfcd29421cd67dd48484600a886040518082805190602001908083835b602083101515612b915780518252602082019150602081019050602083039250612b6c565b6001836020036101000a038019825116818451168082178552505050505050905001915050908152602001604051809103902060010187815481101515612bd457fe5b906000526020600020906005020160020154426040518085815260200184815260200183815260200182815260200194505050505060405180910390a160019150509392505050565b6000600a836040518082805190602001908083835b602083101515612c575780518252602082019150602081019050602083039250612c32565b6001836020036101000a038019825116818451168082178552505050505050905001915050908152602001604051809103902060010182815481101515612c9a57fe5b906000526020600020906005020160040160009054906101000a900460ff16905092915050565b6000600660009054906101000a900473ffffffffffffffffffffffffffffffffffffffff16905090565b600060011515600a846040518082805190602001908083835b602083101515612d295780518252602082019150602081019050602083039250612d04565b6001836020036101000a038019825116818451168082178552505050505050905001915050908152602001604051809103902060030160009054906101000a900460ff161515141515612e0a576040517f08c379a00000000000000000000000000000000000000000000000000000000081526004018080602001828103825260258152602001807f4465766963652073657269616c206e756d626572206973206e6f74206176616981526020017f6c61626c6500000000000000000000000000000000000000000000000000000081525060400191505060405180910390fd5b60011515600a846040518082805190602001908083835b602083101515612e465780518252602082019150602081019050602083039250612e21565b6001836020036101000a038019825116818451168082178552505050505050905001915050908152602001604051809103902060020183815481101515612e8957fe5b906000526020600020906005020160040160019054906101000a900460ff161515141515612f45576040517f08c379a00000000000000000000000000000000000000000000000000000000081526004018080602001828103825260218152602001807f44657669636520616374696f6e206964206973206e6f7420617661696c61626c81526020017f650000000000000000000000000000000000000000000000000000000000000081525060400191505060405180910390fd5b600c600083815260200190815260200160002060c0604051908101604052803373ffffffffffffffffffffffffffffffffffffffff168152602001848152602001428152602001600015158152602001600015158152602001600115158152509080600181540180825580915050906001820390600052602060002090600402016000909192909190915060008201518160000160006101000a81548173ffffffffffffffffffffffffffffffffffffffff021916908373ffffffffffffffffffffffffffffffffffffffff160217905550602082015181600101556040820151816002015560608201518160030160006101000a81548160ff02191690831515021790555060808201518160030160016101000a81548160ff02191690831515021790555060a08201518160030160026101000a81548160ff0219169083151502179055505050507f54376985c61133fd74ddfd5be0e7cacfebc5ee2b28b59fff7642086996680be48383600a866040518082805190602001908083835b6020831015156130e957805182526020820191506020810190506020830392506130c4565b6001836020036101000a03801982511681845116808217855250505050505090500191505090815260200160405180910390206002018581548110151561312c57fe5b9060005260206000209060050201600101600a876040518082805190602001908083835b6020831015156131755780518252602082019150602081019050602083039250613150565b6001836020036101000a0380198251168184511680821785525050505050509050019150509081526020016040518091039020600201868154811015156131b857fe5b906000526020600020906005020160020154600a886040518082805190602001908083835b60208310151561320257805182526020820191506020810190506020830392506131dd565b6001836020036101000a03801982511681845116808217855250505050505090500191505090815260200160405180910390206002018781548110151561324557fe5b906000526020600020906005020160030154600160405180806020018781526020018060200186815260200185815260200184151515158152602001838103835289818151815260200191508051906020019080838360005b838110156132b957808201518184015260208101905061329e565b50505050905090810190601f1680156132e65780820380516001836020036101000a031916815260200191505b508381038252878181546001816001161561010002031660029004815260200191508054600181600116156101000203166002900480156133685780601f1061333d57610100808354040283529160200191613368565b820191906000526020600020905b81548152906001019060200180831161334b57829003601f168201915b50509850505050505050505060405180910390a16001905092915050565b60003373ffffffffffffffffffffffffffffffffffffffff16600660009054906101000a900473ffffffffffffffffffffffffffffffffffffffff1673ffffffffffffffffffffffffffffffffffffffff1614151561344d576040517f08c379a000000000000000000000000000000000000000000000000000000000815260040180806020018281038252601e8152602001807f4f6e6c79206d65726368616e742063616e2061646420646576696365732e000081525060200191505060405180910390fd5b60001515600a846040518082805190602001908083835b6020831015156134895780518252602082019150602081019050602083039250613464565b6001836020036101000a038019825116818451168082178552505050505050905001915050908152602001604051809103902060030160009054906101000a900460ff1615151415156134db57600080fd5b81600a846040518082805190602001908083835b60208310151561351457805182526020820191506020810190506020830392506134ef565b6001836020036101000a0380198251168184511680821785525050505050509050019150509081526020016040518091039020600001908051906020019061355d9291906153a2565b506001600a846040518082805190602001908083835b6020831015156135985780518252602082019150602081019050602083039250613573565b6001836020036101000a038019825116818451168082178552505050505050905001915050908152602001604051809103902060030160006101000a81548160ff021916908315150217905550600e8390806001815401808255809150509060018203906000526020600020016000909192909190915090805190602001906136229291906153a2565b5050600f8290806001815401808255809150509060018203906000526020600020016000909192909190915090805190602001906136619291906153a2565b50507f84da8c942e3478a5498fd682b4767ba146f2c826584690a6a1958d7c3e46e2098383600160405180806020018060200184151515158152602001838103835286818151815260200191508051906020019080838360005b838110156136d65780820151818401526020810190506136bb565b50505050905090810190601f1680156137035780820380516001836020036101000a031916815260200191505b50838103825285818151815260200191508051906020019080838360005b8381101561373c578082015181840152602081019050613721565b50505050905090810190601f1680156137695780820380516001836020036101000a031916815260200191505b509550505050505060405180910390a16008600081548092919060010191905055506001905092915050565b60003373ffffffffffffffffffffffffffffffffffffffff16600660009054906101000a900473ffffffffffffffffffffffffffffffffffffffff1673ffffffffffffffffffffffffffffffffffffffff161415156137f357600080fd5b60011515600a876040518082805190602001908083835b60208310151561382f578051825260208201915060208101905060208303925061380a565b6001836020036101000a038019825116818451168082178552505050505050905001915050908152602001604051809103902060030160009054906101000a900460ff161515141515613910576040517f08c379a00000000000000000000000000000000000000000000000000000000081526004018080602001828103825260258152602001807f4465766963652073657269616c206e756d626572206973206e6f74206176616981526020017f6c61626c6500000000000000000000000000000000000000000000000000000081525060400191505060405180910390fd5b600a866040518082805190602001908083835b6020831015156139485780518252602082019150602081019050602083039250613923565b6001836020036101000a038019825116818451168082178552505050505050905001915050908152602001604051809103902060010160c060405190810160405280600a896040518082805190602001908083835b6020831015156139c2578051825260208201915060208101905060208303925061399d565b6001836020036101000a038019825116818451168082178552505050505050905001915050908152602001604051809103902060010180549050815260200187815260200186815260200185815260200184151581526020016001151581525090806001815401808255809150509060018203906000526020600020906005020160009091929091909150600082015181600001556020820151816001019080519060200190613a73929190615322565b50604082015181600201556060820151816003015560808201518160040160006101000a81548160ff02191690831515021790555060a08201518160040160016101000a81548160ff0219169083151502179055505050507fab7af84a14131a8d124961d4f462f1fb7e82b562aba899a3f28200031563b3e686600a886040518082805190602001908083835b602083101515613b255780518252602082019150602081019050602083039250613b00565b6001836020036101000a038019825116818451168082178552505050505050905001915050908152602001604051809103902060010180549050878787876001604051808060200188815260200180602001878152602001868152602001851515151581526020018415151515815260200183810383528a818151815260200191508051906020019080838360005b83811015613bcf578082015181840152602081019050613bb4565b50505050905090810190601f168015613bfc5780820380516001836020036101000a031916815260200191505b50838103825288818151815260200191508051906020019080838360005b83811015613c35578082015181840152602081019050613c1a565b50505050905090810190601f168015613c625780820380516001836020036101000a031916815260200191505b50995050505050505050505060405180910390a16001905095945050505050565b6000600660009054906101000a900473ffffffffffffffffffffffffffffffffffffffff1673ffffffffffffffffffffffffffffffffffffffff163373ffffffffffffffffffffffffffffffffffffffff16141515613ce157600080fd5b60011515600a856040518082805190602001908083835b602083101515613d1d5780518252602082019150602081019050602083039250613cf8565b6001836020036101000a038019825116818451168082178552505050505050905001915050908152602001604051809103902060030160009054906101000a900460ff161515141515613d6f57600080fd5b60011515600a856040518082805190602001908083835b602083101515613dab5780518252602082019150602081019050602083039250613d86565b6001836020036101000a038019825116818451168082178552505050505050905001915050908152602001604051809103902060010184815481101515613dee57fe5b906000526020600020906005020160040160019054906101000a900460ff161515141515613e1b57600080fd5b60011515600a856040518082805190602001908083835b602083101515613e575780518252602082019150602081019050602083039250613e32565b6001836020036101000a038019825116818451168082178552505050505050905001915050908152602001604051809103902060010184815481101515613e9a57fe5b906000526020600020906005020160040160009054906101000a900460ff161515141515613ec757600080fd5b60011515600b600085815260200190815260200160002083815481101515613eeb57fe5b906000526020600020906004020160030160029054906101000a900460ff161515141515613f1857600080fd5b82600b600085815260200190815260200160002083815481101515613f3957fe5b906000526020600020906004020160010154141515613f5757600080fd5b60001515600b600085815260200190815260200160002083815481101515613f7b57fe5b906000526020600020906004020160030160019054906101000a900460ff161515141515613fa857600080fd5b7f08962bc8e69e48f301d776a9cbc9ea37df6c12e29b411692176848df7ced36d78383600a876040518082805190602001908083835b6020831015156140035780518252602082019150602081019050602083039250613fde565b6001836020036101000a03801982511681845116808217855250505050505090500191505090815260200160405180910390206001018681548110151561404657fe5b906000526020600020906005020160020154426040518085815260200184815260200183815260200182815260200194505050505060405180910390a1600190509392505050565b600060011515600a846040518082805190602001908083835b6020831015156140cc57805182526020820191506020810190506020830392506140a7565b6001836020036101000a038019825116818451168082178552505050505050905001915050908152602001604051809103902060030160009054906101000a900460ff1615151415156141ad576040517f08c379a00000000000000000000000000000000000000000000000000000000081526004018080602001828103825260258152602001807f4465766963652073657269616c206e756d626572206973206e6f74206176616981526020017f6c61626c6500000000000000000000000000000000000000000000000000000081525060400191505060405180910390fd5b60011515600a846040518082805190602001908083835b6020831015156141e957805182526020820191506020810190506020830392506141c4565b6001836020036101000a03801982511681845116808217855250505050505090500191505090815260200160405180910390206001018381548110151561422c57fe5b906000526020600020906005020160040160019054906101000a900460ff1615151415156142e8576040517f08c379a00000000000000000000000000000000000000000000000000000000081526004018080602001828103825260218152602001807f44657669636520616374696f6e206964206973206e6f7420617661696c61626c81526020017f650000000000000000000000000000000000000000000000000000000000000081525060400191505060405180910390fd5b600b600083815260200190815260200160002060c0604051908101604052803373ffffffffffffffffffffffffffffffffffffffff168152602001848152602001428152602001600115158152602001600015158152602001600115158152509080600181540180825580915050906001820390600052602060002090600402016000909192909190915060008201518160000160006101000a81548173ffffffffffffffffffffffffffffffffffffffff021916908373ffffffffffffffffffffffffffffffffffffffff160217905550602082015181600101556040820151816002015560608201518160030160006101000a81548160ff02191690831515021790555060808201518160030160016101000a81548160ff02191690831515021790555060a08201518160030160026101000a81548160ff0219169083151502179055505050507f875b40a67d33b0171b10d7197a7c57cc4a8a03020e69c119753e83c0779064078383600a866040518082805190602001908083835b60208310151561448c5780518252602082019150602081019050602083039250614467565b6001836020036101000a0380198251168184511680821785525050505050509050019150509081526020016040518091039020600101858154811015156144cf57fe5b9060005260206000209060050201600101600a876040518082805190602001908083835b60208310151561451857805182526020820191506020810190506020830392506144f3565b6001836020036101000a03801982511681845116808217855250505050505090500191505090815260200160405180910390206001018681548110151561455b57fe5b906000526020600020906005020160020154600a886040518082805190602001908083835b6020831015156145a55780518252602082019150602081019050602083039250614580565b6001836020036101000a0380198251168184511680821785525050505050509050019150509081526020016040518091039020600101878154811015156145e857fe5b906000526020600020906005020160030154600160405180806020018781526020018060200186815260200185815260200184151515158152602001838103835289818151815260200191508051906020019080838360005b8381101561465c578082015181840152602081019050614641565b50505050905090810190601f1680156146895780820380516001836020036101000a031916815260200191505b5083810382528781815460018160011615610100020316600290048152602001915080546001816001161561010002031660029004801561470b5780601f106146e05761010080835404028352916020019161470b565b820191906000526020600020905b8154815290600101906020018083116146ee57829003601f168201915b50509850505050505050505060405180910390a16001905092915050565b60085481565b6000806000809054906101000a900473ffffffffffffffffffffffffffffffffffffffff1673ffffffffffffffffffffffffffffffffffffffff16148061479f5750600061479d6000809054906101000a900473ffffffffffffffffffffffffffffffffffffffff16614e5d565b145b156147b0576147ae6000614e68565b505b6000809054906101000a900473ffffffffffffffffffffffffffffffffffffffff1673ffffffffffffffffffffffffffffffffffffffff166338cc48316040518163ffffffff167c0100000000000000000000000000000000000000000000000000000000028152600401602060405180830381600087803b15801561483557600080fd5b505af1158015614849573d6000803e3d6000fd5b505050506040513d602081101561485f57600080fd5b810190808051906020019092919050505073ffffffffffffffffffffffffffffffffffffffff16600160009054906101000a900473ffffffffffffffffffffffffffffffffffffffff1673ffffffffffffffffffffffffffffffffffffffff161415156149c7576000809054906101000a900473ffffffffffffffffffffffffffffffffffffffff1673ffffffffffffffffffffffffffffffffffffffff166338cc48316040518163ffffffff167c0100000000000000000000000000000000000000000000000000000000028152600401602060405180830381600087803b15801561494b57600080fd5b505af115801561495f573d6000803e3d6000fd5b505050506040513d602081101561497557600080fd5b8101908080519060200190929190505050600160006101000a81548173ffffffffffffffffffffffffffffffffffffffff021916908373ffffffffffffffffffffffffffffffffffffffff1602179055505b600160009054906101000a900473ffffffffffffffffffffffffffffffffffffffff1673ffffffffffffffffffffffffffffffffffffffff1663c281d19e6040518163ffffffff167c0100000000000000000000000000000000000000000000000000000000028152600401602060405180830381600087803b158015614a4d57600080fd5b505af1158015614a61573d6000803e3d6000fd5b505050506040513d6020811015614a7757600080fd5b8101908080519060200190929190505050905090565b6000806000809054906101000a900473ffffffffffffffffffffffffffffffffffffffff1673ffffffffffffffffffffffffffffffffffffffff161480614afd57506000614afb6000809054906101000a900473ffffffffffffffffffffffffffffffffffffffff16614e5d565b145b15614b0e57614b0c6000614e68565b505b6000809054906101000a900473ffffffffffffffffffffffffffffffffffffffff1673ffffffffffffffffffffffffffffffffffffffff166338cc48316040518163ffffffff167c0100000000000000000000000000000000000000000000000000000000028152600401602060405180830381600087803b158015614b9357600080fd5b505af1158015614ba7573d6000803e3d6000fd5b505050506040513d6020811015614bbd57600080fd5b810190808051906020019092919050505073ffffffffffffffffffffffffffffffffffffffff16600160009054906101000a900473ffffffffffffffffffffffffffffffffffffffff1673ffffffffffffffffffffffffffffffffffffffff16141515614d25576000809054906101000a900473ffffffffffffffffffffffffffffffffffffffff1673ffffffffffffffffffffffffffffffffffffffff166338cc48316040518163ffffffff167c0100000000000000000000000000000000000000000000000000000000028152600401602060405180830381600087803b158015614ca957600080fd5b505af1158015614cbd573d6000803e3d6000fd5b505050506040513d6020811015614cd357600080fd5b8101908080519060200190929190505050600160006101000a81548173ffffffffffffffffffffffffffffffffffffffff021916908373ffffffffffffffffffffffffffffffffffffffff1602179055505b600160009054906101000a900473ffffffffffffffffffffffffffffffffffffffff1673ffffffffffffffffffffffffffffffffffffffff1663524f3889836040518263ffffffff167c01000000000000000000000000000000000000000000000000000000000281526004018080602001828103825283818151815260200191508051906020019080838360005b83811015614dcf578082015181840152602081019050614db4565b50505050905090810190601f168015614dfc5780820380516001836020036101000a031916815260200191505b5092505050602060405180830381600087803b158015614e1b57600080fd5b505af1158015614e2f573d6000803e3d6000fd5b505050506040513d6020811015614e4557600080fd5b81019080805190602001909291905050509050919050565b6000813b9050919050565b6000614e72614e79565b9050919050565b600080614e99731d3b2638a7cc9f2cb3d298a3da7a90b67e5506ed614e5d565b1115614f3a57731d3b2638a7cc9f2cb3d298a3da7a90b67e5506ed6000806101000a81548173ffffffffffffffffffffffffffffffffffffffff021916908373ffffffffffffffffffffffffffffffffffffffff160217905550614f316040805190810160405280600b81526020017f6574685f6d61696e6e6574000000000000000000000000000000000000000000815250615308565b60019050615305565b6000614f5973c03a2615d5efaf5f49f60b7bb6583eaec212fdf1614e5d565b1115614ffa5773c03a2615d5efaf5f49f60b7bb6583eaec212fdf16000806101000a81548173ffffffffffffffffffffffffffffffffffffffff021916908373ffffffffffffffffffffffffffffffffffffffff160217905550614ff16040805190810160405280600c81526020017f6574685f726f707374656e330000000000000000000000000000000000000000815250615308565b60019050615305565b600061501973b7a07bcf2ba2f2703b24c0691b5278999c59ac7e614e5d565b11156150ba5773b7a07bcf2ba2f2703b24c0691b5278999c59ac7e6000806101000a81548173ffffffffffffffffffffffffffffffffffffffff021916908373ffffffffffffffffffffffffffffffffffffffff1602179055506150b16040805190810160405280600981526020017f6574685f6b6f76616e0000000000000000000000000000000000000000000000815250615308565b60019050615305565b60006150d973146500cfd35b22e4a392fe0adc06de1a1368ed48614e5d565b111561517a5773146500cfd35b22e4a392fe0adc06de1a1368ed486000806101000a81548173ffffffffffffffffffffffffffffffffffffffff021916908373ffffffffffffffffffffffffffffffffffffffff1602179055506151716040805190810160405280600b81526020017f6574685f72696e6b656279000000000000000000000000000000000000000000815250615308565b60019050615305565b6000615199736f485c8bf6fc43ea212e93bbf8ce046c7f1cb475614e5d565b11156151fc57736f485c8bf6fc43ea212e93bbf8ce046c7f1cb4756000806101000a81548173ffffffffffffffffffffffffffffffffffffffff021916908373ffffffffffffffffffffffffffffffffffffffff16021790555060019050615305565b600061521b7320e12a1f859b3feae5fb2a0a32c18f5a65555bbf614e5d565b111561527e577320e12a1f859b3feae5fb2a0a32c18f5a65555bbf6000806101000a81548173ffffffffffffffffffffffffffffffffffffffff021916908373ffffffffffffffffffffffffffffffffffffffff16021790555060019050615305565b600061529d7351efaf4c8b3c9afbd5ab9f4bbc82784ab6ef8faa614e5d565b1115615300577351efaf4c8b3c9afbd5ab9f4bbc82784ab6ef8faa6000806101000a81548173ffffffffffffffffffffffffffffffffffffffff021916908373ffffffffffffffffffffffffffffffffffffffff16021790555060019050615305565b600090505b90565b806002908051906020019061531e9291906153a2565b5050565b828054600181600116156101000203166002900490600052602060002090601f016020900481019282601f1061536357805160ff1916838001178555615391565b82800160010185558215615391579182015b82811115615390578251825591602001919060010190615375565b5b50905061539e9190615422565b5090565b828054600181600116156101000203166002900490600052602060002090601f016020900481019282601f106153e357805160ff1916838001178555615411565b82800160010185558215615411579182015b828111156154105782518255916020019190600101906153f5565b5b50905061541e9190615422565b5090565b61544491905b80821115615440576000816000905550600101615428565b5090565b905600a165627a7a72305820f77c7967400b10bfab4fe7cd2ec5e8a62cb287cf30940fc1996e85664e0370700029",
  "source": "pragma solidity ^0.4.24;\n\nimport \"./Rawbot.sol\";\nimport \"./Oraclize.sol\";\n\ncontract Merchant is usingOraclize {\n\n    Rawbot private rawbot;\n    address public constant rawbot_address = 0x5238527616882251df1ae2c5353dc6cf0a515fdc;\n    address private merchant_address;\n    uint public hash_index = 0;\n    uint public devices_amount = 0;\n    mapping(uint => string) ipfs_hash;\n    mapping(string => Device) private devices;\n    mapping(uint256 => ActionHistory[]) private action_history;\n    mapping(uint256 => ActionHistory[]) private recurring_action_history;\n\n    uint256 public RECURRING_PAYMENT_STEP = 0;\n    string[] private device_serial_numbers;\n    string[] private device_names;\n    RA[] recurring_action_array;\n\n    event Refund(uint, uint, uint, uint);\n    event RefundAutomatic(uint, uint, uint, uint);\n\n    event RecurrentRefund(uint, uint, uint, uint);\n    event RecurrentRefundAutomatic(uint, uint, uint, uint);\n\n    event RecurringPaymentLog(string);\n\n    event DeviceAdd(string, string, bool);\n    event ActionAdd(string, uint, string, uint256, uint256, bool, bool);\n    event ActionEnable(string, uint, string, uint256, uint256, bool);\n    event ActionDisable(string, uint, string, uint256, uint256, bool);\n\n    event RecurringActionAdd(string, uint, string, uint256, uint256, bool, bool);\n    event RecurringActionEnable(string, uint, string, uint256, uint256, bool);\n    event RecurringActionDisable(string, uint, string, uint256, uint256, bool);\n\n    event AddIPFSHash(uint, string);\n\n    constructor(address _merchant_address) payable public {\n        merchant_address = _merchant_address;\n        rawbot = Rawbot(rawbot_address);\n    }\n\n    struct RA {\n        string device_name;\n        uint256 recurring_action_id;\n        uint256 recurring_action_history_id;\n        bool available;\n    }\n\n    struct Device {\n        string device_name;\n        Action[] device_actions;\n        RecurringAction[] device_recurring_actions;\n        bool available;\n    }\n\n    struct Action {\n        uint256 id;\n        string name;\n        uint256 price;\n        uint256 duration;\n        bool refundable;\n        bool available;\n    }\n\n    struct RecurringAction {\n        uint256 id;\n        string name;\n        uint256 price;\n        uint256 _days;\n        bool refundable;\n        bool available;\n    }\n\n    struct ActionHistory {\n        address user;\n        uint256 id;\n        uint256 time;\n        bool enable;\n        bool refunded;\n        bool available;\n    }\n\n    //\"ABC\", \"Raspberry PI 3\"\n    function addDevice(string device_serial_number, string device_name) public payable returns (bool){\n        require(merchant_address == msg.sender, \"Only merchant can add devices.\");\n        require(devices[device_serial_number].available == false);\n        devices[device_serial_number].device_name = device_name;\n        devices[device_serial_number].available = true;\n        device_serial_numbers.push(device_serial_number);\n        device_names.push(device_name);\n        emit DeviceAdd(device_serial_number, device_name, true);\n        devices_amount++;\n        return true;\n    }\n\n    //\"ABC\", \"Open\", 20, 20, true\n    function addAction(string device_serial_number, string action_name, uint256 action_price, uint256 action_duration, bool refundable) public payable returns (bool){\n        require(merchant_address == msg.sender);\n        require(devices[device_serial_number].available == true, \"Device serial number is not available\");\n        devices[device_serial_number].device_actions.push(Action(devices[device_serial_number].device_actions.length, action_name, action_price, action_duration, refundable, true));\n        emit ActionAdd(device_serial_number, devices[device_serial_number].device_actions.length, action_name, action_price, action_duration, refundable, true);\n        return true;\n    }\n\n    //\"ABC\", \"Open\", 20, 20, true\n    function addRecurringAction(string device_serial_number, string action_name, uint256 action_price, uint256 _days, bool refundable) public payable returns (bool){\n        require(merchant_address == msg.sender);\n        require(devices[device_serial_number].available == true, \"Device serial number is not available\");\n        devices[device_serial_number].device_recurring_actions.push(RecurringAction(devices[device_serial_number].device_recurring_actions.length, action_name, action_price, _days, refundable, true));\n        emit ActionAdd(device_serial_number, devices[device_serial_number].device_recurring_actions.length, action_name, action_price, _days, refundable, true);\n        return true;\n    }\n\n    //\"ABC\", 0\n    function enableAction(string device_serial_number, uint256 action_id) public payable returns (bool success) {\n        require(devices[device_serial_number].available == true, \"Device serial number is not available\");\n        require(devices[device_serial_number].device_actions[action_id].available == true, \"Device action id is not available\");\n        //        require(rawbot.getBalance(msg.sender) >= devices[device_serial_number].device_actions[action_id].price, \"User doesn't have enough balance\");\n        action_history[action_id].push(ActionHistory(msg.sender, action_id, now, true, false, true));\n        //        rawbot.modifyBalance(msg.sender, - devices[device_serial_number].device_actions[action_id].price);\n        //        rawbot.modifyBalance(merchant_address, devices[device_serial_number].device_actions[action_id].price);\n        emit ActionEnable(device_serial_number, action_id, devices[device_serial_number].device_actions[action_id].name, devices[device_serial_number].device_actions[action_id].price, devices[device_serial_number].device_actions[action_id].duration, true);\n        return true;\n    }\n\n    //\"ABC\", 0\n    function enableRecurringAction(string device_serial_number, uint256 action_id) public payable returns (bool success) {\n        if (oraclize_getPrice(\"URL\") > address(this).balance) {\n            return false;\n        } else {\n            require(devices[device_serial_number].available == true, \"Device serial number is not available\");\n            require(devices[device_serial_number].device_recurring_actions[action_id].available == true, \"Device action id is not available\");\n            // require(rawbot.getBalance(msg.sender) >= devices[device_serial_number].device_recurring_actions[action_id].price, \"User doesn't have enough balance\");\n            recurring_action_history[action_id].push(ActionHistory(msg.sender, action_id, now, true, false, true));\n            recurring_action_array.push(RA(device_serial_number, action_id, recurring_action_history[action_id].length - 1, true));\n            // rawbot.modifyBalance(msg.sender, - devices[device_serial_number].device_recurring_actions[action_id].price);\n            // rawbot.modifyBalance(merchant_address, devices[device_serial_number].device_recurring_actions[action_id].price);\n            // oraclize_query(devices[device_serial_number].device_recurring_actions[action_id]._days * 60 * 60 * 24, \"URL\", \"\");\n            RECURRING_PAYMENT_STEP = 1;\n            emit ActionEnable(device_serial_number, action_id, devices[device_serial_number].device_recurring_actions[action_id].name, devices[device_serial_number].device_recurring_actions[action_id].price, devices[device_serial_number].device_recurring_actions[action_id]._days, true);\n            return true;\n        }\n    }\n\n    //\"ABC\", 0\n    function disableAction(string device_serial_number, uint256 action_id) public payable returns (bool success) {\n        require(devices[device_serial_number].available == true, \"Device serial number is not available\");\n        require(devices[device_serial_number].device_actions[action_id].available == true, \"Device action id is not available\");\n        action_history[action_id].push(ActionHistory(msg.sender, action_id, now, false, false, true));\n        emit ActionDisable(device_serial_number, action_id, devices[device_serial_number].device_actions[action_id].name, devices[device_serial_number].device_actions[action_id].price, devices[device_serial_number].device_actions[action_id].duration, true);\n        return true;\n    }\n\n    //\"ABC\", 0\n    function disableRecurringAction(string device_serial_number, uint256 action_id) public payable returns (bool success) {\n        require(devices[device_serial_number].available == true, \"Device serial number is not available\");\n        require(devices[device_serial_number].device_recurring_actions[action_id].available == true, \"Device action id is not available\");\n        recurring_action_history[action_id].push(ActionHistory(msg.sender, action_id, now, false, false, true));\n        emit ActionDisable(device_serial_number, action_id, devices[device_serial_number].device_recurring_actions[action_id].name, devices[device_serial_number].device_recurring_actions[action_id].price, devices[device_serial_number].device_recurring_actions[action_id]._days, true);\n        return true;\n    }\n\n    //\"ABC\", 0, 0\n    function refund(string device_serial_number, uint256 action_id, uint _action_history_id) payable public returns (bool) {\n        require(msg.sender == merchant_address);\n        require(devices[device_serial_number].available == true);\n        require(devices[device_serial_number].device_actions[action_id].available == true);\n        require(devices[device_serial_number].device_actions[action_id].refundable == true);\n        require(action_history[action_id][_action_history_id].available == true);\n        require(action_history[action_id][_action_history_id].id == action_id);\n        require(action_history[action_id][_action_history_id].refunded == false);\n        //        rawbot.modifyBalance(msg.sender, devices[device_serial_number].device_actions[action_id].price);\n        emit Refund(action_id, _action_history_id, devices[device_serial_number].device_actions[action_id].price, now);\n        return true;\n    }\n\n    //\"ABC\", 0, 0\n    function refundAutomatic(string device_serial_number, uint256 action_id, uint256 _action_history_id) payable public returns (bool success) {\n        require(devices[device_serial_number].available == true);\n        require(devices[device_serial_number].device_actions[action_id].available == true);\n        require(devices[device_serial_number].device_actions[action_id].refundable == true);\n        require(action_history[action_id][_action_history_id].available == true);\n        require(action_history[action_id][_action_history_id].id == action_id);\n        require(action_history[action_id][_action_history_id].refunded == false);\n        uint256 time_passed = now - (action_history[action_id][_action_history_id].time + devices[device_serial_number].device_actions[action_id].duration);\n        //        require(time_passed < 0);\n        emit RefundAutomatic(action_id, _action_history_id, devices[device_serial_number].device_actions[action_id].price, now);\n        return true;\n    }\n\n    function getActionPrice(string device_serial_number, uint256 action_id) public view returns (uint) {\n        return devices[device_serial_number].device_actions[action_id].price;\n    }\n\n    function isRefundable(string device_serial_number, uint256 action_id) public view returns (bool) {\n        return devices[device_serial_number].device_actions[action_id].refundable;\n    }\n\n    function getMerchantAddress() public view returns (address) {\n        return merchant_address;\n    }\n\n    function withdrawFromDevice(address device_address, uint256 value) public payable returns (bool success) {\n        require(merchant_address == msg.sender);\n        require(rawbot.getBalance(device_address) >= value);\n        rawbot.modifyBalance(device_address, - value);\n        rawbot.modifyBalance(msg.sender, value);\n        return true;\n    }\n\n    function getUserBalance(address _address) public view returns (uint256){\n        return rawbot.getBalance(_address);\n    }\n\n    function addImageHash(string _hash) public {\n        ipfs_hash[hash_index] = _hash;\n        emit AddIPFSHash(hash_index, _hash);\n        hash_index++;\n    }\n\n    function __callback(bytes32 myid, string result) {\n        if (msg.sender != oraclize_cbAddress()) revert();\n        for (uint i = 0; i < recurring_action_array.length; i++) {\n            require(recurring_action_history[raid][rahid].id == raid);\n            string device_name = recurring_action_array[i].device_name;\n            uint256 raid = recurring_action_array[i].recurring_action_id;\n            uint256 rahid = recurring_action_array[i].recurring_action_history_id;\n\n            uint _days = devices[device_name].device_recurring_actions[raid]._days * 86400;\n            uint _time = recurring_action_history[raid][rahid].time;\n            uint difference = now - (_days + _time);\n            if (difference > 0) {\n                disableRecurringAction(device_name, raid);\n            }\n            RECURRING_PAYMENT_STEP++;\n        }\n\n        emit RecurringPaymentLog(\"Recurring payment callback.\");\n    }\n}",
  "sourcePath": "/Users/hassanjawhar/Desktop/Workspace/rawbot/contracts/Merchant.sol",
  "compiler": {
    "name": "solc",
    "version": "0.4.24+commit.e67f0147.Emscripten.clang"
  },
  "schemaVersion": "2.0.0",
  "updatedAt": "2018-08-16T14:24:28.209Z"
}