{
  "contractName": "Merchant",
  "abi": [
    {
      "constant": true,
      "inputs": [],
      "name": "RECURRING_PAYMENT_STEP",
      "outputs": [
        {
          "name": "",
          "type": "uint256"
        }
      ],
      "payable": false,
      "stateMutability": "view",
      "type": "function"
    },
    {
      "constant": true,
      "inputs": [],
      "name": "rawbot_address",
      "outputs": [
        {
          "name": "",
          "type": "address"
        }
      ],
      "payable": false,
      "stateMutability": "view",
      "type": "function"
    },
    {
      "inputs": [
        {
          "name": "_merchant_address",
          "type": "address"
        }
      ],
      "payable": true,
      "stateMutability": "payable",
      "type": "constructor"
    },
    {
      "anonymous": false,
      "inputs": [
        {
          "indexed": false,
          "name": "",
          "type": "uint256"
        },
        {
          "indexed": false,
          "name": "",
          "type": "uint256"
        },
        {
          "indexed": false,
          "name": "",
          "type": "uint256"
        },
        {
          "indexed": false,
          "name": "",
          "type": "uint256"
        }
      ],
      "name": "Refund",
      "type": "event"
    },
    {
      "anonymous": false,
      "inputs": [
        {
          "indexed": false,
          "name": "",
          "type": "uint256"
        },
        {
          "indexed": false,
          "name": "",
          "type": "uint256"
        },
        {
          "indexed": false,
          "name": "",
          "type": "uint256"
        },
        {
          "indexed": false,
          "name": "",
          "type": "uint256"
        }
      ],
      "name": "RefundAutomatic",
      "type": "event"
    },
    {
      "anonymous": false,
      "inputs": [
        {
          "indexed": false,
          "name": "",
          "type": "uint256"
        },
        {
          "indexed": false,
          "name": "",
          "type": "uint256"
        },
        {
          "indexed": false,
          "name": "",
          "type": "uint256"
        },
        {
          "indexed": false,
          "name": "",
          "type": "uint256"
        }
      ],
      "name": "RecurrentRefund",
      "type": "event"
    },
    {
      "anonymous": false,
      "inputs": [
        {
          "indexed": false,
          "name": "",
          "type": "uint256"
        },
        {
          "indexed": false,
          "name": "",
          "type": "uint256"
        },
        {
          "indexed": false,
          "name": "",
          "type": "uint256"
        },
        {
          "indexed": false,
          "name": "",
          "type": "uint256"
        }
      ],
      "name": "RecurrentRefundAutomatic",
      "type": "event"
    },
    {
      "anonymous": false,
      "inputs": [
        {
          "indexed": false,
          "name": "",
          "type": "string"
        }
      ],
      "name": "RecurringPaymentLog",
      "type": "event"
    },
    {
      "anonymous": false,
      "inputs": [
        {
          "indexed": false,
          "name": "",
          "type": "string"
        },
        {
          "indexed": false,
          "name": "",
          "type": "uint256"
        },
        {
          "indexed": false,
          "name": "",
          "type": "string"
        },
        {
          "indexed": false,
          "name": "",
          "type": "uint256"
        },
        {
          "indexed": false,
          "name": "",
          "type": "uint256"
        },
        {
          "indexed": false,
          "name": "",
          "type": "bool"
        },
        {
          "indexed": false,
          "name": "",
          "type": "bool"
        }
      ],
      "name": "ActionAdd",
      "type": "event"
    },
    {
      "anonymous": false,
      "inputs": [
        {
          "indexed": false,
          "name": "",
          "type": "string"
        },
        {
          "indexed": false,
          "name": "",
          "type": "uint256"
        },
        {
          "indexed": false,
          "name": "",
          "type": "string"
        },
        {
          "indexed": false,
          "name": "",
          "type": "uint256"
        },
        {
          "indexed": false,
          "name": "",
          "type": "uint256"
        },
        {
          "indexed": false,
          "name": "",
          "type": "bool"
        }
      ],
      "name": "ActionEnable",
      "type": "event"
    },
    {
      "anonymous": false,
      "inputs": [
        {
          "indexed": false,
          "name": "",
          "type": "string"
        },
        {
          "indexed": false,
          "name": "",
          "type": "uint256"
        },
        {
          "indexed": false,
          "name": "",
          "type": "string"
        },
        {
          "indexed": false,
          "name": "",
          "type": "uint256"
        },
        {
          "indexed": false,
          "name": "",
          "type": "uint256"
        },
        {
          "indexed": false,
          "name": "",
          "type": "bool"
        }
      ],
      "name": "ActionDisable",
      "type": "event"
    },
    {
      "anonymous": false,
      "inputs": [
        {
          "indexed": false,
          "name": "",
          "type": "string"
        },
        {
          "indexed": false,
          "name": "",
          "type": "uint256"
        },
        {
          "indexed": false,
          "name": "",
          "type": "string"
        },
        {
          "indexed": false,
          "name": "",
          "type": "uint256"
        },
        {
          "indexed": false,
          "name": "",
          "type": "uint256"
        },
        {
          "indexed": false,
          "name": "",
          "type": "bool"
        },
        {
          "indexed": false,
          "name": "",
          "type": "bool"
        }
      ],
      "name": "RecurringActionAdd",
      "type": "event"
    },
    {
      "anonymous": false,
      "inputs": [
        {
          "indexed": false,
          "name": "",
          "type": "string"
        },
        {
          "indexed": false,
          "name": "",
          "type": "uint256"
        },
        {
          "indexed": false,
          "name": "",
          "type": "string"
        },
        {
          "indexed": false,
          "name": "",
          "type": "uint256"
        },
        {
          "indexed": false,
          "name": "",
          "type": "uint256"
        },
        {
          "indexed": false,
          "name": "",
          "type": "bool"
        }
      ],
      "name": "RecurringActionEnable",
      "type": "event"
    },
    {
      "anonymous": false,
      "inputs": [
        {
          "indexed": false,
          "name": "",
          "type": "string"
        },
        {
          "indexed": false,
          "name": "",
          "type": "uint256"
        },
        {
          "indexed": false,
          "name": "",
          "type": "string"
        },
        {
          "indexed": false,
          "name": "",
          "type": "uint256"
        },
        {
          "indexed": false,
          "name": "",
          "type": "uint256"
        },
        {
          "indexed": false,
          "name": "",
          "type": "bool"
        }
      ],
      "name": "RecurringActionDisable",
      "type": "event"
    },
    {
      "constant": false,
      "inputs": [
        {
          "name": "device_serial_number",
          "type": "string"
        },
        {
          "name": "device_name",
          "type": "string"
        }
      ],
      "name": "addDevice",
      "outputs": [
        {
          "name": "",
          "type": "bool"
        }
      ],
      "payable": true,
      "stateMutability": "payable",
      "type": "function"
    },
    {
      "constant": false,
      "inputs": [
        {
          "name": "device_serial_number",
          "type": "string"
        },
        {
          "name": "action_name",
          "type": "string"
        },
        {
          "name": "action_price",
          "type": "uint256"
        },
        {
          "name": "action_duration",
          "type": "uint256"
        },
        {
          "name": "refundable",
          "type": "bool"
        }
      ],
      "name": "addAction",
      "outputs": [
        {
          "name": "",
          "type": "bool"
        }
      ],
      "payable": true,
      "stateMutability": "payable",
      "type": "function"
    },
    {
      "constant": false,
      "inputs": [
        {
          "name": "device_serial_number",
          "type": "string"
        },
        {
          "name": "action_name",
          "type": "string"
        },
        {
          "name": "action_price",
          "type": "uint256"
        },
        {
          "name": "_days",
          "type": "uint256"
        },
        {
          "name": "refundable",
          "type": "bool"
        }
      ],
      "name": "addRecurringAction",
      "outputs": [
        {
          "name": "",
          "type": "bool"
        }
      ],
      "payable": true,
      "stateMutability": "payable",
      "type": "function"
    },
    {
      "constant": false,
      "inputs": [
        {
          "name": "device_serial_number",
          "type": "string"
        },
        {
          "name": "action_id",
          "type": "uint256"
        }
      ],
      "name": "enableAction",
      "outputs": [
        {
          "name": "success",
          "type": "bool"
        }
      ],
      "payable": true,
      "stateMutability": "payable",
      "type": "function"
    },
    {
      "constant": false,
      "inputs": [
        {
          "name": "device_serial_number",
          "type": "string"
        },
        {
          "name": "action_id",
          "type": "uint256"
        }
      ],
      "name": "enableRecurringAction",
      "outputs": [
        {
          "name": "success",
          "type": "bool"
        }
      ],
      "payable": true,
      "stateMutability": "payable",
      "type": "function"
    },
    {
      "constant": false,
      "inputs": [
        {
          "name": "device_serial_number",
          "type": "string"
        },
        {
          "name": "action_id",
          "type": "uint256"
        }
      ],
      "name": "disableAction",
      "outputs": [
        {
          "name": "success",
          "type": "bool"
        }
      ],
      "payable": true,
      "stateMutability": "payable",
      "type": "function"
    },
    {
      "constant": false,
      "inputs": [
        {
          "name": "device_serial_number",
          "type": "string"
        },
        {
          "name": "action_id",
          "type": "uint256"
        }
      ],
      "name": "disableRecurringAction",
      "outputs": [
        {
          "name": "success",
          "type": "bool"
        }
      ],
      "payable": true,
      "stateMutability": "payable",
      "type": "function"
    },
    {
      "constant": false,
      "inputs": [
        {
          "name": "device_serial_number",
          "type": "string"
        },
        {
          "name": "action_id",
          "type": "uint256"
        },
        {
          "name": "_action_history_id",
          "type": "uint256"
        }
      ],
      "name": "refund",
      "outputs": [
        {
          "name": "",
          "type": "bool"
        }
      ],
      "payable": true,
      "stateMutability": "payable",
      "type": "function"
    },
    {
      "constant": false,
      "inputs": [
        {
          "name": "device_serial_number",
          "type": "string"
        },
        {
          "name": "action_id",
          "type": "uint256"
        },
        {
          "name": "_action_history_id",
          "type": "uint256"
        }
      ],
      "name": "refundAutomatic",
      "outputs": [
        {
          "name": "success",
          "type": "bool"
        }
      ],
      "payable": true,
      "stateMutability": "payable",
      "type": "function"
    },
    {
      "constant": true,
      "inputs": [
        {
          "name": "device_serial_number",
          "type": "string"
        },
        {
          "name": "action_id",
          "type": "uint256"
        }
      ],
      "name": "getActionPrice",
      "outputs": [
        {
          "name": "",
          "type": "uint256"
        }
      ],
      "payable": false,
      "stateMutability": "view",
      "type": "function"
    },
    {
      "constant": true,
      "inputs": [
        {
          "name": "device_serial_number",
          "type": "string"
        },
        {
          "name": "action_id",
          "type": "uint256"
        }
      ],
      "name": "isRefundable",
      "outputs": [
        {
          "name": "",
          "type": "bool"
        }
      ],
      "payable": false,
      "stateMutability": "view",
      "type": "function"
    },
    {
      "constant": true,
      "inputs": [],
      "name": "getMerchantAddress",
      "outputs": [
        {
          "name": "",
          "type": "address"
        }
      ],
      "payable": false,
      "stateMutability": "view",
      "type": "function"
    },
    {
      "constant": false,
      "inputs": [
        {
          "name": "device_address",
          "type": "address"
        },
        {
          "name": "value",
          "type": "uint256"
        }
      ],
      "name": "withdrawFromDevice",
      "outputs": [
        {
          "name": "success",
          "type": "bool"
        }
      ],
      "payable": true,
      "stateMutability": "payable",
      "type": "function"
    },
    {
      "constant": true,
      "inputs": [
        {
          "name": "_address",
          "type": "address"
        }
      ],
      "name": "getUserBalance",
      "outputs": [
        {
          "name": "",
          "type": "uint256"
        }
      ],
      "payable": false,
      "stateMutability": "view",
      "type": "function"
    },
    {
      "constant": false,
      "inputs": [
        {
          "name": "myid",
          "type": "bytes32"
        },
        {
          "name": "result",
          "type": "string"
        },
        {
          "name": "proof",
          "type": "bytes"
        }
      ],
      "name": "__callback",
      "outputs": [],
      "payable": false,
      "stateMutability": "nonpayable",
      "type": "function"
    },
    {
      "constant": false,
      "inputs": [
        {
          "name": "myid",
          "type": "bytes32"
        },
        {
          "name": "result",
          "type": "string"
        }
      ],
      "name": "__callback",
      "outputs": [],
      "payable": false,
      "stateMutability": "nonpayable",
      "type": "function"
    },
    {
      "constant": false,
      "inputs": [
        {
          "name": "_hash",
          "type": "bytes32"
        }
      ],
      "name": "addImageHash",
      "outputs": [],
      "payable": false,
      "stateMutability": "nonpayable",
      "type": "function"
    }
  ],
  "bytecode": "0x60806040526000600a556000600e55604051602080615ca38339810180604052810190808051906020019092919050505080600660006101000a81548173ffffffffffffffffffffffffffffffffffffffff021916908373ffffffffffffffffffffffffffffffffffffffff160217905550731e3d402d19dd111db15fe00cd5726da452bf5a75600560006101000a81548173ffffffffffffffffffffffffffffffffffffffff021916908373ffffffffffffffffffffffffffffffffffffffff16021790555050615bcd806100d66000396000f300608060405260043610610106576000357c0100000000000000000000000000000000000000000000000000000000900463ffffffff168062cfb6e51461010b57806308489f55146101365780631b7e72481461021057806327dc297e1461029757806338bbfa501461030e5780633ebecc90146103cb57806347734892146103fc57806347da0a98146104535780635942b743146104d157806366cfce421461054f5780637543db1e146105a6578063757d713f146105fe578063a1cc0e7114610686578063a3eb6e5b14610711578063aef34f6914610768578063b85d8261146107e6578063b8dd4587146108a0578063cc082a891461097a578063defc309814610a02575b600080fd5b34801561011757600080fd5b50610120610a80565b6040518082815260200191505060405180910390f35b6101f6600480360381019080803590602001908201803590602001908080601f0160208091040260200160405190810160405280939291908181526020018383808284378201915050505050509192919290803590602001908201803590602001908080601f01602080910402602001604051908101604052809392919081815260200183838082843782019150505050505091929192908035906020019092919080359060200190929190803515159060200190929190505050610a86565b604051808215151515815260200191505060405180910390f35b34801561021c57600080fd5b50610281600480360381019080803590602001908201803590602001908080601f016020809104026020016040519081016040528093929190818152602001838380828437820191505050505050919291929080359060200190929190505050610f18565b6040518082815260200191505060405180910390f35b3480156102a357600080fd5b5061030c6004803603810190808035600019169060200190929190803590602001908201803590602001908080601f0160208091040260200160405190810160405280939291908181526020018383808284378201915050505050509192919290505050610faf565b005b34801561031a57600080fd5b506103c96004803603810190808035600019169060200190929190803590602001908201803590602001908080601f0160208091040260200160405190810160405280939291908181526020018383808284378201915050505050509192919290803590602001908201803590602001908080601f01602080910402602001604051908101604052809392919081815260200183838082843782019150505050505091929192905050506112c6565b005b3480156103d757600080fd5b506103fa60048036038101908080356000191690602001909291905050506112cb565b005b34801561040857600080fd5b5061043d600480360381019080803573ffffffffffffffffffffffffffffffffffffffff1690602001909291905050506112fe565b6040518082815260200191505060405180910390f35b6104b7600480360381019080803590602001908201803590602001908080601f0160208091040260200160405190810160405280939291908181526020018383808284378201915050505050509192919290803590602001909291905050506113ff565b604051808215151515815260200191505060405180910390f35b610535600480360381019080803590602001908201803590602001908080601f016020809104026020016040519081016040528093929190818152602001838380828437820191505050505050919291929080359060200190929190505050611a9a565b604051808215151515815260200191505060405180910390f35b34801561055b57600080fd5b50610564612881565b604051808273ffffffffffffffffffffffffffffffffffffffff1673ffffffffffffffffffffffffffffffffffffffff16815260200191505060405180910390f35b6105e4600480360381019080803573ffffffffffffffffffffffffffffffffffffffff16906020019092919080359060200190929190505050612899565b604051808215151515815260200191505060405180910390f35b61066c600480360381019080803590602001908201803590602001908080601f01602080910402602001604051908101604052809392919081815260200183838082843782019150505050505091929192908035906020019092919080359060200190929190505050612c0c565b604051808215151515815260200191505060405180910390f35b34801561069257600080fd5b506106f7600480360381019080803590602001908201803590602001908080601f016020809104026020016040519081016040528093929190818152602001838380828437820191505050505050919291929080359060200190929190505050613081565b604051808215151515815260200191505060405180910390f35b34801561071d57600080fd5b50610726613125565b604051808273ffffffffffffffffffffffffffffffffffffffff1673ffffffffffffffffffffffffffffffffffffffff16815260200191505060405180910390f35b6107cc600480360381019080803590602001908201803590602001908080601f01602080910402602001604051908101604052809392919081815260200183838082843782019150505050505091929192908035906020019092919050505061314f565b604051808215151515815260200191505060405180910390f35b610886600480360381019080803590602001908201803590602001908080601f0160208091040260200160405190810160405280939291908181526020018383808284378201915050505050509192919290803590602001908201803590602001908080601f01602080910402602001604051908101604052809392919081815260200183838082843782019150505050505091929192905050506137ea565b604051808215151515815260200191505060405180910390f35b610960600480360381019080803590602001908201803590602001908080601f0160208091040260200160405190810160405280939291908181526020018383808284378201915050505050509192919290803590602001908201803590602001908080601f01602080910402602001604051908101604052809392919081815260200183838082843782019150505050505091929192908035906020019092919080359060200190929190803515159060200190929190505050613a0b565b604051808215151515815260200191505060405180910390f35b6109e8600480360381019080803590602001908201803590602001908080601f01602080910402602001604051908101604052809392919081815260200183838082843782019150505050505091929192908035906020019092919080359060200190929190505050613e9d565b604051808215151515815260200191505060405180910390f35b610a66600480360381019080803590602001908201803590602001908080601f01602080910402602001604051908101604052809392919081815260200183838082843782019150505050505091929192908035906020019092919050505061424c565b604051808215151515815260200191505060405180910390f35b600a5481565b6000600115156007876040518082805190602001908083835b602083101515610ac45780518252602082019150602081019050602083039250610a9f565b6001836020036101000a038019825116818451168082178552505050505050905001915050908152602001604051809103902060030160009054906101000a900460ff161515141515610ba5576040517f08c379a00000000000000000000000000000000000000000000000000000000081526004018080602001828103825260258152602001807f4465766963652073657269616c206e756d626572206973206e6f74206176616981526020017f6c61626c6500000000000000000000000000000000000000000000000000000081525060400191505060405180910390fd5b6007866040518082805190602001908083835b602083101515610bdd5780518252602082019150602081019050602083039250610bb8565b6001836020036101000a038019825116818451168082178552505050505050905001915050908152602001604051809103902060020160c0604051908101604052806007896040518082805190602001908083835b602083101515610c575780518252602082019150602081019050602083039250610c32565b6001836020036101000a038019825116818451168082178552505050505050905001915050908152602001604051809103902060020180549050815260200187815260200186815260200185815260200184151581526020016001151581525090806001815401808255809150509060018203906000526020600020906005020160009091929091909150600082015181600001556020820151816001019080519060200190610d08929190615a7c565b50604082015181600201556060820151816003015560808201518160040160006101000a81548160ff02191690831515021790555060a08201518160040160016101000a81548160ff0219169083151502179055505050507fab7af84a14131a8d124961d4f462f1fb7e82b562aba899a3f28200031563b3e6866007886040518082805190602001908083835b602083101515610dba5780518252602082019150602081019050602083039250610d95565b6001836020036101000a038019825116818451168082178552505050505050905001915050908152602001604051809103902060020180549050878787876001604051808060200188815260200180602001878152602001868152602001851515151581526020018415151515815260200183810383528a818151815260200191508051906020019080838360005b83811015610e64578082015181840152602081019050610e49565b50505050905090810190601f168015610e915780820380516001836020036101000a031916815260200191505b50838103825288818151815260200191508051906020019080838360005b83811015610eca578082015181840152602081019050610eaf565b50505050905090810190601f168015610ef75780820380516001836020036101000a031916815260200191505b50995050505050505050505060405180910390a16001905095945050505050565b60006007836040518082805190602001908083835b602083101515610f525780518252602082019150602081019050602083039250610f2d565b6001836020036101000a038019825116818451168082178552505050505050905001915050908152602001604051809103902060010182815481101515610f9557fe5b906000526020600020906005020160020154905092915050565b600080600080600080600080610fc36148e7565b73ffffffffffffffffffffffffffffffffffffffff163373ffffffffffffffffffffffffffffffffffffffff16141515610ffc57600080fd5b600096505b600d8054905087101561124a5784600960008781526020019081526020016000208581548110151561102f57fe5b90600052602060002090600402016001015414151561104d57600080fd5b600d8781548110151561105c57fe5b90600052602060002090600402016000019550600d8781548110151561107e57fe5b9060005260206000209060040201600101549450600d878154811015156110a157fe5b90600052602060002090600402016002015493506201518060078760405180828054600181600116156101000203166002900480156111175780601f106110f5576101008083540402835291820191611117565b820191906000526020600020905b815481529060010190602001808311611103575b505091505090815260200160405180910390206002018681548110151561113a57fe5b906000526020600020906005020160030154029250600960008681526020019081526020016000208481548110151561116f57fe5b906000526020600020906004020160020154915081830142039050600081111561123c57611236868054600181600116156101000203166002900480601f01602080910402602001604051908101604052809291908181526020018280546001816001161561010002031660029004801561122b5780601f106112005761010080835404028352916020019161122b565b820191906000526020600020905b81548152906001019060200180831161120e57829003601f168201915b50505050508661314f565b5061123d565b5b8680600101975050611001565b7f181a05991468e765ed7498115dc58006bfc3b4c624e024406470557a0857f6e560405180806020018281038252601b8152602001807f526563757272696e67207061796d656e742063616c6c6261636b2e000000000081525060200191505060405180910390a16002600a8190555050505050505050505050565b505050565b80600f6000600e5481526020019081526020016000208160001916905550600e6000815480929190600101919050555050565b6000600560009054906101000a900473ffffffffffffffffffffffffffffffffffffffff1673ffffffffffffffffffffffffffffffffffffffff1663f8b2cb4f836040518263ffffffff167c0100000000000000000000000000000000000000000000000000000000028152600401808273ffffffffffffffffffffffffffffffffffffffff1673ffffffffffffffffffffffffffffffffffffffff168152602001915050602060405180830381600087803b1580156113bd57600080fd5b505af11580156113d1573d6000803e3d6000fd5b505050506040513d60208110156113e757600080fd5b81019080805190602001909291905050509050919050565b6000600115156007846040518082805190602001908083835b60208310151561143d5780518252602082019150602081019050602083039250611418565b6001836020036101000a038019825116818451168082178552505050505050905001915050908152602001604051809103902060030160009054906101000a900460ff16151514151561151e576040517f08c379a00000000000000000000000000000000000000000000000000000000081526004018080602001828103825260258152602001807f4465766963652073657269616c206e756d626572206973206e6f74206176616981526020017f6c61626c6500000000000000000000000000000000000000000000000000000081525060400191505060405180910390fd5b600115156007846040518082805190602001908083835b60208310151561155a5780518252602082019150602081019050602083039250611535565b6001836020036101000a03801982511681845116808217855250505050505090500191505090815260200160405180910390206001018381548110151561159d57fe5b906000526020600020906005020160040160019054906101000a900460ff161515141515611659576040517f08c379a00000000000000000000000000000000000000000000000000000000081526004018080602001828103825260218152602001807f44657669636520616374696f6e206964206973206e6f7420617661696c61626c81526020017f650000000000000000000000000000000000000000000000000000000000000081525060400191505060405180910390fd5b6008600083815260200190815260200160002060c0604051908101604052803373ffffffffffffffffffffffffffffffffffffffff168152602001848152602001428152602001600015158152602001600015158152602001600115158152509080600181540180825580915050906001820390600052602060002090600402016000909192909190915060008201518160000160006101000a81548173ffffffffffffffffffffffffffffffffffffffff021916908373ffffffffffffffffffffffffffffffffffffffff160217905550602082015181600101556040820151816002015560608201518160030160006101000a81548160ff02191690831515021790555060808201518160030160016101000a81548160ff02191690831515021790555060a08201518160030160026101000a81548160ff0219169083151502179055505050507f54376985c61133fd74ddfd5be0e7cacfebc5ee2b28b59fff7642086996680be483836007866040518082805190602001908083835b6020831015156117fd57805182526020820191506020810190506020830392506117d8565b6001836020036101000a03801982511681845116808217855250505050505090500191505090815260200160405180910390206001018581548110151561184057fe5b90600052602060002090600502016001016007876040518082805190602001908083835b6020831015156118895780518252602082019150602081019050602083039250611864565b6001836020036101000a0380198251168184511680821785525050505050509050019150509081526020016040518091039020600101868154811015156118cc57fe5b9060005260206000209060050201600201546007886040518082805190602001908083835b60208310151561191657805182526020820191506020810190506020830392506118f1565b6001836020036101000a03801982511681845116808217855250505050505090500191505090815260200160405180910390206001018781548110151561195957fe5b906000526020600020906005020160030154600160405180806020018781526020018060200186815260200185815260200184151515158152602001838103835289818151815260200191508051906020019080838360005b838110156119cd5780820151818401526020810190506119b2565b50505050905090810190601f1680156119fa5780820380516001836020036101000a031916815260200191505b50838103825287818154600181600116156101000203166002900481526020019150805460018160011615610100020316600290048015611a7c5780601f10611a5157610100808354040283529160200191611a7c565b820191906000526020600020905b815481529060010190602001808311611a5f57829003601f168201915b50509850505050505050505060405180910390a16001905092915050565b60003073ffffffffffffffffffffffffffffffffffffffff1631611af26040805190810160405280600381526020017f55524c0000000000000000000000000000000000000000000000000000000000815250614c45565b1115611b01576000905061287b565b600115156007846040518082805190602001908083835b602083101515611b3d5780518252602082019150602081019050602083039250611b18565b6001836020036101000a038019825116818451168082178552505050505050905001915050908152602001604051809103902060030160009054906101000a900460ff161515141515611c1e576040517f08c379a00000000000000000000000000000000000000000000000000000000081526004018080602001828103825260258152602001807f4465766963652073657269616c206e756d626572206973206e6f74206176616981526020017f6c61626c6500000000000000000000000000000000000000000000000000000081525060400191505060405180910390fd5b600115156007846040518082805190602001908083835b602083101515611c5a5780518252602082019150602081019050602083039250611c35565b6001836020036101000a038019825116818451168082178552505050505050905001915050908152602001604051809103902060020183815481101515611c9d57fe5b906000526020600020906005020160040160019054906101000a900460ff161515141515611d59576040517f08c379a00000000000000000000000000000000000000000000000000000000081526004018080602001828103825260218152602001807f44657669636520616374696f6e206964206973206e6f7420617661696c61626c81526020017f650000000000000000000000000000000000000000000000000000000000000081525060400191505060405180910390fd5b6007836040518082805190602001908083835b602083101515611d915780518252602082019150602081019050602083039250611d6c565b6001836020036101000a038019825116818451168082178552505050505050905001915050908152602001604051809103902060020182815481101515611dd457fe5b906000526020600020906005020160020154600560009054906101000a900473ffffffffffffffffffffffffffffffffffffffff1673ffffffffffffffffffffffffffffffffffffffff1663f8b2cb4f336040518263ffffffff167c0100000000000000000000000000000000000000000000000000000000028152600401808273ffffffffffffffffffffffffffffffffffffffff1673ffffffffffffffffffffffffffffffffffffffff168152602001915050602060405180830381600087803b158015611ea357600080fd5b505af1158015611eb7573d6000803e3d6000fd5b505050506040513d6020811015611ecd57600080fd5b810190808051906020019092919050505010151515611f54576040517f08c379a00000000000000000000000000000000000000000000000000000000081526004018080602001828103825260208152602001807f5573657220646f65736e2774206861766520656e6f7567682062616c616e636581525060200191505060405180910390fd5b6009600083815260200190815260200160002060c0604051908101604052803373ffffffffffffffffffffffffffffffffffffffff168152602001848152602001428152602001600115158152602001600015158152602001600115158152509080600181540180825580915050906001820390600052602060002090600402016000909192909190915060008201518160000160006101000a81548173ffffffffffffffffffffffffffffffffffffffff021916908373ffffffffffffffffffffffffffffffffffffffff160217905550602082015181600101556040820151816002015560608201518160030160006101000a81548160ff02191690831515021790555060808201518160030160016101000a81548160ff02191690831515021790555060a08201518160030160026101000a81548160ff021916908315150217905550505050600d6080604051908101604052808581526020018481526020016001600960008781526020019081526020016000208054905003815260200160011515815250908060018154018082558091505090600182039060005260206000209060040201600090919290919091506000820151816000019080519060200190612124929190615a7c565b50602082015181600101556040820151816002015560608201518160030160006101000a81548160ff021916908315150217905550505050600560009054906101000a900473ffffffffffffffffffffffffffffffffffffffff1673ffffffffffffffffffffffffffffffffffffffff1663250dea06336007866040518082805190602001908083835b6020831015156121d357805182526020820191506020810190506020830392506121ae565b6001836020036101000a03801982511681845116808217855250505050505090500191505090815260200160405180910390206002018581548110151561221657fe5b9060005260206000209060050201600201546000036040518363ffffffff167c0100000000000000000000000000000000000000000000000000000000028152600401808373ffffffffffffffffffffffffffffffffffffffff1673ffffffffffffffffffffffffffffffffffffffff16815260200182815260200192505050602060405180830381600087803b1580156122b057600080fd5b505af11580156122c4573d6000803e3d6000fd5b505050506040513d60208110156122da57600080fd5b810190808051906020019092919050505050600560009054906101000a900473ffffffffffffffffffffffffffffffffffffffff1673ffffffffffffffffffffffffffffffffffffffff1663250dea06600660009054906101000a900473ffffffffffffffffffffffffffffffffffffffff166007866040518082805190602001908083835b6020831015156123855780518252602082019150602081019050602083039250612360565b6001836020036101000a0380198251168184511680821785525050505050509050019150509081526020016040518091039020600201858154811015156123c857fe5b9060005260206000209060050201600201546040518363ffffffff167c0100000000000000000000000000000000000000000000000000000000028152600401808373ffffffffffffffffffffffffffffffffffffffff1673ffffffffffffffffffffffffffffffffffffffff16815260200182815260200192505050602060405180830381600087803b15801561245f57600080fd5b505af1158015612473573d6000803e3d6000fd5b505050506040513d602081101561248957600080fd5b81019080805190602001909291905050505061257f6018603c806007876040518082805190602001908083835b6020831015156124db57805182526020820191506020810190506020830392506124b6565b6001836020036101000a03801982511681845116808217855250505050505090500191505090815260200160405180910390206002018681548110151561251e57fe5b9060005260206000209060050201600301540202026040805190810160405280600381526020017f55524c00000000000000000000000000000000000000000000000000000000008152506020604051908101604052806000815250615015565b506001600a819055507f875b40a67d33b0171b10d7197a7c57cc4a8a03020e69c119753e83c07790640783836007866040518082805190602001908083835b6020831015156125e357805182526020820191506020810190506020830392506125be565b6001836020036101000a03801982511681845116808217855250505050505090500191505090815260200160405180910390206002018581548110151561262657fe5b90600052602060002090600502016001016007876040518082805190602001908083835b60208310151561266f578051825260208201915060208101905060208303925061264a565b6001836020036101000a0380198251168184511680821785525050505050509050019150509081526020016040518091039020600201868154811015156126b257fe5b9060005260206000209060050201600201546007886040518082805190602001908083835b6020831015156126fc57805182526020820191506020810190506020830392506126d7565b6001836020036101000a03801982511681845116808217855250505050505090500191505090815260200160405180910390206002018781548110151561273f57fe5b906000526020600020906005020160030154600160405180806020018781526020018060200186815260200185815260200184151515158152602001838103835289818151815260200191508051906020019080838360005b838110156127b3578082015181840152602081019050612798565b50505050905090810190601f1680156127e05780820380516001836020036101000a031916815260200191505b508381038252878181546001816001161561010002031660029004815260200191508054600181600116156101000203166002900480156128625780601f1061283757610100808354040283529160200191612862565b820191906000526020600020905b81548152906001019060200180831161284557829003601f168201915b50509850505050505050505060405180910390a1600190505b92915050565b731e3d402d19dd111db15fe00cd5726da452bf5a7581565b60003373ffffffffffffffffffffffffffffffffffffffff16600660009054906101000a900473ffffffffffffffffffffffffffffffffffffffff1673ffffffffffffffffffffffffffffffffffffffff161415156128f757600080fd5b81600560009054906101000a900473ffffffffffffffffffffffffffffffffffffffff1673ffffffffffffffffffffffffffffffffffffffff1663f8b2cb4f856040518263ffffffff167c0100000000000000000000000000000000000000000000000000000000028152600401808273ffffffffffffffffffffffffffffffffffffffff1673ffffffffffffffffffffffffffffffffffffffff168152602001915050602060405180830381600087803b1580156129b557600080fd5b505af11580156129c9573d6000803e3d6000fd5b505050506040513d60208110156129df57600080fd5b8101908080519060200190929190505050101515156129fd57600080fd5b600560009054906101000a900473ffffffffffffffffffffffffffffffffffffffff1673ffffffffffffffffffffffffffffffffffffffff1663250dea0684846000036040518363ffffffff167c0100000000000000000000000000000000000000000000000000000000028152600401808373ffffffffffffffffffffffffffffffffffffffff1673ffffffffffffffffffffffffffffffffffffffff16815260200182815260200192505050602060405180830381600087803b158015612ac557600080fd5b505af1158015612ad9573d6000803e3d6000fd5b505050506040513d6020811015612aef57600080fd5b810190808051906020019092919050505050600560009054906101000a900473ffffffffffffffffffffffffffffffffffffffff1673ffffffffffffffffffffffffffffffffffffffff1663250dea0633846040518363ffffffff167c0100000000000000000000000000000000000000000000000000000000028152600401808373ffffffffffffffffffffffffffffffffffffffff1673ffffffffffffffffffffffffffffffffffffffff16815260200182815260200192505050602060405180830381600087803b158015612bc657600080fd5b505af1158015612bda573d6000803e3d6000fd5b505050506040513d6020811015612bf057600080fd5b8101908080519060200190929190505050506001905092915050565b600080600115156007866040518082805190602001908083835b602083101515612c4b5780518252602082019150602081019050602083039250612c26565b6001836020036101000a038019825116818451168082178552505050505050905001915050908152602001604051809103902060030160009054906101000a900460ff161515141515612c9d57600080fd5b600115156007866040518082805190602001908083835b602083101515612cd95780518252602082019150602081019050602083039250612cb4565b6001836020036101000a038019825116818451168082178552505050505050905001915050908152602001604051809103902060010185815481101515612d1c57fe5b906000526020600020906005020160040160019054906101000a900460ff161515141515612d4957600080fd5b600115156007866040518082805190602001908083835b602083101515612d855780518252602082019150602081019050602083039250612d60565b6001836020036101000a038019825116818451168082178552505050505050905001915050908152602001604051809103902060010185815481101515612dc857fe5b906000526020600020906005020160040160009054906101000a900460ff161515141515612df557600080fd5b600115156008600086815260200190815260200160002084815481101515612e1957fe5b906000526020600020906004020160030160029054906101000a900460ff161515141515612e4657600080fd5b836008600086815260200190815260200160002084815481101515612e6757fe5b906000526020600020906004020160010154141515612e8557600080fd5b600015156008600086815260200190815260200160002084815481101515612ea957fe5b906000526020600020906004020160030160019054906101000a900460ff161515141515612ed657600080fd5b6007856040518082805190602001908083835b602083101515612f0e5780518252602082019150602081019050602083039250612ee9565b6001836020036101000a038019825116818451168082178552505050505050905001915050908152602001604051809103902060010184815481101515612f5157fe5b9060005260206000209060050201600301546008600086815260200190815260200160002084815481101515612f8357fe5b90600052602060002090600402016002015401420390507fff0f80a21f0b8ffece1482bb76715974416021bd0b68a528dfcd29421cd67dd484846007886040518082805190602001908083835b602083101515612ff55780518252602082019150602081019050602083039250612fd0565b6001836020036101000a03801982511681845116808217855250505050505090500191505090815260200160405180910390206001018781548110151561303857fe5b906000526020600020906005020160020154426040518085815260200184815260200183815260200182815260200194505050505060405180910390a160019150509392505050565b60006007836040518082805190602001908083835b6020831015156130bb5780518252602082019150602081019050602083039250613096565b6001836020036101000a0380198251168184511680821785525050505050509050019150509081526020016040518091039020600101828154811015156130fe57fe5b906000526020600020906005020160040160009054906101000a900460ff16905092915050565b6000600660009054906101000a900473ffffffffffffffffffffffffffffffffffffffff16905090565b6000600115156007846040518082805190602001908083835b60208310151561318d5780518252602082019150602081019050602083039250613168565b6001836020036101000a038019825116818451168082178552505050505050905001915050908152602001604051809103902060030160009054906101000a900460ff16151514151561326e576040517f08c379a00000000000000000000000000000000000000000000000000000000081526004018080602001828103825260258152602001807f4465766963652073657269616c206e756d626572206973206e6f74206176616981526020017f6c61626c6500000000000000000000000000000000000000000000000000000081525060400191505060405180910390fd5b600115156007846040518082805190602001908083835b6020831015156132aa5780518252602082019150602081019050602083039250613285565b6001836020036101000a0380198251168184511680821785525050505050509050019150509081526020016040518091039020600201838154811015156132ed57fe5b906000526020600020906005020160040160019054906101000a900460ff1615151415156133a9576040517f08c379a00000000000000000000000000000000000000000000000000000000081526004018080602001828103825260218152602001807f44657669636520616374696f6e206964206973206e6f7420617661696c61626c81526020017f650000000000000000000000000000000000000000000000000000000000000081525060400191505060405180910390fd5b6009600083815260200190815260200160002060c0604051908101604052803373ffffffffffffffffffffffffffffffffffffffff168152602001848152602001428152602001600015158152602001600015158152602001600115158152509080600181540180825580915050906001820390600052602060002090600402016000909192909190915060008201518160000160006101000a81548173ffffffffffffffffffffffffffffffffffffffff021916908373ffffffffffffffffffffffffffffffffffffffff160217905550602082015181600101556040820151816002015560608201518160030160006101000a81548160ff02191690831515021790555060808201518160030160016101000a81548160ff02191690831515021790555060a08201518160030160026101000a81548160ff0219169083151502179055505050507f54376985c61133fd74ddfd5be0e7cacfebc5ee2b28b59fff7642086996680be483836007866040518082805190602001908083835b60208310151561354d5780518252602082019150602081019050602083039250613528565b6001836020036101000a03801982511681845116808217855250505050505090500191505090815260200160405180910390206002018581548110151561359057fe5b90600052602060002090600502016001016007876040518082805190602001908083835b6020831015156135d957805182526020820191506020810190506020830392506135b4565b6001836020036101000a03801982511681845116808217855250505050505090500191505090815260200160405180910390206002018681548110151561361c57fe5b9060005260206000209060050201600201546007886040518082805190602001908083835b6020831015156136665780518252602082019150602081019050602083039250613641565b6001836020036101000a0380198251168184511680821785525050505050509050019150509081526020016040518091039020600201878154811015156136a957fe5b906000526020600020906005020160030154600160405180806020018781526020018060200186815260200185815260200184151515158152602001838103835289818151815260200191508051906020019080838360005b8381101561371d578082015181840152602081019050613702565b50505050905090810190601f16801561374a5780820380516001836020036101000a031916815260200191505b508381038252878181546001816001161561010002031660029004815260200191508054600181600116156101000203166002900480156137cc5780601f106137a1576101008083540402835291602001916137cc565b820191906000526020600020905b8154815290600101906020018083116137af57829003601f168201915b50509850505050505050505060405180910390a16001905092915050565b60008015156007846040518082805190602001908083835b6020831015156138275780518252602082019150602081019050602083039250613802565b6001836020036101000a038019825116818451168082178552505050505050905001915050908152602001604051809103902060030160009054906101000a900460ff16151514151561387957600080fd5b816007846040518082805190602001908083835b6020831015156138b2578051825260208201915060208101905060208303925061388d565b6001836020036101000a038019825116818451168082178552505050505050905001915050908152602001604051809103902060000190805190602001906138fb929190615afc565b5060016007846040518082805190602001908083835b6020831015156139365780518252602082019150602081019050602083039250613911565b6001836020036101000a038019825116818451168082178552505050505050905001915050908152602001604051809103902060030160006101000a81548160ff021916908315150217905550600b8390806001815401808255809150509060018203906000526020600020016000909192909190915090805190602001906139c0929190615afc565b5050600c8290806001815401808255809150509060018203906000526020600020016000909192909190915090805190602001906139ff929190615afc565b50506001905092915050565b6000600115156007876040518082805190602001908083835b602083101515613a495780518252602082019150602081019050602083039250613a24565b6001836020036101000a038019825116818451168082178552505050505050905001915050908152602001604051809103902060030160009054906101000a900460ff161515141515613b2a576040517f08c379a00000000000000000000000000000000000000000000000000000000081526004018080602001828103825260258152602001807f4465766963652073657269616c206e756d626572206973206e6f74206176616981526020017f6c61626c6500000000000000000000000000000000000000000000000000000081525060400191505060405180910390fd5b6007866040518082805190602001908083835b602083101515613b625780518252602082019150602081019050602083039250613b3d565b6001836020036101000a038019825116818451168082178552505050505050905001915050908152602001604051809103902060010160c0604051908101604052806007896040518082805190602001908083835b602083101515613bdc5780518252602082019150602081019050602083039250613bb7565b6001836020036101000a038019825116818451168082178552505050505050905001915050908152602001604051809103902060010180549050815260200187815260200186815260200185815260200184151581526020016001151581525090806001815401808255809150509060018203906000526020600020906005020160009091929091909150600082015181600001556020820151816001019080519060200190613c8d929190615a7c565b50604082015181600201556060820151816003015560808201518160040160006101000a81548160ff02191690831515021790555060a08201518160040160016101000a81548160ff0219169083151502179055505050507fab7af84a14131a8d124961d4f462f1fb7e82b562aba899a3f28200031563b3e6866007886040518082805190602001908083835b602083101515613d3f5780518252602082019150602081019050602083039250613d1a565b6001836020036101000a038019825116818451168082178552505050505050905001915050908152602001604051809103902060010180549050878787876001604051808060200188815260200180602001878152602001868152602001851515151581526020018415151515815260200183810383528a818151815260200191508051906020019080838360005b83811015613de9578082015181840152602081019050613dce565b50505050905090810190601f168015613e165780820380516001836020036101000a031916815260200191505b50838103825288818151815260200191508051906020019080838360005b83811015613e4f578082015181840152602081019050613e34565b50505050905090810190601f168015613e7c5780820380516001836020036101000a031916815260200191505b50995050505050505050505060405180910390a16001905095945050505050565b6000600115156007856040518082805190602001908083835b602083101515613edb5780518252602082019150602081019050602083039250613eb6565b6001836020036101000a038019825116818451168082178552505050505050905001915050908152602001604051809103902060030160009054906101000a900460ff161515141515613f2d57600080fd5b600115156007856040518082805190602001908083835b602083101515613f695780518252602082019150602081019050602083039250613f44565b6001836020036101000a038019825116818451168082178552505050505050905001915050908152602001604051809103902060010184815481101515613fac57fe5b906000526020600020906005020160040160019054906101000a900460ff161515141515613fd957600080fd5b600115156007856040518082805190602001908083835b6020831015156140155780518252602082019150602081019050602083039250613ff0565b6001836020036101000a03801982511681845116808217855250505050505090500191505090815260200160405180910390206001018481548110151561405857fe5b906000526020600020906005020160040160009054906101000a900460ff16151514151561408557600080fd5b6001151560086000858152602001908152602001600020838154811015156140a957fe5b906000526020600020906004020160030160029054906101000a900460ff1615151415156140d657600080fd5b8260086000858152602001908152602001600020838154811015156140f757fe5b90600052602060002090600402016001015414151561411557600080fd5b60001515600860008581526020019081526020016000208381548110151561413957fe5b906000526020600020906004020160030160019054906101000a900460ff16151514151561416657600080fd5b7f08962bc8e69e48f301d776a9cbc9ea37df6c12e29b411692176848df7ced36d783836007876040518082805190602001908083835b6020831015156141c1578051825260208201915060208101905060208303925061419c565b6001836020036101000a03801982511681845116808217855250505050505090500191505090815260200160405180910390206001018681548110151561420457fe5b906000526020600020906005020160020154426040518085815260200184815260200183815260200182815260200194505050505060405180910390a1600190509392505050565b6000600115156007846040518082805190602001908083835b60208310151561428a5780518252602082019150602081019050602083039250614265565b6001836020036101000a038019825116818451168082178552505050505050905001915050908152602001604051809103902060030160009054906101000a900460ff16151514151561436b576040517f08c379a00000000000000000000000000000000000000000000000000000000081526004018080602001828103825260258152602001807f4465766963652073657269616c206e756d626572206973206e6f74206176616981526020017f6c61626c6500000000000000000000000000000000000000000000000000000081525060400191505060405180910390fd5b600115156007846040518082805190602001908083835b6020831015156143a75780518252602082019150602081019050602083039250614382565b6001836020036101000a0380198251168184511680821785525050505050509050019150509081526020016040518091039020600101838154811015156143ea57fe5b906000526020600020906005020160040160019054906101000a900460ff1615151415156144a6576040517f08c379a00000000000000000000000000000000000000000000000000000000081526004018080602001828103825260218152602001807f44657669636520616374696f6e206964206973206e6f7420617661696c61626c81526020017f650000000000000000000000000000000000000000000000000000000000000081525060400191505060405180910390fd5b6008600083815260200190815260200160002060c0604051908101604052803373ffffffffffffffffffffffffffffffffffffffff168152602001848152602001428152602001600115158152602001600015158152602001600115158152509080600181540180825580915050906001820390600052602060002090600402016000909192909190915060008201518160000160006101000a81548173ffffffffffffffffffffffffffffffffffffffff021916908373ffffffffffffffffffffffffffffffffffffffff160217905550602082015181600101556040820151816002015560608201518160030160006101000a81548160ff02191690831515021790555060808201518160030160016101000a81548160ff02191690831515021790555060a08201518160030160026101000a81548160ff0219169083151502179055505050507f875b40a67d33b0171b10d7197a7c57cc4a8a03020e69c119753e83c07790640783836007866040518082805190602001908083835b60208310151561464a5780518252602082019150602081019050602083039250614625565b6001836020036101000a03801982511681845116808217855250505050505090500191505090815260200160405180910390206001018581548110151561468d57fe5b90600052602060002090600502016001016007876040518082805190602001908083835b6020831015156146d657805182526020820191506020810190506020830392506146b1565b6001836020036101000a03801982511681845116808217855250505050505090500191505090815260200160405180910390206001018681548110151561471957fe5b9060005260206000209060050201600201546007886040518082805190602001908083835b602083101515614763578051825260208201915060208101905060208303925061473e565b6001836020036101000a0380198251168184511680821785525050505050509050019150509081526020016040518091039020600101878154811015156147a657fe5b906000526020600020906005020160030154600160405180806020018781526020018060200186815260200185815260200184151515158152602001838103835289818151815260200191508051906020019080838360005b8381101561481a5780820151818401526020810190506147ff565b50505050905090810190601f1680156148475780820380516001836020036101000a031916815260200191505b508381038252878181546001816001161561010002031660029004815260200191508054600181600116156101000203166002900480156148c95780601f1061489e576101008083540402835291602001916148c9565b820191906000526020600020905b8154815290600101906020018083116148ac57829003601f168201915b50509850505050505050505060405180910390a16001905092915050565b6000806000809054906101000a900473ffffffffffffffffffffffffffffffffffffffff1673ffffffffffffffffffffffffffffffffffffffff161480614957575060006149556000809054906101000a900473ffffffffffffffffffffffffffffffffffffffff166155b7565b145b156149685761496660006155c2565b505b6000809054906101000a900473ffffffffffffffffffffffffffffffffffffffff1673ffffffffffffffffffffffffffffffffffffffff166338cc48316040518163ffffffff167c0100000000000000000000000000000000000000000000000000000000028152600401602060405180830381600087803b1580156149ed57600080fd5b505af1158015614a01573d6000803e3d6000fd5b505050506040513d6020811015614a1757600080fd5b810190808051906020019092919050505073ffffffffffffffffffffffffffffffffffffffff16600160009054906101000a900473ffffffffffffffffffffffffffffffffffffffff1673ffffffffffffffffffffffffffffffffffffffff16141515614b7f576000809054906101000a900473ffffffffffffffffffffffffffffffffffffffff1673ffffffffffffffffffffffffffffffffffffffff166338cc48316040518163ffffffff167c0100000000000000000000000000000000000000000000000000000000028152600401602060405180830381600087803b158015614b0357600080fd5b505af1158015614b17573d6000803e3d6000fd5b505050506040513d6020811015614b2d57600080fd5b8101908080519060200190929190505050600160006101000a81548173ffffffffffffffffffffffffffffffffffffffff021916908373ffffffffffffffffffffffffffffffffffffffff1602179055505b600160009054906101000a900473ffffffffffffffffffffffffffffffffffffffff1673ffffffffffffffffffffffffffffffffffffffff1663c281d19e6040518163ffffffff167c0100000000000000000000000000000000000000000000000000000000028152600401602060405180830381600087803b158015614c0557600080fd5b505af1158015614c19573d6000803e3d6000fd5b505050506040513d6020811015614c2f57600080fd5b8101908080519060200190929190505050905090565b6000806000809054906101000a900473ffffffffffffffffffffffffffffffffffffffff1673ffffffffffffffffffffffffffffffffffffffff161480614cb557506000614cb36000809054906101000a900473ffffffffffffffffffffffffffffffffffffffff166155b7565b145b15614cc657614cc460006155c2565b505b6000809054906101000a900473ffffffffffffffffffffffffffffffffffffffff1673ffffffffffffffffffffffffffffffffffffffff166338cc48316040518163ffffffff167c0100000000000000000000000000000000000000000000000000000000028152600401602060405180830381600087803b158015614d4b57600080fd5b505af1158015614d5f573d6000803e3d6000fd5b505050506040513d6020811015614d7557600080fd5b810190808051906020019092919050505073ffffffffffffffffffffffffffffffffffffffff16600160009054906101000a900473ffffffffffffffffffffffffffffffffffffffff1673ffffffffffffffffffffffffffffffffffffffff16141515614edd576000809054906101000a900473ffffffffffffffffffffffffffffffffffffffff1673ffffffffffffffffffffffffffffffffffffffff166338cc48316040518163ffffffff167c0100000000000000000000000000000000000000000000000000000000028152600401602060405180830381600087803b158015614e6157600080fd5b505af1158015614e75573d6000803e3d6000fd5b505050506040513d6020811015614e8b57600080fd5b8101908080519060200190929190505050600160006101000a81548173ffffffffffffffffffffffffffffffffffffffff021916908373ffffffffffffffffffffffffffffffffffffffff1602179055505b600160009054906101000a900473ffffffffffffffffffffffffffffffffffffffff1673ffffffffffffffffffffffffffffffffffffffff1663524f3889836040518263ffffffff167c01000000000000000000000000000000000000000000000000000000000281526004018080602001828103825283818151815260200191508051906020019080838360005b83811015614f87578082015181840152602081019050614f6c565b50505050905090810190601f168015614fb45780820380516001836020036101000a031916815260200191505b5092505050602060405180830381600087803b158015614fd357600080fd5b505af1158015614fe7573d6000803e3d6000fd5b505050506040513d6020811015614ffd57600080fd5b81019080805190602001909291905050509050919050565b60008060008060009054906101000a900473ffffffffffffffffffffffffffffffffffffffff1673ffffffffffffffffffffffffffffffffffffffff161480615087575060006150856000809054906101000a900473ffffffffffffffffffffffffffffffffffffffff166155b7565b145b156150985761509660006155c2565b505b6000809054906101000a900473ffffffffffffffffffffffffffffffffffffffff1673ffffffffffffffffffffffffffffffffffffffff166338cc48316040518163ffffffff167c0100000000000000000000000000000000000000000000000000000000028152600401602060405180830381600087803b15801561511d57600080fd5b505af1158015615131573d6000803e3d6000fd5b505050506040513d602081101561514757600080fd5b810190808051906020019092919050505073ffffffffffffffffffffffffffffffffffffffff16600160009054906101000a900473ffffffffffffffffffffffffffffffffffffffff1673ffffffffffffffffffffffffffffffffffffffff161415156152af576000809054906101000a900473ffffffffffffffffffffffffffffffffffffffff1673ffffffffffffffffffffffffffffffffffffffff166338cc48316040518163ffffffff167c0100000000000000000000000000000000000000000000000000000000028152600401602060405180830381600087803b15801561523357600080fd5b505af1158015615247573d6000803e3d6000fd5b505050506040513d602081101561525d57600080fd5b8101908080519060200190929190505050600160006101000a81548173ffffffffffffffffffffffffffffffffffffffff021916908373ffffffffffffffffffffffffffffffffffffffff1602179055505b600160009054906101000a900473ffffffffffffffffffffffffffffffffffffffff1673ffffffffffffffffffffffffffffffffffffffff1663524f3889856040518263ffffffff167c01000000000000000000000000000000000000000000000000000000000281526004018080602001828103825283818151815260200191508051906020019080838360005b8381101561535957808201518184015260208101905061533e565b50505050905090810190601f1680156153865780820380516001836020036101000a031916815260200191505b5092505050602060405180830381600087803b1580156153a557600080fd5b505af11580156153b9573d6000803e3d6000fd5b505050506040513d60208110156153cf57600080fd5b8101908080519060200190929190505050905062030d403a02670de0b6b3a76400000181111561540557600060010291506155af565b600160009054906101000a900473ffffffffffffffffffffffffffffffffffffffff1673ffffffffffffffffffffffffffffffffffffffff1663adf59f99828787876040518563ffffffff167c0100000000000000000000000000000000000000000000000000000000028152600401808481526020018060200180602001838103835285818151815260200191508051906020019080838360005b838110156154bc5780820151818401526020810190506154a1565b50505050905090810190601f1680156154e95780820380516001836020036101000a031916815260200191505b50838103825284818151815260200191508051906020019080838360005b83811015615522578082015181840152602081019050615507565b50505050905090810190601f16801561554f5780820380516001836020036101000a031916815260200191505b50955050505050506020604051808303818588803b15801561557057600080fd5b505af1158015615584573d6000803e3d6000fd5b50505050506040513d602081101561559b57600080fd5b810190808051906020019092919050505091505b509392505050565b6000813b9050919050565b60006155cc6155d3565b9050919050565b6000806155f3731d3b2638a7cc9f2cb3d298a3da7a90b67e5506ed6155b7565b111561569457731d3b2638a7cc9f2cb3d298a3da7a90b67e5506ed6000806101000a81548173ffffffffffffffffffffffffffffffffffffffff021916908373ffffffffffffffffffffffffffffffffffffffff16021790555061568b6040805190810160405280600b81526020017f6574685f6d61696e6e6574000000000000000000000000000000000000000000815250615a62565b60019050615a5f565b60006156b373c03a2615d5efaf5f49f60b7bb6583eaec212fdf16155b7565b11156157545773c03a2615d5efaf5f49f60b7bb6583eaec212fdf16000806101000a81548173ffffffffffffffffffffffffffffffffffffffff021916908373ffffffffffffffffffffffffffffffffffffffff16021790555061574b6040805190810160405280600c81526020017f6574685f726f707374656e330000000000000000000000000000000000000000815250615a62565b60019050615a5f565b600061577373b7a07bcf2ba2f2703b24c0691b5278999c59ac7e6155b7565b11156158145773b7a07bcf2ba2f2703b24c0691b5278999c59ac7e6000806101000a81548173ffffffffffffffffffffffffffffffffffffffff021916908373ffffffffffffffffffffffffffffffffffffffff16021790555061580b6040805190810160405280600981526020017f6574685f6b6f76616e0000000000000000000000000000000000000000000000815250615a62565b60019050615a5f565b600061583373146500cfd35b22e4a392fe0adc06de1a1368ed486155b7565b11156158d45773146500cfd35b22e4a392fe0adc06de1a1368ed486000806101000a81548173ffffffffffffffffffffffffffffffffffffffff021916908373ffffffffffffffffffffffffffffffffffffffff1602179055506158cb6040805190810160405280600b81526020017f6574685f72696e6b656279000000000000000000000000000000000000000000815250615a62565b60019050615a5f565b60006158f3736f485c8bf6fc43ea212e93bbf8ce046c7f1cb4756155b7565b111561595657736f485c8bf6fc43ea212e93bbf8ce046c7f1cb4756000806101000a81548173ffffffffffffffffffffffffffffffffffffffff021916908373ffffffffffffffffffffffffffffffffffffffff16021790555060019050615a5f565b60006159757320e12a1f859b3feae5fb2a0a32c18f5a65555bbf6155b7565b11156159d8577320e12a1f859b3feae5fb2a0a32c18f5a65555bbf6000806101000a81548173ffffffffffffffffffffffffffffffffffffffff021916908373ffffffffffffffffffffffffffffffffffffffff16021790555060019050615a5f565b60006159f77351efaf4c8b3c9afbd5ab9f4bbc82784ab6ef8faa6155b7565b1115615a5a577351efaf4c8b3c9afbd5ab9f4bbc82784ab6ef8faa6000806101000a81548173ffffffffffffffffffffffffffffffffffffffff021916908373ffffffffffffffffffffffffffffffffffffffff16021790555060019050615a5f565b600090505b90565b8060029080519060200190615a78929190615afc565b5050565b828054600181600116156101000203166002900490600052602060002090601f016020900481019282601f10615abd57805160ff1916838001178555615aeb565b82800160010185558215615aeb579182015b82811115615aea578251825591602001919060010190615acf565b5b509050615af89190615b7c565b5090565b828054600181600116156101000203166002900490600052602060002090601f016020900481019282601f10615b3d57805160ff1916838001178555615b6b565b82800160010185558215615b6b579182015b82811115615b6a578251825591602001919060010190615b4f565b5b509050615b789190615b7c565b5090565b615b9e91905b80821115615b9a576000816000905550600101615b82565b5090565b905600a165627a7a72305820e26413f6eb644451f4cff52926f8e94524a8fed4fef33715a620746ccf85d2180029",
  "source": "pragma solidity ^0.4.24;\n\nimport \"./Rawbot.sol\";\nimport \"./Oraclize.sol\";\n\ncontract Merchant is usingOraclize {\n\n    Rawbot private rawbot;\n    address public constant rawbot_address = 0x1e3d402d19dd111db15fe00cd5726da452bf5a75;\n    address private merchant_address;\n\n    mapping(string => Device) private devices;\n    mapping(uint256 => ActionHistory[]) private action_history;\n    mapping(uint256 => ActionHistory[]) private recurring_action_history;\n\n    uint256 public RECURRING_PAYMENT_STEP = 0;\n    string[] private device_serial_numbers;\n    string[] private device_names;\n    RA[] recurring_action_array;\n\n    event Refund(uint, uint, uint, uint);\n    event RefundAutomatic(uint, uint, uint, uint);\n\n    event RecurrentRefund(uint, uint, uint, uint);\n    event RecurrentRefundAutomatic(uint, uint, uint, uint);\n\n    event RecurringPaymentLog(string);\n    event ActionAdd(string, uint, string, uint256, uint256, bool, bool);\n    event ActionEnable(string, uint, string, uint256, uint256, bool);\n    event ActionDisable(string, uint, string, uint256, uint256, bool);\n\n    event RecurringActionAdd(string, uint, string, uint256, uint256, bool, bool);\n    event RecurringActionEnable(string, uint, string, uint256, uint256, bool);\n    event RecurringActionDisable(string, uint, string, uint256, uint256, bool);\n\n    constructor(address _merchant_address) payable public {\n        merchant_address = _merchant_address;\n        rawbot = Rawbot(rawbot_address);\n    }\n\n    struct RA {\n        string device_name;\n        uint256 recurring_action_id;\n        uint256 recurring_action_history_id;\n        bool available;\n    }\n\n    struct Device {\n        string device_name;\n        Action[] device_actions;\n        RecurringAction[] device_recurring_actions;\n        bool available;\n    }\n\n    struct Action {\n        uint256 id;\n        string name;\n        uint256 price;\n        uint256 duration;\n        bool refundable;\n        bool available;\n    }\n\n    struct RecurringAction {\n        uint256 id;\n        string name;\n        uint256 price;\n        uint256 _days;\n        bool refundable;\n        bool available;\n    }\n\n    struct ActionHistory {\n        address user;\n        uint256 id;\n        uint256 time;\n        bool enable;\n        bool refunded;\n        bool available;\n    }\n\n    //\"ABC\", \"Raspberry PI 3\"\n    function addDevice(string device_serial_number, string device_name) public payable returns (bool){\n        //        require(merchant_address == msg.sender, \"Only merchant can add devices.\");\n        require(devices[device_serial_number].available == false);\n        devices[device_serial_number].device_name = device_name;\n        devices[device_serial_number].available = true;\n        device_serial_numbers.push(device_serial_number);\n        device_names.push(device_name);\n        return true;\n    }\n\n    //\"ABC\", \"Open\", 20, 20, true\n    function addAction(string device_serial_number, string action_name, uint256 action_price, uint256 action_duration, bool refundable) public payable returns (bool){\n        //        require(merchant_address == msg.sender);\n        require(devices[device_serial_number].available == true, \"Device serial number is not available\");\n        devices[device_serial_number].device_actions.push(Action(devices[device_serial_number].device_actions.length, action_name, action_price, action_duration, refundable, true));\n        emit ActionAdd(device_serial_number, devices[device_serial_number].device_actions.length, action_name, action_price, action_duration, refundable, true);\n        return true;\n    }\n\n    //\"ABC\", \"Open\", 20, 20, true\n    function addRecurringAction(string device_serial_number, string action_name, uint256 action_price, uint256 _days, bool refundable) public payable returns (bool){\n        //        require(merchant_address == msg.sender);\n        require(devices[device_serial_number].available == true, \"Device serial number is not available\");\n        devices[device_serial_number].device_recurring_actions.push(RecurringAction(devices[device_serial_number].device_recurring_actions.length, action_name, action_price, _days, refundable, true));\n        emit ActionAdd(device_serial_number, devices[device_serial_number].device_recurring_actions.length, action_name, action_price, _days, refundable, true);\n        return true;\n    }\n\n    //\"ABC\", 0\n    function enableAction(string device_serial_number, uint256 action_id) public payable returns (bool success) {\n        require(devices[device_serial_number].available == true, \"Device serial number is not available\");\n        require(devices[device_serial_number].device_actions[action_id].available == true, \"Device action id is not available\");\n        //        require(rawbot.getBalance(msg.sender) >= devices[device_serial_number].device_actions[action_id].price, \"User doesn't have enough balance\");\n        action_history[action_id].push(ActionHistory(msg.sender, action_id, now, true, false, true));\n        //        rawbot.modifyBalance(msg.sender, - devices[device_serial_number].device_actions[action_id].price);\n        //        rawbot.modifyBalance(merchant_address, devices[device_serial_number].device_actions[action_id].price);\n        emit ActionEnable(device_serial_number, action_id, devices[device_serial_number].device_actions[action_id].name, devices[device_serial_number].device_actions[action_id].price, devices[device_serial_number].device_actions[action_id].duration, true);\n        return true;\n    }\n\n    //\"ABC\", 0\n    function enableRecurringAction(string device_serial_number, uint256 action_id) public payable returns (bool success) {\n        if (oraclize_getPrice(\"URL\") > address(this).balance) {\n            return false;\n        } else {\n            require(devices[device_serial_number].available == true, \"Device serial number is not available\");\n            require(devices[device_serial_number].device_recurring_actions[action_id].available == true, \"Device action id is not available\");\n            require(rawbot.getBalance(msg.sender) >= devices[device_serial_number].device_recurring_actions[action_id].price, \"User doesn't have enough balance\");\n            recurring_action_history[action_id].push(ActionHistory(msg.sender, action_id, now, true, false, true));\n            recurring_action_array.push(RA(device_serial_number, action_id, recurring_action_history[action_id].length - 1, true));\n            rawbot.modifyBalance(msg.sender, - devices[device_serial_number].device_recurring_actions[action_id].price);\n            rawbot.modifyBalance(merchant_address, devices[device_serial_number].device_recurring_actions[action_id].price);\n            oraclize_query(devices[device_serial_number].device_recurring_actions[action_id]._days * 60 * 60 * 24, \"URL\", \"\");\n            RECURRING_PAYMENT_STEP = 1;\n            emit ActionEnable(device_serial_number, action_id, devices[device_serial_number].device_recurring_actions[action_id].name, devices[device_serial_number].device_recurring_actions[action_id].price, devices[device_serial_number].device_recurring_actions[action_id]._days, true);\n            return true;\n        }\n    }\n\n    //\"ABC\", 0\n    function disableAction(string device_serial_number, uint256 action_id) public payable returns (bool success) {\n        require(devices[device_serial_number].available == true, \"Device serial number is not available\");\n        require(devices[device_serial_number].device_actions[action_id].available == true, \"Device action id is not available\");\n        action_history[action_id].push(ActionHistory(msg.sender, action_id, now, false, false, true));\n        emit ActionDisable(device_serial_number, action_id, devices[device_serial_number].device_actions[action_id].name, devices[device_serial_number].device_actions[action_id].price, devices[device_serial_number].device_actions[action_id].duration, true);\n        return true;\n    }\n\n    //\"ABC\", 0\n    function disableRecurringAction(string device_serial_number, uint256 action_id) public payable returns (bool success) {\n        require(devices[device_serial_number].available == true, \"Device serial number is not available\");\n        require(devices[device_serial_number].device_recurring_actions[action_id].available == true, \"Device action id is not available\");\n        recurring_action_history[action_id].push(ActionHistory(msg.sender, action_id, now, false, false, true));\n        emit ActionDisable(device_serial_number, action_id, devices[device_serial_number].device_recurring_actions[action_id].name, devices[device_serial_number].device_recurring_actions[action_id].price, devices[device_serial_number].device_recurring_actions[action_id]._days, true);\n        return true;\n    }\n\n    //\"ABC\", 0, 0\n    function refund(string device_serial_number, uint256 action_id, uint _action_history_id) payable public returns (bool) {\n        //        require(msg.sender == merchant_address);\n        require(devices[device_serial_number].available == true);\n        require(devices[device_serial_number].device_actions[action_id].available == true);\n        require(devices[device_serial_number].device_actions[action_id].refundable == true);\n        require(action_history[action_id][_action_history_id].available == true);\n        require(action_history[action_id][_action_history_id].id == action_id);\n        require(action_history[action_id][_action_history_id].refunded == false);\n        //        rawbot.modifyBalance(msg.sender, devices[device_serial_number].device_actions[action_id].price);\n        emit Refund(action_id, _action_history_id, devices[device_serial_number].device_actions[action_id].price, now);\n        return true;\n    }\n\n    //\"ABC\", 0, 0\n    function refundAutomatic(string device_serial_number, uint256 action_id, uint256 _action_history_id) payable public returns (bool success) {\n        require(devices[device_serial_number].available == true);\n        require(devices[device_serial_number].device_actions[action_id].available == true);\n        require(devices[device_serial_number].device_actions[action_id].refundable == true);\n        require(action_history[action_id][_action_history_id].available == true);\n        require(action_history[action_id][_action_history_id].id == action_id);\n        require(action_history[action_id][_action_history_id].refunded == false);\n        uint256 time_passed = now - (action_history[action_id][_action_history_id].time + devices[device_serial_number].device_actions[action_id].duration);\n        //        require(time_passed < 0);\n        emit RefundAutomatic(action_id, _action_history_id, devices[device_serial_number].device_actions[action_id].price, now);\n        return true;\n    }\n\n    function getActionPrice(string device_serial_number, uint256 action_id) public view returns (uint) {\n        return devices[device_serial_number].device_actions[action_id].price;\n    }\n\n    function isRefundable(string device_serial_number, uint256 action_id) public view returns (bool) {\n        return devices[device_serial_number].device_actions[action_id].refundable;\n    }\n\n    function getMerchantAddress() public view returns (address) {\n        return merchant_address;\n    }\n\n    function withdrawFromDevice(address device_address, uint256 value) public payable returns (bool success) {\n        require(merchant_address == msg.sender);\n        require(rawbot.getBalance(device_address) >= value);\n        rawbot.modifyBalance(device_address, - value);\n        rawbot.modifyBalance(msg.sender, value);\n        return true;\n    }\n\n    function getUserBalance(address _address) public view returns (uint256){\n        return rawbot.getBalance(_address);\n    }\n\n    function __callback(bytes32 myid, string result) {\n        if (msg.sender != oraclize_cbAddress()) revert();\n        RA[] temp;\n        for (uint i = 0; i < recurring_action_array.length; i++) {\n            require(recurring_action_history[raid][rahid].id == raid);\n            string device_name = recurring_action_array[i].device_name;\n            uint256 raid = recurring_action_array[i].recurring_action_id;\n            uint256 rahid = recurring_action_array[i].recurring_action_history_id;\n\n            uint _days = devices[device_name].device_recurring_actions[raid]._days * 86400;\n            uint _time = recurring_action_history[raid][rahid].time;\n\n            uint difference = now - (_days + _time);\n            if (difference > 0) {\n                disableRecurringAction(device_name, raid);\n            } else {\n                //                temp.push(RA(device_name, raid, rahid, true));\n            }\n        }\n\n        //        recurring_action_array = temp;\n        emit RecurringPaymentLog(\"Recurring payment callback.\");\n        RECURRING_PAYMENT_STEP = 2;\n    }\n\n    uint hash_index = 0;\n    mapping(uint => bytes32) ipfs_hash;\n\n    function addImageHash(bytes32 _hash) public {\n        ipfs_hash[hash_index] = _hash;\n        hash_index++;\n    }\n}",
  "sourcePath": "/Users/hassanjawhar/Desktop/Workspace/rawbot/contracts/Merchant.sol",
  "compiler": {
    "name": "solc",
    "version": "0.4.24+commit.e67f0147.Emscripten.clang"
  },
  "schemaVersion": "2.0.0",
  "updatedAt": "2018-08-09T18:47:50.351Z"
}