{
  "contractName": "Merchant",
  "abi": [
    {
      "constant": true,
      "inputs": [],
      "name": "RECURRING_PAYMENT_STEP",
      "outputs": [
        {
          "name": "",
          "type": "uint256"
        }
      ],
      "payable": false,
      "stateMutability": "view",
      "type": "function"
    },
    {
      "constant": true,
      "inputs": [],
      "name": "rawbot_address",
      "outputs": [
        {
          "name": "",
          "type": "address"
        }
      ],
      "payable": false,
      "stateMutability": "view",
      "type": "function"
    },
    {
      "inputs": [
        {
          "name": "_merchant_address",
          "type": "address"
        }
      ],
      "payable": true,
      "stateMutability": "payable",
      "type": "constructor"
    },
    {
      "anonymous": false,
      "inputs": [
        {
          "indexed": false,
          "name": "",
          "type": "uint256"
        },
        {
          "indexed": false,
          "name": "",
          "type": "uint256"
        },
        {
          "indexed": false,
          "name": "",
          "type": "uint256"
        },
        {
          "indexed": false,
          "name": "",
          "type": "uint256"
        }
      ],
      "name": "Refund",
      "type": "event"
    },
    {
      "anonymous": false,
      "inputs": [
        {
          "indexed": false,
          "name": "",
          "type": "uint256"
        },
        {
          "indexed": false,
          "name": "",
          "type": "uint256"
        },
        {
          "indexed": false,
          "name": "",
          "type": "uint256"
        },
        {
          "indexed": false,
          "name": "",
          "type": "uint256"
        }
      ],
      "name": "RefundAutomatic",
      "type": "event"
    },
    {
      "anonymous": false,
      "inputs": [
        {
          "indexed": false,
          "name": "",
          "type": "uint256"
        },
        {
          "indexed": false,
          "name": "",
          "type": "uint256"
        },
        {
          "indexed": false,
          "name": "",
          "type": "uint256"
        },
        {
          "indexed": false,
          "name": "",
          "type": "uint256"
        }
      ],
      "name": "RecurrentRefund",
      "type": "event"
    },
    {
      "anonymous": false,
      "inputs": [
        {
          "indexed": false,
          "name": "",
          "type": "uint256"
        },
        {
          "indexed": false,
          "name": "",
          "type": "uint256"
        },
        {
          "indexed": false,
          "name": "",
          "type": "uint256"
        },
        {
          "indexed": false,
          "name": "",
          "type": "uint256"
        }
      ],
      "name": "RecurrentRefundAutomatic",
      "type": "event"
    },
    {
      "anonymous": false,
      "inputs": [
        {
          "indexed": false,
          "name": "",
          "type": "string"
        }
      ],
      "name": "RecurringPaymentLog",
      "type": "event"
    },
    {
      "anonymous": false,
      "inputs": [
        {
          "indexed": false,
          "name": "",
          "type": "string"
        },
        {
          "indexed": false,
          "name": "",
          "type": "uint256"
        },
        {
          "indexed": false,
          "name": "",
          "type": "string"
        },
        {
          "indexed": false,
          "name": "",
          "type": "uint256"
        },
        {
          "indexed": false,
          "name": "",
          "type": "uint256"
        },
        {
          "indexed": false,
          "name": "",
          "type": "bool"
        },
        {
          "indexed": false,
          "name": "",
          "type": "bool"
        }
      ],
      "name": "ActionAdd",
      "type": "event"
    },
    {
      "anonymous": false,
      "inputs": [
        {
          "indexed": false,
          "name": "",
          "type": "string"
        },
        {
          "indexed": false,
          "name": "",
          "type": "uint256"
        },
        {
          "indexed": false,
          "name": "",
          "type": "string"
        },
        {
          "indexed": false,
          "name": "",
          "type": "uint256"
        },
        {
          "indexed": false,
          "name": "",
          "type": "uint256"
        },
        {
          "indexed": false,
          "name": "",
          "type": "bool"
        }
      ],
      "name": "ActionEnable",
      "type": "event"
    },
    {
      "anonymous": false,
      "inputs": [
        {
          "indexed": false,
          "name": "",
          "type": "string"
        },
        {
          "indexed": false,
          "name": "",
          "type": "uint256"
        },
        {
          "indexed": false,
          "name": "",
          "type": "string"
        },
        {
          "indexed": false,
          "name": "",
          "type": "uint256"
        },
        {
          "indexed": false,
          "name": "",
          "type": "uint256"
        },
        {
          "indexed": false,
          "name": "",
          "type": "bool"
        }
      ],
      "name": "ActionDisable",
      "type": "event"
    },
    {
      "anonymous": false,
      "inputs": [
        {
          "indexed": false,
          "name": "",
          "type": "string"
        },
        {
          "indexed": false,
          "name": "",
          "type": "uint256"
        },
        {
          "indexed": false,
          "name": "",
          "type": "string"
        },
        {
          "indexed": false,
          "name": "",
          "type": "uint256"
        },
        {
          "indexed": false,
          "name": "",
          "type": "uint256"
        },
        {
          "indexed": false,
          "name": "",
          "type": "bool"
        },
        {
          "indexed": false,
          "name": "",
          "type": "bool"
        }
      ],
      "name": "RecurringActionAdd",
      "type": "event"
    },
    {
      "anonymous": false,
      "inputs": [
        {
          "indexed": false,
          "name": "",
          "type": "string"
        },
        {
          "indexed": false,
          "name": "",
          "type": "uint256"
        },
        {
          "indexed": false,
          "name": "",
          "type": "string"
        },
        {
          "indexed": false,
          "name": "",
          "type": "uint256"
        },
        {
          "indexed": false,
          "name": "",
          "type": "uint256"
        },
        {
          "indexed": false,
          "name": "",
          "type": "bool"
        }
      ],
      "name": "RecurringActionEnable",
      "type": "event"
    },
    {
      "anonymous": false,
      "inputs": [
        {
          "indexed": false,
          "name": "",
          "type": "string"
        },
        {
          "indexed": false,
          "name": "",
          "type": "uint256"
        },
        {
          "indexed": false,
          "name": "",
          "type": "string"
        },
        {
          "indexed": false,
          "name": "",
          "type": "uint256"
        },
        {
          "indexed": false,
          "name": "",
          "type": "uint256"
        },
        {
          "indexed": false,
          "name": "",
          "type": "bool"
        }
      ],
      "name": "RecurringActionDisable",
      "type": "event"
    },
    {
      "constant": false,
      "inputs": [
        {
          "name": "device_serial_number",
          "type": "string"
        },
        {
          "name": "device_name",
          "type": "string"
        }
      ],
      "name": "addDevice",
      "outputs": [
        {
          "name": "",
          "type": "bool"
        }
      ],
      "payable": true,
      "stateMutability": "payable",
      "type": "function"
    },
    {
      "constant": false,
      "inputs": [
        {
          "name": "device_serial_number",
          "type": "string"
        },
        {
          "name": "action_name",
          "type": "string"
        },
        {
          "name": "action_price",
          "type": "uint256"
        },
        {
          "name": "action_duration",
          "type": "uint256"
        },
        {
          "name": "refundable",
          "type": "bool"
        }
      ],
      "name": "addAction",
      "outputs": [
        {
          "name": "",
          "type": "bool"
        }
      ],
      "payable": true,
      "stateMutability": "payable",
      "type": "function"
    },
    {
      "constant": false,
      "inputs": [
        {
          "name": "device_serial_number",
          "type": "string"
        },
        {
          "name": "action_name",
          "type": "string"
        },
        {
          "name": "action_price",
          "type": "uint256"
        },
        {
          "name": "_days",
          "type": "uint256"
        },
        {
          "name": "refundable",
          "type": "bool"
        }
      ],
      "name": "addRecurringAction",
      "outputs": [
        {
          "name": "",
          "type": "bool"
        }
      ],
      "payable": true,
      "stateMutability": "payable",
      "type": "function"
    },
    {
      "constant": false,
      "inputs": [
        {
          "name": "device_serial_number",
          "type": "string"
        },
        {
          "name": "action_id",
          "type": "uint256"
        }
      ],
      "name": "enableAction",
      "outputs": [
        {
          "name": "success",
          "type": "bool"
        }
      ],
      "payable": true,
      "stateMutability": "payable",
      "type": "function"
    },
    {
      "constant": false,
      "inputs": [
        {
          "name": "device_serial_number",
          "type": "string"
        },
        {
          "name": "action_id",
          "type": "uint256"
        }
      ],
      "name": "enableRecurringAction",
      "outputs": [
        {
          "name": "success",
          "type": "bool"
        }
      ],
      "payable": true,
      "stateMutability": "payable",
      "type": "function"
    },
    {
      "constant": false,
      "inputs": [
        {
          "name": "device_serial_number",
          "type": "string"
        },
        {
          "name": "action_id",
          "type": "uint256"
        }
      ],
      "name": "disableAction",
      "outputs": [
        {
          "name": "success",
          "type": "bool"
        }
      ],
      "payable": true,
      "stateMutability": "payable",
      "type": "function"
    },
    {
      "constant": false,
      "inputs": [
        {
          "name": "device_serial_number",
          "type": "string"
        },
        {
          "name": "action_id",
          "type": "uint256"
        }
      ],
      "name": "disableRecurringAction",
      "outputs": [
        {
          "name": "success",
          "type": "bool"
        }
      ],
      "payable": true,
      "stateMutability": "payable",
      "type": "function"
    },
    {
      "constant": false,
      "inputs": [
        {
          "name": "device_serial_number",
          "type": "string"
        },
        {
          "name": "action_id",
          "type": "uint256"
        },
        {
          "name": "_action_history_id",
          "type": "uint256"
        }
      ],
      "name": "refund",
      "outputs": [
        {
          "name": "",
          "type": "bool"
        }
      ],
      "payable": true,
      "stateMutability": "payable",
      "type": "function"
    },
    {
      "constant": false,
      "inputs": [
        {
          "name": "device_serial_number",
          "type": "string"
        },
        {
          "name": "action_id",
          "type": "uint256"
        },
        {
          "name": "_action_history_id",
          "type": "uint256"
        }
      ],
      "name": "refundAutomatic",
      "outputs": [
        {
          "name": "success",
          "type": "bool"
        }
      ],
      "payable": true,
      "stateMutability": "payable",
      "type": "function"
    },
    {
      "constant": true,
      "inputs": [
        {
          "name": "device_serial_number",
          "type": "string"
        },
        {
          "name": "action_id",
          "type": "uint256"
        }
      ],
      "name": "getActionPrice",
      "outputs": [
        {
          "name": "",
          "type": "uint256"
        }
      ],
      "payable": false,
      "stateMutability": "view",
      "type": "function"
    },
    {
      "constant": true,
      "inputs": [
        {
          "name": "device_serial_number",
          "type": "string"
        },
        {
          "name": "action_id",
          "type": "uint256"
        }
      ],
      "name": "isRefundable",
      "outputs": [
        {
          "name": "",
          "type": "bool"
        }
      ],
      "payable": false,
      "stateMutability": "view",
      "type": "function"
    },
    {
      "constant": true,
      "inputs": [],
      "name": "getMerchantAddress",
      "outputs": [
        {
          "name": "",
          "type": "address"
        }
      ],
      "payable": false,
      "stateMutability": "view",
      "type": "function"
    },
    {
      "constant": false,
      "inputs": [
        {
          "name": "device_address",
          "type": "address"
        },
        {
          "name": "value",
          "type": "uint256"
        }
      ],
      "name": "withdrawFromDevice",
      "outputs": [
        {
          "name": "success",
          "type": "bool"
        }
      ],
      "payable": true,
      "stateMutability": "payable",
      "type": "function"
    },
    {
      "constant": true,
      "inputs": [
        {
          "name": "_address",
          "type": "address"
        }
      ],
      "name": "getUserBalance",
      "outputs": [
        {
          "name": "",
          "type": "uint256"
        }
      ],
      "payable": false,
      "stateMutability": "view",
      "type": "function"
    },
    {
      "constant": false,
      "inputs": [
        {
          "name": "_days",
          "type": "uint256"
        }
      ],
      "name": "recurringPayments",
      "outputs": [],
      "payable": true,
      "stateMutability": "payable",
      "type": "function"
    },
    {
      "constant": false,
      "inputs": [
        {
          "name": "myid",
          "type": "bytes32"
        },
        {
          "name": "result",
          "type": "string"
        },
        {
          "name": "proof",
          "type": "bytes"
        }
      ],
      "name": "__callback",
      "outputs": [],
      "payable": false,
      "stateMutability": "nonpayable",
      "type": "function"
    },
    {
      "constant": false,
      "inputs": [
        {
          "name": "myid",
          "type": "bytes32"
        },
        {
          "name": "result",
          "type": "string"
        }
      ],
      "name": "__callback",
      "outputs": [],
      "payable": false,
      "stateMutability": "nonpayable",
      "type": "function"
    }
  ],
  "bytecode": "0x6080604052731e3d402d19dd111db15fe00cd5726da452bf5a75600660006101000a81548173ffffffffffffffffffffffffffffffffffffffff021916908373ffffffffffffffffffffffffffffffffffffffff1602179055506000600b55604051602080615b188339810180604052810190808051906020019092919050505080600760006101000a81548173ffffffffffffffffffffffffffffffffffffffff021916908373ffffffffffffffffffffffffffffffffffffffff160217905550600660009054906101000a900473ffffffffffffffffffffffffffffffffffffffff16600560006101000a81548173ffffffffffffffffffffffffffffffffffffffff021916908373ffffffffffffffffffffffffffffffffffffffff160217905550506159e4806101346000396000f300608060405260043610610106576000357c0100000000000000000000000000000000000000000000000000000000900463ffffffff168062cfb6e51461010b57806307598bd31461013657806308489f55146101565780631b7e72481461023057806327dc297e146102b757806338bbfa501461032e57806347734892146103eb57806347da0a98146104425780635942b743146104c057806366cfce421461053e5780637543db1e14610595578063757d713f146105ed578063a1cc0e7114610675578063a3eb6e5b14610700578063aef34f6914610757578063b85d8261146107d5578063b8dd45871461088f578063cc082a8914610969578063defc3098146109f1575b600080fd5b34801561011757600080fd5b50610120610a6f565b6040518082815260200191505060405180910390f35b61015460048036038101908080359060200190929190505050610a75565b005b610216600480360381019080803590602001908201803590602001908080601f0160208091040260200160405190810160405280939291908181526020018383808284378201915050505050509192919290803590602001908201803590602001908080601f01602080910402602001604051908101604052809392919081815260200183838082843782019150505050505091929192908035906020019092919080359060200190929190803515159060200190929190505050610b3b565b604051808215151515815260200191505060405180910390f35b34801561023c57600080fd5b506102a1600480360381019080803590602001908201803590602001908080601f016020809104026020016040519081016040528093929190818152602001838380828437820191505050505050919291929080359060200190929190505050610fcd565b6040518082815260200191505060405180910390f35b3480156102c357600080fd5b5061032c6004803603810190808035600019169060200190929190803590602001908201803590602001908080601f0160208091040260200160405190810160405280939291908181526020018383808284378201915050505050509192919290505050611064565b005b34801561033a57600080fd5b506103e96004803603810190808035600019169060200190929190803590602001908201803590602001908080601f0160208091040260200160405190810160405280939291908181526020018383808284378201915050505050509192919290803590602001908201803590602001908080601f0160208091040260200160405190810160405280939291908181526020018383808284378201915050505050509192919290505050611119565b005b3480156103f757600080fd5b5061042c600480360381019080803573ffffffffffffffffffffffffffffffffffffffff16906020019092919050505061111e565b6040518082815260200191505060405180910390f35b6104a6600480360381019080803590602001908201803590602001908080601f01602080910402602001604051908101604052809392919081815260200183838082843782019150505050505091929192908035906020019092919050505061121f565b604051808215151515815260200191505060405180910390f35b610524600480360381019080803590602001908201803590602001908080601f0160208091040260200160405190810160405280939291908181526020018383808284378201915050505050509192919290803590602001909291905050506118ba565b604051808215151515815260200191505060405180910390f35b34801561054a57600080fd5b5061055361248f565b604051808273ffffffffffffffffffffffffffffffffffffffff1673ffffffffffffffffffffffffffffffffffffffff16815260200191505060405180910390f35b6105d3600480360381019080803573ffffffffffffffffffffffffffffffffffffffff169060200190929190803590602001909291905050506124b5565b604051808215151515815260200191505060405180910390f35b61065b600480360381019080803590602001908201803590602001908080601f01602080910402602001604051908101604052809392919081815260200183838082843782019150505050505091929192908035906020019092919080359060200190929190505050612828565b604051808215151515815260200191505060405180910390f35b34801561068157600080fd5b506106e6600480360381019080803590602001908201803590602001908080601f016020809104026020016040519081016040528093929190818152602001838380828437820191505050505050919291929080359060200190929190505050612c9d565b604051808215151515815260200191505060405180910390f35b34801561070c57600080fd5b50610715612d41565b604051808273ffffffffffffffffffffffffffffffffffffffff1673ffffffffffffffffffffffffffffffffffffffff16815260200191505060405180910390f35b6107bb600480360381019080803590602001908201803590602001908080601f016020809104026020016040519081016040528093929190818152602001838380828437820191505050505050919291929080359060200190929190505050612d6b565b604051808215151515815260200191505060405180910390f35b610875600480360381019080803590602001908201803590602001908080601f0160208091040260200160405190810160405280939291908181526020018383808284378201915050505050509192919290803590602001908201803590602001908080601f0160208091040260200160405190810160405280939291908181526020018383808284378201915050505050509192919290505050613406565b604051808215151515815260200191505060405180910390f35b61094f600480360381019080803590602001908201803590602001908080601f0160208091040260200160405190810160405280939291908181526020018383808284378201915050505050509192919290803590602001908201803590602001908080601f01602080910402602001604051908101604052809392919081815260200183838082843782019150505050505091929192908035906020019092919080359060200190929190803515159060200190929190505050613627565b604051808215151515815260200191505060405180910390f35b6109d7600480360381019080803590602001908201803590602001908080601f01602080910402602001604051908101604052809392919081815260200183838082843782019150505050505091929192908035906020019092919080359060200190929190505050613ab9565b604051808215151515815260200191505060405180910390f35b610a55600480360381019080803590602001908201803590602001908080601f016020809104026020016040519081016040528093929190818152602001838380828437820191505050505050919291929080359060200190929190505050613e68565b604051808215151515815260200191505060405180910390f35b600b5481565b3073ffffffffffffffffffffffffffffffffffffffff1631610acb6040805190810160405280600381526020017f55524c00000000000000000000000000000000000000000000000000000000008152506146fe565b1115610ad657610b38565b610b2e6018603c80840202026040805190810160405280600381526020017f55524c00000000000000000000000000000000000000000000000000000000008152506020604051908101604052806000815250614ace565b506001600b819055505b50565b6000600115156008876040518082805190602001908083835b602083101515610b795780518252602082019150602081019050602083039250610b54565b6001836020036101000a038019825116818451168082178552505050505050905001915050908152602001604051809103902060030160009054906101000a900460ff161515141515610c5a576040517f08c379a00000000000000000000000000000000000000000000000000000000081526004018080602001828103825260258152602001807f4465766963652073657269616c206e756d626572206973206e6f74206176616981526020017f6c61626c6500000000000000000000000000000000000000000000000000000081525060400191505060405180910390fd5b6008866040518082805190602001908083835b602083101515610c925780518252602082019150602081019050602083039250610c6d565b6001836020036101000a038019825116818451168082178552505050505050905001915050908152602001604051809103902060020160c0604051908101604052806008896040518082805190602001908083835b602083101515610d0c5780518252602082019150602081019050602083039250610ce7565b6001836020036101000a038019825116818451168082178552505050505050905001915050908152602001604051809103902060020180549050815260200187815260200186815260200185815260200184151581526020016001151581525090806001815401808255809150509060018203906000526020600020906005020160009091929091909150600082015181600001556020820151816001019080519060200190610dbd929190615893565b50604082015181600201556060820151816003015560808201518160040160006101000a81548160ff02191690831515021790555060a08201518160040160016101000a81548160ff0219169083151502179055505050507fab7af84a14131a8d124961d4f462f1fb7e82b562aba899a3f28200031563b3e6866008886040518082805190602001908083835b602083101515610e6f5780518252602082019150602081019050602083039250610e4a565b6001836020036101000a038019825116818451168082178552505050505050905001915050908152602001604051809103902060020180549050878787876001604051808060200188815260200180602001878152602001868152602001851515151581526020018415151515815260200183810383528a818151815260200191508051906020019080838360005b83811015610f19578082015181840152602081019050610efe565b50505050905090810190601f168015610f465780820380516001836020036101000a031916815260200191505b50838103825288818151815260200191508051906020019080838360005b83811015610f7f578082015181840152602081019050610f64565b50505050905090810190601f168015610fac5780820380516001836020036101000a031916815260200191505b50995050505050505050505060405180910390a16001905095945050505050565b60006008836040518082805190602001908083835b6020831015156110075780518252602082019150602081019050602083039250610fe2565b6001836020036101000a03801982511681845116808217855250505050505090500191505090815260200160405180910390206001018281548110151561104a57fe5b906000526020600020906005020160020154905092915050565b61106c615070565b73ffffffffffffffffffffffffffffffffffffffff163373ffffffffffffffffffffffffffffffffffffffff161415156110a557600080fd5b7f181a05991468e765ed7498115dc58006bfc3b4c624e024406470557a0857f6e560405180806020018281038252601b8152602001807f526563757272696e67207061796d656e742063616c6c6261636b2e000000000081525060200191505060405180910390a16002600b819055505050565b505050565b6000600560009054906101000a900473ffffffffffffffffffffffffffffffffffffffff1673ffffffffffffffffffffffffffffffffffffffff1663f8b2cb4f836040518263ffffffff167c0100000000000000000000000000000000000000000000000000000000028152600401808273ffffffffffffffffffffffffffffffffffffffff1673ffffffffffffffffffffffffffffffffffffffff168152602001915050602060405180830381600087803b1580156111dd57600080fd5b505af11580156111f1573d6000803e3d6000fd5b505050506040513d602081101561120757600080fd5b81019080805190602001909291905050509050919050565b6000600115156008846040518082805190602001908083835b60208310151561125d5780518252602082019150602081019050602083039250611238565b6001836020036101000a038019825116818451168082178552505050505050905001915050908152602001604051809103902060030160009054906101000a900460ff16151514151561133e576040517f08c379a00000000000000000000000000000000000000000000000000000000081526004018080602001828103825260258152602001807f4465766963652073657269616c206e756d626572206973206e6f74206176616981526020017f6c61626c6500000000000000000000000000000000000000000000000000000081525060400191505060405180910390fd5b600115156008846040518082805190602001908083835b60208310151561137a5780518252602082019150602081019050602083039250611355565b6001836020036101000a0380198251168184511680821785525050505050509050019150509081526020016040518091039020600101838154811015156113bd57fe5b906000526020600020906005020160040160019054906101000a900460ff161515141515611479576040517f08c379a00000000000000000000000000000000000000000000000000000000081526004018080602001828103825260218152602001807f44657669636520616374696f6e206964206973206e6f7420617661696c61626c81526020017f650000000000000000000000000000000000000000000000000000000000000081525060400191505060405180910390fd5b6009600083815260200190815260200160002060c0604051908101604052803373ffffffffffffffffffffffffffffffffffffffff168152602001848152602001428152602001600015158152602001600015158152602001600115158152509080600181540180825580915050906001820390600052602060002090600402016000909192909190915060008201518160000160006101000a81548173ffffffffffffffffffffffffffffffffffffffff021916908373ffffffffffffffffffffffffffffffffffffffff160217905550602082015181600101556040820151816002015560608201518160030160006101000a81548160ff02191690831515021790555060808201518160030160016101000a81548160ff02191690831515021790555060a08201518160030160026101000a81548160ff0219169083151502179055505050507f54376985c61133fd74ddfd5be0e7cacfebc5ee2b28b59fff7642086996680be483836008866040518082805190602001908083835b60208310151561161d57805182526020820191506020810190506020830392506115f8565b6001836020036101000a03801982511681845116808217855250505050505090500191505090815260200160405180910390206001018581548110151561166057fe5b90600052602060002090600502016001016008876040518082805190602001908083835b6020831015156116a95780518252602082019150602081019050602083039250611684565b6001836020036101000a0380198251168184511680821785525050505050509050019150509081526020016040518091039020600101868154811015156116ec57fe5b9060005260206000209060050201600201546008886040518082805190602001908083835b6020831015156117365780518252602082019150602081019050602083039250611711565b6001836020036101000a03801982511681845116808217855250505050505090500191505090815260200160405180910390206001018781548110151561177957fe5b906000526020600020906005020160030154600160405180806020018781526020018060200186815260200185815260200184151515158152602001838103835289818151815260200191508051906020019080838360005b838110156117ed5780820151818401526020810190506117d2565b50505050905090810190601f16801561181a5780820380516001836020036101000a031916815260200191505b5083810382528781815460018160011615610100020316600290048152602001915080546001816001161561010002031660029004801561189c5780601f106118715761010080835404028352916020019161189c565b820191906000526020600020905b81548152906001019060200180831161187f57829003601f168201915b50509850505050505050505060405180910390a16001905092915050565b6000600115156008846040518082805190602001908083835b6020831015156118f857805182526020820191506020810190506020830392506118d3565b6001836020036101000a038019825116818451168082178552505050505050905001915050908152602001604051809103902060030160009054906101000a900460ff1615151415156119d9576040517f08c379a00000000000000000000000000000000000000000000000000000000081526004018080602001828103825260258152602001807f4465766963652073657269616c206e756d626572206973206e6f74206176616981526020017f6c61626c6500000000000000000000000000000000000000000000000000000081525060400191505060405180910390fd5b600115156008846040518082805190602001908083835b602083101515611a1557805182526020820191506020810190506020830392506119f0565b6001836020036101000a038019825116818451168082178552505050505050905001915050908152602001604051809103902060020183815481101515611a5857fe5b906000526020600020906005020160040160019054906101000a900460ff161515141515611b14576040517f08c379a00000000000000000000000000000000000000000000000000000000081526004018080602001828103825260218152602001807f44657669636520616374696f6e206964206973206e6f7420617661696c61626c81526020017f650000000000000000000000000000000000000000000000000000000000000081525060400191505060405180910390fd5b6008836040518082805190602001908083835b602083101515611b4c5780518252602082019150602081019050602083039250611b27565b6001836020036101000a038019825116818451168082178552505050505050905001915050908152602001604051809103902060020182815481101515611b8f57fe5b906000526020600020906005020160020154600560009054906101000a900473ffffffffffffffffffffffffffffffffffffffff1673ffffffffffffffffffffffffffffffffffffffff1663f8b2cb4f336040518263ffffffff167c0100000000000000000000000000000000000000000000000000000000028152600401808273ffffffffffffffffffffffffffffffffffffffff1673ffffffffffffffffffffffffffffffffffffffff168152602001915050602060405180830381600087803b158015611c5e57600080fd5b505af1158015611c72573d6000803e3d6000fd5b505050506040513d6020811015611c8857600080fd5b810190808051906020019092919050505010151515611d0f576040517f08c379a00000000000000000000000000000000000000000000000000000000081526004018080602001828103825260208152602001807f5573657220646f65736e2774206861766520656e6f7567682062616c616e636581525060200191505060405180910390fd5b600a600083815260200190815260200160002060c0604051908101604052803373ffffffffffffffffffffffffffffffffffffffff168152602001848152602001428152602001600115158152602001600015158152602001600115158152509080600181540180825580915050906001820390600052602060002090600402016000909192909190915060008201518160000160006101000a81548173ffffffffffffffffffffffffffffffffffffffff021916908373ffffffffffffffffffffffffffffffffffffffff160217905550602082015181600101556040820151816002015560608201518160030160006101000a81548160ff02191690831515021790555060808201518160030160016101000a81548160ff02191690831515021790555060a08201518160030160026101000a81548160ff021916908315150217905550505050600560009054906101000a900473ffffffffffffffffffffffffffffffffffffffff1673ffffffffffffffffffffffffffffffffffffffff1663250dea06336008866040518082805190602001908083835b602083101515611ecf5780518252602082019150602081019050602083039250611eaa565b6001836020036101000a038019825116818451168082178552505050505050905001915050908152602001604051809103902060020185815481101515611f1257fe5b9060005260206000209060050201600201546000036040518363ffffffff167c0100000000000000000000000000000000000000000000000000000000028152600401808373ffffffffffffffffffffffffffffffffffffffff1673ffffffffffffffffffffffffffffffffffffffff16815260200182815260200192505050602060405180830381600087803b158015611fac57600080fd5b505af1158015611fc0573d6000803e3d6000fd5b505050506040513d6020811015611fd657600080fd5b810190808051906020019092919050505050600560009054906101000a900473ffffffffffffffffffffffffffffffffffffffff1673ffffffffffffffffffffffffffffffffffffffff1663250dea06600760009054906101000a900473ffffffffffffffffffffffffffffffffffffffff166008866040518082805190602001908083835b602083101515612081578051825260208201915060208101905060208303925061205c565b6001836020036101000a0380198251168184511680821785525050505050509050019150509081526020016040518091039020600201858154811015156120c457fe5b9060005260206000209060050201600201546040518363ffffffff167c0100000000000000000000000000000000000000000000000000000000028152600401808373ffffffffffffffffffffffffffffffffffffffff1673ffffffffffffffffffffffffffffffffffffffff16815260200182815260200192505050602060405180830381600087803b15801561215b57600080fd5b505af115801561216f573d6000803e3d6000fd5b505050506040513d602081101561218557600080fd5b8101908080519060200190929190505050507f875b40a67d33b0171b10d7197a7c57cc4a8a03020e69c119753e83c07790640783836008866040518082805190602001908083835b6020831015156121f257805182526020820191506020810190506020830392506121cd565b6001836020036101000a03801982511681845116808217855250505050505090500191505090815260200160405180910390206002018581548110151561223557fe5b90600052602060002090600502016001016008876040518082805190602001908083835b60208310151561227e5780518252602082019150602081019050602083039250612259565b6001836020036101000a0380198251168184511680821785525050505050509050019150509081526020016040518091039020600201868154811015156122c157fe5b9060005260206000209060050201600201546008886040518082805190602001908083835b60208310151561230b57805182526020820191506020810190506020830392506122e6565b6001836020036101000a03801982511681845116808217855250505050505090500191505090815260200160405180910390206002018781548110151561234e57fe5b906000526020600020906005020160030154600160405180806020018781526020018060200186815260200185815260200184151515158152602001838103835289818151815260200191508051906020019080838360005b838110156123c25780820151818401526020810190506123a7565b50505050905090810190601f1680156123ef5780820380516001836020036101000a031916815260200191505b508381038252878181546001816001161561010002031660029004815260200191508054600181600116156101000203166002900480156124715780601f1061244657610100808354040283529160200191612471565b820191906000526020600020905b81548152906001019060200180831161245457829003601f168201915b50509850505050505050505060405180910390a16001905092915050565b600660009054906101000a900473ffffffffffffffffffffffffffffffffffffffff1681565b60003373ffffffffffffffffffffffffffffffffffffffff16600760009054906101000a900473ffffffffffffffffffffffffffffffffffffffff1673ffffffffffffffffffffffffffffffffffffffff1614151561251357600080fd5b81600560009054906101000a900473ffffffffffffffffffffffffffffffffffffffff1673ffffffffffffffffffffffffffffffffffffffff1663f8b2cb4f856040518263ffffffff167c0100000000000000000000000000000000000000000000000000000000028152600401808273ffffffffffffffffffffffffffffffffffffffff1673ffffffffffffffffffffffffffffffffffffffff168152602001915050602060405180830381600087803b1580156125d157600080fd5b505af11580156125e5573d6000803e3d6000fd5b505050506040513d60208110156125fb57600080fd5b81019080805190602001909291905050501015151561261957600080fd5b600560009054906101000a900473ffffffffffffffffffffffffffffffffffffffff1673ffffffffffffffffffffffffffffffffffffffff1663250dea0684846000036040518363ffffffff167c0100000000000000000000000000000000000000000000000000000000028152600401808373ffffffffffffffffffffffffffffffffffffffff1673ffffffffffffffffffffffffffffffffffffffff16815260200182815260200192505050602060405180830381600087803b1580156126e157600080fd5b505af11580156126f5573d6000803e3d6000fd5b505050506040513d602081101561270b57600080fd5b810190808051906020019092919050505050600560009054906101000a900473ffffffffffffffffffffffffffffffffffffffff1673ffffffffffffffffffffffffffffffffffffffff1663250dea0633846040518363ffffffff167c0100000000000000000000000000000000000000000000000000000000028152600401808373ffffffffffffffffffffffffffffffffffffffff1673ffffffffffffffffffffffffffffffffffffffff16815260200182815260200192505050602060405180830381600087803b1580156127e257600080fd5b505af11580156127f6573d6000803e3d6000fd5b505050506040513d602081101561280c57600080fd5b8101908080519060200190929190505050506001905092915050565b600080600115156008866040518082805190602001908083835b6020831015156128675780518252602082019150602081019050602083039250612842565b6001836020036101000a038019825116818451168082178552505050505050905001915050908152602001604051809103902060030160009054906101000a900460ff1615151415156128b957600080fd5b600115156008866040518082805190602001908083835b6020831015156128f557805182526020820191506020810190506020830392506128d0565b6001836020036101000a03801982511681845116808217855250505050505090500191505090815260200160405180910390206001018581548110151561293857fe5b906000526020600020906005020160040160019054906101000a900460ff16151514151561296557600080fd5b600115156008866040518082805190602001908083835b6020831015156129a1578051825260208201915060208101905060208303925061297c565b6001836020036101000a0380198251168184511680821785525050505050509050019150509081526020016040518091039020600101858154811015156129e457fe5b906000526020600020906005020160040160009054906101000a900460ff161515141515612a1157600080fd5b600115156009600086815260200190815260200160002084815481101515612a3557fe5b906000526020600020906004020160030160029054906101000a900460ff161515141515612a6257600080fd5b836009600086815260200190815260200160002084815481101515612a8357fe5b906000526020600020906004020160010154141515612aa157600080fd5b600015156009600086815260200190815260200160002084815481101515612ac557fe5b906000526020600020906004020160030160019054906101000a900460ff161515141515612af257600080fd5b6008856040518082805190602001908083835b602083101515612b2a5780518252602082019150602081019050602083039250612b05565b6001836020036101000a038019825116818451168082178552505050505050905001915050908152602001604051809103902060010184815481101515612b6d57fe5b9060005260206000209060050201600301546009600086815260200190815260200160002084815481101515612b9f57fe5b90600052602060002090600402016002015401420390507fff0f80a21f0b8ffece1482bb76715974416021bd0b68a528dfcd29421cd67dd484846008886040518082805190602001908083835b602083101515612c115780518252602082019150602081019050602083039250612bec565b6001836020036101000a038019825116818451168082178552505050505050905001915050908152602001604051809103902060010187815481101515612c5457fe5b906000526020600020906005020160020154426040518085815260200184815260200183815260200182815260200194505050505060405180910390a160019150509392505050565b60006008836040518082805190602001908083835b602083101515612cd75780518252602082019150602081019050602083039250612cb2565b6001836020036101000a038019825116818451168082178552505050505050905001915050908152602001604051809103902060010182815481101515612d1a57fe5b906000526020600020906005020160040160009054906101000a900460ff16905092915050565b6000600760009054906101000a900473ffffffffffffffffffffffffffffffffffffffff16905090565b6000600115156008846040518082805190602001908083835b602083101515612da95780518252602082019150602081019050602083039250612d84565b6001836020036101000a038019825116818451168082178552505050505050905001915050908152602001604051809103902060030160009054906101000a900460ff161515141515612e8a576040517f08c379a00000000000000000000000000000000000000000000000000000000081526004018080602001828103825260258152602001807f4465766963652073657269616c206e756d626572206973206e6f74206176616981526020017f6c61626c6500000000000000000000000000000000000000000000000000000081525060400191505060405180910390fd5b600115156008846040518082805190602001908083835b602083101515612ec65780518252602082019150602081019050602083039250612ea1565b6001836020036101000a038019825116818451168082178552505050505050905001915050908152602001604051809103902060020183815481101515612f0957fe5b906000526020600020906005020160040160019054906101000a900460ff161515141515612fc5576040517f08c379a00000000000000000000000000000000000000000000000000000000081526004018080602001828103825260218152602001807f44657669636520616374696f6e206964206973206e6f7420617661696c61626c81526020017f650000000000000000000000000000000000000000000000000000000000000081525060400191505060405180910390fd5b600a600083815260200190815260200160002060c0604051908101604052803373ffffffffffffffffffffffffffffffffffffffff168152602001848152602001428152602001600015158152602001600015158152602001600115158152509080600181540180825580915050906001820390600052602060002090600402016000909192909190915060008201518160000160006101000a81548173ffffffffffffffffffffffffffffffffffffffff021916908373ffffffffffffffffffffffffffffffffffffffff160217905550602082015181600101556040820151816002015560608201518160030160006101000a81548160ff02191690831515021790555060808201518160030160016101000a81548160ff02191690831515021790555060a08201518160030160026101000a81548160ff0219169083151502179055505050507f54376985c61133fd74ddfd5be0e7cacfebc5ee2b28b59fff7642086996680be483836008866040518082805190602001908083835b6020831015156131695780518252602082019150602081019050602083039250613144565b6001836020036101000a0380198251168184511680821785525050505050509050019150509081526020016040518091039020600201858154811015156131ac57fe5b90600052602060002090600502016001016008876040518082805190602001908083835b6020831015156131f557805182526020820191506020810190506020830392506131d0565b6001836020036101000a03801982511681845116808217855250505050505090500191505090815260200160405180910390206002018681548110151561323857fe5b9060005260206000209060050201600201546008886040518082805190602001908083835b602083101515613282578051825260208201915060208101905060208303925061325d565b6001836020036101000a0380198251168184511680821785525050505050509050019150509081526020016040518091039020600201878154811015156132c557fe5b906000526020600020906005020160030154600160405180806020018781526020018060200186815260200185815260200184151515158152602001838103835289818151815260200191508051906020019080838360005b8381101561333957808201518184015260208101905061331e565b50505050905090810190601f1680156133665780820380516001836020036101000a031916815260200191505b508381038252878181546001816001161561010002031660029004815260200191508054600181600116156101000203166002900480156133e85780601f106133bd576101008083540402835291602001916133e8565b820191906000526020600020905b8154815290600101906020018083116133cb57829003601f168201915b50509850505050505050505060405180910390a16001905092915050565b60008015156008846040518082805190602001908083835b602083101515613443578051825260208201915060208101905060208303925061341e565b6001836020036101000a038019825116818451168082178552505050505050905001915050908152602001604051809103902060030160009054906101000a900460ff16151514151561349557600080fd5b816008846040518082805190602001908083835b6020831015156134ce57805182526020820191506020810190506020830392506134a9565b6001836020036101000a03801982511681845116808217855250505050505090500191505090815260200160405180910390206000019080519060200190613517929190615913565b5060016008846040518082805190602001908083835b602083101515613552578051825260208201915060208101905060208303925061352d565b6001836020036101000a038019825116818451168082178552505050505050905001915050908152602001604051809103902060030160006101000a81548160ff021916908315150217905550600c8390806001815401808255809150509060018203906000526020600020016000909192909190915090805190602001906135dc929190615913565b5050600d82908060018154018082558091505090600182039060005260206000200160009091929091909150908051906020019061361b929190615913565b50506001905092915050565b6000600115156008876040518082805190602001908083835b6020831015156136655780518252602082019150602081019050602083039250613640565b6001836020036101000a038019825116818451168082178552505050505050905001915050908152602001604051809103902060030160009054906101000a900460ff161515141515613746576040517f08c379a00000000000000000000000000000000000000000000000000000000081526004018080602001828103825260258152602001807f4465766963652073657269616c206e756d626572206973206e6f74206176616981526020017f6c61626c6500000000000000000000000000000000000000000000000000000081525060400191505060405180910390fd5b6008866040518082805190602001908083835b60208310151561377e5780518252602082019150602081019050602083039250613759565b6001836020036101000a038019825116818451168082178552505050505050905001915050908152602001604051809103902060010160c0604051908101604052806008896040518082805190602001908083835b6020831015156137f857805182526020820191506020810190506020830392506137d3565b6001836020036101000a0380198251168184511680821785525050505050509050019150509081526020016040518091039020600101805490508152602001878152602001868152602001858152602001841515815260200160011515815250908060018154018082558091505090600182039060005260206000209060050201600090919290919091506000820151816000015560208201518160010190805190602001906138a9929190615893565b50604082015181600201556060820151816003015560808201518160040160006101000a81548160ff02191690831515021790555060a08201518160040160016101000a81548160ff0219169083151502179055505050507fab7af84a14131a8d124961d4f462f1fb7e82b562aba899a3f28200031563b3e6866008886040518082805190602001908083835b60208310151561395b5780518252602082019150602081019050602083039250613936565b6001836020036101000a038019825116818451168082178552505050505050905001915050908152602001604051809103902060010180549050878787876001604051808060200188815260200180602001878152602001868152602001851515151581526020018415151515815260200183810383528a818151815260200191508051906020019080838360005b83811015613a055780820151818401526020810190506139ea565b50505050905090810190601f168015613a325780820380516001836020036101000a031916815260200191505b50838103825288818151815260200191508051906020019080838360005b83811015613a6b578082015181840152602081019050613a50565b50505050905090810190601f168015613a985780820380516001836020036101000a031916815260200191505b50995050505050505050505060405180910390a16001905095945050505050565b6000600115156008856040518082805190602001908083835b602083101515613af75780518252602082019150602081019050602083039250613ad2565b6001836020036101000a038019825116818451168082178552505050505050905001915050908152602001604051809103902060030160009054906101000a900460ff161515141515613b4957600080fd5b600115156008856040518082805190602001908083835b602083101515613b855780518252602082019150602081019050602083039250613b60565b6001836020036101000a038019825116818451168082178552505050505050905001915050908152602001604051809103902060010184815481101515613bc857fe5b906000526020600020906005020160040160019054906101000a900460ff161515141515613bf557600080fd5b600115156008856040518082805190602001908083835b602083101515613c315780518252602082019150602081019050602083039250613c0c565b6001836020036101000a038019825116818451168082178552505050505050905001915050908152602001604051809103902060010184815481101515613c7457fe5b906000526020600020906005020160040160009054906101000a900460ff161515141515613ca157600080fd5b600115156009600085815260200190815260200160002083815481101515613cc557fe5b906000526020600020906004020160030160029054906101000a900460ff161515141515613cf257600080fd5b826009600085815260200190815260200160002083815481101515613d1357fe5b906000526020600020906004020160010154141515613d3157600080fd5b600015156009600085815260200190815260200160002083815481101515613d5557fe5b906000526020600020906004020160030160019054906101000a900460ff161515141515613d8257600080fd5b7f08962bc8e69e48f301d776a9cbc9ea37df6c12e29b411692176848df7ced36d783836008876040518082805190602001908083835b602083101515613ddd5780518252602082019150602081019050602083039250613db8565b6001836020036101000a038019825116818451168082178552505050505050905001915050908152602001604051809103902060010186815481101515613e2057fe5b906000526020600020906005020160020154426040518085815260200184815260200183815260200182815260200194505050505060405180910390a1600190509392505050565b6000600115156008846040518082805190602001908083835b602083101515613ea65780518252602082019150602081019050602083039250613e81565b6001836020036101000a038019825116818451168082178552505050505050905001915050908152602001604051809103902060030160009054906101000a900460ff161515141515613f87576040517f08c379a00000000000000000000000000000000000000000000000000000000081526004018080602001828103825260258152602001807f4465766963652073657269616c206e756d626572206973206e6f74206176616981526020017f6c61626c6500000000000000000000000000000000000000000000000000000081525060400191505060405180910390fd5b600115156008846040518082805190602001908083835b602083101515613fc35780518252602082019150602081019050602083039250613f9e565b6001836020036101000a03801982511681845116808217855250505050505090500191505090815260200160405180910390206001018381548110151561400657fe5b906000526020600020906005020160040160019054906101000a900460ff1615151415156140c2576040517f08c379a00000000000000000000000000000000000000000000000000000000081526004018080602001828103825260218152602001807f44657669636520616374696f6e206964206973206e6f7420617661696c61626c81526020017f650000000000000000000000000000000000000000000000000000000000000081525060400191505060405180910390fd5b6008836040518082805190602001908083835b6020831015156140fa57805182526020820191506020810190506020830392506140d5565b6001836020036101000a03801982511681845116808217855250505050505090500191505090815260200160405180910390206001018281548110151561413d57fe5b906000526020600020906005020160020154600560009054906101000a900473ffffffffffffffffffffffffffffffffffffffff1673ffffffffffffffffffffffffffffffffffffffff1663f8b2cb4f336040518263ffffffff167c0100000000000000000000000000000000000000000000000000000000028152600401808273ffffffffffffffffffffffffffffffffffffffff1673ffffffffffffffffffffffffffffffffffffffff168152602001915050602060405180830381600087803b15801561420c57600080fd5b505af1158015614220573d6000803e3d6000fd5b505050506040513d602081101561423657600080fd5b8101908080519060200190929190505050101515156142bd576040517f08c379a00000000000000000000000000000000000000000000000000000000081526004018080602001828103825260208152602001807f5573657220646f65736e2774206861766520656e6f7567682062616c616e636581525060200191505060405180910390fd5b6009600083815260200190815260200160002060c0604051908101604052803373ffffffffffffffffffffffffffffffffffffffff168152602001848152602001428152602001600115158152602001600015158152602001600115158152509080600181540180825580915050906001820390600052602060002090600402016000909192909190915060008201518160000160006101000a81548173ffffffffffffffffffffffffffffffffffffffff021916908373ffffffffffffffffffffffffffffffffffffffff160217905550602082015181600101556040820151816002015560608201518160030160006101000a81548160ff02191690831515021790555060808201518160030160016101000a81548160ff02191690831515021790555060a08201518160030160026101000a81548160ff0219169083151502179055505050507f875b40a67d33b0171b10d7197a7c57cc4a8a03020e69c119753e83c07790640783836008866040518082805190602001908083835b602083101515614461578051825260208201915060208101905060208303925061443c565b6001836020036101000a0380198251168184511680821785525050505050509050019150509081526020016040518091039020600101858154811015156144a457fe5b90600052602060002090600502016001016008876040518082805190602001908083835b6020831015156144ed57805182526020820191506020810190506020830392506144c8565b6001836020036101000a03801982511681845116808217855250505050505090500191505090815260200160405180910390206001018681548110151561453057fe5b9060005260206000209060050201600201546008886040518082805190602001908083835b60208310151561457a5780518252602082019150602081019050602083039250614555565b6001836020036101000a0380198251168184511680821785525050505050509050019150509081526020016040518091039020600101878154811015156145bd57fe5b906000526020600020906005020160030154600160405180806020018781526020018060200186815260200185815260200184151515158152602001838103835289818151815260200191508051906020019080838360005b83811015614631578082015181840152602081019050614616565b50505050905090810190601f16801561465e5780820380516001836020036101000a031916815260200191505b508381038252878181546001816001161561010002031660029004815260200191508054600181600116156101000203166002900480156146e05780601f106146b5576101008083540402835291602001916146e0565b820191906000526020600020905b8154815290600101906020018083116146c357829003601f168201915b50509850505050505050505060405180910390a16001905092915050565b6000806000809054906101000a900473ffffffffffffffffffffffffffffffffffffffff1673ffffffffffffffffffffffffffffffffffffffff16148061476e5750600061476c6000809054906101000a900473ffffffffffffffffffffffffffffffffffffffff166153ce565b145b1561477f5761477d60006153d9565b505b6000809054906101000a900473ffffffffffffffffffffffffffffffffffffffff1673ffffffffffffffffffffffffffffffffffffffff166338cc48316040518163ffffffff167c0100000000000000000000000000000000000000000000000000000000028152600401602060405180830381600087803b15801561480457600080fd5b505af1158015614818573d6000803e3d6000fd5b505050506040513d602081101561482e57600080fd5b810190808051906020019092919050505073ffffffffffffffffffffffffffffffffffffffff16600160009054906101000a900473ffffffffffffffffffffffffffffffffffffffff1673ffffffffffffffffffffffffffffffffffffffff16141515614996576000809054906101000a900473ffffffffffffffffffffffffffffffffffffffff1673ffffffffffffffffffffffffffffffffffffffff166338cc48316040518163ffffffff167c0100000000000000000000000000000000000000000000000000000000028152600401602060405180830381600087803b15801561491a57600080fd5b505af115801561492e573d6000803e3d6000fd5b505050506040513d602081101561494457600080fd5b8101908080519060200190929190505050600160006101000a81548173ffffffffffffffffffffffffffffffffffffffff021916908373ffffffffffffffffffffffffffffffffffffffff1602179055505b600160009054906101000a900473ffffffffffffffffffffffffffffffffffffffff1673ffffffffffffffffffffffffffffffffffffffff1663524f3889836040518263ffffffff167c01000000000000000000000000000000000000000000000000000000000281526004018080602001828103825283818151815260200191508051906020019080838360005b83811015614a40578082015181840152602081019050614a25565b50505050905090810190601f168015614a6d5780820380516001836020036101000a031916815260200191505b5092505050602060405180830381600087803b158015614a8c57600080fd5b505af1158015614aa0573d6000803e3d6000fd5b505050506040513d6020811015614ab657600080fd5b81019080805190602001909291905050509050919050565b60008060008060009054906101000a900473ffffffffffffffffffffffffffffffffffffffff1673ffffffffffffffffffffffffffffffffffffffff161480614b4057506000614b3e6000809054906101000a900473ffffffffffffffffffffffffffffffffffffffff166153ce565b145b15614b5157614b4f60006153d9565b505b6000809054906101000a900473ffffffffffffffffffffffffffffffffffffffff1673ffffffffffffffffffffffffffffffffffffffff166338cc48316040518163ffffffff167c0100000000000000000000000000000000000000000000000000000000028152600401602060405180830381600087803b158015614bd657600080fd5b505af1158015614bea573d6000803e3d6000fd5b505050506040513d6020811015614c0057600080fd5b810190808051906020019092919050505073ffffffffffffffffffffffffffffffffffffffff16600160009054906101000a900473ffffffffffffffffffffffffffffffffffffffff1673ffffffffffffffffffffffffffffffffffffffff16141515614d68576000809054906101000a900473ffffffffffffffffffffffffffffffffffffffff1673ffffffffffffffffffffffffffffffffffffffff166338cc48316040518163ffffffff167c0100000000000000000000000000000000000000000000000000000000028152600401602060405180830381600087803b158015614cec57600080fd5b505af1158015614d00573d6000803e3d6000fd5b505050506040513d6020811015614d1657600080fd5b8101908080519060200190929190505050600160006101000a81548173ffffffffffffffffffffffffffffffffffffffff021916908373ffffffffffffffffffffffffffffffffffffffff1602179055505b600160009054906101000a900473ffffffffffffffffffffffffffffffffffffffff1673ffffffffffffffffffffffffffffffffffffffff1663524f3889856040518263ffffffff167c01000000000000000000000000000000000000000000000000000000000281526004018080602001828103825283818151815260200191508051906020019080838360005b83811015614e12578082015181840152602081019050614df7565b50505050905090810190601f168015614e3f5780820380516001836020036101000a031916815260200191505b5092505050602060405180830381600087803b158015614e5e57600080fd5b505af1158015614e72573d6000803e3d6000fd5b505050506040513d6020811015614e8857600080fd5b8101908080519060200190929190505050905062030d403a02670de0b6b3a764000001811115614ebe5760006001029150615068565b600160009054906101000a900473ffffffffffffffffffffffffffffffffffffffff1673ffffffffffffffffffffffffffffffffffffffff1663adf59f99828787876040518563ffffffff167c0100000000000000000000000000000000000000000000000000000000028152600401808481526020018060200180602001838103835285818151815260200191508051906020019080838360005b83811015614f75578082015181840152602081019050614f5a565b50505050905090810190601f168015614fa25780820380516001836020036101000a031916815260200191505b50838103825284818151815260200191508051906020019080838360005b83811015614fdb578082015181840152602081019050614fc0565b50505050905090810190601f1680156150085780820380516001836020036101000a031916815260200191505b50955050505050506020604051808303818588803b15801561502957600080fd5b505af115801561503d573d6000803e3d6000fd5b50505050506040513d602081101561505457600080fd5b810190808051906020019092919050505091505b509392505050565b6000806000809054906101000a900473ffffffffffffffffffffffffffffffffffffffff1673ffffffffffffffffffffffffffffffffffffffff1614806150e0575060006150de6000809054906101000a900473ffffffffffffffffffffffffffffffffffffffff166153ce565b145b156150f1576150ef60006153d9565b505b6000809054906101000a900473ffffffffffffffffffffffffffffffffffffffff1673ffffffffffffffffffffffffffffffffffffffff166338cc48316040518163ffffffff167c0100000000000000000000000000000000000000000000000000000000028152600401602060405180830381600087803b15801561517657600080fd5b505af115801561518a573d6000803e3d6000fd5b505050506040513d60208110156151a057600080fd5b810190808051906020019092919050505073ffffffffffffffffffffffffffffffffffffffff16600160009054906101000a900473ffffffffffffffffffffffffffffffffffffffff1673ffffffffffffffffffffffffffffffffffffffff16141515615308576000809054906101000a900473ffffffffffffffffffffffffffffffffffffffff1673ffffffffffffffffffffffffffffffffffffffff166338cc48316040518163ffffffff167c0100000000000000000000000000000000000000000000000000000000028152600401602060405180830381600087803b15801561528c57600080fd5b505af11580156152a0573d6000803e3d6000fd5b505050506040513d60208110156152b657600080fd5b8101908080519060200190929190505050600160006101000a81548173ffffffffffffffffffffffffffffffffffffffff021916908373ffffffffffffffffffffffffffffffffffffffff1602179055505b600160009054906101000a900473ffffffffffffffffffffffffffffffffffffffff1673ffffffffffffffffffffffffffffffffffffffff1663c281d19e6040518163ffffffff167c0100000000000000000000000000000000000000000000000000000000028152600401602060405180830381600087803b15801561538e57600080fd5b505af11580156153a2573d6000803e3d6000fd5b505050506040513d60208110156153b857600080fd5b8101908080519060200190929190505050905090565b6000813b9050919050565b60006153e36153ea565b9050919050565b60008061540a731d3b2638a7cc9f2cb3d298a3da7a90b67e5506ed6153ce565b11156154ab57731d3b2638a7cc9f2cb3d298a3da7a90b67e5506ed6000806101000a81548173ffffffffffffffffffffffffffffffffffffffff021916908373ffffffffffffffffffffffffffffffffffffffff1602179055506154a26040805190810160405280600b81526020017f6574685f6d61696e6e6574000000000000000000000000000000000000000000815250615879565b60019050615876565b60006154ca73c03a2615d5efaf5f49f60b7bb6583eaec212fdf16153ce565b111561556b5773c03a2615d5efaf5f49f60b7bb6583eaec212fdf16000806101000a81548173ffffffffffffffffffffffffffffffffffffffff021916908373ffffffffffffffffffffffffffffffffffffffff1602179055506155626040805190810160405280600c81526020017f6574685f726f707374656e330000000000000000000000000000000000000000815250615879565b60019050615876565b600061558a73b7a07bcf2ba2f2703b24c0691b5278999c59ac7e6153ce565b111561562b5773b7a07bcf2ba2f2703b24c0691b5278999c59ac7e6000806101000a81548173ffffffffffffffffffffffffffffffffffffffff021916908373ffffffffffffffffffffffffffffffffffffffff1602179055506156226040805190810160405280600981526020017f6574685f6b6f76616e0000000000000000000000000000000000000000000000815250615879565b60019050615876565b600061564a73146500cfd35b22e4a392fe0adc06de1a1368ed486153ce565b11156156eb5773146500cfd35b22e4a392fe0adc06de1a1368ed486000806101000a81548173ffffffffffffffffffffffffffffffffffffffff021916908373ffffffffffffffffffffffffffffffffffffffff1602179055506156e26040805190810160405280600b81526020017f6574685f72696e6b656279000000000000000000000000000000000000000000815250615879565b60019050615876565b600061570a736f485c8bf6fc43ea212e93bbf8ce046c7f1cb4756153ce565b111561576d57736f485c8bf6fc43ea212e93bbf8ce046c7f1cb4756000806101000a81548173ffffffffffffffffffffffffffffffffffffffff021916908373ffffffffffffffffffffffffffffffffffffffff16021790555060019050615876565b600061578c7320e12a1f859b3feae5fb2a0a32c18f5a65555bbf6153ce565b11156157ef577320e12a1f859b3feae5fb2a0a32c18f5a65555bbf6000806101000a81548173ffffffffffffffffffffffffffffffffffffffff021916908373ffffffffffffffffffffffffffffffffffffffff16021790555060019050615876565b600061580e7351efaf4c8b3c9afbd5ab9f4bbc82784ab6ef8faa6153ce565b1115615871577351efaf4c8b3c9afbd5ab9f4bbc82784ab6ef8faa6000806101000a81548173ffffffffffffffffffffffffffffffffffffffff021916908373ffffffffffffffffffffffffffffffffffffffff16021790555060019050615876565b600090505b90565b806002908051906020019061588f929190615913565b5050565b828054600181600116156101000203166002900490600052602060002090601f016020900481019282601f106158d457805160ff1916838001178555615902565b82800160010185558215615902579182015b828111156159015782518255916020019190600101906158e6565b5b50905061590f9190615993565b5090565b828054600181600116156101000203166002900490600052602060002090601f016020900481019282601f1061595457805160ff1916838001178555615982565b82800160010185558215615982579182015b82811115615981578251825591602001919060010190615966565b5b50905061598f9190615993565b5090565b6159b591905b808211156159b1576000816000905550600101615999565b5090565b905600a165627a7a723058202e8da78ece351d5e370ab7ea5781fc296a538f74d4019899809ba3e2d1313d2e0029",
  "source": "pragma solidity ^0.4.24;\n\nimport \"./Rawbot.sol\";\nimport \"./Oraclize.sol\";\n\ncontract Merchant is usingOraclize {\n\n    Rawbot private rawbot;\n    address public rawbot_address = 0x1e3d402d19dd111db15fe00cd5726da452bf5a75;\n    address private merchant_address;\n\n    mapping(string => Device) private devices;\n    mapping(uint256 => ActionHistory[]) private action_history;\n    mapping(uint256 => ActionHistory[]) private recurring_action_history;\n\n    uint256 public RECURRING_PAYMENT_STEP = 0;\n    string[] private device_serial_numbers;\n    string[] private device_names;\n\n    event Refund(uint, uint, uint, uint);\n    event RefundAutomatic(uint, uint, uint, uint);\n\n    event RecurrentRefund(uint, uint, uint, uint);\n    event RecurrentRefundAutomatic(uint, uint, uint, uint);\n\n    event RecurringPaymentLog(string);\n    event ActionAdd(string, uint, string, uint256, uint256, bool, bool);\n    event ActionEnable(string, uint, string, uint256, uint256, bool);\n    event ActionDisable(string, uint, string, uint256, uint256, bool);\n\n    event RecurringActionAdd(string, uint, string, uint256, uint256, bool, bool);\n    event RecurringActionEnable(string, uint, string, uint256, uint256, bool);\n    event RecurringActionDisable(string, uint, string, uint256, uint256, bool);\n\n\n    constructor(address _merchant_address) payable public {\n        merchant_address = _merchant_address;\n        rawbot = Rawbot(rawbot_address);\n    }\n\n    struct Device {\n        string device_name;\n        Action[] device_actions;\n        RecurringAction[] device_recurring_actions;\n        bool available;\n    }\n\n    struct Action {\n        uint256 id;\n        string name;\n        uint256 price;\n        uint256 duration;\n        bool refundable;\n        bool available;\n    }\n\n    struct RecurringAction {\n        uint256 id;\n        string name;\n        uint256 price;\n        uint256 _days;\n        bool refundable;\n        bool available;\n    }\n\n    struct ActionHistory {\n        address user;\n        uint256 id;\n        uint256 time;\n        bool enable;\n        bool refunded;\n        bool available;\n    }\n\n    //\"ABC\", \"Raspberry PI 3\"\n    function addDevice(string device_serial_number, string device_name) public payable returns (bool){\n        //        require(merchant_address == msg.sender, \"Only merchant can add devices.\");\n        require(devices[device_serial_number].available == false);\n        devices[device_serial_number].device_name = device_name;\n        devices[device_serial_number].available = true;\n        device_serial_numbers.push(device_serial_number);\n        device_names.push(device_name);\n        return true;\n    }\n\n    //\"ABC\", \"Open\", 20, 20, true\n    function addAction(string device_serial_number, string action_name, uint256 action_price, uint256 action_duration, bool refundable) public payable returns (bool){\n        //        require(merchant_address == msg.sender);\n        require(devices[device_serial_number].available == true, \"Device serial number is not available\");\n        devices[device_serial_number].device_actions.push(Action(devices[device_serial_number].device_actions.length, action_name, action_price, action_duration, refundable, true));\n        emit ActionAdd(device_serial_number, devices[device_serial_number].device_actions.length, action_name, action_price, action_duration, refundable, true);\n        return true;\n    }\n\n    //\"ABC\", \"Open\", 20, 20, true\n    function addRecurringAction(string device_serial_number, string action_name, uint256 action_price, uint256 _days, bool refundable) public payable returns (bool){\n        //        require(merchant_address == msg.sender);\n        require(devices[device_serial_number].available == true, \"Device serial number is not available\");\n        devices[device_serial_number].device_recurring_actions.push(RecurringAction(devices[device_serial_number].device_recurring_actions.length, action_name, action_price, _days, refundable, true));\n        emit ActionAdd(device_serial_number, devices[device_serial_number].device_recurring_actions.length, action_name, action_price, _days, refundable, true);\n        return true;\n    }\n\n    //\"ABC\", 0\n    function enableAction(string device_serial_number, uint256 action_id) public payable returns (bool success) {\n        require(devices[device_serial_number].available == true, \"Device serial number is not available\");\n        require(devices[device_serial_number].device_actions[action_id].available == true, \"Device action id is not available\");\n        require(rawbot.getBalance(msg.sender) >= devices[device_serial_number].device_actions[action_id].price, \"User doesn't have enough balance\");\n        action_history[action_id].push(ActionHistory(msg.sender, action_id, now, true, false, true));\n        //        rawbot.modifyBalance(msg.sender, - devices[device_serial_number].device_actions[action_id].price);\n        //        rawbot.modifyBalance(merchant_address, devices[device_serial_number].device_actions[action_id].price);\n        emit ActionEnable(device_serial_number, action_id, devices[device_serial_number].device_actions[action_id].name, devices[device_serial_number].device_actions[action_id].price, devices[device_serial_number].device_actions[action_id].duration, true);\n        return true;\n    }\n\n    //\"ABC\", 0\n    function enableRecurringAction(string device_serial_number, uint256 action_id) public payable returns (bool success) {\n        require(devices[device_serial_number].available == true, \"Device serial number is not available\");\n        require(devices[device_serial_number].device_recurring_actions[action_id].available == true, \"Device action id is not available\");\n        require(rawbot.getBalance(msg.sender) >= devices[device_serial_number].device_recurring_actions[action_id].price, \"User doesn't have enough balance\");\n        recurring_action_history[action_id].push(ActionHistory(msg.sender, action_id, now, true, false, true));\n        rawbot.modifyBalance(msg.sender, - devices[device_serial_number].device_recurring_actions[action_id].price);\n        rawbot.modifyBalance(merchant_address, devices[device_serial_number].device_recurring_actions[action_id].price);\n        emit ActionEnable(device_serial_number, action_id, devices[device_serial_number].device_recurring_actions[action_id].name, devices[device_serial_number].device_recurring_actions[action_id].price, devices[device_serial_number].device_recurring_actions[action_id]._days, true);\n        return true;\n    }\n\n    //\"ABC\", 0\n    function disableAction(string device_serial_number, uint256 action_id) public payable returns (bool success) {\n        require(devices[device_serial_number].available == true, \"Device serial number is not available\");\n        require(devices[device_serial_number].device_actions[action_id].available == true, \"Device action id is not available\");\n        action_history[action_id].push(ActionHistory(msg.sender, action_id, now, false, false, true));\n        emit ActionDisable(device_serial_number, action_id, devices[device_serial_number].device_actions[action_id].name, devices[device_serial_number].device_actions[action_id].price, devices[device_serial_number].device_actions[action_id].duration, true);\n        return true;\n    }\n\n    //\"ABC\", 0\n    function disableRecurringAction(string device_serial_number, uint256 action_id) public payable returns (bool success) {\n        require(devices[device_serial_number].available == true, \"Device serial number is not available\");\n        require(devices[device_serial_number].device_recurring_actions[action_id].available == true, \"Device action id is not available\");\n        recurring_action_history[action_id].push(ActionHistory(msg.sender, action_id, now, false, false, true));\n        emit ActionDisable(device_serial_number, action_id, devices[device_serial_number].device_recurring_actions[action_id].name, devices[device_serial_number].device_recurring_actions[action_id].price, devices[device_serial_number].device_recurring_actions[action_id]._days, true);\n        return true;\n    }\n\n    //\"ABC\", 0, 0\n    function refund(string device_serial_number, uint256 action_id, uint _action_history_id) payable public returns (bool) {\n        //        require(msg.sender == merchant_address);\n        require(devices[device_serial_number].available == true);\n        require(devices[device_serial_number].device_actions[action_id].available == true);\n        require(devices[device_serial_number].device_actions[action_id].refundable == true);\n        require(action_history[action_id][_action_history_id].available == true);\n        require(action_history[action_id][_action_history_id].id == action_id);\n        require(action_history[action_id][_action_history_id].refunded == false);\n        //        rawbot.modifyBalance(msg.sender, devices[device_serial_number].device_actions[action_id].price);\n        emit Refund(action_id, _action_history_id, devices[device_serial_number].device_actions[action_id].price, now);\n        return true;\n    }\n\n    //\"ABC\", 0, 0\n    function refundAutomatic(string device_serial_number, uint256 action_id, uint256 _action_history_id) payable public returns (bool success) {\n        require(devices[device_serial_number].available == true);\n        require(devices[device_serial_number].device_actions[action_id].available == true);\n        require(devices[device_serial_number].device_actions[action_id].refundable == true);\n        require(action_history[action_id][_action_history_id].available == true);\n        require(action_history[action_id][_action_history_id].id == action_id);\n        require(action_history[action_id][_action_history_id].refunded == false);\n                uint256 time_passed = now - (action_history[action_id][_action_history_id].time + devices[device_serial_number].device_actions[action_id].duration);\n        //        require(time_passed < 0);\n        emit RefundAutomatic(action_id, _action_history_id, devices[device_serial_number].device_actions[action_id].price, now);\n        return true;\n    }\n\n    function getActionPrice(string device_serial_number, uint256 action_id) public view returns (uint) {\n        return devices[device_serial_number].device_actions[action_id].price;\n    }\n\n    function isRefundable(string device_serial_number, uint256 action_id) public view returns (bool) {\n        return devices[device_serial_number].device_actions[action_id].refundable;\n    }\n\n    function getMerchantAddress() public view returns (address) {\n        return merchant_address;\n    }\n\n    function withdrawFromDevice(address device_address, uint256 value) public payable returns (bool success) {\n        require(merchant_address == msg.sender);\n        require(rawbot.getBalance(device_address) >= value);\n        rawbot.modifyBalance(device_address, - value);\n        rawbot.modifyBalance(msg.sender, value);\n        return true;\n    }\n\n    function getUserBalance(address _address) public view returns (uint256){\n        return rawbot.getBalance(_address);\n    }\n\n    function recurringPayments(uint256 _days) public payable {\n        if (oraclize_getPrice(\"URL\") > address(this).balance) {\n        } else {\n            oraclize_query(_days * 60 * 60 * 24, \"URL\", \"\");\n            RECURRING_PAYMENT_STEP = 1;\n        }\n    }\n\n    function __callback(bytes32 myid, string result) {\n        if (msg.sender != oraclize_cbAddress()) revert();\n        emit RecurringPaymentLog(\"Recurring payment callback.\");\n        RECURRING_PAYMENT_STEP = 2;\n    }\n}",
  "sourcePath": "/Users/hassanjawhar/Desktop/Workspace/rawbot/contracts/Merchant.sol",
  "compiler": {
    "name": "solc",
    "version": "0.4.24+commit.e67f0147.Emscripten.clang"
  },
  "schemaVersion": "2.0.0",
  "updatedAt": "2018-08-09T08:47:47.809Z"
}