{
  "contractName": "Rawbot",
  "abi": [
    {
      "constant": true,
      "inputs": [],
      "name": "price_status",
      "outputs": [
        {
          "name": "",
          "type": "uint8"
        }
      ],
      "payable": false,
      "stateMutability": "view",
      "type": "function"
    },
    {
      "constant": true,
      "inputs": [],
      "name": "name",
      "outputs": [
        {
          "name": "",
          "type": "string"
        }
      ],
      "payable": false,
      "stateMutability": "view",
      "type": "function"
    },
    {
      "constant": false,
      "inputs": [
        {
          "name": "_spender",
          "type": "address"
        },
        {
          "name": "_value",
          "type": "uint256"
        }
      ],
      "name": "approve",
      "outputs": [
        {
          "name": "success",
          "type": "bool"
        }
      ],
      "payable": false,
      "stateMutability": "nonpayable",
      "type": "function"
    },
    {
      "constant": true,
      "inputs": [],
      "name": "totalSupply",
      "outputs": [
        {
          "name": "",
          "type": "uint256"
        }
      ],
      "payable": false,
      "stateMutability": "view",
      "type": "function"
    },
    {
      "constant": false,
      "inputs": [
        {
          "name": "_from",
          "type": "address"
        },
        {
          "name": "_to",
          "type": "address"
        },
        {
          "name": "_value",
          "type": "uint256"
        }
      ],
      "name": "transferFrom",
      "outputs": [
        {
          "name": "success",
          "type": "bool"
        }
      ],
      "payable": false,
      "stateMutability": "nonpayable",
      "type": "function"
    },
    {
      "constant": true,
      "inputs": [
        {
          "name": "",
          "type": "uint256"
        }
      ],
      "name": "device_serial_numbers",
      "outputs": [
        {
          "name": "",
          "type": "string"
        }
      ],
      "payable": false,
      "stateMutability": "view",
      "type": "function"
    },
    {
      "constant": true,
      "inputs": [],
      "name": "decimals",
      "outputs": [
        {
          "name": "",
          "type": "uint8"
        }
      ],
      "payable": false,
      "stateMutability": "view",
      "type": "function"
    },
    {
      "constant": false,
      "inputs": [
        {
          "name": "_value",
          "type": "uint256"
        }
      ],
      "name": "burn",
      "outputs": [
        {
          "name": "success",
          "type": "bool"
        }
      ],
      "payable": false,
      "stateMutability": "nonpayable",
      "type": "function"
    },
    {
      "constant": true,
      "inputs": [],
      "name": "last_price_update",
      "outputs": [
        {
          "name": "",
          "type": "uint256"
        }
      ],
      "payable": false,
      "stateMutability": "view",
      "type": "function"
    },
    {
      "constant": true,
      "inputs": [
        {
          "name": "",
          "type": "address"
        },
        {
          "name": "",
          "type": "uint256"
        }
      ],
      "name": "actionsHistoryOf",
      "outputs": [
        {
          "name": "action_id",
          "type": "uint256"
        },
        {
          "name": "action_name",
          "type": "string"
        },
        {
          "name": "action_price",
          "type": "uint256"
        },
        {
          "name": "action_duration",
          "type": "uint256"
        },
        {
          "name": "device_serial_number",
          "type": "string"
        },
        {
          "name": "device_name",
          "type": "string"
        },
        {
          "name": "user",
          "type": "address"
        },
        {
          "name": "device_address",
          "type": "address"
        },
        {
          "name": "time",
          "type": "uint256"
        }
      ],
      "payable": false,
      "stateMutability": "view",
      "type": "function"
    },
    {
      "constant": true,
      "inputs": [
        {
          "name": "",
          "type": "address"
        }
      ],
      "name": "balanceOf",
      "outputs": [
        {
          "name": "",
          "type": "uint256"
        }
      ],
      "payable": false,
      "stateMutability": "view",
      "type": "function"
    },
    {
      "constant": false,
      "inputs": [
        {
          "name": "_from",
          "type": "address"
        },
        {
          "name": "_value",
          "type": "uint256"
        }
      ],
      "name": "burnFrom",
      "outputs": [
        {
          "name": "success",
          "type": "bool"
        }
      ],
      "payable": false,
      "stateMutability": "nonpayable",
      "type": "function"
    },
    {
      "constant": true,
      "inputs": [
        {
          "name": "",
          "type": "uint256"
        }
      ],
      "name": "action_ids",
      "outputs": [
        {
          "name": "",
          "type": "uint256"
        }
      ],
      "payable": false,
      "stateMutability": "view",
      "type": "function"
    },
    {
      "constant": true,
      "inputs": [],
      "name": "ETH_PRICE",
      "outputs": [
        {
          "name": "",
          "type": "uint256"
        }
      ],
      "payable": false,
      "stateMutability": "view",
      "type": "function"
    },
    {
      "constant": true,
      "inputs": [],
      "name": "owner",
      "outputs": [
        {
          "name": "",
          "type": "address"
        }
      ],
      "payable": false,
      "stateMutability": "view",
      "type": "function"
    },
    {
      "constant": true,
      "inputs": [],
      "name": "symbol",
      "outputs": [
        {
          "name": "",
          "type": "string"
        }
      ],
      "payable": false,
      "stateMutability": "view",
      "type": "function"
    },
    {
      "constant": true,
      "inputs": [],
      "name": "initSupply",
      "outputs": [
        {
          "name": "",
          "type": "uint256"
        }
      ],
      "payable": false,
      "stateMutability": "view",
      "type": "function"
    },
    {
      "constant": true,
      "inputs": [
        {
          "name": "",
          "type": "address"
        }
      ],
      "name": "exchangeOf",
      "outputs": [
        {
          "name": "raw_amount",
          "type": "uint256"
        },
        {
          "name": "available",
          "type": "bool"
        }
      ],
      "payable": false,
      "stateMutability": "view",
      "type": "function"
    },
    {
      "constant": true,
      "inputs": [
        {
          "name": "",
          "type": "address"
        },
        {
          "name": "",
          "type": "uint256"
        }
      ],
      "name": "exchangeHistoryOf",
      "outputs": [
        {
          "name": "raw_amount",
          "type": "uint256"
        },
        {
          "name": "raw_exchange",
          "type": "uint256"
        },
        {
          "name": "eth_received",
          "type": "uint256"
        },
        {
          "name": "eth_price",
          "type": "uint256"
        },
        {
          "name": "time_ms",
          "type": "uint256"
        },
        {
          "name": "available",
          "type": "bool"
        }
      ],
      "payable": false,
      "stateMutability": "view",
      "type": "function"
    },
    {
      "constant": false,
      "inputs": [
        {
          "name": "_to",
          "type": "address"
        },
        {
          "name": "_value",
          "type": "uint256"
        }
      ],
      "name": "transfer",
      "outputs": [
        {
          "name": "success",
          "type": "bool"
        }
      ],
      "payable": false,
      "stateMutability": "nonpayable",
      "type": "function"
    },
    {
      "constant": true,
      "inputs": [
        {
          "name": "",
          "type": "uint256"
        }
      ],
      "name": "pending",
      "outputs": [
        {
          "name": "_address",
          "type": "address"
        },
        {
          "name": "_value",
          "type": "uint256"
        }
      ],
      "payable": false,
      "stateMutability": "view",
      "type": "function"
    },
    {
      "constant": true,
      "inputs": [
        {
          "name": "",
          "type": "address"
        }
      ],
      "name": "frozenAccount",
      "outputs": [
        {
          "name": "",
          "type": "bool"
        }
      ],
      "payable": false,
      "stateMutability": "view",
      "type": "function"
    },
    {
      "constant": true,
      "inputs": [
        {
          "name": "",
          "type": "uint256"
        }
      ],
      "name": "exchange_addresses",
      "outputs": [
        {
          "name": "",
          "type": "address"
        }
      ],
      "payable": false,
      "stateMutability": "view",
      "type": "function"
    },
    {
      "constant": false,
      "inputs": [
        {
          "name": "_spender",
          "type": "address"
        },
        {
          "name": "_value",
          "type": "uint256"
        },
        {
          "name": "_extraData",
          "type": "bytes"
        }
      ],
      "name": "approveAndCall",
      "outputs": [
        {
          "name": "success",
          "type": "bool"
        }
      ],
      "payable": false,
      "stateMutability": "nonpayable",
      "type": "function"
    },
    {
      "constant": true,
      "inputs": [
        {
          "name": "",
          "type": "address"
        },
        {
          "name": "",
          "type": "address"
        }
      ],
      "name": "allowance",
      "outputs": [
        {
          "name": "",
          "type": "uint256"
        }
      ],
      "payable": false,
      "stateMutability": "view",
      "type": "function"
    },
    {
      "constant": true,
      "inputs": [],
      "name": "oraclize_fee",
      "outputs": [
        {
          "name": "",
          "type": "uint256"
        }
      ],
      "payable": false,
      "stateMutability": "view",
      "type": "function"
    },
    {
      "constant": false,
      "inputs": [
        {
          "name": "newOwner",
          "type": "address"
        }
      ],
      "name": "transferOwnership",
      "outputs": [],
      "payable": false,
      "stateMutability": "nonpayable",
      "type": "function"
    },
    {
      "inputs": [],
      "payable": true,
      "stateMutability": "payable",
      "type": "constructor"
    },
    {
      "payable": true,
      "stateMutability": "payable",
      "type": "fallback"
    },
    {
      "anonymous": false,
      "inputs": [
        {
          "indexed": false,
          "name": "nextStep",
          "type": "string"
        }
      ],
      "name": "LogConstructorInitiated",
      "type": "event"
    },
    {
      "anonymous": false,
      "inputs": [
        {
          "indexed": false,
          "name": "price",
          "type": "uint256"
        }
      ],
      "name": "LogPriceUpdated",
      "type": "event"
    },
    {
      "anonymous": false,
      "inputs": [
        {
          "indexed": false,
          "name": "description",
          "type": "string"
        }
      ],
      "name": "LogNewOraclizeQuery",
      "type": "event"
    },
    {
      "anonymous": false,
      "inputs": [
        {
          "indexed": false,
          "name": "_error_message",
          "type": "string"
        }
      ],
      "name": "SendErrorMessage",
      "type": "event"
    },
    {
      "anonymous": false,
      "inputs": [
        {
          "indexed": false,
          "name": "",
          "type": "address"
        },
        {
          "indexed": false,
          "name": "",
          "type": "string"
        },
        {
          "indexed": false,
          "name": "",
          "type": "string"
        },
        {
          "indexed": false,
          "name": "",
          "type": "bool"
        }
      ],
      "name": "AddDevice",
      "type": "event"
    },
    {
      "anonymous": false,
      "inputs": [
        {
          "indexed": false,
          "name": "target",
          "type": "address"
        },
        {
          "indexed": false,
          "name": "frozen",
          "type": "bool"
        }
      ],
      "name": "FrozenFunds",
      "type": "event"
    },
    {
      "anonymous": false,
      "inputs": [
        {
          "indexed": false,
          "name": "_method",
          "type": "string"
        },
        {
          "indexed": false,
          "name": "_address",
          "type": "address"
        },
        {
          "indexed": false,
          "name": "amount",
          "type": "uint256"
        }
      ],
      "name": "ExchangeEvent",
      "type": "event"
    },
    {
      "anonymous": false,
      "inputs": [
        {
          "indexed": false,
          "name": "",
          "type": "string"
        },
        {
          "indexed": false,
          "name": "",
          "type": "string"
        },
        {
          "indexed": false,
          "name": "",
          "type": "uint256"
        },
        {
          "indexed": false,
          "name": "",
          "type": "string"
        },
        {
          "indexed": false,
          "name": "",
          "type": "uint256"
        },
        {
          "indexed": false,
          "name": "",
          "type": "uint256"
        },
        {
          "indexed": false,
          "name": "",
          "type": "bool"
        }
      ],
      "name": "ActionEvent",
      "type": "event"
    },
    {
      "anonymous": false,
      "inputs": [
        {
          "indexed": true,
          "name": "from",
          "type": "address"
        },
        {
          "indexed": true,
          "name": "to",
          "type": "address"
        },
        {
          "indexed": false,
          "name": "value",
          "type": "uint256"
        }
      ],
      "name": "Transfer",
      "type": "event"
    },
    {
      "anonymous": false,
      "inputs": [
        {
          "indexed": true,
          "name": "tokenOwner",
          "type": "address"
        },
        {
          "indexed": true,
          "name": "spender",
          "type": "address"
        },
        {
          "indexed": false,
          "name": "tokens",
          "type": "uint256"
        }
      ],
      "name": "Approval",
      "type": "event"
    },
    {
      "anonymous": false,
      "inputs": [
        {
          "indexed": true,
          "name": "from",
          "type": "address"
        },
        {
          "indexed": false,
          "name": "value",
          "type": "uint256"
        }
      ],
      "name": "Burn",
      "type": "event"
    },
    {
      "constant": false,
      "inputs": [
        {
          "name": "target",
          "type": "address"
        },
        {
          "name": "mintedAmount",
          "type": "uint256"
        }
      ],
      "name": "mintToken",
      "outputs": [],
      "payable": false,
      "stateMutability": "nonpayable",
      "type": "function"
    },
    {
      "constant": false,
      "inputs": [
        {
          "name": "target",
          "type": "address"
        },
        {
          "name": "freeze",
          "type": "bool"
        }
      ],
      "name": "freezeAccount",
      "outputs": [],
      "payable": false,
      "stateMutability": "nonpayable",
      "type": "function"
    },
    {
      "constant": false,
      "inputs": [],
      "name": "increaseSupply",
      "outputs": [],
      "payable": false,
      "stateMutability": "nonpayable",
      "type": "function"
    },
    {
      "constant": true,
      "inputs": [],
      "name": "getCurrentSupply",
      "outputs": [
        {
          "name": "",
          "type": "uint256"
        }
      ],
      "payable": false,
      "stateMutability": "view",
      "type": "function"
    },
    {
      "constant": false,
      "inputs": [
        {
          "name": "value",
          "type": "uint256"
        }
      ],
      "name": "withdraw",
      "outputs": [
        {
          "name": "success",
          "type": "bool"
        }
      ],
      "payable": false,
      "stateMutability": "nonpayable",
      "type": "function"
    },
    {
      "constant": false,
      "inputs": [],
      "name": "TestPayable",
      "outputs": [],
      "payable": true,
      "stateMutability": "payable",
      "type": "function"
    },
    {
      "constant": false,
      "inputs": [],
      "name": "ExecuteAllExchanges",
      "outputs": [],
      "payable": true,
      "stateMutability": "payable",
      "type": "function"
    },
    {
      "constant": false,
      "inputs": [
        {
          "name": "_address",
          "type": "address"
        },
        {
          "name": "_value",
          "type": "uint256"
        }
      ],
      "name": "AddPendingExchange",
      "outputs": [],
      "payable": false,
      "stateMutability": "nonpayable",
      "type": "function"
    },
    {
      "constant": true,
      "inputs": [
        {
          "name": "_address",
          "type": "address"
        }
      ],
      "name": "getBalance",
      "outputs": [
        {
          "name": "",
          "type": "uint256"
        }
      ],
      "payable": false,
      "stateMutability": "view",
      "type": "function"
    },
    {
      "constant": true,
      "inputs": [],
      "name": "getContractBalance",
      "outputs": [
        {
          "name": "",
          "type": "uint256"
        }
      ],
      "payable": false,
      "stateMutability": "view",
      "type": "function"
    },
    {
      "constant": false,
      "inputs": [
        {
          "name": "_address",
          "type": "address"
        },
        {
          "name": "_raw_amount",
          "type": "uint256"
        },
        {
          "name": "_eth_received",
          "type": "uint256"
        },
        {
          "name": "_eth_price",
          "type": "uint256"
        },
        {
          "name": "_time_ms",
          "type": "uint256"
        }
      ],
      "name": "addExchangeHistory",
      "outputs": [
        {
          "name": "",
          "type": "bool"
        }
      ],
      "payable": false,
      "stateMutability": "nonpayable",
      "type": "function"
    },
    {
      "constant": false,
      "inputs": [
        {
          "name": "_address",
          "type": "address"
        },
        {
          "name": "_device_serial_number",
          "type": "string"
        },
        {
          "name": "_device_name",
          "type": "string"
        }
      ],
      "name": "addDevice",
      "outputs": [
        {
          "name": "success",
          "type": "bool"
        }
      ],
      "payable": false,
      "stateMutability": "nonpayable",
      "type": "function"
    },
    {
      "constant": false,
      "inputs": [
        {
          "name": "_device_serial_number",
          "type": "string"
        },
        {
          "name": "_action_id",
          "type": "uint256"
        },
        {
          "name": "_action_name",
          "type": "string"
        },
        {
          "name": "_action_price",
          "type": "uint256"
        },
        {
          "name": "_action_duration",
          "type": "uint256"
        }
      ],
      "name": "addAction",
      "outputs": [
        {
          "name": "success",
          "type": "bool"
        }
      ],
      "payable": false,
      "stateMutability": "nonpayable",
      "type": "function"
    },
    {
      "constant": false,
      "inputs": [
        {
          "name": "_device_serial_number",
          "type": "string"
        },
        {
          "name": "_action_id",
          "type": "uint256"
        }
      ],
      "name": "enableAction",
      "outputs": [
        {
          "name": "success",
          "type": "bool"
        }
      ],
      "payable": true,
      "stateMutability": "payable",
      "type": "function"
    },
    {
      "constant": false,
      "inputs": [
        {
          "name": "_device_serial_number",
          "type": "string"
        },
        {
          "name": "_action_id",
          "type": "uint256"
        }
      ],
      "name": "disableAction",
      "outputs": [
        {
          "name": "success",
          "type": "bool"
        }
      ],
      "payable": false,
      "stateMutability": "nonpayable",
      "type": "function"
    },
    {
      "constant": true,
      "inputs": [
        {
          "name": "_device_serial_number",
          "type": "string"
        }
      ],
      "name": "getDevice",
      "outputs": [
        {
          "name": "",
          "type": "string"
        },
        {
          "name": "",
          "type": "string"
        },
        {
          "name": "",
          "type": "uint256"
        },
        {
          "name": "",
          "type": "address"
        }
      ],
      "payable": false,
      "stateMutability": "view",
      "type": "function"
    },
    {
      "constant": true,
      "inputs": [
        {
          "name": "_device_serial_number",
          "type": "string"
        },
        {
          "name": "_action_id",
          "type": "uint256"
        }
      ],
      "name": "getDeviceAction",
      "outputs": [
        {
          "name": "",
          "type": "uint256"
        },
        {
          "name": "",
          "type": "string"
        },
        {
          "name": "",
          "type": "uint256"
        },
        {
          "name": "",
          "type": "uint256"
        },
        {
          "name": "",
          "type": "bool"
        }
      ],
      "payable": false,
      "stateMutability": "view",
      "type": "function"
    },
    {
      "constant": true,
      "inputs": [],
      "name": "getDevicesAndActions",
      "outputs": [
        {
          "name": "",
          "type": "uint256"
        },
        {
          "name": "",
          "type": "uint256"
        }
      ],
      "payable": false,
      "stateMutability": "view",
      "type": "function"
    },
    {
      "constant": true,
      "inputs": [
        {
          "name": "_address",
          "type": "address"
        }
      ],
      "name": "getExchangesOf",
      "outputs": [
        {
          "name": "",
          "type": "uint256"
        }
      ],
      "payable": false,
      "stateMutability": "view",
      "type": "function"
    },
    {
      "constant": true,
      "inputs": [],
      "name": "getAddresses",
      "outputs": [
        {
          "name": "",
          "type": "address[]"
        }
      ],
      "payable": false,
      "stateMutability": "view",
      "type": "function"
    },
    {
      "constant": true,
      "inputs": [],
      "name": "getEthereumPrice",
      "outputs": [
        {
          "name": "",
          "type": "uint256"
        }
      ],
      "payable": false,
      "stateMutability": "view",
      "type": "function"
    }
  ],
  "bytecode": "0x60806040526012600360006101000a81548160ff021916908360ff1602179055506101f46009556000600c5560006017556301312d006040805190810160405280600f81526020017f52617762307420546573743939393900000000000000000000000000000000008152506040805190810160405280600381526020017f5257540000000000000000000000000000000000000000000000000000000000815250336000806101000a81548173ffffffffffffffffffffffffffffffffffffffff021916908373ffffffffffffffffffffffffffffffffffffffff160217905550600360009054906101000a900460ff1660ff16600a0a8302600481905550600360009054906101000a900460ff1660ff16600a0a83026005819055508160019080519060200190620001359291906200017d565b5080600290805190602001906200014e9291906200017d565b505050506000601060006101000a81548160ff021916908360028111156200017257fe5b02179055506200022c565b828054600181600116156101000203166002900490600052602060002090601f016020900481019282601f10620001c057805160ff1916838001178555620001f1565b82800160010185558215620001f1579182015b82811115620001f0578251825591602001919060010190620001d3565b5b50905062000200919062000204565b5090565b6200022991905b80821115620002255760008160009055506001016200020b565b5090565b90565b6154cf806200023c6000396000f300608060405260043610610246576000357c0100000000000000000000000000000000000000000000000000000000900463ffffffff168063013abe8f1461025a57806306fdde03146102935780630892354514610323578063095ea7b3146103a657806318160ddd1461040b5780631c27df081461043657806323b872dd146104405780632e1a7d4d146104c55780632f5da3471461050a578063313ce567146105b05780633a9146dc146105e157806342966c68146106c6578063470a9f841461070b57806347da0a98146107365780634f3e1efc146107c157806350028424146107ec57806350c729cf14610a0c57806365159bdc14610a595780636f9fb98a14610b4057806370a0823114610b6b57806379c6506814610bc257806379cc679014610c0f5780637ef7416e14610c745780638832bc2914610cb55780638da5cb5b14610ce057806395d89b4114610d3757806397d63f9314610dc75780639822f97014610df25780639bddd05f14610e545780639f9b957514610e7f578063a39fac1214610f07578063a3a7055114610f73578063a9059cbb14610f7d578063af6e623814610fe2578063b2d3983214611056578063b414d4b6146110ad578063b71a034614611108578063c10d416d14611290578063c69c8116146112fd578063c6b107e51461132f578063cae9ca511461143b578063d1965080146114e6578063dd62ed3e146114fd578063defc309814611574578063e724529c146115f2578063edce3c5014611641578063f2fde38b1461166c578063f8b2cb4f146116af575b6102503334611706565b610258611811565b005b34801561026657600080fd5b5061026f61198f565b6040518082600281111561027f57fe5b60ff16815260200191505060405180910390f35b34801561029f57600080fd5b506102a86119a2565b6040518080602001828103825283818151815260200191508051906020019080838360005b838110156102e85780820151818401526020810190506102cd565b50505050905090810190601f1680156103155780820380516001836020036101000a031916815260200191505b509250505060405180910390f35b34801561032f57600080fd5b5061038c600480360381019080803573ffffffffffffffffffffffffffffffffffffffff16906020019092919080359060200190929190803590602001909291908035906020019092919080359060200190929190505050611a40565b604051808215151515815260200191505060405180910390f35b3480156103b257600080fd5b506103f1600480360381019080803573ffffffffffffffffffffffffffffffffffffffff16906020019092919080359060200190929190505050611c03565b604051808215151515815260200191505060405180910390f35b34801561041757600080fd5b50610420611c90565b6040518082815260200191505060405180910390f35b61043e611c96565b005b34801561044c57600080fd5b506104ab600480360381019080803573ffffffffffffffffffffffffffffffffffffffff169060200190929190803573ffffffffffffffffffffffffffffffffffffffff16906020019092919080359060200190929190505050611dec565b604051808215151515815260200191505060405180910390f35b3480156104d157600080fd5b506104f060048036038101908080359060200190929190505050611f19565b604051808215151515815260200191505060405180910390f35b34801561051657600080fd5b50610535600480360381019080803590602001909291905050506121fa565b6040518080602001828103825283818151815260200191508051906020019080838360005b8381101561057557808201518184015260208101905061055a565b50505050905090810190601f1680156105a25780820380516001836020036101000a031916815260200191505b509250505060405180910390f35b3480156105bc57600080fd5b506105c56122b5565b604051808260ff1660ff16815260200191505060405180910390f35b3480156105ed57600080fd5b506106ac600480360381019080803590602001908201803590602001908080601f016020809104026020016040519081016040528093929190818152602001838380828437820191505050505050919291929080359060200190929190803590602001908201803590602001908080601f016020809104026020016040519081016040528093929190818152602001838380828437820191505050505050919291929080359060200190929190803590602001909291905050506122c8565b604051808215151515815260200191505060405180910390f35b3480156106d257600080fd5b506106f1600480360381019080803590602001909291905050506126a2565b604051808215151515815260200191505060405180910390f35b34801561071757600080fd5b506107206127a6565b6040518082815260200191505060405180910390f35b34801561074257600080fd5b506107a7600480360381019080803590602001908201803590602001908080601f0160208091040260200160405190810160405280939291908181526020018383808284378201915050505050509192919290803590602001909291905050506127ac565b604051808215151515815260200191505060405180910390f35b3480156107cd57600080fd5b506107d66130e0565b6040518082815260200191505060405180910390f35b3480156107f857600080fd5b50610837600480360381019080803573ffffffffffffffffffffffffffffffffffffffff169060200190929190803590602001909291905050506130ea565b604051808a81526020018060200189815260200188815260200180602001806020018773ffffffffffffffffffffffffffffffffffffffff1673ffffffffffffffffffffffffffffffffffffffff1681526020018673ffffffffffffffffffffffffffffffffffffffff1673ffffffffffffffffffffffffffffffffffffffff16815260200185815260200184810384528c818151815260200191508051906020019080838360005b838110156108fb5780820151818401526020810190506108e0565b50505050905090810190601f1680156109285780820380516001836020036101000a031916815260200191505b50848103835289818151815260200191508051906020019080838360005b83811015610961578082015181840152602081019050610946565b50505050905090810190601f16801561098e5780820380516001836020036101000a031916815260200191505b50848103825288818151815260200191508051906020019080838360005b838110156109c75780820151818401526020810190506109ac565b50505050905090810190601f1680156109f45780820380516001836020036101000a031916815260200191505b509c5050505050505050505050505060405180910390f35b348015610a1857600080fd5b50610a57600480360381019080803573ffffffffffffffffffffffffffffffffffffffff16906020019092919080359060200190929190505050611706565b005b348015610a6557600080fd5b50610b26600480360381019080803573ffffffffffffffffffffffffffffffffffffffff169060200190929190803590602001908201803590602001908080601f0160208091040260200160405190810160405280939291908181526020018383808284378201915050505050509192919290803590602001908201803590602001908080601f016020809104026020016040519081016040528093929190818152602001838380828437820191505050505050919291929050505061335c565b604051808215151515815260200191505060405180910390f35b348015610b4c57600080fd5b50610b5561376c565b6040518082815260200191505060405180910390f35b348015610b7757600080fd5b50610bac600480360381019080803573ffffffffffffffffffffffffffffffffffffffff16906020019092919050505061378b565b6040518082815260200191505060405180910390f35b348015610bce57600080fd5b50610c0d600480360381019080803573ffffffffffffffffffffffffffffffffffffffff169060200190929190803590602001909291905050506137a3565b005b348015610c1b57600080fd5b50610c5a600480360381019080803573ffffffffffffffffffffffffffffffffffffffff16906020019092919080359060200190929190505050613914565b604051808215151515815260200191505060405180910390f35b348015610c8057600080fd5b50610c9f60048036038101908080359060200190929190505050613b2e565b6040518082815260200191505060405180910390f35b348015610cc157600080fd5b50610cca613b51565b6040518082815260200191505060405180910390f35b348015610cec57600080fd5b50610cf5613b57565b604051808273ffffffffffffffffffffffffffffffffffffffff1673ffffffffffffffffffffffffffffffffffffffff16815260200191505060405180910390f35b348015610d4357600080fd5b50610d4c613b7c565b6040518080602001828103825283818151815260200191508051906020019080838360005b83811015610d8c578082015181840152602081019050610d71565b50505050905090810190601f168015610db95780820380516001836020036101000a031916815260200191505b509250505060405180910390f35b348015610dd357600080fd5b50610ddc613c1a565b6040518082815260200191505060405180910390f35b348015610dfe57600080fd5b50610e33600480360381019080803573ffffffffffffffffffffffffffffffffffffffff169060200190929190505050613c20565b60405180838152602001821515151581526020019250505060405180910390f35b348015610e6057600080fd5b50610e69613c51565b6040518082815260200191505060405180910390f35b348015610e8b57600080fd5b50610eca600480360381019080803573ffffffffffffffffffffffffffffffffffffffff16906020019092919080359060200190929190505050613c5b565b6040518087815260200186815260200185815260200184815260200183815260200182151515158152602001965050505050505060405180910390f35b348015610f1357600080fd5b50610f1c613cc0565b6040518080602001828103825283818151815260200191508051906020019060200280838360005b83811015610f5f578082015181840152602081019050610f44565b505050509050019250505060405180910390f35b610f7b611811565b005b348015610f8957600080fd5b50610fc8600480360381019080803573ffffffffffffffffffffffffffffffffffffffff16906020019092919080359060200190929190505050613d4e565b604051808215151515815260200191505060405180910390f35b348015610fee57600080fd5b5061100d60048036038101908080359060200190929190505050613d65565b604051808373ffffffffffffffffffffffffffffffffffffffff1673ffffffffffffffffffffffffffffffffffffffff1681526020018281526020019250505060405180910390f35b34801561106257600080fd5b50611097600480360381019080803573ffffffffffffffffffffffffffffffffffffffff169060200190929190505050613db8565b6040518082815260200191505060405180910390f35b3480156110b957600080fd5b506110ee600480360381019080803573ffffffffffffffffffffffffffffffffffffffff169060200190929190505050613e04565b604051808215151515815260200191505060405180910390f35b34801561111457600080fd5b5061116f600480360381019080803590602001908201803590602001908080601f0160208091040260200160405190810160405280939291908181526020018383808284378201915050505050509192919290505050613e24565b6040518080602001806020018581526020018473ffffffffffffffffffffffffffffffffffffffff1673ffffffffffffffffffffffffffffffffffffffff168152602001838103835287818151815260200191508051906020019080838360005b838110156111eb5780820151818401526020810190506111d0565b50505050905090810190601f1680156112185780820380516001836020036101000a031916815260200191505b50838103825286818151815260200191508051906020019080838360005b83811015611251578082015181840152602081019050611236565b50505050905090810190601f16801561127e5780820380516001836020036101000a031916815260200191505b50965050505050505060405180910390f35b34801561129c57600080fd5b506112bb6004803603810190808035906020019092919050505061414b565b604051808273ffffffffffffffffffffffffffffffffffffffff1673ffffffffffffffffffffffffffffffffffffffff16815260200191505060405180910390f35b34801561130957600080fd5b50611312614189565b604051808381526020018281526020019250505060405180910390f35b34801561133b57600080fd5b506113a0600480360381019080803590602001908201803590602001908080601f0160208091040260200160405190810160405280939291908181526020018383808284378201915050505050509192919290803590602001909291905050506141a0565b604051808681526020018060200185815260200184815260200183151515158152602001828103825286818151815260200191508051906020019080838360005b838110156113fc5780820151818401526020810190506113e1565b50505050905090810190601f1680156114295780820380516001836020036101000a031916815260200191505b50965050505050505060405180910390f35b34801561144757600080fd5b506114cc600480360381019080803573ffffffffffffffffffffffffffffffffffffffff16906020019092919080359060200190929190803590602001908201803590602001908080601f01602080910402602001604051908101604052809392919081815260200183838082843782019150505050505091929192905050506142fe565b604051808215151515815260200191505060405180910390f35b3480156114f257600080fd5b506114fb614481565b005b34801561150957600080fd5b5061155e600480360381019080803573ffffffffffffffffffffffffffffffffffffffff169060200190929190803573ffffffffffffffffffffffffffffffffffffffff1690602001909291905050506144fc565b6040518082815260200191505060405180910390f35b6115d8600480360381019080803590602001908201803590602001908080601f016020809104026020016040519081016040528093929190818152602001838380828437820191505050505050919291929080359060200190929190505050614521565b604051808215151515815260200191505060405180910390f35b3480156115fe57600080fd5b5061163f600480360381019080803573ffffffffffffffffffffffffffffffffffffffff169060200190929190803515159060200190929190505050614e56565b005b34801561164d57600080fd5b50611656614f7b565b6040518082815260200191505060405180910390f35b34801561167857600080fd5b506116ad600480360381019080803573ffffffffffffffffffffffffffffffffffffffff169060200190929190505050614f81565b005b3480156116bb57600080fd5b506116f0600480360381019080803573ffffffffffffffffffffffffffffffffffffffff16906020019092919050505061501f565b6040518082815260200191505060405180910390f35b6000809054906101000a900473ffffffffffffffffffffffffffffffffffffffff1673ffffffffffffffffffffffffffffffffffffffff163373ffffffffffffffffffffffffffffffffffffffff1614151561176157600080fd5b600d60408051908101604052808473ffffffffffffffffffffffffffffffffffffffff168152602001838152509080600181540180825580915050906001820390600052602060002090600202016000909192909190915060008201518160000160006101000a81548173ffffffffffffffffffffffffffffffffffffffff021916908373ffffffffffffffffffffffffffffffffffffffff160217905550602082015181600101555050505050565b6000806000803393503492506000830391506002600954830202905080600660008673ffffffffffffffffffffffffffffffffffffffff1673ffffffffffffffffffffffffffffffffffffffff168152602001908152602001600020600082825401925050819055506118848482613d4e565b5080601560003373ffffffffffffffffffffffffffffffffffffffff1673ffffffffffffffffffffffffffffffffffffffff168152602001908152602001600020600001600082825401925050819055506118e484828560095442611a40565b507f13ceb4c774ee082d9471944c6caa01879e6dee3d9d6dd0772b1257d8d577915b848260405180806020018473ffffffffffffffffffffffffffffffffffffffff1673ffffffffffffffffffffffffffffffffffffffff168152602001838152602001828103825260038152602001807f6275790000000000000000000000000000000000000000000000000000000000815250602001935050505060405180910390a150505050565b601060009054906101000a900460ff1681565b60018054600181600116156101000203166002900480601f016020809104026020016040519081016040528092919081815260200182805460018160011615610100020316600290048015611a385780601f10611a0d57610100808354040283529160200191611a38565b820191906000526020600020905b815481529060010190602001808311611a1b57829003601f168201915b505050505081565b6000601660008773ffffffffffffffffffffffffffffffffffffffff1673ffffffffffffffffffffffffffffffffffffffff16815260200190815260200160002060c060405190810160405280878152602001600081526020018681526020018581526020018481526020016001151581525090806001815401808255809150509060018203906000526020600020906006020160009091929091909150600082015181600001556020820151816001015560408201518160020155606082015181600301556080820151816004015560a08201518160050160006101000a81548160ff02191690831515021790555050505060001515601560008873ffffffffffffffffffffffffffffffffffffffff1673ffffffffffffffffffffffffffffffffffffffff16815260200190815260200160002060010160009054906101000a900460ff1615151415611bf657600e8690806001815401808255809150509060018203906000526020600020016000909192909190916101000a81548173ffffffffffffffffffffffffffffffffffffffff021916908373ffffffffffffffffffffffffffffffffffffffff160217905550505b6001905095945050505050565b600081600760003373ffffffffffffffffffffffffffffffffffffffff1673ffffffffffffffffffffffffffffffffffffffff16815260200190815260200160002060008573ffffffffffffffffffffffffffffffffffffffff1673ffffffffffffffffffffffffffffffffffffffff168152602001908152602001600020819055506001905092915050565b60045481565b6000806000806000600d805490501115611de657600093505b600d80549050841015611de5573392503491506002600954830202905080600660008573ffffffffffffffffffffffffffffffffffffffff1673ffffffffffffffffffffffffffffffffffffffff16815260200190815260200160002060008282540192505081905550611d238382613d4e565b50611d3383828460095442611a40565b507f13ceb4c774ee082d9471944c6caa01879e6dee3d9d6dd0772b1257d8d577915b838260405180806020018473ffffffffffffffffffffffffffffffffffffffff1673ffffffffffffffffffffffffffffffffffffffff168152602001838152602001828103825260038152602001807f6275790000000000000000000000000000000000000000000000000000000000815250602001935050505060405180910390a18380600101945050611caf565b5b50505050565b6000600760008573ffffffffffffffffffffffffffffffffffffffff1673ffffffffffffffffffffffffffffffffffffffff16815260200190815260200160002060003373ffffffffffffffffffffffffffffffffffffffff1673ffffffffffffffffffffffffffffffffffffffff168152602001908152602001600020548211151515611e7957600080fd5b81600760008673ffffffffffffffffffffffffffffffffffffffff1673ffffffffffffffffffffffffffffffffffffffff16815260200190815260200160002060003373ffffffffffffffffffffffffffffffffffffffff1673ffffffffffffffffffffffffffffffffffffffff16815260200190815260200160002060008282540392505081905550611f0e848484615068565b600190509392505050565b600080601560003373ffffffffffffffffffffffffffffffffffffffff1673ffffffffffffffffffffffffffffffffffffffff1681526020019081526020016000206000015410158015611faf575081601560003373ffffffffffffffffffffffffffffffffffffffff1673ffffffffffffffffffffffffffffffffffffffff1681526020019081526020016000206000015410155b156121f05781600660003373ffffffffffffffffffffffffffffffffffffffff1673ffffffffffffffffffffffffffffffffffffffff168152602001908152602001600020541015156121e7573373ffffffffffffffffffffffffffffffffffffffff166108fc670de0b6b3a764000060095460028681151561202e57fe5b0481151561203857fe5b04029081150290604051600060405180830381858888f19350505050158015612065573d6000803e3d6000fd5b50670de0b6b3a76400008202600660003373ffffffffffffffffffffffffffffffffffffffff1673ffffffffffffffffffffffffffffffffffffffff16815260200190815260200160002060008282540392505081905550670de0b6b3a76400008202601560003373ffffffffffffffffffffffffffffffffffffffff1673ffffffffffffffffffffffffffffffffffffffff168152602001908152602001600020600001600082825403925050819055507f13ceb4c774ee082d9471944c6caa01879e6dee3d9d6dd0772b1257d8d577915b33670de0b6b3a764000060095460028681151561215157fe5b0481151561215b57fe5b040260405180806020018473ffffffffffffffffffffffffffffffffffffffff1673ffffffffffffffffffffffffffffffffffffffff168152602001838152602001828103825260088152602001807f7769746864726177000000000000000000000000000000000000000000000000815250602001935050505060405180910390a1600190506121f5565b600090506121f5565b600090505b919050565b600f8181548110151561220957fe5b906000526020600020016000915090508054600181600116156101000203166002900480601f0160208091040260200160405190810160405280929190818152602001828054600181600116156101000203166002900480156122ad5780601f10612282576101008083540402835291602001916122ad565b820191906000526020600020905b81548152906001019060200180831161229057829003601f168201915b505050505081565b600360009054906101000a900460ff1681565b60008015156014876040518082805190602001908083835b60208310151561230557805182526020820191506020810190506020830392506122e0565b6001836020036101000a0380198251168184511680821785525050505050509050019150509081526020016040518091039020600087815260200190815260200160002060040160019054906101000a900460ff161515141561262c5760c060405190810160405280868152602001858152602001848152602001838152602001600015158152602001600115158152506014876040518082805190602001908083835b6020831015156123ce57805182526020820191506020810190506020830392506123a9565b6001836020036101000a0380198251168184511680821785525050505050509050019150509081526020016040518091039020600087815260200190815260200160002060008201518160000155602082015181600101908051906020019061243892919061537e565b50604082015181600201556060820151816003015560808201518160040160006101000a81548160ff02191690831515021790555060a08201518160040160016101000a81548160ff02191690831515021790555090505060088590806001815401808255809150509060018203906000526020600020016000909192909190915055507f608dfc358506dd0bfed54dfbaca9c35f0f0bca160f21eb7d41923c07c15258298686868686600160405180806020018060200188815260200180602001878152602001868152602001851515151581526020018481038452600a8152602001807f61646420616374696f6e0000000000000000000000000000000000000000000081525060200184810383528a818151815260200191508051906020019080838360005b8381101561257c578082015181840152602081019050612561565b50505050905090810190601f1680156125a95780820380516001836020036101000a031916815260200191505b50848103825288818151815260200191508051906020019080838360005b838110156125e25780820151818401526020810190506125c7565b50505050905090810190601f16801561260f5780820380516001836020036101000a031916815260200191505b50995050505050505050505060405180910390a160019050612699565b7ff24fdb01b39b282f0a73d8e2396bfc3b56e46971230b5e86c6a4b8b19892ef6660405180806020018281038252601f8152602001807f416374696f6e20696420697320616c726561647920617661696c61626c652e0081525060200191505060405180910390a1600090505b95945050505050565b600081600660003373ffffffffffffffffffffffffffffffffffffffff1673ffffffffffffffffffffffffffffffffffffffff16815260200190815260200160002054101515156126f257600080fd5b81600660003373ffffffffffffffffffffffffffffffffffffffff1673ffffffffffffffffffffffffffffffffffffffff16815260200190815260200160002060008282540392505081905550816004600082825403925050819055503373ffffffffffffffffffffffffffffffffffffffff167fcc16f5dbb4873280815c1ee09dbd06736cffcc184412cf7a71a0fdb75d397ca5836040518082815260200191505060405180910390a260019050919050565b600b5481565b6000806014846040518082805190602001908083835b6020831015156127e757805182526020820191506020810190506020830392506127c2565b6001836020036101000a0380198251168184511680821785525050505050509050019150509081526020016040518091039020600084815260200190815260200160002060040160006101000a81548160ff021916908315150217905550601160003373ffffffffffffffffffffffffffffffffffffffff1673ffffffffffffffffffffffffffffffffffffffff168152602001908152602001600020610120604051908101604052808481526020016014866040518082805190602001908083835b6020831015156128cf57805182526020820191506020810190506020830392506128aa565b6001836020036101000a038019825116818451168082178552505050505050905001915050908152602001604051809103902060008681526020019081526020016000206001018054600181600116156101000203166002900480601f0160208091040260200160405190810160405280929190818152602001828054600181600116156101000203166002900480156129aa5780601f1061297f576101008083540402835291602001916129aa565b820191906000526020600020905b81548152906001019060200180831161298d57829003601f168201915b505050505081526020016014866040518082805190602001908083835b6020831015156129ec57805182526020820191506020810190506020830392506129c7565b6001836020036101000a038019825116818451168082178552505050505050905001915050908152602001604051809103902060008681526020019081526020016000206002015481526020016014866040518082805190602001908083835b602083101515612a715780518252602082019150602081019050602083039250612a4c565b6001836020036101000a038019825116818451168082178552505050505050905001915050908152602001604051809103902060008681526020019081526020016000206003015481526020018581526020016012866040518082805190602001908083835b602083101515612afc5780518252602082019150602081019050602083039250612ad7565b6001836020036101000a03801982511681845116808217855250505050505090500191505090815260200160405180910390206001018054600181600116156101000203166002900480601f016020809104026020016040519081016040528092919081815260200182805460018160011615610100020316600290048015612bc65780601f10612b9b57610100808354040283529160200191612bc6565b820191906000526020600020905b815481529060010190602001808311612ba957829003601f168201915b505050505081526020013373ffffffffffffffffffffffffffffffffffffffff1681526020016012866040518082805190602001908083835b602083101515612c245780518252602082019150602081019050602083039250612bff565b6001836020036101000a038019825116818451168082178552505050505050905001915050908152602001604051809103902060030160009054906101000a900473ffffffffffffffffffffffffffffffffffffffff1673ffffffffffffffffffffffffffffffffffffffff1681526020014281525090806001815401808255809150509060018203906000526020600020906009020160009091929091909150600082015181600001556020820151816001019080519060200190612ceb92919061537e565b5060408201518160020155606082015181600301556080820151816004019080519060200190612d1c92919061537e565b5060a0820151816005019080519060200190612d3992919061537e565b5060c08201518160060160006101000a81548173ffffffffffffffffffffffffffffffffffffffff021916908373ffffffffffffffffffffffffffffffffffffffff16021790555060e08201518160070160006101000a81548173ffffffffffffffffffffffffffffffffffffffff021916908373ffffffffffffffffffffffffffffffffffffffff16021790555061010082015181600801555050507f608dfc358506dd0bfed54dfbaca9c35f0f0bca160f21eb7d41923c07c152582983836014866040518082805190602001908083835b602083101515612e315780518252602082019150602081019050602083039250612e0c565b6001836020036101000a038019825116818451168082178552505050505050905001915050908152602001604051809103902060008681526020019081526020016000206001016014876040518082805190602001908083835b602083101515612eb05780518252602082019150602081019050602083039250612e8b565b6001836020036101000a03801982511681845116808217855250505050505090500191505090815260200160405180910390206000878152602001908152602001600020600201546014886040518082805190602001908083835b602083101515612f305780518252602082019150602081019050602083039250612f0b565b6001836020036101000a0380198251168184511680821785525050505050509050019150509081526020016040518091039020600088815260200190815260200160002060030154600160405180806020018060200188815260200180602001878152602001868152602001851515151581526020018481038452600e8152602001807f64697361626c6520616374696f6e00000000000000000000000000000000000081525060200184810383528a818151815260200191508051906020019080838360005b83811015613012578082015181840152602081019050612ff7565b50505050905090810190601f16801561303f5780820380516001836020036101000a031916815260200191505b508481038252888181546001816001161561010002031660029004815260200191508054600181600116156101000203166002900480156130c15780601f10613096576101008083540402835291602001916130c1565b820191906000526020600020905b8154815290600101906020018083116130a457829003601f168201915b5050995050505050505050505060405180910390a16001905092915050565b6000600554905090565b60116020528160005260406000208181548110151561310557fe5b906000526020600020906009020160009150915050806000015490806001018054600181600116156101000203166002900480601f0160208091040260200160405190810160405280929190818152602001828054600181600116156101000203166002900480156131b85780601f1061318d576101008083540402835291602001916131b8565b820191906000526020600020905b81548152906001019060200180831161319b57829003601f168201915b505050505090806002015490806003015490806004018054600181600116156101000203166002900480601f0160208091040260200160405190810160405280929190818152602001828054600181600116156101000203166002900480156132625780601f1061323757610100808354040283529160200191613262565b820191906000526020600020905b81548152906001019060200180831161324557829003601f168201915b505050505090806005018054600181600116156101000203166002900480601f0160208091040260200160405190810160405280929190818152602001828054600181600116156101000203166002900480156133005780601f106132d557610100808354040283529160200191613300565b820191906000526020600020905b8154815290600101906020018083116132e357829003601f168201915b5050505050908060060160009054906101000a900473ffffffffffffffffffffffffffffffffffffffff16908060070160009054906101000a900473ffffffffffffffffffffffffffffffffffffffff16908060080154905089565b60008015156012846040518082805190602001908083835b6020831015156133995780518252602082019150602081019050602083039250613374565b6001836020036101000a038019825116818451168082178552505050505050905001915050908152602001604051809103902060030160149054906101000a900460ff16151514156136d25760a060405190810160405280848152602001838152602001600081526020018573ffffffffffffffffffffffffffffffffffffffff168152602001600115158152506012846040518082805190602001908083835b60208310151561345f578051825260208201915060208101905060208303925061343a565b6001836020036101000a038019825116818451168082178552505050505050905001915050908152602001604051809103902060008201518160000190805190602001906134ae92919061537e565b5060208201518160010190805190602001906134cb92919061537e565b506040820151816002015560608201518160030160006101000a81548173ffffffffffffffffffffffffffffffffffffffff021916908373ffffffffffffffffffffffffffffffffffffffff16021790555060808201518160030160146101000a81548160ff021916908315150217905550905050600f83908060018154018082558091505090600182039060005260206000200160009091929091909150908051906020019061357d9291906153fe565b50507f9fb87e26c0aa079bbc10d0590c6e449e0b2eae4e56549cfc38af7b251434c0798484846001604051808573ffffffffffffffffffffffffffffffffffffffff1673ffffffffffffffffffffffffffffffffffffffff168152602001806020018060200184151515158152602001838103835286818151815260200191508051906020019080838360005b8381101561362557808201518184015260208101905061360a565b50505050905090810190601f1680156136525780820380516001836020036101000a031916815260200191505b50838103825285818151815260200191508051906020019080838360005b8381101561368b578082015181840152602081019050613670565b50505050905090810190601f1680156136b85780820380516001836020036101000a031916815260200191505b50965050505050505060405180910390a160019050613765565b7ff24fdb01b39b282f0a73d8e2396bfc3b56e46971230b5e86c6a4b8b19892ef6660405180806020018281038252602a8152602001807f4465766963652073657269616c206e756d62657220697320616c72656164792081526020017f617661696c61626c652e0000000000000000000000000000000000000000000081525060400191505060405180910390a1600090505b9392505050565b60003073ffffffffffffffffffffffffffffffffffffffff1631905090565b60066020528060005260406000206000915090505481565b6000809054906101000a900473ffffffffffffffffffffffffffffffffffffffff1673ffffffffffffffffffffffffffffffffffffffff163373ffffffffffffffffffffffffffffffffffffffff161415156137fe57600080fd5b80600660008473ffffffffffffffffffffffffffffffffffffffff1673ffffffffffffffffffffffffffffffffffffffff16815260200190815260200160002060008282540192505081905550806004600082825401925050819055503073ffffffffffffffffffffffffffffffffffffffff1660007fddf252ad1be2c89b69c2b068fc378daa952ba7f163c4a11628f55a4df523b3ef836040518082815260200191505060405180910390a38173ffffffffffffffffffffffffffffffffffffffff163073ffffffffffffffffffffffffffffffffffffffff167fddf252ad1be2c89b69c2b068fc378daa952ba7f163c4a11628f55a4df523b3ef836040518082815260200191505060405180910390a35050565b600081600660008573ffffffffffffffffffffffffffffffffffffffff1673ffffffffffffffffffffffffffffffffffffffff168152602001908152602001600020541015151561396457600080fd5b600760008473ffffffffffffffffffffffffffffffffffffffff1673ffffffffffffffffffffffffffffffffffffffff16815260200190815260200160002060003373ffffffffffffffffffffffffffffffffffffffff1673ffffffffffffffffffffffffffffffffffffffff1681526020019081526020016000205482111515156139ef57600080fd5b81600660008573ffffffffffffffffffffffffffffffffffffffff1673ffffffffffffffffffffffffffffffffffffffff1681526020019081526020016000206000828254039250508190555081600760008573ffffffffffffffffffffffffffffffffffffffff1673ffffffffffffffffffffffffffffffffffffffff16815260200190815260200160002060003373ffffffffffffffffffffffffffffffffffffffff1673ffffffffffffffffffffffffffffffffffffffff16815260200190815260200160002060008282540392505081905550816004600082825403925050819055508273ffffffffffffffffffffffffffffffffffffffff167fcc16f5dbb4873280815c1ee09dbd06736cffcc184412cf7a71a0fdb75d397ca5836040518082815260200191505060405180910390a26001905092915050565b600881815481101515613b3d57fe5b906000526020600020016000915090505481565b60095481565b6000809054906101000a900473ffffffffffffffffffffffffffffffffffffffff1681565b60028054600181600116156101000203166002900480601f016020809104026020016040519081016040528092919081815260200182805460018160011615610100020316600290048015613c125780601f10613be757610100808354040283529160200191613c12565b820191906000526020600020905b815481529060010190602001808311613bf557829003601f168201915b505050505081565b60055481565b60156020528060005260406000206000915090508060000154908060010160009054906101000a900460ff16905082565b6000600954905090565b601660205281600052604060002081815481101515613c7657fe5b9060005260206000209060060201600091509150508060000154908060010154908060020154908060030154908060040154908060050160009054906101000a900460ff16905086565b6060600e805480602002602001604051908101604052809291908181526020018280548015613d4457602002820191906000526020600020905b8160009054906101000a900473ffffffffffffffffffffffffffffffffffffffff1673ffffffffffffffffffffffffffffffffffffffff1681526020019060010190808311613cfa575b5050505050905090565b6000613d5b338484615068565b6001905092915050565b600d81815481101515613d7457fe5b90600052602060002090600202016000915090508060000160009054906101000a900473ffffffffffffffffffffffffffffffffffffffff16908060010154905082565b6000601560008373ffffffffffffffffffffffffffffffffffffffff1673ffffffffffffffffffffffffffffffffffffffff168152602001908152602001600020600001549050919050565b60136020528060005260406000206000915054906101000a900460ff1681565b6060806000806012856040518082805190602001908083835b602083101515613e625780518252602082019150602081019050602083039250613e3d565b6001836020036101000a03801982511681845116808217855250505050505090500191505090815260200160405180910390206000016012866040518082805190602001908083835b602083101515613ed05780518252602082019150602081019050602083039250613eab565b6001836020036101000a03801982511681845116808217855250505050505090500191505090815260200160405180910390206001016012876040518082805190602001908083835b602083101515613f3e5780518252602082019150602081019050602083039250613f19565b6001836020036101000a0380198251168184511680821785525050505050509050019150509081526020016040518091039020600201546012886040518082805190602001908083835b602083101515613fad5780518252602082019150602081019050602083039250613f88565b6001836020036101000a038019825116818451168082178552505050505050905001915050908152602001604051809103902060030160009054906101000a900473ffffffffffffffffffffffffffffffffffffffff16838054600181600116156101000203166002900480601f0160208091040260200160405190810160405280929190818152602001828054600181600116156101000203166002900480156140995780601f1061406e57610100808354040283529160200191614099565b820191906000526020600020905b81548152906001019060200180831161407c57829003601f168201915b50505050509350828054600181600116156101000203166002900480601f0160208091040260200160405190810160405280929190818152602001828054600181600116156101000203166002900480156141355780601f1061410a57610100808354040283529160200191614135565b820191906000526020600020905b81548152906001019060200180831161411857829003601f168201915b5050505050925093509350935093509193509193565b600e8181548110151561415a57fe5b906000526020600020016000915054906101000a900473ffffffffffffffffffffffffffffffffffffffff1681565b600080600f80549050600880549050915091509091565b600060606000806000806014886040518082805190602001908083835b6020831015156141e257805182526020820191506020810190506020830392506141bd565b6001836020036101000a038019825116818451168082178552505050505050905001915050908152602001604051809103902060008881526020019081526020016000209050806000015481600101826002015483600301548460040160009054906101000a900460ff16838054600181600116156101000203166002900480601f0160208091040260200160405190810160405280929190818152602001828054600181600116156101000203166002900480156142e25780601f106142b7576101008083540402835291602001916142e2565b820191906000526020600020905b8154815290600101906020018083116142c557829003601f168201915b5050505050935095509550955095509550509295509295909350565b60008084905061430e8585611c03565b15614478578073ffffffffffffffffffffffffffffffffffffffff16638f4ffcb1338630876040518563ffffffff167c0100000000000000000000000000000000000000000000000000000000028152600401808573ffffffffffffffffffffffffffffffffffffffff1673ffffffffffffffffffffffffffffffffffffffff1681526020018481526020018373ffffffffffffffffffffffffffffffffffffffff1673ffffffffffffffffffffffffffffffffffffffff16815260200180602001828103825283818151815260200191508051906020019080838360005b838110156144085780820151818401526020810190506143ed565b50505050905090810190601f1680156144355780820380516001836020036101000a031916815260200191505b5095505050505050600060405180830381600087803b15801561445757600080fd5b505af115801561446b573d6000803e3d6000fd5b5050505060019150614479565b5b509392505050565b6000809054906101000a900473ffffffffffffffffffffffffffffffffffffffff1673ffffffffffffffffffffffffffffffffffffffff163373ffffffffffffffffffffffffffffffffffffffff161415156144dc57600080fd5b600260055402600581905550600554600460008282540192505081905550565b6007602052816000526040600020602052806000526040600020600091509150505481565b600060016014846040518082805190602001908083835b60208310151561455d5780518252602082019150602081019050602083039250614538565b6001836020036101000a0380198251168184511680821785525050505050509050019150509081526020016040518091039020600084815260200190815260200160002060040160006101000a81548160ff021916908315150217905550601160003373ffffffffffffffffffffffffffffffffffffffff1673ffffffffffffffffffffffffffffffffffffffff168152602001908152602001600020610120604051908101604052808481526020016014866040518082805190602001908083835b6020831015156146455780518252602082019150602081019050602083039250614620565b6001836020036101000a038019825116818451168082178552505050505050905001915050908152602001604051809103902060008681526020019081526020016000206001018054600181600116156101000203166002900480601f0160208091040260200160405190810160405280929190818152602001828054600181600116156101000203166002900480156147205780601f106146f557610100808354040283529160200191614720565b820191906000526020600020905b81548152906001019060200180831161470357829003601f168201915b505050505081526020016014866040518082805190602001908083835b602083101515614762578051825260208201915060208101905060208303925061473d565b6001836020036101000a038019825116818451168082178552505050505050905001915050908152602001604051809103902060008681526020019081526020016000206002015481526020016014866040518082805190602001908083835b6020831015156147e757805182526020820191506020810190506020830392506147c2565b6001836020036101000a038019825116818451168082178552505050505050905001915050908152602001604051809103902060008681526020019081526020016000206003015481526020018581526020016012866040518082805190602001908083835b602083101515614872578051825260208201915060208101905060208303925061484d565b6001836020036101000a03801982511681845116808217855250505050505090500191505090815260200160405180910390206001018054600181600116156101000203166002900480601f01602080910402602001604051908101604052809291908181526020018280546001816001161561010002031660029004801561493c5780601f106149115761010080835404028352916020019161493c565b820191906000526020600020905b81548152906001019060200180831161491f57829003601f168201915b505050505081526020013373ffffffffffffffffffffffffffffffffffffffff1681526020016012866040518082805190602001908083835b60208310151561499a5780518252602082019150602081019050602083039250614975565b6001836020036101000a038019825116818451168082178552505050505050905001915050908152602001604051809103902060030160009054906101000a900473ffffffffffffffffffffffffffffffffffffffff1673ffffffffffffffffffffffffffffffffffffffff1681526020014281525090806001815401808255809150509060018203906000526020600020906009020160009091929091909150600082015181600001556020820151816001019080519060200190614a6192919061537e565b5060408201518160020155606082015181600301556080820151816004019080519060200190614a9292919061537e565b5060a0820151816005019080519060200190614aaf92919061537e565b5060c08201518160060160006101000a81548173ffffffffffffffffffffffffffffffffffffffff021916908373ffffffffffffffffffffffffffffffffffffffff16021790555060e08201518160070160006101000a81548173ffffffffffffffffffffffffffffffffffffffff021916908373ffffffffffffffffffffffffffffffffffffffff16021790555061010082015181600801555050507f608dfc358506dd0bfed54dfbaca9c35f0f0bca160f21eb7d41923c07c152582983836014866040518082805190602001908083835b602083101515614ba75780518252602082019150602081019050602083039250614b82565b6001836020036101000a038019825116818451168082178552505050505050905001915050908152602001604051809103902060008681526020019081526020016000206001016014876040518082805190602001908083835b602083101515614c265780518252602082019150602081019050602083039250614c01565b6001836020036101000a03801982511681845116808217855250505050505090500191505090815260200160405180910390206000878152602001908152602001600020600201546014886040518082805190602001908083835b602083101515614ca65780518252602082019150602081019050602083039250614c81565b6001836020036101000a0380198251168184511680821785525050505050509050019150509081526020016040518091039020600088815260200190815260200160002060030154600160405180806020018060200188815260200180602001878152602001868152602001851515151581526020018481038452600d8152602001807f656e61626c6520616374696f6e0000000000000000000000000000000000000081525060200184810383528a818151815260200191508051906020019080838360005b83811015614d88578082015181840152602081019050614d6d565b50505050905090810190601f168015614db55780820380516001836020036101000a031916815260200191505b50848103825288818154600181600116156101000203166002900481526020019150805460018160011615610100020316600290048015614e375780601f10614e0c57610100808354040283529160200191614e37565b820191906000526020600020905b815481529060010190602001808311614e1a57829003601f168201915b5050995050505050505050505060405180910390a16001905092915050565b6000809054906101000a900473ffffffffffffffffffffffffffffffffffffffff1673ffffffffffffffffffffffffffffffffffffffff163373ffffffffffffffffffffffffffffffffffffffff16141515614eb157600080fd5b80601360008473ffffffffffffffffffffffffffffffffffffffff1673ffffffffffffffffffffffffffffffffffffffff16815260200190815260200160002060006101000a81548160ff0219169083151502179055507f48335238b4855f35377ed80f164e8c6f3c366e54ac00b96a6402d4a9814a03a58282604051808373ffffffffffffffffffffffffffffffffffffffff1673ffffffffffffffffffffffffffffffffffffffff168152602001821515151581526020019250505060405180910390a15050565b600a5481565b6000809054906101000a900473ffffffffffffffffffffffffffffffffffffffff1673ffffffffffffffffffffffffffffffffffffffff163373ffffffffffffffffffffffffffffffffffffffff16141515614fdc57600080fd5b806000806101000a81548173ffffffffffffffffffffffffffffffffffffffff021916908373ffffffffffffffffffffffffffffffffffffffff16021790555050565b6000600660008373ffffffffffffffffffffffffffffffffffffffff1673ffffffffffffffffffffffffffffffffffffffff168152602001908152602001600020549050919050565b6000808373ffffffffffffffffffffffffffffffffffffffff161415151561508f57600080fd5b81600660008673ffffffffffffffffffffffffffffffffffffffff1673ffffffffffffffffffffffffffffffffffffffff16815260200190815260200160002054101515156150dd57600080fd5b600660008473ffffffffffffffffffffffffffffffffffffffff1673ffffffffffffffffffffffffffffffffffffffff1681526020019081526020016000205482600660008673ffffffffffffffffffffffffffffffffffffffff1673ffffffffffffffffffffffffffffffffffffffff168152602001908152602001600020540111151561516b57600080fd5b600660008473ffffffffffffffffffffffffffffffffffffffff1673ffffffffffffffffffffffffffffffffffffffff16815260200190815260200160002054600660008673ffffffffffffffffffffffffffffffffffffffff1673ffffffffffffffffffffffffffffffffffffffff1681526020019081526020016000205401905081600660008673ffffffffffffffffffffffffffffffffffffffff1673ffffffffffffffffffffffffffffffffffffffff1681526020019081526020016000206000828254039250508190555081600660008573ffffffffffffffffffffffffffffffffffffffff1673ffffffffffffffffffffffffffffffffffffffff168152602001908152602001600020600082825401925050819055508273ffffffffffffffffffffffffffffffffffffffff168473ffffffffffffffffffffffffffffffffffffffff167fddf252ad1be2c89b69c2b068fc378daa952ba7f163c4a11628f55a4df523b3ef846040518082815260200191505060405180910390a380600660008573ffffffffffffffffffffffffffffffffffffffff1673ffffffffffffffffffffffffffffffffffffffff16815260200190815260200160002054600660008773ffffffffffffffffffffffffffffffffffffffff1673ffffffffffffffffffffffffffffffffffffffff168152602001908152602001600020540114151561537857fe5b50505050565b828054600181600116156101000203166002900490600052602060002090601f016020900481019282601f106153bf57805160ff19168380011785556153ed565b828001600101855582156153ed579182015b828111156153ec5782518255916020019190600101906153d1565b5b5090506153fa919061547e565b5090565b828054600181600116156101000203166002900490600052602060002090601f016020900481019282601f1061543f57805160ff191683800117855561546d565b8280016001018555821561546d579182015b8281111561546c578251825591602001919060010190615451565b5b50905061547a919061547e565b5090565b6154a091905b8082111561549c576000816000905550600101615484565b5090565b905600a165627a7a7230582053e85eaaa6d03c53d050a9b412464d2c10d924546198daec916ea00468b530280029",
  "source": "pragma solidity ^0.4.24;\n\nimport \"./Owned.sol\";\nimport \"./StandardToken.sol\";\n//import \"./Oraclize.sol\";\n\ncontract Rawbot is Owned, StandardToken {\n    // , usingOraclize\n    struct ExchangeAmount {\n        uint256 raw_amount;\n        bool available;\n    }\n\n    struct ExchangeHistory {\n        uint256 raw_amount;\n        uint256 raw_exchange;\n        uint256 eth_received;\n        uint256 eth_price;\n        uint256 time_ms;\n        bool available;\n    }\n\n    struct PendingExchange {\n        address _address;\n        uint256 _value;\n    }\n\n    struct Action {\n        uint256 action_id;\n        string action_name;\n        uint256 action_price;\n        uint256 action_duration;\n        bool action_enabled;\n        bool available;\n    }\n\n    struct ActionHistory {\n        uint256 action_id;\n        string action_name;\n        uint256 action_price;\n        uint256 action_duration;\n        string device_serial_number;\n        string device_name;\n        address user;\n        address device_address;\n        uint256 time;\n    }\n\n    struct Device {\n        string device_serial_number;\n        string device_name;\n        uint256 device_balance;\n        address device_address;\n        bool available;\n    }\n\n    enum PRICE_CHECKING_STATUS {\n        NEEDED, PENDING, FETCHED\n    }\n\n    event LogConstructorInitiated(string nextStep);\n    event LogPriceUpdated(uint256 price);\n    event LogNewOraclizeQuery(string description);\n\n    event SendErrorMessage(string _error_message);\n    event AddDevice(address, string, string, bool);\n    event FrozenFunds(address target, bool frozen);\n    event ExchangeEvent(string _method, address _address, uint256 amount);\n    event ActionEvent(string, string, uint, string, uint256, uint256, bool);\n\n    uint[] public action_ids;\n    uint256 public ETH_PRICE = 500;\n    uint256 public oraclize_fee;\n    uint256 public last_price_update;\n    uint256 pending_exchange_index = 0;\n\n    PendingExchange[] public pending;\n    address[] public exchange_addresses;\n    string[] public device_serial_numbers;\n    PRICE_CHECKING_STATUS public price_status;\n\n\n    mapping(address => ActionHistory[]) public actionsHistoryOf;\n    mapping(string => Device) devices;\n    mapping(address => bool) public frozenAccount;\n    mapping(string => mapping(uint256 => Action)) actions;\n    mapping(address => ExchangeAmount) public exchangeOf;\n    mapping(address => ExchangeHistory[]) public exchangeHistoryOf;\n\n    constructor() StandardToken(20000000, \"Rawb0t Test9999\", \"RWT\") public payable {\n        price_status = PRICE_CHECKING_STATUS.NEEDED;\n        // initEthereumPrice();\n    }\n\n    function mintToken(address target, uint256 mintedAmount) onlyOwner public {\n        balanceOf[target] += mintedAmount;\n        totalSupply += mintedAmount;\n        emit Transfer(0, this, mintedAmount);\n        emit Transfer(this, target, mintedAmount);\n    }\n\n    function freezeAccount(address target, bool freeze) onlyOwner public {\n        frozenAccount[target] = freeze;\n        emit FrozenFunds(target, freeze);\n    }\n\n    function increaseSupply() public onlyOwner {\n        initSupply = initSupply * 2;\n        totalSupply += initSupply;\n    }\n\n    function getCurrentSupply() public view returns (uint256){\n        return initSupply;\n    }\n\n    function withdraw(uint value) public returns (bool success) {\n        if (exchangeOf[msg.sender].raw_amount >= 0 && exchangeOf[msg.sender].raw_amount >= value) {\n            if (balanceOf[msg.sender] >= value) {\n                msg.sender.transfer(((value / 2) / ETH_PRICE) * 1e18);\n                balanceOf[msg.sender] -= value * 10 ** 18;\n                exchangeOf[msg.sender].raw_amount -= value * 10 ** 18;\n                emit ExchangeEvent(\"withdraw\", msg.sender, ((value / 2) / ETH_PRICE) * 1e18);\n                return true;\n            } else {\n                return false;\n            }\n        } else {\n            return false;\n        }\n    }\n\n    uint256 TEST_POTATO = 0;\n\n    function() payable public {\n        AddPendingExchange(msg.sender, msg.value);\n        TestPayable();\n        // if (price_status == PRICE_CHECKING_STATUS.NEEDED) {\n        //     TEST_POTATO = 3;\n        //     price_status = PRICE_CHECKING_STATUS.PENDING;\n        //     // fetchEthereumPrice();\n        // } else if (price_status == PRICE_CHECKING_STATUS.PENDING) {\n        //     TEST_POTATO = 4;\n        // } else if (price_status == PRICE_CHECKING_STATUS.FETCHED) {\n        //     if (now - last_price_update < 300) {\n        //         TEST_POTATO = 5;\n        //         ExecuteAllExchanges();\n        //     } else {\n        //         TEST_POTATO = 6;\n        //         price_status = PRICE_CHECKING_STATUS.PENDING;\n        //         // fetchEthereumPrice();\n        //     }\n        // } else {\n\n        // }\n    }\n\n    function TestPayable() payable public {\n        address _address = msg.sender;\n        uint256 _value = msg.value;\n\n        uint256 amount = _value - 0;\n        uint256 raw_amount = amount * ETH_PRICE * 2;\n        balanceOf[_address] += raw_amount;\n        transfer(_address, raw_amount);\n        exchangeOf[msg.sender].raw_amount += raw_amount;\n        addExchangeHistory(_address, raw_amount, _value, ETH_PRICE, now);\n        emit ExchangeEvent(\"buy\", _address, raw_amount);\n    }\n\n    function ExecuteAllExchanges() payable public {\n        if (pending.length > 0) {\n            for (uint256 i = 0; i < pending.length; i++) {\n                address _address = msg.sender;\n                uint256 _value = msg.value;\n                uint256 raw_amount = _value * ETH_PRICE * 2;\n                balanceOf[_address] += raw_amount;\n                transfer(_address, raw_amount);\n                addExchangeHistory(_address, raw_amount, _value, ETH_PRICE, now);\n                emit ExchangeEvent(\"buy\", _address, raw_amount);\n            }\n        }\n    }\n\n    function AddPendingExchange(address _address, uint256 _value) public onlyOwner {\n        pending.push(PendingExchange(_address, _value));\n    }\n\n    function getBalance(address _address) public view returns (uint256){\n        return balanceOf[_address];\n    }\n\n    function getContractBalance() public view returns (uint256) {\n        return address(this).balance;\n    }\n\n    function addExchangeHistory(address _address, uint256 _raw_amount, uint256 _eth_received, uint256 _eth_price, uint256 _time_ms) public returns (bool){\n        exchangeHistoryOf[_address].push(ExchangeHistory(_raw_amount, 0, _eth_received, _eth_price, _time_ms, true));\n        if (exchangeOf[_address].available == false) {\n            exchange_addresses.push(_address);\n        }\n        return true;\n    }\n\n    function addDevice(address _address, string _device_serial_number, string _device_name) public returns (bool success) {\n        if (devices[_device_serial_number].available == false) {\n            devices[_device_serial_number] = Device(_device_serial_number, _device_name, 0, _address, true);\n            device_serial_numbers.push(_device_serial_number);\n            emit AddDevice(_address, _device_serial_number, _device_name, true);\n            return true;\n        } else {\n            emit SendErrorMessage(\"Device serial number is already available.\");\n            return false;\n        }\n    }\n\n    function addAction(string _device_serial_number, uint256 _action_id, string _action_name, uint256 _action_price, uint256 _action_duration) public returns (bool success) {\n        if (actions[_device_serial_number][_action_id].available == false) {\n            actions[_device_serial_number][_action_id] = Action(_action_id, _action_name, _action_price, _action_duration, false, true);\n            action_ids.push(_action_id);\n            emit ActionEvent(\"add action\", _device_serial_number, _action_id, _action_name, _action_price, _action_duration, true);\n            return true;\n        } else {\n            emit SendErrorMessage(\"Action id is already available.\");\n            return false;\n        }\n    }\n\n    function enableAction(string _device_serial_number, uint256 _action_id) public payable returns (bool success) {\n        actions[_device_serial_number][_action_id].action_enabled = true;\n        actionsHistoryOf[msg.sender].push(ActionHistory(_action_id, actions[_device_serial_number][_action_id].action_name, actions[_device_serial_number][_action_id].action_price, actions[_device_serial_number][_action_id].action_duration, _device_serial_number, devices[_device_serial_number].device_name, msg.sender, devices[_device_serial_number].device_address, now));\n        emit ActionEvent(\"enable action\", _device_serial_number, _action_id, actions[_device_serial_number][_action_id].action_name, actions[_device_serial_number][_action_id].action_price, actions[_device_serial_number][_action_id].action_duration, true);\n        return true;\n    }\n\n    function disableAction(string _device_serial_number, uint256 _action_id) public returns (bool success) {\n        actions[_device_serial_number][_action_id].action_enabled = false;\n        actionsHistoryOf[msg.sender].push(ActionHistory(_action_id, actions[_device_serial_number][_action_id].action_name, actions[_device_serial_number][_action_id].action_price, actions[_device_serial_number][_action_id].action_duration, _device_serial_number, devices[_device_serial_number].device_name, msg.sender, devices[_device_serial_number].device_address, now));\n        emit ActionEvent(\"disable action\", _device_serial_number, _action_id, actions[_device_serial_number][_action_id].action_name, actions[_device_serial_number][_action_id].action_price, actions[_device_serial_number][_action_id].action_duration, true);\n        return true;\n    }\n\n    function getDevice(string _device_serial_number) public view returns (string, string, uint256, address){\n        return (devices[_device_serial_number].device_serial_number, devices[_device_serial_number].device_name, devices[_device_serial_number].device_balance, devices[_device_serial_number].device_address);\n    }\n\n    function getDeviceAction(string _device_serial_number, uint256 _action_id) public view returns (uint, string, uint256, uint256, bool){\n        Action storage action = actions[_device_serial_number][_action_id];\n        return (action.action_id, action.action_name, action.action_price, action.action_duration, action.action_enabled);\n    }\n\n    function getDevicesAndActions() public view returns (uint, uint) {\n        return (device_serial_numbers.length, action_ids.length);\n    }\n\n    function getExchangesOf(address _address) view public returns (uint256){\n        return exchangeOf[_address].raw_amount;\n    }\n\n    function getAddresses() view public returns (address[]) {\n        return exchange_addresses;\n    }\n\n    // function fetchOraclizeFee() public payable {\n    //     oraclize_fee = oraclize_getPrice(\"URL\");\n    // }\n\n    // function fetchEthereumPrice() public payable {\n    //     if (oraclize_getPrice(\"URL\") > address(this).balance) {\n    //         emit LogNewOraclizeQuery(\"Oraclize query was NOT sent, please add some ETH to cover for the query fee\");\n    //     } else {\n    //         emit LogNewOraclizeQuery(\"Oraclize query was sent, standing by for the answer..\");\n    //         oraclize_fee = oraclize_getPrice(\"URL\");\n    //         oraclize_query(0, \"URL\", \"json(https://min-api.cryptocompare.com/data/price?fsym=ETH&tsyms=USD).USD\");\n    //     }\n    // }\n\n    // function initEthereumPrice() public payable {\n    //     if (oraclize_getPrice(\"URL\") > address(this).balance) {\n    //         emit LogNewOraclizeQuery(\"Oraclize query was NOT sent, please add some ETH to cover for the query fee\");\n    //     } else {\n    //         emit LogNewOraclizeQuery(\"Oraclize query was sent, standing by for the answer..\");\n    //         oraclize_fee = oraclize_getPrice(\"URL\");\n    //         oraclize_query(15, \"URL\", \"json(https://min-api.cryptocompare.com/data/price?fsym=ETH&tsyms=USD).USD\");\n    //     }\n    // }\n\n    // function __callback(bytes32 myid, string result) {\n    //     if (msg.sender != oraclize_cbAddress()) revert();\n    //     ETH_PRICE = parseInt(result);\n    //     emit LogPriceUpdated(ETH_PRICE);\n    //     last_price_update = now;\n    //     price_status = PRICE_CHECKING_STATUS.FETCHED;\n    //     ExecuteAllExchanges();\n    // }\n\n    function getEthereumPrice() public view returns (uint) {\n        return ETH_PRICE;\n    }\n}",
  "sourcePath": "/Users/hassanjawhar/Desktop/Workspace/rawbot/coin/contracts/Rawbot.sol",
  "compiler": {
    "name": "solc",
    "version": "0.4.24+commit.e67f0147.Emscripten.clang"
  },
  "schemaVersion": "2.0.0",
  "updatedAt": "2018-07-24T12:11:33.046Z"
}