{
  "contractName": "Rawbot",
  "abi": [
    {
      "constant": true,
      "inputs": [],
      "name": "price_status",
      "outputs": [
        {
          "name": "",
          "type": "uint8"
        }
      ],
      "payable": false,
      "stateMutability": "view",
      "type": "function"
    },
    {
      "constant": true,
      "inputs": [],
      "name": "name",
      "outputs": [
        {
          "name": "",
          "type": "string"
        }
      ],
      "payable": false,
      "stateMutability": "view",
      "type": "function"
    },
    {
      "constant": false,
      "inputs": [
        {
          "name": "_spender",
          "type": "address"
        },
        {
          "name": "_value",
          "type": "uint256"
        }
      ],
      "name": "approve",
      "outputs": [
        {
          "name": "success",
          "type": "bool"
        }
      ],
      "payable": false,
      "stateMutability": "nonpayable",
      "type": "function"
    },
    {
      "constant": true,
      "inputs": [],
      "name": "totalSupply",
      "outputs": [
        {
          "name": "",
          "type": "uint256"
        }
      ],
      "payable": false,
      "stateMutability": "view",
      "type": "function"
    },
    {
      "constant": false,
      "inputs": [
        {
          "name": "_from",
          "type": "address"
        },
        {
          "name": "_to",
          "type": "address"
        },
        {
          "name": "_value",
          "type": "uint256"
        }
      ],
      "name": "transferFrom",
      "outputs": [
        {
          "name": "success",
          "type": "bool"
        }
      ],
      "payable": false,
      "stateMutability": "nonpayable",
      "type": "function"
    },
    {
      "constant": true,
      "inputs": [
        {
          "name": "",
          "type": "uint256"
        }
      ],
      "name": "device_serial_numbers",
      "outputs": [
        {
          "name": "",
          "type": "string"
        }
      ],
      "payable": false,
      "stateMutability": "view",
      "type": "function"
    },
    {
      "constant": true,
      "inputs": [],
      "name": "decimals",
      "outputs": [
        {
          "name": "",
          "type": "uint8"
        }
      ],
      "payable": false,
      "stateMutability": "view",
      "type": "function"
    },
    {
      "constant": false,
      "inputs": [
        {
          "name": "_value",
          "type": "uint256"
        }
      ],
      "name": "burn",
      "outputs": [
        {
          "name": "success",
          "type": "bool"
        }
      ],
      "payable": false,
      "stateMutability": "nonpayable",
      "type": "function"
    },
    {
      "constant": true,
      "inputs": [],
      "name": "last_price_update",
      "outputs": [
        {
          "name": "",
          "type": "uint256"
        }
      ],
      "payable": false,
      "stateMutability": "view",
      "type": "function"
    },
    {
      "constant": true,
      "inputs": [
        {
          "name": "",
          "type": "address"
        },
        {
          "name": "",
          "type": "uint256"
        }
      ],
      "name": "actionsHistoryOf",
      "outputs": [
        {
          "name": "action_id",
          "type": "uint256"
        },
        {
          "name": "action_name",
          "type": "string"
        },
        {
          "name": "action_price",
          "type": "uint256"
        },
        {
          "name": "action_duration",
          "type": "uint256"
        },
        {
          "name": "device_serial_number",
          "type": "string"
        },
        {
          "name": "device_name",
          "type": "string"
        },
        {
          "name": "user",
          "type": "address"
        },
        {
          "name": "device_address",
          "type": "address"
        },
        {
          "name": "time",
          "type": "uint256"
        }
      ],
      "payable": false,
      "stateMutability": "view",
      "type": "function"
    },
    {
      "constant": true,
      "inputs": [
        {
          "name": "",
          "type": "address"
        }
      ],
      "name": "balanceOf",
      "outputs": [
        {
          "name": "",
          "type": "uint256"
        }
      ],
      "payable": false,
      "stateMutability": "view",
      "type": "function"
    },
    {
      "constant": false,
      "inputs": [
        {
          "name": "_from",
          "type": "address"
        },
        {
          "name": "_value",
          "type": "uint256"
        }
      ],
      "name": "burnFrom",
      "outputs": [
        {
          "name": "success",
          "type": "bool"
        }
      ],
      "payable": false,
      "stateMutability": "nonpayable",
      "type": "function"
    },
    {
      "constant": true,
      "inputs": [
        {
          "name": "",
          "type": "uint256"
        }
      ],
      "name": "action_ids",
      "outputs": [
        {
          "name": "",
          "type": "uint256"
        }
      ],
      "payable": false,
      "stateMutability": "view",
      "type": "function"
    },
    {
      "constant": true,
      "inputs": [],
      "name": "ETH_PRICE",
      "outputs": [
        {
          "name": "",
          "type": "uint256"
        }
      ],
      "payable": false,
      "stateMutability": "view",
      "type": "function"
    },
    {
      "constant": true,
      "inputs": [],
      "name": "owner",
      "outputs": [
        {
          "name": "",
          "type": "address"
        }
      ],
      "payable": false,
      "stateMutability": "view",
      "type": "function"
    },
    {
      "constant": true,
      "inputs": [],
      "name": "symbol",
      "outputs": [
        {
          "name": "",
          "type": "string"
        }
      ],
      "payable": false,
      "stateMutability": "view",
      "type": "function"
    },
    {
      "constant": true,
      "inputs": [],
      "name": "initSupply",
      "outputs": [
        {
          "name": "",
          "type": "uint256"
        }
      ],
      "payable": false,
      "stateMutability": "view",
      "type": "function"
    },
    {
      "constant": true,
      "inputs": [
        {
          "name": "",
          "type": "address"
        }
      ],
      "name": "exchangeOf",
      "outputs": [
        {
          "name": "raw_amount",
          "type": "uint256"
        },
        {
          "name": "available",
          "type": "bool"
        }
      ],
      "payable": false,
      "stateMutability": "view",
      "type": "function"
    },
    {
      "constant": true,
      "inputs": [
        {
          "name": "",
          "type": "address"
        },
        {
          "name": "",
          "type": "uint256"
        }
      ],
      "name": "exchangeHistoryOf",
      "outputs": [
        {
          "name": "raw_amount",
          "type": "uint256"
        },
        {
          "name": "raw_exchange",
          "type": "uint256"
        },
        {
          "name": "eth_received",
          "type": "uint256"
        },
        {
          "name": "eth_price",
          "type": "uint256"
        },
        {
          "name": "time_ms",
          "type": "uint256"
        },
        {
          "name": "available",
          "type": "bool"
        }
      ],
      "payable": false,
      "stateMutability": "view",
      "type": "function"
    },
    {
      "constant": false,
      "inputs": [
        {
          "name": "_to",
          "type": "address"
        },
        {
          "name": "_value",
          "type": "uint256"
        }
      ],
      "name": "transfer",
      "outputs": [
        {
          "name": "success",
          "type": "bool"
        }
      ],
      "payable": false,
      "stateMutability": "nonpayable",
      "type": "function"
    },
    {
      "constant": true,
      "inputs": [
        {
          "name": "",
          "type": "uint256"
        }
      ],
      "name": "pending",
      "outputs": [
        {
          "name": "_address",
          "type": "address"
        },
        {
          "name": "_value",
          "type": "uint256"
        }
      ],
      "payable": false,
      "stateMutability": "view",
      "type": "function"
    },
    {
      "constant": true,
      "inputs": [
        {
          "name": "",
          "type": "address"
        }
      ],
      "name": "frozenAccount",
      "outputs": [
        {
          "name": "",
          "type": "bool"
        }
      ],
      "payable": false,
      "stateMutability": "view",
      "type": "function"
    },
    {
      "constant": true,
      "inputs": [
        {
          "name": "",
          "type": "uint256"
        }
      ],
      "name": "exchange_addresses",
      "outputs": [
        {
          "name": "",
          "type": "address"
        }
      ],
      "payable": false,
      "stateMutability": "view",
      "type": "function"
    },
    {
      "constant": false,
      "inputs": [
        {
          "name": "_spender",
          "type": "address"
        },
        {
          "name": "_value",
          "type": "uint256"
        },
        {
          "name": "_extraData",
          "type": "bytes"
        }
      ],
      "name": "approveAndCall",
      "outputs": [
        {
          "name": "success",
          "type": "bool"
        }
      ],
      "payable": false,
      "stateMutability": "nonpayable",
      "type": "function"
    },
    {
      "constant": true,
      "inputs": [
        {
          "name": "",
          "type": "address"
        },
        {
          "name": "",
          "type": "address"
        }
      ],
      "name": "allowance",
      "outputs": [
        {
          "name": "",
          "type": "uint256"
        }
      ],
      "payable": false,
      "stateMutability": "view",
      "type": "function"
    },
    {
      "constant": true,
      "inputs": [],
      "name": "oraclize_fee",
      "outputs": [
        {
          "name": "",
          "type": "uint256"
        }
      ],
      "payable": false,
      "stateMutability": "view",
      "type": "function"
    },
    {
      "constant": false,
      "inputs": [
        {
          "name": "newOwner",
          "type": "address"
        }
      ],
      "name": "transferOwnership",
      "outputs": [],
      "payable": false,
      "stateMutability": "nonpayable",
      "type": "function"
    },
    {
      "inputs": [],
      "payable": true,
      "stateMutability": "payable",
      "type": "constructor"
    },
    {
      "payable": true,
      "stateMutability": "payable",
      "type": "fallback"
    },
    {
      "anonymous": false,
      "inputs": [
        {
          "indexed": false,
          "name": "nextStep",
          "type": "string"
        }
      ],
      "name": "LogConstructorInitiated",
      "type": "event"
    },
    {
      "anonymous": false,
      "inputs": [
        {
          "indexed": false,
          "name": "price",
          "type": "uint256"
        }
      ],
      "name": "LogPriceUpdated",
      "type": "event"
    },
    {
      "anonymous": false,
      "inputs": [
        {
          "indexed": false,
          "name": "description",
          "type": "string"
        }
      ],
      "name": "LogNewOraclizeQuery",
      "type": "event"
    },
    {
      "anonymous": false,
      "inputs": [
        {
          "indexed": false,
          "name": "_error_message",
          "type": "string"
        }
      ],
      "name": "SendErrorMessage",
      "type": "event"
    },
    {
      "anonymous": false,
      "inputs": [
        {
          "indexed": false,
          "name": "",
          "type": "address"
        },
        {
          "indexed": false,
          "name": "",
          "type": "string"
        },
        {
          "indexed": false,
          "name": "",
          "type": "string"
        },
        {
          "indexed": false,
          "name": "",
          "type": "bool"
        }
      ],
      "name": "AddDevice",
      "type": "event"
    },
    {
      "anonymous": false,
      "inputs": [
        {
          "indexed": false,
          "name": "target",
          "type": "address"
        },
        {
          "indexed": false,
          "name": "frozen",
          "type": "bool"
        }
      ],
      "name": "FrozenFunds",
      "type": "event"
    },
    {
      "anonymous": false,
      "inputs": [
        {
          "indexed": false,
          "name": "_method",
          "type": "string"
        },
        {
          "indexed": false,
          "name": "_address",
          "type": "address"
        },
        {
          "indexed": false,
          "name": "amount",
          "type": "uint256"
        }
      ],
      "name": "ExchangeEvent",
      "type": "event"
    },
    {
      "anonymous": false,
      "inputs": [
        {
          "indexed": false,
          "name": "",
          "type": "string"
        },
        {
          "indexed": false,
          "name": "",
          "type": "string"
        },
        {
          "indexed": false,
          "name": "",
          "type": "uint256"
        },
        {
          "indexed": false,
          "name": "",
          "type": "string"
        },
        {
          "indexed": false,
          "name": "",
          "type": "uint256"
        },
        {
          "indexed": false,
          "name": "",
          "type": "uint256"
        },
        {
          "indexed": false,
          "name": "",
          "type": "bool"
        }
      ],
      "name": "ActionEvent",
      "type": "event"
    },
    {
      "anonymous": false,
      "inputs": [
        {
          "indexed": true,
          "name": "from",
          "type": "address"
        },
        {
          "indexed": true,
          "name": "to",
          "type": "address"
        },
        {
          "indexed": false,
          "name": "value",
          "type": "uint256"
        }
      ],
      "name": "Transfer",
      "type": "event"
    },
    {
      "anonymous": false,
      "inputs": [
        {
          "indexed": true,
          "name": "tokenOwner",
          "type": "address"
        },
        {
          "indexed": true,
          "name": "spender",
          "type": "address"
        },
        {
          "indexed": false,
          "name": "tokens",
          "type": "uint256"
        }
      ],
      "name": "Approval",
      "type": "event"
    },
    {
      "anonymous": false,
      "inputs": [
        {
          "indexed": true,
          "name": "from",
          "type": "address"
        },
        {
          "indexed": false,
          "name": "value",
          "type": "uint256"
        }
      ],
      "name": "Burn",
      "type": "event"
    },
    {
      "constant": false,
      "inputs": [
        {
          "name": "target",
          "type": "address"
        },
        {
          "name": "mintedAmount",
          "type": "uint256"
        }
      ],
      "name": "mintToken",
      "outputs": [],
      "payable": false,
      "stateMutability": "nonpayable",
      "type": "function"
    },
    {
      "constant": false,
      "inputs": [
        {
          "name": "target",
          "type": "address"
        },
        {
          "name": "freeze",
          "type": "bool"
        }
      ],
      "name": "freezeAccount",
      "outputs": [],
      "payable": false,
      "stateMutability": "nonpayable",
      "type": "function"
    },
    {
      "constant": false,
      "inputs": [],
      "name": "increaseSupply",
      "outputs": [],
      "payable": false,
      "stateMutability": "nonpayable",
      "type": "function"
    },
    {
      "constant": true,
      "inputs": [],
      "name": "getCurrentSupply",
      "outputs": [
        {
          "name": "",
          "type": "uint256"
        }
      ],
      "payable": false,
      "stateMutability": "view",
      "type": "function"
    },
    {
      "constant": false,
      "inputs": [
        {
          "name": "value",
          "type": "uint256"
        }
      ],
      "name": "withdraw",
      "outputs": [
        {
          "name": "success",
          "type": "bool"
        }
      ],
      "payable": false,
      "stateMutability": "nonpayable",
      "type": "function"
    },
    {
      "constant": false,
      "inputs": [
        {
          "name": "_address",
          "type": "address"
        },
        {
          "name": "_value",
          "type": "uint256"
        }
      ],
      "name": "AddPendingExchange",
      "outputs": [],
      "payable": false,
      "stateMutability": "nonpayable",
      "type": "function"
    },
    {
      "constant": true,
      "inputs": [
        {
          "name": "_address",
          "type": "address"
        }
      ],
      "name": "getBalance",
      "outputs": [
        {
          "name": "",
          "type": "uint256"
        }
      ],
      "payable": false,
      "stateMutability": "view",
      "type": "function"
    },
    {
      "constant": true,
      "inputs": [],
      "name": "getContractBalance",
      "outputs": [
        {
          "name": "",
          "type": "uint256"
        }
      ],
      "payable": false,
      "stateMutability": "view",
      "type": "function"
    },
    {
      "constant": false,
      "inputs": [
        {
          "name": "_address",
          "type": "address"
        },
        {
          "name": "_raw_amount",
          "type": "uint256"
        },
        {
          "name": "_eth_received",
          "type": "uint256"
        },
        {
          "name": "_eth_price",
          "type": "uint256"
        },
        {
          "name": "_time_ms",
          "type": "uint256"
        }
      ],
      "name": "addExchangeHistory",
      "outputs": [
        {
          "name": "",
          "type": "bool"
        }
      ],
      "payable": false,
      "stateMutability": "nonpayable",
      "type": "function"
    },
    {
      "constant": false,
      "inputs": [
        {
          "name": "_address",
          "type": "address"
        },
        {
          "name": "_device_serial_number",
          "type": "string"
        },
        {
          "name": "_device_name",
          "type": "string"
        }
      ],
      "name": "addDevice",
      "outputs": [
        {
          "name": "success",
          "type": "bool"
        }
      ],
      "payable": false,
      "stateMutability": "nonpayable",
      "type": "function"
    },
    {
      "constant": false,
      "inputs": [
        {
          "name": "_device_serial_number",
          "type": "string"
        },
        {
          "name": "_action_id",
          "type": "uint256"
        },
        {
          "name": "_action_name",
          "type": "string"
        },
        {
          "name": "_action_price",
          "type": "uint256"
        },
        {
          "name": "_action_duration",
          "type": "uint256"
        }
      ],
      "name": "addAction",
      "outputs": [
        {
          "name": "success",
          "type": "bool"
        }
      ],
      "payable": false,
      "stateMutability": "nonpayable",
      "type": "function"
    },
    {
      "constant": false,
      "inputs": [
        {
          "name": "_device_serial_number",
          "type": "string"
        },
        {
          "name": "_action_id",
          "type": "uint256"
        }
      ],
      "name": "enableAction",
      "outputs": [
        {
          "name": "success",
          "type": "bool"
        }
      ],
      "payable": true,
      "stateMutability": "payable",
      "type": "function"
    },
    {
      "constant": false,
      "inputs": [
        {
          "name": "_device_serial_number",
          "type": "string"
        },
        {
          "name": "_action_id",
          "type": "uint256"
        }
      ],
      "name": "disableAction",
      "outputs": [
        {
          "name": "success",
          "type": "bool"
        }
      ],
      "payable": false,
      "stateMutability": "nonpayable",
      "type": "function"
    },
    {
      "constant": true,
      "inputs": [
        {
          "name": "_device_serial_number",
          "type": "string"
        }
      ],
      "name": "getDevice",
      "outputs": [
        {
          "name": "",
          "type": "string"
        },
        {
          "name": "",
          "type": "string"
        },
        {
          "name": "",
          "type": "uint256"
        },
        {
          "name": "",
          "type": "address"
        }
      ],
      "payable": false,
      "stateMutability": "view",
      "type": "function"
    },
    {
      "constant": true,
      "inputs": [
        {
          "name": "_device_serial_number",
          "type": "string"
        },
        {
          "name": "_action_id",
          "type": "uint256"
        }
      ],
      "name": "getDeviceAction",
      "outputs": [
        {
          "name": "",
          "type": "uint256"
        },
        {
          "name": "",
          "type": "string"
        },
        {
          "name": "",
          "type": "uint256"
        },
        {
          "name": "",
          "type": "uint256"
        },
        {
          "name": "",
          "type": "bool"
        }
      ],
      "payable": false,
      "stateMutability": "view",
      "type": "function"
    },
    {
      "constant": true,
      "inputs": [],
      "name": "getDevicesAndActions",
      "outputs": [
        {
          "name": "",
          "type": "uint256"
        },
        {
          "name": "",
          "type": "uint256"
        }
      ],
      "payable": false,
      "stateMutability": "view",
      "type": "function"
    },
    {
      "constant": true,
      "inputs": [
        {
          "name": "_address",
          "type": "address"
        }
      ],
      "name": "getExchangesOf",
      "outputs": [
        {
          "name": "",
          "type": "uint256"
        }
      ],
      "payable": false,
      "stateMutability": "view",
      "type": "function"
    },
    {
      "constant": true,
      "inputs": [],
      "name": "getAddresses",
      "outputs": [
        {
          "name": "",
          "type": "address[]"
        }
      ],
      "payable": false,
      "stateMutability": "view",
      "type": "function"
    },
    {
      "constant": true,
      "inputs": [],
      "name": "getEthereumPrice",
      "outputs": [
        {
          "name": "",
          "type": "uint256"
        }
      ],
      "payable": false,
      "stateMutability": "view",
      "type": "function"
    }
  ],
  "bytecode": "0x60806040526012600360006101000a81548160ff021916908360ff1602179055506101f46009556000600c5560006017556301312d006040805190810160405280600f81526020017f52617762307420546573743939393900000000000000000000000000000000008152506040805190810160405280600381526020017f5257540000000000000000000000000000000000000000000000000000000000815250336000806101000a81548173ffffffffffffffffffffffffffffffffffffffff021916908373ffffffffffffffffffffffffffffffffffffffff160217905550600360009054906101000a900460ff1660ff16600a0a8302600481905550600360009054906101000a900460ff1660ff16600a0a83026005819055508160019080519060200190620001359291906200017d565b5080600290805190602001906200014e9291906200017d565b505050506000601060006101000a81548160ff021916908360028111156200017257fe5b02179055506200022c565b828054600181600116156101000203166002900490600052602060002090601f016020900481019282601f10620001c057805160ff1916838001178555620001f1565b82800160010185558215620001f1579182015b82811115620001f0578251825591602001919060010190620001d3565b5b50905062000200919062000204565b5090565b6200022991905b80821115620002255760008160009055506001016200020b565b5090565b90565b615322806200023c6000396000f300608060405260043610610230576000357c0100000000000000000000000000000000000000000000000000000000900463ffffffff168063013abe8f1461039b57806306fdde03146103d45780630892354514610464578063095ea7b3146104e757806318160ddd1461054c57806323b872dd146105775780632e1a7d4d146105fc5780632f5da34714610641578063313ce567146106e75780633a9146dc1461071857806342966c68146107fd578063470a9f841461084257806347da0a981461086d5780634f3e1efc146108f8578063500284241461092357806350c729cf14610b4357806365159bdc14610b905780636f9fb98a14610c7757806370a0823114610ca257806379c6506814610cf957806379cc679014610d465780637ef7416e14610dab5780638832bc2914610dec5780638da5cb5b14610e1757806395d89b4114610e6e57806397d63f9314610efe5780639822f97014610f295780639bddd05f14610f8b5780639f9b957514610fb6578063a39fac121461103e578063a9059cbb146110aa578063af6e62381461110f578063b2d3983214611183578063b414d4b6146111da578063b71a034614611235578063c10d416d146113bd578063c69c81161461142a578063c6b107e51461145c578063cae9ca5114611568578063d196508014611613578063dd62ed3e1461162a578063defc3098146116a1578063e724529c1461171f578063edce3c501461176e578063f2fde38b14611799578063f8b2cb4f146117dc575b60006002600954340202905080600660003373ffffffffffffffffffffffffffffffffffffffff1673ffffffffffffffffffffffffffffffffffffffff168152602001908152602001600020600082825401925050819055506102933382611833565b5080601560003373ffffffffffffffffffffffffffffffffffffffff1673ffffffffffffffffffffffffffffffffffffffff168152602001908152602001600020600001600082825401925050819055506102f33382346009544261184a565b507f13ceb4c774ee082d9471944c6caa01879e6dee3d9d6dd0772b1257d8d577915b338260405180806020018473ffffffffffffffffffffffffffffffffffffffff1673ffffffffffffffffffffffffffffffffffffffff168152602001838152602001828103825260038152602001807f6275790000000000000000000000000000000000000000000000000000000000815250602001935050505060405180910390a150005b3480156103a757600080fd5b506103b0611a0d565b604051808260028111156103c057fe5b60ff16815260200191505060405180910390f35b3480156103e057600080fd5b506103e9611a20565b6040518080602001828103825283818151815260200191508051906020019080838360005b8381101561042957808201518184015260208101905061040e565b50505050905090810190601f1680156104565780820380516001836020036101000a031916815260200191505b509250505060405180910390f35b34801561047057600080fd5b506104cd600480360381019080803573ffffffffffffffffffffffffffffffffffffffff1690602001909291908035906020019092919080359060200190929190803590602001909291908035906020019092919050505061184a565b604051808215151515815260200191505060405180910390f35b3480156104f357600080fd5b50610532600480360381019080803573ffffffffffffffffffffffffffffffffffffffff16906020019092919080359060200190929190505050611abe565b604051808215151515815260200191505060405180910390f35b34801561055857600080fd5b50610561611b4b565b6040518082815260200191505060405180910390f35b34801561058357600080fd5b506105e2600480360381019080803573ffffffffffffffffffffffffffffffffffffffff169060200190929190803573ffffffffffffffffffffffffffffffffffffffff16906020019092919080359060200190929190505050611b51565b604051808215151515815260200191505060405180910390f35b34801561060857600080fd5b5061062760048036038101908080359060200190929190505050611c7e565b604051808215151515815260200191505060405180910390f35b34801561064d57600080fd5b5061066c60048036038101908080359060200190929190505050611f59565b6040518080602001828103825283818151815260200191508051906020019080838360005b838110156106ac578082015181840152602081019050610691565b50505050905090810190601f1680156106d95780820380516001836020036101000a031916815260200191505b509250505060405180910390f35b3480156106f357600080fd5b506106fc612014565b604051808260ff1660ff16815260200191505060405180910390f35b34801561072457600080fd5b506107e3600480360381019080803590602001908201803590602001908080601f016020809104026020016040519081016040528093929190818152602001838380828437820191505050505050919291929080359060200190929190803590602001908201803590602001908080601f01602080910402602001604051908101604052809392919081815260200183838082843782019150505050505091929192908035906020019092919080359060200190929190505050612027565b604051808215151515815260200191505060405180910390f35b34801561080957600080fd5b5061082860048036038101908080359060200190929190505050612401565b604051808215151515815260200191505060405180910390f35b34801561084e57600080fd5b50610857612505565b6040518082815260200191505060405180910390f35b34801561087957600080fd5b506108de600480360381019080803590602001908201803590602001908080601f01602080910402602001604051908101604052809392919081815260200183838082843782019150505050505091929192908035906020019092919050505061250b565b604051808215151515815260200191505060405180910390f35b34801561090457600080fd5b5061090d612e3f565b6040518082815260200191505060405180910390f35b34801561092f57600080fd5b5061096e600480360381019080803573ffffffffffffffffffffffffffffffffffffffff16906020019092919080359060200190929190505050612e49565b604051808a81526020018060200189815260200188815260200180602001806020018773ffffffffffffffffffffffffffffffffffffffff1673ffffffffffffffffffffffffffffffffffffffff1681526020018673ffffffffffffffffffffffffffffffffffffffff1673ffffffffffffffffffffffffffffffffffffffff16815260200185815260200184810384528c818151815260200191508051906020019080838360005b83811015610a32578082015181840152602081019050610a17565b50505050905090810190601f168015610a5f5780820380516001836020036101000a031916815260200191505b50848103835289818151815260200191508051906020019080838360005b83811015610a98578082015181840152602081019050610a7d565b50505050905090810190601f168015610ac55780820380516001836020036101000a031916815260200191505b50848103825288818151815260200191508051906020019080838360005b83811015610afe578082015181840152602081019050610ae3565b50505050905090810190601f168015610b2b5780820380516001836020036101000a031916815260200191505b509c5050505050505050505050505060405180910390f35b348015610b4f57600080fd5b50610b8e600480360381019080803573ffffffffffffffffffffffffffffffffffffffff169060200190929190803590602001909291905050506130bb565b005b348015610b9c57600080fd5b50610c5d600480360381019080803573ffffffffffffffffffffffffffffffffffffffff169060200190929190803590602001908201803590602001908080601f0160208091040260200160405190810160405280939291908181526020018383808284378201915050505050509192919290803590602001908201803590602001908080601f01602080910402602001604051908101604052809392919081815260200183838082843782019150505050505091929192905050506131c6565b604051808215151515815260200191505060405180910390f35b348015610c8357600080fd5b50610c8c6135d6565b6040518082815260200191505060405180910390f35b348015610cae57600080fd5b50610ce3600480360381019080803573ffffffffffffffffffffffffffffffffffffffff1690602001909291905050506135f5565b6040518082815260200191505060405180910390f35b348015610d0557600080fd5b50610d44600480360381019080803573ffffffffffffffffffffffffffffffffffffffff1690602001909291908035906020019092919050505061360d565b005b348015610d5257600080fd5b50610d91600480360381019080803573ffffffffffffffffffffffffffffffffffffffff1690602001909291908035906020019092919050505061377e565b604051808215151515815260200191505060405180910390f35b348015610db757600080fd5b50610dd660048036038101908080359060200190929190505050613998565b6040518082815260200191505060405180910390f35b348015610df857600080fd5b50610e016139bb565b6040518082815260200191505060405180910390f35b348015610e2357600080fd5b50610e2c6139c1565b604051808273ffffffffffffffffffffffffffffffffffffffff1673ffffffffffffffffffffffffffffffffffffffff16815260200191505060405180910390f35b348015610e7a57600080fd5b50610e836139e6565b6040518080602001828103825283818151815260200191508051906020019080838360005b83811015610ec3578082015181840152602081019050610ea8565b50505050905090810190601f168015610ef05780820380516001836020036101000a031916815260200191505b509250505060405180910390f35b348015610f0a57600080fd5b50610f13613a84565b6040518082815260200191505060405180910390f35b348015610f3557600080fd5b50610f6a600480360381019080803573ffffffffffffffffffffffffffffffffffffffff169060200190929190505050613a8a565b60405180838152602001821515151581526020019250505060405180910390f35b348015610f9757600080fd5b50610fa0613abb565b6040518082815260200191505060405180910390f35b348015610fc257600080fd5b50611001600480360381019080803573ffffffffffffffffffffffffffffffffffffffff16906020019092919080359060200190929190505050613ac5565b6040518087815260200186815260200185815260200184815260200183815260200182151515158152602001965050505050505060405180910390f35b34801561104a57600080fd5b50611053613b2a565b6040518080602001828103825283818151815260200191508051906020019060200280838360005b8381101561109657808201518184015260208101905061107b565b505050509050019250505060405180910390f35b3480156110b657600080fd5b506110f5600480360381019080803573ffffffffffffffffffffffffffffffffffffffff16906020019092919080359060200190929190505050611833565b604051808215151515815260200191505060405180910390f35b34801561111b57600080fd5b5061113a60048036038101908080359060200190929190505050613bb8565b604051808373ffffffffffffffffffffffffffffffffffffffff1673ffffffffffffffffffffffffffffffffffffffff1681526020018281526020019250505060405180910390f35b34801561118f57600080fd5b506111c4600480360381019080803573ffffffffffffffffffffffffffffffffffffffff169060200190929190505050613c0b565b6040518082815260200191505060405180910390f35b3480156111e657600080fd5b5061121b600480360381019080803573ffffffffffffffffffffffffffffffffffffffff169060200190929190505050613c57565b604051808215151515815260200191505060405180910390f35b34801561124157600080fd5b5061129c600480360381019080803590602001908201803590602001908080601f0160208091040260200160405190810160405280939291908181526020018383808284378201915050505050509192919290505050613c77565b6040518080602001806020018581526020018473ffffffffffffffffffffffffffffffffffffffff1673ffffffffffffffffffffffffffffffffffffffff168152602001838103835287818151815260200191508051906020019080838360005b838110156113185780820151818401526020810190506112fd565b50505050905090810190601f1680156113455780820380516001836020036101000a031916815260200191505b50838103825286818151815260200191508051906020019080838360005b8381101561137e578082015181840152602081019050611363565b50505050905090810190601f1680156113ab5780820380516001836020036101000a031916815260200191505b50965050505050505060405180910390f35b3480156113c957600080fd5b506113e860048036038101908080359060200190929190505050613f9e565b604051808273ffffffffffffffffffffffffffffffffffffffff1673ffffffffffffffffffffffffffffffffffffffff16815260200191505060405180910390f35b34801561143657600080fd5b5061143f613fdc565b604051808381526020018281526020019250505060405180910390f35b34801561146857600080fd5b506114cd600480360381019080803590602001908201803590602001908080601f016020809104026020016040519081016040528093929190818152602001838380828437820191505050505050919291929080359060200190929190505050613ff3565b604051808681526020018060200185815260200184815260200183151515158152602001828103825286818151815260200191508051906020019080838360005b8381101561152957808201518184015260208101905061150e565b50505050905090810190601f1680156115565780820380516001836020036101000a031916815260200191505b50965050505050505060405180910390f35b34801561157457600080fd5b506115f9600480360381019080803573ffffffffffffffffffffffffffffffffffffffff16906020019092919080359060200190929190803590602001908201803590602001908080601f0160208091040260200160405190810160405280939291908181526020018383808284378201915050505050509192919290505050614151565b604051808215151515815260200191505060405180910390f35b34801561161f57600080fd5b506116286142d4565b005b34801561163657600080fd5b5061168b600480360381019080803573ffffffffffffffffffffffffffffffffffffffff169060200190929190803573ffffffffffffffffffffffffffffffffffffffff16906020019092919050505061434f565b6040518082815260200191505060405180910390f35b611705600480360381019080803590602001908201803590602001908080601f016020809104026020016040519081016040528093929190818152602001838380828437820191505050505050919291929080359060200190929190505050614374565b604051808215151515815260200191505060405180910390f35b34801561172b57600080fd5b5061176c600480360381019080803573ffffffffffffffffffffffffffffffffffffffff169060200190929190803515159060200190929190505050614ca9565b005b34801561177a57600080fd5b50611783614dce565b6040518082815260200191505060405180910390f35b3480156117a557600080fd5b506117da600480360381019080803573ffffffffffffffffffffffffffffffffffffffff169060200190929190505050614dd4565b005b3480156117e857600080fd5b5061181d600480360381019080803573ffffffffffffffffffffffffffffffffffffffff169060200190929190505050614e72565b6040518082815260200191505060405180910390f35b6000611840338484614ebb565b6001905092915050565b6000601660008773ffffffffffffffffffffffffffffffffffffffff1673ffffffffffffffffffffffffffffffffffffffff16815260200190815260200160002060c060405190810160405280878152602001600081526020018681526020018581526020018481526020016001151581525090806001815401808255809150509060018203906000526020600020906006020160009091929091909150600082015181600001556020820151816001015560408201518160020155606082015181600301556080820151816004015560a08201518160050160006101000a81548160ff02191690831515021790555050505060001515601560008873ffffffffffffffffffffffffffffffffffffffff1673ffffffffffffffffffffffffffffffffffffffff16815260200190815260200160002060010160009054906101000a900460ff1615151415611a0057600e8690806001815401808255809150509060018203906000526020600020016000909192909190916101000a81548173ffffffffffffffffffffffffffffffffffffffff021916908373ffffffffffffffffffffffffffffffffffffffff160217905550505b6001905095945050505050565b601060009054906101000a900460ff1681565b60018054600181600116156101000203166002900480601f016020809104026020016040519081016040528092919081815260200182805460018160011615610100020316600290048015611ab65780601f10611a8b57610100808354040283529160200191611ab6565b820191906000526020600020905b815481529060010190602001808311611a9957829003601f168201915b505050505081565b600081600760003373ffffffffffffffffffffffffffffffffffffffff1673ffffffffffffffffffffffffffffffffffffffff16815260200190815260200160002060008573ffffffffffffffffffffffffffffffffffffffff1673ffffffffffffffffffffffffffffffffffffffff168152602001908152602001600020819055506001905092915050565b60045481565b6000600760008573ffffffffffffffffffffffffffffffffffffffff1673ffffffffffffffffffffffffffffffffffffffff16815260200190815260200160002060003373ffffffffffffffffffffffffffffffffffffffff1673ffffffffffffffffffffffffffffffffffffffff168152602001908152602001600020548211151515611bde57600080fd5b81600760008673ffffffffffffffffffffffffffffffffffffffff1673ffffffffffffffffffffffffffffffffffffffff16815260200190815260200160002060003373ffffffffffffffffffffffffffffffffffffffff1673ffffffffffffffffffffffffffffffffffffffff16815260200190815260200160002060008282540392505081905550611c73848484614ebb565b600190509392505050565b600080601560003373ffffffffffffffffffffffffffffffffffffffff1673ffffffffffffffffffffffffffffffffffffffff1681526020019081526020016000206000015410158015611d14575081601560003373ffffffffffffffffffffffffffffffffffffffff1673ffffffffffffffffffffffffffffffffffffffff1681526020019081526020016000206000015410155b8015611d5f575081600660003373ffffffffffffffffffffffffffffffffffffffff1673ffffffffffffffffffffffffffffffffffffffff1681526020019081526020016000205410155b15611f4f573373ffffffffffffffffffffffffffffffffffffffff166108fc670de0b6b3a7640000600954600286811515611d9657fe5b04811515611da057fe5b04029081150290604051600060405180830381858888f19350505050158015611dcd573d6000803e3d6000fd5b50670de0b6b3a76400008202600660003373ffffffffffffffffffffffffffffffffffffffff1673ffffffffffffffffffffffffffffffffffffffff16815260200190815260200160002060008282540392505081905550670de0b6b3a76400008202601560003373ffffffffffffffffffffffffffffffffffffffff1673ffffffffffffffffffffffffffffffffffffffff168152602001908152602001600020600001600082825403925050819055507f13ceb4c774ee082d9471944c6caa01879e6dee3d9d6dd0772b1257d8d577915b33670de0b6b3a7640000600954600286811515611eb957fe5b04811515611ec357fe5b040260405180806020018473ffffffffffffffffffffffffffffffffffffffff1673ffffffffffffffffffffffffffffffffffffffff168152602001838152602001828103825260088152602001807f7769746864726177000000000000000000000000000000000000000000000000815250602001935050505060405180910390a160019050611f54565b600090505b919050565b600f81815481101515611f6857fe5b906000526020600020016000915090508054600181600116156101000203166002900480601f01602080910402602001604051908101604052809291908181526020018280546001816001161561010002031660029004801561200c5780601f10611fe15761010080835404028352916020019161200c565b820191906000526020600020905b815481529060010190602001808311611fef57829003601f168201915b505050505081565b600360009054906101000a900460ff1681565b60008015156014876040518082805190602001908083835b602083101515612064578051825260208201915060208101905060208303925061203f565b6001836020036101000a0380198251168184511680821785525050505050509050019150509081526020016040518091039020600087815260200190815260200160002060040160019054906101000a900460ff161515141561238b5760c060405190810160405280868152602001858152602001848152602001838152602001600015158152602001600115158152506014876040518082805190602001908083835b60208310151561212d5780518252602082019150602081019050602083039250612108565b6001836020036101000a038019825116818451168082178552505050505050905001915050908152602001604051809103902060008781526020019081526020016000206000820151816000015560208201518160010190805190602001906121979291906151d1565b50604082015181600201556060820151816003015560808201518160040160006101000a81548160ff02191690831515021790555060a08201518160040160016101000a81548160ff02191690831515021790555090505060088590806001815401808255809150509060018203906000526020600020016000909192909190915055507f608dfc358506dd0bfed54dfbaca9c35f0f0bca160f21eb7d41923c07c15258298686868686600160405180806020018060200188815260200180602001878152602001868152602001851515151581526020018481038452600a8152602001807f61646420616374696f6e0000000000000000000000000000000000000000000081525060200184810383528a818151815260200191508051906020019080838360005b838110156122db5780820151818401526020810190506122c0565b50505050905090810190601f1680156123085780820380516001836020036101000a031916815260200191505b50848103825288818151815260200191508051906020019080838360005b83811015612341578082015181840152602081019050612326565b50505050905090810190601f16801561236e5780820380516001836020036101000a031916815260200191505b50995050505050505050505060405180910390a1600190506123f8565b7ff24fdb01b39b282f0a73d8e2396bfc3b56e46971230b5e86c6a4b8b19892ef6660405180806020018281038252601f8152602001807f416374696f6e20696420697320616c726561647920617661696c61626c652e0081525060200191505060405180910390a1600090505b95945050505050565b600081600660003373ffffffffffffffffffffffffffffffffffffffff1673ffffffffffffffffffffffffffffffffffffffff168152602001908152602001600020541015151561245157600080fd5b81600660003373ffffffffffffffffffffffffffffffffffffffff1673ffffffffffffffffffffffffffffffffffffffff16815260200190815260200160002060008282540392505081905550816004600082825403925050819055503373ffffffffffffffffffffffffffffffffffffffff167fcc16f5dbb4873280815c1ee09dbd06736cffcc184412cf7a71a0fdb75d397ca5836040518082815260200191505060405180910390a260019050919050565b600b5481565b6000806014846040518082805190602001908083835b6020831015156125465780518252602082019150602081019050602083039250612521565b6001836020036101000a0380198251168184511680821785525050505050509050019150509081526020016040518091039020600084815260200190815260200160002060040160006101000a81548160ff021916908315150217905550601160003373ffffffffffffffffffffffffffffffffffffffff1673ffffffffffffffffffffffffffffffffffffffff168152602001908152602001600020610120604051908101604052808481526020016014866040518082805190602001908083835b60208310151561262e5780518252602082019150602081019050602083039250612609565b6001836020036101000a038019825116818451168082178552505050505050905001915050908152602001604051809103902060008681526020019081526020016000206001018054600181600116156101000203166002900480601f0160208091040260200160405190810160405280929190818152602001828054600181600116156101000203166002900480156127095780601f106126de57610100808354040283529160200191612709565b820191906000526020600020905b8154815290600101906020018083116126ec57829003601f168201915b505050505081526020016014866040518082805190602001908083835b60208310151561274b5780518252602082019150602081019050602083039250612726565b6001836020036101000a038019825116818451168082178552505050505050905001915050908152602001604051809103902060008681526020019081526020016000206002015481526020016014866040518082805190602001908083835b6020831015156127d057805182526020820191506020810190506020830392506127ab565b6001836020036101000a038019825116818451168082178552505050505050905001915050908152602001604051809103902060008681526020019081526020016000206003015481526020018581526020016012866040518082805190602001908083835b60208310151561285b5780518252602082019150602081019050602083039250612836565b6001836020036101000a03801982511681845116808217855250505050505090500191505090815260200160405180910390206001018054600181600116156101000203166002900480601f0160208091040260200160405190810160405280929190818152602001828054600181600116156101000203166002900480156129255780601f106128fa57610100808354040283529160200191612925565b820191906000526020600020905b81548152906001019060200180831161290857829003601f168201915b505050505081526020013373ffffffffffffffffffffffffffffffffffffffff1681526020016012866040518082805190602001908083835b602083101515612983578051825260208201915060208101905060208303925061295e565b6001836020036101000a038019825116818451168082178552505050505050905001915050908152602001604051809103902060030160009054906101000a900473ffffffffffffffffffffffffffffffffffffffff1673ffffffffffffffffffffffffffffffffffffffff1681526020014281525090806001815401808255809150509060018203906000526020600020906009020160009091929091909150600082015181600001556020820151816001019080519060200190612a4a9291906151d1565b5060408201518160020155606082015181600301556080820151816004019080519060200190612a7b9291906151d1565b5060a0820151816005019080519060200190612a989291906151d1565b5060c08201518160060160006101000a81548173ffffffffffffffffffffffffffffffffffffffff021916908373ffffffffffffffffffffffffffffffffffffffff16021790555060e08201518160070160006101000a81548173ffffffffffffffffffffffffffffffffffffffff021916908373ffffffffffffffffffffffffffffffffffffffff16021790555061010082015181600801555050507f608dfc358506dd0bfed54dfbaca9c35f0f0bca160f21eb7d41923c07c152582983836014866040518082805190602001908083835b602083101515612b905780518252602082019150602081019050602083039250612b6b565b6001836020036101000a038019825116818451168082178552505050505050905001915050908152602001604051809103902060008681526020019081526020016000206001016014876040518082805190602001908083835b602083101515612c0f5780518252602082019150602081019050602083039250612bea565b6001836020036101000a03801982511681845116808217855250505050505090500191505090815260200160405180910390206000878152602001908152602001600020600201546014886040518082805190602001908083835b602083101515612c8f5780518252602082019150602081019050602083039250612c6a565b6001836020036101000a0380198251168184511680821785525050505050509050019150509081526020016040518091039020600088815260200190815260200160002060030154600160405180806020018060200188815260200180602001878152602001868152602001851515151581526020018481038452600e8152602001807f64697361626c6520616374696f6e00000000000000000000000000000000000081525060200184810383528a818151815260200191508051906020019080838360005b83811015612d71578082015181840152602081019050612d56565b50505050905090810190601f168015612d9e5780820380516001836020036101000a031916815260200191505b50848103825288818154600181600116156101000203166002900481526020019150805460018160011615610100020316600290048015612e205780601f10612df557610100808354040283529160200191612e20565b820191906000526020600020905b815481529060010190602001808311612e0357829003601f168201915b5050995050505050505050505060405180910390a16001905092915050565b6000600554905090565b601160205281600052604060002081815481101515612e6457fe5b906000526020600020906009020160009150915050806000015490806001018054600181600116156101000203166002900480601f016020809104026020016040519081016040528092919081815260200182805460018160011615610100020316600290048015612f175780601f10612eec57610100808354040283529160200191612f17565b820191906000526020600020905b815481529060010190602001808311612efa57829003601f168201915b505050505090806002015490806003015490806004018054600181600116156101000203166002900480601f016020809104026020016040519081016040528092919081815260200182805460018160011615610100020316600290048015612fc15780601f10612f9657610100808354040283529160200191612fc1565b820191906000526020600020905b815481529060010190602001808311612fa457829003601f168201915b505050505090806005018054600181600116156101000203166002900480601f01602080910402602001604051908101604052809291908181526020018280546001816001161561010002031660029004801561305f5780601f106130345761010080835404028352916020019161305f565b820191906000526020600020905b81548152906001019060200180831161304257829003601f168201915b5050505050908060060160009054906101000a900473ffffffffffffffffffffffffffffffffffffffff16908060070160009054906101000a900473ffffffffffffffffffffffffffffffffffffffff16908060080154905089565b6000809054906101000a900473ffffffffffffffffffffffffffffffffffffffff1673ffffffffffffffffffffffffffffffffffffffff163373ffffffffffffffffffffffffffffffffffffffff1614151561311657600080fd5b600d60408051908101604052808473ffffffffffffffffffffffffffffffffffffffff168152602001838152509080600181540180825580915050906001820390600052602060002090600202016000909192909190915060008201518160000160006101000a81548173ffffffffffffffffffffffffffffffffffffffff021916908373ffffffffffffffffffffffffffffffffffffffff160217905550602082015181600101555050505050565b60008015156012846040518082805190602001908083835b60208310151561320357805182526020820191506020810190506020830392506131de565b6001836020036101000a038019825116818451168082178552505050505050905001915050908152602001604051809103902060030160149054906101000a900460ff161515141561353c5760a060405190810160405280848152602001838152602001600081526020018573ffffffffffffffffffffffffffffffffffffffff168152602001600115158152506012846040518082805190602001908083835b6020831015156132c957805182526020820191506020810190506020830392506132a4565b6001836020036101000a038019825116818451168082178552505050505050905001915050908152602001604051809103902060008201518160000190805190602001906133189291906151d1565b5060208201518160010190805190602001906133359291906151d1565b506040820151816002015560608201518160030160006101000a81548173ffffffffffffffffffffffffffffffffffffffff021916908373ffffffffffffffffffffffffffffffffffffffff16021790555060808201518160030160146101000a81548160ff021916908315150217905550905050600f8390806001815401808255809150509060018203906000526020600020016000909192909190915090805190602001906133e7929190615251565b50507f9fb87e26c0aa079bbc10d0590c6e449e0b2eae4e56549cfc38af7b251434c0798484846001604051808573ffffffffffffffffffffffffffffffffffffffff1673ffffffffffffffffffffffffffffffffffffffff168152602001806020018060200184151515158152602001838103835286818151815260200191508051906020019080838360005b8381101561348f578082015181840152602081019050613474565b50505050905090810190601f1680156134bc5780820380516001836020036101000a031916815260200191505b50838103825285818151815260200191508051906020019080838360005b838110156134f55780820151818401526020810190506134da565b50505050905090810190601f1680156135225780820380516001836020036101000a031916815260200191505b50965050505050505060405180910390a1600190506135cf565b7ff24fdb01b39b282f0a73d8e2396bfc3b56e46971230b5e86c6a4b8b19892ef6660405180806020018281038252602a8152602001807f4465766963652073657269616c206e756d62657220697320616c72656164792081526020017f617661696c61626c652e0000000000000000000000000000000000000000000081525060400191505060405180910390a1600090505b9392505050565b60003073ffffffffffffffffffffffffffffffffffffffff1631905090565b60066020528060005260406000206000915090505481565b6000809054906101000a900473ffffffffffffffffffffffffffffffffffffffff1673ffffffffffffffffffffffffffffffffffffffff163373ffffffffffffffffffffffffffffffffffffffff1614151561366857600080fd5b80600660008473ffffffffffffffffffffffffffffffffffffffff1673ffffffffffffffffffffffffffffffffffffffff16815260200190815260200160002060008282540192505081905550806004600082825401925050819055503073ffffffffffffffffffffffffffffffffffffffff1660007fddf252ad1be2c89b69c2b068fc378daa952ba7f163c4a11628f55a4df523b3ef836040518082815260200191505060405180910390a38173ffffffffffffffffffffffffffffffffffffffff163073ffffffffffffffffffffffffffffffffffffffff167fddf252ad1be2c89b69c2b068fc378daa952ba7f163c4a11628f55a4df523b3ef836040518082815260200191505060405180910390a35050565b600081600660008573ffffffffffffffffffffffffffffffffffffffff1673ffffffffffffffffffffffffffffffffffffffff16815260200190815260200160002054101515156137ce57600080fd5b600760008473ffffffffffffffffffffffffffffffffffffffff1673ffffffffffffffffffffffffffffffffffffffff16815260200190815260200160002060003373ffffffffffffffffffffffffffffffffffffffff1673ffffffffffffffffffffffffffffffffffffffff16815260200190815260200160002054821115151561385957600080fd5b81600660008573ffffffffffffffffffffffffffffffffffffffff1673ffffffffffffffffffffffffffffffffffffffff1681526020019081526020016000206000828254039250508190555081600760008573ffffffffffffffffffffffffffffffffffffffff1673ffffffffffffffffffffffffffffffffffffffff16815260200190815260200160002060003373ffffffffffffffffffffffffffffffffffffffff1673ffffffffffffffffffffffffffffffffffffffff16815260200190815260200160002060008282540392505081905550816004600082825403925050819055508273ffffffffffffffffffffffffffffffffffffffff167fcc16f5dbb4873280815c1ee09dbd06736cffcc184412cf7a71a0fdb75d397ca5836040518082815260200191505060405180910390a26001905092915050565b6008818154811015156139a757fe5b906000526020600020016000915090505481565b60095481565b6000809054906101000a900473ffffffffffffffffffffffffffffffffffffffff1681565b60028054600181600116156101000203166002900480601f016020809104026020016040519081016040528092919081815260200182805460018160011615610100020316600290048015613a7c5780601f10613a5157610100808354040283529160200191613a7c565b820191906000526020600020905b815481529060010190602001808311613a5f57829003601f168201915b505050505081565b60055481565b60156020528060005260406000206000915090508060000154908060010160009054906101000a900460ff16905082565b6000600954905090565b601660205281600052604060002081815481101515613ae057fe5b9060005260206000209060060201600091509150508060000154908060010154908060020154908060030154908060040154908060050160009054906101000a900460ff16905086565b6060600e805480602002602001604051908101604052809291908181526020018280548015613bae57602002820191906000526020600020905b8160009054906101000a900473ffffffffffffffffffffffffffffffffffffffff1673ffffffffffffffffffffffffffffffffffffffff1681526020019060010190808311613b64575b5050505050905090565b600d81815481101515613bc757fe5b90600052602060002090600202016000915090508060000160009054906101000a900473ffffffffffffffffffffffffffffffffffffffff16908060010154905082565b6000601560008373ffffffffffffffffffffffffffffffffffffffff1673ffffffffffffffffffffffffffffffffffffffff168152602001908152602001600020600001549050919050565b60136020528060005260406000206000915054906101000a900460ff1681565b6060806000806012856040518082805190602001908083835b602083101515613cb55780518252602082019150602081019050602083039250613c90565b6001836020036101000a03801982511681845116808217855250505050505090500191505090815260200160405180910390206000016012866040518082805190602001908083835b602083101515613d235780518252602082019150602081019050602083039250613cfe565b6001836020036101000a03801982511681845116808217855250505050505090500191505090815260200160405180910390206001016012876040518082805190602001908083835b602083101515613d915780518252602082019150602081019050602083039250613d6c565b6001836020036101000a0380198251168184511680821785525050505050509050019150509081526020016040518091039020600201546012886040518082805190602001908083835b602083101515613e005780518252602082019150602081019050602083039250613ddb565b6001836020036101000a038019825116818451168082178552505050505050905001915050908152602001604051809103902060030160009054906101000a900473ffffffffffffffffffffffffffffffffffffffff16838054600181600116156101000203166002900480601f016020809104026020016040519081016040528092919081815260200182805460018160011615610100020316600290048015613eec5780601f10613ec157610100808354040283529160200191613eec565b820191906000526020600020905b815481529060010190602001808311613ecf57829003601f168201915b50505050509350828054600181600116156101000203166002900480601f016020809104026020016040519081016040528092919081815260200182805460018160011615610100020316600290048015613f885780601f10613f5d57610100808354040283529160200191613f88565b820191906000526020600020905b815481529060010190602001808311613f6b57829003601f168201915b5050505050925093509350935093509193509193565b600e81815481101515613fad57fe5b906000526020600020016000915054906101000a900473ffffffffffffffffffffffffffffffffffffffff1681565b600080600f80549050600880549050915091509091565b600060606000806000806014886040518082805190602001908083835b6020831015156140355780518252602082019150602081019050602083039250614010565b6001836020036101000a038019825116818451168082178552505050505050905001915050908152602001604051809103902060008881526020019081526020016000209050806000015481600101826002015483600301548460040160009054906101000a900460ff16838054600181600116156101000203166002900480601f0160208091040260200160405190810160405280929190818152602001828054600181600116156101000203166002900480156141355780601f1061410a57610100808354040283529160200191614135565b820191906000526020600020905b81548152906001019060200180831161411857829003601f168201915b5050505050935095509550955095509550509295509295909350565b6000808490506141618585611abe565b156142cb578073ffffffffffffffffffffffffffffffffffffffff16638f4ffcb1338630876040518563ffffffff167c0100000000000000000000000000000000000000000000000000000000028152600401808573ffffffffffffffffffffffffffffffffffffffff1673ffffffffffffffffffffffffffffffffffffffff1681526020018481526020018373ffffffffffffffffffffffffffffffffffffffff1673ffffffffffffffffffffffffffffffffffffffff16815260200180602001828103825283818151815260200191508051906020019080838360005b8381101561425b578082015181840152602081019050614240565b50505050905090810190601f1680156142885780820380516001836020036101000a031916815260200191505b5095505050505050600060405180830381600087803b1580156142aa57600080fd5b505af11580156142be573d6000803e3d6000fd5b50505050600191506142cc565b5b509392505050565b6000809054906101000a900473ffffffffffffffffffffffffffffffffffffffff1673ffffffffffffffffffffffffffffffffffffffff163373ffffffffffffffffffffffffffffffffffffffff1614151561432f57600080fd5b600260055402600581905550600554600460008282540192505081905550565b6007602052816000526040600020602052806000526040600020600091509150505481565b600060016014846040518082805190602001908083835b6020831015156143b0578051825260208201915060208101905060208303925061438b565b6001836020036101000a0380198251168184511680821785525050505050509050019150509081526020016040518091039020600084815260200190815260200160002060040160006101000a81548160ff021916908315150217905550601160003373ffffffffffffffffffffffffffffffffffffffff1673ffffffffffffffffffffffffffffffffffffffff168152602001908152602001600020610120604051908101604052808481526020016014866040518082805190602001908083835b6020831015156144985780518252602082019150602081019050602083039250614473565b6001836020036101000a038019825116818451168082178552505050505050905001915050908152602001604051809103902060008681526020019081526020016000206001018054600181600116156101000203166002900480601f0160208091040260200160405190810160405280929190818152602001828054600181600116156101000203166002900480156145735780601f1061454857610100808354040283529160200191614573565b820191906000526020600020905b81548152906001019060200180831161455657829003601f168201915b505050505081526020016014866040518082805190602001908083835b6020831015156145b55780518252602082019150602081019050602083039250614590565b6001836020036101000a038019825116818451168082178552505050505050905001915050908152602001604051809103902060008681526020019081526020016000206002015481526020016014866040518082805190602001908083835b60208310151561463a5780518252602082019150602081019050602083039250614615565b6001836020036101000a038019825116818451168082178552505050505050905001915050908152602001604051809103902060008681526020019081526020016000206003015481526020018581526020016012866040518082805190602001908083835b6020831015156146c557805182526020820191506020810190506020830392506146a0565b6001836020036101000a03801982511681845116808217855250505050505090500191505090815260200160405180910390206001018054600181600116156101000203166002900480601f01602080910402602001604051908101604052809291908181526020018280546001816001161561010002031660029004801561478f5780601f106147645761010080835404028352916020019161478f565b820191906000526020600020905b81548152906001019060200180831161477257829003601f168201915b505050505081526020013373ffffffffffffffffffffffffffffffffffffffff1681526020016012866040518082805190602001908083835b6020831015156147ed57805182526020820191506020810190506020830392506147c8565b6001836020036101000a038019825116818451168082178552505050505050905001915050908152602001604051809103902060030160009054906101000a900473ffffffffffffffffffffffffffffffffffffffff1673ffffffffffffffffffffffffffffffffffffffff16815260200142815250908060018154018082558091505090600182039060005260206000209060090201600090919290919091506000820151816000015560208201518160010190805190602001906148b49291906151d1565b50604082015181600201556060820151816003015560808201518160040190805190602001906148e59291906151d1565b5060a08201518160050190805190602001906149029291906151d1565b5060c08201518160060160006101000a81548173ffffffffffffffffffffffffffffffffffffffff021916908373ffffffffffffffffffffffffffffffffffffffff16021790555060e08201518160070160006101000a81548173ffffffffffffffffffffffffffffffffffffffff021916908373ffffffffffffffffffffffffffffffffffffffff16021790555061010082015181600801555050507f608dfc358506dd0bfed54dfbaca9c35f0f0bca160f21eb7d41923c07c152582983836014866040518082805190602001908083835b6020831015156149fa57805182526020820191506020810190506020830392506149d5565b6001836020036101000a038019825116818451168082178552505050505050905001915050908152602001604051809103902060008681526020019081526020016000206001016014876040518082805190602001908083835b602083101515614a795780518252602082019150602081019050602083039250614a54565b6001836020036101000a03801982511681845116808217855250505050505090500191505090815260200160405180910390206000878152602001908152602001600020600201546014886040518082805190602001908083835b602083101515614af95780518252602082019150602081019050602083039250614ad4565b6001836020036101000a0380198251168184511680821785525050505050509050019150509081526020016040518091039020600088815260200190815260200160002060030154600160405180806020018060200188815260200180602001878152602001868152602001851515151581526020018481038452600d8152602001807f656e61626c6520616374696f6e0000000000000000000000000000000000000081525060200184810383528a818151815260200191508051906020019080838360005b83811015614bdb578082015181840152602081019050614bc0565b50505050905090810190601f168015614c085780820380516001836020036101000a031916815260200191505b50848103825288818154600181600116156101000203166002900481526020019150805460018160011615610100020316600290048015614c8a5780601f10614c5f57610100808354040283529160200191614c8a565b820191906000526020600020905b815481529060010190602001808311614c6d57829003601f168201915b5050995050505050505050505060405180910390a16001905092915050565b6000809054906101000a900473ffffffffffffffffffffffffffffffffffffffff1673ffffffffffffffffffffffffffffffffffffffff163373ffffffffffffffffffffffffffffffffffffffff16141515614d0457600080fd5b80601360008473ffffffffffffffffffffffffffffffffffffffff1673ffffffffffffffffffffffffffffffffffffffff16815260200190815260200160002060006101000a81548160ff0219169083151502179055507f48335238b4855f35377ed80f164e8c6f3c366e54ac00b96a6402d4a9814a03a58282604051808373ffffffffffffffffffffffffffffffffffffffff1673ffffffffffffffffffffffffffffffffffffffff168152602001821515151581526020019250505060405180910390a15050565b600a5481565b6000809054906101000a900473ffffffffffffffffffffffffffffffffffffffff1673ffffffffffffffffffffffffffffffffffffffff163373ffffffffffffffffffffffffffffffffffffffff16141515614e2f57600080fd5b806000806101000a81548173ffffffffffffffffffffffffffffffffffffffff021916908373ffffffffffffffffffffffffffffffffffffffff16021790555050565b6000600660008373ffffffffffffffffffffffffffffffffffffffff1673ffffffffffffffffffffffffffffffffffffffff168152602001908152602001600020549050919050565b6000808373ffffffffffffffffffffffffffffffffffffffff1614151515614ee257600080fd5b81600660008673ffffffffffffffffffffffffffffffffffffffff1673ffffffffffffffffffffffffffffffffffffffff1681526020019081526020016000205410151515614f3057600080fd5b600660008473ffffffffffffffffffffffffffffffffffffffff1673ffffffffffffffffffffffffffffffffffffffff1681526020019081526020016000205482600660008673ffffffffffffffffffffffffffffffffffffffff1673ffffffffffffffffffffffffffffffffffffffff1681526020019081526020016000205401111515614fbe57600080fd5b600660008473ffffffffffffffffffffffffffffffffffffffff1673ffffffffffffffffffffffffffffffffffffffff16815260200190815260200160002054600660008673ffffffffffffffffffffffffffffffffffffffff1673ffffffffffffffffffffffffffffffffffffffff1681526020019081526020016000205401905081600660008673ffffffffffffffffffffffffffffffffffffffff1673ffffffffffffffffffffffffffffffffffffffff1681526020019081526020016000206000828254039250508190555081600660008573ffffffffffffffffffffffffffffffffffffffff1673ffffffffffffffffffffffffffffffffffffffff168152602001908152602001600020600082825401925050819055508273ffffffffffffffffffffffffffffffffffffffff168473ffffffffffffffffffffffffffffffffffffffff167fddf252ad1be2c89b69c2b068fc378daa952ba7f163c4a11628f55a4df523b3ef846040518082815260200191505060405180910390a380600660008573ffffffffffffffffffffffffffffffffffffffff1673ffffffffffffffffffffffffffffffffffffffff16815260200190815260200160002054600660008773ffffffffffffffffffffffffffffffffffffffff1673ffffffffffffffffffffffffffffffffffffffff16815260200190815260200160002054011415156151cb57fe5b50505050565b828054600181600116156101000203166002900490600052602060002090601f016020900481019282601f1061521257805160ff1916838001178555615240565b82800160010185558215615240579182015b8281111561523f578251825591602001919060010190615224565b5b50905061524d91906152d1565b5090565b828054600181600116156101000203166002900490600052602060002090601f016020900481019282601f1061529257805160ff19168380011785556152c0565b828001600101855582156152c0579182015b828111156152bf5782518255916020019190600101906152a4565b5b5090506152cd91906152d1565b5090565b6152f391905b808211156152ef5760008160009055506001016152d7565b5090565b905600a165627a7a723058206d15f4dd0605b9006b357db2b64173830f610f5d2971ebc6cbcafe60863941220029",
  "source": "pragma solidity ^0.4.24;\n\nimport \"./Owned.sol\";\nimport \"./StandardToken.sol\";\n//import \"./Oraclize.sol\";\n\ncontract Rawbot is Owned, StandardToken {\n    // , usingOraclize\n    struct ExchangeAmount {\n        uint256 raw_amount;\n        bool available;\n    }\n\n    struct ExchangeHistory {\n        uint256 raw_amount;\n        uint256 raw_exchange;\n        uint256 eth_received;\n        uint256 eth_price;\n        uint256 time_ms;\n        bool available;\n    }\n\n    struct PendingExchange {\n        address _address;\n        uint256 _value;\n    }\n\n    struct Action {\n        uint256 action_id;\n        string action_name;\n        uint256 action_price;\n        uint256 action_duration;\n        bool action_enabled;\n        bool available;\n    }\n\n    struct ActionHistory {\n        uint256 action_id;\n        string action_name;\n        uint256 action_price;\n        uint256 action_duration;\n        string device_serial_number;\n        string device_name;\n        address user;\n        address device_address;\n        uint256 time;\n    }\n\n    struct Device {\n        string device_serial_number;\n        string device_name;\n        uint256 device_balance;\n        address device_address;\n        bool available;\n    }\n\n    enum PRICE_CHECKING_STATUS {\n        NEEDED, PENDING, FETCHED\n    }\n\n    event LogConstructorInitiated(string nextStep);\n    event LogPriceUpdated(uint256 price);\n    event LogNewOraclizeQuery(string description);\n\n    event SendErrorMessage(string _error_message);\n    event AddDevice(address, string, string, bool);\n    event FrozenFunds(address target, bool frozen);\n    event ExchangeEvent(string _method, address _address, uint256 amount);\n    event ActionEvent(string, string, uint, string, uint256, uint256, bool);\n\n    uint[] public action_ids;\n    uint256 public ETH_PRICE = 500;\n    uint256 public oraclize_fee;\n    uint256 public last_price_update;\n    uint256 pending_exchange_index = 0;\n\n    PendingExchange[] public pending;\n    address[] public exchange_addresses;\n    string[] public device_serial_numbers;\n    PRICE_CHECKING_STATUS public price_status;\n\n\n    mapping(address => ActionHistory[]) public actionsHistoryOf;\n    mapping(string => Device) devices;\n    mapping(address => bool) public frozenAccount;\n    mapping(string => mapping(uint256 => Action)) actions;\n    mapping(address => ExchangeAmount) public exchangeOf;\n    mapping(address => ExchangeHistory[]) public exchangeHistoryOf;\n\n    constructor() StandardToken(20000000, \"Rawb0t Test9999\", \"RWT\") public payable {\n        price_status = PRICE_CHECKING_STATUS.NEEDED;\n        // initEthereumPrice();\n    }\n\n    function mintToken(address target, uint256 mintedAmount) onlyOwner public {\n        balanceOf[target] += mintedAmount;\n        totalSupply += mintedAmount;\n        emit Transfer(0, this, mintedAmount);\n        emit Transfer(this, target, mintedAmount);\n    }\n\n    function freezeAccount(address target, bool freeze) onlyOwner public {\n        frozenAccount[target] = freeze;\n        emit FrozenFunds(target, freeze);\n    }\n\n    function increaseSupply() public onlyOwner {\n        initSupply = initSupply * 2;\n        totalSupply += initSupply;\n    }\n\n    function getCurrentSupply() public view returns (uint256){\n        return initSupply;\n    }\n\n    function withdraw(uint value) public returns (bool success) {\n        if (exchangeOf[msg.sender].raw_amount >= 0 && exchangeOf[msg.sender].raw_amount >= value && balanceOf[msg.sender] >= value) {\n            msg.sender.transfer(((value / 2) / ETH_PRICE) * 1e18);\n            balanceOf[msg.sender] -= value * 10 ** 18;\n            exchangeOf[msg.sender].raw_amount -= value * 10 ** 18;\n            emit ExchangeEvent(\"withdraw\", msg.sender, ((value / 2) / ETH_PRICE) * 1e18);\n            return true;\n        } else {\n            return false;\n        }\n    }\n\n    uint256 TEST_POTATO = 0;\n\n    function() payable public {\n        uint256 raw_amount = msg.value * ETH_PRICE * 2;\n        balanceOf[msg.sender] += raw_amount;\n        transfer(msg.sender, raw_amount);\n        exchangeOf[msg.sender].raw_amount += raw_amount;\n        addExchangeHistory(msg.sender, raw_amount, msg.value, ETH_PRICE, now);\n        emit ExchangeEvent(\"buy\", msg.sender, raw_amount);\n        // AddPendingExchange(msg.sender, msg.value);\n        // if (price_status == PRICE_CHECKING_STATUS.NEEDED) {\n        //     TEST_POTATO = 3;\n        //     price_status = PRICE_CHECKING_STATUS.PENDING;\n        //     // fetchEthereumPrice();\n        // } else if (price_status == PRICE_CHECKING_STATUS.PENDING) {\n        //     TEST_POTATO = 4;\n        // } else if (price_status == PRICE_CHECKING_STATUS.FETCHED) {\n        //     if (now - last_price_update < 300) {\n        //         TEST_POTATO = 5;\n        //         ExecuteAllExchanges();\n        //     } else {\n        //         TEST_POTATO = 6;\n        //         price_status = PRICE_CHECKING_STATUS.PENDING;\n        //         // fetchEthereumPrice();\n        //     }\n        // } else {\n\n        // }\n    }\n\n\n\n    // function ExecuteAllExchanges() payable public {\n    //     if (pending.length > 0) {\n    //         for (uint256 i = 0; i < pending.length; i++) {\n    //             address _address = msg.sender;\n    //             uint256 _value = msg.value;\n    //             uint256 raw_amount = _value * ETH_PRICE * 2;\n    //             balanceOf[_address] += raw_amount;\n    //             transfer(_address, raw_amount);\n    //             addExchangeHistory(_address, raw_amount, _value, ETH_PRICE, now);\n    //             emit ExchangeEvent(\"buy\", _address, raw_amount);\n    //         }\n    //     }\n    // }\n\n    function AddPendingExchange(address _address, uint256 _value) public onlyOwner {\n        pending.push(PendingExchange(_address, _value));\n    }\n\n    function getBalance(address _address) public view returns (uint256){\n        return balanceOf[_address];\n    }\n\n    function getContractBalance() public view returns (uint256) {\n        return address(this).balance;\n    }\n\n    function addExchangeHistory(address _address, uint256 _raw_amount, uint256 _eth_received, uint256 _eth_price, uint256 _time_ms) public returns (bool){\n        exchangeHistoryOf[_address].push(ExchangeHistory(_raw_amount, 0, _eth_received, _eth_price, _time_ms, true));\n        if (exchangeOf[_address].available == false) {\n            exchange_addresses.push(_address);\n        }\n        return true;\n    }\n\n    function addDevice(address _address, string _device_serial_number, string _device_name) public returns (bool success) {\n        if (devices[_device_serial_number].available == false) {\n            devices[_device_serial_number] = Device(_device_serial_number, _device_name, 0, _address, true);\n            device_serial_numbers.push(_device_serial_number);\n            emit AddDevice(_address, _device_serial_number, _device_name, true);\n            return true;\n        } else {\n            emit SendErrorMessage(\"Device serial number is already available.\");\n            return false;\n        }\n    }\n\n    function addAction(string _device_serial_number, uint256 _action_id, string _action_name, uint256 _action_price, uint256 _action_duration) public returns (bool success) {\n        if (actions[_device_serial_number][_action_id].available == false) {\n            actions[_device_serial_number][_action_id] = Action(_action_id, _action_name, _action_price, _action_duration, false, true);\n            action_ids.push(_action_id);\n            emit ActionEvent(\"add action\", _device_serial_number, _action_id, _action_name, _action_price, _action_duration, true);\n            return true;\n        } else {\n            emit SendErrorMessage(\"Action id is already available.\");\n            return false;\n        }\n    }\n\n    function enableAction(string _device_serial_number, uint256 _action_id) public payable returns (bool success) {\n        actions[_device_serial_number][_action_id].action_enabled = true;\n        actionsHistoryOf[msg.sender].push(ActionHistory(_action_id, actions[_device_serial_number][_action_id].action_name, actions[_device_serial_number][_action_id].action_price, actions[_device_serial_number][_action_id].action_duration, _device_serial_number, devices[_device_serial_number].device_name, msg.sender, devices[_device_serial_number].device_address, now));\n        emit ActionEvent(\"enable action\", _device_serial_number, _action_id, actions[_device_serial_number][_action_id].action_name, actions[_device_serial_number][_action_id].action_price, actions[_device_serial_number][_action_id].action_duration, true);\n        return true;\n    }\n\n    function disableAction(string _device_serial_number, uint256 _action_id) public returns (bool success) {\n        actions[_device_serial_number][_action_id].action_enabled = false;\n        actionsHistoryOf[msg.sender].push(ActionHistory(_action_id, actions[_device_serial_number][_action_id].action_name, actions[_device_serial_number][_action_id].action_price, actions[_device_serial_number][_action_id].action_duration, _device_serial_number, devices[_device_serial_number].device_name, msg.sender, devices[_device_serial_number].device_address, now));\n        emit ActionEvent(\"disable action\", _device_serial_number, _action_id, actions[_device_serial_number][_action_id].action_name, actions[_device_serial_number][_action_id].action_price, actions[_device_serial_number][_action_id].action_duration, true);\n        return true;\n    }\n\n    function getDevice(string _device_serial_number) public view returns (string, string, uint256, address){\n        return (devices[_device_serial_number].device_serial_number, devices[_device_serial_number].device_name, devices[_device_serial_number].device_balance, devices[_device_serial_number].device_address);\n    }\n\n    function getDeviceAction(string _device_serial_number, uint256 _action_id) public view returns (uint, string, uint256, uint256, bool){\n        Action storage action = actions[_device_serial_number][_action_id];\n        return (action.action_id, action.action_name, action.action_price, action.action_duration, action.action_enabled);\n    }\n\n    function getDevicesAndActions() public view returns (uint, uint) {\n        return (device_serial_numbers.length, action_ids.length);\n    }\n\n    function getExchangesOf(address _address) view public returns (uint256){\n        return exchangeOf[_address].raw_amount;\n    }\n\n    function getAddresses() view public returns (address[]) {\n        return exchange_addresses;\n    }\n\n    // function fetchOraclizeFee() public payable {\n    //     oraclize_fee = oraclize_getPrice(\"URL\");\n    // }\n\n    // function fetchEthereumPrice() public payable {\n    //     if (oraclize_getPrice(\"URL\") > address(this).balance) {\n    //         emit LogNewOraclizeQuery(\"Oraclize query was NOT sent, please add some ETH to cover for the query fee\");\n    //     } else {\n    //         emit LogNewOraclizeQuery(\"Oraclize query was sent, standing by for the answer..\");\n    //         oraclize_fee = oraclize_getPrice(\"URL\");\n    //         oraclize_query(0, \"URL\", \"json(https://min-api.cryptocompare.com/data/price?fsym=ETH&tsyms=USD).USD\");\n    //     }\n    // }\n\n    // function initEthereumPrice() public payable {\n    //     if (oraclize_getPrice(\"URL\") > address(this).balance) {\n    //         emit LogNewOraclizeQuery(\"Oraclize query was NOT sent, please add some ETH to cover for the query fee\");\n    //     } else {\n    //         emit LogNewOraclizeQuery(\"Oraclize query was sent, standing by for the answer..\");\n    //         oraclize_fee = oraclize_getPrice(\"URL\");\n    //         oraclize_query(15, \"URL\", \"json(https://min-api.cryptocompare.com/data/price?fsym=ETH&tsyms=USD).USD\");\n    //     }\n    // }\n\n    // function __callback(bytes32 myid, string result) {\n    //     if (msg.sender != oraclize_cbAddress()) revert();\n    //     ETH_PRICE = parseInt(result);\n    //     emit LogPriceUpdated(ETH_PRICE);\n    //     last_price_update = now;\n    //     price_status = PRICE_CHECKING_STATUS.FETCHED;\n    //     ExecuteAllExchanges();\n    // }\n\n    function getEthereumPrice() public view returns (uint) {\n        return ETH_PRICE;\n    }\n}",
  "sourcePath": "/Users/hassanjawhar/Desktop/Workspace/rawbot/contracts/Rawbot.sol",
  "compiler": {
    "name": "solc",
    "version": "0.4.24+commit.e67f0147.Emscripten.clang"
  },
  "schemaVersion": "2.0.0",
  "updatedAt": "2018-07-25T10:57:38.203Z"
}