{
  "contractName": "Rawbot",
  "abi": [
    {
      "constant": true,
      "inputs": [],
      "name": "price_status",
      "outputs": [
        {
          "name": "",
          "type": "uint8"
        }
      ],
      "payable": false,
      "stateMutability": "view",
      "type": "function"
    },
    {
      "constant": true,
      "inputs": [],
      "name": "name",
      "outputs": [
        {
          "name": "",
          "type": "string"
        }
      ],
      "payable": false,
      "stateMutability": "view",
      "type": "function"
    },
    {
      "constant": false,
      "inputs": [
        {
          "name": "_spender",
          "type": "address"
        },
        {
          "name": "_value",
          "type": "uint256"
        }
      ],
      "name": "approve",
      "outputs": [
        {
          "name": "success",
          "type": "bool"
        }
      ],
      "payable": false,
      "stateMutability": "nonpayable",
      "type": "function"
    },
    {
      "constant": true,
      "inputs": [
        {
          "name": "",
          "type": "address"
        }
      ],
      "name": "historyOf",
      "outputs": [
        {
          "name": "allowed_to_exchange",
          "type": "uint256"
        },
        {
          "name": "available",
          "type": "bool"
        }
      ],
      "payable": false,
      "stateMutability": "view",
      "type": "function"
    },
    {
      "constant": true,
      "inputs": [],
      "name": "totalSupply",
      "outputs": [
        {
          "name": "",
          "type": "uint256"
        }
      ],
      "payable": false,
      "stateMutability": "view",
      "type": "function"
    },
    {
      "constant": false,
      "inputs": [
        {
          "name": "_from",
          "type": "address"
        },
        {
          "name": "_to",
          "type": "address"
        },
        {
          "name": "_value",
          "type": "uint256"
        }
      ],
      "name": "transferFrom",
      "outputs": [
        {
          "name": "success",
          "type": "bool"
        }
      ],
      "payable": false,
      "stateMutability": "nonpayable",
      "type": "function"
    },
    {
      "constant": true,
      "inputs": [
        {
          "name": "",
          "type": "uint256"
        }
      ],
      "name": "device_serial_numbers",
      "outputs": [
        {
          "name": "",
          "type": "string"
        }
      ],
      "payable": false,
      "stateMutability": "view",
      "type": "function"
    },
    {
      "constant": true,
      "inputs": [],
      "name": "decimals",
      "outputs": [
        {
          "name": "",
          "type": "uint8"
        }
      ],
      "payable": false,
      "stateMutability": "view",
      "type": "function"
    },
    {
      "constant": false,
      "inputs": [
        {
          "name": "_value",
          "type": "uint256"
        }
      ],
      "name": "burn",
      "outputs": [
        {
          "name": "success",
          "type": "bool"
        }
      ],
      "payable": false,
      "stateMutability": "nonpayable",
      "type": "function"
    },
    {
      "constant": true,
      "inputs": [],
      "name": "last_price_update",
      "outputs": [
        {
          "name": "",
          "type": "uint256"
        }
      ],
      "payable": false,
      "stateMutability": "view",
      "type": "function"
    },
    {
      "constant": true,
      "inputs": [
        {
          "name": "",
          "type": "address"
        },
        {
          "name": "",
          "type": "uint256"
        }
      ],
      "name": "actionsHistoryOf",
      "outputs": [
        {
          "name": "action_id",
          "type": "uint256"
        },
        {
          "name": "action_name",
          "type": "string"
        },
        {
          "name": "action_price",
          "type": "uint256"
        },
        {
          "name": "action_duration",
          "type": "uint256"
        },
        {
          "name": "user",
          "type": "address"
        },
        {
          "name": "time",
          "type": "uint256"
        }
      ],
      "payable": false,
      "stateMutability": "view",
      "type": "function"
    },
    {
      "constant": true,
      "inputs": [
        {
          "name": "",
          "type": "address"
        }
      ],
      "name": "balanceOf",
      "outputs": [
        {
          "name": "",
          "type": "uint256"
        }
      ],
      "payable": false,
      "stateMutability": "view",
      "type": "function"
    },
    {
      "constant": false,
      "inputs": [
        {
          "name": "_from",
          "type": "address"
        },
        {
          "name": "_value",
          "type": "uint256"
        }
      ],
      "name": "burnFrom",
      "outputs": [
        {
          "name": "success",
          "type": "bool"
        }
      ],
      "payable": false,
      "stateMutability": "nonpayable",
      "type": "function"
    },
    {
      "constant": true,
      "inputs": [],
      "name": "ETH_PRICE",
      "outputs": [
        {
          "name": "",
          "type": "uint256"
        }
      ],
      "payable": false,
      "stateMutability": "view",
      "type": "function"
    },
    {
      "constant": true,
      "inputs": [],
      "name": "owner",
      "outputs": [
        {
          "name": "",
          "type": "address"
        }
      ],
      "payable": false,
      "stateMutability": "view",
      "type": "function"
    },
    {
      "constant": true,
      "inputs": [],
      "name": "symbol",
      "outputs": [
        {
          "name": "",
          "type": "string"
        }
      ],
      "payable": false,
      "stateMutability": "view",
      "type": "function"
    },
    {
      "constant": true,
      "inputs": [],
      "name": "initSupply",
      "outputs": [
        {
          "name": "",
          "type": "uint256"
        }
      ],
      "payable": false,
      "stateMutability": "view",
      "type": "function"
    },
    {
      "constant": false,
      "inputs": [
        {
          "name": "_to",
          "type": "address"
        },
        {
          "name": "_value",
          "type": "uint256"
        }
      ],
      "name": "transfer",
      "outputs": [
        {
          "name": "success",
          "type": "bool"
        }
      ],
      "payable": false,
      "stateMutability": "nonpayable",
      "type": "function"
    },
    {
      "constant": true,
      "inputs": [
        {
          "name": "",
          "type": "address"
        }
      ],
      "name": "frozenAccount",
      "outputs": [
        {
          "name": "",
          "type": "bool"
        }
      ],
      "payable": false,
      "stateMutability": "view",
      "type": "function"
    },
    {
      "constant": true,
      "inputs": [
        {
          "name": "",
          "type": "uint256"
        }
      ],
      "name": "exchange_addresses",
      "outputs": [
        {
          "name": "",
          "type": "address"
        }
      ],
      "payable": false,
      "stateMutability": "view",
      "type": "function"
    },
    {
      "constant": false,
      "inputs": [
        {
          "name": "_spender",
          "type": "address"
        },
        {
          "name": "_value",
          "type": "uint256"
        },
        {
          "name": "_extraData",
          "type": "bytes"
        }
      ],
      "name": "approveAndCall",
      "outputs": [
        {
          "name": "success",
          "type": "bool"
        }
      ],
      "payable": false,
      "stateMutability": "nonpayable",
      "type": "function"
    },
    {
      "constant": true,
      "inputs": [
        {
          "name": "",
          "type": "address"
        },
        {
          "name": "",
          "type": "address"
        }
      ],
      "name": "allowance",
      "outputs": [
        {
          "name": "",
          "type": "uint256"
        }
      ],
      "payable": false,
      "stateMutability": "view",
      "type": "function"
    },
    {
      "constant": true,
      "inputs": [],
      "name": "oraclize_fee",
      "outputs": [
        {
          "name": "",
          "type": "uint256"
        }
      ],
      "payable": false,
      "stateMutability": "view",
      "type": "function"
    },
    {
      "constant": false,
      "inputs": [
        {
          "name": "newOwner",
          "type": "address"
        }
      ],
      "name": "transferOwnership",
      "outputs": [],
      "payable": false,
      "stateMutability": "nonpayable",
      "type": "function"
    },
    {
      "inputs": [],
      "payable": true,
      "stateMutability": "payable",
      "type": "constructor"
    },
    {
      "payable": true,
      "stateMutability": "payable",
      "type": "fallback"
    },
    {
      "anonymous": false,
      "inputs": [
        {
          "indexed": false,
          "name": "_description",
          "type": "string"
        },
        {
          "indexed": false,
          "name": "_time",
          "type": "uint256"
        }
      ],
      "name": "OraclizeLog",
      "type": "event"
    },
    {
      "anonymous": false,
      "inputs": [
        {
          "indexed": false,
          "name": "description",
          "type": "string"
        }
      ],
      "name": "LogNewOraclizeQuery",
      "type": "event"
    },
    {
      "anonymous": false,
      "inputs": [
        {
          "indexed": false,
          "name": "_error_message",
          "type": "string"
        }
      ],
      "name": "SendErrorMessage",
      "type": "event"
    },
    {
      "anonymous": false,
      "inputs": [
        {
          "indexed": false,
          "name": "_owner_address",
          "type": "address"
        },
        {
          "indexed": false,
          "name": "_device_address",
          "type": "address"
        },
        {
          "indexed": false,
          "name": "_device_serial_number",
          "type": "string"
        },
        {
          "indexed": false,
          "name": "_device_name",
          "type": "string"
        },
        {
          "indexed": false,
          "name": "_success",
          "type": "bool"
        }
      ],
      "name": "AddDevice",
      "type": "event"
    },
    {
      "anonymous": false,
      "inputs": [
        {
          "indexed": false,
          "name": "target",
          "type": "address"
        },
        {
          "indexed": false,
          "name": "frozen",
          "type": "bool"
        }
      ],
      "name": "FrozenFunds",
      "type": "event"
    },
    {
      "anonymous": false,
      "inputs": [
        {
          "indexed": false,
          "name": "",
          "type": "string"
        },
        {
          "indexed": false,
          "name": "",
          "type": "uint256"
        },
        {
          "indexed": false,
          "name": "",
          "type": "string"
        },
        {
          "indexed": false,
          "name": "",
          "type": "uint256"
        },
        {
          "indexed": false,
          "name": "",
          "type": "uint256"
        },
        {
          "indexed": false,
          "name": "",
          "type": "bool"
        }
      ],
      "name": "ActionAdd",
      "type": "event"
    },
    {
      "anonymous": false,
      "inputs": [
        {
          "indexed": false,
          "name": "",
          "type": "string"
        },
        {
          "indexed": false,
          "name": "",
          "type": "uint256"
        },
        {
          "indexed": false,
          "name": "",
          "type": "string"
        },
        {
          "indexed": false,
          "name": "",
          "type": "uint256"
        },
        {
          "indexed": false,
          "name": "",
          "type": "uint256"
        },
        {
          "indexed": false,
          "name": "",
          "type": "bool"
        }
      ],
      "name": "ActionEnable",
      "type": "event"
    },
    {
      "anonymous": false,
      "inputs": [
        {
          "indexed": false,
          "name": "",
          "type": "string"
        },
        {
          "indexed": false,
          "name": "",
          "type": "uint256"
        },
        {
          "indexed": false,
          "name": "",
          "type": "string"
        },
        {
          "indexed": false,
          "name": "",
          "type": "uint256"
        },
        {
          "indexed": false,
          "name": "",
          "type": "uint256"
        },
        {
          "indexed": false,
          "name": "",
          "type": "bool"
        }
      ],
      "name": "ActionDisable",
      "type": "event"
    },
    {
      "anonymous": false,
      "inputs": [
        {
          "indexed": false,
          "name": "_address",
          "type": "address"
        },
        {
          "indexed": false,
          "name": "_amount_received",
          "type": "uint256"
        },
        {
          "indexed": false,
          "name": "_amount_to_give",
          "type": "uint256"
        }
      ],
      "name": "ExchangeToEther",
      "type": "event"
    },
    {
      "anonymous": false,
      "inputs": [
        {
          "indexed": false,
          "name": "_address",
          "type": "address"
        },
        {
          "indexed": false,
          "name": "_amount_received",
          "type": "uint256"
        },
        {
          "indexed": false,
          "name": "_amount_to_give",
          "type": "uint256"
        }
      ],
      "name": "ExchangeToRaw",
      "type": "event"
    },
    {
      "anonymous": false,
      "inputs": [
        {
          "indexed": true,
          "name": "from",
          "type": "address"
        },
        {
          "indexed": true,
          "name": "to",
          "type": "address"
        },
        {
          "indexed": false,
          "name": "value",
          "type": "uint256"
        }
      ],
      "name": "Transfer",
      "type": "event"
    },
    {
      "anonymous": false,
      "inputs": [
        {
          "indexed": true,
          "name": "tokenOwner",
          "type": "address"
        },
        {
          "indexed": true,
          "name": "spender",
          "type": "address"
        },
        {
          "indexed": false,
          "name": "tokens",
          "type": "uint256"
        }
      ],
      "name": "Approval",
      "type": "event"
    },
    {
      "anonymous": false,
      "inputs": [
        {
          "indexed": true,
          "name": "from",
          "type": "address"
        },
        {
          "indexed": false,
          "name": "value",
          "type": "uint256"
        }
      ],
      "name": "Burn",
      "type": "event"
    },
    {
      "constant": false,
      "inputs": [
        {
          "name": "target",
          "type": "address"
        },
        {
          "name": "mintedAmount",
          "type": "uint256"
        }
      ],
      "name": "mintToken",
      "outputs": [],
      "payable": false,
      "stateMutability": "nonpayable",
      "type": "function"
    },
    {
      "constant": false,
      "inputs": [
        {
          "name": "target",
          "type": "address"
        },
        {
          "name": "freeze",
          "type": "bool"
        }
      ],
      "name": "freezeAccount",
      "outputs": [],
      "payable": false,
      "stateMutability": "nonpayable",
      "type": "function"
    },
    {
      "constant": false,
      "inputs": [],
      "name": "increaseSupply",
      "outputs": [],
      "payable": false,
      "stateMutability": "nonpayable",
      "type": "function"
    },
    {
      "constant": true,
      "inputs": [],
      "name": "getCurrentSupply",
      "outputs": [
        {
          "name": "",
          "type": "uint256"
        }
      ],
      "payable": false,
      "stateMutability": "view",
      "type": "function"
    },
    {
      "constant": false,
      "inputs": [
        {
          "name": "value",
          "type": "uint256"
        }
      ],
      "name": "withdraw",
      "outputs": [
        {
          "name": "success",
          "type": "bool"
        }
      ],
      "payable": false,
      "stateMutability": "nonpayable",
      "type": "function"
    },
    {
      "constant": false,
      "inputs": [
        {
          "name": "_address",
          "type": "address"
        },
        {
          "name": "_raw_amount",
          "type": "uint256"
        },
        {
          "name": "_eth_received",
          "type": "uint256"
        },
        {
          "name": "_eth_price",
          "type": "uint256"
        },
        {
          "name": "_time_ms",
          "type": "uint256"
        }
      ],
      "name": "addExchangeHistory",
      "outputs": [
        {
          "name": "",
          "type": "bool"
        }
      ],
      "payable": false,
      "stateMutability": "nonpayable",
      "type": "function"
    },
    {
      "constant": false,
      "inputs": [
        {
          "name": "_address",
          "type": "address"
        },
        {
          "name": "_device_serial_number",
          "type": "string"
        },
        {
          "name": "_device_name",
          "type": "string"
        }
      ],
      "name": "addDevice",
      "outputs": [
        {
          "name": "success",
          "type": "bool"
        }
      ],
      "payable": false,
      "stateMutability": "nonpayable",
      "type": "function"
    },
    {
      "constant": false,
      "inputs": [
        {
          "name": "_device_address",
          "type": "address"
        },
        {
          "name": "_device_serial_number",
          "type": "string"
        },
        {
          "name": "_action_name",
          "type": "string"
        },
        {
          "name": "_action_price",
          "type": "uint256"
        },
        {
          "name": "_action_duration",
          "type": "uint256"
        }
      ],
      "name": "addAction",
      "outputs": [
        {
          "name": "success",
          "type": "bool"
        }
      ],
      "payable": false,
      "stateMutability": "nonpayable",
      "type": "function"
    },
    {
      "constant": false,
      "inputs": [
        {
          "name": "_device_address",
          "type": "address"
        },
        {
          "name": "_device_serial_number",
          "type": "string"
        },
        {
          "name": "_action_id",
          "type": "uint256"
        }
      ],
      "name": "enableAction",
      "outputs": [
        {
          "name": "success",
          "type": "bool"
        }
      ],
      "payable": true,
      "stateMutability": "payable",
      "type": "function"
    },
    {
      "constant": false,
      "inputs": [
        {
          "name": "_device_address",
          "type": "address"
        },
        {
          "name": "_device_serial_number",
          "type": "string"
        },
        {
          "name": "_action_id",
          "type": "uint256"
        }
      ],
      "name": "disableAction",
      "outputs": [
        {
          "name": "success",
          "type": "bool"
        }
      ],
      "payable": false,
      "stateMutability": "nonpayable",
      "type": "function"
    },
    {
      "constant": true,
      "inputs": [
        {
          "name": "_address",
          "type": "address"
        }
      ],
      "name": "getBalance",
      "outputs": [
        {
          "name": "",
          "type": "uint256"
        }
      ],
      "payable": false,
      "stateMutability": "view",
      "type": "function"
    },
    {
      "constant": true,
      "inputs": [],
      "name": "getContractBalance",
      "outputs": [
        {
          "name": "",
          "type": "uint256"
        }
      ],
      "payable": false,
      "stateMutability": "view",
      "type": "function"
    },
    {
      "constant": true,
      "inputs": [],
      "name": "getTotalDevices",
      "outputs": [
        {
          "name": "",
          "type": "uint256"
        }
      ],
      "payable": false,
      "stateMutability": "view",
      "type": "function"
    },
    {
      "constant": true,
      "inputs": [
        {
          "name": "_address",
          "type": "address"
        }
      ],
      "name": "getExchangeLeftOf",
      "outputs": [
        {
          "name": "",
          "type": "uint256"
        }
      ],
      "payable": false,
      "stateMutability": "view",
      "type": "function"
    },
    {
      "constant": true,
      "inputs": [
        {
          "name": "_device_address",
          "type": "address"
        },
        {
          "name": "_device_serial_number",
          "type": "string"
        }
      ],
      "name": "getDevice",
      "outputs": [
        {
          "name": "",
          "type": "string"
        },
        {
          "name": "",
          "type": "uint256"
        },
        {
          "name": "",
          "type": "address"
        },
        {
          "name": "",
          "type": "bool"
        }
      ],
      "payable": false,
      "stateMutability": "view",
      "type": "function"
    },
    {
      "constant": true,
      "inputs": [
        {
          "name": "_device_address",
          "type": "address"
        },
        {
          "name": "_device_serial_number",
          "type": "string"
        },
        {
          "name": "_index",
          "type": "uint256"
        }
      ],
      "name": "getDeviceActionOf",
      "outputs": [
        {
          "name": "",
          "type": "uint256"
        },
        {
          "name": "",
          "type": "string"
        },
        {
          "name": "",
          "type": "uint256"
        },
        {
          "name": "",
          "type": "uint256"
        },
        {
          "name": "",
          "type": "bool"
        },
        {
          "name": "",
          "type": "bool"
        }
      ],
      "payable": false,
      "stateMutability": "view",
      "type": "function"
    },
    {
      "constant": true,
      "inputs": [
        {
          "name": "_device_address",
          "type": "address"
        },
        {
          "name": "_device_serial_number",
          "type": "string"
        },
        {
          "name": "_index",
          "type": "uint256"
        }
      ],
      "name": "getDeviceActionHistoryOf",
      "outputs": [
        {
          "name": "",
          "type": "uint256"
        },
        {
          "name": "",
          "type": "string"
        },
        {
          "name": "",
          "type": "uint256"
        },
        {
          "name": "",
          "type": "uint256"
        },
        {
          "name": "",
          "type": "address"
        },
        {
          "name": "",
          "type": "uint256"
        }
      ],
      "payable": false,
      "stateMutability": "view",
      "type": "function"
    },
    {
      "constant": true,
      "inputs": [
        {
          "name": "_device_address",
          "type": "address"
        },
        {
          "name": "_device_serial_number",
          "type": "string"
        }
      ],
      "name": "getActionLengthOf",
      "outputs": [
        {
          "name": "",
          "type": "uint256"
        }
      ],
      "payable": false,
      "stateMutability": "view",
      "type": "function"
    },
    {
      "constant": true,
      "inputs": [
        {
          "name": "_device_address",
          "type": "address"
        },
        {
          "name": "_device_serial_number",
          "type": "string"
        }
      ],
      "name": "getHistoryLengthOf",
      "outputs": [
        {
          "name": "",
          "type": "uint256"
        }
      ],
      "payable": false,
      "stateMutability": "view",
      "type": "function"
    },
    {
      "constant": true,
      "inputs": [],
      "name": "getAddresses",
      "outputs": [
        {
          "name": "",
          "type": "address[]"
        }
      ],
      "payable": false,
      "stateMutability": "view",
      "type": "function"
    },
    {
      "constant": true,
      "inputs": [],
      "name": "getEthereumPrice",
      "outputs": [
        {
          "name": "",
          "type": "uint256"
        }
      ],
      "payable": false,
      "stateMutability": "view",
      "type": "function"
    }
  ],
  "bytecode": "0x60806040526012600360006101000a81548160ff021916908360ff1602179055506101f46008556301312d006040805190810160405280600d81526020017f526177626f7420546573742031000000000000000000000000000000000000008152506040805190810160405280600381526020017f5257540000000000000000000000000000000000000000000000000000000000815250336000806101000a81548173ffffffffffffffffffffffffffffffffffffffff021916908373ffffffffffffffffffffffffffffffffffffffff160217905550600360009054906101000a900460ff1660ff16600a0a8302600481905550600360009054906101000a900460ff1660ff16600a0a830260058190555081600190805190602001906200012b92919062000173565b5080600290805190602001906200014492919062000173565b505050506000600d60006101000a81548160ff021916908360028111156200016857fe5b021790555062000222565b828054600181600116156101000203166002900490600052602060002090601f016020900481019282601f10620001b657805160ff1916838001178555620001e7565b82800160010185558215620001e7579182015b82811115620001e6578251825591602001919060010190620001c9565b5b509050620001f69190620001fa565b5090565b6200021f91905b808211156200021b57600081600090555060010162000201565b5090565b90565b61512f80620002326000396000f300608060405260043610610225576000357c0100000000000000000000000000000000000000000000000000000000900463ffffffff168063013abe8f1461035f57806306fdde03146103985780630892354514610428578063095ea7b3146104ab5780630a62bf67146105105780630bb4b6aa1461060b5780630ec0bfb71461066d57806318160ddd1461070b578063207ee0b21461073657806323b872dd146107d35780632e1a7d4d146108585780632f5da3471461089d578063313ce567146109435780633b0600921461097457806342966c68146109cb578063470a9f8414610a105780634f3e1efc14610a3b5780634f58333a14610a665780635002842414610bc157806365159bdc14610cd65780636f9fb98a14610dbd57806370a0823114610de857806379c6506814610e3f57806379cc679014610e8c5780638832bc2914610ef15780638da5cb5b14610f1c5780639003f52014610f7357806395d89b41146110ba57806397d63f931461114a5780639bddd05f14611175578063a39fac12146111a0578063a9059cbb1461120c578063ac98f9f614611271578063b414d4b61461130e578063bdc7b83f14611369578063c092ebe914611414578063c10d416d1461154b578063cae9ca51146115b8578063d196508014611663578063dc61d1611461167a578063dd62ed3e146116a5578063e724529c1461171c578063edce3c501461176b578063f2fde38b14611796578063f8b2cb4f146117d9575b60006002600854340202905080600660003373ffffffffffffffffffffffffffffffffffffffff1673ffffffffffffffffffffffffffffffffffffffff168152602001908152602001600020600082825401925050819055506102883382611830565b5080601160003373ffffffffffffffffffffffffffffffffffffffff1673ffffffffffffffffffffffffffffffffffffffff168152602001908152602001600020600001600082825401925050819055506102e833823460085442611847565b507fe9398dec28f4a24325d0afa01cf83bb5ccb4c39f76638c99950181f8c6d71cf6333483604051808473ffffffffffffffffffffffffffffffffffffffff1673ffffffffffffffffffffffffffffffffffffffff168152602001838152602001828152602001935050505060405180910390a150005b34801561036b57600080fd5b50610374611a0d565b6040518082600281111561038457fe5b60ff16815260200191505060405180910390f35b3480156103a457600080fd5b506103ad611a20565b6040518080602001828103825283818151815260200191508051906020019080838360005b838110156103ed5780820151818401526020810190506103d2565b50505050905090810190601f16801561041a5780820380516001836020036101000a031916815260200191505b509250505060405180910390f35b34801561043457600080fd5b50610491600480360381019080803573ffffffffffffffffffffffffffffffffffffffff16906020019092919080359060200190929190803590602001909291908035906020019092919080359060200190929190505050611847565b604051808215151515815260200191505060405180910390f35b3480156104b757600080fd5b506104f6600480360381019080803573ffffffffffffffffffffffffffffffffffffffff16906020019092919080359060200190929190505050611abe565b604051808215151515815260200191505060405180910390f35b34801561051c57600080fd5b506105f1600480360381019080803573ffffffffffffffffffffffffffffffffffffffff169060200190929190803590602001908201803590602001908080601f0160208091040260200160405190810160405280939291908181526020018383808284378201915050505050509192919290803590602001908201803590602001908080601f01602080910402602001604051908101604052809392919081815260200183838082843782019150505050505091929192908035906020019092919080359060200190929190505050611b4b565b604051808215151515815260200191505060405180910390f35b34801561061757600080fd5b5061064c600480360381019080803573ffffffffffffffffffffffffffffffffffffffff169060200190929190505050612020565b60405180838152602001821515151581526020019250505060405180910390f35b6106f1600480360381019080803573ffffffffffffffffffffffffffffffffffffffff169060200190929190803590602001908201803590602001908080601f016020809104026020016040519081016040528093929190818152602001838380828437820191505050505050919291929080359060200190929190505050612051565b604051808215151515815260200191505060405180910390f35b34801561071757600080fd5b506107206128af565b6040518082815260200191505060405180910390f35b34801561074257600080fd5b506107bd600480360381019080803573ffffffffffffffffffffffffffffffffffffffff169060200190929190803590602001908201803590602001908080601f01602080910402602001604051908101604052809392919081815260200183838082843782019150505050505091929192905050506128b5565b6040518082815260200191505060405180910390f35b3480156107df57600080fd5b5061083e600480360381019080803573ffffffffffffffffffffffffffffffffffffffff169060200190929190803573ffffffffffffffffffffffffffffffffffffffff1690602001909291908035906020019092919050505061296e565b604051808215151515815260200191505060405180910390f35b34801561086457600080fd5b5061088360048036038101908080359060200190929190505050612a9b565b604051808215151515815260200191505060405180910390f35b3480156108a957600080fd5b506108c860048036038101908080359060200190929190505050612d45565b6040518080602001828103825283818151815260200191508051906020019080838360005b838110156109085780820151818401526020810190506108ed565b50505050905090810190601f1680156109355780820380516001836020036101000a031916815260200191505b509250505060405180910390f35b34801561094f57600080fd5b50610958612e00565b604051808260ff1660ff16815260200191505060405180910390f35b34801561098057600080fd5b506109b5600480360381019080803573ffffffffffffffffffffffffffffffffffffffff169060200190929190505050612e13565b6040518082815260200191505060405180910390f35b3480156109d757600080fd5b506109f660048036038101908080359060200190929190505050612e5f565b604051808215151515815260200191505060405180910390f35b348015610a1c57600080fd5b50610a25612f63565b6040518082815260200191505060405180910390f35b348015610a4757600080fd5b50610a50612f69565b6040518082815260200191505060405180910390f35b348015610a7257600080fd5b50610af7600480360381019080803573ffffffffffffffffffffffffffffffffffffffff169060200190929190803590602001908201803590602001908080601f016020809104026020016040519081016040528093929190818152602001838380828437820191505050505050919291929080359060200190929190505050612f73565b60405180878152602001806020018681526020018581526020018473ffffffffffffffffffffffffffffffffffffffff1673ffffffffffffffffffffffffffffffffffffffff168152602001838152602001828103825287818151815260200191508051906020019080838360005b83811015610b81578082015181840152602081019050610b66565b50505050905090810190601f168015610bae5780820380516001836020036101000a031916815260200191505b5097505050505050505060405180910390f35b348015610bcd57600080fd5b50610c0c600480360381019080803573ffffffffffffffffffffffffffffffffffffffff16906020019092919080359060200190929190505050613139565b60405180878152602001806020018681526020018581526020018473ffffffffffffffffffffffffffffffffffffffff1673ffffffffffffffffffffffffffffffffffffffff168152602001838152602001828103825287818151815260200191508051906020019080838360005b83811015610c96578082015181840152602081019050610c7b565b50505050905090810190601f168015610cc35780820380516001836020036101000a031916815260200191505b5097505050505050505060405180910390f35b348015610ce257600080fd5b50610da3600480360381019080803573ffffffffffffffffffffffffffffffffffffffff169060200190929190803590602001908201803590602001908080601f0160208091040260200160405190810160405280939291908181526020018383808284378201915050505050509192919290803590602001908201803590602001908080601f0160208091040260200160405190810160405280939291908181526020018383808284378201915050505050509192919290505050613249565b604051808215151515815260200191505060405180910390f35b348015610dc957600080fd5b50610dd261369f565b6040518082815260200191505060405180910390f35b348015610df457600080fd5b50610e29600480360381019080803573ffffffffffffffffffffffffffffffffffffffff1690602001909291905050506136be565b6040518082815260200191505060405180910390f35b348015610e4b57600080fd5b50610e8a600480360381019080803573ffffffffffffffffffffffffffffffffffffffff169060200190929190803590602001909291905050506136d6565b005b348015610e9857600080fd5b50610ed7600480360381019080803573ffffffffffffffffffffffffffffffffffffffff16906020019092919080359060200190929190505050613847565b604051808215151515815260200191505060405180910390f35b348015610efd57600080fd5b50610f06613a61565b6040518082815260200191505060405180910390f35b348015610f2857600080fd5b50610f31613a67565b604051808273ffffffffffffffffffffffffffffffffffffffff1673ffffffffffffffffffffffffffffffffffffffff16815260200191505060405180910390f35b348015610f7f57600080fd5b50610ffa600480360381019080803573ffffffffffffffffffffffffffffffffffffffff169060200190929190803590602001908201803590602001908080601f0160208091040260200160405190810160405280939291908181526020018383808284378201915050505050509192919290505050613a8c565b60405180806020018581526020018473ffffffffffffffffffffffffffffffffffffffff1673ffffffffffffffffffffffffffffffffffffffff16815260200183151515158152602001828103825286818151815260200191508051906020019080838360005b8381101561107c578082015181840152602081019050611061565b50505050905090810190601f1680156110a95780820380516001836020036101000a031916815260200191505b509550505050505060405180910390f35b3480156110c657600080fd5b506110cf613c2c565b6040518080602001828103825283818151815260200191508051906020019080838360005b8381101561110f5780820151818401526020810190506110f4565b50505050905090810190601f16801561113c5780820380516001836020036101000a031916815260200191505b509250505060405180910390f35b34801561115657600080fd5b5061115f613cca565b6040518082815260200191505060405180910390f35b34801561118157600080fd5b5061118a613cd0565b6040518082815260200191505060405180910390f35b3480156111ac57600080fd5b506111b5613cda565b6040518080602001828103825283818151815260200191508051906020019060200280838360005b838110156111f85780820151818401526020810190506111dd565b505050509050019250505060405180910390f35b34801561121857600080fd5b50611257600480360381019080803573ffffffffffffffffffffffffffffffffffffffff16906020019092919080359060200190929190505050611830565b604051808215151515815260200191505060405180910390f35b34801561127d57600080fd5b506112f8600480360381019080803573ffffffffffffffffffffffffffffffffffffffff169060200190929190803590602001908201803590602001908080601f0160208091040260200160405190810160405280939291908181526020018383808284378201915050505050509192919290505050613d68565b6040518082815260200191505060405180910390f35b34801561131a57600080fd5b5061134f600480360381019080803573ffffffffffffffffffffffffffffffffffffffff169060200190929190505050613e21565b604051808215151515815260200191505060405180910390f35b34801561137557600080fd5b506113fa600480360381019080803573ffffffffffffffffffffffffffffffffffffffff169060200190929190803590602001908201803590602001908080601f016020809104026020016040519081016040528093929190818152602001838380828437820191505050505050919291929080359060200190929190505050613e41565b604051808215151515815260200191505060405180910390f35b34801561142057600080fd5b506114a5600480360381019080803573ffffffffffffffffffffffffffffffffffffffff169060200190929190803590602001908201803590602001908080601f01602080910402602001604051908101604052809392919081815260200183838082843782019150505050505091929192908035906020019092919050505061457a565b60405180878152602001806020018681526020018581526020018415151515815260200183151515158152602001828103825287818151815260200191508051906020019080838360005b8381101561150b5780820151818401526020810190506114f0565b50505050905090810190601f1680156115385780820380516001836020036101000a031916815260200191505b5097505050505050505060405180910390f35b34801561155757600080fd5b506115766004803603810190808035906020019092919050505061473a565b604051808273ffffffffffffffffffffffffffffffffffffffff1673ffffffffffffffffffffffffffffffffffffffff16815260200191505060405180910390f35b3480156115c457600080fd5b50611649600480360381019080803573ffffffffffffffffffffffffffffffffffffffff16906020019092919080359060200190929190803590602001908201803590602001908080601f0160208091040260200160405190810160405280939291908181526020018383808284378201915050505050509192919290505050614778565b604051808215151515815260200191505060405180910390f35b34801561166f57600080fd5b506116786148fb565b005b34801561168657600080fd5b5061168f614976565b6040518082815260200191505060405180910390f35b3480156116b157600080fd5b50611706600480360381019080803573ffffffffffffffffffffffffffffffffffffffff169060200190929190803573ffffffffffffffffffffffffffffffffffffffff169060200190929190505050614983565b6040518082815260200191505060405180910390f35b34801561172857600080fd5b50611769600480360381019080803573ffffffffffffffffffffffffffffffffffffffff1690602001909291908035151590602001909291905050506149a8565b005b34801561177757600080fd5b50611780614acd565b6040518082815260200191505060405180910390f35b3480156117a257600080fd5b506117d7600480360381019080803573ffffffffffffffffffffffffffffffffffffffff169060200190929190505050614ad3565b005b3480156117e557600080fd5b5061181a600480360381019080803573ffffffffffffffffffffffffffffffffffffffff169060200190929190505050614b71565b6040518082815260200191505060405180910390f35b600061183d338484614bba565b6001905092915050565b6000601160003373ffffffffffffffffffffffffffffffffffffffff1673ffffffffffffffffffffffffffffffffffffffff16815260200190815260200160002060010160c060405190810160405280878152602001600081526020018681526020018581526020018481526020016001151581525090806001815401808255809150509060018203906000526020600020906006020160009091929091909150600082015181600001556020820151816001015560408201518160020155606082015181600301556080820151816004015560a08201518160050160006101000a81548160ff02191690831515021790555050505060001515601160008873ffffffffffffffffffffffffffffffffffffffff1673ffffffffffffffffffffffffffffffffffffffff16815260200190815260200160002060020160009054906101000a900460ff1615151415611a0057600b8690806001815401808255809150509060018203906000526020600020016000909192909190916101000a81548173ffffffffffffffffffffffffffffffffffffffff021916908373ffffffffffffffffffffffffffffffffffffffff160217905550505b6001905095945050505050565b600d60009054906101000a900460ff1681565b60018054600181600116156101000203166002900480601f016020809104026020016040519081016040528092919081815260200182805460018160011615610100020316600290048015611ab65780601f10611a8b57610100808354040283529160200191611ab6565b820191906000526020600020905b815481529060010190602001808311611a9957829003601f168201915b505050505081565b600081600760003373ffffffffffffffffffffffffffffffffffffffff1673ffffffffffffffffffffffffffffffffffffffff16815260200190815260200160002060008573ffffffffffffffffffffffffffffffffffffffff1673ffffffffffffffffffffffffffffffffffffffff168152602001908152602001600020819055506001905092915050565b60008060001515600e60008973ffffffffffffffffffffffffffffffffffffffff1673ffffffffffffffffffffffffffffffffffffffff168152602001908152602001600020876040518082805190602001908083835b602083101515611bc75780518252602082019150602081019050602083039250611ba2565b6001836020036101000a038019825116818451168082178552505050505050905001915050908152602001604051809103902060050160009054906101000a900460ff1615151415611caa577ff24fdb01b39b282f0a73d8e2396bfc3b56e46971230b5e86c6a4b8b19892ef666040518080602001828103825260268152602001807f4465766963652073657269616c206e756d626572206973206e6f74206176616981526020017f6c61626c652e000000000000000000000000000000000000000000000000000081525060400191505060405180910390a160009150612016565b600e60008873ffffffffffffffffffffffffffffffffffffffff1673ffffffffffffffffffffffffffffffffffffffff168152602001908152602001600020866040518082805190602001908083835b602083101515611d1f5780518252602082019150602081019050602083039250611cfa565b6001836020036101000a0380198251168184511680821785525050505050509050019150509081526020016040518091039020600301805490509050600e60008873ffffffffffffffffffffffffffffffffffffffff1673ffffffffffffffffffffffffffffffffffffffff168152602001908152602001600020866040518082805190602001908083835b602083101515611dd05780518252602082019150602081019050602083039250611dab565b6001836020036101000a038019825116818451168082178552505050505050905001915050908152602001604051809103902060030160c0604051908101604052808381526020018781526020018681526020018581526020016000151581526020016001151581525090806001815401808255809150509060018203906000526020600020906005020160009091929091909150600082015181600001556020820151816001019080519060200190611e8b929190614ed0565b50604082015181600201556060820151816003015560808201518160040160006101000a81548160ff02191690831515021790555060a08201518160040160016101000a81548160ff0219169083151502179055505050507f26627a764f955b62fb708fed19fc43286b51fa31657f21e5ed5380d8615166ae8682878787600160405180806020018781526020018060200186815260200185815260200184151515158152602001838103835289818151815260200191508051906020019080838360005b83811015611f6b578082015181840152602081019050611f50565b50505050905090810190601f168015611f985780820380516001836020036101000a031916815260200191505b50838103825287818151815260200191508051906020019080838360005b83811015611fd1578082015181840152602081019050611fb6565b50505050905090810190601f168015611ffe5780820380516001836020036101000a031916815260200191505b509850505050505050505060405180910390a1600191505b5095945050505050565b60116020528060005260406000206000915090508060000154908060020160009054906101000a900460ff16905082565b60008060001515600e60008773ffffffffffffffffffffffffffffffffffffffff1673ffffffffffffffffffffffffffffffffffffffff168152602001908152602001600020856040518082805190602001908083835b6020831015156120cd57805182526020820191506020810190506020830392506120a8565b6001836020036101000a038019825116818451168082178552505050505050905001915050908152602001604051809103902060050160009054906101000a900460ff16151514156121b0577ff24fdb01b39b282f0a73d8e2396bfc3b56e46971230b5e86c6a4b8b19892ef666040518080602001828103825260268152602001807f4465766963652073657269616c206e756d626572206973206e6f74206176616981526020017f6c61626c652e000000000000000000000000000000000000000000000000000081525060400191505060405180910390a1600091506128a7565b828160000181905550600e60008673ffffffffffffffffffffffffffffffffffffffff1673ffffffffffffffffffffffffffffffffffffffff168152602001908152602001600020846040518082805190602001908083835b60208310151561222e5780518252602082019150602081019050602083039250612209565b6001836020036101000a03801982511681845116808217855250505050505090500191505090815260200160405180910390206003018381548110151561227157fe5b90600052602060002090600502016001018160010190805460018160011615610100020316600290046122a5929190614f50565b50600e60008673ffffffffffffffffffffffffffffffffffffffff1673ffffffffffffffffffffffffffffffffffffffff168152602001908152602001600020846040518082805190602001908083835b60208310151561231b57805182526020820191506020810190506020830392506122f6565b6001836020036101000a03801982511681845116808217855250505050505090500191505090815260200160405180910390206003018381548110151561235e57fe5b9060005260206000209060050201600201548160020181905550600e60008673ffffffffffffffffffffffffffffffffffffffff1673ffffffffffffffffffffffffffffffffffffffff168152602001908152602001600020846040518082805190602001908083835b6020831015156123ed57805182526020820191506020810190506020830392506123c8565b6001836020036101000a03801982511681845116808217855250505050505090500191505090815260200160405180910390206003018381548110151561243057fe5b9060005260206000209060050201600301548160030181905550338160040160006101000a81548173ffffffffffffffffffffffffffffffffffffffff021916908373ffffffffffffffffffffffffffffffffffffffff160217905550428160050181905550600e60008673ffffffffffffffffffffffffffffffffffffffff1673ffffffffffffffffffffffffffffffffffffffff168152602001908152602001600020846040518082805190602001908083835b60208310151561250b57805182526020820191506020810190506020830392506124e6565b6001836020036101000a03801982511681845116808217855250505050505090500191505090815260200160405180910390206004018190806001815401808255809150509060018203906000526020600020906006020160009091929091909150600082015481600001556001820181600101908054600181600116156101000203166002900461259e929190614fd7565b5060028201548160020155600382015481600301556004820160009054906101000a900473ffffffffffffffffffffffffffffffffffffffff168160040160006101000a81548173ffffffffffffffffffffffffffffffffffffffff021916908373ffffffffffffffffffffffffffffffffffffffff16021790555060058201548160050155505050601060003373ffffffffffffffffffffffffffffffffffffffff1673ffffffffffffffffffffffffffffffffffffffff168152602001908152602001600020819080600181540180825580915050906001820390600052602060002090600602016000909192909190915060008201548160000155600182018160010190805460018160011615610100020316600290046126c3929190614fd7565b5060028201548160020155600382015481600301556004820160009054906101000a900473ffffffffffffffffffffffffffffffffffffffff168160040160006101000a81548173ffffffffffffffffffffffffffffffffffffffff021916908373ffffffffffffffffffffffffffffffffffffffff160217905550600582015481600501555050507f875b40a67d33b0171b10d7197a7c57cc4a8a03020e69c119753e83c07790640784848360010184600201548560030154600160405180806020018781526020018060200186815260200185815260200184151515158152602001838103835289818151815260200191508051906020019080838360005b838110156127df5780820151818401526020810190506127c4565b50505050905090810190601f16801561280c5780820380516001836020036101000a031916815260200191505b5083810382528781815460018160011615610100020316600290048152602001915080546001816001161561010002031660029004801561288e5780601f106128635761010080835404028352916020019161288e565b820191906000526020600020905b81548152906001019060200180831161287157829003601f168201915b50509850505050505050505060405180910390a1600191505b509392505050565b60045481565b6000600e60008473ffffffffffffffffffffffffffffffffffffffff1673ffffffffffffffffffffffffffffffffffffffff168152602001908152602001600020826040518082805190602001908083835b60208310151561292c5780518252602082019150602081019050602083039250612907565b6001836020036101000a038019825116818451168082178552505050505050905001915050908152602001604051809103902060030180549050905092915050565b6000600760008573ffffffffffffffffffffffffffffffffffffffff1673ffffffffffffffffffffffffffffffffffffffff16815260200190815260200160002060003373ffffffffffffffffffffffffffffffffffffffff1673ffffffffffffffffffffffffffffffffffffffff1681526020019081526020016000205482111515156129fb57600080fd5b81600760008673ffffffffffffffffffffffffffffffffffffffff1673ffffffffffffffffffffffffffffffffffffffff16815260200190815260200160002060003373ffffffffffffffffffffffffffffffffffffffff1673ffffffffffffffffffffffffffffffffffffffff16815260200190815260200160002060008282540392505081905550612a90848484614bba565b600190509392505050565b600080601160003373ffffffffffffffffffffffffffffffffffffffff1673ffffffffffffffffffffffffffffffffffffffff1681526020019081526020016000206000015410158015612b31575081601160003373ffffffffffffffffffffffffffffffffffffffff1673ffffffffffffffffffffffffffffffffffffffff1681526020019081526020016000206000015410155b8015612b7c575081600660003373ffffffffffffffffffffffffffffffffffffffff1673ffffffffffffffffffffffffffffffffffffffff1681526020019081526020016000205410155b15612d3b573373ffffffffffffffffffffffffffffffffffffffff166108fc670de0b6b3a7640000600854600286811515612bb357fe5b04811515612bbd57fe5b04029081150290604051600060405180830381858888f19350505050158015612bea573d6000803e3d6000fd5b50670de0b6b3a76400008202600660003373ffffffffffffffffffffffffffffffffffffffff1673ffffffffffffffffffffffffffffffffffffffff16815260200190815260200160002060008282540392505081905550670de0b6b3a76400008202601160003373ffffffffffffffffffffffffffffffffffffffff1673ffffffffffffffffffffffffffffffffffffffff168152602001908152602001600020600001600082825403925050819055507f5df5e70917798c2d346fb12f5222b6eac4076621fbea6c5a6b538105fc96e88e3383670de0b6b3a7640000600854600287811515612cd757fe5b04811515612ce157fe5b0402604051808473ffffffffffffffffffffffffffffffffffffffff1673ffffffffffffffffffffffffffffffffffffffff168152602001838152602001828152602001935050505060405180910390a160019050612d40565b600090505b919050565b600c81815481101515612d5457fe5b906000526020600020016000915090508054600181600116156101000203166002900480601f016020809104026020016040519081016040528092919081815260200182805460018160011615610100020316600290048015612df85780601f10612dcd57610100808354040283529160200191612df8565b820191906000526020600020905b815481529060010190602001808311612ddb57829003601f168201915b505050505081565b600360009054906101000a900460ff1681565b6000601160008373ffffffffffffffffffffffffffffffffffffffff1673ffffffffffffffffffffffffffffffffffffffff168152602001908152602001600020600001549050919050565b600081600660003373ffffffffffffffffffffffffffffffffffffffff1673ffffffffffffffffffffffffffffffffffffffff1681526020019081526020016000205410151515612eaf57600080fd5b81600660003373ffffffffffffffffffffffffffffffffffffffff1673ffffffffffffffffffffffffffffffffffffffff16815260200190815260200160002060008282540392505081905550816004600082825403925050819055503373ffffffffffffffffffffffffffffffffffffffff167fcc16f5dbb4873280815c1ee09dbd06736cffcc184412cf7a71a0fdb75d397ca5836040518082815260200191505060405180910390a260019050919050565b600a5481565b6000600554905090565b600060606000806000806000600e60008b73ffffffffffffffffffffffffffffffffffffffff1673ffffffffffffffffffffffffffffffffffffffff168152602001908152602001600020896040518082805190602001908083835b602083101515612ff45780518252602082019150602081019050602083039250612fcf565b6001836020036101000a03801982511681845116808217855250505050505090500191505090815260200160405180910390206004018881548110151561303757fe5b90600052602060002090600602019050806000015481600101826002015483600301548460040160009054906101000a900473ffffffffffffffffffffffffffffffffffffffff168560050154848054600181600116156101000203166002900480601f0160208091040260200160405190810160405280929190818152602001828054600181600116156101000203166002900480156131195780601f106130ee57610100808354040283529160200191613119565b820191906000526020600020905b8154815290600101906020018083116130fc57829003601f168201915b505050505094509650965096509650965096505093975093979195509350565b60106020528160005260406000208181548110151561315457fe5b906000526020600020906006020160009150915050806000015490806001018054600181600116156101000203166002900480601f0160208091040260200160405190810160405280929190818152602001828054600181600116156101000203166002900480156132075780601f106131dc57610100808354040283529160200191613207565b820191906000526020600020905b8154815290600101906020018083116131ea57829003601f168201915b5050505050908060020154908060030154908060040160009054906101000a900473ffffffffffffffffffffffffffffffffffffffff16908060050154905086565b60008060001515600e60008773ffffffffffffffffffffffffffffffffffffffff1673ffffffffffffffffffffffffffffffffffffffff168152602001908152602001600020856040518082805190602001908083835b6020831015156132c557805182526020820191506020810190506020830392506132a0565b6001836020036101000a038019825116818451168082178552505050505050905001915050908152602001604051809103902060050160009054906101000a900460ff161515141561360457600e60008673ffffffffffffffffffffffffffffffffffffffff1673ffffffffffffffffffffffffffffffffffffffff168152602001908152602001600020846040518082805190602001908083835b6020831015156133865780518252602082019150602081019050602083039250613361565b6001836020036101000a03801982511681845116808217855250505050505090500191505090815260200160405180910390209050828160000190805190602001906133d392919061505e565b5060008160010181905550338160020160006101000a81548173ffffffffffffffffffffffffffffffffffffffff021916908373ffffffffffffffffffffffffffffffffffffffff16021790555060018160050160006101000a81548160ff021916908315150217905550600c84908060018154018082558091505090600182039060005260206000200160009091929091909150908051906020019061347b92919061505e565b50507f2606b7477175a2d97210a32efdb543396d1e871b281764d9ca93dda673ac21be338686866001604051808673ffffffffffffffffffffffffffffffffffffffff1673ffffffffffffffffffffffffffffffffffffffff1681526020018573ffffffffffffffffffffffffffffffffffffffff1673ffffffffffffffffffffffffffffffffffffffff168152602001806020018060200184151515158152602001838103835286818151815260200191508051906020019080838360005b8381101561355657808201518184015260208101905061353b565b50505050905090810190601f1680156135835780820380516001836020036101000a031916815260200191505b50838103825285818151815260200191508051906020019080838360005b838110156135bc5780820151818401526020810190506135a1565b50505050905090810190601f1680156135e95780820380516001836020036101000a031916815260200191505b5097505050505050505060405180910390a160019150613697565b7ff24fdb01b39b282f0a73d8e2396bfc3b56e46971230b5e86c6a4b8b19892ef6660405180806020018281038252603e8152602001807f4465766963652073657269616c206e756d62657220697320616c72656164792081526020017f617661696c61626c65206f6e207468652073616d6520616464726573732e000081525060400191505060405180910390a1600091505b509392505050565b60003073ffffffffffffffffffffffffffffffffffffffff1631905090565b60066020528060005260406000206000915090505481565b6000809054906101000a900473ffffffffffffffffffffffffffffffffffffffff1673ffffffffffffffffffffffffffffffffffffffff163373ffffffffffffffffffffffffffffffffffffffff1614151561373157600080fd5b80600660008473ffffffffffffffffffffffffffffffffffffffff1673ffffffffffffffffffffffffffffffffffffffff16815260200190815260200160002060008282540192505081905550806004600082825401925050819055503073ffffffffffffffffffffffffffffffffffffffff1660007fddf252ad1be2c89b69c2b068fc378daa952ba7f163c4a11628f55a4df523b3ef836040518082815260200191505060405180910390a38173ffffffffffffffffffffffffffffffffffffffff163073ffffffffffffffffffffffffffffffffffffffff167fddf252ad1be2c89b69c2b068fc378daa952ba7f163c4a11628f55a4df523b3ef836040518082815260200191505060405180910390a35050565b600081600660008573ffffffffffffffffffffffffffffffffffffffff1673ffffffffffffffffffffffffffffffffffffffff168152602001908152602001600020541015151561389757600080fd5b600760008473ffffffffffffffffffffffffffffffffffffffff1673ffffffffffffffffffffffffffffffffffffffff16815260200190815260200160002060003373ffffffffffffffffffffffffffffffffffffffff1673ffffffffffffffffffffffffffffffffffffffff16815260200190815260200160002054821115151561392257600080fd5b81600660008573ffffffffffffffffffffffffffffffffffffffff1673ffffffffffffffffffffffffffffffffffffffff1681526020019081526020016000206000828254039250508190555081600760008573ffffffffffffffffffffffffffffffffffffffff1673ffffffffffffffffffffffffffffffffffffffff16815260200190815260200160002060003373ffffffffffffffffffffffffffffffffffffffff1673ffffffffffffffffffffffffffffffffffffffff16815260200190815260200160002060008282540392505081905550816004600082825403925050819055508273ffffffffffffffffffffffffffffffffffffffff167fcc16f5dbb4873280815c1ee09dbd06736cffcc184412cf7a71a0fdb75d397ca5836040518082815260200191505060405180910390a26001905092915050565b60085481565b6000809054906101000a900473ffffffffffffffffffffffffffffffffffffffff1681565b6060600080600080600e60008873ffffffffffffffffffffffffffffffffffffffff1673ffffffffffffffffffffffffffffffffffffffff168152602001908152602001600020866040518082805190602001908083835b602083101515613b095780518252602082019150602081019050602083039250613ae4565b6001836020036101000a038019825116818451168082178552505050505050905001915050908152602001604051809103902090508060000181600101548260020160009054906101000a900473ffffffffffffffffffffffffffffffffffffffff168360050160009054906101000a900460ff16838054600181600116156101000203166002900480601f016020809104026020016040519081016040528092919081815260200182805460018160011615610100020316600290048015613c135780601f10613be857610100808354040283529160200191613c13565b820191906000526020600020905b815481529060010190602001808311613bf657829003601f168201915b5050505050935094509450945094505092959194509250565b60028054600181600116156101000203166002900480601f016020809104026020016040519081016040528092919081815260200182805460018160011615610100020316600290048015613cc25780601f10613c9757610100808354040283529160200191613cc2565b820191906000526020600020905b815481529060010190602001808311613ca557829003601f168201915b505050505081565b60055481565b6000600854905090565b6060600b805480602002602001604051908101604052809291908181526020018280548015613d5e57602002820191906000526020600020905b8160009054906101000a900473ffffffffffffffffffffffffffffffffffffffff1673ffffffffffffffffffffffffffffffffffffffff1681526020019060010190808311613d14575b5050505050905090565b6000600e60008473ffffffffffffffffffffffffffffffffffffffff1673ffffffffffffffffffffffffffffffffffffffff168152602001908152602001600020826040518082805190602001908083835b602083101515613ddf5780518252602082019150602081019050602083039250613dba565b6001836020036101000a038019825116818451168082178552505050505050905001915050908152602001604051809103902060040180549050905092915050565b600f6020528060005260406000206000915054906101000a900460ff1681565b60008060001515600e60008773ffffffffffffffffffffffffffffffffffffffff1673ffffffffffffffffffffffffffffffffffffffff168152602001908152602001600020856040518082805190602001908083835b602083101515613ebd5780518252602082019150602081019050602083039250613e98565b6001836020036101000a038019825116818451168082178552505050505050905001915050908152602001604051809103902060050160009054906101000a900460ff1615151415613fa0577ff24fdb01b39b282f0a73d8e2396bfc3b56e46971230b5e86c6a4b8b19892ef666040518080602001828103825260268152602001807f4465766963652073657269616c206e756d626572206973206e6f74206176616981526020017f6c61626c652e000000000000000000000000000000000000000000000000000081525060400191505060405180910390a160009150614572565b828160000181905550600e60008673ffffffffffffffffffffffffffffffffffffffff1673ffffffffffffffffffffffffffffffffffffffff168152602001908152602001600020846040518082805190602001908083835b60208310151561401e5780518252602082019150602081019050602083039250613ff9565b6001836020036101000a03801982511681845116808217855250505050505090500191505090815260200160405180910390206003018381548110151561406157fe5b9060005260206000209060050201600101816001019080546001816001161561010002031660029004614095929190614f50565b50600e60008673ffffffffffffffffffffffffffffffffffffffff1673ffffffffffffffffffffffffffffffffffffffff168152602001908152602001600020846040518082805190602001908083835b60208310151561410b57805182526020820191506020810190506020830392506140e6565b6001836020036101000a03801982511681845116808217855250505050505090500191505090815260200160405180910390206003018381548110151561414e57fe5b9060005260206000209060050201600201548160020181905550600e60008673ffffffffffffffffffffffffffffffffffffffff1673ffffffffffffffffffffffffffffffffffffffff168152602001908152602001600020846040518082805190602001908083835b6020831015156141dd57805182526020820191506020810190506020830392506141b8565b6001836020036101000a03801982511681845116808217855250505050505090500191505090815260200160405180910390206003018381548110151561422057fe5b9060005260206000209060050201600301548160030181905550338160040160006101000a81548173ffffffffffffffffffffffffffffffffffffffff021916908373ffffffffffffffffffffffffffffffffffffffff160217905550428160050181905550600e60008673ffffffffffffffffffffffffffffffffffffffff1673ffffffffffffffffffffffffffffffffffffffff168152602001908152602001600020846040518082805190602001908083835b6020831015156142fb57805182526020820191506020810190506020830392506142d6565b6001836020036101000a03801982511681845116808217855250505050505090500191505090815260200160405180910390206004018190806001815401808255809150509060018203906000526020600020906006020160009091929091909150600082015481600001556001820181600101908054600181600116156101000203166002900461438e929190614fd7565b5060028201548160020155600382015481600301556004820160009054906101000a900473ffffffffffffffffffffffffffffffffffffffff168160040160006101000a81548173ffffffffffffffffffffffffffffffffffffffff021916908373ffffffffffffffffffffffffffffffffffffffff160217905550600582015481600501555050507f54376985c61133fd74ddfd5be0e7cacfebc5ee2b28b59fff7642086996680be484848360010184600201548560030154600160405180806020018781526020018060200186815260200185815260200184151515158152602001838103835289818151815260200191508051906020019080838360005b838110156144aa57808201518184015260208101905061448f565b50505050905090810190601f1680156144d75780820380516001836020036101000a031916815260200191505b508381038252878181546001816001161561010002031660029004815260200191508054600181600116156101000203166002900480156145595780601f1061452e57610100808354040283529160200191614559565b820191906000526020600020905b81548152906001019060200180831161453c57829003601f168201915b50509850505050505050505060405180910390a1600191505b509392505050565b600060606000806000806000600e60008b73ffffffffffffffffffffffffffffffffffffffff1673ffffffffffffffffffffffffffffffffffffffff168152602001908152602001600020896040518082805190602001908083835b6020831015156145fb57805182526020820191506020810190506020830392506145d6565b6001836020036101000a03801982511681845116808217855250505050505090500191505090815260200160405180910390206003018881548110151561463e57fe5b90600052602060002090600502019050806000015481600101826002015483600301548460040160009054906101000a900460ff168560040160019054906101000a900460ff16848054600181600116156101000203166002900480601f01602080910402602001604051908101604052809291908181526020018280546001816001161561010002031660029004801561471a5780601f106146ef5761010080835404028352916020019161471a565b820191906000526020600020905b8154815290600101906020018083116146fd57829003601f168201915b505050505094509650965096509650965096505093975093979195509350565b600b8181548110151561474957fe5b906000526020600020016000915054906101000a900473ffffffffffffffffffffffffffffffffffffffff1681565b6000808490506147888585611abe565b156148f2578073ffffffffffffffffffffffffffffffffffffffff16638f4ffcb1338630876040518563ffffffff167c0100000000000000000000000000000000000000000000000000000000028152600401808573ffffffffffffffffffffffffffffffffffffffff1673ffffffffffffffffffffffffffffffffffffffff1681526020018481526020018373ffffffffffffffffffffffffffffffffffffffff1673ffffffffffffffffffffffffffffffffffffffff16815260200180602001828103825283818151815260200191508051906020019080838360005b83811015614882578082015181840152602081019050614867565b50505050905090810190601f1680156148af5780820380516001836020036101000a031916815260200191505b5095505050505050600060405180830381600087803b1580156148d157600080fd5b505af11580156148e5573d6000803e3d6000fd5b50505050600191506148f3565b5b509392505050565b6000809054906101000a900473ffffffffffffffffffffffffffffffffffffffff1673ffffffffffffffffffffffffffffffffffffffff163373ffffffffffffffffffffffffffffffffffffffff1614151561495657600080fd5b600260055402600581905550600554600460008282540192505081905550565b6000600c80549050905090565b6007602052816000526040600020602052806000526040600020600091509150505481565b6000809054906101000a900473ffffffffffffffffffffffffffffffffffffffff1673ffffffffffffffffffffffffffffffffffffffff163373ffffffffffffffffffffffffffffffffffffffff16141515614a0357600080fd5b80600f60008473ffffffffffffffffffffffffffffffffffffffff1673ffffffffffffffffffffffffffffffffffffffff16815260200190815260200160002060006101000a81548160ff0219169083151502179055507f48335238b4855f35377ed80f164e8c6f3c366e54ac00b96a6402d4a9814a03a58282604051808373ffffffffffffffffffffffffffffffffffffffff1673ffffffffffffffffffffffffffffffffffffffff168152602001821515151581526020019250505060405180910390a15050565b60095481565b6000809054906101000a900473ffffffffffffffffffffffffffffffffffffffff1673ffffffffffffffffffffffffffffffffffffffff163373ffffffffffffffffffffffffffffffffffffffff16141515614b2e57600080fd5b806000806101000a81548173ffffffffffffffffffffffffffffffffffffffff021916908373ffffffffffffffffffffffffffffffffffffffff16021790555050565b6000600660008373ffffffffffffffffffffffffffffffffffffffff1673ffffffffffffffffffffffffffffffffffffffff168152602001908152602001600020549050919050565b6000808373ffffffffffffffffffffffffffffffffffffffff1614151515614be157600080fd5b81600660008673ffffffffffffffffffffffffffffffffffffffff1673ffffffffffffffffffffffffffffffffffffffff1681526020019081526020016000205410151515614c2f57600080fd5b600660008473ffffffffffffffffffffffffffffffffffffffff1673ffffffffffffffffffffffffffffffffffffffff1681526020019081526020016000205482600660008673ffffffffffffffffffffffffffffffffffffffff1673ffffffffffffffffffffffffffffffffffffffff1681526020019081526020016000205401111515614cbd57600080fd5b600660008473ffffffffffffffffffffffffffffffffffffffff1673ffffffffffffffffffffffffffffffffffffffff16815260200190815260200160002054600660008673ffffffffffffffffffffffffffffffffffffffff1673ffffffffffffffffffffffffffffffffffffffff1681526020019081526020016000205401905081600660008673ffffffffffffffffffffffffffffffffffffffff1673ffffffffffffffffffffffffffffffffffffffff1681526020019081526020016000206000828254039250508190555081600660008573ffffffffffffffffffffffffffffffffffffffff1673ffffffffffffffffffffffffffffffffffffffff168152602001908152602001600020600082825401925050819055508273ffffffffffffffffffffffffffffffffffffffff168473ffffffffffffffffffffffffffffffffffffffff167fddf252ad1be2c89b69c2b068fc378daa952ba7f163c4a11628f55a4df523b3ef846040518082815260200191505060405180910390a380600660008573ffffffffffffffffffffffffffffffffffffffff1673ffffffffffffffffffffffffffffffffffffffff16815260200190815260200160002054600660008773ffffffffffffffffffffffffffffffffffffffff1673ffffffffffffffffffffffffffffffffffffffff1681526020019081526020016000205401141515614eca57fe5b50505050565b828054600181600116156101000203166002900490600052602060002090601f016020900481019282601f10614f1157805160ff1916838001178555614f3f565b82800160010185558215614f3f579182015b82811115614f3e578251825591602001919060010190614f23565b5b509050614f4c91906150de565b5090565b828054600181600116156101000203166002900490600052602060002090601f016020900481019282601f10614f895780548555614fc6565b82800160010185558215614fc657600052602060002091601f016020900482015b82811115614fc5578254825591600101919060010190614faa565b5b509050614fd391906150de565b5090565b828054600181600116156101000203166002900490600052602060002090601f016020900481019282601f10615010578054855561504d565b8280016001018555821561504d57600052602060002091601f016020900482015b8281111561504c578254825591600101919060010190615031565b5b50905061505a91906150de565b5090565b828054600181600116156101000203166002900490600052602060002090601f016020900481019282601f1061509f57805160ff19168380011785556150cd565b828001600101855582156150cd579182015b828111156150cc5782518255916020019190600101906150b1565b5b5090506150da91906150de565b5090565b61510091905b808211156150fc5760008160009055506001016150e4565b5090565b905600a165627a7a723058207ec8efabb0e128af44eba9cfc9f3ddc8b267829e758e57dad8718a82909d40810029",
  "source": "pragma solidity ^0.4.24;\n\nimport \"./Owned.sol\";\nimport \"./StandardToken.sol\";\n// import \"./Oraclize.sol\";, usingOraclize\n\ncontract Rawbot is Owned, StandardToken {\n\n    uint256 public ETH_PRICE = 500;\n    uint256 public oraclize_fee;\n    uint256 public last_price_update;\n\n    address[] public exchange_addresses;\n    string[] public device_serial_numbers;\n    PRICE_CHECKING_STATUS public price_status;\n\n    mapping(address => mapping(string => Device)) devices;\n    mapping(address => bool) public frozenAccount;\n    mapping(address => ActionHistory[]) public actionsHistoryOf;\n\n    mapping(address => User) public historyOf;\n\n    struct User {\n        uint256 allowed_to_exchange;\n        ExchangeHistory[] history;\n        bool available;\n    }\n\n    struct ExchangeHistory {\n        uint256 raw_amount;\n        uint256 raw_exchange;\n        uint256 eth_received;\n        uint256 eth_price;\n        uint256 time_ms;\n        bool available;\n    }\n\n    struct UserHistory {\n        uint256 action_id;\n        string action_name;\n        uint256 action_price;\n        uint256 action_duration;\n        string device_serial_number;\n        string device_name;\n        address user;\n        address device_address;\n        uint256 time;\n    }\n\n    struct Action {\n        uint256 action_id;\n        string action_name;\n        uint256 action_price;\n        uint256 action_duration;\n        bool action_enabled;\n        bool available;\n    }\n\n    struct ActionHistory {\n        uint256 action_id;\n        string action_name;\n        uint256 action_price;\n        uint256 action_duration;\n        address user;\n        uint256 time;\n    }\n\n    struct Device {\n        string device_name;\n        uint256 device_balance;\n        address device_owner;\n        Action[] device_actions;\n        ActionHistory[] device_history;\n        bool available;\n    }\n\n    enum PRICE_CHECKING_STATUS {\n        NEEDED, PENDING, FETCHED\n    }\n\n    event OraclizeLog(string _description, uint256 _time);\n    event LogNewOraclizeQuery(string description);\n\n    event SendErrorMessage(string _error_message);\n    event AddDevice(address _owner_address, address _device_address, string _device_serial_number, string _device_name, bool _success);\n    event FrozenFunds(address target, bool frozen);\n\n    event ActionAdd(string, uint, string, uint256, uint256, bool);\n    event ActionEnable(string, uint, string, uint256, uint256, bool);\n    event ActionDisable(string, uint, string, uint256, uint256, bool);\n\n    event ExchangeToEther(address _address, uint256 _amount_received, uint256 _amount_to_give);\n    event ExchangeToRaw(address _address, uint256 _amount_received, uint256 _amount_to_give);\n\n    constructor() StandardToken(20000000, \"Rawbot Test 1\", \"RWT\") public payable {\n        price_status = PRICE_CHECKING_STATUS.NEEDED;\n        // initEthereumPrice();\n    }\n\n    function mintToken(address target, uint256 mintedAmount) onlyOwner public {\n        balanceOf[target] += mintedAmount;\n        totalSupply += mintedAmount;\n        emit Transfer(0, this, mintedAmount);\n        emit Transfer(this, target, mintedAmount);\n    }\n\n    function freezeAccount(address target, bool freeze) onlyOwner public {\n        frozenAccount[target] = freeze;\n        emit FrozenFunds(target, freeze);\n    }\n\n    function increaseSupply() public onlyOwner {\n        initSupply = initSupply * 2;\n        totalSupply += initSupply;\n    }\n\n    function getCurrentSupply() public view returns (uint256){\n        return initSupply;\n    }\n\n    function withdraw(uint value) public returns (bool success) {\n        if (historyOf[msg.sender].allowed_to_exchange >= 0 && historyOf[msg.sender].allowed_to_exchange >= value && balanceOf[msg.sender] >= value) {\n            msg.sender.transfer(((value / 2) / ETH_PRICE) * 1e18);\n            balanceOf[msg.sender] -= value * 10 ** 18;\n            historyOf[msg.sender].allowed_to_exchange -= value * 10 ** 18;\n            emit ExchangeToEther(msg.sender, value, ((value / 2) / ETH_PRICE) * 1e18);\n            return true;\n        } else {\n            return false;\n        }\n    }\n\n    function() payable public {\n        uint256 raw_amount = msg.value * ETH_PRICE * 2;\n        balanceOf[msg.sender] += raw_amount;\n        transfer(msg.sender, raw_amount);\n        historyOf[msg.sender].allowed_to_exchange += raw_amount;\n        addExchangeHistory(msg.sender, raw_amount, msg.value, ETH_PRICE, now);\n        emit ExchangeToRaw(msg.sender, msg.value, raw_amount);\n    }\n\n    //\"0xf1e7282908c481d2647fa1242fd411ed1d93d212\", 100, 1e18, 500, 123123\n    function addExchangeHistory(address _address, uint256 _raw_amount, uint256 _eth_received, uint256 _eth_price, uint256 _time_ms) public returns (bool){\n        historyOf[msg.sender].history.push(ExchangeHistory(_raw_amount, 0, _eth_received, _eth_price, _time_ms, true));\n        if (historyOf[_address].available == false) {\n            exchange_addresses.push(_address);\n        }\n        return true;\n    }\n\n    //\"0x577ccfbd7b0ee9e557029775c531552a65d9e11d\", \"ABC1\", \"Raspberry PI 3\"\n    function addDevice(address _address, string _device_serial_number, string _device_name) public returns (bool success) {\n        if (devices[_address][_device_serial_number].available == false) {\n            Device storage current_device = devices[_address][_device_serial_number];\n            current_device.device_name = _device_name;\n            current_device.device_balance = 0;\n            current_device.device_owner = msg.sender;\n            current_device.available = true;\n            device_serial_numbers.push(_device_serial_number);\n            emit AddDevice(msg.sender, _address, _device_serial_number, _device_name, true);\n            return true;\n        } else {\n            emit SendErrorMessage(\"Device serial number is already available on the same address.\");\n            return false;\n        }\n    }\n\n    //\"0x577ccfbd7b0ee9e557029775c531552a65d9e11d\", \"ABC1\", \"Open\", 20, 20\n    function addAction(address _device_address, string _device_serial_number, string _action_name, uint256 _action_price, uint256 _action_duration) public returns (bool success) {\n        if (devices[_device_address][_device_serial_number].available == false) {\n            emit SendErrorMessage(\"Device serial number is not available.\");\n            return false;\n        } else {\n            uint256 actions_length = devices[_device_address][_device_serial_number].device_actions.length;\n            devices[_device_address][_device_serial_number].device_actions.push(Action(actions_length, _action_name, _action_price, _action_duration, false, true));\n            emit ActionAdd(_device_serial_number, actions_length, _action_name, _action_price, _action_duration, true);\n            return true;\n        }\n    }\n\n    //\"0x577ccfbd7b0ee9e557029775c531552a65d9e11d\", \"ABC1\", 1\n    function enableAction(address _device_address, string _device_serial_number, uint256 _action_id) public payable returns (bool success) {\n        if (devices[_device_address][_device_serial_number].available == false) {\n            emit SendErrorMessage(\"Device serial number is not available.\");\n            return false;\n        } else {\n            // actions[_device_serial_number].devce[_action_id].action_enabled = true;\n            ActionHistory storage action_history;\n            action_history.action_id = _action_id;\n            action_history.action_name = devices[_device_address][_device_serial_number].device_actions[_action_id].action_name;\n            action_history.action_price = devices[_device_address][_device_serial_number].device_actions[_action_id].action_price;\n            action_history.action_duration = devices[_device_address][_device_serial_number].device_actions[_action_id].action_duration;\n            action_history.user = msg.sender;\n            action_history.time = now;\n            devices[_device_address][_device_serial_number].device_history.push(action_history);\n\n            actionsHistoryOf[msg.sender].push(action_history);\n            emit ActionEnable(\n                _device_serial_number,\n                _action_id,\n                action_history.action_name,\n                action_history.action_price,\n                action_history.action_duration,\n                true);\n            return true;\n        }\n    }\n\n    //\"0x577ccfbd7b0ee9e557029775c531552a65d9e11d\", \"ABC1\", 1\n    function disableAction(address _device_address, string _device_serial_number, uint256 _action_id) public returns (bool success) {\n        if (devices[_device_address][_device_serial_number].available == false) {\n            emit SendErrorMessage(\"Device serial number is not available.\");\n            return false;\n        } else {\n            ActionHistory storage action_history;\n            action_history.action_id = _action_id;\n            action_history.action_name = devices[_device_address][_device_serial_number].device_actions[_action_id].action_name;\n            action_history.action_price = devices[_device_address][_device_serial_number].device_actions[_action_id].action_price;\n            action_history.action_duration = devices[_device_address][_device_serial_number].device_actions[_action_id].action_duration;\n            action_history.user = msg.sender;\n            action_history.time = now;\n            devices[_device_address][_device_serial_number].device_history.push(action_history);\n\n            // devices[_device_address][_device_serial_number].device_actions[_action_id].action_enabled = false;\n            // actionsHistoryOf[msg.sender].push(ActionHistory(_action_id, actions[_device_serial_number][_action_id].action_name, actions[_device_serial_number][_action_id].action_price, actions[_device_serial_number][_action_id].action_duration, _device_serial_number, devices[_device_serial_number].device_name, msg.sender, devices[_device_serial_number].device_address, now));\n            emit ActionDisable(\n                _device_serial_number,\n                _action_id,\n                action_history.action_name,\n                action_history.action_price,\n                action_history.action_duration,\n                true);\n            return true;\n        }\n    }\n\n    function getBalance(address _address) public view returns (uint256){\n        return balanceOf[_address];\n    }\n\n    function getContractBalance() public view returns (uint256) {\n        return address(this).balance;\n    }\n\n    function getTotalDevices() public view returns (uint) {\n        return (device_serial_numbers.length);\n    }\n\n    function getExchangeLeftOf(address _address) view public returns (uint256){\n        return historyOf[_address].allowed_to_exchange;\n    }\n\n    // \"0x577ccfbd7b0ee9e557029775c531552a65d9e11d\", \"ABC1\"\n    function getDevice(address _device_address, string _device_serial_number) public view returns (string, uint256, address, bool){\n        Device storage current_device = devices[_device_address][_device_serial_number];\n        return (current_device.device_name, current_device.device_balance, current_device.device_owner, current_device.available);\n    }\n\n    function getDeviceActionOf(address _device_address, string _device_serial_number, uint256 _index) public view returns (uint256, string, uint256, uint256, bool, bool) {\n        Action storage current_device_action = devices[_device_address][_device_serial_number].device_actions[_index];\n        return (current_device_action.action_id, current_device_action.action_name, current_device_action.action_price, current_device_action.action_duration, current_device_action.action_enabled, current_device_action.available);\n    }\n\n    function getDeviceActionHistoryOf(address _device_address, string _device_serial_number, uint256 _index) public view returns (uint256, string, uint256, uint256, address, uint256) {\n        ActionHistory storage current_device_history = devices[_device_address][_device_serial_number].device_history[_index];\n        return (current_device_history.action_id, current_device_history.action_name, current_device_history.action_price, current_device_history.action_duration, current_device_history.user, current_device_history.time);\n    }\n\n    function getActionLengthOf(address _device_address, string _device_serial_number) view public returns (uint256) {\n        return devices[_device_address][_device_serial_number].device_actions.length;\n    }\n\n    function getHistoryLengthOf(address _device_address, string _device_serial_number) view public returns (uint256) {\n        return devices[_device_address][_device_serial_number].device_history.length;\n    }\n\n    function getAddresses() view public returns (address[]) {\n        return exchange_addresses;\n    }\n\n    function getEthereumPrice() public view returns (uint) {\n        return ETH_PRICE;\n    }\n\n    // function fetchOraclizeFee() public payable {\n    //     oraclize_fee = oraclize_getPrice(\"URL\");\n    // }\n\n    // function fetchEthereumPrice() public payable {\n    //     if (oraclize_getPrice(\"URL\") > address(this).balance) {\n    //         emit OraclizeLog(\"Oraclize query was NOT sent, please add some ETH to cover for the query fee\", now);\n    //     } else {\n    //         emit OraclizeLog(\"Oraclize query was sent, standing by for the answer..\", now);\n    //         oraclize_fee = oraclize_getPrice(\"URL\");\n    //         oraclize_query(0, \"URL\", \"json(https://min-api.cryptocompare.com/data/price?fsym=ETH&tsyms=USD).USD\");\n    //     }\n    // }\n\n    // function initEthereumPrice() public payable {\n    //     if (oraclize_getPrice(\"URL\") > address(this).balance) {\n    //         emit OraclizeLog(\"Oraclize query was NOT sent, please add some ETH to cover for the query fee\", now);\n    //     } else {\n    //         emit OraclizeLog(\"Oraclize query was sent, standing by for the answer..\", now);\n    //         oraclize_fee = oraclize_getPrice(\"URL\");\n    //         oraclize_query(15, \"URL\", \"json(https://min-api.cryptocompare.com/data/price?fsym=ETH&tsyms=USD).USD\");\n    //     }\n    // }\n\n    // function __callback(bytes32 myid, string result) {\n    //     if (msg.sender != oraclize_cbAddress()) revert();\n    //     ETH_PRICE = parseInt(result);\n    //     emit OraclizeLog(result, now);\n    //     last_price_update = now;\n    //     price_status = PRICE_CHECKING_STATUS.FETCHED;\n    // }\n}",
  "sourcePath": "/Users/hassanjawhar/Desktop/Workspace/rawbot/contracts/Rawbot.sol",
  "compiler": {
    "name": "solc",
    "version": "0.4.24+commit.e67f0147.Emscripten.clang"
  },
  "schemaVersion": "2.0.0",
  "updatedAt": "2018-07-27T09:53:19.826Z"
}