{
  "contractName": "Rawbot",
  "abi": [
    {
      "constant": true,
      "inputs": [],
      "name": "name",
      "outputs": [
        {
          "name": "",
          "type": "string"
        }
      ],
      "payable": false,
      "stateMutability": "view",
      "type": "function"
    },
    {
      "constant": false,
      "inputs": [
        {
          "name": "_spender",
          "type": "address"
        },
        {
          "name": "_value",
          "type": "uint256"
        }
      ],
      "name": "approve",
      "outputs": [
        {
          "name": "success",
          "type": "bool"
        }
      ],
      "payable": false,
      "stateMutability": "nonpayable",
      "type": "function"
    },
    {
      "constant": true,
      "inputs": [],
      "name": "totalSupply",
      "outputs": [
        {
          "name": "",
          "type": "uint256"
        }
      ],
      "payable": false,
      "stateMutability": "view",
      "type": "function"
    },
    {
      "constant": false,
      "inputs": [
        {
          "name": "_from",
          "type": "address"
        },
        {
          "name": "_to",
          "type": "address"
        },
        {
          "name": "_value",
          "type": "uint256"
        }
      ],
      "name": "transferFrom",
      "outputs": [
        {
          "name": "success",
          "type": "bool"
        }
      ],
      "payable": false,
      "stateMutability": "nonpayable",
      "type": "function"
    },
    {
      "constant": true,
      "inputs": [
        {
          "name": "",
          "type": "uint256"
        }
      ],
      "name": "device_serial_numbers",
      "outputs": [
        {
          "name": "",
          "type": "string"
        }
      ],
      "payable": false,
      "stateMutability": "view",
      "type": "function"
    },
    {
      "constant": true,
      "inputs": [],
      "name": "decimals",
      "outputs": [
        {
          "name": "",
          "type": "uint8"
        }
      ],
      "payable": false,
      "stateMutability": "view",
      "type": "function"
    },
    {
      "constant": false,
      "inputs": [
        {
          "name": "_value",
          "type": "uint256"
        }
      ],
      "name": "burn",
      "outputs": [
        {
          "name": "success",
          "type": "bool"
        }
      ],
      "payable": false,
      "stateMutability": "nonpayable",
      "type": "function"
    },
    {
      "constant": true,
      "inputs": [],
      "name": "getCurrentSupply",
      "outputs": [
        {
          "name": "",
          "type": "uint256"
        }
      ],
      "payable": false,
      "stateMutability": "view",
      "type": "function"
    },
    {
      "constant": true,
      "inputs": [],
      "name": "getContractBalance",
      "outputs": [
        {
          "name": "",
          "type": "uint256"
        }
      ],
      "payable": false,
      "stateMutability": "view",
      "type": "function"
    },
    {
      "constant": true,
      "inputs": [
        {
          "name": "",
          "type": "address"
        }
      ],
      "name": "balanceOf",
      "outputs": [
        {
          "name": "",
          "type": "uint256"
        }
      ],
      "payable": false,
      "stateMutability": "view",
      "type": "function"
    },
    {
      "constant": false,
      "inputs": [
        {
          "name": "_from",
          "type": "address"
        },
        {
          "name": "_value",
          "type": "uint256"
        }
      ],
      "name": "burnFrom",
      "outputs": [
        {
          "name": "success",
          "type": "bool"
        }
      ],
      "payable": false,
      "stateMutability": "nonpayable",
      "type": "function"
    },
    {
      "constant": true,
      "inputs": [
        {
          "name": "",
          "type": "address"
        }
      ],
      "name": "user",
      "outputs": [
        {
          "name": "allowed_to_exchange",
          "type": "uint256"
        },
        {
          "name": "available",
          "type": "bool"
        }
      ],
      "payable": false,
      "stateMutability": "view",
      "type": "function"
    },
    {
      "constant": true,
      "inputs": [],
      "name": "owner",
      "outputs": [
        {
          "name": "",
          "type": "address"
        }
      ],
      "payable": false,
      "stateMutability": "view",
      "type": "function"
    },
    {
      "constant": true,
      "inputs": [],
      "name": "symbol",
      "outputs": [
        {
          "name": "",
          "type": "string"
        }
      ],
      "payable": false,
      "stateMutability": "view",
      "type": "function"
    },
    {
      "constant": true,
      "inputs": [],
      "name": "initSupply",
      "outputs": [
        {
          "name": "",
          "type": "uint256"
        }
      ],
      "payable": false,
      "stateMutability": "view",
      "type": "function"
    },
    {
      "constant": false,
      "inputs": [
        {
          "name": "_to",
          "type": "address"
        },
        {
          "name": "_value",
          "type": "uint256"
        }
      ],
      "name": "transfer",
      "outputs": [
        {
          "name": "success",
          "type": "bool"
        }
      ],
      "payable": false,
      "stateMutability": "nonpayable",
      "type": "function"
    },
    {
      "constant": true,
      "inputs": [
        {
          "name": "",
          "type": "address"
        }
      ],
      "name": "frozenAccount",
      "outputs": [
        {
          "name": "",
          "type": "bool"
        }
      ],
      "payable": false,
      "stateMutability": "view",
      "type": "function"
    },
    {
      "constant": true,
      "inputs": [
        {
          "name": "",
          "type": "uint256"
        }
      ],
      "name": "exchange_addresses",
      "outputs": [
        {
          "name": "",
          "type": "address"
        }
      ],
      "payable": false,
      "stateMutability": "view",
      "type": "function"
    },
    {
      "constant": false,
      "inputs": [
        {
          "name": "_spender",
          "type": "address"
        },
        {
          "name": "_value",
          "type": "uint256"
        },
        {
          "name": "_extraData",
          "type": "bytes"
        }
      ],
      "name": "approveAndCall",
      "outputs": [
        {
          "name": "success",
          "type": "bool"
        }
      ],
      "payable": false,
      "stateMutability": "nonpayable",
      "type": "function"
    },
    {
      "constant": false,
      "inputs": [],
      "name": "increaseSupply",
      "outputs": [],
      "payable": false,
      "stateMutability": "nonpayable",
      "type": "function"
    },
    {
      "constant": true,
      "inputs": [
        {
          "name": "",
          "type": "address"
        },
        {
          "name": "",
          "type": "address"
        }
      ],
      "name": "allowance",
      "outputs": [
        {
          "name": "",
          "type": "uint256"
        }
      ],
      "payable": false,
      "stateMutability": "view",
      "type": "function"
    },
    {
      "constant": false,
      "inputs": [
        {
          "name": "target",
          "type": "address"
        },
        {
          "name": "freeze",
          "type": "bool"
        }
      ],
      "name": "freezeAccount",
      "outputs": [],
      "payable": false,
      "stateMutability": "nonpayable",
      "type": "function"
    },
    {
      "constant": false,
      "inputs": [
        {
          "name": "newOwner",
          "type": "address"
        }
      ],
      "name": "transferOwnership",
      "outputs": [],
      "payable": false,
      "stateMutability": "nonpayable",
      "type": "function"
    },
    {
      "constant": true,
      "inputs": [
        {
          "name": "_address",
          "type": "address"
        }
      ],
      "name": "getBalance",
      "outputs": [
        {
          "name": "",
          "type": "uint256"
        }
      ],
      "payable": false,
      "stateMutability": "view",
      "type": "function"
    },
    {
      "inputs": [],
      "payable": true,
      "stateMutability": "payable",
      "type": "constructor"
    },
    {
      "payable": true,
      "stateMutability": "payable",
      "type": "fallback"
    },
    {
      "anonymous": false,
      "inputs": [
        {
          "indexed": false,
          "name": "_error_message",
          "type": "string"
        }
      ],
      "name": "SendErrorMessage",
      "type": "event"
    },
    {
      "anonymous": false,
      "inputs": [
        {
          "indexed": false,
          "name": "_owner_address",
          "type": "address"
        },
        {
          "indexed": false,
          "name": "_device_address",
          "type": "address"
        },
        {
          "indexed": false,
          "name": "_device_serial_number",
          "type": "string"
        },
        {
          "indexed": false,
          "name": "_device_name",
          "type": "string"
        },
        {
          "indexed": false,
          "name": "_success",
          "type": "bool"
        }
      ],
      "name": "AddDevice",
      "type": "event"
    },
    {
      "anonymous": false,
      "inputs": [
        {
          "indexed": false,
          "name": "",
          "type": "string"
        },
        {
          "indexed": false,
          "name": "",
          "type": "uint256"
        },
        {
          "indexed": false,
          "name": "",
          "type": "string"
        },
        {
          "indexed": false,
          "name": "",
          "type": "uint256"
        },
        {
          "indexed": false,
          "name": "",
          "type": "uint256"
        },
        {
          "indexed": false,
          "name": "",
          "type": "bool"
        }
      ],
      "name": "ActionAdd",
      "type": "event"
    },
    {
      "anonymous": false,
      "inputs": [
        {
          "indexed": false,
          "name": "",
          "type": "string"
        },
        {
          "indexed": false,
          "name": "",
          "type": "uint256"
        },
        {
          "indexed": false,
          "name": "",
          "type": "string"
        },
        {
          "indexed": false,
          "name": "",
          "type": "uint256"
        },
        {
          "indexed": false,
          "name": "",
          "type": "uint256"
        },
        {
          "indexed": false,
          "name": "",
          "type": "bool"
        }
      ],
      "name": "ActionEnable",
      "type": "event"
    },
    {
      "anonymous": false,
      "inputs": [
        {
          "indexed": false,
          "name": "",
          "type": "string"
        },
        {
          "indexed": false,
          "name": "",
          "type": "uint256"
        },
        {
          "indexed": false,
          "name": "",
          "type": "string"
        },
        {
          "indexed": false,
          "name": "",
          "type": "uint256"
        },
        {
          "indexed": false,
          "name": "",
          "type": "uint256"
        },
        {
          "indexed": false,
          "name": "",
          "type": "bool"
        }
      ],
      "name": "ActionDisable",
      "type": "event"
    },
    {
      "anonymous": false,
      "inputs": [
        {
          "indexed": false,
          "name": "",
          "type": "string"
        }
      ],
      "name": "Testing",
      "type": "event"
    },
    {
      "anonymous": false,
      "inputs": [
        {
          "indexed": true,
          "name": "from",
          "type": "address"
        },
        {
          "indexed": true,
          "name": "to",
          "type": "address"
        },
        {
          "indexed": false,
          "name": "value",
          "type": "uint256"
        }
      ],
      "name": "Transfer",
      "type": "event"
    },
    {
      "anonymous": false,
      "inputs": [
        {
          "indexed": true,
          "name": "tokenOwner",
          "type": "address"
        },
        {
          "indexed": true,
          "name": "spender",
          "type": "address"
        },
        {
          "indexed": false,
          "name": "tokens",
          "type": "uint256"
        }
      ],
      "name": "Approval",
      "type": "event"
    },
    {
      "anonymous": false,
      "inputs": [
        {
          "indexed": true,
          "name": "from",
          "type": "address"
        },
        {
          "indexed": false,
          "name": "value",
          "type": "uint256"
        }
      ],
      "name": "Burn",
      "type": "event"
    },
    {
      "anonymous": false,
      "inputs": [
        {
          "indexed": false,
          "name": "target",
          "type": "address"
        },
        {
          "indexed": false,
          "name": "frozen",
          "type": "bool"
        }
      ],
      "name": "FrozenFunds",
      "type": "event"
    },
    {
      "anonymous": false,
      "inputs": [
        {
          "indexed": false,
          "name": "_address",
          "type": "address"
        },
        {
          "indexed": false,
          "name": "_amount_received",
          "type": "uint256"
        },
        {
          "indexed": false,
          "name": "_amount_to_give",
          "type": "uint256"
        }
      ],
      "name": "ExchangeToEther",
      "type": "event"
    },
    {
      "anonymous": false,
      "inputs": [
        {
          "indexed": false,
          "name": "_address",
          "type": "address"
        },
        {
          "indexed": false,
          "name": "_amount_received",
          "type": "uint256"
        },
        {
          "indexed": false,
          "name": "_amount_to_give",
          "type": "uint256"
        }
      ],
      "name": "ExchangeToRaw",
      "type": "event"
    },
    {
      "constant": false,
      "inputs": [
        {
          "name": "value",
          "type": "uint256"
        }
      ],
      "name": "withdraw",
      "outputs": [
        {
          "name": "success",
          "type": "bool"
        }
      ],
      "payable": true,
      "stateMutability": "payable",
      "type": "function"
    },
    {
      "constant": false,
      "inputs": [
        {
          "name": "_address",
          "type": "address"
        },
        {
          "name": "_device_serial_number",
          "type": "string"
        },
        {
          "name": "value",
          "type": "uint256"
        }
      ],
      "name": "withdrawFromDevice",
      "outputs": [
        {
          "name": "success",
          "type": "bool"
        }
      ],
      "payable": true,
      "stateMutability": "payable",
      "type": "function"
    },
    {
      "constant": false,
      "inputs": [],
      "name": "TestingFunction",
      "outputs": [],
      "payable": false,
      "stateMutability": "nonpayable",
      "type": "function"
    },
    {
      "constant": false,
      "inputs": [],
      "name": "TestingFunction2",
      "outputs": [],
      "payable": false,
      "stateMutability": "nonpayable",
      "type": "function"
    },
    {
      "constant": false,
      "inputs": [],
      "name": "TestingFunction3",
      "outputs": [],
      "payable": false,
      "stateMutability": "nonpayable",
      "type": "function"
    },
    {
      "constant": false,
      "inputs": [
        {
          "name": "_address",
          "type": "address"
        },
        {
          "name": "_device_serial_number",
          "type": "string"
        },
        {
          "name": "_device_name",
          "type": "string"
        }
      ],
      "name": "addDevice",
      "outputs": [
        {
          "name": "success",
          "type": "bool"
        }
      ],
      "payable": false,
      "stateMutability": "nonpayable",
      "type": "function"
    },
    {
      "constant": true,
      "inputs": [
        {
          "name": "_device_address",
          "type": "address"
        },
        {
          "name": "_device_serial_number",
          "type": "string"
        }
      ],
      "name": "getActionsLengthOfDevice",
      "outputs": [
        {
          "name": "",
          "type": "uint256"
        }
      ],
      "payable": false,
      "stateMutability": "view",
      "type": "function"
    },
    {
      "constant": true,
      "inputs": [
        {
          "name": "_device_address",
          "type": "address"
        },
        {
          "name": "_device_serial_number",
          "type": "string"
        }
      ],
      "name": "getActionsHistoryLengthOfDevice",
      "outputs": [
        {
          "name": "",
          "type": "uint256"
        }
      ],
      "payable": false,
      "stateMutability": "view",
      "type": "function"
    },
    {
      "constant": false,
      "inputs": [
        {
          "name": "_device_address",
          "type": "address"
        },
        {
          "name": "_device_serial_number",
          "type": "string"
        }
      ],
      "name": "TestingIncrement",
      "outputs": [],
      "payable": false,
      "stateMutability": "nonpayable",
      "type": "function"
    },
    {
      "constant": false,
      "inputs": [
        {
          "name": "_device_address",
          "type": "address"
        },
        {
          "name": "_device_serial_number",
          "type": "string"
        },
        {
          "name": "_action_name",
          "type": "string"
        },
        {
          "name": "_action_price",
          "type": "uint256"
        },
        {
          "name": "_action_duration",
          "type": "uint256"
        },
        {
          "name": "_refundable",
          "type": "bool"
        }
      ],
      "name": "addAction",
      "outputs": [
        {
          "name": "success",
          "type": "bool"
        }
      ],
      "payable": true,
      "stateMutability": "payable",
      "type": "function"
    },
    {
      "constant": false,
      "inputs": [
        {
          "name": "_device_address",
          "type": "address"
        },
        {
          "name": "_device_serial_number",
          "type": "string"
        },
        {
          "name": "_action_id",
          "type": "uint256"
        }
      ],
      "name": "enableAction",
      "outputs": [
        {
          "name": "success",
          "type": "bool"
        }
      ],
      "payable": true,
      "stateMutability": "payable",
      "type": "function"
    },
    {
      "constant": false,
      "inputs": [
        {
          "name": "_device_address",
          "type": "address"
        },
        {
          "name": "_device_serial_number",
          "type": "string"
        },
        {
          "name": "_action_id",
          "type": "uint256"
        }
      ],
      "name": "disableAction",
      "outputs": [
        {
          "name": "success",
          "type": "bool"
        }
      ],
      "payable": true,
      "stateMutability": "payable",
      "type": "function"
    },
    {
      "constant": false,
      "inputs": [
        {
          "name": "_device_address",
          "type": "address"
        },
        {
          "name": "_device_serial_number",
          "type": "string"
        },
        {
          "name": "_action_id",
          "type": "uint256"
        },
        {
          "name": "_action_history_id",
          "type": "uint256"
        }
      ],
      "name": "refund",
      "outputs": [
        {
          "name": "success",
          "type": "bool"
        }
      ],
      "payable": true,
      "stateMutability": "payable",
      "type": "function"
    },
    {
      "constant": false,
      "inputs": [],
      "name": "refundAutomatic",
      "outputs": [],
      "payable": false,
      "stateMutability": "nonpayable",
      "type": "function"
    },
    {
      "constant": true,
      "inputs": [],
      "name": "getTotalDevices",
      "outputs": [
        {
          "name": "",
          "type": "uint256"
        }
      ],
      "payable": false,
      "stateMutability": "view",
      "type": "function"
    },
    {
      "constant": true,
      "inputs": [
        {
          "name": "_address",
          "type": "address"
        }
      ],
      "name": "getExchangeLeftOf",
      "outputs": [
        {
          "name": "",
          "type": "uint256"
        }
      ],
      "payable": false,
      "stateMutability": "view",
      "type": "function"
    },
    {
      "constant": true,
      "inputs": [
        {
          "name": "_device_address",
          "type": "address"
        },
        {
          "name": "_device_serial_number",
          "type": "string"
        }
      ],
      "name": "getDevice",
      "outputs": [
        {
          "name": "",
          "type": "string"
        },
        {
          "name": "",
          "type": "uint256"
        },
        {
          "name": "",
          "type": "address"
        },
        {
          "name": "",
          "type": "bool"
        }
      ],
      "payable": false,
      "stateMutability": "view",
      "type": "function"
    },
    {
      "constant": true,
      "inputs": [],
      "name": "getAddresses",
      "outputs": [
        {
          "name": "",
          "type": "address[]"
        }
      ],
      "payable": false,
      "stateMutability": "view",
      "type": "function"
    },
    {
      "constant": true,
      "inputs": [
        {
          "name": "_device_address",
          "type": "address"
        },
        {
          "name": "_device_serial_number",
          "type": "string"
        },
        {
          "name": "_index",
          "type": "uint256"
        }
      ],
      "name": "getAction",
      "outputs": [
        {
          "name": "",
          "type": "string"
        }
      ],
      "payable": false,
      "stateMutability": "view",
      "type": "function"
    },
    {
      "constant": true,
      "inputs": [
        {
          "name": "_address",
          "type": "address"
        },
        {
          "name": "_device_serial_number",
          "type": "string"
        }
      ],
      "name": "getDeviceOwner",
      "outputs": [
        {
          "name": "",
          "type": "address"
        }
      ],
      "payable": false,
      "stateMutability": "view",
      "type": "function"
    },
    {
      "constant": false,
      "inputs": [],
      "name": "destoryContract",
      "outputs": [],
      "payable": false,
      "stateMutability": "nonpayable",
      "type": "function"
    }
  ],
  "bytecode": "0x60806040526000600360006101000a81548160ff021916908360ff1602179055506101f4600a556301312d006040805190810160405280600d81526020017f526177626f7420546573742031000000000000000000000000000000000000008152506040805190810160405280600381526020017f5257540000000000000000000000000000000000000000000000000000000000815250336000806101000a81548173ffffffffffffffffffffffffffffffffffffffff021916908373ffffffffffffffffffffffffffffffffffffffff160217905550600360009054906101000a900460ff1660ff16600a0a8302600481905550600360009054906101000a900460ff1660ff16600a0a830260058190555033600660006101000a81548173ffffffffffffffffffffffffffffffffffffffff021916908373ffffffffffffffffffffffffffffffffffffffff16021790555060056001600454028115156200016657fe5b0460086000600660009054906101000a900473ffffffffffffffffffffffffffffffffffffffff1673ffffffffffffffffffffffffffffffffffffffff1673ffffffffffffffffffffffffffffffffffffffff1681526020019081526020016000208190555060086000600660009054906101000a900473ffffffffffffffffffffffffffffffffffffffff1673ffffffffffffffffffffffffffffffffffffffff1673ffffffffffffffffffffffffffffffffffffffff1681526020019081526020016000205460046000828254039250508190555081600190805190602001906200025592919062000326565b5080600290805190602001906200026e92919062000326565b505050506001601260003373ffffffffffffffffffffffffffffffffffffffff1673ffffffffffffffffffffffffffffffffffffffff16815260200190815260200160002060030160006101000a81548160ff021916908315150217905550623d0900601260003373ffffffffffffffffffffffffffffffffffffffff1673ffffffffffffffffffffffffffffffffffffffff16815260200190815260200160002060000160008282540192505081905550620003d5565b828054600181600116156101000203166002900490600052602060002090601f016020900481019282601f106200036957805160ff19168380011785556200039a565b828001600101855582156200039a579182015b82811115620003995782518255916020019190600101906200037c565b5b509050620003a99190620003ad565b5090565b620003d291905b80821115620003ce576000816000905550600101620003b4565b5090565b90565b6175bc80620003e56000396000f300608060405260043610610225576000357c0100000000000000000000000000000000000000000000000000000000900463ffffffff16806306fdde031461052b578063095ea7b3146105bb5780630dd4c065146106205780630ec0bfb71461063757806316715c2c146106d557806318160ddd146106ec57806321b2ecd21461071757806323b872dd146107a05780632e1a7d4d146108255780632f5da3471461085d578063313ce5671461090357806331d39221146109345780633b060092146109dc57806342966c6814610a335780634f3e1efc14610a7857806359f8cdbd14610aa35780635efa208d14610aba57806365159bdc14610bb457806365a5d24114610c9b5780636f9fb98a14610cb257806370a0823114610cdd57806379cc679014610d345780637bf77dee14610d9957806380d0501114610e3757806381e7e20e14610ed45780638da5cb5b14610f365780639003f52014610f8d5780639563a62f146110d457806395d89b41146111e057806397d63f931461127057806397e14c7a1461129b578063993b6a2014611364578063a39fac1214611401578063a9059cbb1461146d578063b414d4b6146114d2578063b568cfa01461152d578063bdc7b83f14611544578063c10d416d146115e2578063cae9ca511461164f578063d1965080146116fa578063dc61d16114611711578063dd62ed3e1461173c578063e724529c146117b3578063f2fde38b14611802578063f8b2cb4f14611845575b6000670de0b6b3a76400006002600a5434020281151561024157fe5b0490508060046000828254039250508190555080600860003373ffffffffffffffffffffffffffffffffffffffff1673ffffffffffffffffffffffffffffffffffffffff168152602001908152602001600020600082825401925050819055506102ab338261189c565b50601260003373ffffffffffffffffffffffffffffffffffffffff1673ffffffffffffffffffffffffffffffffffffffff16815260200190815260200160002060010160c06040519081016040528083815260200160008152602001348152602001600a5481526020014281526020016001151581525090806001815401808255809150509060018203906000526020600020906006020160009091929091909150600082015181600001556020820151816001015560408201518160020155606082015181600301556080820151816004015560a08201518160050160006101000a81548160ff02191690831515021790555050505060001515601260003373ffffffffffffffffffffffffffffffffffffffff1673ffffffffffffffffffffffffffffffffffffffff16815260200190815260200160002060030160009054906101000a900460ff161515141561046557600b3390806001815401808255809150509060018203906000526020600020016000909192909190916101000a81548173ffffffffffffffffffffffffffffffffffffffff021916908373ffffffffffffffffffffffffffffffffffffffff160217905550505b80601260003373ffffffffffffffffffffffffffffffffffffffff1673ffffffffffffffffffffffffffffffffffffffff168152602001908152602001600020600001600082825401925050819055507fe9398dec28f4a24325d0afa01cf83bb5ccb4c39f76638c99950181f8c6d71cf6333483604051808473ffffffffffffffffffffffffffffffffffffffff1673ffffffffffffffffffffffffffffffffffffffff168152602001838152602001828152602001935050505060405180910390a150005b34801561053757600080fd5b506105406118b3565b6040518080602001828103825283818151815260200191508051906020019080838360005b83811015610580578082015181840152602081019050610565565b50505050905090810190601f1680156105ad5780820380516001836020036101000a031916815260200191505b509250505060405180910390f35b3480156105c757600080fd5b50610606600480360381019080803573ffffffffffffffffffffffffffffffffffffffff16906020019092919080359060200190929190505050611951565b604051808215151515815260200191505060405180910390f35b34801561062c57600080fd5b506106356119de565b005b6106bb600480360381019080803573ffffffffffffffffffffffffffffffffffffffff169060200190929190803590602001908201803590602001908080601f0160208091040260200160405190810160405280939291908181526020018383808284378201915050505050509192919290803590602001909291905050506119e0565b604051808215151515815260200191505060405180910390f35b3480156106e157600080fd5b506106ea613169565b005b3480156106f857600080fd5b5061070161316b565b6040518082815260200191505060405180910390f35b34801561072357600080fd5b5061079e600480360381019080803573ffffffffffffffffffffffffffffffffffffffff169060200190929190803590602001908201803590602001908080601f0160208091040260200160405190810160405280939291908181526020018383808284378201915050505050509192919290505050613171565b005b3480156107ac57600080fd5b5061080b600480360381019080803573ffffffffffffffffffffffffffffffffffffffff169060200190929190803573ffffffffffffffffffffffffffffffffffffffff1690602001909291908035906020019092919050505061322d565b604051808215151515815260200191505060405180910390f35b6108436004803603810190808035906020019092919050505061335a565b604051808215151515815260200191505060405180910390f35b34801561086957600080fd5b50610888600480360381019080803590602001909291905050506135c9565b6040518080602001828103825283818151815260200191508051906020019080838360005b838110156108c85780820151818401526020810190506108ad565b50505050905090810190601f1680156108f55780820380516001836020036101000a031916815260200191505b509250505060405180910390f35b34801561090f57600080fd5b50610918613684565b604051808260ff1660ff16815260200191505060405180910390f35b6109c2600480360381019080803573ffffffffffffffffffffffffffffffffffffffff169060200190929190803590602001908201803590602001908080601f01602080910402602001604051908101604052809392919081815260200183838082843782019150505050505091929192908035906020019092919080359060200190929190505050613697565b604051808215151515815260200191505060405180910390f35b3480156109e857600080fd5b50610a1d600480360381019080803573ffffffffffffffffffffffffffffffffffffffff16906020019092919050505061434f565b6040518082815260200191505060405180910390f35b348015610a3f57600080fd5b50610a5e6004803603810190808035906020019092919050505061439b565b604051808215151515815260200191505060405180910390f35b348015610a8457600080fd5b50610a8d61449f565b6040518082815260200191505060405180910390f35b348015610aaf57600080fd5b50610ab86144a9565b005b610b9a600480360381019080803573ffffffffffffffffffffffffffffffffffffffff169060200190929190803590602001908201803590602001908080601f0160208091040260200160405190810160405280939291908181526020018383808284378201915050505050509192919290803590602001908201803590602001908080601f01602080910402602001604051908101604052809392919081815260200183838082843782019150505050505091929192908035906020019092919080359060200190929190803515159060200190929190505050614501565b604051808215151515815260200191505060405180910390f35b348015610bc057600080fd5b50610c81600480360381019080803573ffffffffffffffffffffffffffffffffffffffff169060200190929190803590602001908201803590602001908080601f0160208091040260200160405190810160405280939291908181526020018383808284378201915050505050509192919290803590602001908201803590602001908080601f0160208091040260200160405190810160405280939291908181526020018383808284378201915050505050509192919290505050614a6b565b604051808215151515815260200191505060405180910390f35b348015610ca757600080fd5b50610cb0614ede565b005b348015610cbe57600080fd5b50610cc7614ff9565b6040518082815260200191505060405180910390f35b348015610ce957600080fd5b50610d1e600480360381019080803573ffffffffffffffffffffffffffffffffffffffff169060200190929190505050615018565b6040518082815260200191505060405180910390f35b348015610d4057600080fd5b50610d7f600480360381019080803573ffffffffffffffffffffffffffffffffffffffff16906020019092919080359060200190929190505050615030565b604051808215151515815260200191505060405180910390f35b610e1d600480360381019080803573ffffffffffffffffffffffffffffffffffffffff169060200190929190803590602001908201803590602001908080601f01602080910402602001604051908101604052809392919081815260200183838082843782019150505050505091929192908035906020019092919050505061524a565b604051808215151515815260200191505060405180910390f35b348015610e4357600080fd5b50610ebe600480360381019080803573ffffffffffffffffffffffffffffffffffffffff169060200190929190803590602001908201803590602001908080601f0160208091040260200160405190810160405280939291908181526020018383808284378201915050505050509192919290505050615523565b6040518082815260200191505060405180910390f35b348015610ee057600080fd5b50610f15600480360381019080803573ffffffffffffffffffffffffffffffffffffffff1690602001909291905050506155d6565b60405180838152602001821515151581526020019250505060405180910390f35b348015610f4257600080fd5b50610f4b615607565b604051808273ffffffffffffffffffffffffffffffffffffffff1673ffffffffffffffffffffffffffffffffffffffff16815260200191505060405180910390f35b348015610f9957600080fd5b50611014600480360381019080803573ffffffffffffffffffffffffffffffffffffffff169060200190929190803590602001908201803590602001908080601f016020809104026020016040519081016040528093929190818152602001838380828437820191505050505050919291929050505061562c565b60405180806020018581526020018473ffffffffffffffffffffffffffffffffffffffff1673ffffffffffffffffffffffffffffffffffffffff16815260200183151515158152602001828103825286818151815260200191508051906020019080838360005b8381101561109657808201518184015260208101905061107b565b50505050905090810190601f1680156110c35780820380516001836020036101000a031916815260200191505b509550505050505060405180910390f35b3480156110e057600080fd5b50611165600480360381019080803573ffffffffffffffffffffffffffffffffffffffff169060200190929190803590602001908201803590602001908080601f0160208091040260200160405190810160405280939291908181526020018383808284378201915050505050509192919290803590602001909291905050506157cc565b6040518080602001828103825283818151815260200191508051906020019080838360005b838110156111a557808201518184015260208101905061118a565b50505050905090810190601f1680156111d25780820380516001836020036101000a031916815260200191505b509250505060405180910390f35b3480156111ec57600080fd5b506111f561592c565b6040518080602001828103825283818151815260200191508051906020019080838360005b8381101561123557808201518184015260208101905061121a565b50505050905090810190601f1680156112625780820380516001836020036101000a031916815260200191505b509250505060405180910390f35b34801561127c57600080fd5b506112856159ca565b6040518082815260200191505060405180910390f35b3480156112a757600080fd5b50611322600480360381019080803573ffffffffffffffffffffffffffffffffffffffff169060200190929190803590602001908201803590602001908080601f01602080910402602001604051908101604052809392919081815260200183838082843782019150505050505091929192905050506159d0565b604051808273ffffffffffffffffffffffffffffffffffffffff1673ffffffffffffffffffffffffffffffffffffffff16815260200191505060405180910390f35b34801561137057600080fd5b506113eb600480360381019080803573ffffffffffffffffffffffffffffffffffffffff169060200190929190803590602001908201803590602001908080601f0160208091040260200160405190810160405280939291908181526020018383808284378201915050505050509192919290505050615aa6565b6040518082815260200191505060405180910390f35b34801561140d57600080fd5b50611416615b59565b6040518080602001828103825283818151815260200191508051906020019060200280838360005b8381101561145957808201518184015260208101905061143e565b505050509050019250505060405180910390f35b34801561147957600080fd5b506114b8600480360381019080803573ffffffffffffffffffffffffffffffffffffffff1690602001909291908035906020019092919050505061189c565b604051808215151515815260200191505060405180910390f35b3480156114de57600080fd5b50611513600480360381019080803573ffffffffffffffffffffffffffffffffffffffff169060200190929190505050615be7565b604051808215151515815260200191505060405180910390f35b34801561153957600080fd5b50611542615c07565b005b6115c8600480360381019080803573ffffffffffffffffffffffffffffffffffffffff169060200190929190803590602001908201803590602001908080601f016020809104026020016040519081016040528093929190818152602001838380828437820191505050505050919291929080359060200190929190505050615c20565b604051808215151515815260200191505060405180910390f35b3480156115ee57600080fd5b5061160d60048036038101908080359060200190929190505050616d38565b604051808273ffffffffffffffffffffffffffffffffffffffff1673ffffffffffffffffffffffffffffffffffffffff16815260200191505060405180910390f35b34801561165b57600080fd5b506116e0600480360381019080803573ffffffffffffffffffffffffffffffffffffffff16906020019092919080359060200190929190803590602001908201803590602001908080601f0160208091040260200160405190810160405280939291908181526020018383808284378201915050505050509192919290505050616d76565b604051808215151515815260200191505060405180910390f35b34801561170657600080fd5b5061170f616ef9565b005b34801561171d57600080fd5b50611726616f74565b6040518082815260200191505060405180910390f35b34801561174857600080fd5b5061179d600480360381019080803573ffffffffffffffffffffffffffffffffffffffff169060200190929190803573ffffffffffffffffffffffffffffffffffffffff169060200190929190505050616f81565b6040518082815260200191505060405180910390f35b3480156117bf57600080fd5b50611800600480360381019080803573ffffffffffffffffffffffffffffffffffffffff169060200190929190803515159060200190929190505050616fa6565b005b34801561180e57600080fd5b50611843600480360381019080803573ffffffffffffffffffffffffffffffffffffffff1690602001909291905050506170cb565b005b34801561185157600080fd5b50611886600480360381019080803573ffffffffffffffffffffffffffffffffffffffff169060200190929190505050617169565b6040518082815260200191505060405180910390f35b60006118a93384846171b2565b6001905092915050565b60018054600181600116156101000203166002900480601f0160208091040260200160405190810160405280929190818152602001828054600181600116156101000203166002900480156119495780601f1061191e57610100808354040283529160200191611949565b820191906000526020600020905b81548152906001019060200180831161192c57829003601f168201915b505050505081565b600081600960003373ffffffffffffffffffffffffffffffffffffffff1673ffffffffffffffffffffffffffffffffffffffff16815260200190815260200160002060008573ffffffffffffffffffffffffffffffffffffffff1673ffffffffffffffffffffffffffffffffffffffff168152602001908152602001600020819055506001905092915050565b565b60008060001515600d60008773ffffffffffffffffffffffffffffffffffffffff1673ffffffffffffffffffffffffffffffffffffffff168152602001908152602001600020856040518082805190602001908083835b602083101515611a5c5780518252602082019150602081019050602083039250611a37565b6001836020036101000a038019825116818451168082178552505050505050905001915050908152602001604051809103902060020160159054906101000a900460ff1615151415611b3f577ff24fdb01b39b282f0a73d8e2396bfc3b56e46971230b5e86c6a4b8b19892ef666040518080602001828103825260268152602001807f4465766963652073657269616c206e756d626572206973206e6f74206176616981526020017f6c61626c652e000000000000000000000000000000000000000000000000000081525060400191505060405180910390a160009150613161565b60011515600d60008773ffffffffffffffffffffffffffffffffffffffff1673ffffffffffffffffffffffffffffffffffffffff168152602001908152602001600020856040518082805190602001908083835b602083101515611bb85780518252602082019150602081019050602083039250611b93565b6001836020036101000a038019825116818451168082178552505050505050905001915050908152602001604051809103902060020160149054906101000a900460ff1615151415611c75577ff24fdb01b39b282f0a73d8e2396bfc3b56e46971230b5e86c6a4b8b19892ef6660405180806020018281038252601d8152602001807f4465766963652073657269616c206e756d62657220697320627573792e00000081525060200191505060405180910390a160009150613161565b60001515601060008773ffffffffffffffffffffffffffffffffffffffff1673ffffffffffffffffffffffffffffffffffffffff168152602001908152602001600020856040518082805190602001908083835b602083101515611cee5780518252602082019150602081019050602083039250611cc9565b6001836020036101000a0380198251168184511680821785525050505050509050019150509081526020016040518091039020600085815260200190815260200160002060040160019054906101000a900460ff1615151415611de2577ff24fdb01b39b282f0a73d8e2396bfc3b56e46971230b5e86c6a4b8b19892ef666040518080602001828103825260228152602001807f44657669636520616374696f6e206964206973206e6f7420617661696c61626c81526020017f652e00000000000000000000000000000000000000000000000000000000000081525060400191505060405180910390a160009150613161565b601060008673ffffffffffffffffffffffffffffffffffffffff1673ffffffffffffffffffffffffffffffffffffffff168152602001908152602001600020846040518082805190602001908083835b602083101515611e575780518252602082019150602081019050602083039250611e32565b6001836020036101000a0380198251168184511680821785525050505050509050019150509081526020016040518091039020600084815260200190815260200160002060020154600860003373ffffffffffffffffffffffffffffffffffffffff1673ffffffffffffffffffffffffffffffffffffffff168152602001908152602001600020541015611f7c577ff24fdb01b39b282f0a73d8e2396bfc3b56e46971230b5e86c6a4b8b19892ef666040518080602001828103825260338152602001807f5573657220646f65736e2774206861766520656e6f7567682062616c616e636581526020017f20746f20706572666f726d20616374696f6e2e0000000000000000000000000081525060400191505060405180910390a160009150613161565b6001600d60008773ffffffffffffffffffffffffffffffffffffffff1673ffffffffffffffffffffffffffffffffffffffff168152602001908152602001600020856040518082805190602001908083835b602083101515611ff35780518252602082019150602081019050602083039250611fce565b6001836020036101000a038019825116818451168082178552505050505050905001915050908152602001604051809103902060020160146101000a81548160ff021916908315150217905550601060008673ffffffffffffffffffffffffffffffffffffffff1673ffffffffffffffffffffffffffffffffffffffff168152602001908152602001600020846040518082805190602001908083835b6020831015156120b55780518252602082019150602081019050602083039250612090565b6001836020036101000a0380198251168184511680821785525050505050509050019150509081526020016040518091039020600084815260200190815260200160002060020154600860003373ffffffffffffffffffffffffffffffffffffffff1673ffffffffffffffffffffffffffffffffffffffff16815260200190815260200160002060008282540392505081905550601060008673ffffffffffffffffffffffffffffffffffffffff1673ffffffffffffffffffffffffffffffffffffffff168152602001908152602001600020846040518082805190602001908083835b6020831015156121be5780518252602082019150602081019050602083039250612199565b6001836020036101000a038019825116818451168082178552505050505050905001915050908152602001604051809103902060008481526020019081526020016000206002015460086000600d60008973ffffffffffffffffffffffffffffffffffffffff1673ffffffffffffffffffffffffffffffffffffffff168152602001908152602001600020876040518082805190602001908083835b60208310151561227f578051825260208201915060208101905060208303925061225a565b6001836020036101000a038019825116818451168082178552505050505050905001915050908152602001604051809103902060020160009054906101000a900473ffffffffffffffffffffffffffffffffffffffff1673ffffffffffffffffffffffffffffffffffffffff1673ffffffffffffffffffffffffffffffffffffffff16815260200190815260200160002060008282540192505081905550600f60008673ffffffffffffffffffffffffffffffffffffffff1673ffffffffffffffffffffffffffffffffffffffff168152602001908152602001600020846040518082805190602001908083835b602083101515612392578051825260208201915060208101905060208303925061236d565b6001836020036101000a0380198251168184511680821785525050505050509050019150509081526020016040518091039020549050610120604051908101604052803373ffffffffffffffffffffffffffffffffffffffff168152602001848152602001601060008873ffffffffffffffffffffffffffffffffffffffff1673ffffffffffffffffffffffffffffffffffffffff168152602001908152602001600020866040518082805190602001908083835b60208310151561246c5780518252602082019150602081019050602083039250612447565b6001836020036101000a038019825116818451168082178552505050505050905001915050908152602001604051809103902060008681526020019081526020016000206001018054600181600116156101000203166002900480601f0160208091040260200160405190810160405280929190818152602001828054600181600116156101000203166002900480156125475780601f1061251c57610100808354040283529160200191612547565b820191906000526020600020905b81548152906001019060200180831161252a57829003601f168201915b50505050508152602001601060008873ffffffffffffffffffffffffffffffffffffffff1673ffffffffffffffffffffffffffffffffffffffff168152602001908152602001600020866040518082805190602001908083835b6020831015156125c657805182526020820191506020810190506020830392506125a1565b6001836020036101000a03801982511681845116808217855250505050505090500191505090815260200160405180910390206000868152602001908152602001600020600201548152602001601060008873ffffffffffffffffffffffffffffffffffffffff1673ffffffffffffffffffffffffffffffffffffffff168152602001908152602001600020866040518082805190602001908083835b6020831015156126885780518252602082019150602081019050602083039250612663565b6001836020036101000a0380198251168184511680821785525050505050509050019150509081526020016040518091039020600086815260200190815260200160002060030154815260200142815260200160011515815260200160001515815260200160011515815250601160008773ffffffffffffffffffffffffffffffffffffffff1673ffffffffffffffffffffffffffffffffffffffff168152602001908152602001600020856040518082805190602001908083835b6020831015156127695780518252602082019150602081019050602083039250612744565b6001836020036101000a0380198251168184511680821785525050505050509050019150509081526020016040518091039020600083815260200190815260200160002060008201518160000160006101000a81548173ffffffffffffffffffffffffffffffffffffffff021916908373ffffffffffffffffffffffffffffffffffffffff16021790555060208201518160010155604082015181600201908051906020019061281a92919061746b565b50606082015181600301556080820151816004015560a0820151816005015560c08201518160060160006101000a81548160ff02191690831515021790555060e08201518160060160016101000a81548160ff0219169083151502179055506101008201518160060160026101000a81548160ff021916908315150217905550905050601260003373ffffffffffffffffffffffffffffffffffffffff1673ffffffffffffffffffffffffffffffffffffffff168152602001908152602001600020600201610120604051908101604052803373ffffffffffffffffffffffffffffffffffffffff168152602001858152602001601060008973ffffffffffffffffffffffffffffffffffffffff1673ffffffffffffffffffffffffffffffffffffffff168152602001908152602001600020876040518082805190602001908083835b602083101515612983578051825260208201915060208101905060208303925061295e565b6001836020036101000a038019825116818451168082178552505050505050905001915050908152602001604051809103902060008781526020019081526020016000206001018054600181600116156101000203166002900480601f016020809104026020016040519081016040528092919081815260200182805460018160011615610100020316600290048015612a5e5780601f10612a3357610100808354040283529160200191612a5e565b820191906000526020600020905b815481529060010190602001808311612a4157829003601f168201915b50505050508152602001601060008973ffffffffffffffffffffffffffffffffffffffff1673ffffffffffffffffffffffffffffffffffffffff168152602001908152602001600020876040518082805190602001908083835b602083101515612add5780518252602082019150602081019050602083039250612ab8565b6001836020036101000a03801982511681845116808217855250505050505090500191505090815260200160405180910390206000878152602001908152602001600020600201548152602001601060008973ffffffffffffffffffffffffffffffffffffffff1673ffffffffffffffffffffffffffffffffffffffff168152602001908152602001600020876040518082805190602001908083835b602083101515612b9f5780518252602082019150602081019050602083039250612b7a565b6001836020036101000a03801982511681845116808217855250505050505090500191505090815260200160405180910390206000878152602001908152602001600020600301548152602001428152602001600115158152602001600015158152602001600115158152509080600181540180825580915050906001820390600052602060002090600702016000909192909190915060008201518160000160006101000a81548173ffffffffffffffffffffffffffffffffffffffff021916908373ffffffffffffffffffffffffffffffffffffffff160217905550602082015181600101556040820151816002019080519060200190612ca392919061746b565b50606082015181600301556080820151816004015560a0820151816005015560c08201518160060160006101000a81548160ff02191690831515021790555060e08201518160060160016101000a81548160ff0219169083151502179055506101008201518160060160026101000a81548160ff0219169083151502179055505050507f875b40a67d33b0171b10d7197a7c57cc4a8a03020e69c119753e83c0779064078484601060008973ffffffffffffffffffffffffffffffffffffffff1673ffffffffffffffffffffffffffffffffffffffff168152602001908152602001600020876040518082805190602001908083835b602083101515612dbe5780518252602082019150602081019050602083039250612d99565b6001836020036101000a03801982511681845116808217855250505050505090500191505090815260200160405180910390206000878152602001908152602001600020600101601060008a73ffffffffffffffffffffffffffffffffffffffff1673ffffffffffffffffffffffffffffffffffffffff168152602001908152602001600020886040518082805190602001908083835b602083101515612e7a5780518252602082019150602081019050602083039250612e55565b6001836020036101000a0380198251168184511680821785525050505050509050019150509081526020016040518091039020600088815260200190815260200160002060020154601060008b73ffffffffffffffffffffffffffffffffffffffff1673ffffffffffffffffffffffffffffffffffffffff168152602001908152602001600020896040518082805190602001908083835b602083101515612f375780518252602082019150602081019050602083039250612f12565b6001836020036101000a0380198251168184511680821785525050505050509050019150509081526020016040518091039020600089815260200190815260200160002060030154600160405180806020018781526020018060200186815260200185815260200184151515158152602001838103835289818151815260200191508051906020019080838360005b83811015612fe1578082015181840152602081019050612fc6565b50505050905090810190601f16801561300e5780820380516001836020036101000a031916815260200191505b508381038252878181546001816001161561010002031660029004815260200191508054600181600116156101000203166002900480156130905780601f1061306557610100808354040283529160200191613090565b820191906000526020600020905b81548152906001019060200180831161307357829003601f168201915b50509850505050505050505060405180910390a1600f60008673ffffffffffffffffffffffffffffffffffffffff1673ffffffffffffffffffffffffffffffffffffffff168152602001908152602001600020846040518082805190602001908083835b60208310151561311957805182526020820191506020810190506020830392506130f4565b6001836020036101000a038019825116818451168082178552505050505050905001915050908152602001604051809103902060008154809291906001019190505550600191505b509392505050565b565b60045481565b600f60008373ffffffffffffffffffffffffffffffffffffffff1673ffffffffffffffffffffffffffffffffffffffff168152602001908152602001600020816040518082805190602001908083835b6020831015156131e657805182526020820191506020810190506020830392506131c1565b6001836020036101000a0380198251168184511680821785525050505050509050019150509081526020016040518091039020600081548092919060010191905055505050565b6000600960008573ffffffffffffffffffffffffffffffffffffffff1673ffffffffffffffffffffffffffffffffffffffff16815260200190815260200160002060003373ffffffffffffffffffffffffffffffffffffffff1673ffffffffffffffffffffffffffffffffffffffff1681526020019081526020016000205482111515156132ba57600080fd5b81600960008673ffffffffffffffffffffffffffffffffffffffff1673ffffffffffffffffffffffffffffffffffffffff16815260200190815260200160002060003373ffffffffffffffffffffffffffffffffffffffff1673ffffffffffffffffffffffffffffffffffffffff1681526020019081526020016000206000828254039250508190555061334f8484846171b2565b600190509392505050565b6000806000601260003373ffffffffffffffffffffffffffffffffffffffff1673ffffffffffffffffffffffffffffffffffffffff168152602001908152602001600020600001541180156133f1575082601260003373ffffffffffffffffffffffffffffffffffffffff1673ffffffffffffffffffffffffffffffffffffffff1681526020019081526020016000206000015410155b801561343c575082600860003373ffffffffffffffffffffffffffffffffffffffff1673ffffffffffffffffffffffffffffffffffffffff1681526020019081526020016000205410155b156135be57600a54600202670de0b6b3a7640000840281151561345b57fe5b0490503373ffffffffffffffffffffffffffffffffffffffff166108fc829081150290604051600060405180830381858888f193505050501580156134a4573d6000803e3d6000fd5b5082600860003373ffffffffffffffffffffffffffffffffffffffff1673ffffffffffffffffffffffffffffffffffffffff1681526020019081526020016000206000828254039250508190555082601260003373ffffffffffffffffffffffffffffffffffffffff1673ffffffffffffffffffffffffffffffffffffffff168152602001908152602001600020600001600082825403925050819055507f5df5e70917798c2d346fb12f5222b6eac4076621fbea6c5a6b538105fc96e88e338483604051808473ffffffffffffffffffffffffffffffffffffffff1673ffffffffffffffffffffffffffffffffffffffff168152602001838152602001828152602001935050505060405180910390a1600191506135c3565b600091505b50919050565b600c818154811015156135d857fe5b906000526020600020016000915090508054600181600116156101000203166002900480601f01602080910402602001604051908101604052809291908181526020018280546001816001161561010002031660029004801561367c5780601f106136515761010080835404028352916020019161367c565b820191906000526020600020905b81548152906001019060200180831161365f57829003601f168201915b505050505081565b600360009054906101000a900460ff1681565b6000801515600d60008773ffffffffffffffffffffffffffffffffffffffff1673ffffffffffffffffffffffffffffffffffffffff168152602001908152602001600020856040518082805190602001908083835b60208310151561371157805182526020820191506020810190506020830392506136ec565b6001836020036101000a038019825116818451168082178552505050505050905001915050908152602001604051809103902060020160159054906101000a900460ff16151514156137f4577ff24fdb01b39b282f0a73d8e2396bfc3b56e46971230b5e86c6a4b8b19892ef666040518080602001828103825260268152602001807f4465766963652073657269616c206e756d626572206973206e6f74206176616981526020017f6c61626c652e000000000000000000000000000000000000000000000000000081525060400191505060405180910390a160009050614347565b60001515601060008773ffffffffffffffffffffffffffffffffffffffff1673ffffffffffffffffffffffffffffffffffffffff168152602001908152602001600020856040518082805190602001908083835b60208310151561386d5780518252602082019150602081019050602083039250613848565b6001836020036101000a0380198251168184511680821785525050505050509050019150509081526020016040518091039020600085815260200190815260200160002060040160009054906101000a900460ff161515141561393b577ff24fdb01b39b282f0a73d8e2396bfc3b56e46971230b5e86c6a4b8b19892ef666040518080602001828103825260208152602001807f44657669636520616374696f6e206973206e6f7420726566756e6461626c652e81525060200191505060405180910390a160009050614347565b60001515601060008773ffffffffffffffffffffffffffffffffffffffff1673ffffffffffffffffffffffffffffffffffffffff168152602001908152602001600020856040518082805190602001908083835b6020831015156139b4578051825260208201915060208101905060208303925061398f565b6001836020036101000a0380198251168184511680821785525050505050509050019150509081526020016040518091039020600085815260200190815260200160002060040160019054906101000a900460ff1615151415613aa8577ff24fdb01b39b282f0a73d8e2396bfc3b56e46971230b5e86c6a4b8b19892ef666040518080602001828103825260228152602001807f44657669636520616374696f6e206964206973206e6f7420617661696c61626c81526020017f652e00000000000000000000000000000000000000000000000000000000000081525060400191505060405180910390a160009050614347565b60001515601160008773ffffffffffffffffffffffffffffffffffffffff1673ffffffffffffffffffffffffffffffffffffffff168152602001908152602001600020856040518082805190602001908083835b602083101515613b215780518252602082019150602081019050602083039250613afc565b6001836020036101000a0380198251168184511680821785525050505050509050019150509081526020016040518091039020600084815260200190815260200160002060060160029054906101000a900460ff1615151415613c15577ff24fdb01b39b282f0a73d8e2396bfc3b56e46971230b5e86c6a4b8b19892ef666040518080602001828103825260268152602001807f44657669636520686973746f727920696e646578206973206e6f74206176616981526020017f6c61626c652e000000000000000000000000000000000000000000000000000081525060400191505060405180910390a160009050614347565b60011515601160008773ffffffffffffffffffffffffffffffffffffffff1673ffffffffffffffffffffffffffffffffffffffff168152602001908152602001600020856040518082805190602001908083835b602083101515613c8e5780518252602082019150602081019050602083039250613c69565b6001836020036101000a0380198251168184511680821785525050505050509050019150509081526020016040518091039020600084815260200190815260200160002060060160019054906101000a900460ff1615151415613d5c577ff24fdb01b39b282f0a73d8e2396bfc3b56e46971230b5e86c6a4b8b19892ef666040518080602001828103825260208152602001807f44657669636520616374696f6e20686173206265656e20726566756e6465642e81525060200191505060405180910390a160009050614347565b82601160008773ffffffffffffffffffffffffffffffffffffffff1673ffffffffffffffffffffffffffffffffffffffff168152602001908152602001600020856040518082805190602001908083835b602083101515613dd25780518252602082019150602081019050602083039250613dad565b6001836020036101000a0380198251168184511680821785525050505050509050019150509081526020016040518091039020600084815260200190815260200160002060010154141515613eb8577ff24fdb01b39b282f0a73d8e2396bfc3b56e46971230b5e86c6a4b8b19892ef666040518080602001828103825260358152602001807f44657669636520686973746f727920616374696f6e20696420646f65736e277481526020017f206d617463682074686520616374696f6e2069642e000000000000000000000081525060400191505060405180910390a160009050614347565b601060008673ffffffffffffffffffffffffffffffffffffffff1673ffffffffffffffffffffffffffffffffffffffff168152602001908152602001600020846040518082805190602001908083835b602083101515613f2d5780518252602082019150602081019050602083039250613f08565b6001836020036101000a038019825116818451168082178552505050505050905001915050908152602001604051809103902060008481526020019081526020016000206002015460086000600d60008973ffffffffffffffffffffffffffffffffffffffff1673ffffffffffffffffffffffffffffffffffffffff168152602001908152602001600020876040518082805190602001908083835b602083101515613fee5780518252602082019150602081019050602083039250613fc9565b6001836020036101000a038019825116818451168082178552505050505050905001915050908152602001604051809103902060020160009054906101000a900473ffffffffffffffffffffffffffffffffffffffff1673ffffffffffffffffffffffffffffffffffffffff1673ffffffffffffffffffffffffffffffffffffffff16815260200190815260200160002060008282540392505081905550601060008673ffffffffffffffffffffffffffffffffffffffff1673ffffffffffffffffffffffffffffffffffffffff168152602001908152602001600020846040518082805190602001908083835b60208310151561410157805182526020820191506020810190506020830392506140dc565b6001836020036101000a038019825116818451168082178552505050505050905001915050908152602001604051809103902060008481526020019081526020016000206002015460086000601160008973ffffffffffffffffffffffffffffffffffffffff1673ffffffffffffffffffffffffffffffffffffffff168152602001908152602001600020876040518082805190602001908083835b6020831015156141c2578051825260208201915060208101905060208303925061419d565b6001836020036101000a0380198251168184511680821785525050505050509050019150509081526020016040518091039020600086815260200190815260200160002060000160009054906101000a900473ffffffffffffffffffffffffffffffffffffffff1673ffffffffffffffffffffffffffffffffffffffff1673ffffffffffffffffffffffffffffffffffffffff168152602001908152602001600020600082825401925050819055506001601160008773ffffffffffffffffffffffffffffffffffffffff1673ffffffffffffffffffffffffffffffffffffffff168152602001908152602001600020856040518082805190602001908083835b6020831015156142e857805182526020820191506020810190506020830392506142c3565b6001836020036101000a0380198251168184511680821785525050505050509050019150509081526020016040518091039020600084815260200190815260200160002060060160016101000a81548160ff0219169083151502179055505b949350505050565b6000601260008373ffffffffffffffffffffffffffffffffffffffff1673ffffffffffffffffffffffffffffffffffffffff168152602001908152602001600020600001549050919050565b600081600860003373ffffffffffffffffffffffffffffffffffffffff1673ffffffffffffffffffffffffffffffffffffffff16815260200190815260200160002054101515156143eb57600080fd5b81600860003373ffffffffffffffffffffffffffffffffffffffff1673ffffffffffffffffffffffffffffffffffffffff16815260200190815260200160002060008282540392505081905550816004600082825403925050819055503373ffffffffffffffffffffffffffffffffffffffff167fcc16f5dbb4873280815c1ee09dbd06736cffcc184412cf7a71a0fdb75d397ca5836040518082815260200191505060405180910390a260019050919050565b6000600554905090565b6144fe73577ccfbd7b0ee9e557029775c531552a65d9e11d6040805190810160405280600481526020017f414243310000000000000000000000000000000000000000000000000000000081525060006119e0565b50565b60008060001515600d60008a73ffffffffffffffffffffffffffffffffffffffff1673ffffffffffffffffffffffffffffffffffffffff168152602001908152602001600020886040518082805190602001908083835b60208310151561457d5780518252602082019150602081019050602083039250614558565b6001836020036101000a038019825116818451168082178552505050505050905001915050908152602001604051809103902060020160159054906101000a900460ff1615151415614660577ff24fdb01b39b282f0a73d8e2396bfc3b56e46971230b5e86c6a4b8b19892ef666040518080602001828103825260268152602001807f4465766963652073657269616c206e756d626572206973206e6f74206176616981526020017f6c61626c652e000000000000000000000000000000000000000000000000000081525060400191505060405180910390a160009150614a60565b600e60008973ffffffffffffffffffffffffffffffffffffffff1673ffffffffffffffffffffffffffffffffffffffff168152602001908152602001600020876040518082805190602001908083835b6020831015156146d557805182526020820191506020810190506020830392506146b0565b6001836020036101000a038019825116818451168082178552505050505050905001915050908152602001604051809103902054905060c060405190810160405280828152602001878152602001868152602001858152602001841515815260200160011515815250601060008a73ffffffffffffffffffffffffffffffffffffffff1673ffffffffffffffffffffffffffffffffffffffff168152602001908152602001600020886040518082805190602001908083835b6020831015156147b3578051825260208201915060208101905060208303925061478e565b6001836020036101000a0380198251168184511680821785525050505050509050019150509081526020016040518091039020600083815260200190815260200160002060008201518160000155602082015181600101908051906020019061481d92919061746b565b50604082015181600201556060820151816003015560808201518160040160006101000a81548160ff02191690831515021790555060a08201518160040160016101000a81548160ff0219169083151502179055509050507f26627a764f955b62fb708fed19fc43286b51fa31657f21e5ed5380d8615166ae8782888888600160405180806020018781526020018060200186815260200185815260200184151515158152602001838103835289818151815260200191508051906020019080838360005b838110156148fd5780820151818401526020810190506148e2565b50505050905090810190601f16801561492a5780820380516001836020036101000a031916815260200191505b50838103825287818151815260200191508051906020019080838360005b83811015614963578082015181840152602081019050614948565b50505050905090810190601f1680156149905780820380516001836020036101000a031916815260200191505b509850505050505050505060405180910390a1600e60008973ffffffffffffffffffffffffffffffffffffffff1673ffffffffffffffffffffffffffffffffffffffff168152602001908152602001600020876040518082805190602001908083835b602083101515614a1857805182526020820191506020810190506020830392506149f3565b6001836020036101000a038019825116818451168082178552505050505050905001915050908152602001604051809103902060008154809291906001019190505550600191505b509695505050505050565b60008060011515600d60008773ffffffffffffffffffffffffffffffffffffffff1673ffffffffffffffffffffffffffffffffffffffff168152602001908152602001600020856040518082805190602001908083835b602083101515614ae75780518252602082019150602081019050602083039250614ac2565b6001836020036101000a038019825116818451168082178552505050505050905001915050908152602001604051809103902060020160159054906101000a900460ff1615151415614bca577ff24fdb01b39b282f0a73d8e2396bfc3b56e46971230b5e86c6a4b8b19892ef6660405180806020018281038252603e8152602001807f4465766963652073657269616c206e756d62657220697320616c72656164792081526020017f617661696c61626c65206f6e207468652073616d6520616464726573732e000081525060400191505060405180910390a160009150614ed6565b600d60008673ffffffffffffffffffffffffffffffffffffffff1673ffffffffffffffffffffffffffffffffffffffff168152602001908152602001600020846040518082805190602001908083835b602083101515614c3f5780518252602082019150602081019050602083039250614c1a565b6001836020036101000a0380198251168184511680821785525050505050509050019150509081526020016040518091039020905082816000019080519060200190614c8c9291906174eb565b5060008160010181905550338160020160006101000a81548173ffffffffffffffffffffffffffffffffffffffff021916908373ffffffffffffffffffffffffffffffffffffffff16021790555060008160020160146101000a81548160ff02191690831515021790555060018160020160156101000a81548160ff021916908315150217905550600c849080600181540180825580915050906001820390600052602060002001600090919290919091509080519060200190614d519291906174eb565b50507f2606b7477175a2d97210a32efdb543396d1e871b281764d9ca93dda673ac21be338686866001604051808673ffffffffffffffffffffffffffffffffffffffff1673ffffffffffffffffffffffffffffffffffffffff1681526020018573ffffffffffffffffffffffffffffffffffffffff1673ffffffffffffffffffffffffffffffffffffffff168152602001806020018060200184151515158152602001838103835286818151815260200191508051906020019080838360005b83811015614e2c578082015181840152602081019050614e11565b50505050905090810190601f168015614e595780820380516001836020036101000a031916815260200191505b50838103825285818151815260200191508051906020019080838360005b83811015614e92578082015181840152602081019050614e77565b50505050905090810190601f168015614ebf5780820380516001836020036101000a031916815260200191505b5097505050505050505060405180910390a1600191505b509392505050565b614f6773577ccfbd7b0ee9e557029775c531552a65d9e11d6040805190810160405280600481526020017f41424331000000000000000000000000000000000000000000000000000000008152506040805190810160405280600e81526020017f5261737062657272792050492033000000000000000000000000000000000000815250614a6b565b50614ff673577ccfbd7b0ee9e557029775c531552a65d9e11d6040805190810160405280600481526020017f41424331000000000000000000000000000000000000000000000000000000008152506040805190810160405280600481526020017f4f70656e000000000000000000000000000000000000000000000000000000008152506014806001614501565b50565b60003073ffffffffffffffffffffffffffffffffffffffff1631905090565b60086020528060005260406000206000915090505481565b600081600860008573ffffffffffffffffffffffffffffffffffffffff1673ffffffffffffffffffffffffffffffffffffffff168152602001908152602001600020541015151561508057600080fd5b600960008473ffffffffffffffffffffffffffffffffffffffff1673ffffffffffffffffffffffffffffffffffffffff16815260200190815260200160002060003373ffffffffffffffffffffffffffffffffffffffff1673ffffffffffffffffffffffffffffffffffffffff16815260200190815260200160002054821115151561510b57600080fd5b81600860008573ffffffffffffffffffffffffffffffffffffffff1673ffffffffffffffffffffffffffffffffffffffff1681526020019081526020016000206000828254039250508190555081600960008573ffffffffffffffffffffffffffffffffffffffff1673ffffffffffffffffffffffffffffffffffffffff16815260200190815260200160002060003373ffffffffffffffffffffffffffffffffffffffff1673ffffffffffffffffffffffffffffffffffffffff16815260200190815260200160002060008282540392505081905550816004600082825403925050819055508273ffffffffffffffffffffffffffffffffffffffff167fcc16f5dbb4873280815c1ee09dbd06736cffcc184412cf7a71a0fdb75d397ca5836040518082815260200191505060405180910390a26001905092915050565b60003373ffffffffffffffffffffffffffffffffffffffff16600d60008673ffffffffffffffffffffffffffffffffffffffff1673ffffffffffffffffffffffffffffffffffffffff168152602001908152602001600020846040518082805190602001908083835b6020831015156152d857805182526020820191506020810190506020830392506152b3565b6001836020036101000a038019825116818451168082178552505050505050905001915050908152602001604051809103902060020160009054906101000a900473ffffffffffffffffffffffffffffffffffffffff1673ffffffffffffffffffffffffffffffffffffffff16141515615355576000905061551c565b81600d60008673ffffffffffffffffffffffffffffffffffffffff1673ffffffffffffffffffffffffffffffffffffffff168152602001908152602001600020846040518082805190602001908083835b6020831015156153cb57805182526020820191506020810190506020830392506153a6565b6001836020036101000a0380198251168184511680821785525050505050509050019150509081526020016040518091039020600101541015615411576000905061551c565b81600d60008673ffffffffffffffffffffffffffffffffffffffff1673ffffffffffffffffffffffffffffffffffffffff168152602001908152602001600020846040518082805190602001908083835b6020831015156154875780518252602082019150602081019050602083039250615462565b6001836020036101000a03801982511681845116808217855250505050505090500191505090815260200160405180910390206001016000828254039250508190555081600860003373ffffffffffffffffffffffffffffffffffffffff1673ffffffffffffffffffffffffffffffffffffffff16815260200190815260200160002060008282540192505081905550600190505b9392505050565b6000600f60008473ffffffffffffffffffffffffffffffffffffffff1673ffffffffffffffffffffffffffffffffffffffff168152602001908152602001600020826040518082805190602001908083835b60208310151561559a5780518252602082019150602081019050602083039250615575565b6001836020036101000a038019825116818451168082178552505050505050905001915050908152602001604051809103902054905092915050565b60126020528060005260406000206000915090508060000154908060030160009054906101000a900460ff16905082565b6000809054906101000a900473ffffffffffffffffffffffffffffffffffffffff1681565b6060600080600080600d60008873ffffffffffffffffffffffffffffffffffffffff1673ffffffffffffffffffffffffffffffffffffffff168152602001908152602001600020866040518082805190602001908083835b6020831015156156a95780518252602082019150602081019050602083039250615684565b6001836020036101000a038019825116818451168082178552505050505050905001915050908152602001604051809103902090508060000181600101548260020160009054906101000a900473ffffffffffffffffffffffffffffffffffffffff168360020160159054906101000a900460ff16838054600181600116156101000203166002900480601f0160208091040260200160405190810160405280929190818152602001828054600181600116156101000203166002900480156157b35780601f10615788576101008083540402835291602001916157b3565b820191906000526020600020905b81548152906001019060200180831161579657829003601f168201915b5050505050935094509450945094505092959194509250565b6060601060008573ffffffffffffffffffffffffffffffffffffffff1673ffffffffffffffffffffffffffffffffffffffff168152602001908152602001600020836040518082805190602001908083835b602083101515615843578051825260208201915060208101905060208303925061581e565b6001836020036101000a038019825116818451168082178552505050505050905001915050908152602001604051809103902060008381526020019081526020016000206001018054600181600116156101000203166002900480601f01602080910402602001604051908101604052809291908181526020018280546001816001161561010002031660029004801561591e5780601f106158f35761010080835404028352916020019161591e565b820191906000526020600020905b81548152906001019060200180831161590157829003601f168201915b505050505090509392505050565b60028054600181600116156101000203166002900480601f0160208091040260200160405190810160405280929190818152602001828054600181600116156101000203166002900480156159c25780601f10615997576101008083540402835291602001916159c2565b820191906000526020600020905b8154815290600101906020018083116159a557829003601f168201915b505050505081565b60055481565b6000600d60008473ffffffffffffffffffffffffffffffffffffffff1673ffffffffffffffffffffffffffffffffffffffff168152602001908152602001600020826040518082805190602001908083835b602083101515615a475780518252602082019150602081019050602083039250615a22565b6001836020036101000a038019825116818451168082178552505050505050905001915050908152602001604051809103902060020160009054906101000a900473ffffffffffffffffffffffffffffffffffffffff16905092915050565b6000600e60008473ffffffffffffffffffffffffffffffffffffffff1673ffffffffffffffffffffffffffffffffffffffff168152602001908152602001600020826040518082805190602001908083835b602083101515615b1d5780518252602082019150602081019050602083039250615af8565b6001836020036101000a038019825116818451168082178552505050505050905001915050908152602001604051809103902054905092915050565b6060600b805480602002602001604051908101604052809291908181526020018280548015615bdd57602002820191906000526020600020905b8160009054906101000a900473ffffffffffffffffffffffffffffffffffffffff1673ffffffffffffffffffffffffffffffffffffffff1681526020019060010190808311615b93575b5050505050905090565b60076020528060005260406000206000915054906101000a900460ff1681565b3073ffffffffffffffffffffffffffffffffffffffff16ff5b60008060001515600d60008773ffffffffffffffffffffffffffffffffffffffff1673ffffffffffffffffffffffffffffffffffffffff168152602001908152602001600020856040518082805190602001908083835b602083101515615c9c5780518252602082019150602081019050602083039250615c77565b6001836020036101000a038019825116818451168082178552505050505050905001915050908152602001604051809103902060020160159054906101000a900460ff1615151415615d7f577ff24fdb01b39b282f0a73d8e2396bfc3b56e46971230b5e86c6a4b8b19892ef666040518080602001828103825260268152602001807f4465766963652073657269616c206e756d626572206973206e6f74206176616981526020017f6c61626c652e000000000000000000000000000000000000000000000000000081525060400191505060405180910390a160009150616d30565b60001515601060008773ffffffffffffffffffffffffffffffffffffffff1673ffffffffffffffffffffffffffffffffffffffff168152602001908152602001600020856040518082805190602001908083835b602083101515615df85780518252602082019150602081019050602083039250615dd3565b6001836020036101000a0380198251168184511680821785525050505050509050019150509081526020016040518091039020600085815260200190815260200160002060040160019054906101000a900460ff1615151415615eec577ff24fdb01b39b282f0a73d8e2396bfc3b56e46971230b5e86c6a4b8b19892ef666040518080602001828103825260228152602001807f44657669636520616374696f6e206964206973206e6f7420617661696c61626c81526020017f652e00000000000000000000000000000000000000000000000000000000000081525060400191505060405180910390a160009150616d30565b600f60008673ffffffffffffffffffffffffffffffffffffffff1673ffffffffffffffffffffffffffffffffffffffff168152602001908152602001600020846040518082805190602001908083835b602083101515615f615780518252602082019150602081019050602083039250615f3c565b6001836020036101000a0380198251168184511680821785525050505050509050019150509081526020016040518091039020549050610120604051908101604052803373ffffffffffffffffffffffffffffffffffffffff168152602001848152602001601060008873ffffffffffffffffffffffffffffffffffffffff1673ffffffffffffffffffffffffffffffffffffffff168152602001908152602001600020866040518082805190602001908083835b60208310151561603b5780518252602082019150602081019050602083039250616016565b6001836020036101000a038019825116818451168082178552505050505050905001915050908152602001604051809103902060008681526020019081526020016000206001018054600181600116156101000203166002900480601f0160208091040260200160405190810160405280929190818152602001828054600181600116156101000203166002900480156161165780601f106160eb57610100808354040283529160200191616116565b820191906000526020600020905b8154815290600101906020018083116160f957829003601f168201915b50505050508152602001601060008873ffffffffffffffffffffffffffffffffffffffff1673ffffffffffffffffffffffffffffffffffffffff168152602001908152602001600020866040518082805190602001908083835b6020831015156161955780518252602082019150602081019050602083039250616170565b6001836020036101000a03801982511681845116808217855250505050505090500191505090815260200160405180910390206000868152602001908152602001600020600201548152602001601060008873ffffffffffffffffffffffffffffffffffffffff1673ffffffffffffffffffffffffffffffffffffffff168152602001908152602001600020866040518082805190602001908083835b6020831015156162575780518252602082019150602081019050602083039250616232565b6001836020036101000a0380198251168184511680821785525050505050509050019150509081526020016040518091039020600086815260200190815260200160002060030154815260200142815260200160011515815260200160001515815260200160011515815250601160008773ffffffffffffffffffffffffffffffffffffffff1673ffffffffffffffffffffffffffffffffffffffff168152602001908152602001600020856040518082805190602001908083835b6020831015156163385780518252602082019150602081019050602083039250616313565b6001836020036101000a0380198251168184511680821785525050505050509050019150509081526020016040518091039020600083815260200190815260200160002060008201518160000160006101000a81548173ffffffffffffffffffffffffffffffffffffffff021916908373ffffffffffffffffffffffffffffffffffffffff1602179055506020820151816001015560408201518160020190805190602001906163e992919061746b565b50606082015181600301556080820151816004015560a0820151816005015560c08201518160060160006101000a81548160ff02191690831515021790555060e08201518160060160016101000a81548160ff0219169083151502179055506101008201518160060160026101000a81548160ff021916908315150217905550905050601260003373ffffffffffffffffffffffffffffffffffffffff1673ffffffffffffffffffffffffffffffffffffffff168152602001908152602001600020600201610120604051908101604052803373ffffffffffffffffffffffffffffffffffffffff168152602001858152602001601060008973ffffffffffffffffffffffffffffffffffffffff1673ffffffffffffffffffffffffffffffffffffffff168152602001908152602001600020876040518082805190602001908083835b602083101515616552578051825260208201915060208101905060208303925061652d565b6001836020036101000a038019825116818451168082178552505050505050905001915050908152602001604051809103902060008781526020019081526020016000206001018054600181600116156101000203166002900480601f01602080910402602001604051908101604052809291908181526020018280546001816001161561010002031660029004801561662d5780601f106166025761010080835404028352916020019161662d565b820191906000526020600020905b81548152906001019060200180831161661057829003601f168201915b50505050508152602001601060008973ffffffffffffffffffffffffffffffffffffffff1673ffffffffffffffffffffffffffffffffffffffff168152602001908152602001600020876040518082805190602001908083835b6020831015156166ac5780518252602082019150602081019050602083039250616687565b6001836020036101000a03801982511681845116808217855250505050505090500191505090815260200160405180910390206000878152602001908152602001600020600201548152602001601060008973ffffffffffffffffffffffffffffffffffffffff1673ffffffffffffffffffffffffffffffffffffffff168152602001908152602001600020876040518082805190602001908083835b60208310151561676e5780518252602082019150602081019050602083039250616749565b6001836020036101000a03801982511681845116808217855250505050505090500191505090815260200160405180910390206000878152602001908152602001600020600301548152602001428152602001600015158152602001600015158152602001600115158152509080600181540180825580915050906001820390600052602060002090600702016000909192909190915060008201518160000160006101000a81548173ffffffffffffffffffffffffffffffffffffffff021916908373ffffffffffffffffffffffffffffffffffffffff16021790555060208201518160010155604082015181600201908051906020019061687292919061746b565b50606082015181600301556080820151816004015560a0820151816005015560c08201518160060160006101000a81548160ff02191690831515021790555060e08201518160060160016101000a81548160ff0219169083151502179055506101008201518160060160026101000a81548160ff0219169083151502179055505050507f54376985c61133fd74ddfd5be0e7cacfebc5ee2b28b59fff7642086996680be48484601060008973ffffffffffffffffffffffffffffffffffffffff1673ffffffffffffffffffffffffffffffffffffffff168152602001908152602001600020876040518082805190602001908083835b60208310151561698d5780518252602082019150602081019050602083039250616968565b6001836020036101000a03801982511681845116808217855250505050505090500191505090815260200160405180910390206000878152602001908152602001600020600101601060008a73ffffffffffffffffffffffffffffffffffffffff1673ffffffffffffffffffffffffffffffffffffffff168152602001908152602001600020886040518082805190602001908083835b602083101515616a495780518252602082019150602081019050602083039250616a24565b6001836020036101000a0380198251168184511680821785525050505050509050019150509081526020016040518091039020600088815260200190815260200160002060020154601060008b73ffffffffffffffffffffffffffffffffffffffff1673ffffffffffffffffffffffffffffffffffffffff168152602001908152602001600020896040518082805190602001908083835b602083101515616b065780518252602082019150602081019050602083039250616ae1565b6001836020036101000a0380198251168184511680821785525050505050509050019150509081526020016040518091039020600089815260200190815260200160002060030154600160405180806020018781526020018060200186815260200185815260200184151515158152602001838103835289818151815260200191508051906020019080838360005b83811015616bb0578082015181840152602081019050616b95565b50505050905090810190601f168015616bdd5780820380516001836020036101000a031916815260200191505b50838103825287818154600181600116156101000203166002900481526020019150805460018160011615610100020316600290048015616c5f5780601f10616c3457610100808354040283529160200191616c5f565b820191906000526020600020905b815481529060010190602001808311616c4257829003601f168201915b50509850505050505050505060405180910390a1600f60008673ffffffffffffffffffffffffffffffffffffffff1673ffffffffffffffffffffffffffffffffffffffff168152602001908152602001600020846040518082805190602001908083835b602083101515616ce85780518252602082019150602081019050602083039250616cc3565b6001836020036101000a038019825116818451168082178552505050505050905001915050908152602001604051809103902060008154809291906001019190505550600191505b509392505050565b600b81815481101515616d4757fe5b906000526020600020016000915054906101000a900473ffffffffffffffffffffffffffffffffffffffff1681565b600080849050616d868585611951565b15616ef0578073ffffffffffffffffffffffffffffffffffffffff16638f4ffcb1338630876040518563ffffffff167c0100000000000000000000000000000000000000000000000000000000028152600401808573ffffffffffffffffffffffffffffffffffffffff1673ffffffffffffffffffffffffffffffffffffffff1681526020018481526020018373ffffffffffffffffffffffffffffffffffffffff1673ffffffffffffffffffffffffffffffffffffffff16815260200180602001828103825283818151815260200191508051906020019080838360005b83811015616e80578082015181840152602081019050616e65565b50505050905090810190601f168015616ead5780820380516001836020036101000a031916815260200191505b5095505050505050600060405180830381600087803b158015616ecf57600080fd5b505af1158015616ee3573d6000803e3d6000fd5b5050505060019150616ef1565b5b509392505050565b6000809054906101000a900473ffffffffffffffffffffffffffffffffffffffff1673ffffffffffffffffffffffffffffffffffffffff163373ffffffffffffffffffffffffffffffffffffffff16141515616f5457600080fd5b600260055402600581905550600554600460008282540192505081905550565b6000600c80549050905090565b6009602052816000526040600020602052806000526040600020600091509150505481565b6000809054906101000a900473ffffffffffffffffffffffffffffffffffffffff1673ffffffffffffffffffffffffffffffffffffffff163373ffffffffffffffffffffffffffffffffffffffff1614151561700157600080fd5b80600760008473ffffffffffffffffffffffffffffffffffffffff1673ffffffffffffffffffffffffffffffffffffffff16815260200190815260200160002060006101000a81548160ff0219169083151502179055507f48335238b4855f35377ed80f164e8c6f3c366e54ac00b96a6402d4a9814a03a58282604051808373ffffffffffffffffffffffffffffffffffffffff1673ffffffffffffffffffffffffffffffffffffffff168152602001821515151581526020019250505060405180910390a15050565b6000809054906101000a900473ffffffffffffffffffffffffffffffffffffffff1673ffffffffffffffffffffffffffffffffffffffff163373ffffffffffffffffffffffffffffffffffffffff1614151561712657600080fd5b806000806101000a81548173ffffffffffffffffffffffffffffffffffffffff021916908373ffffffffffffffffffffffffffffffffffffffff16021790555050565b6000600860008373ffffffffffffffffffffffffffffffffffffffff1673ffffffffffffffffffffffffffffffffffffffff168152602001908152602001600020549050919050565b60008273ffffffffffffffffffffffffffffffffffffffff16141515156171d857600080fd5b80600860008573ffffffffffffffffffffffffffffffffffffffff1673ffffffffffffffffffffffffffffffffffffffff168152602001908152602001600020541015151561722657600080fd5b600860008373ffffffffffffffffffffffffffffffffffffffff1673ffffffffffffffffffffffffffffffffffffffff1681526020019081526020016000205481600860008573ffffffffffffffffffffffffffffffffffffffff1673ffffffffffffffffffffffffffffffffffffffff1681526020019081526020016000205401101515156172b557600080fd5b600760008473ffffffffffffffffffffffffffffffffffffffff1673ffffffffffffffffffffffffffffffffffffffff16815260200190815260200160002060009054906101000a900460ff1615151561730e57600080fd5b600760008373ffffffffffffffffffffffffffffffffffffffff1673ffffffffffffffffffffffffffffffffffffffff16815260200190815260200160002060009054906101000a900460ff1615151561736757600080fd5b80600860008573ffffffffffffffffffffffffffffffffffffffff1673ffffffffffffffffffffffffffffffffffffffff1681526020019081526020016000206000828254039250508190555080600860008473ffffffffffffffffffffffffffffffffffffffff1673ffffffffffffffffffffffffffffffffffffffff168152602001908152602001600020600082825401925050819055508173ffffffffffffffffffffffffffffffffffffffff168373ffffffffffffffffffffffffffffffffffffffff167fddf252ad1be2c89b69c2b068fc378daa952ba7f163c4a11628f55a4df523b3ef836040518082815260200191505060405180910390a3505050565b828054600181600116156101000203166002900490600052602060002090601f016020900481019282601f106174ac57805160ff19168380011785556174da565b828001600101855582156174da579182015b828111156174d95782518255916020019190600101906174be565b5b5090506174e7919061756b565b5090565b828054600181600116156101000203166002900490600052602060002090601f016020900481019282601f1061752c57805160ff191683800117855561755a565b8280016001018555821561755a579182015b8281111561755957825182559160200191906001019061753e565b5b509050617567919061756b565b5090565b61758d91905b80821115617589576000816000905550600101617571565b5090565b905600a165627a7a72305820251ee49ef5c99471434f89ed7b8b43b996d0c79b56678c9dfc1dca414a6f2cea0029",
  "source": "pragma solidity ^0.4.24;\n\nimport \"./StandardToken.sol\";\n\ncontract Rawbot is StandardToken {\n    uint256 ETH_PRICE = 500;\n    address[] public exchange_addresses;\n    string[] public device_serial_numbers;\n\n    struct User {\n        uint256 allowed_to_exchange;\n        ExchangeHistory[] exchange_history;\n        ActionHistory[] action_history;\n        bool available;\n    }\n\n    struct ExchangeHistory {\n        uint256 raw_amount;\n        uint256 raw_exchange;\n        uint256 eth_received;\n        uint256 eth_price;\n        uint256 time_ms;\n        bool available;\n    }\n\n    struct Action {\n        uint256 id;\n        string name;\n        uint256 price;\n        uint256 duration;\n        bool refundable;\n        bool available;\n    }\n\n    struct ActionHistory {\n        address user;\n        uint256 id;\n        string name;\n        uint256 price;\n        uint256 duration;\n        uint256 time;\n        bool enable;\n        bool refunded;\n        bool available;\n    }\n\n    struct Device {\n        string name;\n        uint256 balance;\n        address owner;\n        bool busy;\n        bool available;\n    }\n\n    event SendErrorMessage(string _error_message);\n    event AddDevice(address _owner_address, address _device_address, string _device_serial_number, string _device_name, bool _success);\n    event ActionAdd(string, uint, string, uint256, uint256, bool);\n    event ActionEnable(string, uint, string, uint256, uint256, bool);\n    event ActionDisable(string, uint, string, uint256, uint256, bool);\n    event Testing(string);\n\n    mapping(address => mapping(string => Device)) devices;\n    mapping(address => mapping(string => uint)) deviceActionsLength;\n    mapping(address => mapping(string => uint)) deviceActionsHistoryLength;\n    mapping(address => mapping(string => mapping(uint => Action))) deviceActions;\n    mapping(address => mapping(string => mapping(uint => ActionHistory))) deviceActionsHistory;\n\n    mapping(address => User) public user;\n\n    constructor() StandardToken(20000000, \"Rawbot Test 1\", \"RWT\") public payable {\n        // price_status = PRICE_CHECKING_STATUS.NEEDED;\n        // initEthereumPrice();\n        user[msg.sender].available = true;\n        user[msg.sender].allowed_to_exchange += 4000000;\n    }\n\n    function() payable public {\n        uint256 raw_amount = (msg.value * ETH_PRICE * 2) / 1e18;\n        totalSupply -= raw_amount;\n        balanceOf[msg.sender] += raw_amount;\n        transfer(msg.sender, raw_amount);\n\n        user[msg.sender].exchange_history.push(ExchangeHistory(raw_amount, 0, msg.value, ETH_PRICE, now, true));\n        if (user[msg.sender].available == false) {\n            exchange_addresses.push(msg.sender);\n        }\n        user[msg.sender].allowed_to_exchange += raw_amount;\n        emit ExchangeToRaw(msg.sender, msg.value, raw_amount);\n    }\n\n    function withdraw(uint value) public payable returns (bool success) {\n        if (user[msg.sender].allowed_to_exchange > 0 && user[msg.sender].allowed_to_exchange >= value && balanceOf[msg.sender] >= value) {\n            uint256 ether_to_send = (value * 1e18) / (2 * ETH_PRICE);\n            msg.sender.transfer(ether_to_send);\n            balanceOf[msg.sender] -= value;\n            user[msg.sender].allowed_to_exchange -= value;\n            emit ExchangeToEther(msg.sender, value, ether_to_send);\n            return true;\n        }\n        return false;\n    }\n\n    function withdrawFromDevice(address _address, string _device_serial_number, uint value) public payable returns (bool success) {\n        if (devices[_address][_device_serial_number].owner != msg.sender) {\n            return false;\n        }\n\n        if (devices[_address][_device_serial_number].balance < value) {\n            return false;\n        }\n\n        devices[_address][_device_serial_number].balance -= value;\n        balanceOf[msg.sender] += value;\n        return true;\n    }\n\n    function TestingFunction() public {\n        addDevice(0x577ccfbd7b0ee9e557029775c531552a65d9e11d, \"ABC1\", \"Raspberry PI 3\");\n        addAction(0x577ccfbd7b0ee9e557029775c531552a65d9e11d, \"ABC1\", \"Open\", 20, 20, true);\n    }\n\n    function TestingFunction2() public {\n        enableAction(0x577ccfbd7b0ee9e557029775c531552a65d9e11d, \"ABC1\", 0);\n        //        disableAction(0x577ccfbd7b0ee9e557029775c531552a65d9e11d, \"ABC1\", 0);\n    }\n\n    function TestingFunction3() public {\n        //        refund(0x577ccfbd7b0ee9e557029775c531552a65d9e11d, \"ABC1\", 0, 0);\n    }\n\n    //\"0x577ccfbd7b0ee9e557029775c531552a65d9e11d\", \"ABC1\", \"Raspberry PI 3\"\n    function addDevice(address _address, string _device_serial_number, string _device_name) public returns (bool success) {\n        if (devices[_address][_device_serial_number].available == true) {\n            emit SendErrorMessage(\"Device serial number is already available on the same address.\");\n            return false;\n        }\n        Device storage current_device = devices[_address][_device_serial_number];\n        current_device.name = _device_name;\n        current_device.balance = 0;\n        current_device.owner = msg.sender;\n        current_device.busy = false;\n        current_device.available = true;\n        device_serial_numbers.push(_device_serial_number);\n        emit AddDevice(msg.sender, _address, _device_serial_number, _device_name, true);\n        return true;\n    }\n\n    function getActionsLengthOfDevice(address _device_address, string _device_serial_number) public view returns (uint) {\n        return deviceActionsLength[_device_address][_device_serial_number];\n    }\n\n    function getActionsHistoryLengthOfDevice(address _device_address, string _device_serial_number) public view returns (uint) {\n        return deviceActionsHistoryLength[_device_address][_device_serial_number];\n    }\n\n    function TestingIncrement(address _device_address, string _device_serial_number) public {\n        deviceActionsHistoryLength[_device_address][_device_serial_number]++;\n    }\n\n    //\"0x577ccfbd7b0ee9e557029775c531552a65d9e11d\", \"ABC1\", \"Open\", 20, 20, true\n    function addAction(address _device_address, string _device_serial_number, string _action_name, uint256 _action_price, uint256 _action_duration, bool _refundable) public payable returns (bool success) {\n        if (devices[_device_address][_device_serial_number].available == false) {\n            emit SendErrorMessage(\"Device serial number is not available.\");\n            return false;\n        }\n        uint actions_length = deviceActionsLength[_device_address][_device_serial_number];\n        deviceActions[_device_address][_device_serial_number][actions_length] = Action(actions_length, _action_name, _action_price, _action_duration, _refundable, true);\n        emit ActionAdd(_device_serial_number, actions_length, _action_name, _action_price, _action_duration, true);\n        deviceActionsLength[_device_address][_device_serial_number]++;\n        return true;\n    }\n\n    //\"0x577ccfbd7b0ee9e557029775c531552a65d9e11d\", \"ABC1\", 0\n    function enableAction(address _device_address, string _device_serial_number, uint256 _action_id) public payable returns (bool success) {\n        if (devices[_device_address][_device_serial_number].available == false) {\n            emit SendErrorMessage(\"Device serial number is not available.\");\n            return false;\n        }\n\n        if (devices[_device_address][_device_serial_number].busy == true) {\n            emit SendErrorMessage(\"Device serial number is busy.\");\n            return false;\n        }\n\n        if (deviceActions[_device_address][_device_serial_number][_action_id].available == false) {\n            emit SendErrorMessage(\"Device action id is not available.\");\n            return false;\n        }\n\n        if (balanceOf[msg.sender] < deviceActions[_device_address][_device_serial_number][_action_id].price) {\n            emit SendErrorMessage(\"User doesn't have enough balance to perform action.\");\n            return false;\n        }\n\n        devices[_device_address][_device_serial_number].busy = true;\n        balanceOf[msg.sender] -= deviceActions[_device_address][_device_serial_number][_action_id].price;\n        balanceOf[devices[_device_address][_device_serial_number].owner] += deviceActions[_device_address][_device_serial_number][_action_id].price;\n\n        uint actions_length = deviceActionsHistoryLength[_device_address][_device_serial_number];\n        deviceActionsHistory[_device_address][_device_serial_number][actions_length] = ActionHistory(msg.sender, _action_id, deviceActions[_device_address][_device_serial_number][_action_id].name, deviceActions[_device_address][_device_serial_number][_action_id].price, deviceActions[_device_address][_device_serial_number][_action_id].duration, now, true, false, true);\n        user[msg.sender].action_history.push(ActionHistory(msg.sender, _action_id, deviceActions[_device_address][_device_serial_number][_action_id].name, deviceActions[_device_address][_device_serial_number][_action_id].price, deviceActions[_device_address][_device_serial_number][_action_id].duration, now, true, false, true));\n        emit ActionEnable(_device_serial_number, _action_id, deviceActions[_device_address][_device_serial_number][_action_id].name, deviceActions[_device_address][_device_serial_number][_action_id].price, deviceActions[_device_address][_device_serial_number][_action_id].duration, true);\n        deviceActionsHistoryLength[_device_address][_device_serial_number]++;\n        return true;\n    }\n\n    //\"0x577ccfbd7b0ee9e557029775c531552a65d9e11d\", \"ABC1\", 1\n    function disableAction(address _device_address, string _device_serial_number, uint256 _action_id) public payable returns (bool success) {\n        if (devices[_device_address][_device_serial_number].available == false) {\n            emit SendErrorMessage(\"Device serial number is not available.\");\n            return false;\n        }\n\n        if (deviceActions[_device_address][_device_serial_number][_action_id].available == false) {\n            emit SendErrorMessage(\"Device action id is not available.\");\n            return false;\n        }\n\n        uint actions_length = deviceActionsHistoryLength[_device_address][_device_serial_number];\n        deviceActionsHistory[_device_address][_device_serial_number][actions_length] = ActionHistory(msg.sender, _action_id, deviceActions[_device_address][_device_serial_number][_action_id].name, deviceActions[_device_address][_device_serial_number][_action_id].price, deviceActions[_device_address][_device_serial_number][_action_id].duration, now, true, false, true);\n        user[msg.sender].action_history.push(ActionHistory(msg.sender, _action_id, deviceActions[_device_address][_device_serial_number][_action_id].name, deviceActions[_device_address][_device_serial_number][_action_id].price, deviceActions[_device_address][_device_serial_number][_action_id].duration, now, false, false, true));\n        emit ActionDisable(_device_serial_number, _action_id, deviceActions[_device_address][_device_serial_number][_action_id].name, deviceActions[_device_address][_device_serial_number][_action_id].price, deviceActions[_device_address][_device_serial_number][_action_id].duration, true);\n        deviceActionsHistoryLength[_device_address][_device_serial_number]++;\n        return true;\n    }\n\n    function refund(address _device_address, string _device_serial_number, uint256 _action_id, uint256 _action_history_id) payable public returns (bool success) {\n        if (devices[_device_address][_device_serial_number].available == false) {\n            emit SendErrorMessage(\"Device serial number is not available.\");\n            return false;\n        }\n\n        if (deviceActions[_device_address][_device_serial_number][_action_id].refundable == false) {\n            emit SendErrorMessage(\"Device action is not refundable.\");\n            return false;\n        }\n\n        if (deviceActions[_device_address][_device_serial_number][_action_id].available == false) {\n            emit SendErrorMessage(\"Device action id is not available.\");\n            return false;\n        }\n\n\n        if (deviceActionsHistory[_device_address][_device_serial_number][_action_history_id].available == false) {\n            emit SendErrorMessage(\"Device history index is not available.\");\n            return false;\n        }\n\n        if (deviceActionsHistory[_device_address][_device_serial_number][_action_history_id].refunded == true) {\n            emit SendErrorMessage(\"Device action has been refunded.\");\n            return false;\n        }\n\n        if (deviceActionsHistory[_device_address][_device_serial_number][_action_history_id].id != _action_id) {\n            emit SendErrorMessage(\"Device history action id doesn't match the action id.\");\n            return false;\n        }\n\n//        if (deviceActionsHistory[_device_address][_device_serial_number][_action_history_id].duration + deviceActionsHistory[_device_address][_device_serial_number][_action_history_id].time < now) {\n//            emit SendErrorMessage(\"User cannot be refunded.\");\n//            return false;\n//        }\n\n        balanceOf[devices[_device_address][_device_serial_number].owner] -= deviceActions[_device_address][_device_serial_number][_action_id].price;\n        balanceOf[deviceActionsHistory[_device_address][_device_serial_number][_action_history_id].user] += deviceActions[_device_address][_device_serial_number][_action_id].price;\n        deviceActionsHistory[_device_address][_device_serial_number][_action_history_id].refunded = true;\n    }\n\n    function refundAutomatic() public {\n\n    }\n\n    function getTotalDevices() public view returns (uint) {\n        return (device_serial_numbers.length);\n    }\n\n    function getExchangeLeftOf(address _address) view public returns (uint256){\n        return user[_address].allowed_to_exchange;\n    }\n\n    // \"0x577ccfbd7b0ee9e557029775c531552a65d9e11d\", \"ABC1\"\n    function getDevice(address _device_address, string _device_serial_number) public view returns (string, uint256, address, bool){\n        Device storage current_device = devices[_device_address][_device_serial_number];\n        return (current_device.name, current_device.balance, current_device.owner, current_device.available);\n    }\n\n    function getAddresses() view public returns (address[]) {\n        return exchange_addresses;\n    }\n\n    function getAction(address _device_address, string _device_serial_number, uint _index) public view returns (string){\n        return deviceActions[_device_address][_device_serial_number][_index].name;\n    }\n\n    function getDeviceOwner(address _address, string _device_serial_number) view public returns (address) {\n        return devices[_address][_device_serial_number].owner;\n    }\n\n    function destoryContract() public {\n        selfdestruct(this);\n    }\n}",
  "sourcePath": "/Users/hassanjawhar/Desktop/Workspace/rawbot/contracts/Rawbot.sol",
  "compiler": {
    "name": "solc",
    "version": "0.4.24+commit.e67f0147.Emscripten.clang"
  },
  "schemaVersion": "2.0.0",
  "updatedAt": "2018-08-03T12:30:08.093Z"
}