{
  "contractName": "Rawbot",
  "abi": [
    {
      "constant": true,
      "inputs": [],
      "name": "price_status",
      "outputs": [
        {
          "name": "",
          "type": "uint8"
        }
      ],
      "payable": false,
      "stateMutability": "view",
      "type": "function"
    },
    {
      "constant": true,
      "inputs": [],
      "name": "name",
      "outputs": [
        {
          "name": "",
          "type": "string"
        }
      ],
      "payable": false,
      "stateMutability": "view",
      "type": "function"
    },
    {
      "constant": false,
      "inputs": [
        {
          "name": "_spender",
          "type": "address"
        },
        {
          "name": "_value",
          "type": "uint256"
        }
      ],
      "name": "approve",
      "outputs": [
        {
          "name": "success",
          "type": "bool"
        }
      ],
      "payable": false,
      "stateMutability": "nonpayable",
      "type": "function"
    },
    {
      "constant": true,
      "inputs": [],
      "name": "totalSupply",
      "outputs": [
        {
          "name": "",
          "type": "uint256"
        }
      ],
      "payable": false,
      "stateMutability": "view",
      "type": "function"
    },
    {
      "constant": false,
      "inputs": [
        {
          "name": "_from",
          "type": "address"
        },
        {
          "name": "_to",
          "type": "address"
        },
        {
          "name": "_value",
          "type": "uint256"
        }
      ],
      "name": "transferFrom",
      "outputs": [
        {
          "name": "success",
          "type": "bool"
        }
      ],
      "payable": false,
      "stateMutability": "nonpayable",
      "type": "function"
    },
    {
      "constant": true,
      "inputs": [],
      "name": "index_checker",
      "outputs": [
        {
          "name": "",
          "type": "uint256"
        }
      ],
      "payable": false,
      "stateMutability": "view",
      "type": "function"
    },
    {
      "constant": true,
      "inputs": [],
      "name": "decimals",
      "outputs": [
        {
          "name": "",
          "type": "uint8"
        }
      ],
      "payable": false,
      "stateMutability": "view",
      "type": "function"
    },
    {
      "constant": false,
      "inputs": [
        {
          "name": "_value",
          "type": "uint256"
        }
      ],
      "name": "burn",
      "outputs": [
        {
          "name": "success",
          "type": "bool"
        }
      ],
      "payable": false,
      "stateMutability": "nonpayable",
      "type": "function"
    },
    {
      "constant": true,
      "inputs": [],
      "name": "getCurrentSupply",
      "outputs": [
        {
          "name": "",
          "type": "uint256"
        }
      ],
      "payable": false,
      "stateMutability": "view",
      "type": "function"
    },
    {
      "constant": true,
      "inputs": [],
      "name": "getContractBalance",
      "outputs": [
        {
          "name": "",
          "type": "uint256"
        }
      ],
      "payable": false,
      "stateMutability": "view",
      "type": "function"
    },
    {
      "constant": true,
      "inputs": [
        {
          "name": "",
          "type": "address"
        }
      ],
      "name": "balanceOf",
      "outputs": [
        {
          "name": "",
          "type": "uint256"
        }
      ],
      "payable": false,
      "stateMutability": "view",
      "type": "function"
    },
    {
      "constant": false,
      "inputs": [
        {
          "name": "_from",
          "type": "address"
        },
        {
          "name": "_value",
          "type": "uint256"
        }
      ],
      "name": "burnFrom",
      "outputs": [
        {
          "name": "success",
          "type": "bool"
        }
      ],
      "payable": false,
      "stateMutability": "nonpayable",
      "type": "function"
    },
    {
      "constant": true,
      "inputs": [],
      "name": "owner",
      "outputs": [
        {
          "name": "",
          "type": "address"
        }
      ],
      "payable": false,
      "stateMutability": "view",
      "type": "function"
    },
    {
      "constant": true,
      "inputs": [],
      "name": "symbol",
      "outputs": [
        {
          "name": "",
          "type": "string"
        }
      ],
      "payable": false,
      "stateMutability": "view",
      "type": "function"
    },
    {
      "constant": true,
      "inputs": [],
      "name": "initSupply",
      "outputs": [
        {
          "name": "",
          "type": "uint256"
        }
      ],
      "payable": false,
      "stateMutability": "view",
      "type": "function"
    },
    {
      "constant": false,
      "inputs": [
        {
          "name": "_to",
          "type": "address"
        },
        {
          "name": "_value",
          "type": "uint256"
        }
      ],
      "name": "transfer",
      "outputs": [
        {
          "name": "success",
          "type": "bool"
        }
      ],
      "payable": false,
      "stateMutability": "nonpayable",
      "type": "function"
    },
    {
      "constant": true,
      "inputs": [
        {
          "name": "",
          "type": "address"
        }
      ],
      "name": "frozenAccount",
      "outputs": [
        {
          "name": "",
          "type": "bool"
        }
      ],
      "payable": false,
      "stateMutability": "view",
      "type": "function"
    },
    {
      "constant": false,
      "inputs": [
        {
          "name": "_spender",
          "type": "address"
        },
        {
          "name": "_value",
          "type": "uint256"
        },
        {
          "name": "_extraData",
          "type": "bytes"
        }
      ],
      "name": "approveAndCall",
      "outputs": [
        {
          "name": "success",
          "type": "bool"
        }
      ],
      "payable": false,
      "stateMutability": "nonpayable",
      "type": "function"
    },
    {
      "constant": false,
      "inputs": [],
      "name": "increaseSupply",
      "outputs": [],
      "payable": false,
      "stateMutability": "nonpayable",
      "type": "function"
    },
    {
      "constant": true,
      "inputs": [
        {
          "name": "",
          "type": "address"
        },
        {
          "name": "",
          "type": "address"
        }
      ],
      "name": "allowance",
      "outputs": [
        {
          "name": "",
          "type": "uint256"
        }
      ],
      "payable": false,
      "stateMutability": "view",
      "type": "function"
    },
    {
      "constant": false,
      "inputs": [
        {
          "name": "target",
          "type": "address"
        },
        {
          "name": "freeze",
          "type": "bool"
        }
      ],
      "name": "freezeAccount",
      "outputs": [],
      "payable": false,
      "stateMutability": "nonpayable",
      "type": "function"
    },
    {
      "constant": false,
      "inputs": [
        {
          "name": "newOwner",
          "type": "address"
        }
      ],
      "name": "transferOwnership",
      "outputs": [],
      "payable": false,
      "stateMutability": "nonpayable",
      "type": "function"
    },
    {
      "constant": true,
      "inputs": [],
      "name": "index_starter",
      "outputs": [
        {
          "name": "",
          "type": "uint256"
        }
      ],
      "payable": false,
      "stateMutability": "view",
      "type": "function"
    },
    {
      "inputs": [],
      "payable": true,
      "stateMutability": "payable",
      "type": "constructor"
    },
    {
      "payable": true,
      "stateMutability": "payable",
      "type": "fallback"
    },
    {
      "anonymous": false,
      "inputs": [
        {
          "indexed": false,
          "name": "_description",
          "type": "string"
        },
        {
          "indexed": false,
          "name": "_time",
          "type": "uint256"
        }
      ],
      "name": "OraclizeLog",
      "type": "event"
    },
    {
      "anonymous": false,
      "inputs": [
        {
          "indexed": true,
          "name": "from",
          "type": "address"
        },
        {
          "indexed": true,
          "name": "to",
          "type": "address"
        },
        {
          "indexed": false,
          "name": "value",
          "type": "uint256"
        }
      ],
      "name": "Transfer",
      "type": "event"
    },
    {
      "anonymous": false,
      "inputs": [
        {
          "indexed": true,
          "name": "tokenOwner",
          "type": "address"
        },
        {
          "indexed": true,
          "name": "spender",
          "type": "address"
        },
        {
          "indexed": false,
          "name": "tokens",
          "type": "uint256"
        }
      ],
      "name": "Approval",
      "type": "event"
    },
    {
      "anonymous": false,
      "inputs": [
        {
          "indexed": true,
          "name": "from",
          "type": "address"
        },
        {
          "indexed": false,
          "name": "value",
          "type": "uint256"
        }
      ],
      "name": "Burn",
      "type": "event"
    },
    {
      "anonymous": false,
      "inputs": [
        {
          "indexed": false,
          "name": "target",
          "type": "address"
        },
        {
          "indexed": false,
          "name": "frozen",
          "type": "bool"
        }
      ],
      "name": "FrozenFunds",
      "type": "event"
    },
    {
      "anonymous": false,
      "inputs": [
        {
          "indexed": false,
          "name": "",
          "type": "address"
        },
        {
          "indexed": false,
          "name": "",
          "type": "uint256"
        },
        {
          "indexed": false,
          "name": "",
          "type": "uint256"
        }
      ],
      "name": "ExchangeToEther",
      "type": "event"
    },
    {
      "anonymous": false,
      "inputs": [
        {
          "indexed": false,
          "name": "",
          "type": "address"
        },
        {
          "indexed": false,
          "name": "",
          "type": "uint256"
        },
        {
          "indexed": false,
          "name": "",
          "type": "uint256"
        }
      ],
      "name": "ExchangeToRaw",
      "type": "event"
    },
    {
      "constant": false,
      "inputs": [
        {
          "name": "value",
          "type": "uint256"
        }
      ],
      "name": "withdraw",
      "outputs": [
        {
          "name": "",
          "type": "bool"
        }
      ],
      "payable": true,
      "stateMutability": "payable",
      "type": "function"
    },
    {
      "constant": false,
      "inputs": [
        {
          "name": "_address",
          "type": "address"
        },
        {
          "name": "amount",
          "type": "uint256"
        }
      ],
      "name": "modifyBalance",
      "outputs": [
        {
          "name": "",
          "type": "bool"
        }
      ],
      "payable": false,
      "stateMutability": "nonpayable",
      "type": "function"
    },
    {
      "constant": false,
      "inputs": [
        {
          "name": "timing",
          "type": "uint256"
        }
      ],
      "name": "fetchEthereumPrice",
      "outputs": [],
      "payable": true,
      "stateMutability": "payable",
      "type": "function"
    },
    {
      "constant": false,
      "inputs": [
        {
          "name": "myid",
          "type": "bytes32"
        },
        {
          "name": "result",
          "type": "string"
        },
        {
          "name": "proof",
          "type": "bytes"
        }
      ],
      "name": "__callback",
      "outputs": [],
      "payable": false,
      "stateMutability": "nonpayable",
      "type": "function"
    },
    {
      "constant": false,
      "inputs": [
        {
          "name": "myid",
          "type": "bytes32"
        },
        {
          "name": "result",
          "type": "string"
        }
      ],
      "name": "__callback",
      "outputs": [],
      "payable": false,
      "stateMutability": "nonpayable",
      "type": "function"
    },
    {
      "constant": false,
      "inputs": [
        {
          "name": "_address",
          "type": "address"
        }
      ],
      "name": "setContractMerchantManager",
      "outputs": [
        {
          "name": "",
          "type": "bool"
        }
      ],
      "payable": false,
      "stateMutability": "nonpayable",
      "type": "function"
    },
    {
      "constant": true,
      "inputs": [],
      "name": "getContractMerchantManager",
      "outputs": [
        {
          "name": "",
          "type": "address"
        }
      ],
      "payable": false,
      "stateMutability": "view",
      "type": "function"
    },
    {
      "constant": true,
      "inputs": [],
      "name": "getAddresses",
      "outputs": [
        {
          "name": "",
          "type": "address[]"
        }
      ],
      "payable": false,
      "stateMutability": "view",
      "type": "function"
    },
    {
      "constant": true,
      "inputs": [
        {
          "name": "_address",
          "type": "address"
        }
      ],
      "name": "getExchangeLeftOf",
      "outputs": [
        {
          "name": "",
          "type": "uint256"
        }
      ],
      "payable": false,
      "stateMutability": "view",
      "type": "function"
    },
    {
      "constant": true,
      "inputs": [],
      "name": "getEthereumPrice",
      "outputs": [
        {
          "name": "",
          "type": "uint256"
        }
      ],
      "payable": false,
      "stateMutability": "view",
      "type": "function"
    },
    {
      "constant": true,
      "inputs": [
        {
          "name": "_address",
          "type": "address"
        }
      ],
      "name": "getBalance",
      "outputs": [
        {
          "name": "",
          "type": "uint256"
        }
      ],
      "payable": false,
      "stateMutability": "view",
      "type": "function"
    }
  ],
  "bytecode": "0x60806040526000600860006101000a81548160ff021916908360ff160217905550600060125560006013556101f460155560006016556301312d006040805190810160405280600d81526020017f526177626f7420546573742031000000000000000000000000000000000000008152506040805190810160405280600381526020017f525754000000000000000000000000000000000000000000000000000000000081525033600560006101000a81548173ffffffffffffffffffffffffffffffffffffffff021916908373ffffffffffffffffffffffffffffffffffffffff160217905550600860009054906101000a900460ff1660ff16600a0a8302600981905550600860009054906101000a900460ff1660ff16600a0a8302600a8190555081600690805190602001906200013b9291906200035b565b508060079080519060200190620001549291906200035b565b5050505033600e60006101000a81548173ffffffffffffffffffffffffffffffffffffffff021916908373ffffffffffffffffffffffffffffffffffffffff1602179055506005600160095402811515620001ab57fe5b04600c6000600e60009054906101000a900473ffffffffffffffffffffffffffffffffffffffff1673ffffffffffffffffffffffffffffffffffffffff1673ffffffffffffffffffffffffffffffffffffffff16815260200190815260200160002081905550600c6000600e60009054906101000a900473ffffffffffffffffffffffffffffffffffffffff1673ffffffffffffffffffffffffffffffffffffffff1673ffffffffffffffffffffffffffffffffffffffff168152602001908152602001600020546009600082825403925050819055506000601760006101000a81548160ff02191690836002811115620002a257fe5b02179055506001601160003373ffffffffffffffffffffffffffffffffffffffff1673ffffffffffffffffffffffffffffffffffffffff16815260200190815260200160002060020160006101000a81548160ff021916908315150217905550623d0900601160003373ffffffffffffffffffffffffffffffffffffffff1673ffffffffffffffffffffffffffffffffffffffff168152602001908152602001600020600001600082825401925050819055506200040a565b828054600181600116156101000203166002900490600052602060002090601f016020900481019282601f106200039e57805160ff1916838001178555620003cf565b82800160010185558215620003cf579182015b82811115620003ce578251825591602001919060010190620003b1565b5b509050620003de9190620003e2565b5090565b6200040791905b8082111562000403576000816000905550600101620003e9565b5090565b90565b613ebb806200041a6000396000f3006080604052600436106101ac576000357c0100000000000000000000000000000000000000000000000000000000900463ffffffff168063013abe8f1461030557806306fdde031461033e578063095ea7b3146103ce57806318160ddd1461043357806323b872dd1461045e578063250dea06146104e3578063265cb3f61461054857806327dc297e1461057357806329b81670146105ea5780632e1a7d4d14610645578063313ce5671461067d57806338bbfa50146106ae5780633b0600921461076b57806342966c68146107c25780634a2c25c1146108075780634f3e1efc1461082757806362355b57146108525780636f9fb98a146108a957806370a08231146108d457806379cc67901461092b5780638da5cb5b1461099057806395d89b41146109e757806397d63f9314610a775780639bddd05f14610aa2578063a39fac1214610acd578063a9059cbb14610b39578063b414d4b614610b9e578063cae9ca5114610bf9578063d196508014610ca4578063dd62ed3e14610cbb578063e724529c14610d32578063f2fde38b14610d81578063f507a7c214610dc4578063f8b2cb4f14610def575b6000601554111515610226576040517f08c379a000000000000000000000000000000000000000000000000000000000815260040180806020018281038252601b8152602001807f4554482070726963652069736e2774206665746368656420796574000000000081525060200191505060405180910390fd5b6060604051908101604052803373ffffffffffffffffffffffffffffffffffffffff1681526020013481526020014281525060146000601254815260200190815260200160002060008201518160000160006101000a81548173ffffffffffffffffffffffffffffffffffffffff021916908373ffffffffffffffffffffffffffffffffffffffff160217905550602082015181600101556040820151816002015590505060126000815480929190600101919050555061012c426016540311156102fa576102f56000610e46565b610303565b61030261111c565b5b005b34801561031157600080fd5b5061031a6114d5565b6040518082600281111561032a57fe5b60ff16815260200191505060405180910390f35b34801561034a57600080fd5b506103536114e8565b6040518080602001828103825283818151815260200191508051906020019080838360005b83811015610393578082015181840152602081019050610378565b50505050905090810190601f1680156103c05780820380516001836020036101000a031916815260200191505b509250505060405180910390f35b3480156103da57600080fd5b50610419600480360381019080803573ffffffffffffffffffffffffffffffffffffffff16906020019092919080359060200190929190505050611586565b604051808215151515815260200191505060405180910390f35b34801561043f57600080fd5b50610448611613565b6040518082815260200191505060405180910390f35b34801561046a57600080fd5b506104c9600480360381019080803573ffffffffffffffffffffffffffffffffffffffff169060200190929190803573ffffffffffffffffffffffffffffffffffffffff16906020019092919080359060200190929190505050611619565b604051808215151515815260200191505060405180910390f35b3480156104ef57600080fd5b5061052e600480360381019080803573ffffffffffffffffffffffffffffffffffffffff16906020019092919080359060200190929190505050611746565b604051808215151515815260200191505060405180910390f35b34801561055457600080fd5b5061055d6118ff565b6040518082815260200191505060405180910390f35b34801561057f57600080fd5b506105e86004803603810190808035600019169060200190929190803590602001908201803590602001908080601f0160208091040260200160405190810160405280939291908181526020018383808284378201915050505050509192919290505050611905565b005b3480156105f657600080fd5b5061062b600480360381019080803573ffffffffffffffffffffffffffffffffffffffff169060200190929190505050611a30565b604051808215151515815260200191505060405180910390f35b61066360048036038101908080359060200190929190505050611ad8565b604051808215151515815260200191505060405180910390f35b34801561068957600080fd5b50610692611cd5565b604051808260ff1660ff16815260200191505060405180910390f35b3480156106ba57600080fd5b506107696004803603810190808035600019169060200190929190803590602001908201803590602001908080601f0160208091040260200160405190810160405280939291908181526020018383808284378201915050505050509192919290803590602001908201803590602001908080601f0160208091040260200160405190810160405280939291908181526020018383808284378201915050505050509192919290505050611ce8565b005b34801561077757600080fd5b506107ac600480360381019080803573ffffffffffffffffffffffffffffffffffffffff169060200190929190505050611ced565b6040518082815260200191505060405180910390f35b3480156107ce57600080fd5b506107ed60048036038101908080359060200190929190505050611d39565b604051808215151515815260200191505060405180910390f35b61082560048036038101908080359060200190929190505050610e46565b005b34801561083357600080fd5b5061083c611e3d565b6040518082815260200191505060405180910390f35b34801561085e57600080fd5b50610867611e47565b604051808273ffffffffffffffffffffffffffffffffffffffff1673ffffffffffffffffffffffffffffffffffffffff16815260200191505060405180910390f35b3480156108b557600080fd5b506108be611e71565b6040518082815260200191505060405180910390f35b3480156108e057600080fd5b50610915600480360381019080803573ffffffffffffffffffffffffffffffffffffffff169060200190929190505050611e90565b6040518082815260200191505060405180910390f35b34801561093757600080fd5b50610976600480360381019080803573ffffffffffffffffffffffffffffffffffffffff16906020019092919080359060200190929190505050611ea8565b604051808215151515815260200191505060405180910390f35b34801561099c57600080fd5b506109a56120c2565b604051808273ffffffffffffffffffffffffffffffffffffffff1673ffffffffffffffffffffffffffffffffffffffff16815260200191505060405180910390f35b3480156109f357600080fd5b506109fc6120e8565b6040518080602001828103825283818151815260200191508051906020019080838360005b83811015610a3c578082015181840152602081019050610a21565b50505050905090810190601f168015610a695780820380516001836020036101000a031916815260200191505b509250505060405180910390f35b348015610a8357600080fd5b50610a8c612186565b6040518082815260200191505060405180910390f35b348015610aae57600080fd5b50610ab761218c565b6040518082815260200191505060405180910390f35b348015610ad957600080fd5b50610ae2612196565b6040518080602001828103825283818151815260200191508051906020019060200280838360005b83811015610b25578082015181840152602081019050610b0a565b505050509050019250505060405180910390f35b348015610b4557600080fd5b50610b84600480360381019080803573ffffffffffffffffffffffffffffffffffffffff16906020019092919080359060200190929190505050612224565b604051808215151515815260200191505060405180910390f35b348015610baa57600080fd5b50610bdf600480360381019080803573ffffffffffffffffffffffffffffffffffffffff16906020019092919050505061223b565b604051808215151515815260200191505060405180910390f35b348015610c0557600080fd5b50610c8a600480360381019080803573ffffffffffffffffffffffffffffffffffffffff16906020019092919080359060200190929190803590602001908201803590602001908080601f016020809104026020016040519081016040528093929190818152602001838380828437820191505050505050919291929050505061225b565b604051808215151515815260200191505060405180910390f35b348015610cb057600080fd5b50610cb96123de565b005b348015610cc757600080fd5b50610d1c600480360381019080803573ffffffffffffffffffffffffffffffffffffffff169060200190929190803573ffffffffffffffffffffffffffffffffffffffff16906020019092919050505061245a565b6040518082815260200191505060405180910390f35b348015610d3e57600080fd5b50610d7f600480360381019080803573ffffffffffffffffffffffffffffffffffffffff16906020019092919080351515906020019092919050505061247f565b005b348015610d8d57600080fd5b50610dc2600480360381019080803573ffffffffffffffffffffffffffffffffffffffff1690602001909291905050506125a5565b005b348015610dd057600080fd5b50610dd9612645565b6040518082815260200191505060405180910390f35b348015610dfb57600080fd5b50610e30600480360381019080803573ffffffffffffffffffffffffffffffffffffffff16906020019092919050505061264b565b6040518082815260200191505060405180910390f35b600560009054906101000a900473ffffffffffffffffffffffffffffffffffffffff1673ffffffffffffffffffffffffffffffffffffffff163373ffffffffffffffffffffffffffffffffffffffff16141515610ea257600080fd5b3073ffffffffffffffffffffffffffffffffffffffff1631610ef86040805190810160405280600381526020017f55524c0000000000000000000000000000000000000000000000000000000000815250612694565b1115610fbf577f2ffd6537ffc6acf68a41f8abf5293e063e68188170dce30432363ad211d942bf4260405180806020018381526020018281038252604b8152602001807f4f7261636c697a6520717565727920776173204e4f542073656e742c20706c6581526020017f6173652061646420736f6d652045544820746f20636f76657220666f7220746881526020017f65207175657279206665650000000000000000000000000000000000000000008152506060019250505060405180910390a1611119565b7f2ffd6537ffc6acf68a41f8abf5293e063e68188170dce30432363ad211d942bf426040518080602001838152602001828103825260358152602001807f4f7261636c697a65207175657279207761732073656e742c207374616e64696e81526020017f6720627920666f722074686520616e737765722e2e00000000000000000000008152506040019250505060405180910390a1611117816040805190810160405280600381526020017f55524c0000000000000000000000000000000000000000000000000000000000815250608060405190810160405280604981526020017f6a736f6e2868747470733a2f2f6d696e2d6170692e63727970746f636f6d706181526020017f72652e636f6d2f646174612f70726963653f6673796d3d455448267473796d7381526020017f3d555344292e5553440000000000000000000000000000000000000000000000815250612a64565b505b50565b600080600080600060125460135410151561113657600080fd5b60135494505b6012548510156114c55760146000601354815260200190815260200160002060010154935060146000601354815260200190815260200160002060000160009054906101000a900473ffffffffffffffffffffffffffffffffffffffff169250601460006013548152602001908152602001600020600201549150670de0b6b3a764000060026015548602028115156111d157fe5b0490508060096000828254039250508190555080600c60008573ffffffffffffffffffffffffffffffffffffffff1673ffffffffffffffffffffffffffffffffffffffff1681526020019081526020016000206000828254019250508190555061123b8382612224565b50601160008473ffffffffffffffffffffffffffffffffffffffff1673ffffffffffffffffffffffffffffffffffffffff16815260200190815260200160002060010160c0604051908101604052808381526020016000815260200186815260200160155481526020018481526020016001151581525090806001815401808255809150509060018203906000526020600020906006020160009091929091909150600082015181600001556020820151816001015560408201518160020155606082015181600301556080820151816004015560a08201518160050160006101000a81548160ff02191690831515021790555050505060001515601160008573ffffffffffffffffffffffffffffffffffffffff1673ffffffffffffffffffffffffffffffffffffffff16815260200190815260200160002060020160009054906101000a900460ff16151514156113f557600f8390806001815401808255809150509060018203906000526020600020016000909192909190916101000a81548173ffffffffffffffffffffffffffffffffffffffff021916908373ffffffffffffffffffffffffffffffffffffffff160217905550505b80601160008573ffffffffffffffffffffffffffffffffffffffff1673ffffffffffffffffffffffffffffffffffffffff168152602001908152602001600020600001600082825401925050819055507fe9398dec28f4a24325d0afa01cf83bb5ccb4c39f76638c99950181f8c6d71cf6838583604051808473ffffffffffffffffffffffffffffffffffffffff1673ffffffffffffffffffffffffffffffffffffffff168152602001838152602001828152602001935050505060405180910390a1848060010195505061113c565b6012546013819055505050505050565b601760009054906101000a900460ff1681565b60068054600181600116156101000203166002900480601f01602080910402602001604051908101604052809291908181526020018280546001816001161561010002031660029004801561157e5780601f106115535761010080835404028352916020019161157e565b820191906000526020600020905b81548152906001019060200180831161156157829003601f168201915b505050505081565b600081600d60003373ffffffffffffffffffffffffffffffffffffffff1673ffffffffffffffffffffffffffffffffffffffff16815260200190815260200160002060008573ffffffffffffffffffffffffffffffffffffffff1673ffffffffffffffffffffffffffffffffffffffff168152602001908152602001600020819055506001905092915050565b60095481565b6000600d60008573ffffffffffffffffffffffffffffffffffffffff1673ffffffffffffffffffffffffffffffffffffffff16815260200190815260200160002060003373ffffffffffffffffffffffffffffffffffffffff1673ffffffffffffffffffffffffffffffffffffffff1681526020019081526020016000205482111515156116a657600080fd5b81600d60008673ffffffffffffffffffffffffffffffffffffffff1673ffffffffffffffffffffffffffffffffffffffff16815260200190815260200160002060003373ffffffffffffffffffffffffffffffffffffffff1673ffffffffffffffffffffffffffffffffffffffff1681526020019081526020016000206000828254039250508190555061173b848484613006565b600190509392505050565b600080601060009054906101000a900473ffffffffffffffffffffffffffffffffffffffff169050600115158173ffffffffffffffffffffffffffffffffffffffff166395a078e8336040518263ffffffff167c0100000000000000000000000000000000000000000000000000000000028152600401808273ffffffffffffffffffffffffffffffffffffffff1673ffffffffffffffffffffffffffffffffffffffff168152602001915050602060405180830381600087803b15801561180d57600080fd5b505af1158015611821573d6000803e3d6000fd5b505050506040513d602081101561183757600080fd5b8101908080519060200190929190505050151514151561185657600080fd5b600083600c60008773ffffffffffffffffffffffffffffffffffffffff1673ffffffffffffffffffffffffffffffffffffffff1681526020019081526020016000205401101515156118a757600080fd5b82600c60008673ffffffffffffffffffffffffffffffffffffffff1673ffffffffffffffffffffffffffffffffffffffff16815260200190815260200160002060008282540192505081905550600191505092915050565b60135481565b61190d6132bf565b73ffffffffffffffffffffffffffffffffffffffff163373ffffffffffffffffffffffffffffffffffffffff1614151561194657600080fd5b61194f8161361d565b6015819055507f2ffd6537ffc6acf68a41f8abf5293e063e68188170dce30432363ad211d942bf81426040518080602001838152602001828103825284818151815260200191508051906020019080838360005b838110156119be5780820151818401526020810190506119a3565b50505050905090810190601f1680156119eb5780820380516001836020036101000a031916815260200191505b50935050505060405180910390a1426016819055506002601760006101000a81548160ff02191690836002811115611a1f57fe5b0217905550611a2c61111c565b5050565b6000600560009054906101000a900473ffffffffffffffffffffffffffffffffffffffff1673ffffffffffffffffffffffffffffffffffffffff163373ffffffffffffffffffffffffffffffffffffffff16141515611a8e57600080fd5b81601060006101000a81548173ffffffffffffffffffffffffffffffffffffffff021916908373ffffffffffffffffffffffffffffffffffffffff16021790555060019050919050565b6000806000611ae633611ced565b111515611af257600080fd5b82611afc33611ced565b10151515611b0957600080fd5b82600c60003373ffffffffffffffffffffffffffffffffffffffff1673ffffffffffffffffffffffffffffffffffffffff1681526020019081526020016000205410151515611b5757600080fd5b601554600202670de0b6b3a76400008402811515611b7157fe5b0490503373ffffffffffffffffffffffffffffffffffffffff166108fc829081150290604051600060405180830381858888f19350505050158015611bba573d6000803e3d6000fd5b5082600c60003373ffffffffffffffffffffffffffffffffffffffff1673ffffffffffffffffffffffffffffffffffffffff1681526020019081526020016000206000828254039250508190555082601160003373ffffffffffffffffffffffffffffffffffffffff1673ffffffffffffffffffffffffffffffffffffffff168152602001908152602001600020600001600082825403925050819055507f5df5e70917798c2d346fb12f5222b6eac4076621fbea6c5a6b538105fc96e88e338483604051808473ffffffffffffffffffffffffffffffffffffffff1673ffffffffffffffffffffffffffffffffffffffff168152602001838152602001828152602001935050505060405180910390a16001915050919050565b600860009054906101000a900460ff1681565b505050565b6000601160008373ffffffffffffffffffffffffffffffffffffffff1673ffffffffffffffffffffffffffffffffffffffff168152602001908152602001600020600001549050919050565b600081600c60003373ffffffffffffffffffffffffffffffffffffffff1673ffffffffffffffffffffffffffffffffffffffff1681526020019081526020016000205410151515611d8957600080fd5b81600c60003373ffffffffffffffffffffffffffffffffffffffff1673ffffffffffffffffffffffffffffffffffffffff16815260200190815260200160002060008282540392505081905550816009600082825403925050819055503373ffffffffffffffffffffffffffffffffffffffff167fcc16f5dbb4873280815c1ee09dbd06736cffcc184412cf7a71a0fdb75d397ca5836040518082815260200191505060405180910390a260019050919050565b6000600a54905090565b6000601060009054906101000a900473ffffffffffffffffffffffffffffffffffffffff16905090565b60003073ffffffffffffffffffffffffffffffffffffffff1631905090565b600c6020528060005260406000206000915090505481565b600081600c60008573ffffffffffffffffffffffffffffffffffffffff1673ffffffffffffffffffffffffffffffffffffffff1681526020019081526020016000205410151515611ef857600080fd5b600d60008473ffffffffffffffffffffffffffffffffffffffff1673ffffffffffffffffffffffffffffffffffffffff16815260200190815260200160002060003373ffffffffffffffffffffffffffffffffffffffff1673ffffffffffffffffffffffffffffffffffffffff168152602001908152602001600020548211151515611f8357600080fd5b81600c60008573ffffffffffffffffffffffffffffffffffffffff1673ffffffffffffffffffffffffffffffffffffffff1681526020019081526020016000206000828254039250508190555081600d60008573ffffffffffffffffffffffffffffffffffffffff1673ffffffffffffffffffffffffffffffffffffffff16815260200190815260200160002060003373ffffffffffffffffffffffffffffffffffffffff1673ffffffffffffffffffffffffffffffffffffffff16815260200190815260200160002060008282540392505081905550816009600082825403925050819055508273ffffffffffffffffffffffffffffffffffffffff167fcc16f5dbb4873280815c1ee09dbd06736cffcc184412cf7a71a0fdb75d397ca5836040518082815260200191505060405180910390a26001905092915050565b600560009054906101000a900473ffffffffffffffffffffffffffffffffffffffff1681565b60078054600181600116156101000203166002900480601f01602080910402602001604051908101604052809291908181526020018280546001816001161561010002031660029004801561217e5780601f106121535761010080835404028352916020019161217e565b820191906000526020600020905b81548152906001019060200180831161216157829003601f168201915b505050505081565b600a5481565b6000601554905090565b6060600f80548060200260200160405190810160405280929190818152602001828054801561221a57602002820191906000526020600020905b8160009054906101000a900473ffffffffffffffffffffffffffffffffffffffff1673ffffffffffffffffffffffffffffffffffffffff16815260200190600101908083116121d0575b5050505050905090565b6000612231338484613006565b6001905092915050565b600b6020528060005260406000206000915054906101000a900460ff1681565b60008084905061226b8585611586565b156123d5578073ffffffffffffffffffffffffffffffffffffffff16638f4ffcb1338630876040518563ffffffff167c0100000000000000000000000000000000000000000000000000000000028152600401808573ffffffffffffffffffffffffffffffffffffffff1673ffffffffffffffffffffffffffffffffffffffff1681526020018481526020018373ffffffffffffffffffffffffffffffffffffffff1673ffffffffffffffffffffffffffffffffffffffff16815260200180602001828103825283818151815260200191508051906020019080838360005b8381101561236557808201518184015260208101905061234a565b50505050905090810190601f1680156123925780820380516001836020036101000a031916815260200191505b5095505050505050600060405180830381600087803b1580156123b457600080fd5b505af11580156123c8573d6000803e3d6000fd5b50505050600191506123d6565b5b509392505050565b600560009054906101000a900473ffffffffffffffffffffffffffffffffffffffff1673ffffffffffffffffffffffffffffffffffffffff163373ffffffffffffffffffffffffffffffffffffffff1614151561243a57600080fd5b6002600a5402600a81905550600a54600960008282540192505081905550565b600d602052816000526040600020602052806000526040600020600091509150505481565b600560009054906101000a900473ffffffffffffffffffffffffffffffffffffffff1673ffffffffffffffffffffffffffffffffffffffff163373ffffffffffffffffffffffffffffffffffffffff161415156124db57600080fd5b80600b60008473ffffffffffffffffffffffffffffffffffffffff1673ffffffffffffffffffffffffffffffffffffffff16815260200190815260200160002060006101000a81548160ff0219169083151502179055507f48335238b4855f35377ed80f164e8c6f3c366e54ac00b96a6402d4a9814a03a58282604051808373ffffffffffffffffffffffffffffffffffffffff1673ffffffffffffffffffffffffffffffffffffffff168152602001821515151581526020019250505060405180910390a15050565b600560009054906101000a900473ffffffffffffffffffffffffffffffffffffffff1673ffffffffffffffffffffffffffffffffffffffff163373ffffffffffffffffffffffffffffffffffffffff1614151561260157600080fd5b80600560006101000a81548173ffffffffffffffffffffffffffffffffffffffff021916908373ffffffffffffffffffffffffffffffffffffffff16021790555050565b60125481565b6000600c60008373ffffffffffffffffffffffffffffffffffffffff1673ffffffffffffffffffffffffffffffffffffffff168152602001908152602001600020549050919050565b6000806000809054906101000a900473ffffffffffffffffffffffffffffffffffffffff1673ffffffffffffffffffffffffffffffffffffffff161480612704575060006127026000809054906101000a900473ffffffffffffffffffffffffffffffffffffffff16613631565b145b1561271557612713600061363c565b505b6000809054906101000a900473ffffffffffffffffffffffffffffffffffffffff1673ffffffffffffffffffffffffffffffffffffffff166338cc48316040518163ffffffff167c0100000000000000000000000000000000000000000000000000000000028152600401602060405180830381600087803b15801561279a57600080fd5b505af11580156127ae573d6000803e3d6000fd5b505050506040513d60208110156127c457600080fd5b810190808051906020019092919050505073ffffffffffffffffffffffffffffffffffffffff16600160009054906101000a900473ffffffffffffffffffffffffffffffffffffffff1673ffffffffffffffffffffffffffffffffffffffff1614151561292c576000809054906101000a900473ffffffffffffffffffffffffffffffffffffffff1673ffffffffffffffffffffffffffffffffffffffff166338cc48316040518163ffffffff167c0100000000000000000000000000000000000000000000000000000000028152600401602060405180830381600087803b1580156128b057600080fd5b505af11580156128c4573d6000803e3d6000fd5b505050506040513d60208110156128da57600080fd5b8101908080519060200190929190505050600160006101000a81548173ffffffffffffffffffffffffffffffffffffffff021916908373ffffffffffffffffffffffffffffffffffffffff1602179055505b600160009054906101000a900473ffffffffffffffffffffffffffffffffffffffff1673ffffffffffffffffffffffffffffffffffffffff1663524f3889836040518263ffffffff167c01000000000000000000000000000000000000000000000000000000000281526004018080602001828103825283818151815260200191508051906020019080838360005b838110156129d65780820151818401526020810190506129bb565b50505050905090810190601f168015612a035780820380516001836020036101000a031916815260200191505b5092505050602060405180830381600087803b158015612a2257600080fd5b505af1158015612a36573d6000803e3d6000fd5b505050506040513d6020811015612a4c57600080fd5b81019080805190602001909291905050509050919050565b60008060008060009054906101000a900473ffffffffffffffffffffffffffffffffffffffff1673ffffffffffffffffffffffffffffffffffffffff161480612ad657506000612ad46000809054906101000a900473ffffffffffffffffffffffffffffffffffffffff16613631565b145b15612ae757612ae5600061363c565b505b6000809054906101000a900473ffffffffffffffffffffffffffffffffffffffff1673ffffffffffffffffffffffffffffffffffffffff166338cc48316040518163ffffffff167c0100000000000000000000000000000000000000000000000000000000028152600401602060405180830381600087803b158015612b6c57600080fd5b505af1158015612b80573d6000803e3d6000fd5b505050506040513d6020811015612b9657600080fd5b810190808051906020019092919050505073ffffffffffffffffffffffffffffffffffffffff16600160009054906101000a900473ffffffffffffffffffffffffffffffffffffffff1673ffffffffffffffffffffffffffffffffffffffff16141515612cfe576000809054906101000a900473ffffffffffffffffffffffffffffffffffffffff1673ffffffffffffffffffffffffffffffffffffffff166338cc48316040518163ffffffff167c0100000000000000000000000000000000000000000000000000000000028152600401602060405180830381600087803b158015612c8257600080fd5b505af1158015612c96573d6000803e3d6000fd5b505050506040513d6020811015612cac57600080fd5b8101908080519060200190929190505050600160006101000a81548173ffffffffffffffffffffffffffffffffffffffff021916908373ffffffffffffffffffffffffffffffffffffffff1602179055505b600160009054906101000a900473ffffffffffffffffffffffffffffffffffffffff1673ffffffffffffffffffffffffffffffffffffffff1663524f3889856040518263ffffffff167c01000000000000000000000000000000000000000000000000000000000281526004018080602001828103825283818151815260200191508051906020019080838360005b83811015612da8578082015181840152602081019050612d8d565b50505050905090810190601f168015612dd55780820380516001836020036101000a031916815260200191505b5092505050602060405180830381600087803b158015612df457600080fd5b505af1158015612e08573d6000803e3d6000fd5b505050506040513d6020811015612e1e57600080fd5b8101908080519060200190929190505050905062030d403a02670de0b6b3a764000001811115612e545760006001029150612ffe565b600160009054906101000a900473ffffffffffffffffffffffffffffffffffffffff1673ffffffffffffffffffffffffffffffffffffffff1663adf59f99828787876040518563ffffffff167c0100000000000000000000000000000000000000000000000000000000028152600401808481526020018060200180602001838103835285818151815260200191508051906020019080838360005b83811015612f0b578082015181840152602081019050612ef0565b50505050905090810190601f168015612f385780820380516001836020036101000a031916815260200191505b50838103825284818151815260200191508051906020019080838360005b83811015612f71578082015181840152602081019050612f56565b50505050905090810190601f168015612f9e5780820380516001836020036101000a031916815260200191505b50955050505050506020604051808303818588803b158015612fbf57600080fd5b505af1158015612fd3573d6000803e3d6000fd5b50505050506040513d6020811015612fea57600080fd5b810190808051906020019092919050505091505b509392505050565b60008273ffffffffffffffffffffffffffffffffffffffff161415151561302c57600080fd5b80600c60008573ffffffffffffffffffffffffffffffffffffffff1673ffffffffffffffffffffffffffffffffffffffff168152602001908152602001600020541015151561307a57600080fd5b600c60008373ffffffffffffffffffffffffffffffffffffffff1673ffffffffffffffffffffffffffffffffffffffff1681526020019081526020016000205481600c60008573ffffffffffffffffffffffffffffffffffffffff1673ffffffffffffffffffffffffffffffffffffffff16815260200190815260200160002054011015151561310957600080fd5b600b60008473ffffffffffffffffffffffffffffffffffffffff1673ffffffffffffffffffffffffffffffffffffffff16815260200190815260200160002060009054906101000a900460ff1615151561316257600080fd5b600b60008373ffffffffffffffffffffffffffffffffffffffff1673ffffffffffffffffffffffffffffffffffffffff16815260200190815260200160002060009054906101000a900460ff161515156131bb57600080fd5b80600c60008573ffffffffffffffffffffffffffffffffffffffff1673ffffffffffffffffffffffffffffffffffffffff1681526020019081526020016000206000828254039250508190555080600c60008473ffffffffffffffffffffffffffffffffffffffff1673ffffffffffffffffffffffffffffffffffffffff168152602001908152602001600020600082825401925050819055508173ffffffffffffffffffffffffffffffffffffffff168373ffffffffffffffffffffffffffffffffffffffff167fddf252ad1be2c89b69c2b068fc378daa952ba7f163c4a11628f55a4df523b3ef836040518082815260200191505060405180910390a3505050565b6000806000809054906101000a900473ffffffffffffffffffffffffffffffffffffffff1673ffffffffffffffffffffffffffffffffffffffff16148061332f5750600061332d6000809054906101000a900473ffffffffffffffffffffffffffffffffffffffff16613631565b145b156133405761333e600061363c565b505b6000809054906101000a900473ffffffffffffffffffffffffffffffffffffffff1673ffffffffffffffffffffffffffffffffffffffff166338cc48316040518163ffffffff167c0100000000000000000000000000000000000000000000000000000000028152600401602060405180830381600087803b1580156133c557600080fd5b505af11580156133d9573d6000803e3d6000fd5b505050506040513d60208110156133ef57600080fd5b810190808051906020019092919050505073ffffffffffffffffffffffffffffffffffffffff16600160009054906101000a900473ffffffffffffffffffffffffffffffffffffffff1673ffffffffffffffffffffffffffffffffffffffff16141515613557576000809054906101000a900473ffffffffffffffffffffffffffffffffffffffff1673ffffffffffffffffffffffffffffffffffffffff166338cc48316040518163ffffffff167c0100000000000000000000000000000000000000000000000000000000028152600401602060405180830381600087803b1580156134db57600080fd5b505af11580156134ef573d6000803e3d6000fd5b505050506040513d602081101561350557600080fd5b8101908080519060200190929190505050600160006101000a81548173ffffffffffffffffffffffffffffffffffffffff021916908373ffffffffffffffffffffffffffffffffffffffff1602179055505b600160009054906101000a900473ffffffffffffffffffffffffffffffffffffffff1673ffffffffffffffffffffffffffffffffffffffff1663c281d19e6040518163ffffffff167c0100000000000000000000000000000000000000000000000000000000028152600401602060405180830381600087803b1580156135dd57600080fd5b505af11580156135f1573d6000803e3d6000fd5b505050506040513d602081101561360757600080fd5b8101908080519060200190929190505050905090565b600061362a82600061364d565b9050919050565b6000813b9050919050565b6000613646613941565b9050919050565b6000606060008060008693506000925060009150600090505b83518110156139225760307f01000000000000000000000000000000000000000000000000000000000000000284828151811015156136a157fe5b9060200101517f010000000000000000000000000000000000000000000000000000000000000090047f0100000000000000000000000000000000000000000000000000000000000000027effffffffffffffffffffffffffffffffffffffffffffffffffffffffffffff1916101580156137b9575060397f010000000000000000000000000000000000000000000000000000000000000002848281518110151561374957fe5b9060200101517f010000000000000000000000000000000000000000000000000000000000000090047f0100000000000000000000000000000000000000000000000000000000000000027effffffffffffffffffffffffffffffffffffffffffffffffffffffffffffff191611155b1561386a5781156137dc5760008614156137d257613922565b8580600190039650505b600a83029250603084828151811015156137f257fe5b9060200101517f010000000000000000000000000000000000000000000000000000000000000090047f0100000000000000000000000000000000000000000000000000000000000000027f010000000000000000000000000000000000000000000000000000000000000090040383019250613915565b602e7f010000000000000000000000000000000000000000000000000000000000000002848281518110151561389c57fe5b9060200101517f010000000000000000000000000000000000000000000000000000000000000090047f0100000000000000000000000000000000000000000000000000000000000000027effffffffffffffffffffffffffffffffffffffffffffffffffffffffffffff1916141561391457600191505b5b8080600101915050613666565b60008611156139345785600a0a830292505b8294505050505092915050565b600080613961731d3b2638a7cc9f2cb3d298a3da7a90b67e5506ed613631565b1115613a0257731d3b2638a7cc9f2cb3d298a3da7a90b67e5506ed6000806101000a81548173ffffffffffffffffffffffffffffffffffffffff021916908373ffffffffffffffffffffffffffffffffffffffff1602179055506139f96040805190810160405280600b81526020017f6574685f6d61696e6e6574000000000000000000000000000000000000000000815250613dd0565b60019050613dcd565b6000613a2173c03a2615d5efaf5f49f60b7bb6583eaec212fdf1613631565b1115613ac25773c03a2615d5efaf5f49f60b7bb6583eaec212fdf16000806101000a81548173ffffffffffffffffffffffffffffffffffffffff021916908373ffffffffffffffffffffffffffffffffffffffff160217905550613ab96040805190810160405280600c81526020017f6574685f726f707374656e330000000000000000000000000000000000000000815250613dd0565b60019050613dcd565b6000613ae173b7a07bcf2ba2f2703b24c0691b5278999c59ac7e613631565b1115613b825773b7a07bcf2ba2f2703b24c0691b5278999c59ac7e6000806101000a81548173ffffffffffffffffffffffffffffffffffffffff021916908373ffffffffffffffffffffffffffffffffffffffff160217905550613b796040805190810160405280600981526020017f6574685f6b6f76616e0000000000000000000000000000000000000000000000815250613dd0565b60019050613dcd565b6000613ba173146500cfd35b22e4a392fe0adc06de1a1368ed48613631565b1115613c425773146500cfd35b22e4a392fe0adc06de1a1368ed486000806101000a81548173ffffffffffffffffffffffffffffffffffffffff021916908373ffffffffffffffffffffffffffffffffffffffff160217905550613c396040805190810160405280600b81526020017f6574685f72696e6b656279000000000000000000000000000000000000000000815250613dd0565b60019050613dcd565b6000613c61736f485c8bf6fc43ea212e93bbf8ce046c7f1cb475613631565b1115613cc457736f485c8bf6fc43ea212e93bbf8ce046c7f1cb4756000806101000a81548173ffffffffffffffffffffffffffffffffffffffff021916908373ffffffffffffffffffffffffffffffffffffffff16021790555060019050613dcd565b6000613ce37320e12a1f859b3feae5fb2a0a32c18f5a65555bbf613631565b1115613d46577320e12a1f859b3feae5fb2a0a32c18f5a65555bbf6000806101000a81548173ffffffffffffffffffffffffffffffffffffffff021916908373ffffffffffffffffffffffffffffffffffffffff16021790555060019050613dcd565b6000613d657351efaf4c8b3c9afbd5ab9f4bbc82784ab6ef8faa613631565b1115613dc8577351efaf4c8b3c9afbd5ab9f4bbc82784ab6ef8faa6000806101000a81548173ffffffffffffffffffffffffffffffffffffffff021916908373ffffffffffffffffffffffffffffffffffffffff16021790555060019050613dcd565b600090505b90565b8060029080519060200190613de6929190613dea565b5050565b828054600181600116156101000203166002900490600052602060002090601f016020900481019282601f10613e2b57805160ff1916838001178555613e59565b82800160010185558215613e59579182015b82811115613e58578251825591602001919060010190613e3d565b5b509050613e669190613e6a565b5090565b613e8c91905b80821115613e88576000816000905550600101613e70565b5090565b905600a165627a7a72305820f02c0c89c05a5d2aa538844ae86320dee6b2586af773fb4228ad7e926306dc0b0029",
  "source": "pragma solidity ^0.4.24;\n\nimport \"./StandardToken.sol\";\nimport \"./Oraclize.sol\";\nimport \"./MerchantManager.sol\";\nimport \"./Merchant.sol\";\n\ncontract Rawbot is usingOraclize, StandardToken {\n\n    address private _rawbot_team;\n    address[] private exchange_addresses;\n    address private ContractMerchantManagerAddress;\n    mapping(address => User) private user;\n\n    uint public index_starter = 0;\n    uint public index_checker = 0;\n    mapping(uint => transaction_exchange) transaction_exchanges;\n\n    event OraclizeLog(string _description, uint256 _time);\n\n    uint256 private ETH_PRICE = 500;\n    uint256 private last_price_update = 0;\n    PRICE_CHECKING_STATUS public price_status;\n\n    enum PRICE_CHECKING_STATUS {\n        NEEDED, PENDING, FETCHED\n    }\n\n    struct transaction_exchange {\n        address _address;\n        uint256 _eth;\n        uint256 _time;\n    }\n\n    struct User {\n        uint256 allowed_to_exchange;\n        ExchangeHistory[] exchange_history;\n        bool available;\n    }\n\n    struct ExchangeHistory {\n        uint256 raw_amount;\n        uint256 raw_exchange;\n        uint256 eth_received;\n        uint256 eth_price;\n        uint256 time_ms;\n        bool available;\n    }\n\n    /**\n        Rawbot has 20,000,000 tokens.\n        4,000,000 are held by the contract for the Rawbot team\n        16,000,000 are circulating\n    */\n    constructor() StandardToken(20000000, \"Rawbot Test 1\", \"RWT\") public payable {\n        _rawbot_team = msg.sender;\n        balanceOf[_rawbot_team] = (totalSupply * 1) / 5;\n        totalSupply -= balanceOf[_rawbot_team];\n        price_status = PRICE_CHECKING_STATUS.NEEDED;\n        //        fetchEthereumPrice(15);\n        user[msg.sender].available = true;\n        user[msg.sender].allowed_to_exchange += 4000000;\n    }\n\n    /**\n        This method is used to receive Ethereum & transfer Raw coins in return to the user\n        It adds them to transaction_exchanges mapping and executes all queued exchanges\n        at the same time to avoid fetching Ethereum price at the same time\n    */\n    function() payable public {\n        require(ETH_PRICE > 0, \"ETH price isn't fetched yet\");\n        transaction_exchanges[index_starter] = transaction_exchange(msg.sender, msg.value, now);\n        index_starter++;\n\n        if (last_price_update - now > 300) {\n            fetchEthereumPrice(0);\n        } else {\n            exchangeAll();\n        }\n    }\n\n    /**\n        This method is used to exchange Raw and get Ethereum in exchange\n        It requires that the user has exchanged Ethereum to Raw previously\n    */\n    function withdraw(uint value) public payable returns (bool) {\n        require(getExchangeLeftOf(msg.sender) > 0);\n        require(getExchangeLeftOf(msg.sender) >= value);\n        require(balanceOf[msg.sender] >= value);\n        uint256 ether_to_send = (value * 1e18) / (2 * ETH_PRICE);\n        msg.sender.transfer(ether_to_send);\n        balanceOf[msg.sender] -= value;\n        user[msg.sender].allowed_to_exchange -= value;\n        emit ExchangeToEther(msg.sender, value, ether_to_send);\n        return true;\n    }\n\n    /**\n        This method is used to modify user's balance externally\n        It can only be used by created Merchant contract addresses\n    */\n    function modifyBalance(address _address, uint256 amount) external returns (bool) {\n        MerchantManager merchantManager = MerchantManager(ContractMerchantManagerAddress);\n        require(merchantManager.hasAccess(msg.sender) == true);\n        require(balanceOf[_address] + amount >= 0);\n        balanceOf[_address] += amount;\n        return true;\n    }\n\n    /**\n       This method is used to fetch the Ethereum price using Oraclize API\n    */\n    function fetchEthereumPrice(uint timing) onlyOwner public payable {\n        if (oraclize_getPrice(\"URL\") > address(this).balance) {\n            emit OraclizeLog(\"Oraclize query was NOT sent, please add some ETH to cover for the query fee\", now);\n        } else {\n            emit OraclizeLog(\"Oraclize query was sent, standing by for the answer..\", now);\n            oraclize_query(timing, \"URL\", \"json(https://min-api.cryptocompare.com/data/price?fsym=ETH&tsyms=USD).USD\");\n        }\n    }\n\n    function __callback(bytes32 myid, string result) {\n        if (msg.sender != oraclize_cbAddress()) revert();\n        ETH_PRICE = parseInt(result);\n        emit OraclizeLog(result, now);\n        last_price_update = now;\n        price_status = PRICE_CHECKING_STATUS.FETCHED;\n        exchangeAll();\n    }\n\n    /**\n        This method is used to execute all queued exchanges at the same time\n        Mapping is used instead of arrays to avoid gas spending\n    */\n    function exchangeAll() private {\n        require(index_checker < index_starter);\n        for (uint i = index_checker; i < index_starter; i++) {\n            uint256 _eth = transaction_exchanges[index_checker]._eth;\n            address _address = transaction_exchanges[index_checker]._address;\n            uint256 time = transaction_exchanges[index_checker]._time;\n\n            uint256 raw_amount = (_eth * ETH_PRICE * 2) / 1e18;\n            totalSupply -= raw_amount;\n            balanceOf[_address] += raw_amount;\n            transfer(_address, raw_amount);\n\n            user[_address].exchange_history.push(ExchangeHistory(raw_amount, 0, _eth, ETH_PRICE, time, true));\n            if (user[_address].available == false) {\n                exchange_addresses.push(_address);\n            }\n            user[_address].allowed_to_exchange += raw_amount;\n            emit ExchangeToRaw(_address, _eth, raw_amount);\n        }\n        index_checker = index_starter;\n    }\n\n    /**\n        This method is used to set the MerchantManager's address\n        It's used to manipulate the modifyBalance function\n    */\n    function setContractMerchantManager(address _address) onlyOwner public returns (bool){\n        ContractMerchantManagerAddress = _address;\n        return true;\n    }\n\n    /**\n        This method returns the MerchantManager's address\n    */\n    function getContractMerchantManager() public view returns (address) {\n        return ContractMerchantManagerAddress;\n    }\n\n    /**\n        This method returns the exchange addresses\n    */\n    function getAddresses() view public returns (address[]) {\n        return exchange_addresses;\n    }\n\n    /**\n        This method returns the amount of Raw left to exchange\n    */\n    function getExchangeLeftOf(address _address) view public returns (uint256){\n        return user[_address].allowed_to_exchange;\n    }\n\n    /**\n        This method returns the Ethereum price\n    */\n    function getEthereumPrice() public view returns (uint) {\n        return ETH_PRICE;\n    }\n\n    /**\n        This method returns the balance of a specific address\n    */\n    function getBalance(address _address) external view returns (uint256){\n        return balanceOf[_address];\n    }\n}",
  "sourcePath": "/Users/hassanjawhar/Desktop/Workspace/rawbot/contracts/Rawbot.sol",
  "compiler": {
    "name": "solc",
    "version": "0.4.24+commit.e67f0147.Emscripten.clang"
  },
  "schemaVersion": "2.0.0",
  "updatedAt": "2018-08-17T14:46:18.503Z"
}