{
  "contractName": "StandardToken",
  "abi": [
    {
      "constant": true,
      "inputs": [],
      "name": "price_status",
      "outputs": [
        {
          "name": "",
          "type": "uint8"
        }
      ],
      "payable": false,
      "stateMutability": "view",
      "type": "function"
    },
    {
      "constant": true,
      "inputs": [],
      "name": "name",
      "outputs": [
        {
          "name": "",
          "type": "string"
        }
      ],
      "payable": false,
      "stateMutability": "view",
      "type": "function"
    },
    {
      "constant": true,
      "inputs": [
        {
          "name": "",
          "type": "address"
        }
      ],
      "name": "historyOf",
      "outputs": [
        {
          "name": "allowed_to_exchange",
          "type": "uint256"
        },
        {
          "name": "available",
          "type": "bool"
        }
      ],
      "payable": false,
      "stateMutability": "view",
      "type": "function"
    },
    {
      "constant": true,
      "inputs": [],
      "name": "totalSupply",
      "outputs": [
        {
          "name": "",
          "type": "uint256"
        }
      ],
      "payable": false,
      "stateMutability": "view",
      "type": "function"
    },
    {
      "constant": false,
      "inputs": [
        {
          "name": "myid",
          "type": "bytes32"
        },
        {
          "name": "result",
          "type": "string"
        }
      ],
      "name": "__callback",
      "outputs": [],
      "payable": false,
      "stateMutability": "nonpayable",
      "type": "function"
    },
    {
      "constant": true,
      "inputs": [
        {
          "name": "",
          "type": "uint256"
        }
      ],
      "name": "device_serial_numbers",
      "outputs": [
        {
          "name": "",
          "type": "string"
        }
      ],
      "payable": false,
      "stateMutability": "view",
      "type": "function"
    },
    {
      "constant": true,
      "inputs": [],
      "name": "decimals",
      "outputs": [
        {
          "name": "",
          "type": "uint8"
        }
      ],
      "payable": false,
      "stateMutability": "view",
      "type": "function"
    },
    {
      "constant": false,
      "inputs": [
        {
          "name": "myid",
          "type": "bytes32"
        },
        {
          "name": "result",
          "type": "string"
        },
        {
          "name": "proof",
          "type": "bytes"
        }
      ],
      "name": "__callback",
      "outputs": [],
      "payable": false,
      "stateMutability": "nonpayable",
      "type": "function"
    },
    {
      "constant": false,
      "inputs": [],
      "name": "fetchEthereumPrice",
      "outputs": [],
      "payable": true,
      "stateMutability": "payable",
      "type": "function"
    },
    {
      "constant": true,
      "inputs": [],
      "name": "last_price_update",
      "outputs": [
        {
          "name": "",
          "type": "uint256"
        }
      ],
      "payable": false,
      "stateMutability": "view",
      "type": "function"
    },
    {
      "constant": true,
      "inputs": [
        {
          "name": "",
          "type": "address"
        },
        {
          "name": "",
          "type": "uint256"
        }
      ],
      "name": "actionsHistoryOf",
      "outputs": [
        {
          "name": "action_id",
          "type": "uint256"
        },
        {
          "name": "action_name",
          "type": "string"
        },
        {
          "name": "action_price",
          "type": "uint256"
        },
        {
          "name": "action_duration",
          "type": "uint256"
        },
        {
          "name": "user",
          "type": "address"
        },
        {
          "name": "time",
          "type": "uint256"
        }
      ],
      "payable": false,
      "stateMutability": "view",
      "type": "function"
    },
    {
      "constant": false,
      "inputs": [],
      "name": "fetchOraclizeFee",
      "outputs": [],
      "payable": true,
      "stateMutability": "payable",
      "type": "function"
    },
    {
      "constant": false,
      "inputs": [],
      "name": "initEthereumPrice",
      "outputs": [],
      "payable": true,
      "stateMutability": "payable",
      "type": "function"
    },
    {
      "constant": true,
      "inputs": [
        {
          "name": "",
          "type": "address"
        }
      ],
      "name": "balanceOf",
      "outputs": [
        {
          "name": "",
          "type": "uint256"
        }
      ],
      "payable": false,
      "stateMutability": "view",
      "type": "function"
    },
    {
      "constant": true,
      "inputs": [],
      "name": "ETH_PRICE",
      "outputs": [
        {
          "name": "",
          "type": "uint256"
        }
      ],
      "payable": false,
      "stateMutability": "view",
      "type": "function"
    },
    {
      "constant": true,
      "inputs": [],
      "name": "owner",
      "outputs": [
        {
          "name": "",
          "type": "address"
        }
      ],
      "payable": false,
      "stateMutability": "view",
      "type": "function"
    },
    {
      "constant": true,
      "inputs": [],
      "name": "symbol",
      "outputs": [
        {
          "name": "",
          "type": "string"
        }
      ],
      "payable": false,
      "stateMutability": "view",
      "type": "function"
    },
    {
      "constant": true,
      "inputs": [],
      "name": "initSupply",
      "outputs": [
        {
          "name": "",
          "type": "uint256"
        }
      ],
      "payable": false,
      "stateMutability": "view",
      "type": "function"
    },
    {
      "constant": true,
      "inputs": [],
      "name": "getEthereumPrice",
      "outputs": [
        {
          "name": "",
          "type": "uint256"
        }
      ],
      "payable": false,
      "stateMutability": "view",
      "type": "function"
    },
    {
      "constant": true,
      "inputs": [
        {
          "name": "",
          "type": "address"
        }
      ],
      "name": "frozenAccount",
      "outputs": [
        {
          "name": "",
          "type": "bool"
        }
      ],
      "payable": false,
      "stateMutability": "view",
      "type": "function"
    },
    {
      "constant": true,
      "inputs": [
        {
          "name": "",
          "type": "uint256"
        }
      ],
      "name": "exchange_addresses",
      "outputs": [
        {
          "name": "",
          "type": "address"
        }
      ],
      "payable": false,
      "stateMutability": "view",
      "type": "function"
    },
    {
      "constant": true,
      "inputs": [
        {
          "name": "",
          "type": "address"
        },
        {
          "name": "",
          "type": "address"
        }
      ],
      "name": "allowance",
      "outputs": [
        {
          "name": "",
          "type": "uint256"
        }
      ],
      "payable": false,
      "stateMutability": "view",
      "type": "function"
    },
    {
      "constant": true,
      "inputs": [],
      "name": "oraclize_fee",
      "outputs": [
        {
          "name": "",
          "type": "uint256"
        }
      ],
      "payable": false,
      "stateMutability": "view",
      "type": "function"
    },
    {
      "constant": false,
      "inputs": [
        {
          "name": "newOwner",
          "type": "address"
        }
      ],
      "name": "transferOwnership",
      "outputs": [],
      "payable": false,
      "stateMutability": "nonpayable",
      "type": "function"
    },
    {
      "inputs": [
        {
          "name": "initialSupply",
          "type": "uint256"
        },
        {
          "name": "tokenName",
          "type": "string"
        },
        {
          "name": "tokenSymbol",
          "type": "string"
        }
      ],
      "payable": false,
      "stateMutability": "nonpayable",
      "type": "constructor"
    },
    {
      "payable": true,
      "stateMutability": "payable",
      "type": "fallback"
    },
    {
      "anonymous": false,
      "inputs": [
        {
          "indexed": true,
          "name": "from",
          "type": "address"
        },
        {
          "indexed": true,
          "name": "to",
          "type": "address"
        },
        {
          "indexed": false,
          "name": "value",
          "type": "uint256"
        }
      ],
      "name": "Transfer",
      "type": "event"
    },
    {
      "anonymous": false,
      "inputs": [
        {
          "indexed": true,
          "name": "tokenOwner",
          "type": "address"
        },
        {
          "indexed": true,
          "name": "spender",
          "type": "address"
        },
        {
          "indexed": false,
          "name": "tokens",
          "type": "uint256"
        }
      ],
      "name": "Approval",
      "type": "event"
    },
    {
      "anonymous": false,
      "inputs": [
        {
          "indexed": true,
          "name": "from",
          "type": "address"
        },
        {
          "indexed": false,
          "name": "value",
          "type": "uint256"
        }
      ],
      "name": "Burn",
      "type": "event"
    },
    {
      "anonymous": false,
      "inputs": [
        {
          "indexed": false,
          "name": "target",
          "type": "address"
        },
        {
          "indexed": false,
          "name": "frozen",
          "type": "bool"
        }
      ],
      "name": "FrozenFunds",
      "type": "event"
    },
    {
      "anonymous": false,
      "inputs": [
        {
          "indexed": false,
          "name": "_address",
          "type": "address"
        },
        {
          "indexed": false,
          "name": "_amount_received",
          "type": "uint256"
        },
        {
          "indexed": false,
          "name": "_amount_to_give",
          "type": "uint256"
        }
      ],
      "name": "ExchangeToEther",
      "type": "event"
    },
    {
      "anonymous": false,
      "inputs": [
        {
          "indexed": false,
          "name": "_address",
          "type": "address"
        },
        {
          "indexed": false,
          "name": "_amount_received",
          "type": "uint256"
        },
        {
          "indexed": false,
          "name": "_amount_to_give",
          "type": "uint256"
        }
      ],
      "name": "ExchangeToRaw",
      "type": "event"
    },
    {
      "anonymous": false,
      "inputs": [
        {
          "indexed": false,
          "name": "_error_message",
          "type": "string"
        }
      ],
      "name": "SendErrorMessage",
      "type": "event"
    },
    {
      "anonymous": false,
      "inputs": [
        {
          "indexed": false,
          "name": "_owner_address",
          "type": "address"
        },
        {
          "indexed": false,
          "name": "_device_address",
          "type": "address"
        },
        {
          "indexed": false,
          "name": "_device_serial_number",
          "type": "string"
        },
        {
          "indexed": false,
          "name": "_device_name",
          "type": "string"
        },
        {
          "indexed": false,
          "name": "_success",
          "type": "bool"
        }
      ],
      "name": "AddDevice",
      "type": "event"
    },
    {
      "anonymous": false,
      "inputs": [
        {
          "indexed": false,
          "name": "",
          "type": "string"
        },
        {
          "indexed": false,
          "name": "",
          "type": "uint256"
        },
        {
          "indexed": false,
          "name": "",
          "type": "string"
        },
        {
          "indexed": false,
          "name": "",
          "type": "uint256"
        },
        {
          "indexed": false,
          "name": "",
          "type": "uint256"
        },
        {
          "indexed": false,
          "name": "",
          "type": "bool"
        }
      ],
      "name": "ActionAdd",
      "type": "event"
    },
    {
      "anonymous": false,
      "inputs": [
        {
          "indexed": false,
          "name": "",
          "type": "string"
        },
        {
          "indexed": false,
          "name": "",
          "type": "uint256"
        },
        {
          "indexed": false,
          "name": "",
          "type": "string"
        },
        {
          "indexed": false,
          "name": "",
          "type": "uint256"
        },
        {
          "indexed": false,
          "name": "",
          "type": "uint256"
        },
        {
          "indexed": false,
          "name": "",
          "type": "bool"
        }
      ],
      "name": "ActionEnable",
      "type": "event"
    },
    {
      "anonymous": false,
      "inputs": [
        {
          "indexed": false,
          "name": "",
          "type": "string"
        },
        {
          "indexed": false,
          "name": "",
          "type": "uint256"
        },
        {
          "indexed": false,
          "name": "",
          "type": "string"
        },
        {
          "indexed": false,
          "name": "",
          "type": "uint256"
        },
        {
          "indexed": false,
          "name": "",
          "type": "uint256"
        },
        {
          "indexed": false,
          "name": "",
          "type": "bool"
        }
      ],
      "name": "ActionDisable",
      "type": "event"
    },
    {
      "anonymous": false,
      "inputs": [
        {
          "indexed": false,
          "name": "_description",
          "type": "string"
        },
        {
          "indexed": false,
          "name": "_time",
          "type": "uint256"
        }
      ],
      "name": "OraclizeLog",
      "type": "event"
    },
    {
      "constant": false,
      "inputs": [
        {
          "name": "_to",
          "type": "address"
        },
        {
          "name": "_value",
          "type": "uint256"
        }
      ],
      "name": "transfer",
      "outputs": [
        {
          "name": "success",
          "type": "bool"
        }
      ],
      "payable": false,
      "stateMutability": "nonpayable",
      "type": "function"
    },
    {
      "constant": false,
      "inputs": [
        {
          "name": "_from",
          "type": "address"
        },
        {
          "name": "_to",
          "type": "address"
        },
        {
          "name": "_value",
          "type": "uint256"
        }
      ],
      "name": "transferFrom",
      "outputs": [
        {
          "name": "success",
          "type": "bool"
        }
      ],
      "payable": false,
      "stateMutability": "nonpayable",
      "type": "function"
    },
    {
      "constant": false,
      "inputs": [
        {
          "name": "_spender",
          "type": "address"
        },
        {
          "name": "_value",
          "type": "uint256"
        }
      ],
      "name": "approve",
      "outputs": [
        {
          "name": "success",
          "type": "bool"
        }
      ],
      "payable": false,
      "stateMutability": "nonpayable",
      "type": "function"
    },
    {
      "constant": false,
      "inputs": [
        {
          "name": "_spender",
          "type": "address"
        },
        {
          "name": "_value",
          "type": "uint256"
        },
        {
          "name": "_extraData",
          "type": "bytes"
        }
      ],
      "name": "approveAndCall",
      "outputs": [
        {
          "name": "success",
          "type": "bool"
        }
      ],
      "payable": false,
      "stateMutability": "nonpayable",
      "type": "function"
    },
    {
      "constant": false,
      "inputs": [
        {
          "name": "_value",
          "type": "uint256"
        }
      ],
      "name": "burn",
      "outputs": [
        {
          "name": "success",
          "type": "bool"
        }
      ],
      "payable": false,
      "stateMutability": "nonpayable",
      "type": "function"
    },
    {
      "constant": false,
      "inputs": [
        {
          "name": "_from",
          "type": "address"
        },
        {
          "name": "_value",
          "type": "uint256"
        }
      ],
      "name": "burnFrom",
      "outputs": [
        {
          "name": "success",
          "type": "bool"
        }
      ],
      "payable": false,
      "stateMutability": "nonpayable",
      "type": "function"
    },
    {
      "constant": false,
      "inputs": [
        {
          "name": "target",
          "type": "address"
        },
        {
          "name": "freeze",
          "type": "bool"
        }
      ],
      "name": "freezeAccount",
      "outputs": [],
      "payable": false,
      "stateMutability": "nonpayable",
      "type": "function"
    },
    {
      "constant": false,
      "inputs": [],
      "name": "increaseSupply",
      "outputs": [],
      "payable": false,
      "stateMutability": "nonpayable",
      "type": "function"
    },
    {
      "constant": true,
      "inputs": [],
      "name": "getCurrentSupply",
      "outputs": [
        {
          "name": "",
          "type": "uint256"
        }
      ],
      "payable": false,
      "stateMutability": "view",
      "type": "function"
    },
    {
      "constant": false,
      "inputs": [
        {
          "name": "value",
          "type": "uint256"
        }
      ],
      "name": "withdraw",
      "outputs": [
        {
          "name": "success",
          "type": "bool"
        }
      ],
      "payable": false,
      "stateMutability": "nonpayable",
      "type": "function"
    },
    {
      "constant": true,
      "inputs": [
        {
          "name": "_address",
          "type": "address"
        }
      ],
      "name": "getBalance",
      "outputs": [
        {
          "name": "",
          "type": "uint256"
        }
      ],
      "payable": false,
      "stateMutability": "view",
      "type": "function"
    },
    {
      "constant": true,
      "inputs": [],
      "name": "getContractBalance",
      "outputs": [
        {
          "name": "",
          "type": "uint256"
        }
      ],
      "payable": false,
      "stateMutability": "view",
      "type": "function"
    },
    {
      "constant": false,
      "inputs": [
        {
          "name": "_address",
          "type": "address"
        },
        {
          "name": "_raw_amount",
          "type": "uint256"
        },
        {
          "name": "_eth_received",
          "type": "uint256"
        },
        {
          "name": "_eth_price",
          "type": "uint256"
        },
        {
          "name": "_time_ms",
          "type": "uint256"
        }
      ],
      "name": "addExchangeHistory",
      "outputs": [
        {
          "name": "",
          "type": "bool"
        }
      ],
      "payable": false,
      "stateMutability": "nonpayable",
      "type": "function"
    },
    {
      "constant": false,
      "inputs": [
        {
          "name": "_address",
          "type": "address"
        },
        {
          "name": "_device_serial_number",
          "type": "string"
        },
        {
          "name": "_device_name",
          "type": "string"
        }
      ],
      "name": "addDevice",
      "outputs": [
        {
          "name": "success",
          "type": "bool"
        }
      ],
      "payable": false,
      "stateMutability": "nonpayable",
      "type": "function"
    },
    {
      "constant": false,
      "inputs": [
        {
          "name": "_device_address",
          "type": "address"
        },
        {
          "name": "_device_serial_number",
          "type": "string"
        },
        {
          "name": "_action_id",
          "type": "uint256"
        }
      ],
      "name": "performAction",
      "outputs": [
        {
          "name": "success",
          "type": "bool"
        }
      ],
      "payable": true,
      "stateMutability": "payable",
      "type": "function"
    },
    {
      "constant": false,
      "inputs": [
        {
          "name": "_device_address",
          "type": "address"
        },
        {
          "name": "_device_serial_number",
          "type": "string"
        },
        {
          "name": "_action_name",
          "type": "string"
        },
        {
          "name": "_action_price",
          "type": "uint256"
        },
        {
          "name": "_action_duration",
          "type": "uint256"
        }
      ],
      "name": "addAction",
      "outputs": [
        {
          "name": "success",
          "type": "bool"
        }
      ],
      "payable": false,
      "stateMutability": "nonpayable",
      "type": "function"
    },
    {
      "constant": false,
      "inputs": [
        {
          "name": "_device_address",
          "type": "address"
        },
        {
          "name": "_device_serial_number",
          "type": "string"
        },
        {
          "name": "_action_id",
          "type": "uint256"
        }
      ],
      "name": "enableAction",
      "outputs": [
        {
          "name": "success",
          "type": "bool"
        }
      ],
      "payable": true,
      "stateMutability": "payable",
      "type": "function"
    },
    {
      "constant": false,
      "inputs": [
        {
          "name": "_device_address",
          "type": "address"
        },
        {
          "name": "_device_serial_number",
          "type": "string"
        },
        {
          "name": "_action_id",
          "type": "uint256"
        }
      ],
      "name": "disableAction",
      "outputs": [
        {
          "name": "success",
          "type": "bool"
        }
      ],
      "payable": false,
      "stateMutability": "nonpayable",
      "type": "function"
    },
    {
      "constant": true,
      "inputs": [],
      "name": "getTotalDevices",
      "outputs": [
        {
          "name": "",
          "type": "uint256"
        }
      ],
      "payable": false,
      "stateMutability": "view",
      "type": "function"
    },
    {
      "constant": true,
      "inputs": [
        {
          "name": "_address",
          "type": "address"
        }
      ],
      "name": "getExchangeLeftOf",
      "outputs": [
        {
          "name": "",
          "type": "uint256"
        }
      ],
      "payable": false,
      "stateMutability": "view",
      "type": "function"
    },
    {
      "constant": true,
      "inputs": [
        {
          "name": "_device_address",
          "type": "address"
        },
        {
          "name": "_device_serial_number",
          "type": "string"
        }
      ],
      "name": "getDevice",
      "outputs": [
        {
          "name": "",
          "type": "string"
        },
        {
          "name": "",
          "type": "uint256"
        },
        {
          "name": "",
          "type": "address"
        },
        {
          "name": "",
          "type": "bool"
        }
      ],
      "payable": false,
      "stateMutability": "view",
      "type": "function"
    },
    {
      "constant": true,
      "inputs": [
        {
          "name": "_device_address",
          "type": "address"
        },
        {
          "name": "_device_serial_number",
          "type": "string"
        },
        {
          "name": "_index",
          "type": "uint256"
        }
      ],
      "name": "getDeviceActionOf",
      "outputs": [
        {
          "name": "",
          "type": "uint256"
        },
        {
          "name": "",
          "type": "string"
        },
        {
          "name": "",
          "type": "uint256"
        },
        {
          "name": "",
          "type": "uint256"
        },
        {
          "name": "",
          "type": "bool"
        }
      ],
      "payable": false,
      "stateMutability": "view",
      "type": "function"
    },
    {
      "constant": true,
      "inputs": [
        {
          "name": "_device_address",
          "type": "address"
        },
        {
          "name": "_device_serial_number",
          "type": "string"
        },
        {
          "name": "_index",
          "type": "uint256"
        }
      ],
      "name": "getDeviceActionHistoryOf",
      "outputs": [
        {
          "name": "",
          "type": "uint256"
        },
        {
          "name": "",
          "type": "string"
        },
        {
          "name": "",
          "type": "uint256"
        },
        {
          "name": "",
          "type": "uint256"
        },
        {
          "name": "",
          "type": "address"
        },
        {
          "name": "",
          "type": "uint256"
        }
      ],
      "payable": false,
      "stateMutability": "view",
      "type": "function"
    },
    {
      "constant": true,
      "inputs": [
        {
          "name": "_device_address",
          "type": "address"
        },
        {
          "name": "_device_serial_number",
          "type": "string"
        }
      ],
      "name": "getActionLengthOf",
      "outputs": [
        {
          "name": "",
          "type": "uint256"
        }
      ],
      "payable": false,
      "stateMutability": "view",
      "type": "function"
    },
    {
      "constant": true,
      "inputs": [
        {
          "name": "_device_address",
          "type": "address"
        },
        {
          "name": "_device_serial_number",
          "type": "string"
        }
      ],
      "name": "getHistoryLengthOf",
      "outputs": [
        {
          "name": "",
          "type": "uint256"
        }
      ],
      "payable": false,
      "stateMutability": "view",
      "type": "function"
    },
    {
      "constant": true,
      "inputs": [],
      "name": "getAddresses",
      "outputs": [
        {
          "name": "",
          "type": "address[]"
        }
      ],
      "payable": false,
      "stateMutability": "view",
      "type": "function"
    }
  ],
  "bytecode": "0x60806040526000600655600060075560006008556012600c60006101000a81548160ff021916908360ff1602179055503480156200003c57600080fd5b506040516200737238038062007372833981018060405281019080805190602001909291908051820192919060200180518201929190505050336000806101000a81548173ffffffffffffffffffffffffffffffffffffffff021916908373ffffffffffffffffffffffffffffffffffffffff160217905550600c60009054906101000a900460ff1660ff16600a0a8302600d81905550600c60009054906101000a900460ff1660ff16600a0a8302600e8190555033600f60006101000a81548173ffffffffffffffffffffffffffffffffffffffff021916908373ffffffffffffffffffffffffffffffffffffffff16021790555060056001600d54028115156200014457fe5b0460116000600f60009054906101000a900473ffffffffffffffffffffffffffffffffffffffff1673ffffffffffffffffffffffffffffffffffffffff1673ffffffffffffffffffffffffffffffffffffffff1681526020019081526020016000208190555081600a9080519060200190620001c2929190620001e5565b5080600b9080519060200190620001db929190620001e5565b5050505062000294565b828054600181600116156101000203166002900490600052602060002090601f016020900481019282601f106200022857805160ff191683800117855562000259565b8280016001018555821562000259579182015b82811115620002585782518255916020019190600101906200023b565b5b5090506200026891906200026c565b5090565b6200029191905b808211156200028d57600081600090555060010162000273565b5090565b90565b6170ce80620002a46000396000f30060806040526004361061025c576000357c0100000000000000000000000000000000000000000000000000000000900463ffffffff168063013abe8f1461039657806306fdde03146103cf578063089235451461045f578063095ea7b3146104e25780630a62bf67146105475780630bb4b6aa146106425780630ec0bfb7146106a457806318160ddd14610742578063207ee0b21461076d57806323b872dd1461080a57806327dc297e1461088f5780632e1a7d4d146109065780632f5da3471461094b578063313ce567146109f157806338bbfa5014610a22578063397b66cb14610adf5780633b06009214610ae957806342966c6814610b40578063470a9f8414610b855780634f3e1efc14610bb05780634f58333a14610bdb5780635002842414610d365780636354089614610e4b57806365159bdc14610e555780636f5097d914610f3c5780636f9fb98a14610f4657806370a0823114610f7157806379cc679014610fc85780638832bc291461102d5780638da5cb5b146110585780639003f520146110af57806395d89b41146111f657806397d63f93146112865780639bddd05f146112b1578063a39fac12146112dc578063a9059cbb14611348578063ac98f9f6146113ad578063b414d4b61461144a578063bdc7b83f146114a5578063c092ebe914611550578063c10d416d1461167c578063cae9ca51146116e9578063d196508014611794578063dc61d161146117ab578063dd62ed3e146117d6578063e724529c1461184d578063edce3c501461189c578063eded7ad0146118c7578063f2fde38b14611965578063f8b2cb4f146119a8575b60006002600654340202905080601160003373ffffffffffffffffffffffffffffffffffffffff1673ffffffffffffffffffffffffffffffffffffffff168152602001908152602001600020600082825401925050819055506102bf33826119ff565b5080601760003373ffffffffffffffffffffffffffffffffffffffff1673ffffffffffffffffffffffffffffffffffffffff1681526020019081526020016000206000016000828254019250508190555061031f33823460065442611a16565b507fe9398dec28f4a24325d0afa01cf83bb5ccb4c39f76638c99950181f8c6d71cf6333483604051808473ffffffffffffffffffffffffffffffffffffffff1673ffffffffffffffffffffffffffffffffffffffff168152602001838152602001828152602001935050505060405180910390a150005b3480156103a257600080fd5b506103ab611bdc565b604051808260028111156103bb57fe5b60ff16815260200191505060405180910390f35b3480156103db57600080fd5b506103e4611bef565b6040518080602001828103825283818151815260200191508051906020019080838360005b83811015610424578082015181840152602081019050610409565b50505050905090810190601f1680156104515780820380516001836020036101000a031916815260200191505b509250505060405180910390f35b34801561046b57600080fd5b506104c8600480360381019080803573ffffffffffffffffffffffffffffffffffffffff16906020019092919080359060200190929190803590602001909291908035906020019092919080359060200190929190505050611a16565b604051808215151515815260200191505060405180910390f35b3480156104ee57600080fd5b5061052d600480360381019080803573ffffffffffffffffffffffffffffffffffffffff16906020019092919080359060200190929190505050611c8d565b604051808215151515815260200191505060405180910390f35b34801561055357600080fd5b50610628600480360381019080803573ffffffffffffffffffffffffffffffffffffffff169060200190929190803590602001908201803590602001908080601f0160208091040260200160405190810160405280939291908181526020018383808284378201915050505050509192919290803590602001908201803590602001908080601f01602080910402602001604051908101604052809392919081815260200183838082843782019150505050505091929192908035906020019092919080359060200190929190505050611d1a565b604051808215151515815260200191505060405180910390f35b34801561064e57600080fd5b50610683600480360381019080803573ffffffffffffffffffffffffffffffffffffffff1690602001909291905050506121c6565b60405180838152602001821515151581526020019250505060405180910390f35b610728600480360381019080803573ffffffffffffffffffffffffffffffffffffffff169060200190929190803590602001908201803590602001908080601f0160208091040260200160405190810160405280939291908181526020018383808284378201915050505050509192919290803590602001909291905050506121f7565b604051808215151515815260200191505060405180910390f35b34801561074e57600080fd5b50610757612e8c565b6040518082815260200191505060405180910390f35b34801561077957600080fd5b506107f4600480360381019080803573ffffffffffffffffffffffffffffffffffffffff169060200190929190803590602001908201803590602001908080601f0160208091040260200160405190810160405280939291908181526020018383808284378201915050505050509192919290505050612e92565b6040518082815260200191505060405180910390f35b34801561081657600080fd5b50610875600480360381019080803573ffffffffffffffffffffffffffffffffffffffff169060200190929190803573ffffffffffffffffffffffffffffffffffffffff16906020019092919080359060200190929190505050612f4b565b604051808215151515815260200191505060405180910390f35b34801561089b57600080fd5b506109046004803603810190808035600019169060200190929190803590602001908201803590602001908080601f0160208091040260200160405190810160405280939291908181526020018383808284378201915050505050509192919290505050613078565b005b34801561091257600080fd5b506109316004803603810190808035906020019092919050505061319b565b604051808215151515815260200191505060405180910390f35b34801561095757600080fd5b5061097660048036038101908080359060200190929190505050613445565b6040518080602001828103825283818151815260200191508051906020019080838360005b838110156109b657808201518184015260208101905061099b565b50505050905090810190601f1680156109e35780820380516001836020036101000a031916815260200191505b509250505060405180910390f35b3480156109fd57600080fd5b50610a06613500565b604051808260ff1660ff16815260200191505060405180910390f35b348015610a2e57600080fd5b50610add6004803603810190808035600019169060200190929190803590602001908201803590602001908080601f0160208091040260200160405190810160405280939291908181526020018383808284378201915050505050509192919290803590602001908201803590602001908080601f0160208091040260200160405190810160405280939291908181526020018383808284378201915050505050509192919290505050613513565b005b610ae7613518565b005b348015610af557600080fd5b50610b2a600480360381019080803573ffffffffffffffffffffffffffffffffffffffff1690602001909291905050506137d6565b6040518082815260200191505060405180910390f35b348015610b4c57600080fd5b50610b6b60048036038101908080359060200190929190505050613822565b604051808215151515815260200191505060405180910390f35b348015610b9157600080fd5b50610b9a613926565b6040518082815260200191505060405180910390f35b348015610bbc57600080fd5b50610bc561392c565b6040518082815260200191505060405180910390f35b348015610be757600080fd5b50610c6c600480360381019080803573ffffffffffffffffffffffffffffffffffffffff169060200190929190803590602001908201803590602001908080601f016020809104026020016040519081016040528093929190818152602001838380828437820191505050505050919291929080359060200190929190505050613936565b60405180878152602001806020018681526020018581526020018473ffffffffffffffffffffffffffffffffffffffff1673ffffffffffffffffffffffffffffffffffffffff168152602001838152602001828103825287818151815260200191508051906020019080838360005b83811015610cf6578082015181840152602081019050610cdb565b50505050905090810190601f168015610d235780820380516001836020036101000a031916815260200191505b5097505050505050505060405180910390f35b348015610d4257600080fd5b50610d81600480360381019080803573ffffffffffffffffffffffffffffffffffffffff16906020019092919080359060200190929190505050613afc565b60405180878152602001806020018681526020018581526020018473ffffffffffffffffffffffffffffffffffffffff1673ffffffffffffffffffffffffffffffffffffffff168152602001838152602001828103825287818151815260200191508051906020019080838360005b83811015610e0b578082015181840152602081019050610df0565b50505050905090810190601f168015610e385780820380516001836020036101000a031916815260200191505b5097505050505050505060405180910390f35b610e53613c0c565b005b348015610e6157600080fd5b50610f22600480360381019080803573ffffffffffffffffffffffffffffffffffffffff169060200190929190803590602001908201803590602001908080601f0160208091040260200160405190810160405280939291908181526020018383808284378201915050505050509192919290803590602001908201803590602001908080601f0160208091040260200160405190810160405280939291908181526020018383808284378201915050505050509192919290505050613c52565b604051808215151515815260200191505060405180910390f35b610f446140a8565b005b348015610f5257600080fd5b50610f5b614366565b6040518082815260200191505060405180910390f35b348015610f7d57600080fd5b50610fb2600480360381019080803573ffffffffffffffffffffffffffffffffffffffff169060200190929190505050614385565b6040518082815260200191505060405180910390f35b348015610fd457600080fd5b50611013600480360381019080803573ffffffffffffffffffffffffffffffffffffffff1690602001909291908035906020019092919050505061439d565b604051808215151515815260200191505060405180910390f35b34801561103957600080fd5b506110426145b7565b6040518082815260200191505060405180910390f35b34801561106457600080fd5b5061106d6145bd565b604051808273ffffffffffffffffffffffffffffffffffffffff1673ffffffffffffffffffffffffffffffffffffffff16815260200191505060405180910390f35b3480156110bb57600080fd5b50611136600480360381019080803573ffffffffffffffffffffffffffffffffffffffff169060200190929190803590602001908201803590602001908080601f01602080910402602001604051908101604052809392919081815260200183838082843782019150505050505091929192905050506145e2565b60405180806020018581526020018473ffffffffffffffffffffffffffffffffffffffff1673ffffffffffffffffffffffffffffffffffffffff16815260200183151515158152602001828103825286818151815260200191508051906020019080838360005b838110156111b857808201518184015260208101905061119d565b50505050905090810190601f1680156111e55780820380516001836020036101000a031916815260200191505b509550505050505060405180910390f35b34801561120257600080fd5b5061120b614782565b6040518080602001828103825283818151815260200191508051906020019080838360005b8381101561124b578082015181840152602081019050611230565b50505050905090810190601f1680156112785780820380516001836020036101000a031916815260200191505b509250505060405180910390f35b34801561129257600080fd5b5061129b614820565b6040518082815260200191505060405180910390f35b3480156112bd57600080fd5b506112c6614826565b6040518082815260200191505060405180910390f35b3480156112e857600080fd5b506112f1614830565b6040518080602001828103825283818151815260200191508051906020019060200280838360005b83811015611334578082015181840152602081019050611319565b505050509050019250505060405180910390f35b34801561135457600080fd5b50611393600480360381019080803573ffffffffffffffffffffffffffffffffffffffff169060200190929190803590602001909291905050506119ff565b604051808215151515815260200191505060405180910390f35b3480156113b957600080fd5b50611434600480360381019080803573ffffffffffffffffffffffffffffffffffffffff169060200190929190803590602001908201803590602001908080601f01602080910402602001604051908101604052809392919081815260200183838082843782019150505050505091929192905050506148be565b6040518082815260200191505060405180910390f35b34801561145657600080fd5b5061148b600480360381019080803573ffffffffffffffffffffffffffffffffffffffff169060200190929190505050614977565b604051808215151515815260200191505060405180910390f35b3480156114b157600080fd5b50611536600480360381019080803573ffffffffffffffffffffffffffffffffffffffff169060200190929190803590602001908201803590602001908080601f016020809104026020016040519081016040528093929190818152602001838380828437820191505050505050919291929080359060200190929190505050614997565b604051808215151515815260200191505060405180910390f35b34801561155c57600080fd5b506115e1600480360381019080803573ffffffffffffffffffffffffffffffffffffffff169060200190929190803590602001908201803590602001908080601f0160208091040260200160405190810160405280939291908181526020018383808284378201915050505050509192919290803590602001909291905050506150d0565b604051808681526020018060200185815260200184815260200183151515158152602001828103825286818151815260200191508051906020019080838360005b8381101561163d578082015181840152602081019050611622565b50505050905090810190601f16801561166a5780820380516001836020036101000a031916815260200191505b50965050505050505060405180910390f35b34801561168857600080fd5b506116a760048036038101908080359060200190929190505050615279565b604051808273ffffffffffffffffffffffffffffffffffffffff1673ffffffffffffffffffffffffffffffffffffffff16815260200191505060405180910390f35b3480156116f557600080fd5b5061177a600480360381019080803573ffffffffffffffffffffffffffffffffffffffff16906020019092919080359060200190929190803590602001908201803590602001908080601f01602080910402602001604051908101604052809392919081815260200183838082843782019150505050505091929192905050506152b7565b604051808215151515815260200191505060405180910390f35b3480156117a057600080fd5b506117a961543a565b005b3480156117b757600080fd5b506117c06154b5565b6040518082815260200191505060405180910390f35b3480156117e257600080fd5b50611837600480360381019080803573ffffffffffffffffffffffffffffffffffffffff169060200190929190803573ffffffffffffffffffffffffffffffffffffffff1690602001909291905050506154c2565b6040518082815260200191505060405180910390f35b34801561185957600080fd5b5061189a600480360381019080803573ffffffffffffffffffffffffffffffffffffffff1690602001909291908035151590602001909291905050506154e7565b005b3480156118a857600080fd5b506118b161560c565b6040518082815260200191505060405180910390f35b61194b600480360381019080803573ffffffffffffffffffffffffffffffffffffffff169060200190929190803590602001908201803590602001908080601f016020809104026020016040519081016040528093929190818152602001838380828437820191505050505050919291929080359060200190929190505050615612565b604051808215151515815260200191505060405180910390f35b34801561197157600080fd5b506119a6600480360381019080803573ffffffffffffffffffffffffffffffffffffffff16906020019092919050505061561f565b005b3480156119b457600080fd5b506119e9600480360381019080803573ffffffffffffffffffffffffffffffffffffffff1690602001909291905050506156bd565b6040518082815260200191505060405180910390f35b6000611a0c338484615706565b6001905092915050565b6000601760003373ffffffffffffffffffffffffffffffffffffffff1673ffffffffffffffffffffffffffffffffffffffff16815260200190815260200160002060010160c060405190810160405280878152602001600081526020018681526020018581526020018481526020016001151581525090806001815401808255809150509060018203906000526020600020906006020160009091929091909150600082015181600001556020820151816001015560408201518160020155606082015181600301556080820151816004015560a08201518160050160006101000a81548160ff02191690831515021790555050505060001515601760008873ffffffffffffffffffffffffffffffffffffffff1673ffffffffffffffffffffffffffffffffffffffff16815260200190815260200160002060020160009054906101000a900460ff1615151415611bcf5760138690806001815401808255809150509060018203906000526020600020016000909192909190916101000a81548173ffffffffffffffffffffffffffffffffffffffff021916908373ffffffffffffffffffffffffffffffffffffffff160217905550505b6001905095945050505050565b600960009054906101000a900460ff1681565b600a8054600181600116156101000203166002900480601f016020809104026020016040519081016040528092919081815260200182805460018160011615610100020316600290048015611c855780601f10611c5a57610100808354040283529160200191611c85565b820191906000526020600020905b815481529060010190602001808311611c6857829003601f168201915b505050505081565b600081601260003373ffffffffffffffffffffffffffffffffffffffff1673ffffffffffffffffffffffffffffffffffffffff16815260200190815260200160002060008573ffffffffffffffffffffffffffffffffffffffff1673ffffffffffffffffffffffffffffffffffffffff168152602001908152602001600020819055506001905092915050565b60008060001515601560008973ffffffffffffffffffffffffffffffffffffffff1673ffffffffffffffffffffffffffffffffffffffff168152602001908152602001600020876040518082805190602001908083835b602083101515611d965780518252602082019150602081019050602083039250611d71565b6001836020036101000a038019825116818451168082178552505050505050905001915050908152602001604051809103902060050160009054906101000a900460ff1615151415611e79577ff24fdb01b39b282f0a73d8e2396bfc3b56e46971230b5e86c6a4b8b19892ef666040518080602001828103825260268152602001807f4465766963652073657269616c206e756d626572206973206e6f74206176616981526020017f6c61626c652e000000000000000000000000000000000000000000000000000081525060400191505060405180910390a1600091506121bc565b601560008873ffffffffffffffffffffffffffffffffffffffff1673ffffffffffffffffffffffffffffffffffffffff168152602001908152602001600020866040518082805190602001908083835b602083101515611eee5780518252602082019150602081019050602083039250611ec9565b6001836020036101000a0380198251168184511680821785525050505050509050019150509081526020016040518091039020600301805490509050601560008873ffffffffffffffffffffffffffffffffffffffff1673ffffffffffffffffffffffffffffffffffffffff168152602001908152602001600020866040518082805190602001908083835b602083101515611f9f5780518252602082019150602081019050602083039250611f7a565b6001836020036101000a038019825116818451168082178552505050505050905001915050908152602001604051809103902060030160a0604051908101604052808381526020018781526020018681526020018581526020016001151581525090806001815401808255809150509060018203906000526020600020906005020160009091929091909150600082015181600001556020820151816001019080519060200190612051929190616e6f565b50604082015181600201556060820151816003015560808201518160040160006101000a81548160ff0219169083151502179055505050507f26627a764f955b62fb708fed19fc43286b51fa31657f21e5ed5380d8615166ae8682878787600160405180806020018781526020018060200186815260200185815260200184151515158152602001838103835289818151815260200191508051906020019080838360005b838110156121115780820151818401526020810190506120f6565b50505050905090810190601f16801561213e5780820380516001836020036101000a031916815260200191505b50838103825287818151815260200191508051906020019080838360005b8381101561217757808201518184015260208101905061215c565b50505050905090810190601f1680156121a45780820380516001836020036101000a031916815260200191505b509850505050505050505060405180910390a1600191505b5095945050505050565b60176020528060005260406000206000915090508060000154908060020160009054906101000a900460ff16905082565b60008060001515601560008773ffffffffffffffffffffffffffffffffffffffff1673ffffffffffffffffffffffffffffffffffffffff168152602001908152602001600020856040518082805190602001908083835b602083101515612273578051825260208201915060208101905060208303925061224e565b6001836020036101000a038019825116818451168082178552505050505050905001915050908152602001604051809103902060050160009054906101000a900460ff1615151415612356577ff24fdb01b39b282f0a73d8e2396bfc3b56e46971230b5e86c6a4b8b19892ef666040518080602001828103825260268152602001807f4465766963652073657269616c206e756d626572206973206e6f74206176616981526020017f6c61626c652e000000000000000000000000000000000000000000000000000081525060400191505060405180910390a160009150612e84565b60001515601560008773ffffffffffffffffffffffffffffffffffffffff1673ffffffffffffffffffffffffffffffffffffffff168152602001908152602001600020856040518082805190602001908083835b6020831015156123cf57805182526020820191506020810190506020830392506123aa565b6001836020036101000a03801982511681845116808217855250505050505090500191505090815260200160405180910390206003018481548110151561241257fe5b906000526020600020906005020160040160009054906101000a900460ff16151514156124d0577ff24fdb01b39b282f0a73d8e2396bfc3b56e46971230b5e86c6a4b8b19892ef666040518080602001828103825260228152602001807f44657669636520616374696f6e206964206973206e6f7420617661696c61626c81526020017f652e00000000000000000000000000000000000000000000000000000000000081525060400191505060405180910390a160009150612e84565b601560008673ffffffffffffffffffffffffffffffffffffffff1673ffffffffffffffffffffffffffffffffffffffff168152602001908152602001600020846040518082805190602001908083835b6020831015156125455780518252602082019150602081019050602083039250612520565b6001836020036101000a03801982511681845116808217855250505050505090500191505090815260200160405180910390206003018381548110151561258857fe5b906000526020600020906005020160020154601160003373ffffffffffffffffffffffffffffffffffffffff1673ffffffffffffffffffffffffffffffffffffffff168152602001908152602001600020541015612677577ff24fdb01b39b282f0a73d8e2396bfc3b56e46971230b5e86c6a4b8b19892ef666040518080602001828103825260338152602001807f5573657220646f65736e2774206861766520656e6f7567682062616c616e636581526020017f20746f20706572666f726d20616374696f6e2e0000000000000000000000000081525060400191505060405180910390a160009150612e84565b601560008673ffffffffffffffffffffffffffffffffffffffff1673ffffffffffffffffffffffffffffffffffffffff168152602001908152602001600020846040518082805190602001908083835b6020831015156126ec57805182526020820191506020810190506020830392506126c7565b6001836020036101000a03801982511681845116808217855250505050505090500191505090815260200160405180910390206003018381548110151561272f57fe5b906000526020600020906005020160020154601160003373ffffffffffffffffffffffffffffffffffffffff1673ffffffffffffffffffffffffffffffffffffffff16815260200190815260200160002060008282540392505081905550828160000181905550601560008673ffffffffffffffffffffffffffffffffffffffff1673ffffffffffffffffffffffffffffffffffffffff168152602001908152602001600020846040518082805190602001908083835b60208310151561280b57805182526020820191506020810190506020830392506127e6565b6001836020036101000a03801982511681845116808217855250505050505090500191505090815260200160405180910390206003018381548110151561284e57fe5b9060005260206000209060050201600101816001019080546001816001161561010002031660029004612882929190616eef565b50601560008673ffffffffffffffffffffffffffffffffffffffff1673ffffffffffffffffffffffffffffffffffffffff168152602001908152602001600020846040518082805190602001908083835b6020831015156128f857805182526020820191506020810190506020830392506128d3565b6001836020036101000a03801982511681845116808217855250505050505090500191505090815260200160405180910390206003018381548110151561293b57fe5b9060005260206000209060050201600201548160020181905550601560008673ffffffffffffffffffffffffffffffffffffffff1673ffffffffffffffffffffffffffffffffffffffff168152602001908152602001600020846040518082805190602001908083835b6020831015156129ca57805182526020820191506020810190506020830392506129a5565b6001836020036101000a038019825116818451168082178552505050505050905001915050908152602001604051809103902060030183815481101515612a0d57fe5b9060005260206000209060050201600301548160030181905550338160040160006101000a81548173ffffffffffffffffffffffffffffffffffffffff021916908373ffffffffffffffffffffffffffffffffffffffff160217905550428160050181905550601560008673ffffffffffffffffffffffffffffffffffffffff1673ffffffffffffffffffffffffffffffffffffffff168152602001908152602001600020846040518082805190602001908083835b602083101515612ae85780518252602082019150602081019050602083039250612ac3565b6001836020036101000a038019825116818451168082178552505050505050905001915050908152602001604051809103902060040181908060018154018082558091505090600182039060005260206000209060060201600090919290919091506000820154816000015560018201816001019080546001816001161561010002031660029004612b7b929190616f76565b5060028201548160020155600382015481600301556004820160009054906101000a900473ffffffffffffffffffffffffffffffffffffffff168160040160006101000a81548173ffffffffffffffffffffffffffffffffffffffff021916908373ffffffffffffffffffffffffffffffffffffffff16021790555060058201548160050155505050601660003373ffffffffffffffffffffffffffffffffffffffff1673ffffffffffffffffffffffffffffffffffffffff16815260200190815260200160002081908060018154018082558091505090600182039060005260206000209060060201600090919290919091506000820154816000015560018201816001019080546001816001161561010002031660029004612ca0929190616f76565b5060028201548160020155600382015481600301556004820160009054906101000a900473ffffffffffffffffffffffffffffffffffffffff168160040160006101000a81548173ffffffffffffffffffffffffffffffffffffffff021916908373ffffffffffffffffffffffffffffffffffffffff160217905550600582015481600501555050507f875b40a67d33b0171b10d7197a7c57cc4a8a03020e69c119753e83c07790640784848360010184600201548560030154600160405180806020018781526020018060200186815260200185815260200184151515158152602001838103835289818151815260200191508051906020019080838360005b83811015612dbc578082015181840152602081019050612da1565b50505050905090810190601f168015612de95780820380516001836020036101000a031916815260200191505b50838103825287818154600181600116156101000203166002900481526020019150805460018160011615610100020316600290048015612e6b5780601f10612e4057610100808354040283529160200191612e6b565b820191906000526020600020905b815481529060010190602001808311612e4e57829003601f168201915b50509850505050505050505060405180910390a1600191505b509392505050565b600d5481565b6000601560008473ffffffffffffffffffffffffffffffffffffffff1673ffffffffffffffffffffffffffffffffffffffff168152602001908152602001600020826040518082805190602001908083835b602083101515612f095780518252602082019150602081019050602083039250612ee4565b6001836020036101000a038019825116818451168082178552505050505050905001915050908152602001604051809103902060030180549050905092915050565b6000601260008573ffffffffffffffffffffffffffffffffffffffff1673ffffffffffffffffffffffffffffffffffffffff16815260200190815260200160002060003373ffffffffffffffffffffffffffffffffffffffff1673ffffffffffffffffffffffffffffffffffffffff168152602001908152602001600020548211151515612fd857600080fd5b81601260008673ffffffffffffffffffffffffffffffffffffffff1673ffffffffffffffffffffffffffffffffffffffff16815260200190815260200160002060003373ffffffffffffffffffffffffffffffffffffffff1673ffffffffffffffffffffffffffffffffffffffff1681526020019081526020016000206000828254039250508190555061306d848484615706565b600190509392505050565b6130806159bf565b73ffffffffffffffffffffffffffffffffffffffff163373ffffffffffffffffffffffffffffffffffffffff161415156130b957600080fd5b6130c281615d21565b6006819055507f2ffd6537ffc6acf68a41f8abf5293e063e68188170dce30432363ad211d942bf81426040518080602001838152602001828103825284818151815260200191508051906020019080838360005b83811015613131578082015181840152602081019050613116565b50505050905090810190601f16801561315e5780820380516001836020036101000a031916815260200191505b50935050505060405180910390a1426008819055506002600960006101000a81548160ff0219169083600281111561319257fe5b02179055505050565b600080601760003373ffffffffffffffffffffffffffffffffffffffff1673ffffffffffffffffffffffffffffffffffffffff1681526020019081526020016000206000015410158015613231575081601760003373ffffffffffffffffffffffffffffffffffffffff1673ffffffffffffffffffffffffffffffffffffffff1681526020019081526020016000206000015410155b801561327c575081601160003373ffffffffffffffffffffffffffffffffffffffff1673ffffffffffffffffffffffffffffffffffffffff1681526020019081526020016000205410155b1561343b573373ffffffffffffffffffffffffffffffffffffffff166108fc670de0b6b3a76400006006546002868115156132b357fe5b048115156132bd57fe5b04029081150290604051600060405180830381858888f193505050501580156132ea573d6000803e3d6000fd5b50670de0b6b3a76400008202601160003373ffffffffffffffffffffffffffffffffffffffff1673ffffffffffffffffffffffffffffffffffffffff16815260200190815260200160002060008282540392505081905550670de0b6b3a76400008202601760003373ffffffffffffffffffffffffffffffffffffffff1673ffffffffffffffffffffffffffffffffffffffff168152602001908152602001600020600001600082825403925050819055507f5df5e70917798c2d346fb12f5222b6eac4076621fbea6c5a6b538105fc96e88e3383670de0b6b3a76400006006546002878115156133d757fe5b048115156133e157fe5b0402604051808473ffffffffffffffffffffffffffffffffffffffff1673ffffffffffffffffffffffffffffffffffffffff168152602001838152602001828152602001935050505060405180910390a160019050613440565b600090505b919050565b60148181548110151561345457fe5b906000526020600020016000915090508054600181600116156101000203166002900480601f0160208091040260200160405190810160405280929190818152602001828054600181600116156101000203166002900480156134f85780601f106134cd576101008083540402835291602001916134f8565b820191906000526020600020905b8154815290600101906020018083116134db57829003601f168201915b505050505081565b600c60009054906101000a900460ff1681565b505050565b3073ffffffffffffffffffffffffffffffffffffffff163161356e6040805190810160405280600381526020017f55524c0000000000000000000000000000000000000000000000000000000000815250615d35565b1115613635577f2ffd6537ffc6acf68a41f8abf5293e063e68188170dce30432363ad211d942bf4260405180806020018381526020018281038252604b8152602001807f4f7261636c697a6520717565727920776173204e4f542073656e742c20706c6581526020017f6173652061646420736f6d652045544820746f20636f76657220666f7220746881526020017f65207175657279206665650000000000000000000000000000000000000000008152506060019250505060405180910390a16137d4565b7f2ffd6537ffc6acf68a41f8abf5293e063e68188170dce30432363ad211d942bf426040518080602001838152602001828103825260358152602001807f4f7261636c697a65207175657279207761732073656e742c207374616e64696e81526020017f6720627920666f722074686520616e737765722e2e00000000000000000000008152506040019250505060405180910390a16137096040805190810160405280600381526020017f55524c0000000000000000000000000000000000000000000000000000000000815250615d35565b6007819055506137d260006040805190810160405280600381526020017f55524c0000000000000000000000000000000000000000000000000000000000815250608060405190810160405280604981526020017f6a736f6e2868747470733a2f2f6d696e2d6170692e63727970746f636f6d706181526020017f72652e636f6d2f646174612f70726963653f6673796d3d455448267473796d7381526020017f3d555344292e5553440000000000000000000000000000000000000000000000815250616109565b505b565b6000601760008373ffffffffffffffffffffffffffffffffffffffff1673ffffffffffffffffffffffffffffffffffffffff168152602001908152602001600020600001549050919050565b600081601160003373ffffffffffffffffffffffffffffffffffffffff1673ffffffffffffffffffffffffffffffffffffffff168152602001908152602001600020541015151561387257600080fd5b81601160003373ffffffffffffffffffffffffffffffffffffffff1673ffffffffffffffffffffffffffffffffffffffff1681526020019081526020016000206000828254039250508190555081600d600082825403925050819055503373ffffffffffffffffffffffffffffffffffffffff167fcc16f5dbb4873280815c1ee09dbd06736cffcc184412cf7a71a0fdb75d397ca5836040518082815260200191505060405180910390a260019050919050565b60085481565b6000600e54905090565b600060606000806000806000601560008b73ffffffffffffffffffffffffffffffffffffffff1673ffffffffffffffffffffffffffffffffffffffff168152602001908152602001600020896040518082805190602001908083835b6020831015156139b75780518252602082019150602081019050602083039250613992565b6001836020036101000a0380198251168184511680821785525050505050509050019150509081526020016040518091039020600401888154811015156139fa57fe5b90600052602060002090600602019050806000015481600101826002015483600301548460040160009054906101000a900473ffffffffffffffffffffffffffffffffffffffff168560050154848054600181600116156101000203166002900480601f016020809104026020016040519081016040528092919081815260200182805460018160011615610100020316600290048015613adc5780601f10613ab157610100808354040283529160200191613adc565b820191906000526020600020905b815481529060010190602001808311613abf57829003601f168201915b505050505094509650965096509650965096505093975093979195509350565b601660205281600052604060002081815481101515613b1757fe5b906000526020600020906006020160009150915050806000015490806001018054600181600116156101000203166002900480601f016020809104026020016040519081016040528092919081815260200182805460018160011615610100020316600290048015613bca5780601f10613b9f57610100808354040283529160200191613bca565b820191906000526020600020905b815481529060010190602001808311613bad57829003601f168201915b5050505050908060020154908060030154908060040160009054906101000a900473ffffffffffffffffffffffffffffffffffffffff16908060050154905086565b613c4a6040805190810160405280600381526020017f55524c0000000000000000000000000000000000000000000000000000000000815250615d35565b600781905550565b60008060001515601560008773ffffffffffffffffffffffffffffffffffffffff1673ffffffffffffffffffffffffffffffffffffffff168152602001908152602001600020856040518082805190602001908083835b602083101515613cce5780518252602082019150602081019050602083039250613ca9565b6001836020036101000a038019825116818451168082178552505050505050905001915050908152602001604051809103902060050160009054906101000a900460ff161515141561400d57601560008673ffffffffffffffffffffffffffffffffffffffff1673ffffffffffffffffffffffffffffffffffffffff168152602001908152602001600020846040518082805190602001908083835b602083101515613d8f5780518252602082019150602081019050602083039250613d6a565b6001836020036101000a0380198251168184511680821785525050505050509050019150509081526020016040518091039020905082816000019080519060200190613ddc929190616ffd565b5060008160010181905550338160020160006101000a81548173ffffffffffffffffffffffffffffffffffffffff021916908373ffffffffffffffffffffffffffffffffffffffff16021790555060018160050160006101000a81548160ff0219169083151502179055506014849080600181540180825580915050906001820390600052602060002001600090919290919091509080519060200190613e84929190616ffd565b50507f2606b7477175a2d97210a32efdb543396d1e871b281764d9ca93dda673ac21be338686866001604051808673ffffffffffffffffffffffffffffffffffffffff1673ffffffffffffffffffffffffffffffffffffffff1681526020018573ffffffffffffffffffffffffffffffffffffffff1673ffffffffffffffffffffffffffffffffffffffff168152602001806020018060200184151515158152602001838103835286818151815260200191508051906020019080838360005b83811015613f5f578082015181840152602081019050613f44565b50505050905090810190601f168015613f8c5780820380516001836020036101000a031916815260200191505b50838103825285818151815260200191508051906020019080838360005b83811015613fc5578082015181840152602081019050613faa565b50505050905090810190601f168015613ff25780820380516001836020036101000a031916815260200191505b5097505050505050505060405180910390a1600191506140a0565b7ff24fdb01b39b282f0a73d8e2396bfc3b56e46971230b5e86c6a4b8b19892ef6660405180806020018281038252603e8152602001807f4465766963652073657269616c206e756d62657220697320616c72656164792081526020017f617661696c61626c65206f6e207468652073616d6520616464726573732e000081525060400191505060405180910390a1600091505b509392505050565b3073ffffffffffffffffffffffffffffffffffffffff16316140fe6040805190810160405280600381526020017f55524c0000000000000000000000000000000000000000000000000000000000815250615d35565b11156141c5577f2ffd6537ffc6acf68a41f8abf5293e063e68188170dce30432363ad211d942bf4260405180806020018381526020018281038252604b8152602001807f4f7261636c697a6520717565727920776173204e4f542073656e742c20706c6581526020017f6173652061646420736f6d652045544820746f20636f76657220666f7220746881526020017f65207175657279206665650000000000000000000000000000000000000000008152506060019250505060405180910390a1614364565b7f2ffd6537ffc6acf68a41f8abf5293e063e68188170dce30432363ad211d942bf426040518080602001838152602001828103825260358152602001807f4f7261636c697a65207175657279207761732073656e742c207374616e64696e81526020017f6720627920666f722074686520616e737765722e2e00000000000000000000008152506040019250505060405180910390a16142996040805190810160405280600381526020017f55524c0000000000000000000000000000000000000000000000000000000000815250615d35565b600781905550614362600f6040805190810160405280600381526020017f55524c0000000000000000000000000000000000000000000000000000000000815250608060405190810160405280604981526020017f6a736f6e2868747470733a2f2f6d696e2d6170692e63727970746f636f6d706181526020017f72652e636f6d2f646174612f70726963653f6673796d3d455448267473796d7381526020017f3d555344292e5553440000000000000000000000000000000000000000000000815250616109565b505b565b60003073ffffffffffffffffffffffffffffffffffffffff1631905090565b60116020528060005260406000206000915090505481565b600081601160008573ffffffffffffffffffffffffffffffffffffffff1673ffffffffffffffffffffffffffffffffffffffff16815260200190815260200160002054101515156143ed57600080fd5b601260008473ffffffffffffffffffffffffffffffffffffffff1673ffffffffffffffffffffffffffffffffffffffff16815260200190815260200160002060003373ffffffffffffffffffffffffffffffffffffffff1673ffffffffffffffffffffffffffffffffffffffff16815260200190815260200160002054821115151561447857600080fd5b81601160008573ffffffffffffffffffffffffffffffffffffffff1673ffffffffffffffffffffffffffffffffffffffff1681526020019081526020016000206000828254039250508190555081601260008573ffffffffffffffffffffffffffffffffffffffff1673ffffffffffffffffffffffffffffffffffffffff16815260200190815260200160002060003373ffffffffffffffffffffffffffffffffffffffff1673ffffffffffffffffffffffffffffffffffffffff1681526020019081526020016000206000828254039250508190555081600d600082825403925050819055508273ffffffffffffffffffffffffffffffffffffffff167fcc16f5dbb4873280815c1ee09dbd06736cffcc184412cf7a71a0fdb75d397ca5836040518082815260200191505060405180910390a26001905092915050565b60065481565b6000809054906101000a900473ffffffffffffffffffffffffffffffffffffffff1681565b6060600080600080601560008873ffffffffffffffffffffffffffffffffffffffff1673ffffffffffffffffffffffffffffffffffffffff168152602001908152602001600020866040518082805190602001908083835b60208310151561465f578051825260208201915060208101905060208303925061463a565b6001836020036101000a038019825116818451168082178552505050505050905001915050908152602001604051809103902090508060000181600101548260020160009054906101000a900473ffffffffffffffffffffffffffffffffffffffff168360050160009054906101000a900460ff16838054600181600116156101000203166002900480601f0160208091040260200160405190810160405280929190818152602001828054600181600116156101000203166002900480156147695780601f1061473e57610100808354040283529160200191614769565b820191906000526020600020905b81548152906001019060200180831161474c57829003601f168201915b5050505050935094509450945094505092959194509250565b600b8054600181600116156101000203166002900480601f0160208091040260200160405190810160405280929190818152602001828054600181600116156101000203166002900480156148185780601f106147ed57610100808354040283529160200191614818565b820191906000526020600020905b8154815290600101906020018083116147fb57829003601f168201915b505050505081565b600e5481565b6000600654905090565b606060138054806020026020016040519081016040528092919081815260200182805480156148b457602002820191906000526020600020905b8160009054906101000a900473ffffffffffffffffffffffffffffffffffffffff1673ffffffffffffffffffffffffffffffffffffffff168152602001906001019080831161486a575b5050505050905090565b6000601560008473ffffffffffffffffffffffffffffffffffffffff1673ffffffffffffffffffffffffffffffffffffffff168152602001908152602001600020826040518082805190602001908083835b6020831015156149355780518252602082019150602081019050602083039250614910565b6001836020036101000a038019825116818451168082178552505050505050905001915050908152602001604051809103902060040180549050905092915050565b60106020528060005260406000206000915054906101000a900460ff1681565b60008060001515601560008773ffffffffffffffffffffffffffffffffffffffff1673ffffffffffffffffffffffffffffffffffffffff168152602001908152602001600020856040518082805190602001908083835b602083101515614a1357805182526020820191506020810190506020830392506149ee565b6001836020036101000a038019825116818451168082178552505050505050905001915050908152602001604051809103902060050160009054906101000a900460ff1615151415614af6577ff24fdb01b39b282f0a73d8e2396bfc3b56e46971230b5e86c6a4b8b19892ef666040518080602001828103825260268152602001807f4465766963652073657269616c206e756d626572206973206e6f74206176616981526020017f6c61626c652e000000000000000000000000000000000000000000000000000081525060400191505060405180910390a1600091506150c8565b828160000181905550601560008673ffffffffffffffffffffffffffffffffffffffff1673ffffffffffffffffffffffffffffffffffffffff168152602001908152602001600020846040518082805190602001908083835b602083101515614b745780518252602082019150602081019050602083039250614b4f565b6001836020036101000a038019825116818451168082178552505050505050905001915050908152602001604051809103902060030183815481101515614bb757fe5b9060005260206000209060050201600101816001019080546001816001161561010002031660029004614beb929190616eef565b50601560008673ffffffffffffffffffffffffffffffffffffffff1673ffffffffffffffffffffffffffffffffffffffff168152602001908152602001600020846040518082805190602001908083835b602083101515614c615780518252602082019150602081019050602083039250614c3c565b6001836020036101000a038019825116818451168082178552505050505050905001915050908152602001604051809103902060030183815481101515614ca457fe5b9060005260206000209060050201600201548160020181905550601560008673ffffffffffffffffffffffffffffffffffffffff1673ffffffffffffffffffffffffffffffffffffffff168152602001908152602001600020846040518082805190602001908083835b602083101515614d335780518252602082019150602081019050602083039250614d0e565b6001836020036101000a038019825116818451168082178552505050505050905001915050908152602001604051809103902060030183815481101515614d7657fe5b9060005260206000209060050201600301548160030181905550338160040160006101000a81548173ffffffffffffffffffffffffffffffffffffffff021916908373ffffffffffffffffffffffffffffffffffffffff160217905550428160050181905550601560008673ffffffffffffffffffffffffffffffffffffffff1673ffffffffffffffffffffffffffffffffffffffff168152602001908152602001600020846040518082805190602001908083835b602083101515614e515780518252602082019150602081019050602083039250614e2c565b6001836020036101000a038019825116818451168082178552505050505050905001915050908152602001604051809103902060040181908060018154018082558091505090600182039060005260206000209060060201600090919290919091506000820154816000015560018201816001019080546001816001161561010002031660029004614ee4929190616f76565b5060028201548160020155600382015481600301556004820160009054906101000a900473ffffffffffffffffffffffffffffffffffffffff168160040160006101000a81548173ffffffffffffffffffffffffffffffffffffffff021916908373ffffffffffffffffffffffffffffffffffffffff160217905550600582015481600501555050507f54376985c61133fd74ddfd5be0e7cacfebc5ee2b28b59fff7642086996680be484848360010184600201548560030154600160405180806020018781526020018060200186815260200185815260200184151515158152602001838103835289818151815260200191508051906020019080838360005b83811015615000578082015181840152602081019050614fe5565b50505050905090810190601f16801561502d5780820380516001836020036101000a031916815260200191505b508381038252878181546001816001161561010002031660029004815260200191508054600181600116156101000203166002900480156150af5780601f10615084576101008083540402835291602001916150af565b820191906000526020600020905b81548152906001019060200180831161509257829003601f168201915b50509850505050505050505060405180910390a1600191505b509392505050565b60006060600080600080601560008a73ffffffffffffffffffffffffffffffffffffffff1673ffffffffffffffffffffffffffffffffffffffff168152602001908152602001600020886040518082805190602001908083835b60208310151561514f578051825260208201915060208101905060208303925061512a565b6001836020036101000a03801982511681845116808217855250505050505090500191505090815260200160405180910390206003018781548110151561519257fe5b90600052602060002090600502019050806000015481600101826002015483600301548460040160009054906101000a900460ff16838054600181600116156101000203166002900480601f01602080910402602001604051908101604052809291908181526020018280546001816001161561010002031660029004801561525c5780601f106152315761010080835404028352916020019161525c565b820191906000526020600020905b81548152906001019060200180831161523f57829003601f168201915b505050505093509550955095509550955050939792965093509350565b60138181548110151561528857fe5b906000526020600020016000915054906101000a900473ffffffffffffffffffffffffffffffffffffffff1681565b6000808490506152c78585611c8d565b15615431578073ffffffffffffffffffffffffffffffffffffffff16638f4ffcb1338630876040518563ffffffff167c0100000000000000000000000000000000000000000000000000000000028152600401808573ffffffffffffffffffffffffffffffffffffffff1673ffffffffffffffffffffffffffffffffffffffff1681526020018481526020018373ffffffffffffffffffffffffffffffffffffffff1673ffffffffffffffffffffffffffffffffffffffff16815260200180602001828103825283818151815260200191508051906020019080838360005b838110156153c15780820151818401526020810190506153a6565b50505050905090810190601f1680156153ee5780820380516001836020036101000a031916815260200191505b5095505050505050600060405180830381600087803b15801561541057600080fd5b505af1158015615424573d6000803e3d6000fd5b5050505060019150615432565b5b509392505050565b6000809054906101000a900473ffffffffffffffffffffffffffffffffffffffff1673ffffffffffffffffffffffffffffffffffffffff163373ffffffffffffffffffffffffffffffffffffffff1614151561549557600080fd5b6002600e5402600e81905550600e54600d60008282540192505081905550565b6000601480549050905090565b6012602052816000526040600020602052806000526040600020600091509150505481565b6000809054906101000a900473ffffffffffffffffffffffffffffffffffffffff1673ffffffffffffffffffffffffffffffffffffffff163373ffffffffffffffffffffffffffffffffffffffff1614151561554257600080fd5b80601060008473ffffffffffffffffffffffffffffffffffffffff1673ffffffffffffffffffffffffffffffffffffffff16815260200190815260200160002060006101000a81548160ff0219169083151502179055507f48335238b4855f35377ed80f164e8c6f3c366e54ac00b96a6402d4a9814a03a58282604051808373ffffffffffffffffffffffffffffffffffffffff1673ffffffffffffffffffffffffffffffffffffffff168152602001821515151581526020019250505060405180910390a15050565b60075481565b6000600190509392505050565b6000809054906101000a900473ffffffffffffffffffffffffffffffffffffffff1673ffffffffffffffffffffffffffffffffffffffff163373ffffffffffffffffffffffffffffffffffffffff1614151561567a57600080fd5b806000806101000a81548173ffffffffffffffffffffffffffffffffffffffff021916908373ffffffffffffffffffffffffffffffffffffffff16021790555050565b6000601160008373ffffffffffffffffffffffffffffffffffffffff1673ffffffffffffffffffffffffffffffffffffffff168152602001908152602001600020549050919050565b60008273ffffffffffffffffffffffffffffffffffffffff161415151561572c57600080fd5b80601160008573ffffffffffffffffffffffffffffffffffffffff1673ffffffffffffffffffffffffffffffffffffffff168152602001908152602001600020541015151561577a57600080fd5b601160008373ffffffffffffffffffffffffffffffffffffffff1673ffffffffffffffffffffffffffffffffffffffff1681526020019081526020016000205481601160008573ffffffffffffffffffffffffffffffffffffffff1673ffffffffffffffffffffffffffffffffffffffff16815260200190815260200160002054011015151561580957600080fd5b601060008473ffffffffffffffffffffffffffffffffffffffff1673ffffffffffffffffffffffffffffffffffffffff16815260200190815260200160002060009054906101000a900460ff1615151561586257600080fd5b601060008373ffffffffffffffffffffffffffffffffffffffff1673ffffffffffffffffffffffffffffffffffffffff16815260200190815260200160002060009054906101000a900460ff161515156158bb57600080fd5b80601160008573ffffffffffffffffffffffffffffffffffffffff1673ffffffffffffffffffffffffffffffffffffffff1681526020019081526020016000206000828254039250508190555080601160008473ffffffffffffffffffffffffffffffffffffffff1673ffffffffffffffffffffffffffffffffffffffff168152602001908152602001600020600082825401925050819055508173ffffffffffffffffffffffffffffffffffffffff168373ffffffffffffffffffffffffffffffffffffffff167fddf252ad1be2c89b69c2b068fc378daa952ba7f163c4a11628f55a4df523b3ef836040518082815260200191505060405180910390a3505050565b600080600160009054906101000a900473ffffffffffffffffffffffffffffffffffffffff1673ffffffffffffffffffffffffffffffffffffffff161480615a3157506000615a2f600160009054906101000a900473ffffffffffffffffffffffffffffffffffffffff166166af565b145b15615a4257615a4060006166ba565b505b600160009054906101000a900473ffffffffffffffffffffffffffffffffffffffff1673ffffffffffffffffffffffffffffffffffffffff166338cc48316040518163ffffffff167c0100000000000000000000000000000000000000000000000000000000028152600401602060405180830381600087803b158015615ac857600080fd5b505af1158015615adc573d6000803e3d6000fd5b505050506040513d6020811015615af257600080fd5b810190808051906020019092919050505073ffffffffffffffffffffffffffffffffffffffff16600260009054906101000a900473ffffffffffffffffffffffffffffffffffffffff1673ffffffffffffffffffffffffffffffffffffffff16141515615c5b57600160009054906101000a900473ffffffffffffffffffffffffffffffffffffffff1673ffffffffffffffffffffffffffffffffffffffff166338cc48316040518163ffffffff167c0100000000000000000000000000000000000000000000000000000000028152600401602060405180830381600087803b158015615bdf57600080fd5b505af1158015615bf3573d6000803e3d6000fd5b505050506040513d6020811015615c0957600080fd5b8101908080519060200190929190505050600260006101000a81548173ffffffffffffffffffffffffffffffffffffffff021916908373ffffffffffffffffffffffffffffffffffffffff1602179055505b600260009054906101000a900473ffffffffffffffffffffffffffffffffffffffff1673ffffffffffffffffffffffffffffffffffffffff1663c281d19e6040518163ffffffff167c0100000000000000000000000000000000000000000000000000000000028152600401602060405180830381600087803b158015615ce157600080fd5b505af1158015615cf5573d6000803e3d6000fd5b505050506040513d6020811015615d0b57600080fd5b8101908080519060200190929190505050905090565b6000615d2e8260006166cb565b9050919050565b600080600160009054906101000a900473ffffffffffffffffffffffffffffffffffffffff1673ffffffffffffffffffffffffffffffffffffffff161480615da757506000615da5600160009054906101000a900473ffffffffffffffffffffffffffffffffffffffff166166af565b145b15615db857615db660006166ba565b505b600160009054906101000a900473ffffffffffffffffffffffffffffffffffffffff1673ffffffffffffffffffffffffffffffffffffffff166338cc48316040518163ffffffff167c0100000000000000000000000000000000000000000000000000000000028152600401602060405180830381600087803b158015615e3e57600080fd5b505af1158015615e52573d6000803e3d6000fd5b505050506040513d6020811015615e6857600080fd5b810190808051906020019092919050505073ffffffffffffffffffffffffffffffffffffffff16600260009054906101000a900473ffffffffffffffffffffffffffffffffffffffff1673ffffffffffffffffffffffffffffffffffffffff16141515615fd157600160009054906101000a900473ffffffffffffffffffffffffffffffffffffffff1673ffffffffffffffffffffffffffffffffffffffff166338cc48316040518163ffffffff167c0100000000000000000000000000000000000000000000000000000000028152600401602060405180830381600087803b158015615f5557600080fd5b505af1158015615f69573d6000803e3d6000fd5b505050506040513d6020811015615f7f57600080fd5b8101908080519060200190929190505050600260006101000a81548173ffffffffffffffffffffffffffffffffffffffff021916908373ffffffffffffffffffffffffffffffffffffffff1602179055505b600260009054906101000a900473ffffffffffffffffffffffffffffffffffffffff1673ffffffffffffffffffffffffffffffffffffffff1663524f3889836040518263ffffffff167c01000000000000000000000000000000000000000000000000000000000281526004018080602001828103825283818151815260200191508051906020019080838360005b8381101561607b578082015181840152602081019050616060565b50505050905090810190601f1680156160a85780820380516001836020036101000a031916815260200191505b5092505050602060405180830381600087803b1580156160c757600080fd5b505af11580156160db573d6000803e3d6000fd5b505050506040513d60208110156160f157600080fd5b81019080805190602001909291905050509050919050565b6000806000600160009054906101000a900473ffffffffffffffffffffffffffffffffffffffff1673ffffffffffffffffffffffffffffffffffffffff16148061617d5750600061617b600160009054906101000a900473ffffffffffffffffffffffffffffffffffffffff166166af565b145b1561618e5761618c60006166ba565b505b600160009054906101000a900473ffffffffffffffffffffffffffffffffffffffff1673ffffffffffffffffffffffffffffffffffffffff166338cc48316040518163ffffffff167c0100000000000000000000000000000000000000000000000000000000028152600401602060405180830381600087803b15801561621457600080fd5b505af1158015616228573d6000803e3d6000fd5b505050506040513d602081101561623e57600080fd5b810190808051906020019092919050505073ffffffffffffffffffffffffffffffffffffffff16600260009054906101000a900473ffffffffffffffffffffffffffffffffffffffff1673ffffffffffffffffffffffffffffffffffffffff161415156163a757600160009054906101000a900473ffffffffffffffffffffffffffffffffffffffff1673ffffffffffffffffffffffffffffffffffffffff166338cc48316040518163ffffffff167c0100000000000000000000000000000000000000000000000000000000028152600401602060405180830381600087803b15801561632b57600080fd5b505af115801561633f573d6000803e3d6000fd5b505050506040513d602081101561635557600080fd5b8101908080519060200190929190505050600260006101000a81548173ffffffffffffffffffffffffffffffffffffffff021916908373ffffffffffffffffffffffffffffffffffffffff1602179055505b600260009054906101000a900473ffffffffffffffffffffffffffffffffffffffff1673ffffffffffffffffffffffffffffffffffffffff1663524f3889856040518263ffffffff167c01000000000000000000000000000000000000000000000000000000000281526004018080602001828103825283818151815260200191508051906020019080838360005b83811015616451578082015181840152602081019050616436565b50505050905090810190601f16801561647e5780820380516001836020036101000a031916815260200191505b5092505050602060405180830381600087803b15801561649d57600080fd5b505af11580156164b1573d6000803e3d6000fd5b505050506040513d60208110156164c757600080fd5b8101908080519060200190929190505050905062030d403a02670de0b6b3a7640000018111156164fd57600060010291506166a7565b600260009054906101000a900473ffffffffffffffffffffffffffffffffffffffff1673ffffffffffffffffffffffffffffffffffffffff1663adf59f99828787876040518563ffffffff167c0100000000000000000000000000000000000000000000000000000000028152600401808481526020018060200180602001838103835285818151815260200191508051906020019080838360005b838110156165b4578082015181840152602081019050616599565b50505050905090810190601f1680156165e15780820380516001836020036101000a031916815260200191505b50838103825284818151815260200191508051906020019080838360005b8381101561661a5780820151818401526020810190506165ff565b50505050905090810190601f1680156166475780820380516001836020036101000a031916815260200191505b50955050505050506020604051808303818588803b15801561666857600080fd5b505af115801561667c573d6000803e3d6000fd5b50505050506040513d602081101561669357600080fd5b810190808051906020019092919050505091505b509392505050565b6000813b9050919050565b60006166c46169bf565b9050919050565b6000606060008060008693506000925060009150600090505b83518110156169a05760307f010000000000000000000000000000000000000000000000000000000000000002848281518110151561671f57fe5b9060200101517f010000000000000000000000000000000000000000000000000000000000000090047f0100000000000000000000000000000000000000000000000000000000000000027effffffffffffffffffffffffffffffffffffffffffffffffffffffffffffff191610158015616837575060397f01000000000000000000000000000000000000000000000000000000000000000284828151811015156167c757fe5b9060200101517f010000000000000000000000000000000000000000000000000000000000000090047f0100000000000000000000000000000000000000000000000000000000000000027effffffffffffffffffffffffffffffffffffffffffffffffffffffffffffff191611155b156168e857811561685a576000861415616850576169a0565b8580600190039650505b600a830292506030848281518110151561687057fe5b9060200101517f010000000000000000000000000000000000000000000000000000000000000090047f0100000000000000000000000000000000000000000000000000000000000000027f010000000000000000000000000000000000000000000000000000000000000090040383019250616993565b602e7f010000000000000000000000000000000000000000000000000000000000000002848281518110151561691a57fe5b9060200101517f010000000000000000000000000000000000000000000000000000000000000090047f0100000000000000000000000000000000000000000000000000000000000000027effffffffffffffffffffffffffffffffffffffffffffffffffffffffffffff1916141561699257600191505b5b80806001019150506166e4565b60008611156169b25785600a0a830292505b8294505050505092915050565b6000806169df731d3b2638a7cc9f2cb3d298a3da7a90b67e5506ed6166af565b1115616a8157731d3b2638a7cc9f2cb3d298a3da7a90b67e5506ed600160006101000a81548173ffffffffffffffffffffffffffffffffffffffff021916908373ffffffffffffffffffffffffffffffffffffffff160217905550616a786040805190810160405280600b81526020017f6574685f6d61696e6e6574000000000000000000000000000000000000000000815250616e55565b60019050616e52565b6000616aa073c03a2615d5efaf5f49f60b7bb6583eaec212fdf16166af565b1115616b425773c03a2615d5efaf5f49f60b7bb6583eaec212fdf1600160006101000a81548173ffffffffffffffffffffffffffffffffffffffff021916908373ffffffffffffffffffffffffffffffffffffffff160217905550616b396040805190810160405280600c81526020017f6574685f726f707374656e330000000000000000000000000000000000000000815250616e55565b60019050616e52565b6000616b6173b7a07bcf2ba2f2703b24c0691b5278999c59ac7e6166af565b1115616c035773b7a07bcf2ba2f2703b24c0691b5278999c59ac7e600160006101000a81548173ffffffffffffffffffffffffffffffffffffffff021916908373ffffffffffffffffffffffffffffffffffffffff160217905550616bfa6040805190810160405280600981526020017f6574685f6b6f76616e0000000000000000000000000000000000000000000000815250616e55565b60019050616e52565b6000616c2273146500cfd35b22e4a392fe0adc06de1a1368ed486166af565b1115616cc45773146500cfd35b22e4a392fe0adc06de1a1368ed48600160006101000a81548173ffffffffffffffffffffffffffffffffffffffff021916908373ffffffffffffffffffffffffffffffffffffffff160217905550616cbb6040805190810160405280600b81526020017f6574685f72696e6b656279000000000000000000000000000000000000000000815250616e55565b60019050616e52565b6000616ce3736f485c8bf6fc43ea212e93bbf8ce046c7f1cb4756166af565b1115616d4757736f485c8bf6fc43ea212e93bbf8ce046c7f1cb475600160006101000a81548173ffffffffffffffffffffffffffffffffffffffff021916908373ffffffffffffffffffffffffffffffffffffffff16021790555060019050616e52565b6000616d667320e12a1f859b3feae5fb2a0a32c18f5a65555bbf6166af565b1115616dca577320e12a1f859b3feae5fb2a0a32c18f5a65555bbf600160006101000a81548173ffffffffffffffffffffffffffffffffffffffff021916908373ffffffffffffffffffffffffffffffffffffffff16021790555060019050616e52565b6000616de97351efaf4c8b3c9afbd5ab9f4bbc82784ab6ef8faa6166af565b1115616e4d577351efaf4c8b3c9afbd5ab9f4bbc82784ab6ef8faa600160006101000a81548173ffffffffffffffffffffffffffffffffffffffff021916908373ffffffffffffffffffffffffffffffffffffffff16021790555060019050616e52565b600090505b90565b8060039080519060200190616e6b929190616ffd565b5050565b828054600181600116156101000203166002900490600052602060002090601f016020900481019282601f10616eb057805160ff1916838001178555616ede565b82800160010185558215616ede579182015b82811115616edd578251825591602001919060010190616ec2565b5b509050616eeb919061707d565b5090565b828054600181600116156101000203166002900490600052602060002090601f016020900481019282601f10616f285780548555616f65565b82800160010185558215616f6557600052602060002091601f016020900482015b82811115616f64578254825591600101919060010190616f49565b5b509050616f72919061707d565b5090565b828054600181600116156101000203166002900490600052602060002090601f016020900481019282601f10616faf5780548555616fec565b82800160010185558215616fec57600052602060002091601f016020900482015b82811115616feb578254825591600101919060010190616fd0565b5b509050616ff9919061707d565b5090565b828054600181600116156101000203166002900490600052602060002090601f016020900481019282601f1061703e57805160ff191683800117855561706c565b8280016001018555821561706c579182015b8281111561706b578251825591602001919060010190617050565b5b509050617079919061707d565b5090565b61709f91905b8082111561709b576000816000905550600101617083565b5090565b905600a165627a7a723058206999622a00bf578d5d32f18897241e0d8cea3b6b981eb548d928acfb3309b3080029",
  "source": "pragma solidity ^0.4.24;\n\ninterface tokenRecipient {function receiveApproval(address _from, uint256 _value, address _token, bytes _extraData) external;}\nimport \"./Owned.sol\";\nimport \"./FetchPrice.sol\";\n// import './SafeMath.sol';\n\ncontract StandardToken is Owned, FetchPrice {\n    // using SafeMath for uint;\n    string public name;\n    string public symbol;\n    uint8 public decimals = 18;\n    uint256 public totalSupply;\n    uint256 public initSupply;\n    address _rawbot_team;\n    mapping(address => bool) public frozenAccount;\n    mapping(address => uint256) public balanceOf;\n    mapping(address => mapping(address => uint256)) public allowance;\n\n    event Transfer(address indexed from, address indexed to, uint256 value);\n    event Approval(address indexed tokenOwner, address indexed spender, uint tokens);\n    event Burn(address indexed from, uint256 value);\n    event FrozenFunds(address target, bool frozen);\n    event ExchangeToEther(address _address, uint256 _amount_received, uint256 _amount_to_give);\n    event ExchangeToRaw(address _address, uint256 _amount_received, uint256 _amount_to_give);\n\n    /*\n        Devices related\n    */\n    address[] public exchange_addresses;\n    string[] public device_serial_numbers;\n\n    mapping(address => mapping(string => Device)) devices;\n    mapping(address => ActionHistory[]) public actionsHistoryOf;\n    mapping(address => User) public historyOf;\n\n    constructor(\n        uint256 initialSupply,\n        string tokenName,\n        string tokenSymbol\n    ) public {\n        totalSupply = initialSupply * 10 ** uint256(decimals);\n        initSupply = initialSupply * 10 ** uint256(decimals);\n        _rawbot_team = msg.sender;\n        balanceOf[_rawbot_team] = (totalSupply * 1) / 5;\n        name = tokenName;\n        symbol = tokenSymbol;\n    }\n\n    /**\n     * Transfer tokens\n     *\n     * Send `_value` tokens to `_to` from your account\n     *\n     * @param _to The address of the recipient\n     * @param _value the amount to send\n     */\n    function transfer(address _to, uint256 _value) public returns (bool success) {\n        _transfer(msg.sender, _to, _value);\n        return true;\n    }\n\n    /**\n     * Transfer tokens from other address\n     *\n     * Send `_value` tokens to `_to` in behalf of `_from`\n     *\n     * @param _from The address of the sender\n     * @param _to The address of the recipient\n     * @param _value the amount to send\n     */\n    function transferFrom(address _from, address _to, uint256 _value) public returns (bool success) {\n        require(_value <= allowance[_from][msg.sender]);     // Check allowance\n        allowance[_from][msg.sender] -= _value;\n        _transfer(_from, _to, _value);\n        return true;\n    }\n\n    /* Internal transfer, only can be called by this contract */\n    function _transfer(address _from, address _to, uint _value) internal {\n        require (_to != 0x0);                               // Prevent transfer to 0x0 address. Use burn() instead\n        require (balanceOf[_from] >= _value);               // Check if the sender has enough\n        require (balanceOf[_to] + _value >= balanceOf[_to]); // Check for overflows\n        require(!frozenAccount[_from]);                     // Check if sender is frozen\n        require(!frozenAccount[_to]);                       // Check if recipient is frozen\n        balanceOf[_from] -= _value;                         // Subtract from the sender\n        balanceOf[_to] += _value;                           // Add the same to the recipient\n        emit Transfer(_from, _to, _value);\n    }\n\n    function approve(address _spender, uint256 _value) public returns (bool success) {\n        allowance[msg.sender][_spender] = _value;\n        return true;\n    }\n\n    function approveAndCall(address _spender, uint256 _value, bytes _extraData)\n    public\n    returns (bool success) {\n        tokenRecipient spender = tokenRecipient(_spender);\n        if (approve(_spender, _value)) {\n            spender.receiveApproval(msg.sender, _value, this, _extraData);\n            return true;\n        }\n    }\n\n    function burn(uint256 _value) public returns (bool success) {\n        require(balanceOf[msg.sender] >= _value);\n        balanceOf[msg.sender] -= _value;\n        totalSupply -= _value;\n        emit Burn(msg.sender, _value);\n        return true;\n    }\n\n    function burnFrom(address _from, uint256 _value) public returns (bool success) {\n        require(balanceOf[_from] >= _value);\n        require(_value <= allowance[_from][msg.sender]);\n        balanceOf[_from] -= _value;\n        allowance[_from][msg.sender] -= _value;\n        totalSupply -= _value;\n        emit Burn(_from, _value);\n        return true;\n    }\n\n    function freezeAccount(address target, bool freeze) onlyOwner public {\n        frozenAccount[target] = freeze;\n        emit FrozenFunds(target, freeze);\n    }\n\n    function increaseSupply() public onlyOwner {\n        initSupply = initSupply * 2;\n        totalSupply += initSupply;\n    }\n\n    function getCurrentSupply() public view returns (uint256){\n        return initSupply;\n    }\n\n    function withdraw(uint value) public returns (bool success) {\n        if (historyOf[msg.sender].allowed_to_exchange >= 0 && historyOf[msg.sender].allowed_to_exchange >= value && balanceOf[msg.sender] >= value) {\n            msg.sender.transfer(((value / 2) / ETH_PRICE) * 1e18);\n            balanceOf[msg.sender] -= value * 10 ** 18;\n            historyOf[msg.sender].allowed_to_exchange -= value * 10 ** 18;\n            emit ExchangeToEther(msg.sender, value, ((value / 2) / ETH_PRICE) * 1e18);\n            return true;\n        } else {\n            return false;\n        }\n    }\n\n    function() payable public {\n        uint256 raw_amount = msg.value * ETH_PRICE * 2;\n        balanceOf[msg.sender] += raw_amount;\n        transfer(msg.sender, raw_amount);\n        historyOf[msg.sender].allowed_to_exchange += raw_amount;\n        addExchangeHistory(msg.sender, raw_amount, msg.value, ETH_PRICE, now);\n        emit ExchangeToRaw(msg.sender, msg.value, raw_amount);\n    }\n\n\n    function getBalance(address _address) public view returns (uint256){\n        return balanceOf[_address];\n    }\n\n    function getContractBalance() public view returns (uint256) {\n        return address(this).balance;\n    }\n\n    struct User {\n        uint256 allowed_to_exchange;\n        ExchangeHistory[] history;\n        bool available;\n    }\n\n    struct ExchangeHistory {\n        uint256 raw_amount;\n        uint256 raw_exchange;\n        uint256 eth_received;\n        uint256 eth_price;\n        uint256 time_ms;\n        bool available;\n    }\n\n    struct UserHistory {\n        uint256 action_id;\n        string action_name;\n        uint256 action_price;\n        uint256 action_duration;\n        string device_serial_number;\n        string device_name;\n        address user;\n        address device_address;\n        uint256 time;\n    }\n\n    struct Action {\n        uint256 action_id;\n        string action_name;\n        uint256 action_price;\n        uint256 action_duration;\n        bool available;\n    }\n\n    struct ActionHistory {\n        uint256 action_id;\n        string action_name;\n        uint256 action_price;\n        uint256 action_duration;\n        address user;\n        uint256 time;\n    }\n\n    struct Device {\n        string device_name;\n        uint256 device_balance;\n        address device_owner;\n        Action[] device_actions;\n        ActionHistory[] device_history;\n        bool available;\n    }\n\n\n    event SendErrorMessage(string _error_message);\n    event AddDevice(address _owner_address, address _device_address, string _device_serial_number, string _device_name, bool _success);\n    event ActionAdd(string, uint, string, uint256, uint256, bool);\n    event ActionEnable(string, uint, string, uint256, uint256, bool);\n    event ActionDisable(string, uint, string, uint256, uint256, bool);\n\n    //\"0xf1e7282908c481d2647fa1242fd411ed1d93d212\", 100, 1e18, 500, 123123\n    function addExchangeHistory(address _address, uint256 _raw_amount, uint256 _eth_received, uint256 _eth_price, uint256 _time_ms) public returns (bool){\n        historyOf[msg.sender].history.push(ExchangeHistory(_raw_amount, 0, _eth_received, _eth_price, _time_ms, true));\n        if (historyOf[_address].available == false) {\n            exchange_addresses.push(_address);\n        }\n        return true;\n    }\n\n    //\"0x577ccfbd7b0ee9e557029775c531552a65d9e11d\", \"ABC1\", \"Raspberry PI 3\"\n    function addDevice(address _address, string _device_serial_number, string _device_name) public returns (bool success) {\n        if (devices[_address][_device_serial_number].available == false) {\n            Device storage current_device = devices[_address][_device_serial_number];\n            current_device.device_name = _device_name;\n            current_device.device_balance = 0;\n            current_device.device_owner = msg.sender;\n            current_device.available = true;\n            device_serial_numbers.push(_device_serial_number);\n            emit AddDevice(msg.sender, _address, _device_serial_number, _device_name, true);\n            return true;\n        } else {\n            emit SendErrorMessage(\"Device serial number is already available on the same address.\");\n            return false;\n        }\n    }\n    // \"0x577ccfbd7b0ee9e557029775c531552a65d9e11d\", \"ABC1\", 1\n    function performAction(address _device_address, string _device_serial_number, uint256 _action_id) public payable returns (bool success) {\n        return true;\n    }\n\n    //\"0x577ccfbd7b0ee9e557029775c531552a65d9e11d\", \"ABC1\", \"Open\", 20, 20\n    function addAction(address _device_address, string _device_serial_number, string _action_name, uint256 _action_price, uint256 _action_duration) public returns (bool success) {\n        if (devices[_device_address][_device_serial_number].available == false) {\n            emit SendErrorMessage(\"Device serial number is not available.\");\n            return false;\n        } else {\n            uint256 actions_length = devices[_device_address][_device_serial_number].device_actions.length;\n            devices[_device_address][_device_serial_number].device_actions.push(Action(actions_length, _action_name, _action_price, _action_duration, true));\n            emit ActionAdd(_device_serial_number, actions_length, _action_name, _action_price, _action_duration, true);\n            return true;\n        }\n    }\n\n    //\"0x577ccfbd7b0ee9e557029775c531552a65d9e11d\", \"ABC1\", 0\n    function enableAction(address _device_address, string _device_serial_number, uint256 _action_id) public payable returns (bool success) {\n        if (devices[_device_address][_device_serial_number].available == false) {\n            emit SendErrorMessage(\"Device serial number is not available.\");\n            return false;\n        }\n\n        if (devices[_device_address][_device_serial_number].device_actions[_action_id].available == false) {\n            emit SendErrorMessage(\"Device action id is not available.\");\n            return false;\n        }\n\n        if (balanceOf[msg.sender] < devices[_device_address][_device_serial_number].device_actions[_action_id].action_price) {\n            emit SendErrorMessage(\"User doesn't have enough balance to perform action.\");\n            return false;\n        }\n\n        balanceOf[msg.sender] -= devices[_device_address][_device_serial_number].device_actions[_action_id].action_price;\n        ActionHistory storage action_history;\n        action_history.action_id = _action_id;\n        action_history.action_name = devices[_device_address][_device_serial_number].device_actions[_action_id].action_name;\n        action_history.action_price = devices[_device_address][_device_serial_number].device_actions[_action_id].action_price;\n        action_history.action_duration = devices[_device_address][_device_serial_number].device_actions[_action_id].action_duration;\n        action_history.user = msg.sender;\n        action_history.time = now;\n        devices[_device_address][_device_serial_number].device_history.push(action_history);\n\n        actionsHistoryOf[msg.sender].push(action_history);\n        emit ActionEnable(\n            _device_serial_number,\n            _action_id,\n            action_history.action_name,\n            action_history.action_price,\n            action_history.action_duration,\n            true);\n        return true;\n    }\n\n    //\"0x577ccfbd7b0ee9e557029775c531552a65d9e11d\", \"ABC1\", 1\n    function disableAction(address _device_address, string _device_serial_number, uint256 _action_id) public returns (bool success) {\n        if (devices[_device_address][_device_serial_number].available == false) {\n            emit SendErrorMessage(\"Device serial number is not available.\");\n            return false;\n        } else {\n            ActionHistory storage action_history;\n            action_history.action_id = _action_id;\n            action_history.action_name = devices[_device_address][_device_serial_number].device_actions[_action_id].action_name;\n            action_history.action_price = devices[_device_address][_device_serial_number].device_actions[_action_id].action_price;\n            action_history.action_duration = devices[_device_address][_device_serial_number].device_actions[_action_id].action_duration;\n            action_history.user = msg.sender;\n            action_history.time = now;\n            devices[_device_address][_device_serial_number].device_history.push(action_history);\n\n            // actionsHistoryOf[msg.sender].push(ActionHistory(_action_id, actions[_device_serial_number][_action_id].action_name, actions[_device_serial_number][_action_id].action_price, actions[_device_serial_number][_action_id].action_duration, _device_serial_number, devices[_device_serial_number].device_name, msg.sender, devices[_device_serial_number].device_address, now));\n            emit ActionDisable(\n                _device_serial_number,\n                _action_id,\n                action_history.action_name,\n                action_history.action_price,\n                action_history.action_duration,\n                true);\n            return true;\n        }\n    }\n\n    function getTotalDevices() public view returns (uint) {\n        return (device_serial_numbers.length);\n    }\n\n    function getExchangeLeftOf(address _address) view public returns (uint256){\n        return historyOf[_address].allowed_to_exchange;\n    }\n\n    // \"0x577ccfbd7b0ee9e557029775c531552a65d9e11d\", \"ABC1\"\n    function getDevice(address _device_address, string _device_serial_number) public view returns (string, uint256, address, bool){\n        Device storage current_device = devices[_device_address][_device_serial_number];\n        return (current_device.device_name, current_device.device_balance, current_device.device_owner, current_device.available);\n    }\n\n    function getDeviceActionOf(address _device_address, string _device_serial_number, uint256 _index) public view returns (uint256, string, uint256, uint256, bool) {\n        Action storage current_device_action = devices[_device_address][_device_serial_number].device_actions[_index];\n        return (current_device_action.action_id, current_device_action.action_name, current_device_action.action_price, current_device_action.action_duration, current_device_action.available);\n    }\n\n    function getDeviceActionHistoryOf(address _device_address, string _device_serial_number, uint256 _index) public view returns (uint256, string, uint256, uint256, address, uint256) {\n        ActionHistory storage current_device_history = devices[_device_address][_device_serial_number].device_history[_index];\n        return (current_device_history.action_id, current_device_history.action_name, current_device_history.action_price, current_device_history.action_duration, current_device_history.user, current_device_history.time);\n    }\n\n    function getActionLengthOf(address _device_address, string _device_serial_number) view public returns (uint256) {\n        return devices[_device_address][_device_serial_number].device_actions.length;\n    }\n\n    function getHistoryLengthOf(address _device_address, string _device_serial_number) view public returns (uint256) {\n        return devices[_device_address][_device_serial_number].device_history.length;\n    }\n\n    function getAddresses() view public returns (address[]) {\n        return exchange_addresses;\n    }\n}",
  "sourcePath": "/Users/hassanjawhar/Desktop/Workspace/rawbot/contracts/StandardToken.sol",
  "compiler": {
    "name": "solc",
    "version": "0.4.24+commit.e67f0147.Emscripten.clang"
  },
  "schemaVersion": "2.0.0",
  "updatedAt": "2018-08-02T09:32:20.162Z"
}